{"contracts/WorldWideWeb3.sol":{"WorldWideWeb3":{"abi":[{"inputs":[{"internalType":"string","name":"_name","type":"string"},{"internalType":"string","name":"_version","type":"string"},{"internalType":"address","name":"_validator","type":"address"},{"internalType":"address","name":"_shareHoldingContract","type":"address"}],"stateMutability":"nonpayable","type":"constructor"},{"anonymous":false,"inputs":[{"indexed":false,"internalType":"address","name":"account","type":"address"},{"indexed":false,"internalType":"uint256","name":"id","type":"uint256"}],"name":"Mint","type":"event"},{"anonymous":false,"inputs":[{"indexed":true,"internalType":"address","name":"previousOwner","type":"address"},{"indexed":true,"internalType":"address","name":"newOwner","type":"address"}],"name":"OwnershipTransferred","type":"event"},{"anonymous":false,"inputs":[{"indexed":false,"internalType":"address","name":"account","type":"address"},{"indexed":false,"internalType":"uint256","name":"tier","type":"uint256"},{"indexed":false,"internalType":"bytes","name":"signature","type":"bytes"}],"name":"Signer","type":"event"},{"inputs":[],"name":"_getChainId","outputs":[{"internalType":"uint256","name":"chainId","type":"uint256"}],"stateMutability":"view","type":"function"},{"inputs":[],"name":"owner","outputs":[{"internalType":"address","name":"","type":"address"}],"stateMutability":"view","type":"function"},{"inputs":[{"internalType":"address","name":"","type":"address"}],"name":"premiumAccount","outputs":[{"internalType":"bool","name":"","type":"bool"}],"stateMutability":"view","type":"function"},{"inputs":[],"name":"renounceOwnership","outputs":[],"stateMutability":"nonpayable","type":"function"},{"inputs":[{"internalType":"string","name":"message","type":"string"},{"internalType":"string","name":"latitude","type":"string"},{"internalType":"string","name":"longitude","type":"string"},{"internalType":"uint256","name":"deadline","type":"uint256"},{"internalType":"uint256","name":"tier","type":"uint256"},{"internalType":"bytes","name":"signature","type":"bytes"},{"internalType":"bytes","name":"validatorSignature","type":"bytes"}],"name":"submitMessage","outputs":[],"stateMutability":"payable","type":"function"},{"inputs":[{"internalType":"uint256","name":"","type":"uint256"}],"name":"tierPrice","outputs":[{"internalType":"uint256","name":"","type":"uint256"}],"stateMutability":"view","type":"function"},{"inputs":[{"internalType":"address","name":"newOwner","type":"address"}],"name":"transferOwnership","outputs":[],"stateMutability":"nonpayable","type":"function"},{"inputs":[{"internalType":"address","name":"","type":"address"}],"name":"trust","outputs":[{"internalType":"uint256","name":"","type":"uint256"}],"stateMutability":"view","type":"function"},{"inputs":[{"internalType":"string","name":"message","type":"string"},{"internalType":"string","name":"latitude","type":"string"},{"internalType":"string","name":"longitude","type":"string"},{"internalType":"uint256","name":"time","type":"uint256"},{"internalType":"uint256","name":"tier","type":"uint256"},{"internalType":"bytes","name":"_signature","type":"bytes"}],"name":"validateMessage","outputs":[{"internalType":"address","name":"","type":"address"}],"stateMutability":"view","type":"function"},{"inputs":[],"name":"validator","outputs":[{"internalType":"address","name":"","type":"address"}],"stateMutability":"view","type":"function"}],"evm":{"bytecode":{"linkReferences":{},"object":"6101406040523480156200001257600080fd5b50604051620026463803806200264683398181016040528101906200003891906200077d565b838381816200005c620000506200033360201b60201c565b6200033b60201b60201c565b60008280519060200120905060008280519060200120905060007f8b73c3c69bb8fe3d512ecc4cf759cc79239f7b179b0ffacaa9a75d522b39400f90508260e081815250508161010081815250504660a08181525050620000c5818484620003ff60201b60201c565b608081815250503073ffffffffffffffffffffffffffffffffffffffff1660c08173ffffffffffffffffffffffffffffffffffffffff168152505080610120818152505050505050506200012a677605795e6bf8f49b60c01b6200043b60201b60201c565b62000146673b718fecd7659de060c01b6200043b60201b60201c565b6200019c6040518060800160405280848152602001838152602001620001716200043e60201b60201c565b81526020013073ffffffffffffffffffffffffffffffffffffffff16815250620004b660201b60201c565b6001819055505050620001c0678274fb14d0c60f0d60c01b6200058260201b60201c565b620001dc677f01977a4c08a03560c01b6200058260201b60201c565b6000600460006001815260200190815260200160002081905550620002126731cfb2abdd14054c60c01b6200058260201b60201c565b660aa87bee5380006004600060028152602001908152602001600020819055506200024e674bb20cb7dbb83f3560c01b6200058260201b60201c565b670429d069189e00006004600060038152602001908152602001600020819055506200028b67611a24467899e88160c01b6200058260201b60201c565b81600260006101000a81548173ffffffffffffffffffffffffffffffffffffffff021916908373ffffffffffffffffffffffffffffffffffffffff160217905550620002e8677a1f517941f7315e60c01b6200058260201b60201c565b80600660006101000a81548173ffffffffffffffffffffffffffffffffffffffff021916908373ffffffffffffffffffffffffffffffffffffffff16021790555050505050620008d1565b600033905090565b60008060009054906101000a900473ffffffffffffffffffffffffffffffffffffffff169050816000806101000a81548173ffffffffffffffffffffffffffffffffffffffff021916908373ffffffffffffffffffffffffffffffffffffffff1602179055508173ffffffffffffffffffffffffffffffffffffffff168173ffffffffffffffffffffffffffffffffffffffff167f8be0079c531659141344cd1fd0a4f28419497f9722a3daafe3b4186f6b6457e060405160405180910390a35050565b600083838346306040516020016200041c95949392919062000874565b6040516020818303038152906040528051906020012090509392505050565b50565b60006200045c674d8781a188f4e9de60c01b6200043b60201b60201c565b62000478671954c3e5c09214e260c01b6200043b60201b60201c565b4690506200049767c4148d33c013634960c01b6200043b60201b60201c565b620004b367dc9d80ffb8b9038260c01b6200043b60201b60201c565b90565b6000620004d4670c6233df7b258fb160c01b6200043b60201b60201c565b620004f06798298bb581e2185e60c01b6200043b60201b60201c565b6200050c670b1e7f8dd82adaa160c01b6200043b60201b60201c565b7f8b73c3c69bb8fe3d512ecc4cf759cc79239f7b179b0ffacaa9a75d522b39400f826000015180519060200120836020015180519060200120846040015185606001516040516020016200056595949392919062000874565b604051602081830303815290604052805190602001209050919050565b50565b6000604051905090565b600080fd5b600080fd5b600080fd5b600080fd5b6000601f19601f8301169050919050565b7f4e487b7100000000000000000000000000000000000000000000000000000000600052604160045260246000fd5b620005ee82620005a3565b810181811067ffffffffffffffff8211171562000610576200060f620005b4565b5b80604052505050565b60006200062562000585565b9050620006338282620005e3565b919050565b600067ffffffffffffffff821115620006565762000655620005b4565b5b6200066182620005a3565b9050602081019050919050565b60005b838110156200068e57808201518184015260208101905062000671565b60008484015250505050565b6000620006b1620006ab8462000638565b62000619565b905082815260208101848484011115620006d057620006cf6200059e565b5b620006dd8482856200066e565b509392505050565b600082601f830112620006fd57620006fc62000599565b5b81516200070f8482602086016200069a565b91505092915050565b600073ffffffffffffffffffffffffffffffffffffffff82169050919050565b6000620007458262000718565b9050919050565b620007578162000738565b81146200076357600080fd5b50565b60008151905062000777816200074c565b92915050565b600080600080608085870312156200079a57620007996200058f565b5b600085015167ffffffffffffffff811115620007bb57620007ba62000594565b5b620007c987828801620006e5565b945050602085015167ffffffffffffffff811115620007ed57620007ec62000594565b5b620007fb87828801620006e5565b93505060406200080e8782880162000766565b9250506060620008218782880162000766565b91505092959194509250565b6000819050919050565b62000842816200082d565b82525050565b6000819050919050565b6200085d8162000848565b82525050565b6200086e8162000738565b82525050565b600060a0820190506200088b600083018862000837565b6200089a602083018762000837565b620008a9604083018662000837565b620008b8606083018562000852565b620008c7608083018462000863565b9695505050505050565b60805160a05160c05160e0516101005161012051611d376200090f600039600050506000505060005050600050506000505060005050611d376000f3fe6080604052600436106100915760003560e01c80638da5cb5b116100595780638da5cb5b1461017d578063d97cb71f146101a8578063f2fde38b146101c4578063fa09da07146101ed578063fb660a131461022a57610091565b806302346b05146100965780633a5381b5146100c15780634637d827146100ec578063715018a614610129578063826d337914610140575b600080fd5b3480156100a257600080fd5b506100ab610267565b6040516100b891906110f5565b60405180910390f35b3480156100cd57600080fd5b506100d66102bf565b6040516100e39190611151565b60405180910390f35b3480156100f857600080fd5b50610113600480360381019061010e91906111ac565b6102e5565b60405161012091906110f5565b60405180910390f35b34801561013557600080fd5b5061013e6102fd565b005b34801561014c57600080fd5b5061016760048036038101906101629190611205565b610311565b60405161017491906110f5565b60405180910390f35b34801561018957600080fd5b50610192610329565b60405161019f9190611151565b60405180910390f35b6101c260048036038101906101bd9190611419565b610352565b005b3480156101d057600080fd5b506101eb60048036038101906101e691906111ac565b610a83565b005b3480156101f957600080fd5b50610214600480360381019061020f9190611547565b610b06565b6040516102219190611151565b60405180910390f35b34801561023657600080fd5b50610251600480360381019061024c91906111ac565b610c5a565b60405161025e919061165f565b60405180910390f35b600061027d674d8781a188f4e9de60c01b610c7a565b610291671954c3e5c09214e260c01b610c7a565b4690506102a867c4148d33c013634960c01b610c7a565b6102bc67dc9d80ffb8b9038260c01b610c7a565b90565b600260009054906101000a900473ffffffffffffffffffffffffffffffffffffffff1681565b60036020528060005260406000206000915090505481565b610305610c7d565b61030f6000610cfb565b565b60046020528060005260406000206000915090505481565b60008060009054906101000a900473ffffffffffffffffffffffffffffffffffffffff16905090565b61036667a92c13946be43ba960c01b610dbf565b61037a67c936004919b74bd260c01b610dbf565b61038e67e63b3109553c7d0260c01b610dbf565b6103a2677993e56b85e2ccb060c01b610dbf565b3373ffffffffffffffffffffffffffffffffffffffff166103c7888888888888610b06565b73ffffffffffffffffffffffffffffffffffffffff161461041d576040517f08c379a0000000000000000000000000000000000000000000000000000000008152600401610414906116d7565b60405180910390fd5b61043167ebba8b1b4331b1f960c01b610dbf565b61044567f0d4a9986741873060c01b610dbf565b6104596708c03468a501358960c01b610dbf565b61046d6728a4860801a15c0660c01b610dbf565b600260009054906101000a900473ffffffffffffffffffffffffffffffffffffffff1673ffffffffffffffffffffffffffffffffffffffff166104b4888888888887610b06565b73ffffffffffffffffffffffffffffffffffffffff161461050a576040517f08c379a000000000000000000000000000000000000000000000000000000000815260040161050190611743565b60405180910390fd5b61051e67942d5ed3cffbe11560c01b610dbf565b610532679ea1ce95ff3a43ca60c01b610dbf565b61054667af9d12953d0785f160c01b610dbf565b61055a67d429d1b09593b30c60c01b610dbf565b60008311801561056a5750600483105b6105a9576040517f08c379a00000000000000000000000000000000000000000000000000000000081526004016105a0906117af565b60405180910390fd5b6105bd670202da6233bf6b2560c01b610dbf565b6105d167e9446412a2175ada60c01b610dbf565b6105e56759f99933874e5a6660c01b610dbf565b6105f9674f04a9fc64efe94260c01b610dbf565b83421061063b576040517f08c379a00000000000000000000000000000000000000000000000000000000081526004016106329061181b565b60405180910390fd5b61064f6710c0ab359f1be18560c01b610dbf565b6106636757eb25a0ba94c58660c01b610dbf565b61067767336bf1b5d82d612160c01b610dbf565b600560003373ffffffffffffffffffffffffffffffffffffffff1673ffffffffffffffffffffffffffffffffffffffff16815260200190815260200160002060009054906101000a900460ff16156106e2576106dd6776a759e213558ba960c01b610dbf565b6108d0565b6106f66792e8e96c6f0a00ca60c01b610dbf565b61070a671d01f466d5f4af6f60c01b610dbf565b61071e67d02e4b10dc3848e260c01b610dbf565b61073267ed3069eb24ce5fd760c01b610dbf565b60046000848152602001908152602001600020543414610787576040517f08c379a000000000000000000000000000000000000000000000000000000000815260040161077e90611887565b60405180910390fd5b61079b67f3ee33c99978849060c01b610dbf565b6107af67318e8743299a51dc60c01b610dbf565b34600360003373ffffffffffffffffffffffffffffffffffffffff1673ffffffffffffffffffffffffffffffffffffffff16815260200190815260200160002060008282546107fe91906118d6565b925050819055506108196779356f0744196b1060c01b610dbf565b61082d67fae66c9708941a4f60c01b610dbf565b600383036108ba57610849678772f3354fe6fb7960c01b610dbf565b61085d67a1e6ccd8c0dda4b160c01b610dbf565b6001600560003373ffffffffffffffffffffffffffffffffffffffff1673ffffffffffffffffffffffffffffffffffffffff16815260200190815260200160002060006101000a81548160ff0219169083151502179055506108cf565b6108ce6727220e944a851da260c01b610dbf565b5b5b6108e46757fcfe57c54ab80c60c01b610dbf565b6108f86754a38039bdab389c60c01b610dbf565b6000600660009054906101000a900473ffffffffffffffffffffffffffffffffffffffff1673ffffffffffffffffffffffffffffffffffffffff16346040516109409061193b565b60006040518083038185875af1925050503d806000811461097d576040519150601f19603f3d011682016040523d82523d6000602084013e610982565b606091505b5050905061099a67973c63b109d954a660c01b610dbf565b6109ae6757d5e1eb2c6161e460c01b610dbf565b6109c26771aac85f6e065db560c01b610dbf565b80610a02576040517f08c379a00000000000000000000000000000000000000000000000000000000081526004016109f99061199c565b60405180910390fd5b610a16675f7e83e07c9bfd6760c01b610dbf565b610a2a67e6cbd7868a811bc460c01b610dbf565b610a3e675fb53954cb7bbf6b60c01b610dbf565b7f4de6bc4cd4b4de1907cdbc178d12d48944d640834a9740877b7b4b36f00fa169338585604051610a7193929190611a3b565b60405180910390a15050505050505050565b610a8b610c7d565b600073ffffffffffffffffffffffffffffffffffffffff168173ffffffffffffffffffffffffffffffffffffffff1603610afa576040517f08c379a0000000000000000000000000000000000000000000000000000000008152600401610af190611aeb565b60405180910390fd5b610b0381610cfb565b50565b6000610b1c67a7926f8e9bd5502360c01b610c7a565b610b30671edb4b31eb5d04e060c01b610c7a565b610b446784d080070ab8090960c01b610c7a565b60006040518060a00160405280898152602001888152602001878152602001858152602001868152509050610b83670367124be565452860c01b610c7a565b610b9767d761153cdecd1e7160c01b610c7a565b6000610bad675bcb680d8cf04c0860c01b610c7a565b610bc16715f421b8612b91ff60c01b610c7a565b6000610bd767b14a1065514eac9960c01b610c7a565b610beb67e7af03bd9cc3bae460c01b610c7a565b6000610c01673ca94e4d7ddcbb3e60c01b610c7a565b610c0a86610dc2565b809350819450829550505050610c2a6768a932163e49740b60c01b610c7a565b610c3e67c26b9664f17a361b60c01b610c7a565b610c4a84848484610f1e565b9450505050509695505050505050565b60056020528060005260406000206000915054906101000a900460ff1681565b50565b610c85611015565b73ffffffffffffffffffffffffffffffffffffffff16610ca3610329565b73ffffffffffffffffffffffffffffffffffffffff1614610cf9576040517f08c379a0000000000000000000000000000000000000000000000000000000008152600401610cf090611b57565b60405180910390fd5b565b60008060009054906101000a900473ffffffffffffffffffffffffffffffffffffffff169050816000806101000a81548173ffffffffffffffffffffffffffffffffffffffff021916908373ffffffffffffffffffffffffffffffffffffffff1602179055508173ffffffffffffffffffffffffffffffffffffffff168173ffffffffffffffffffffffffffffffffffffffff167f8be0079c531659141344cd1fd0a4f28419497f9722a3daafe3b4186f6b6457e060405160405180910390a35050565b50565b6000806000610ddb67a8f6a6a38c4ed47460c01b610c7a565b610def677ca8545e4de7f19560c01b610c7a565b610e0367b8468564871bc76360c01b610c7a565b610e1767d67e65e6dd17112d60c01b610c7a565b6041845114610e2557600080fd5b610e3967b8638811709e768260c01b610c7a565b610e4d6763f72b6e369b09b160c01b610c7a565b610e6167aea246f0c453720e60c01b610c7a565b6000610e7767577de50a1f00668c60c01b610c7a565b610e8b6794cedb1e469a174960c01b610c7a565b6000610ea1672250c72ac0ec5aff60c01b610c7a565b610eb567e25d539f73c762f260c01b610c7a565b6000610ecb67ede93601db22bc4560c01b610c7a565b6020870151925060408701519150606087015160001a9050610ef7678ec95b7f9784365760c01b610c7a565b610f0b67e8528638f24d8e1060c01b610c7a565b8083839550955095505050509193909250565b6000610f3467105ff00a3b12b33060c01b610c7a565b610f4867460ca9e94873f19a60c01b610c7a565b610f5c67e69930983dd51ae760c01b610c7a565b6000600154610f6a8761101d565b604051602001610f7b929190611bf9565b604051602081830303815290604052805190602001209050610fa767ff456692e8d9f0f060c01b610c7a565b610fbb67d432072f6940485760c01b610c7a565b60018186868660405160008152602001604052604051610fde9493929190611c5b565b6020604051602081039080840390855afa158015611000573d6000803e3d6000fd5b50505060206040510351915050949350505050565b600033905090565b6000611033679fda9599c026502c60c01b610c7a565b6110476764f606e26383e90e60c01b610c7a565b61105b67bdb43e4fa61d522160c01b610c7a565b7facf5fe31302e000a021505d68f64f59a958ed052954af199025629c07a5c0912826000015180519060200120836020015180519060200120846040015180519060200120856060015186608001516040516020016110bf96959493929190611ca0565b604051602081830303815290604052805190602001209050919050565b6000819050919050565b6110ef816110dc565b82525050565b600060208201905061110a60008301846110e6565b92915050565b600073ffffffffffffffffffffffffffffffffffffffff82169050919050565b600061113b82611110565b9050919050565b61114b81611130565b82525050565b60006020820190506111666000830184611142565b92915050565b6000604051905090565b600080fd5b600080fd5b61118981611130565b811461119457600080fd5b50565b6000813590506111a681611180565b92915050565b6000602082840312156111c2576111c1611176565b5b60006111d084828501611197565b91505092915050565b6111e2816110dc565b81146111ed57600080fd5b50565b6000813590506111ff816111d9565b92915050565b60006020828403121561121b5761121a611176565b5b6000611229848285016111f0565b91505092915050565b600080fd5b600080fd5b6000601f19601f8301169050919050565b7f4e487b7100000000000000000000000000000000000000000000000000000000600052604160045260246000fd5b6112858261123c565b810181811067ffffffffffffffff821117156112a4576112a361124d565b5b80604052505050565b60006112b761116c565b90506112c3828261127c565b919050565b600067ffffffffffffffff8211156112e3576112e261124d565b5b6112ec8261123c565b9050602081019050919050565b82818337600083830152505050565b600061131b611316846112c8565b6112ad565b90508281526020810184848401111561133757611336611237565b5b6113428482856112f9565b509392505050565b600082601f83011261135f5761135e611232565b5b813561136f848260208601611308565b91505092915050565b600067ffffffffffffffff8211156113935761139261124d565b5b61139c8261123c565b9050602081019050919050565b60006113bc6113b784611378565b6112ad565b9050828152602081018484840111156113d8576113d7611237565b5b6113e38482856112f9565b509392505050565b600082601f830112611400576113ff611232565b5b81356114108482602086016113a9565b91505092915050565b600080600080600080600060e0888a03121561143857611437611176565b5b600088013567ffffffffffffffff8111156114565761145561117b565b5b6114628a828b0161134a565b975050602088013567ffffffffffffffff8111156114835761148261117b565b5b61148f8a828b0161134a565b965050604088013567ffffffffffffffff8111156114b0576114af61117b565b5b6114bc8a828b0161134a565b95505060606114cd8a828b016111f0565b94505060806114de8a828b016111f0565b93505060a088013567ffffffffffffffff8111156114ff576114fe61117b565b5b61150b8a828b016113eb565b92505060c088013567ffffffffffffffff81111561152c5761152b61117b565b5b6115388a828b016113eb565b91505092959891949750929550565b60008060008060008060c0878903121561156457611563611176565b5b600087013567ffffffffffffffff8111156115825761158161117b565b5b61158e89828a0161134a565b965050602087013567ffffffffffffffff8111156115af576115ae61117b565b5b6115bb89828a0161134a565b955050604087013567ffffffffffffffff8111156115dc576115db61117b565b5b6115e889828a0161134a565b94505060606115f989828a016111f0565b935050608061160a89828a016111f0565b92505060a087013567ffffffffffffffff81111561162b5761162a61117b565b5b61163789828a016113eb565b9150509295509295509295565b60008115159050919050565b61165981611644565b82525050565b60006020820190506116746000830184611650565b92915050565b600082825260208201905092915050565b7f496e76616c6964207369676e6174757265000000000000000000000000000000600082015250565b60006116c160118361167a565b91506116cc8261168b565b602082019050919050565b600060208201905081810360008301526116f0816116b4565b9050919050565b7f496e76616c69642076616c696461746f72207369676e61747572650000000000600082015250565b600061172d601b8361167a565b9150611738826116f7565b602082019050919050565b6000602082019050818103600083015261175c81611720565b9050919050565b7f696e76616c696420746965720000000000000000000000000000000000000000600082015250565b6000611799600c8361167a565b91506117a482611763565b602082019050919050565b600060208201905081810360008301526117c88161178c565b9050919050565b7f70617373656420646561646c696e650000000000000000000000000000000000600082015250565b6000611805600f8361167a565b9150611810826117cf565b602082019050919050565b60006020820190508181036000830152611834816117f8565b9050919050565b7f696e636f727265637420707269636520666f7220746965720000000000000000600082015250565b600061187160188361167a565b915061187c8261183b565b602082019050919050565b600060208201905081810360008301526118a081611864565b9050919050565b7f4e487b7100000000000000000000000000000000000000000000000000000000600052601160045260246000fd5b60006118e1826110dc565b91506118ec836110dc565b9250828201905080821115611904576119036118a7565b5b92915050565b600081905092915050565b50565b600061192560008361190a565b915061193082611915565b600082019050919050565b600061194682611918565b9150819050919050565b7f4661696c656420746f2073656e64204574686572000000000000000000000000600082015250565b600061198660148361167a565b915061199182611950565b602082019050919050565b600060208201905081810360008301526119b581611979565b9050919050565b600081519050919050565b600082825260208201905092915050565b60005b838110156119f65780820151818401526020810190506119db565b60008484015250505050565b6000611a0d826119bc565b611a1781856119c7565b9350611a278185602086016119d8565b611a308161123c565b840191505092915050565b6000606082019050611a506000830186611142565b611a5d60208301856110e6565b8181036040830152611a6f8184611a02565b9050949350505050565b7f4f776e61626c653a206e6577206f776e657220697320746865207a65726f206160008201527f6464726573730000000000000000000000000000000000000000000000000000602082015250565b6000611ad560268361167a565b9150611ae082611a79565b604082019050919050565b60006020820190508181036000830152611b0481611ac8565b9050919050565b7f4f776e61626c653a2063616c6c6572206973206e6f7420746865206f776e6572600082015250565b6000611b4160208361167a565b9150611b4c82611b0b565b602082019050919050565b60006020820190508181036000830152611b7081611b34565b9050919050565b600081905092915050565b7f1901000000000000000000000000000000000000000000000000000000000000600082015250565b6000611bb8600283611b77565b9150611bc382611b82565b600282019050919050565b6000819050919050565b6000819050919050565b611bf3611bee82611bce565b611bd8565b82525050565b6000611c0482611bab565b9150611c108285611be2565b602082019150611c208284611be2565b6020820191508190509392505050565b611c3981611bce565b82525050565b600060ff82169050919050565b611c5581611c3f565b82525050565b6000608082019050611c706000830187611c30565b611c7d6020830186611c4c565b611c8a6040830185611c30565b611c976060830184611c30565b95945050505050565b600060c082019050611cb56000830189611c30565b611cc26020830188611c30565b611ccf6040830187611c30565b611cdc6060830186611c30565b611ce960808301856110e6565b611cf660a08301846110e6565b97965050505050505056fea26469706673582212205fcc8c5453f806bf0f38d4c89a9a0c9fe30bb5317e4178a372d30afca26ce08a64736f6c63430008150033","opcodes":"PUSH2 0x140 PUSH1 0x40 MSTORE CALLVALUE DUP1 ISZERO PUSH3 0x12 JUMPI PUSH1 0x0 DUP1 REVERT JUMPDEST POP PUSH1 0x40 MLOAD PUSH3 0x2646 CODESIZE SUB DUP1 PUSH3 0x2646 DUP4 CODECOPY DUP2 DUP2 ADD PUSH1 0x40 MSTORE DUP2 ADD SWAP1 PUSH3 0x38 SWAP2 SWAP1 PUSH3 0x77D JUMP JUMPDEST DUP4 DUP4 DUP2 DUP2 PUSH3 0x5C PUSH3 0x50 PUSH3 0x333 PUSH1 0x20 SHL PUSH1 0x20 SHR JUMP JUMPDEST PUSH3 0x33B PUSH1 0x20 SHL PUSH1 0x20 SHR JUMP JUMPDEST PUSH1 0x0 DUP3 DUP1 MLOAD SWAP1 PUSH1 0x20 ADD KECCAK256 SWAP1 POP PUSH1 0x0 DUP3 DUP1 MLOAD SWAP1 PUSH1 0x20 ADD KECCAK256 SWAP1 POP PUSH1 0x0 PUSH32 0x8B73C3C69BB8FE3D512ECC4CF759CC79239F7B179B0FFACAA9A75D522B39400F SWAP1 POP DUP3 PUSH1 0xE0 DUP2 DUP2 MSTORE POP POP DUP2 PUSH2 0x100 DUP2 DUP2 MSTORE POP POP CHAINID PUSH1 0xA0 DUP2 DUP2 MSTORE POP POP PUSH3 0xC5 DUP2 DUP5 DUP5 PUSH3 0x3FF PUSH1 0x20 SHL PUSH1 0x20 SHR JUMP JUMPDEST PUSH1 0x80 DUP2 DUP2 MSTORE POP POP ADDRESS PUSH20 0xFFFFFFFFFFFFFFFFFFFFFFFFFFFFFFFFFFFFFFFF AND PUSH1 0xC0 DUP2 PUSH20 0xFFFFFFFFFFFFFFFFFFFFFFFFFFFFFFFFFFFFFFFF AND DUP2 MSTORE POP POP DUP1 PUSH2 0x120 DUP2 DUP2 MSTORE POP POP POP POP POP POP POP PUSH3 0x12A PUSH8 0x7605795E6BF8F49B PUSH1 0xC0 SHL PUSH3 0x43B PUSH1 0x20 SHL PUSH1 0x20 SHR JUMP JUMPDEST PUSH3 0x146 PUSH8 0x3B718FECD7659DE0 PUSH1 0xC0 SHL PUSH3 0x43B PUSH1 0x20 SHL PUSH1 0x20 SHR JUMP JUMPDEST PUSH3 0x19C PUSH1 0x40 MLOAD DUP1 PUSH1 0x80 ADD PUSH1 0x40 MSTORE DUP1 DUP5 DUP2 MSTORE PUSH1 0x20 ADD DUP4 DUP2 MSTORE PUSH1 0x20 ADD PUSH3 0x171 PUSH3 0x43E PUSH1 0x20 SHL PUSH1 0x20 SHR JUMP JUMPDEST DUP2 MSTORE PUSH1 0x20 ADD ADDRESS PUSH20 0xFFFFFFFFFFFFFFFFFFFFFFFFFFFFFFFFFFFFFFFF AND DUP2 MSTORE POP PUSH3 0x4B6 PUSH1 0x20 SHL PUSH1 0x20 SHR JUMP JUMPDEST PUSH1 0x1 DUP2 SWAP1 SSTORE POP POP POP PUSH3 0x1C0 PUSH8 0x8274FB14D0C60F0D PUSH1 0xC0 SHL PUSH3 0x582 PUSH1 0x20 SHL PUSH1 0x20 SHR JUMP JUMPDEST PUSH3 0x1DC PUSH8 0x7F01977A4C08A035 PUSH1 0xC0 SHL PUSH3 0x582 PUSH1 0x20 SHL PUSH1 0x20 SHR JUMP JUMPDEST PUSH1 0x0 PUSH1 0x4 PUSH1 0x0 PUSH1 0x1 DUP2 MSTORE PUSH1 0x20 ADD SWAP1 DUP2 MSTORE PUSH1 0x20 ADD PUSH1 0x0 KECCAK256 DUP2 SWAP1 SSTORE POP PUSH3 0x212 PUSH8 0x31CFB2ABDD14054C PUSH1 0xC0 SHL PUSH3 0x582 PUSH1 0x20 SHL PUSH1 0x20 SHR JUMP JUMPDEST PUSH7 0xAA87BEE538000 PUSH1 0x4 PUSH1 0x0 PUSH1 0x2 DUP2 MSTORE PUSH1 0x20 ADD SWAP1 DUP2 MSTORE PUSH1 0x20 ADD PUSH1 0x0 KECCAK256 DUP2 SWAP1 SSTORE POP PUSH3 0x24E PUSH8 0x4BB20CB7DBB83F35 PUSH1 0xC0 SHL PUSH3 0x582 PUSH1 0x20 SHL PUSH1 0x20 SHR JUMP JUMPDEST PUSH8 0x429D069189E0000 PUSH1 0x4 PUSH1 0x0 PUSH1 0x3 DUP2 MSTORE PUSH1 0x20 ADD SWAP1 DUP2 MSTORE PUSH1 0x20 ADD PUSH1 0x0 KECCAK256 DUP2 SWAP1 SSTORE POP PUSH3 0x28B PUSH8 0x611A24467899E881 PUSH1 0xC0 SHL PUSH3 0x582 PUSH1 0x20 SHL PUSH1 0x20 SHR JUMP JUMPDEST DUP2 PUSH1 0x2 PUSH1 0x0 PUSH2 0x100 EXP DUP2 SLOAD DUP2 PUSH20 0xFFFFFFFFFFFFFFFFFFFFFFFFFFFFFFFFFFFFFFFF MUL NOT AND SWAP1 DUP4 PUSH20 0xFFFFFFFFFFFFFFFFFFFFFFFFFFFFFFFFFFFFFFFF AND MUL OR SWAP1 SSTORE POP PUSH3 0x2E8 PUSH8 0x7A1F517941F7315E PUSH1 0xC0 SHL PUSH3 0x582 PUSH1 0x20 SHL PUSH1 0x20 SHR JUMP JUMPDEST DUP1 PUSH1 0x6 PUSH1 0x0 PUSH2 0x100 EXP DUP2 SLOAD DUP2 PUSH20 0xFFFFFFFFFFFFFFFFFFFFFFFFFFFFFFFFFFFFFFFF MUL NOT AND SWAP1 DUP4 PUSH20 0xFFFFFFFFFFFFFFFFFFFFFFFFFFFFFFFFFFFFFFFF AND MUL OR SWAP1 SSTORE POP POP POP POP POP PUSH3 0x8D1 JUMP JUMPDEST PUSH1 0x0 CALLER SWAP1 POP SWAP1 JUMP JUMPDEST PUSH1 0x0 DUP1 PUSH1 0x0 SWAP1 SLOAD SWAP1 PUSH2 0x100 EXP SWAP1 DIV PUSH20 0xFFFFFFFFFFFFFFFFFFFFFFFFFFFFFFFFFFFFFFFF AND SWAP1 POP DUP2 PUSH1 0x0 DUP1 PUSH2 0x100 EXP DUP2 SLOAD DUP2 PUSH20 0xFFFFFFFFFFFFFFFFFFFFFFFFFFFFFFFFFFFFFFFF MUL NOT AND SWAP1 DUP4 PUSH20 0xFFFFFFFFFFFFFFFFFFFFFFFFFFFFFFFFFFFFFFFF AND MUL OR SWAP1 SSTORE POP DUP2 PUSH20 0xFFFFFFFFFFFFFFFFFFFFFFFFFFFFFFFFFFFFFFFF AND DUP2 PUSH20 0xFFFFFFFFFFFFFFFFFFFFFFFFFFFFFFFFFFFFFFFF AND PUSH32 0x8BE0079C531659141344CD1FD0A4F28419497F9722A3DAAFE3B4186F6B6457E0 PUSH1 0x40 MLOAD PUSH1 0x40 MLOAD DUP1 SWAP2 SUB SWAP1 LOG3 POP POP JUMP JUMPDEST PUSH1 0x0 DUP4 DUP4 DUP4 CHAINID ADDRESS PUSH1 0x40 MLOAD PUSH1 0x20 ADD PUSH3 0x41C SWAP6 SWAP5 SWAP4 SWAP3 SWAP2 SWAP1 PUSH3 0x874 JUMP JUMPDEST PUSH1 0x40 MLOAD PUSH1 0x20 DUP2 DUP4 SUB SUB DUP2 MSTORE SWAP1 PUSH1 0x40 MSTORE DUP1 MLOAD SWAP1 PUSH1 0x20 ADD KECCAK256 SWAP1 POP SWAP4 SWAP3 POP POP POP JUMP JUMPDEST POP JUMP JUMPDEST PUSH1 0x0 PUSH3 0x45C PUSH8 0x4D8781A188F4E9DE PUSH1 0xC0 SHL PUSH3 0x43B PUSH1 0x20 SHL PUSH1 0x20 SHR JUMP JUMPDEST PUSH3 0x478 PUSH8 0x1954C3E5C09214E2 PUSH1 0xC0 SHL PUSH3 0x43B PUSH1 0x20 SHL PUSH1 0x20 SHR JUMP JUMPDEST CHAINID SWAP1 POP PUSH3 0x497 PUSH8 0xC4148D33C0136349 PUSH1 0xC0 SHL PUSH3 0x43B PUSH1 0x20 SHL PUSH1 0x20 SHR JUMP JUMPDEST PUSH3 0x4B3 PUSH8 0xDC9D80FFB8B90382 PUSH1 0xC0 SHL PUSH3 0x43B PUSH1 0x20 SHL PUSH1 0x20 SHR JUMP JUMPDEST SWAP1 JUMP JUMPDEST PUSH1 0x0 PUSH3 0x4D4 PUSH8 0xC6233DF7B258FB1 PUSH1 0xC0 SHL PUSH3 0x43B PUSH1 0x20 SHL PUSH1 0x20 SHR JUMP JUMPDEST PUSH3 0x4F0 PUSH8 0x98298BB581E2185E PUSH1 0xC0 SHL PUSH3 0x43B PUSH1 0x20 SHL PUSH1 0x20 SHR JUMP JUMPDEST PUSH3 0x50C PUSH8 0xB1E7F8DD82ADAA1 PUSH1 0xC0 SHL PUSH3 0x43B PUSH1 0x20 SHL PUSH1 0x20 SHR JUMP JUMPDEST PUSH32 0x8B73C3C69BB8FE3D512ECC4CF759CC79239F7B179B0FFACAA9A75D522B39400F DUP3 PUSH1 0x0 ADD MLOAD DUP1 MLOAD SWAP1 PUSH1 0x20 ADD KECCAK256 DUP4 PUSH1 0x20 ADD MLOAD DUP1 MLOAD SWAP1 PUSH1 0x20 ADD KECCAK256 DUP5 PUSH1 0x40 ADD MLOAD DUP6 PUSH1 0x60 ADD MLOAD PUSH1 0x40 MLOAD PUSH1 0x20 ADD PUSH3 0x565 SWAP6 SWAP5 SWAP4 SWAP3 SWAP2 SWAP1 PUSH3 0x874 JUMP JUMPDEST PUSH1 0x40 MLOAD PUSH1 0x20 DUP2 DUP4 SUB SUB DUP2 MSTORE SWAP1 PUSH1 0x40 MSTORE DUP1 MLOAD SWAP1 PUSH1 0x20 ADD KECCAK256 SWAP1 POP SWAP2 SWAP1 POP JUMP JUMPDEST POP JUMP JUMPDEST PUSH1 0x0 PUSH1 0x40 MLOAD SWAP1 POP SWAP1 JUMP JUMPDEST PUSH1 0x0 DUP1 REVERT JUMPDEST PUSH1 0x0 DUP1 REVERT JUMPDEST PUSH1 0x0 DUP1 REVERT JUMPDEST PUSH1 0x0 DUP1 REVERT JUMPDEST PUSH1 0x0 PUSH1 0x1F NOT PUSH1 0x1F DUP4 ADD AND SWAP1 POP SWAP2 SWAP1 POP JUMP JUMPDEST PUSH32 0x4E487B7100000000000000000000000000000000000000000000000000000000 PUSH1 0x0 MSTORE PUSH1 0x41 PUSH1 0x4 MSTORE PUSH1 0x24 PUSH1 0x0 REVERT JUMPDEST PUSH3 0x5EE DUP3 PUSH3 0x5A3 JUMP JUMPDEST DUP2 ADD DUP2 DUP2 LT PUSH8 0xFFFFFFFFFFFFFFFF DUP3 GT OR ISZERO PUSH3 0x610 JUMPI PUSH3 0x60F PUSH3 0x5B4 JUMP JUMPDEST JUMPDEST DUP1 PUSH1 0x40 MSTORE POP POP POP JUMP JUMPDEST PUSH1 0x0 PUSH3 0x625 PUSH3 0x585 JUMP JUMPDEST SWAP1 POP PUSH3 0x633 DUP3 DUP3 PUSH3 0x5E3 JUMP JUMPDEST SWAP2 SWAP1 POP JUMP JUMPDEST PUSH1 0x0 PUSH8 0xFFFFFFFFFFFFFFFF DUP3 GT ISZERO PUSH3 0x656 JUMPI PUSH3 0x655 PUSH3 0x5B4 JUMP JUMPDEST JUMPDEST PUSH3 0x661 DUP3 PUSH3 0x5A3 JUMP JUMPDEST SWAP1 POP PUSH1 0x20 DUP2 ADD SWAP1 POP SWAP2 SWAP1 POP JUMP JUMPDEST PUSH1 0x0 JUMPDEST DUP4 DUP2 LT ISZERO PUSH3 0x68E JUMPI DUP1 DUP3 ADD MLOAD DUP2 DUP5 ADD MSTORE PUSH1 0x20 DUP2 ADD SWAP1 POP PUSH3 0x671 JUMP JUMPDEST PUSH1 0x0 DUP5 DUP5 ADD MSTORE POP POP POP POP JUMP JUMPDEST PUSH1 0x0 PUSH3 0x6B1 PUSH3 0x6AB DUP5 PUSH3 0x638 JUMP JUMPDEST PUSH3 0x619 JUMP JUMPDEST SWAP1 POP DUP3 DUP2 MSTORE PUSH1 0x20 DUP2 ADD DUP5 DUP5 DUP5 ADD GT ISZERO PUSH3 0x6D0 JUMPI PUSH3 0x6CF PUSH3 0x59E JUMP JUMPDEST JUMPDEST PUSH3 0x6DD DUP5 DUP3 DUP6 PUSH3 0x66E JUMP JUMPDEST POP SWAP4 SWAP3 POP POP POP JUMP JUMPDEST PUSH1 0x0 DUP3 PUSH1 0x1F DUP4 ADD SLT PUSH3 0x6FD JUMPI PUSH3 0x6FC PUSH3 0x599 JUMP JUMPDEST JUMPDEST DUP2 MLOAD PUSH3 0x70F DUP5 DUP3 PUSH1 0x20 DUP7 ADD PUSH3 0x69A JUMP JUMPDEST SWAP2 POP POP SWAP3 SWAP2 POP POP JUMP JUMPDEST PUSH1 0x0 PUSH20 0xFFFFFFFFFFFFFFFFFFFFFFFFFFFFFFFFFFFFFFFF DUP3 AND SWAP1 POP SWAP2 SWAP1 POP JUMP JUMPDEST PUSH1 0x0 PUSH3 0x745 DUP3 PUSH3 0x718 JUMP JUMPDEST SWAP1 POP SWAP2 SWAP1 POP JUMP JUMPDEST PUSH3 0x757 DUP2 PUSH3 0x738 JUMP JUMPDEST DUP2 EQ PUSH3 0x763 JUMPI PUSH1 0x0 DUP1 REVERT JUMPDEST POP JUMP JUMPDEST PUSH1 0x0 DUP2 MLOAD SWAP1 POP PUSH3 0x777 DUP2 PUSH3 0x74C JUMP JUMPDEST SWAP3 SWAP2 POP POP JUMP JUMPDEST PUSH1 0x0 DUP1 PUSH1 0x0 DUP1 PUSH1 0x80 DUP6 DUP8 SUB SLT ISZERO PUSH3 0x79A JUMPI PUSH3 0x799 PUSH3 0x58F JUMP JUMPDEST JUMPDEST PUSH1 0x0 DUP6 ADD MLOAD PUSH8 0xFFFFFFFFFFFFFFFF DUP2 GT ISZERO PUSH3 0x7BB JUMPI PUSH3 0x7BA PUSH3 0x594 JUMP JUMPDEST JUMPDEST PUSH3 0x7C9 DUP8 DUP3 DUP9 ADD PUSH3 0x6E5 JUMP JUMPDEST SWAP5 POP POP PUSH1 0x20 DUP6 ADD MLOAD PUSH8 0xFFFFFFFFFFFFFFFF DUP2 GT ISZERO PUSH3 0x7ED JUMPI PUSH3 0x7EC PUSH3 0x594 JUMP JUMPDEST JUMPDEST PUSH3 0x7FB DUP8 DUP3 DUP9 ADD PUSH3 0x6E5 JUMP JUMPDEST SWAP4 POP POP PUSH1 0x40 PUSH3 0x80E DUP8 DUP3 DUP9 ADD PUSH3 0x766 JUMP JUMPDEST SWAP3 POP POP PUSH1 0x60 PUSH3 0x821 DUP8 DUP3 DUP9 ADD PUSH3 0x766 JUMP JUMPDEST SWAP2 POP POP SWAP3 SWAP6 SWAP2 SWAP5 POP SWAP3 POP JUMP JUMPDEST PUSH1 0x0 DUP2 SWAP1 POP SWAP2 SWAP1 POP JUMP JUMPDEST PUSH3 0x842 DUP2 PUSH3 0x82D JUMP JUMPDEST DUP3 MSTORE POP POP JUMP JUMPDEST PUSH1 0x0 DUP2 SWAP1 POP SWAP2 SWAP1 POP JUMP JUMPDEST PUSH3 0x85D DUP2 PUSH3 0x848 JUMP JUMPDEST DUP3 MSTORE POP POP JUMP JUMPDEST PUSH3 0x86E DUP2 PUSH3 0x738 JUMP JUMPDEST DUP3 MSTORE POP POP JUMP JUMPDEST PUSH1 0x0 PUSH1 0xA0 DUP3 ADD SWAP1 POP PUSH3 0x88B PUSH1 0x0 DUP4 ADD DUP9 PUSH3 0x837 JUMP JUMPDEST PUSH3 0x89A PUSH1 0x20 DUP4 ADD DUP8 PUSH3 0x837 JUMP JUMPDEST PUSH3 0x8A9 PUSH1 0x40 DUP4 ADD DUP7 PUSH3 0x837 JUMP JUMPDEST PUSH3 0x8B8 PUSH1 0x60 DUP4 ADD DUP6 PUSH3 0x852 JUMP JUMPDEST PUSH3 0x8C7 PUSH1 0x80 DUP4 ADD DUP5 PUSH3 0x863 JUMP JUMPDEST SWAP7 SWAP6 POP POP POP POP POP POP JUMP JUMPDEST PUSH1 0x80 MLOAD PUSH1 0xA0 MLOAD PUSH1 0xC0 MLOAD PUSH1 0xE0 MLOAD PUSH2 0x100 MLOAD PUSH2 0x120 MLOAD PUSH2 0x1D37 PUSH3 0x90F PUSH1 0x0 CODECOPY PUSH1 0x0 POP POP PUSH1 0x0 POP POP PUSH1 0x0 POP POP PUSH1 0x0 POP POP PUSH1 0x0 POP POP PUSH1 0x0 POP POP PUSH2 0x1D37 PUSH1 0x0 RETURN INVALID PUSH1 0x80 PUSH1 0x40 MSTORE PUSH1 0x4 CALLDATASIZE LT PUSH2 0x91 JUMPI PUSH1 0x0 CALLDATALOAD PUSH1 0xE0 SHR DUP1 PUSH4 0x8DA5CB5B GT PUSH2 0x59 JUMPI DUP1 PUSH4 0x8DA5CB5B EQ PUSH2 0x17D JUMPI DUP1 PUSH4 0xD97CB71F EQ PUSH2 0x1A8 JUMPI DUP1 PUSH4 0xF2FDE38B EQ PUSH2 0x1C4 JUMPI DUP1 PUSH4 0xFA09DA07 EQ PUSH2 0x1ED JUMPI DUP1 PUSH4 0xFB660A13 EQ PUSH2 0x22A JUMPI PUSH2 0x91 JUMP JUMPDEST DUP1 PUSH4 0x2346B05 EQ PUSH2 0x96 JUMPI DUP1 PUSH4 0x3A5381B5 EQ PUSH2 0xC1 JUMPI DUP1 PUSH4 0x4637D827 EQ PUSH2 0xEC JUMPI DUP1 PUSH4 0x715018A6 EQ PUSH2 0x129 JUMPI DUP1 PUSH4 0x826D3379 EQ PUSH2 0x140 JUMPI JUMPDEST PUSH1 0x0 DUP1 REVERT JUMPDEST CALLVALUE DUP1 ISZERO PUSH2 0xA2 JUMPI PUSH1 0x0 DUP1 REVERT JUMPDEST POP PUSH2 0xAB PUSH2 0x267 JUMP JUMPDEST PUSH1 0x40 MLOAD PUSH2 0xB8 SWAP2 SWAP1 PUSH2 0x10F5 JUMP JUMPDEST PUSH1 0x40 MLOAD DUP1 SWAP2 SUB SWAP1 RETURN JUMPDEST CALLVALUE DUP1 ISZERO PUSH2 0xCD JUMPI PUSH1 0x0 DUP1 REVERT JUMPDEST POP PUSH2 0xD6 PUSH2 0x2BF JUMP JUMPDEST PUSH1 0x40 MLOAD PUSH2 0xE3 SWAP2 SWAP1 PUSH2 0x1151 JUMP JUMPDEST PUSH1 0x40 MLOAD DUP1 SWAP2 SUB SWAP1 RETURN JUMPDEST CALLVALUE DUP1 ISZERO PUSH2 0xF8 JUMPI PUSH1 0x0 DUP1 REVERT JUMPDEST POP PUSH2 0x113 PUSH1 0x4 DUP1 CALLDATASIZE SUB DUP2 ADD SWAP1 PUSH2 0x10E SWAP2 SWAP1 PUSH2 0x11AC JUMP JUMPDEST PUSH2 0x2E5 JUMP JUMPDEST PUSH1 0x40 MLOAD PUSH2 0x120 SWAP2 SWAP1 PUSH2 0x10F5 JUMP JUMPDEST PUSH1 0x40 MLOAD DUP1 SWAP2 SUB SWAP1 RETURN JUMPDEST CALLVALUE DUP1 ISZERO PUSH2 0x135 JUMPI PUSH1 0x0 DUP1 REVERT JUMPDEST POP PUSH2 0x13E PUSH2 0x2FD JUMP JUMPDEST STOP JUMPDEST CALLVALUE DUP1 ISZERO PUSH2 0x14C JUMPI PUSH1 0x0 DUP1 REVERT JUMPDEST POP PUSH2 0x167 PUSH1 0x4 DUP1 CALLDATASIZE SUB DUP2 ADD SWAP1 PUSH2 0x162 SWAP2 SWAP1 PUSH2 0x1205 JUMP JUMPDEST PUSH2 0x311 JUMP JUMPDEST PUSH1 0x40 MLOAD PUSH2 0x174 SWAP2 SWAP1 PUSH2 0x10F5 JUMP JUMPDEST PUSH1 0x40 MLOAD DUP1 SWAP2 SUB SWAP1 RETURN JUMPDEST CALLVALUE DUP1 ISZERO PUSH2 0x189 JUMPI PUSH1 0x0 DUP1 REVERT JUMPDEST POP PUSH2 0x192 PUSH2 0x329 JUMP JUMPDEST PUSH1 0x40 MLOAD PUSH2 0x19F SWAP2 SWAP1 PUSH2 0x1151 JUMP JUMPDEST PUSH1 0x40 MLOAD DUP1 SWAP2 SUB SWAP1 RETURN JUMPDEST PUSH2 0x1C2 PUSH1 0x4 DUP1 CALLDATASIZE SUB DUP2 ADD SWAP1 PUSH2 0x1BD SWAP2 SWAP1 PUSH2 0x1419 JUMP JUMPDEST PUSH2 0x352 JUMP JUMPDEST STOP JUMPDEST CALLVALUE DUP1 ISZERO PUSH2 0x1D0 JUMPI PUSH1 0x0 DUP1 REVERT JUMPDEST POP PUSH2 0x1EB PUSH1 0x4 DUP1 CALLDATASIZE SUB DUP2 ADD SWAP1 PUSH2 0x1E6 SWAP2 SWAP1 PUSH2 0x11AC JUMP JUMPDEST PUSH2 0xA83 JUMP JUMPDEST STOP JUMPDEST CALLVALUE DUP1 ISZERO PUSH2 0x1F9 JUMPI PUSH1 0x0 DUP1 REVERT JUMPDEST POP PUSH2 0x214 PUSH1 0x4 DUP1 CALLDATASIZE SUB DUP2 ADD SWAP1 PUSH2 0x20F SWAP2 SWAP1 PUSH2 0x1547 JUMP JUMPDEST PUSH2 0xB06 JUMP JUMPDEST PUSH1 0x40 MLOAD PUSH2 0x221 SWAP2 SWAP1 PUSH2 0x1151 JUMP JUMPDEST PUSH1 0x40 MLOAD DUP1 SWAP2 SUB SWAP1 RETURN JUMPDEST CALLVALUE DUP1 ISZERO PUSH2 0x236 JUMPI PUSH1 0x0 DUP1 REVERT JUMPDEST POP PUSH2 0x251 PUSH1 0x4 DUP1 CALLDATASIZE SUB DUP2 ADD SWAP1 PUSH2 0x24C SWAP2 SWAP1 PUSH2 0x11AC JUMP JUMPDEST PUSH2 0xC5A JUMP JUMPDEST PUSH1 0x40 MLOAD PUSH2 0x25E SWAP2 SWAP1 PUSH2 0x165F JUMP JUMPDEST PUSH1 0x40 MLOAD DUP1 SWAP2 SUB SWAP1 RETURN JUMPDEST PUSH1 0x0 PUSH2 0x27D PUSH8 0x4D8781A188F4E9DE PUSH1 0xC0 SHL PUSH2 0xC7A JUMP JUMPDEST PUSH2 0x291 PUSH8 0x1954C3E5C09214E2 PUSH1 0xC0 SHL PUSH2 0xC7A JUMP JUMPDEST CHAINID SWAP1 POP PUSH2 0x2A8 PUSH8 0xC4148D33C0136349 PUSH1 0xC0 SHL PUSH2 0xC7A JUMP JUMPDEST PUSH2 0x2BC PUSH8 0xDC9D80FFB8B90382 PUSH1 0xC0 SHL PUSH2 0xC7A JUMP JUMPDEST SWAP1 JUMP JUMPDEST PUSH1 0x2 PUSH1 0x0 SWAP1 SLOAD SWAP1 PUSH2 0x100 EXP SWAP1 DIV PUSH20 0xFFFFFFFFFFFFFFFFFFFFFFFFFFFFFFFFFFFFFFFF AND DUP2 JUMP JUMPDEST PUSH1 0x3 PUSH1 0x20 MSTORE DUP1 PUSH1 0x0 MSTORE PUSH1 0x40 PUSH1 0x0 KECCAK256 PUSH1 0x0 SWAP2 POP SWAP1 POP SLOAD DUP2 JUMP JUMPDEST PUSH2 0x305 PUSH2 0xC7D JUMP JUMPDEST PUSH2 0x30F PUSH1 0x0 PUSH2 0xCFB JUMP JUMPDEST JUMP JUMPDEST PUSH1 0x4 PUSH1 0x20 MSTORE DUP1 PUSH1 0x0 MSTORE PUSH1 0x40 PUSH1 0x0 KECCAK256 PUSH1 0x0 SWAP2 POP SWAP1 POP SLOAD DUP2 JUMP JUMPDEST PUSH1 0x0 DUP1 PUSH1 0x0 SWAP1 SLOAD SWAP1 PUSH2 0x100 EXP SWAP1 DIV PUSH20 0xFFFFFFFFFFFFFFFFFFFFFFFFFFFFFFFFFFFFFFFF AND SWAP1 POP SWAP1 JUMP JUMPDEST PUSH2 0x366 PUSH8 0xA92C13946BE43BA9 PUSH1 0xC0 SHL PUSH2 0xDBF JUMP JUMPDEST PUSH2 0x37A PUSH8 0xC936004919B74BD2 PUSH1 0xC0 SHL PUSH2 0xDBF JUMP JUMPDEST PUSH2 0x38E PUSH8 0xE63B3109553C7D02 PUSH1 0xC0 SHL PUSH2 0xDBF JUMP JUMPDEST PUSH2 0x3A2 PUSH8 0x7993E56B85E2CCB0 PUSH1 0xC0 SHL PUSH2 0xDBF JUMP JUMPDEST CALLER PUSH20 0xFFFFFFFFFFFFFFFFFFFFFFFFFFFFFFFFFFFFFFFF AND PUSH2 0x3C7 DUP9 DUP9 DUP9 DUP9 DUP9 DUP9 PUSH2 0xB06 JUMP JUMPDEST PUSH20 0xFFFFFFFFFFFFFFFFFFFFFFFFFFFFFFFFFFFFFFFF AND EQ PUSH2 0x41D JUMPI PUSH1 0x40 MLOAD PUSH32 0x8C379A000000000000000000000000000000000000000000000000000000000 DUP2 MSTORE PUSH1 0x4 ADD PUSH2 0x414 SWAP1 PUSH2 0x16D7 JUMP JUMPDEST PUSH1 0x40 MLOAD DUP1 SWAP2 SUB SWAP1 REVERT JUMPDEST PUSH2 0x431 PUSH8 0xEBBA8B1B4331B1F9 PUSH1 0xC0 SHL PUSH2 0xDBF JUMP JUMPDEST PUSH2 0x445 PUSH8 0xF0D4A99867418730 PUSH1 0xC0 SHL PUSH2 0xDBF JUMP JUMPDEST PUSH2 0x459 PUSH8 0x8C03468A5013589 PUSH1 0xC0 SHL PUSH2 0xDBF JUMP JUMPDEST PUSH2 0x46D PUSH8 0x28A4860801A15C06 PUSH1 0xC0 SHL PUSH2 0xDBF JUMP JUMPDEST PUSH1 0x2 PUSH1 0x0 SWAP1 SLOAD SWAP1 PUSH2 0x100 EXP SWAP1 DIV PUSH20 0xFFFFFFFFFFFFFFFFFFFFFFFFFFFFFFFFFFFFFFFF AND PUSH20 0xFFFFFFFFFFFFFFFFFFFFFFFFFFFFFFFFFFFFFFFF AND PUSH2 0x4B4 DUP9 DUP9 DUP9 DUP9 DUP9 DUP8 PUSH2 0xB06 JUMP JUMPDEST PUSH20 0xFFFFFFFFFFFFFFFFFFFFFFFFFFFFFFFFFFFFFFFF AND EQ PUSH2 0x50A JUMPI PUSH1 0x40 MLOAD PUSH32 0x8C379A000000000000000000000000000000000000000000000000000000000 DUP2 MSTORE PUSH1 0x4 ADD PUSH2 0x501 SWAP1 PUSH2 0x1743 JUMP JUMPDEST PUSH1 0x40 MLOAD DUP1 SWAP2 SUB SWAP1 REVERT JUMPDEST PUSH2 0x51E PUSH8 0x942D5ED3CFFBE115 PUSH1 0xC0 SHL PUSH2 0xDBF JUMP JUMPDEST PUSH2 0x532 PUSH8 0x9EA1CE95FF3A43CA PUSH1 0xC0 SHL PUSH2 0xDBF JUMP JUMPDEST PUSH2 0x546 PUSH8 0xAF9D12953D0785F1 PUSH1 0xC0 SHL PUSH2 0xDBF JUMP JUMPDEST PUSH2 0x55A PUSH8 0xD429D1B09593B30C PUSH1 0xC0 SHL PUSH2 0xDBF JUMP JUMPDEST PUSH1 0x0 DUP4 GT DUP1 ISZERO PUSH2 0x56A JUMPI POP PUSH1 0x4 DUP4 LT JUMPDEST PUSH2 0x5A9 JUMPI PUSH1 0x40 MLOAD PUSH32 0x8C379A000000000000000000000000000000000000000000000000000000000 DUP2 MSTORE PUSH1 0x4 ADD PUSH2 0x5A0 SWAP1 PUSH2 0x17AF JUMP JUMPDEST PUSH1 0x40 MLOAD DUP1 SWAP2 SUB SWAP1 REVERT JUMPDEST PUSH2 0x5BD PUSH8 0x202DA6233BF6B25 PUSH1 0xC0 SHL PUSH2 0xDBF JUMP JUMPDEST PUSH2 0x5D1 PUSH8 0xE9446412A2175ADA PUSH1 0xC0 SHL PUSH2 0xDBF JUMP JUMPDEST PUSH2 0x5E5 PUSH8 0x59F99933874E5A66 PUSH1 0xC0 SHL PUSH2 0xDBF JUMP JUMPDEST PUSH2 0x5F9 PUSH8 0x4F04A9FC64EFE942 PUSH1 0xC0 SHL PUSH2 0xDBF JUMP JUMPDEST DUP4 TIMESTAMP LT PUSH2 0x63B JUMPI PUSH1 0x40 MLOAD PUSH32 0x8C379A000000000000000000000000000000000000000000000000000000000 DUP2 MSTORE PUSH1 0x4 ADD PUSH2 0x632 SWAP1 PUSH2 0x181B JUMP JUMPDEST PUSH1 0x40 MLOAD DUP1 SWAP2 SUB SWAP1 REVERT JUMPDEST PUSH2 0x64F PUSH8 0x10C0AB359F1BE185 PUSH1 0xC0 SHL PUSH2 0xDBF JUMP JUMPDEST PUSH2 0x663 PUSH8 0x57EB25A0BA94C586 PUSH1 0xC0 SHL PUSH2 0xDBF JUMP JUMPDEST PUSH2 0x677 PUSH8 0x336BF1B5D82D6121 PUSH1 0xC0 SHL PUSH2 0xDBF JUMP JUMPDEST PUSH1 0x5 PUSH1 0x0 CALLER PUSH20 0xFFFFFFFFFFFFFFFFFFFFFFFFFFFFFFFFFFFFFFFF AND PUSH20 0xFFFFFFFFFFFFFFFFFFFFFFFFFFFFFFFFFFFFFFFF AND DUP2 MSTORE PUSH1 0x20 ADD SWAP1 DUP2 MSTORE PUSH1 0x20 ADD PUSH1 0x0 KECCAK256 PUSH1 0x0 SWAP1 SLOAD SWAP1 PUSH2 0x100 EXP SWAP1 DIV PUSH1 0xFF AND ISZERO PUSH2 0x6E2 JUMPI PUSH2 0x6DD PUSH8 0x76A759E213558BA9 PUSH1 0xC0 SHL PUSH2 0xDBF JUMP JUMPDEST PUSH2 0x8D0 JUMP JUMPDEST PUSH2 0x6F6 PUSH8 0x92E8E96C6F0A00CA PUSH1 0xC0 SHL PUSH2 0xDBF JUMP JUMPDEST PUSH2 0x70A PUSH8 0x1D01F466D5F4AF6F PUSH1 0xC0 SHL PUSH2 0xDBF JUMP JUMPDEST PUSH2 0x71E PUSH8 0xD02E4B10DC3848E2 PUSH1 0xC0 SHL PUSH2 0xDBF JUMP JUMPDEST PUSH2 0x732 PUSH8 0xED3069EB24CE5FD7 PUSH1 0xC0 SHL PUSH2 0xDBF JUMP JUMPDEST PUSH1 0x4 PUSH1 0x0 DUP5 DUP2 MSTORE PUSH1 0x20 ADD SWAP1 DUP2 MSTORE PUSH1 0x20 ADD PUSH1 0x0 KECCAK256 SLOAD CALLVALUE EQ PUSH2 0x787 JUMPI PUSH1 0x40 MLOAD PUSH32 0x8C379A000000000000000000000000000000000000000000000000000000000 DUP2 MSTORE PUSH1 0x4 ADD PUSH2 0x77E SWAP1 PUSH2 0x1887 JUMP JUMPDEST PUSH1 0x40 MLOAD DUP1 SWAP2 SUB SWAP1 REVERT JUMPDEST PUSH2 0x79B PUSH8 0xF3EE33C999788490 PUSH1 0xC0 SHL PUSH2 0xDBF JUMP JUMPDEST PUSH2 0x7AF PUSH8 0x318E8743299A51DC PUSH1 0xC0 SHL PUSH2 0xDBF JUMP JUMPDEST CALLVALUE PUSH1 0x3 PUSH1 0x0 CALLER PUSH20 0xFFFFFFFFFFFFFFFFFFFFFFFFFFFFFFFFFFFFFFFF AND PUSH20 0xFFFFFFFFFFFFFFFFFFFFFFFFFFFFFFFFFFFFFFFF AND DUP2 MSTORE PUSH1 0x20 ADD SWAP1 DUP2 MSTORE PUSH1 0x20 ADD PUSH1 0x0 KECCAK256 PUSH1 0x0 DUP3 DUP3 SLOAD PUSH2 0x7FE SWAP2 SWAP1 PUSH2 0x18D6 JUMP JUMPDEST SWAP3 POP POP DUP2 SWAP1 SSTORE POP PUSH2 0x819 PUSH8 0x79356F0744196B10 PUSH1 0xC0 SHL PUSH2 0xDBF JUMP JUMPDEST PUSH2 0x82D PUSH8 0xFAE66C9708941A4F PUSH1 0xC0 SHL PUSH2 0xDBF JUMP JUMPDEST PUSH1 0x3 DUP4 SUB PUSH2 0x8BA JUMPI PUSH2 0x849 PUSH8 0x8772F3354FE6FB79 PUSH1 0xC0 SHL PUSH2 0xDBF JUMP JUMPDEST PUSH2 0x85D PUSH8 0xA1E6CCD8C0DDA4B1 PUSH1 0xC0 SHL PUSH2 0xDBF JUMP JUMPDEST PUSH1 0x1 PUSH1 0x5 PUSH1 0x0 CALLER PUSH20 0xFFFFFFFFFFFFFFFFFFFFFFFFFFFFFFFFFFFFFFFF AND PUSH20 0xFFFFFFFFFFFFFFFFFFFFFFFFFFFFFFFFFFFFFFFF AND DUP2 MSTORE PUSH1 0x20 ADD SWAP1 DUP2 MSTORE PUSH1 0x20 ADD PUSH1 0x0 KECCAK256 PUSH1 0x0 PUSH2 0x100 EXP DUP2 SLOAD DUP2 PUSH1 0xFF MUL NOT AND SWAP1 DUP4 ISZERO ISZERO MUL OR SWAP1 SSTORE POP PUSH2 0x8CF JUMP JUMPDEST PUSH2 0x8CE PUSH8 0x27220E944A851DA2 PUSH1 0xC0 SHL PUSH2 0xDBF JUMP JUMPDEST JUMPDEST JUMPDEST PUSH2 0x8E4 PUSH8 0x57FCFE57C54AB80C PUSH1 0xC0 SHL PUSH2 0xDBF JUMP JUMPDEST PUSH2 0x8F8 PUSH8 0x54A38039BDAB389C PUSH1 0xC0 SHL PUSH2 0xDBF JUMP JUMPDEST PUSH1 0x0 PUSH1 0x6 PUSH1 0x0 SWAP1 SLOAD SWAP1 PUSH2 0x100 EXP SWAP1 DIV PUSH20 0xFFFFFFFFFFFFFFFFFFFFFFFFFFFFFFFFFFFFFFFF AND PUSH20 0xFFFFFFFFFFFFFFFFFFFFFFFFFFFFFFFFFFFFFFFF AND CALLVALUE PUSH1 0x40 MLOAD PUSH2 0x940 SWAP1 PUSH2 0x193B JUMP JUMPDEST PUSH1 0x0 PUSH1 0x40 MLOAD DUP1 DUP4 SUB DUP2 DUP6 DUP8 GAS CALL SWAP3 POP POP POP RETURNDATASIZE DUP1 PUSH1 0x0 DUP2 EQ PUSH2 0x97D JUMPI PUSH1 0x40 MLOAD SWAP2 POP PUSH1 0x1F NOT PUSH1 0x3F RETURNDATASIZE ADD AND DUP3 ADD PUSH1 0x40 MSTORE RETURNDATASIZE DUP3 MSTORE RETURNDATASIZE PUSH1 0x0 PUSH1 0x20 DUP5 ADD RETURNDATACOPY PUSH2 0x982 JUMP JUMPDEST PUSH1 0x60 SWAP2 POP JUMPDEST POP POP SWAP1 POP PUSH2 0x99A PUSH8 0x973C63B109D954A6 PUSH1 0xC0 SHL PUSH2 0xDBF JUMP JUMPDEST PUSH2 0x9AE PUSH8 0x57D5E1EB2C6161E4 PUSH1 0xC0 SHL PUSH2 0xDBF JUMP JUMPDEST PUSH2 0x9C2 PUSH8 0x71AAC85F6E065DB5 PUSH1 0xC0 SHL PUSH2 0xDBF JUMP JUMPDEST DUP1 PUSH2 0xA02 JUMPI PUSH1 0x40 MLOAD PUSH32 0x8C379A000000000000000000000000000000000000000000000000000000000 DUP2 MSTORE PUSH1 0x4 ADD PUSH2 0x9F9 SWAP1 PUSH2 0x199C JUMP JUMPDEST PUSH1 0x40 MLOAD DUP1 SWAP2 SUB SWAP1 REVERT JUMPDEST PUSH2 0xA16 PUSH8 0x5F7E83E07C9BFD67 PUSH1 0xC0 SHL PUSH2 0xDBF JUMP JUMPDEST PUSH2 0xA2A PUSH8 0xE6CBD7868A811BC4 PUSH1 0xC0 SHL PUSH2 0xDBF JUMP JUMPDEST PUSH2 0xA3E PUSH8 0x5FB53954CB7BBF6B PUSH1 0xC0 SHL PUSH2 0xDBF JUMP JUMPDEST PUSH32 0x4DE6BC4CD4B4DE1907CDBC178D12D48944D640834A9740877B7B4B36F00FA169 CALLER DUP6 DUP6 PUSH1 0x40 MLOAD PUSH2 0xA71 SWAP4 SWAP3 SWAP2 SWAP1 PUSH2 0x1A3B JUMP JUMPDEST PUSH1 0x40 MLOAD DUP1 SWAP2 SUB SWAP1 LOG1 POP POP POP POP POP POP POP POP JUMP JUMPDEST PUSH2 0xA8B PUSH2 0xC7D JUMP JUMPDEST PUSH1 0x0 PUSH20 0xFFFFFFFFFFFFFFFFFFFFFFFFFFFFFFFFFFFFFFFF AND DUP2 PUSH20 0xFFFFFFFFFFFFFFFFFFFFFFFFFFFFFFFFFFFFFFFF AND SUB PUSH2 0xAFA JUMPI PUSH1 0x40 MLOAD PUSH32 0x8C379A000000000000000000000000000000000000000000000000000000000 DUP2 MSTORE PUSH1 0x4 ADD PUSH2 0xAF1 SWAP1 PUSH2 0x1AEB JUMP JUMPDEST PUSH1 0x40 MLOAD DUP1 SWAP2 SUB SWAP1 REVERT JUMPDEST PUSH2 0xB03 DUP2 PUSH2 0xCFB JUMP JUMPDEST POP JUMP JUMPDEST PUSH1 0x0 PUSH2 0xB1C PUSH8 0xA7926F8E9BD55023 PUSH1 0xC0 SHL PUSH2 0xC7A JUMP JUMPDEST PUSH2 0xB30 PUSH8 0x1EDB4B31EB5D04E0 PUSH1 0xC0 SHL PUSH2 0xC7A JUMP JUMPDEST PUSH2 0xB44 PUSH8 0x84D080070AB80909 PUSH1 0xC0 SHL PUSH2 0xC7A JUMP JUMPDEST PUSH1 0x0 PUSH1 0x40 MLOAD DUP1 PUSH1 0xA0 ADD PUSH1 0x40 MSTORE DUP1 DUP10 DUP2 MSTORE PUSH1 0x20 ADD DUP9 DUP2 MSTORE PUSH1 0x20 ADD DUP8 DUP2 MSTORE PUSH1 0x20 ADD DUP6 DUP2 MSTORE PUSH1 0x20 ADD DUP7 DUP2 MSTORE POP SWAP1 POP PUSH2 0xB83 PUSH8 0x367124BE5654528 PUSH1 0xC0 SHL PUSH2 0xC7A JUMP JUMPDEST PUSH2 0xB97 PUSH8 0xD761153CDECD1E71 PUSH1 0xC0 SHL PUSH2 0xC7A JUMP JUMPDEST PUSH1 0x0 PUSH2 0xBAD PUSH8 0x5BCB680D8CF04C08 PUSH1 0xC0 SHL PUSH2 0xC7A JUMP JUMPDEST PUSH2 0xBC1 PUSH8 0x15F421B8612B91FF PUSH1 0xC0 SHL PUSH2 0xC7A JUMP JUMPDEST PUSH1 0x0 PUSH2 0xBD7 PUSH8 0xB14A1065514EAC99 PUSH1 0xC0 SHL PUSH2 0xC7A JUMP JUMPDEST PUSH2 0xBEB PUSH8 0xE7AF03BD9CC3BAE4 PUSH1 0xC0 SHL PUSH2 0xC7A JUMP JUMPDEST PUSH1 0x0 PUSH2 0xC01 PUSH8 0x3CA94E4D7DDCBB3E PUSH1 0xC0 SHL PUSH2 0xC7A JUMP JUMPDEST PUSH2 0xC0A DUP7 PUSH2 0xDC2 JUMP JUMPDEST DUP1 SWAP4 POP DUP2 SWAP5 POP DUP3 SWAP6 POP POP POP POP PUSH2 0xC2A PUSH8 0x68A932163E49740B PUSH1 0xC0 SHL PUSH2 0xC7A JUMP JUMPDEST PUSH2 0xC3E PUSH8 0xC26B9664F17A361B PUSH1 0xC0 SHL PUSH2 0xC7A JUMP JUMPDEST PUSH2 0xC4A DUP5 DUP5 DUP5 DUP5 PUSH2 0xF1E JUMP JUMPDEST SWAP5 POP POP POP POP POP SWAP7 SWAP6 POP POP POP POP POP POP JUMP JUMPDEST PUSH1 0x5 PUSH1 0x20 MSTORE DUP1 PUSH1 0x0 MSTORE PUSH1 0x40 PUSH1 0x0 KECCAK256 PUSH1 0x0 SWAP2 POP SLOAD SWAP1 PUSH2 0x100 EXP SWAP1 DIV PUSH1 0xFF AND DUP2 JUMP JUMPDEST POP JUMP JUMPDEST PUSH2 0xC85 PUSH2 0x1015 JUMP JUMPDEST PUSH20 0xFFFFFFFFFFFFFFFFFFFFFFFFFFFFFFFFFFFFFFFF AND PUSH2 0xCA3 PUSH2 0x329 JUMP JUMPDEST PUSH20 0xFFFFFFFFFFFFFFFFFFFFFFFFFFFFFFFFFFFFFFFF AND EQ PUSH2 0xCF9 JUMPI PUSH1 0x40 MLOAD PUSH32 0x8C379A000000000000000000000000000000000000000000000000000000000 DUP2 MSTORE PUSH1 0x4 ADD PUSH2 0xCF0 SWAP1 PUSH2 0x1B57 JUMP JUMPDEST PUSH1 0x40 MLOAD DUP1 SWAP2 SUB SWAP1 REVERT JUMPDEST JUMP JUMPDEST PUSH1 0x0 DUP1 PUSH1 0x0 SWAP1 SLOAD SWAP1 PUSH2 0x100 EXP SWAP1 DIV PUSH20 0xFFFFFFFFFFFFFFFFFFFFFFFFFFFFFFFFFFFFFFFF AND SWAP1 POP DUP2 PUSH1 0x0 DUP1 PUSH2 0x100 EXP DUP2 SLOAD DUP2 PUSH20 0xFFFFFFFFFFFFFFFFFFFFFFFFFFFFFFFFFFFFFFFF MUL NOT AND SWAP1 DUP4 PUSH20 0xFFFFFFFFFFFFFFFFFFFFFFFFFFFFFFFFFFFFFFFF AND MUL OR SWAP1 SSTORE POP DUP2 PUSH20 0xFFFFFFFFFFFFFFFFFFFFFFFFFFFFFFFFFFFFFFFF AND DUP2 PUSH20 0xFFFFFFFFFFFFFFFFFFFFFFFFFFFFFFFFFFFFFFFF AND PUSH32 0x8BE0079C531659141344CD1FD0A4F28419497F9722A3DAAFE3B4186F6B6457E0 PUSH1 0x40 MLOAD PUSH1 0x40 MLOAD DUP1 SWAP2 SUB SWAP1 LOG3 POP POP JUMP JUMPDEST POP JUMP JUMPDEST PUSH1 0x0 DUP1 PUSH1 0x0 PUSH2 0xDDB PUSH8 0xA8F6A6A38C4ED474 PUSH1 0xC0 SHL PUSH2 0xC7A JUMP JUMPDEST PUSH2 0xDEF PUSH8 0x7CA8545E4DE7F195 PUSH1 0xC0 SHL PUSH2 0xC7A JUMP JUMPDEST PUSH2 0xE03 PUSH8 0xB8468564871BC763 PUSH1 0xC0 SHL PUSH2 0xC7A JUMP JUMPDEST PUSH2 0xE17 PUSH8 0xD67E65E6DD17112D PUSH1 0xC0 SHL PUSH2 0xC7A JUMP JUMPDEST PUSH1 0x41 DUP5 MLOAD EQ PUSH2 0xE25 JUMPI PUSH1 0x0 DUP1 REVERT JUMPDEST PUSH2 0xE39 PUSH8 0xB8638811709E7682 PUSH1 0xC0 SHL PUSH2 0xC7A JUMP JUMPDEST PUSH2 0xE4D PUSH8 0x63F72B6E369B09B1 PUSH1 0xC0 SHL PUSH2 0xC7A JUMP JUMPDEST PUSH2 0xE61 PUSH8 0xAEA246F0C453720E PUSH1 0xC0 SHL PUSH2 0xC7A JUMP JUMPDEST PUSH1 0x0 PUSH2 0xE77 PUSH8 0x577DE50A1F00668C PUSH1 0xC0 SHL PUSH2 0xC7A JUMP JUMPDEST PUSH2 0xE8B PUSH8 0x94CEDB1E469A1749 PUSH1 0xC0 SHL PUSH2 0xC7A JUMP JUMPDEST PUSH1 0x0 PUSH2 0xEA1 PUSH8 0x2250C72AC0EC5AFF PUSH1 0xC0 SHL PUSH2 0xC7A JUMP JUMPDEST PUSH2 0xEB5 PUSH8 0xE25D539F73C762F2 PUSH1 0xC0 SHL PUSH2 0xC7A JUMP JUMPDEST PUSH1 0x0 PUSH2 0xECB PUSH8 0xEDE93601DB22BC45 PUSH1 0xC0 SHL PUSH2 0xC7A JUMP JUMPDEST PUSH1 0x20 DUP8 ADD MLOAD SWAP3 POP PUSH1 0x40 DUP8 ADD MLOAD SWAP2 POP PUSH1 0x60 DUP8 ADD MLOAD PUSH1 0x0 BYTE SWAP1 POP PUSH2 0xEF7 PUSH8 0x8EC95B7F97843657 PUSH1 0xC0 SHL PUSH2 0xC7A JUMP JUMPDEST PUSH2 0xF0B PUSH8 0xE8528638F24D8E10 PUSH1 0xC0 SHL PUSH2 0xC7A JUMP JUMPDEST DUP1 DUP4 DUP4 SWAP6 POP SWAP6 POP SWAP6 POP POP POP POP SWAP2 SWAP4 SWAP1 SWAP3 POP JUMP JUMPDEST PUSH1 0x0 PUSH2 0xF34 PUSH8 0x105FF00A3B12B330 PUSH1 0xC0 SHL PUSH2 0xC7A JUMP JUMPDEST PUSH2 0xF48 PUSH8 0x460CA9E94873F19A PUSH1 0xC0 SHL PUSH2 0xC7A JUMP JUMPDEST PUSH2 0xF5C PUSH8 0xE69930983DD51AE7 PUSH1 0xC0 SHL PUSH2 0xC7A JUMP JUMPDEST PUSH1 0x0 PUSH1 0x1 SLOAD PUSH2 0xF6A DUP8 PUSH2 0x101D JUMP JUMPDEST PUSH1 0x40 MLOAD PUSH1 0x20 ADD PUSH2 0xF7B SWAP3 SWAP2 SWAP1 PUSH2 0x1BF9 JUMP JUMPDEST PUSH1 0x40 MLOAD PUSH1 0x20 DUP2 DUP4 SUB SUB DUP2 MSTORE SWAP1 PUSH1 0x40 MSTORE DUP1 MLOAD SWAP1 PUSH1 0x20 ADD KECCAK256 SWAP1 POP PUSH2 0xFA7 PUSH8 0xFF456692E8D9F0F0 PUSH1 0xC0 SHL PUSH2 0xC7A JUMP JUMPDEST PUSH2 0xFBB PUSH8 0xD432072F69404857 PUSH1 0xC0 SHL PUSH2 0xC7A JUMP JUMPDEST PUSH1 0x1 DUP2 DUP7 DUP7 DUP7 PUSH1 0x40 MLOAD PUSH1 0x0 DUP2 MSTORE PUSH1 0x20 ADD PUSH1 0x40 MSTORE PUSH1 0x40 MLOAD PUSH2 0xFDE SWAP5 SWAP4 SWAP3 SWAP2 SWAP1 PUSH2 0x1C5B JUMP JUMPDEST PUSH1 0x20 PUSH1 0x40 MLOAD PUSH1 0x20 DUP2 SUB SWAP1 DUP1 DUP5 SUB SWAP1 DUP6 GAS STATICCALL ISZERO DUP1 ISZERO PUSH2 0x1000 JUMPI RETURNDATASIZE PUSH1 0x0 DUP1 RETURNDATACOPY RETURNDATASIZE PUSH1 0x0 REVERT JUMPDEST POP POP POP PUSH1 0x20 PUSH1 0x40 MLOAD SUB MLOAD SWAP2 POP POP SWAP5 SWAP4 POP POP POP POP JUMP JUMPDEST PUSH1 0x0 CALLER SWAP1 POP SWAP1 JUMP JUMPDEST PUSH1 0x0 PUSH2 0x1033 PUSH8 0x9FDA9599C026502C PUSH1 0xC0 SHL PUSH2 0xC7A JUMP JUMPDEST PUSH2 0x1047 PUSH8 0x64F606E26383E90E PUSH1 0xC0 SHL PUSH2 0xC7A JUMP JUMPDEST PUSH2 0x105B PUSH8 0xBDB43E4FA61D5221 PUSH1 0xC0 SHL PUSH2 0xC7A JUMP JUMPDEST PUSH32 0xACF5FE31302E000A021505D68F64F59A958ED052954AF199025629C07A5C0912 DUP3 PUSH1 0x0 ADD MLOAD DUP1 MLOAD SWAP1 PUSH1 0x20 ADD KECCAK256 DUP4 PUSH1 0x20 ADD MLOAD DUP1 MLOAD SWAP1 PUSH1 0x20 ADD KECCAK256 DUP5 PUSH1 0x40 ADD MLOAD DUP1 MLOAD SWAP1 PUSH1 0x20 ADD KECCAK256 DUP6 PUSH1 0x60 ADD MLOAD DUP7 PUSH1 0x80 ADD MLOAD PUSH1 0x40 MLOAD PUSH1 0x20 ADD PUSH2 0x10BF SWAP7 SWAP6 SWAP5 SWAP4 SWAP3 SWAP2 SWAP1 PUSH2 0x1CA0 JUMP JUMPDEST PUSH1 0x40 MLOAD PUSH1 0x20 DUP2 DUP4 SUB SUB DUP2 MSTORE SWAP1 PUSH1 0x40 MSTORE DUP1 MLOAD SWAP1 PUSH1 0x20 ADD KECCAK256 SWAP1 POP SWAP2 SWAP1 POP JUMP JUMPDEST PUSH1 0x0 DUP2 SWAP1 POP SWAP2 SWAP1 POP JUMP JUMPDEST PUSH2 0x10EF DUP2 PUSH2 0x10DC JUMP JUMPDEST DUP3 MSTORE POP POP JUMP JUMPDEST PUSH1 0x0 PUSH1 0x20 DUP3 ADD SWAP1 POP PUSH2 0x110A PUSH1 0x0 DUP4 ADD DUP5 PUSH2 0x10E6 JUMP JUMPDEST SWAP3 SWAP2 POP POP JUMP JUMPDEST PUSH1 0x0 PUSH20 0xFFFFFFFFFFFFFFFFFFFFFFFFFFFFFFFFFFFFFFFF DUP3 AND SWAP1 POP SWAP2 SWAP1 POP JUMP JUMPDEST PUSH1 0x0 PUSH2 0x113B DUP3 PUSH2 0x1110 JUMP JUMPDEST SWAP1 POP SWAP2 SWAP1 POP JUMP JUMPDEST PUSH2 0x114B DUP2 PUSH2 0x1130 JUMP JUMPDEST DUP3 MSTORE POP POP JUMP JUMPDEST PUSH1 0x0 PUSH1 0x20 DUP3 ADD SWAP1 POP PUSH2 0x1166 PUSH1 0x0 DUP4 ADD DUP5 PUSH2 0x1142 JUMP JUMPDEST SWAP3 SWAP2 POP POP JUMP JUMPDEST PUSH1 0x0 PUSH1 0x40 MLOAD SWAP1 POP SWAP1 JUMP JUMPDEST PUSH1 0x0 DUP1 REVERT JUMPDEST PUSH1 0x0 DUP1 REVERT JUMPDEST PUSH2 0x1189 DUP2 PUSH2 0x1130 JUMP JUMPDEST DUP2 EQ PUSH2 0x1194 JUMPI PUSH1 0x0 DUP1 REVERT JUMPDEST POP JUMP JUMPDEST PUSH1 0x0 DUP2 CALLDATALOAD SWAP1 POP PUSH2 0x11A6 DUP2 PUSH2 0x1180 JUMP JUMPDEST SWAP3 SWAP2 POP POP JUMP JUMPDEST PUSH1 0x0 PUSH1 0x20 DUP3 DUP5 SUB SLT ISZERO PUSH2 0x11C2 JUMPI PUSH2 0x11C1 PUSH2 0x1176 JUMP JUMPDEST JUMPDEST PUSH1 0x0 PUSH2 0x11D0 DUP5 DUP3 DUP6 ADD PUSH2 0x1197 JUMP JUMPDEST SWAP2 POP POP SWAP3 SWAP2 POP POP JUMP JUMPDEST PUSH2 0x11E2 DUP2 PUSH2 0x10DC JUMP JUMPDEST DUP2 EQ PUSH2 0x11ED JUMPI PUSH1 0x0 DUP1 REVERT JUMPDEST POP JUMP JUMPDEST PUSH1 0x0 DUP2 CALLDATALOAD SWAP1 POP PUSH2 0x11FF DUP2 PUSH2 0x11D9 JUMP JUMPDEST SWAP3 SWAP2 POP POP JUMP JUMPDEST PUSH1 0x0 PUSH1 0x20 DUP3 DUP5 SUB SLT ISZERO PUSH2 0x121B JUMPI PUSH2 0x121A PUSH2 0x1176 JUMP JUMPDEST JUMPDEST PUSH1 0x0 PUSH2 0x1229 DUP5 DUP3 DUP6 ADD PUSH2 0x11F0 JUMP JUMPDEST SWAP2 POP POP SWAP3 SWAP2 POP POP JUMP JUMPDEST PUSH1 0x0 DUP1 REVERT JUMPDEST PUSH1 0x0 DUP1 REVERT JUMPDEST PUSH1 0x0 PUSH1 0x1F NOT PUSH1 0x1F DUP4 ADD AND SWAP1 POP SWAP2 SWAP1 POP JUMP JUMPDEST PUSH32 0x4E487B7100000000000000000000000000000000000000000000000000000000 PUSH1 0x0 MSTORE PUSH1 0x41 PUSH1 0x4 MSTORE PUSH1 0x24 PUSH1 0x0 REVERT JUMPDEST PUSH2 0x1285 DUP3 PUSH2 0x123C JUMP JUMPDEST DUP2 ADD DUP2 DUP2 LT PUSH8 0xFFFFFFFFFFFFFFFF DUP3 GT OR ISZERO PUSH2 0x12A4 JUMPI PUSH2 0x12A3 PUSH2 0x124D JUMP JUMPDEST JUMPDEST DUP1 PUSH1 0x40 MSTORE POP POP POP JUMP JUMPDEST PUSH1 0x0 PUSH2 0x12B7 PUSH2 0x116C JUMP JUMPDEST SWAP1 POP PUSH2 0x12C3 DUP3 DUP3 PUSH2 0x127C JUMP JUMPDEST SWAP2 SWAP1 POP JUMP JUMPDEST PUSH1 0x0 PUSH8 0xFFFFFFFFFFFFFFFF DUP3 GT ISZERO PUSH2 0x12E3 JUMPI PUSH2 0x12E2 PUSH2 0x124D JUMP JUMPDEST JUMPDEST PUSH2 0x12EC DUP3 PUSH2 0x123C JUMP JUMPDEST SWAP1 POP PUSH1 0x20 DUP2 ADD SWAP1 POP SWAP2 SWAP1 POP JUMP JUMPDEST DUP3 DUP2 DUP4 CALLDATACOPY PUSH1 0x0 DUP4 DUP4 ADD MSTORE POP POP POP JUMP JUMPDEST PUSH1 0x0 PUSH2 0x131B PUSH2 0x1316 DUP5 PUSH2 0x12C8 JUMP JUMPDEST PUSH2 0x12AD JUMP JUMPDEST SWAP1 POP DUP3 DUP2 MSTORE PUSH1 0x20 DUP2 ADD DUP5 DUP5 DUP5 ADD GT ISZERO PUSH2 0x1337 JUMPI PUSH2 0x1336 PUSH2 0x1237 JUMP JUMPDEST JUMPDEST PUSH2 0x1342 DUP5 DUP3 DUP6 PUSH2 0x12F9 JUMP JUMPDEST POP SWAP4 SWAP3 POP POP POP JUMP JUMPDEST PUSH1 0x0 DUP3 PUSH1 0x1F DUP4 ADD SLT PUSH2 0x135F JUMPI PUSH2 0x135E PUSH2 0x1232 JUMP JUMPDEST JUMPDEST DUP2 CALLDATALOAD PUSH2 0x136F DUP5 DUP3 PUSH1 0x20 DUP7 ADD PUSH2 0x1308 JUMP JUMPDEST SWAP2 POP POP SWAP3 SWAP2 POP POP JUMP JUMPDEST PUSH1 0x0 PUSH8 0xFFFFFFFFFFFFFFFF DUP3 GT ISZERO PUSH2 0x1393 JUMPI PUSH2 0x1392 PUSH2 0x124D JUMP JUMPDEST JUMPDEST PUSH2 0x139C DUP3 PUSH2 0x123C JUMP JUMPDEST SWAP1 POP PUSH1 0x20 DUP2 ADD SWAP1 POP SWAP2 SWAP1 POP JUMP JUMPDEST PUSH1 0x0 PUSH2 0x13BC PUSH2 0x13B7 DUP5 PUSH2 0x1378 JUMP JUMPDEST PUSH2 0x12AD JUMP JUMPDEST SWAP1 POP DUP3 DUP2 MSTORE PUSH1 0x20 DUP2 ADD DUP5 DUP5 DUP5 ADD GT ISZERO PUSH2 0x13D8 JUMPI PUSH2 0x13D7 PUSH2 0x1237 JUMP JUMPDEST JUMPDEST PUSH2 0x13E3 DUP5 DUP3 DUP6 PUSH2 0x12F9 JUMP JUMPDEST POP SWAP4 SWAP3 POP POP POP JUMP JUMPDEST PUSH1 0x0 DUP3 PUSH1 0x1F DUP4 ADD SLT PUSH2 0x1400 JUMPI PUSH2 0x13FF PUSH2 0x1232 JUMP JUMPDEST JUMPDEST DUP2 CALLDATALOAD PUSH2 0x1410 DUP5 DUP3 PUSH1 0x20 DUP7 ADD PUSH2 0x13A9 JUMP JUMPDEST SWAP2 POP POP SWAP3 SWAP2 POP POP JUMP JUMPDEST PUSH1 0x0 DUP1 PUSH1 0x0 DUP1 PUSH1 0x0 DUP1 PUSH1 0x0 PUSH1 0xE0 DUP9 DUP11 SUB SLT ISZERO PUSH2 0x1438 JUMPI PUSH2 0x1437 PUSH2 0x1176 JUMP JUMPDEST JUMPDEST PUSH1 0x0 DUP9 ADD CALLDATALOAD PUSH8 0xFFFFFFFFFFFFFFFF DUP2 GT ISZERO PUSH2 0x1456 JUMPI PUSH2 0x1455 PUSH2 0x117B JUMP JUMPDEST JUMPDEST PUSH2 0x1462 DUP11 DUP3 DUP12 ADD PUSH2 0x134A JUMP JUMPDEST SWAP8 POP POP PUSH1 0x20 DUP9 ADD CALLDATALOAD PUSH8 0xFFFFFFFFFFFFFFFF DUP2 GT ISZERO PUSH2 0x1483 JUMPI PUSH2 0x1482 PUSH2 0x117B JUMP JUMPDEST JUMPDEST PUSH2 0x148F DUP11 DUP3 DUP12 ADD PUSH2 0x134A JUMP JUMPDEST SWAP7 POP POP PUSH1 0x40 DUP9 ADD CALLDATALOAD PUSH8 0xFFFFFFFFFFFFFFFF DUP2 GT ISZERO PUSH2 0x14B0 JUMPI PUSH2 0x14AF PUSH2 0x117B JUMP JUMPDEST JUMPDEST PUSH2 0x14BC DUP11 DUP3 DUP12 ADD PUSH2 0x134A JUMP JUMPDEST SWAP6 POP POP PUSH1 0x60 PUSH2 0x14CD DUP11 DUP3 DUP12 ADD PUSH2 0x11F0 JUMP JUMPDEST SWAP5 POP POP PUSH1 0x80 PUSH2 0x14DE DUP11 DUP3 DUP12 ADD PUSH2 0x11F0 JUMP JUMPDEST SWAP4 POP POP PUSH1 0xA0 DUP9 ADD CALLDATALOAD PUSH8 0xFFFFFFFFFFFFFFFF DUP2 GT ISZERO PUSH2 0x14FF JUMPI PUSH2 0x14FE PUSH2 0x117B JUMP JUMPDEST JUMPDEST PUSH2 0x150B DUP11 DUP3 DUP12 ADD PUSH2 0x13EB JUMP JUMPDEST SWAP3 POP POP PUSH1 0xC0 DUP9 ADD CALLDATALOAD PUSH8 0xFFFFFFFFFFFFFFFF DUP2 GT ISZERO PUSH2 0x152C JUMPI PUSH2 0x152B PUSH2 0x117B JUMP JUMPDEST JUMPDEST PUSH2 0x1538 DUP11 DUP3 DUP12 ADD PUSH2 0x13EB JUMP JUMPDEST SWAP2 POP POP SWAP3 SWAP6 SWAP9 SWAP2 SWAP5 SWAP8 POP SWAP3 SWAP6 POP JUMP JUMPDEST PUSH1 0x0 DUP1 PUSH1 0x0 DUP1 PUSH1 0x0 DUP1 PUSH1 0xC0 DUP8 DUP10 SUB SLT ISZERO PUSH2 0x1564 JUMPI PUSH2 0x1563 PUSH2 0x1176 JUMP JUMPDEST JUMPDEST PUSH1 0x0 DUP8 ADD CALLDATALOAD PUSH8 0xFFFFFFFFFFFFFFFF DUP2 GT ISZERO PUSH2 0x1582 JUMPI PUSH2 0x1581 PUSH2 0x117B JUMP JUMPDEST JUMPDEST PUSH2 0x158E DUP10 DUP3 DUP11 ADD PUSH2 0x134A JUMP JUMPDEST SWAP7 POP POP PUSH1 0x20 DUP8 ADD CALLDATALOAD PUSH8 0xFFFFFFFFFFFFFFFF DUP2 GT ISZERO PUSH2 0x15AF JUMPI PUSH2 0x15AE PUSH2 0x117B JUMP JUMPDEST JUMPDEST PUSH2 0x15BB DUP10 DUP3 DUP11 ADD PUSH2 0x134A JUMP JUMPDEST SWAP6 POP POP PUSH1 0x40 DUP8 ADD CALLDATALOAD PUSH8 0xFFFFFFFFFFFFFFFF DUP2 GT ISZERO PUSH2 0x15DC JUMPI PUSH2 0x15DB PUSH2 0x117B JUMP JUMPDEST JUMPDEST PUSH2 0x15E8 DUP10 DUP3 DUP11 ADD PUSH2 0x134A JUMP JUMPDEST SWAP5 POP POP PUSH1 0x60 PUSH2 0x15F9 DUP10 DUP3 DUP11 ADD PUSH2 0x11F0 JUMP JUMPDEST SWAP4 POP POP PUSH1 0x80 PUSH2 0x160A DUP10 DUP3 DUP11 ADD PUSH2 0x11F0 JUMP JUMPDEST SWAP3 POP POP PUSH1 0xA0 DUP8 ADD CALLDATALOAD PUSH8 0xFFFFFFFFFFFFFFFF DUP2 GT ISZERO PUSH2 0x162B JUMPI PUSH2 0x162A PUSH2 0x117B JUMP JUMPDEST JUMPDEST PUSH2 0x1637 DUP10 DUP3 DUP11 ADD PUSH2 0x13EB JUMP JUMPDEST SWAP2 POP POP SWAP3 SWAP6 POP SWAP3 SWAP6 POP SWAP3 SWAP6 JUMP JUMPDEST PUSH1 0x0 DUP2 ISZERO ISZERO SWAP1 POP SWAP2 SWAP1 POP JUMP JUMPDEST PUSH2 0x1659 DUP2 PUSH2 0x1644 JUMP JUMPDEST DUP3 MSTORE POP POP JUMP JUMPDEST PUSH1 0x0 PUSH1 0x20 DUP3 ADD SWAP1 POP PUSH2 0x1674 PUSH1 0x0 DUP4 ADD DUP5 PUSH2 0x1650 JUMP JUMPDEST SWAP3 SWAP2 POP POP JUMP JUMPDEST PUSH1 0x0 DUP3 DUP3 MSTORE PUSH1 0x20 DUP3 ADD SWAP1 POP SWAP3 SWAP2 POP POP JUMP JUMPDEST PUSH32 0x496E76616C6964207369676E6174757265000000000000000000000000000000 PUSH1 0x0 DUP3 ADD MSTORE POP JUMP JUMPDEST PUSH1 0x0 PUSH2 0x16C1 PUSH1 0x11 DUP4 PUSH2 0x167A JUMP JUMPDEST SWAP2 POP PUSH2 0x16CC DUP3 PUSH2 0x168B JUMP JUMPDEST PUSH1 0x20 DUP3 ADD SWAP1 POP SWAP2 SWAP1 POP JUMP JUMPDEST PUSH1 0x0 PUSH1 0x20 DUP3 ADD SWAP1 POP DUP2 DUP2 SUB PUSH1 0x0 DUP4 ADD MSTORE PUSH2 0x16F0 DUP2 PUSH2 0x16B4 JUMP JUMPDEST SWAP1 POP SWAP2 SWAP1 POP JUMP JUMPDEST PUSH32 0x496E76616C69642076616C696461746F72207369676E61747572650000000000 PUSH1 0x0 DUP3 ADD MSTORE POP JUMP JUMPDEST PUSH1 0x0 PUSH2 0x172D PUSH1 0x1B DUP4 PUSH2 0x167A JUMP JUMPDEST SWAP2 POP PUSH2 0x1738 DUP3 PUSH2 0x16F7 JUMP JUMPDEST PUSH1 0x20 DUP3 ADD SWAP1 POP SWAP2 SWAP1 POP JUMP JUMPDEST PUSH1 0x0 PUSH1 0x20 DUP3 ADD SWAP1 POP DUP2 DUP2 SUB PUSH1 0x0 DUP4 ADD MSTORE PUSH2 0x175C DUP2 PUSH2 0x1720 JUMP JUMPDEST SWAP1 POP SWAP2 SWAP1 POP JUMP JUMPDEST PUSH32 0x696E76616C696420746965720000000000000000000000000000000000000000 PUSH1 0x0 DUP3 ADD MSTORE POP JUMP JUMPDEST PUSH1 0x0 PUSH2 0x1799 PUSH1 0xC DUP4 PUSH2 0x167A JUMP JUMPDEST SWAP2 POP PUSH2 0x17A4 DUP3 PUSH2 0x1763 JUMP JUMPDEST PUSH1 0x20 DUP3 ADD SWAP1 POP SWAP2 SWAP1 POP JUMP JUMPDEST PUSH1 0x0 PUSH1 0x20 DUP3 ADD SWAP1 POP DUP2 DUP2 SUB PUSH1 0x0 DUP4 ADD MSTORE PUSH2 0x17C8 DUP2 PUSH2 0x178C JUMP JUMPDEST SWAP1 POP SWAP2 SWAP1 POP JUMP JUMPDEST PUSH32 0x70617373656420646561646C696E650000000000000000000000000000000000 PUSH1 0x0 DUP3 ADD MSTORE POP JUMP JUMPDEST PUSH1 0x0 PUSH2 0x1805 PUSH1 0xF DUP4 PUSH2 0x167A JUMP JUMPDEST SWAP2 POP PUSH2 0x1810 DUP3 PUSH2 0x17CF JUMP JUMPDEST PUSH1 0x20 DUP3 ADD SWAP1 POP SWAP2 SWAP1 POP JUMP JUMPDEST PUSH1 0x0 PUSH1 0x20 DUP3 ADD SWAP1 POP DUP2 DUP2 SUB PUSH1 0x0 DUP4 ADD MSTORE PUSH2 0x1834 DUP2 PUSH2 0x17F8 JUMP JUMPDEST SWAP1 POP SWAP2 SWAP1 POP JUMP JUMPDEST PUSH32 0x696E636F727265637420707269636520666F7220746965720000000000000000 PUSH1 0x0 DUP3 ADD MSTORE POP JUMP JUMPDEST PUSH1 0x0 PUSH2 0x1871 PUSH1 0x18 DUP4 PUSH2 0x167A JUMP JUMPDEST SWAP2 POP PUSH2 0x187C DUP3 PUSH2 0x183B JUMP JUMPDEST PUSH1 0x20 DUP3 ADD SWAP1 POP SWAP2 SWAP1 POP JUMP JUMPDEST PUSH1 0x0 PUSH1 0x20 DUP3 ADD SWAP1 POP DUP2 DUP2 SUB PUSH1 0x0 DUP4 ADD MSTORE PUSH2 0x18A0 DUP2 PUSH2 0x1864 JUMP JUMPDEST SWAP1 POP SWAP2 SWAP1 POP JUMP JUMPDEST PUSH32 0x4E487B7100000000000000000000000000000000000000000000000000000000 PUSH1 0x0 MSTORE PUSH1 0x11 PUSH1 0x4 MSTORE PUSH1 0x24 PUSH1 0x0 REVERT JUMPDEST PUSH1 0x0 PUSH2 0x18E1 DUP3 PUSH2 0x10DC JUMP JUMPDEST SWAP2 POP PUSH2 0x18EC DUP4 PUSH2 0x10DC JUMP JUMPDEST SWAP3 POP DUP3 DUP3 ADD SWAP1 POP DUP1 DUP3 GT ISZERO PUSH2 0x1904 JUMPI PUSH2 0x1903 PUSH2 0x18A7 JUMP JUMPDEST JUMPDEST SWAP3 SWAP2 POP POP JUMP JUMPDEST PUSH1 0x0 DUP2 SWAP1 POP SWAP3 SWAP2 POP POP JUMP JUMPDEST POP JUMP JUMPDEST PUSH1 0x0 PUSH2 0x1925 PUSH1 0x0 DUP4 PUSH2 0x190A JUMP JUMPDEST SWAP2 POP PUSH2 0x1930 DUP3 PUSH2 0x1915 JUMP JUMPDEST PUSH1 0x0 DUP3 ADD SWAP1 POP SWAP2 SWAP1 POP JUMP JUMPDEST PUSH1 0x0 PUSH2 0x1946 DUP3 PUSH2 0x1918 JUMP JUMPDEST SWAP2 POP DUP2 SWAP1 POP SWAP2 SWAP1 POP JUMP JUMPDEST PUSH32 0x4661696C656420746F2073656E64204574686572000000000000000000000000 PUSH1 0x0 DUP3 ADD MSTORE POP JUMP JUMPDEST PUSH1 0x0 PUSH2 0x1986 PUSH1 0x14 DUP4 PUSH2 0x167A JUMP JUMPDEST SWAP2 POP PUSH2 0x1991 DUP3 PUSH2 0x1950 JUMP JUMPDEST PUSH1 0x20 DUP3 ADD SWAP1 POP SWAP2 SWAP1 POP JUMP JUMPDEST PUSH1 0x0 PUSH1 0x20 DUP3 ADD SWAP1 POP DUP2 DUP2 SUB PUSH1 0x0 DUP4 ADD MSTORE PUSH2 0x19B5 DUP2 PUSH2 0x1979 JUMP JUMPDEST SWAP1 POP SWAP2 SWAP1 POP JUMP JUMPDEST PUSH1 0x0 DUP2 MLOAD SWAP1 POP SWAP2 SWAP1 POP JUMP JUMPDEST PUSH1 0x0 DUP3 DUP3 MSTORE PUSH1 0x20 DUP3 ADD SWAP1 POP SWAP3 SWAP2 POP POP JUMP JUMPDEST PUSH1 0x0 JUMPDEST DUP4 DUP2 LT ISZERO PUSH2 0x19F6 JUMPI DUP1 DUP3 ADD MLOAD DUP2 DUP5 ADD MSTORE PUSH1 0x20 DUP2 ADD SWAP1 POP PUSH2 0x19DB JUMP JUMPDEST PUSH1 0x0 DUP5 DUP5 ADD MSTORE POP POP POP POP JUMP JUMPDEST PUSH1 0x0 PUSH2 0x1A0D DUP3 PUSH2 0x19BC JUMP JUMPDEST PUSH2 0x1A17 DUP2 DUP6 PUSH2 0x19C7 JUMP JUMPDEST SWAP4 POP PUSH2 0x1A27 DUP2 DUP6 PUSH1 0x20 DUP7 ADD PUSH2 0x19D8 JUMP JUMPDEST PUSH2 0x1A30 DUP2 PUSH2 0x123C JUMP JUMPDEST DUP5 ADD SWAP2 POP POP SWAP3 SWAP2 POP POP JUMP JUMPDEST PUSH1 0x0 PUSH1 0x60 DUP3 ADD SWAP1 POP PUSH2 0x1A50 PUSH1 0x0 DUP4 ADD DUP7 PUSH2 0x1142 JUMP JUMPDEST PUSH2 0x1A5D PUSH1 0x20 DUP4 ADD DUP6 PUSH2 0x10E6 JUMP JUMPDEST DUP2 DUP2 SUB PUSH1 0x40 DUP4 ADD MSTORE PUSH2 0x1A6F DUP2 DUP5 PUSH2 0x1A02 JUMP JUMPDEST SWAP1 POP SWAP5 SWAP4 POP POP POP POP JUMP JUMPDEST PUSH32 0x4F776E61626C653A206E6577206F776E657220697320746865207A65726F2061 PUSH1 0x0 DUP3 ADD MSTORE PUSH32 0x6464726573730000000000000000000000000000000000000000000000000000 PUSH1 0x20 DUP3 ADD MSTORE POP JUMP JUMPDEST PUSH1 0x0 PUSH2 0x1AD5 PUSH1 0x26 DUP4 PUSH2 0x167A JUMP JUMPDEST SWAP2 POP PUSH2 0x1AE0 DUP3 PUSH2 0x1A79 JUMP JUMPDEST PUSH1 0x40 DUP3 ADD SWAP1 POP SWAP2 SWAP1 POP JUMP JUMPDEST PUSH1 0x0 PUSH1 0x20 DUP3 ADD SWAP1 POP DUP2 DUP2 SUB PUSH1 0x0 DUP4 ADD MSTORE PUSH2 0x1B04 DUP2 PUSH2 0x1AC8 JUMP JUMPDEST SWAP1 POP SWAP2 SWAP1 POP JUMP JUMPDEST PUSH32 0x4F776E61626C653A2063616C6C6572206973206E6F7420746865206F776E6572 PUSH1 0x0 DUP3 ADD MSTORE POP JUMP JUMPDEST PUSH1 0x0 PUSH2 0x1B41 PUSH1 0x20 DUP4 PUSH2 0x167A JUMP JUMPDEST SWAP2 POP PUSH2 0x1B4C DUP3 PUSH2 0x1B0B JUMP JUMPDEST PUSH1 0x20 DUP3 ADD SWAP1 POP SWAP2 SWAP1 POP JUMP JUMPDEST PUSH1 0x0 PUSH1 0x20 DUP3 ADD SWAP1 POP DUP2 DUP2 SUB PUSH1 0x0 DUP4 ADD MSTORE PUSH2 0x1B70 DUP2 PUSH2 0x1B34 JUMP JUMPDEST SWAP1 POP SWAP2 SWAP1 POP JUMP JUMPDEST PUSH1 0x0 DUP2 SWAP1 POP SWAP3 SWAP2 POP POP JUMP JUMPDEST PUSH32 0x1901000000000000000000000000000000000000000000000000000000000000 PUSH1 0x0 DUP3 ADD MSTORE POP JUMP JUMPDEST PUSH1 0x0 PUSH2 0x1BB8 PUSH1 0x2 DUP4 PUSH2 0x1B77 JUMP JUMPDEST SWAP2 POP PUSH2 0x1BC3 DUP3 PUSH2 0x1B82 JUMP JUMPDEST PUSH1 0x2 DUP3 ADD SWAP1 POP SWAP2 SWAP1 POP JUMP JUMPDEST PUSH1 0x0 DUP2 SWAP1 POP SWAP2 SWAP1 POP JUMP JUMPDEST PUSH1 0x0 DUP2 SWAP1 POP SWAP2 SWAP1 POP JUMP JUMPDEST PUSH2 0x1BF3 PUSH2 0x1BEE DUP3 PUSH2 0x1BCE JUMP JUMPDEST PUSH2 0x1BD8 JUMP JUMPDEST DUP3 MSTORE POP POP JUMP JUMPDEST PUSH1 0x0 PUSH2 0x1C04 DUP3 PUSH2 0x1BAB JUMP JUMPDEST SWAP2 POP PUSH2 0x1C10 DUP3 DUP6 PUSH2 0x1BE2 JUMP JUMPDEST PUSH1 0x20 DUP3 ADD SWAP2 POP PUSH2 0x1C20 DUP3 DUP5 PUSH2 0x1BE2 JUMP JUMPDEST PUSH1 0x20 DUP3 ADD SWAP2 POP DUP2 SWAP1 POP SWAP4 SWAP3 POP POP POP JUMP JUMPDEST PUSH2 0x1C39 DUP2 PUSH2 0x1BCE JUMP JUMPDEST DUP3 MSTORE POP POP JUMP JUMPDEST PUSH1 0x0 PUSH1 0xFF DUP3 AND SWAP1 POP SWAP2 SWAP1 POP JUMP JUMPDEST PUSH2 0x1C55 DUP2 PUSH2 0x1C3F JUMP JUMPDEST DUP3 MSTORE POP POP JUMP JUMPDEST PUSH1 0x0 PUSH1 0x80 DUP3 ADD SWAP1 POP PUSH2 0x1C70 PUSH1 0x0 DUP4 ADD DUP8 PUSH2 0x1C30 JUMP JUMPDEST PUSH2 0x1C7D PUSH1 0x20 DUP4 ADD DUP7 PUSH2 0x1C4C JUMP JUMPDEST PUSH2 0x1C8A PUSH1 0x40 DUP4 ADD DUP6 PUSH2 0x1C30 JUMP JUMPDEST PUSH2 0x1C97 PUSH1 0x60 DUP4 ADD DUP5 PUSH2 0x1C30 JUMP JUMPDEST SWAP6 SWAP5 POP POP POP POP POP JUMP JUMPDEST PUSH1 0x0 PUSH1 0xC0 DUP3 ADD SWAP1 POP PUSH2 0x1CB5 PUSH1 0x0 DUP4 ADD DUP10 PUSH2 0x1C30 JUMP JUMPDEST PUSH2 0x1CC2 PUSH1 0x20 DUP4 ADD DUP9 PUSH2 0x1C30 JUMP JUMPDEST PUSH2 0x1CCF PUSH1 0x40 DUP4 ADD DUP8 PUSH2 0x1C30 JUMP JUMPDEST PUSH2 0x1CDC PUSH1 0x60 DUP4 ADD DUP7 PUSH2 0x1C30 JUMP JUMPDEST PUSH2 0x1CE9 PUSH1 0x80 DUP4 ADD DUP6 PUSH2 0x10E6 JUMP JUMPDEST PUSH2 0x1CF6 PUSH1 0xA0 DUP4 ADD DUP5 PUSH2 0x10E6 JUMP JUMPDEST SWAP8 SWAP7 POP POP POP POP POP POP POP JUMP INVALID LOG2 PUSH5 0x6970667358 0x22 SLT KECCAK256 PUSH0 0xCC DUP13 SLOAD MSTORE8 0xF8 MOD 0xBF 0xF CODESIZE 0xD4 0xC8 SWAP11 SWAP11 0xC SWAP16 0xE3 SIGNEXTEND 0xB5 BALANCE PUSH31 0x4178A372D30AFCA26CE08A64736F6C63430008150033000000000000000000 "},"methodIdentifiers":{"_getChainId()":"02346b05","owner()":"8da5cb5b","premiumAccount(address)":"fb660a13","renounceOwnership()":"715018a6","submitMessage(string,string,string,uint256,uint256,bytes,bytes)":"d97cb71f","tierPrice(uint256)":"826d3379","transferOwnership(address)":"f2fde38b","trust(address)":"4637d827","validateMessage(string,string,string,uint256,uint256,bytes)":"fa09da07","validator()":"3a5381b5"}}}}}