{"contracts/WorldWideWeb3.sol":{"WorldWideWeb3":{"abi":[{"inputs":[{"internalType":"string","name":"name","type":"string"},{"internalType":"string","name":"version","type":"string"}],"stateMutability":"nonpayable","type":"constructor"},{"anonymous":false,"inputs":[{"indexed":true,"internalType":"address","name":"previousOwner","type":"address"},{"indexed":true,"internalType":"address","name":"newOwner","type":"address"}],"name":"OwnershipTransferred","type":"event"},{"inputs":[],"name":"_getChainId","outputs":[{"internalType":"uint256","name":"chainId","type":"uint256"}],"stateMutability":"view","type":"function"},{"inputs":[{"internalType":"address","name":"","type":"address"}],"name":"frensTrust","outputs":[{"internalType":"uint256","name":"","type":"uint256"}],"stateMutability":"view","type":"function"},{"inputs":[{"internalType":"uint256","name":"","type":"uint256"}],"name":"messages","outputs":[{"internalType":"string","name":"message","type":"string"},{"internalType":"string","name":"latitude","type":"string"},{"internalType":"string","name":"longitude","type":"string"},{"internalType":"uint256","name":"tier","type":"uint256"},{"internalType":"uint256","name":"time","type":"uint256"}],"stateMutability":"view","type":"function"},{"inputs":[],"name":"owner","outputs":[{"internalType":"address","name":"","type":"address"}],"stateMutability":"view","type":"function"},{"inputs":[],"name":"renounceOwnership","outputs":[],"stateMutability":"nonpayable","type":"function"},{"inputs":[{"internalType":"string","name":"message","type":"string"},{"internalType":"string","name":"latitude","type":"string"},{"internalType":"string","name":"longitude","type":"string"},{"internalType":"uint256","name":"deadline","type":"uint256"},{"internalType":"uint256","name":"tier","type":"uint256"},{"internalType":"bytes","name":"signature","type":"bytes"}],"name":"submitMessage","outputs":[],"stateMutability":"payable","type":"function"},{"inputs":[{"internalType":"uint256","name":"","type":"uint256"}],"name":"tierPrice","outputs":[{"internalType":"uint256","name":"","type":"uint256"}],"stateMutability":"view","type":"function"},{"inputs":[{"internalType":"address","name":"newOwner","type":"address"}],"name":"transferOwnership","outputs":[],"stateMutability":"nonpayable","type":"function"},{"inputs":[{"internalType":"string","name":"message","type":"string"},{"internalType":"string","name":"latitude","type":"string"},{"internalType":"string","name":"longitude","type":"string"},{"internalType":"uint256","name":"time","type":"uint256"},{"internalType":"uint256","name":"tier","type":"uint256"},{"internalType":"bytes","name":"_signature","type":"bytes"}],"name":"validateMessage","outputs":[{"internalType":"address","name":"","type":"address"}],"stateMutability":"view","type":"function"}],"evm":{"bytecode":{"linkReferences":{},"object":"61014060405234801562000011575f80fd5b5060405162001d0338038062001d038339818101604052810190620000379190620004d1565b818181815f828051906020012090505f828051906020012090505f7f8b73c3c69bb8fe3d512ecc4cf759cc79239f7b179b0ffacaa9a75d522b39400f90508260e081815250508161010081815250504660a08181525050620000a1818484620001ca60201b60201c565b608081815250503073ffffffffffffffffffffffffffffffffffffffff1660c08173ffffffffffffffffffffffffffffffffffffffff16815250508061012081815250505050505050620001406040518060800160405280848152602001838152602001620001156200020560201b60201c565b81526020013073ffffffffffffffffffffffffffffffffffffffff168152506200020c60201b60201c565b5f819055505050620001676200015b6200028260201b60201c565b6200028960201b60201c565b660aa87bee53800060045f600181526020019081526020015f2081905550666a94d74f43000060045f600281526020019081526020015f2081905550670429d069189e000060045f600381526020019081526020015f2081905550505062000626565b5f8383834630604051602001620001e6959493929190620005cb565b6040516020818303038152906040528051906020012090509392505050565b5f46905090565b5f7f8b73c3c69bb8fe3d512ecc4cf759cc79239f7b179b0ffacaa9a75d522b39400f825f0151805190602001208360200151805190602001208460400151856060015160405160200162000265959493929190620005cb565b604051602081830303815290604052805190602001209050919050565b5f33905090565b5f60015f9054906101000a900473ffffffffffffffffffffffffffffffffffffffff1690508160015f6101000a81548173ffffffffffffffffffffffffffffffffffffffff021916908373ffffffffffffffffffffffffffffffffffffffff1602179055508173ffffffffffffffffffffffffffffffffffffffff168173ffffffffffffffffffffffffffffffffffffffff167f8be0079c531659141344cd1fd0a4f28419497f9722a3daafe3b4186f6b6457e060405160405180910390a35050565b5f604051905090565b5f80fd5b5f80fd5b5f80fd5b5f80fd5b5f601f19601f8301169050919050565b7f4e487b71000000000000000000000000000000000000000000000000000000005f52604160045260245ffd5b620003ad8262000365565b810181811067ffffffffffffffff82111715620003cf57620003ce62000375565b5b80604052505050565b5f620003e36200034c565b9050620003f18282620003a2565b919050565b5f67ffffffffffffffff82111562000413576200041262000375565b5b6200041e8262000365565b9050602081019050919050565b5f5b838110156200044a5780820151818401526020810190506200042d565b5f8484015250505050565b5f6200046b6200046584620003f6565b620003d8565b9050828152602081018484840111156200048a576200048962000361565b5b620004978482856200042b565b509392505050565b5f82601f830112620004b657620004b56200035d565b5b8151620004c884826020860162000455565b91505092915050565b5f8060408385031215620004ea57620004e962000355565b5b5f83015167ffffffffffffffff8111156200050a576200050962000359565b5b62000518858286016200049f565b925050602083015167ffffffffffffffff8111156200053c576200053b62000359565b5b6200054a858286016200049f565b9150509250929050565b5f819050919050565b620005688162000554565b82525050565b5f819050919050565b62000582816200056e565b82525050565b5f73ffffffffffffffffffffffffffffffffffffffff82169050919050565b5f620005b38262000588565b9050919050565b620005c581620005a7565b82525050565b5f60a082019050620005e05f8301886200055d565b620005ef60208301876200055d565b620005fe60408301866200055d565b6200060d606083018562000577565b6200061c6080830184620005ba565b9695505050505050565b60805160a05160c05160e05161010051610120516116a76200065c5f395f50505f50505f50505f50505f50505f50506116a75ff3fe608060405260043610610085575f3560e01c8063826d337911610058578063826d3379146101455780638da5cb5b14610181578063baed55e8146101ab578063f2fde38b146101c7578063fa09da07146101ef57610085565b806302346b05146100895780630d80fefd146100b3578063715018a6146100f357806372e09af214610109575b5f80fd5b348015610094575f80fd5b5061009d61022b565b6040516100aa9190610a54565b60405180910390f35b3480156100be575f80fd5b506100d960048036038101906100d49190610aa8565b610232565b6040516100ea959493929190610b5d565b60405180910390f35b3480156100fe575f80fd5b50610107610405565b005b348015610114575f80fd5b5061012f600480360381019061012a9190610c1d565b610418565b60405161013c9190610a54565b60405180910390f35b348015610150575f80fd5b5061016b60048036038101906101669190610aa8565b61042d565b6040516101789190610a54565b60405180910390f35b34801561018c575f80fd5b50610195610442565b6040516101a29190610c57565b60405180910390f35b6101c560048036038101906101c09190610e3a565b61046a565b005b3480156101d2575f80fd5b506101ed60048036038101906101e89190610c1d565b6106c8565b005b3480156101fa575f80fd5b5061021560048036038101906102109190610e3a565b61074a565b6040516102229190610c57565b60405180910390f35b5f46905090565b60028181548110610241575f80fd5b905f5260205f2090600502015f91509050805f01805461026090610f60565b80601f016020809104026020016040519081016040528092919081815260200182805461028c90610f60565b80156102d75780601f106102ae576101008083540402835291602001916102d7565b820191905f5260205f20905b8154815290600101906020018083116102ba57829003601f168201915b5050505050908060010180546102ec90610f60565b80601f016020809104026020016040519081016040528092919081815260200182805461031890610f60565b80156103635780601f1061033a57610100808354040283529160200191610363565b820191905f5260205f20905b81548152906001019060200180831161034657829003601f168201915b50505050509080600201805461037890610f60565b80601f01602080910402602001604051908101604052809291908181526020018280546103a490610f60565b80156103ef5780601f106103c6576101008083540402835291602001916103ef565b820191905f5260205f20905b8154815290600101906020018083116103d257829003601f168201915b5050505050908060030154908060040154905085565b61040d6107a9565b6104165f610827565b565b6003602052805f5260405f205f915090505481565b6004602052805f5260405f205f915090505481565b5f60015f9054906101000a900473ffffffffffffffffffffffffffffffffffffffff16905090565b3373ffffffffffffffffffffffffffffffffffffffff1661048f87878787878761074a565b73ffffffffffffffffffffffffffffffffffffffff16146104e5576040517f08c379a00000000000000000000000000000000000000000000000000000000081526004016104dc90610fda565b60405180910390fd5b5f821180156104f45750600482105b610533576040517f08c379a000000000000000000000000000000000000000000000000000000000815260040161052a90611042565b60405180910390fd5b60045f8381526020019081526020015f20543414610586576040517f08c379a000000000000000000000000000000000000000000000000000000000815260040161057d906110aa565b60405180910390fd5b8242106105c8576040517f08c379a00000000000000000000000000000000000000000000000000000000081526004016105bf90611112565b60405180910390fd5b3460035f3373ffffffffffffffffffffffffffffffffffffffff1673ffffffffffffffffffffffffffffffffffffffff1681526020019081526020015f205f828254610614919061115d565b9250508190555060026040518060a0016040528088815260200187815260200186815260200184815260200142815250908060018154018082558091505060019003905f5260205f2090600502015f909190919091505f820151815f01908161067d919061132d565b506020820151816001019081610693919061132d565b5060408201518160020190816106a9919061132d565b5060608201518160030155608082015181600401555050505050505050565b6106d06107a9565b5f73ffffffffffffffffffffffffffffffffffffffff168173ffffffffffffffffffffffffffffffffffffffff160361073e576040517f08c379a00000000000000000000000000000000000000000000000000000000081526004016107359061146c565b60405180910390fd5b61074781610827565b50565b5f806040518060a001604052808981526020018881526020018781526020018581526020018681525090505f805f610781866108ea565b80935081945082955050505061079984848484610927565b9450505050509695505050505050565b6107b16109b4565b73ffffffffffffffffffffffffffffffffffffffff166107cf610442565b73ffffffffffffffffffffffffffffffffffffffff1614610825576040517f08c379a000000000000000000000000000000000000000000000000000000000815260040161081c906114d4565b60405180910390fd5b565b5f60015f9054906101000a900473ffffffffffffffffffffffffffffffffffffffff1690508160015f6101000a81548173ffffffffffffffffffffffffffffffffffffffff021916908373ffffffffffffffffffffffffffffffffffffffff1602179055508173ffffffffffffffffffffffffffffffffffffffff168173ffffffffffffffffffffffffffffffffffffffff167f8be0079c531659141344cd1fd0a4f28419497f9722a3daafe3b4186f6b6457e060405160405180910390a35050565b5f805f60418451146108fa575f80fd5b5f805f602087015192506040870151915060608701515f1a90508083839550955095505050509193909250565b5f805f54610934876109bb565b60405160200161094592919061156f565b6040516020818303038152906040528051906020012090506001818686866040515f815260200160405260405161097f94939291906115cf565b6020604051602081039080840390855afa15801561099f573d5f803e3d5ffd5b50505060206040510351915050949350505050565b5f33905090565b5f7facf5fe31302e000a021505d68f64f59a958ed052954af199025629c07a5c0912825f01518051906020012083602001518051906020012084604001518051906020012085606001518660800151604051602001610a1f96959493929190611612565b604051602081830303815290604052805190602001209050919050565b5f819050919050565b610a4e81610a3c565b82525050565b5f602082019050610a675f830184610a45565b92915050565b5f604051905090565b5f80fd5b5f80fd5b610a8781610a3c565b8114610a91575f80fd5b50565b5f81359050610aa281610a7e565b92915050565b5f60208284031215610abd57610abc610a76565b5b5f610aca84828501610a94565b91505092915050565b5f81519050919050565b5f82825260208201905092915050565b5f5b83811015610b0a578082015181840152602081019050610aef565b5f8484015250505050565b5f601f19601f8301169050919050565b5f610b2f82610ad3565b610b398185610add565b9350610b49818560208601610aed565b610b5281610b15565b840191505092915050565b5f60a0820190508181035f830152610b758188610b25565b90508181036020830152610b898187610b25565b90508181036040830152610b9d8186610b25565b9050610bac6060830185610a45565b610bb96080830184610a45565b9695505050505050565b5f73ffffffffffffffffffffffffffffffffffffffff82169050919050565b5f610bec82610bc3565b9050919050565b610bfc81610be2565b8114610c06575f80fd5b50565b5f81359050610c1781610bf3565b92915050565b5f60208284031215610c3257610c31610a76565b5b5f610c3f84828501610c09565b91505092915050565b610c5181610be2565b82525050565b5f602082019050610c6a5f830184610c48565b92915050565b5f80fd5b5f80fd5b7f4e487b71000000000000000000000000000000000000000000000000000000005f52604160045260245ffd5b610cae82610b15565b810181811067ffffffffffffffff82111715610ccd57610ccc610c78565b5b80604052505050565b5f610cdf610a6d565b9050610ceb8282610ca5565b919050565b5f67ffffffffffffffff821115610d0a57610d09610c78565b5b610d1382610b15565b9050602081019050919050565b828183375f83830152505050565b5f610d40610d3b84610cf0565b610cd6565b905082815260208101848484011115610d5c57610d5b610c74565b5b610d67848285610d20565b509392505050565b5f82601f830112610d8357610d82610c70565b5b8135610d93848260208601610d2e565b91505092915050565b5f67ffffffffffffffff821115610db657610db5610c78565b5b610dbf82610b15565b9050602081019050919050565b5f610dde610dd984610d9c565b610cd6565b905082815260208101848484011115610dfa57610df9610c74565b5b610e05848285610d20565b509392505050565b5f82601f830112610e2157610e20610c70565b5b8135610e31848260208601610dcc565b91505092915050565b5f805f805f8060c08789031215610e5457610e53610a76565b5b5f87013567ffffffffffffffff811115610e7157610e70610a7a565b5b610e7d89828a01610d6f565b965050602087013567ffffffffffffffff811115610e9e57610e9d610a7a565b5b610eaa89828a01610d6f565b955050604087013567ffffffffffffffff811115610ecb57610eca610a7a565b5b610ed789828a01610d6f565b9450506060610ee889828a01610a94565b9350506080610ef989828a01610a94565b92505060a087013567ffffffffffffffff811115610f1a57610f19610a7a565b5b610f2689828a01610e0d565b9150509295509295509295565b7f4e487b71000000000000000000000000000000000000000000000000000000005f52602260045260245ffd5b5f6002820490506001821680610f7757607f821691505b602082108103610f8a57610f89610f33565b5b50919050565b7f496e76616c6964207369676e61747572650000000000000000000000000000005f82015250565b5f610fc4601183610add565b9150610fcf82610f90565b602082019050919050565b5f6020820190508181035f830152610ff181610fb8565b9050919050565b7f696e76616c6964207469657200000000000000000000000000000000000000005f82015250565b5f61102c600c83610add565b915061103782610ff8565b602082019050919050565b5f6020820190508181035f83015261105981611020565b9050919050565b7f696e636f7265637420707269636520666f7220746965720000000000000000005f82015250565b5f611094601783610add565b915061109f82611060565b602082019050919050565b5f6020820190508181035f8301526110c181611088565b9050919050565b7f70617373656420646561646c696e6500000000000000000000000000000000005f82015250565b5f6110fc600f83610add565b9150611107826110c8565b602082019050919050565b5f6020820190508181035f830152611129816110f0565b9050919050565b7f4e487b71000000000000000000000000000000000000000000000000000000005f52601160045260245ffd5b5f61116782610a3c565b915061117283610a3c565b925082820190508082111561118a57611189611130565b5b92915050565b5f819050815f5260205f209050919050565b5f6020601f8301049050919050565b5f82821b905092915050565b5f600883026111ec7fffffffffffffffffffffffffffffffffffffffffffffffffffffffffffffffff826111b1565b6111f686836111b1565b95508019841693508086168417925050509392505050565b5f819050919050565b5f61123161122c61122784610a3c565b61120e565b610a3c565b9050919050565b5f819050919050565b61124a83611217565b61125e61125682611238565b8484546111bd565b825550505050565b5f90565b611272611266565b61127d818484611241565b505050565b5b818110156112a0576112955f8261126a565b600181019050611283565b5050565b601f8211156112e5576112b681611190565b6112bf846111a2565b810160208510156112ce578190505b6112e26112da856111a2565b830182611282565b50505b505050565b5f82821c905092915050565b5f6113055f19846008026112ea565b1980831691505092915050565b5f61131d83836112f6565b9150826002028217905092915050565b61133682610ad3565b67ffffffffffffffff81111561134f5761134e610c78565b5b6113598254610f60565b6113648282856112a4565b5f60209050601f831160018114611395575f8415611383578287015190505b61138d8582611312565b8655506113f4565b601f1984166113a386611190565b5f5b828110156113ca578489015182556001820191506020850194506020810190506113a5565b868310156113e757848901516113e3601f8916826112f6565b8355505b6001600288020188555050505b505050505050565b7f4f776e61626c653a206e6577206f776e657220697320746865207a65726f20615f8201527f6464726573730000000000000000000000000000000000000000000000000000602082015250565b5f611456602683610add565b9150611461826113fc565b604082019050919050565b5f6020820190508181035f8301526114838161144a565b9050919050565b7f4f776e61626c653a2063616c6c6572206973206e6f7420746865206f776e65725f82015250565b5f6114be602083610add565b91506114c98261148a565b602082019050919050565b5f6020820190508181035f8301526114eb816114b2565b9050919050565b5f81905092915050565b7f19010000000000000000000000000000000000000000000000000000000000005f82015250565b5f6115306002836114f2565b915061153b826114fc565b600282019050919050565b5f819050919050565b5f819050919050565b61156961156482611546565b61154f565b82525050565b5f61157982611524565b91506115858285611558565b6020820191506115958284611558565b6020820191508190509392505050565b6115ae81611546565b82525050565b5f60ff82169050919050565b6115c9816115b4565b82525050565b5f6080820190506115e25f8301876115a5565b6115ef60208301866115c0565b6115fc60408301856115a5565b61160960608301846115a5565b95945050505050565b5f60c0820190506116255f8301896115a5565b61163260208301886115a5565b61163f60408301876115a5565b61164c60608301866115a5565b6116596080830185610a45565b61166660a0830184610a45565b97965050505050505056fea264697066735822122067432f9cb1d35d79dbb283cd48c34c1c907dc69ecd6698817ae67610a5823e8f64736f6c63430008140033","opcodes":"PUSH2 0x140 PUSH1 0x40 MSTORE CALLVALUE DUP1 ISZERO PUSH3 0x11 JUMPI PUSH0 DUP1 REVERT JUMPDEST POP PUSH1 0x40 MLOAD PUSH3 0x1D03 CODESIZE SUB DUP1 PUSH3 0x1D03 DUP4 CODECOPY DUP2 DUP2 ADD PUSH1 0x40 MSTORE DUP2 ADD SWAP1 PUSH3 0x37 SWAP2 SWAP1 PUSH3 0x4D1 JUMP JUMPDEST DUP2 DUP2 DUP2 DUP2 PUSH0 DUP3 DUP1 MLOAD SWAP1 PUSH1 0x20 ADD KECCAK256 SWAP1 POP PUSH0 DUP3 DUP1 MLOAD SWAP1 PUSH1 0x20 ADD KECCAK256 SWAP1 POP PUSH0 PUSH32 0x8B73C3C69BB8FE3D512ECC4CF759CC79239F7B179B0FFACAA9A75D522B39400F SWAP1 POP DUP3 PUSH1 0xE0 DUP2 DUP2 MSTORE POP POP DUP2 PUSH2 0x100 DUP2 DUP2 MSTORE POP POP CHAINID PUSH1 0xA0 DUP2 DUP2 MSTORE POP POP PUSH3 0xA1 DUP2 DUP5 DUP5 PUSH3 0x1CA PUSH1 0x20 SHL PUSH1 0x20 SHR JUMP JUMPDEST PUSH1 0x80 DUP2 DUP2 MSTORE POP POP ADDRESS PUSH20 0xFFFFFFFFFFFFFFFFFFFFFFFFFFFFFFFFFFFFFFFF AND PUSH1 0xC0 DUP2 PUSH20 0xFFFFFFFFFFFFFFFFFFFFFFFFFFFFFFFFFFFFFFFF AND DUP2 MSTORE POP POP DUP1 PUSH2 0x120 DUP2 DUP2 MSTORE POP POP POP POP POP POP POP PUSH3 0x140 PUSH1 0x40 MLOAD DUP1 PUSH1 0x80 ADD PUSH1 0x40 MSTORE DUP1 DUP5 DUP2 MSTORE PUSH1 0x20 ADD DUP4 DUP2 MSTORE PUSH1 0x20 ADD PUSH3 0x115 PUSH3 0x205 PUSH1 0x20 SHL PUSH1 0x20 SHR JUMP JUMPDEST DUP2 MSTORE PUSH1 0x20 ADD ADDRESS PUSH20 0xFFFFFFFFFFFFFFFFFFFFFFFFFFFFFFFFFFFFFFFF AND DUP2 MSTORE POP PUSH3 0x20C PUSH1 0x20 SHL PUSH1 0x20 SHR JUMP JUMPDEST PUSH0 DUP2 SWAP1 SSTORE POP POP POP PUSH3 0x167 PUSH3 0x15B PUSH3 0x282 PUSH1 0x20 SHL PUSH1 0x20 SHR JUMP JUMPDEST PUSH3 0x289 PUSH1 0x20 SHL PUSH1 0x20 SHR JUMP JUMPDEST PUSH7 0xAA87BEE538000 PUSH1 0x4 PUSH0 PUSH1 0x1 DUP2 MSTORE PUSH1 0x20 ADD SWAP1 DUP2 MSTORE PUSH1 0x20 ADD PUSH0 KECCAK256 DUP2 SWAP1 SSTORE POP PUSH7 0x6A94D74F430000 PUSH1 0x4 PUSH0 PUSH1 0x2 DUP2 MSTORE PUSH1 0x20 ADD SWAP1 DUP2 MSTORE PUSH1 0x20 ADD PUSH0 KECCAK256 DUP2 SWAP1 SSTORE POP PUSH8 0x429D069189E0000 PUSH1 0x4 PUSH0 PUSH1 0x3 DUP2 MSTORE PUSH1 0x20 ADD SWAP1 DUP2 MSTORE PUSH1 0x20 ADD PUSH0 KECCAK256 DUP2 SWAP1 SSTORE POP POP POP PUSH3 0x626 JUMP JUMPDEST PUSH0 DUP4 DUP4 DUP4 CHAINID ADDRESS PUSH1 0x40 MLOAD PUSH1 0x20 ADD PUSH3 0x1E6 SWAP6 SWAP5 SWAP4 SWAP3 SWAP2 SWAP1 PUSH3 0x5CB JUMP JUMPDEST PUSH1 0x40 MLOAD PUSH1 0x20 DUP2 DUP4 SUB SUB DUP2 MSTORE SWAP1 PUSH1 0x40 MSTORE DUP1 MLOAD SWAP1 PUSH1 0x20 ADD KECCAK256 SWAP1 POP SWAP4 SWAP3 POP POP POP JUMP JUMPDEST PUSH0 CHAINID SWAP1 POP SWAP1 JUMP JUMPDEST PUSH0 PUSH32 0x8B73C3C69BB8FE3D512ECC4CF759CC79239F7B179B0FFACAA9A75D522B39400F DUP3 PUSH0 ADD MLOAD DUP1 MLOAD SWAP1 PUSH1 0x20 ADD KECCAK256 DUP4 PUSH1 0x20 ADD MLOAD DUP1 MLOAD SWAP1 PUSH1 0x20 ADD KECCAK256 DUP5 PUSH1 0x40 ADD MLOAD DUP6 PUSH1 0x60 ADD MLOAD PUSH1 0x40 MLOAD PUSH1 0x20 ADD PUSH3 0x265 SWAP6 SWAP5 SWAP4 SWAP3 SWAP2 SWAP1 PUSH3 0x5CB JUMP JUMPDEST PUSH1 0x40 MLOAD PUSH1 0x20 DUP2 DUP4 SUB SUB DUP2 MSTORE SWAP1 PUSH1 0x40 MSTORE DUP1 MLOAD SWAP1 PUSH1 0x20 ADD KECCAK256 SWAP1 POP SWAP2 SWAP1 POP JUMP JUMPDEST PUSH0 CALLER SWAP1 POP SWAP1 JUMP JUMPDEST PUSH0 PUSH1 0x1 PUSH0 SWAP1 SLOAD SWAP1 PUSH2 0x100 EXP SWAP1 DIV PUSH20 0xFFFFFFFFFFFFFFFFFFFFFFFFFFFFFFFFFFFFFFFF AND SWAP1 POP DUP2 PUSH1 0x1 PUSH0 PUSH2 0x100 EXP DUP2 SLOAD DUP2 PUSH20 0xFFFFFFFFFFFFFFFFFFFFFFFFFFFFFFFFFFFFFFFF MUL NOT AND SWAP1 DUP4 PUSH20 0xFFFFFFFFFFFFFFFFFFFFFFFFFFFFFFFFFFFFFFFF AND MUL OR SWAP1 SSTORE POP DUP2 PUSH20 0xFFFFFFFFFFFFFFFFFFFFFFFFFFFFFFFFFFFFFFFF AND DUP2 PUSH20 0xFFFFFFFFFFFFFFFFFFFFFFFFFFFFFFFFFFFFFFFF AND PUSH32 0x8BE0079C531659141344CD1FD0A4F28419497F9722A3DAAFE3B4186F6B6457E0 PUSH1 0x40 MLOAD PUSH1 0x40 MLOAD DUP1 SWAP2 SUB SWAP1 LOG3 POP POP JUMP JUMPDEST PUSH0 PUSH1 0x40 MLOAD SWAP1 POP SWAP1 JUMP JUMPDEST PUSH0 DUP1 REVERT JUMPDEST PUSH0 DUP1 REVERT JUMPDEST PUSH0 DUP1 REVERT JUMPDEST PUSH0 DUP1 REVERT JUMPDEST PUSH0 PUSH1 0x1F NOT PUSH1 0x1F DUP4 ADD AND SWAP1 POP SWAP2 SWAP1 POP JUMP JUMPDEST PUSH32 0x4E487B7100000000000000000000000000000000000000000000000000000000 PUSH0 MSTORE PUSH1 0x41 PUSH1 0x4 MSTORE PUSH1 0x24 PUSH0 REVERT JUMPDEST PUSH3 0x3AD DUP3 PUSH3 0x365 JUMP JUMPDEST DUP2 ADD DUP2 DUP2 LT PUSH8 0xFFFFFFFFFFFFFFFF DUP3 GT OR ISZERO PUSH3 0x3CF JUMPI PUSH3 0x3CE PUSH3 0x375 JUMP JUMPDEST JUMPDEST DUP1 PUSH1 0x40 MSTORE POP POP POP JUMP JUMPDEST PUSH0 PUSH3 0x3E3 PUSH3 0x34C JUMP JUMPDEST SWAP1 POP PUSH3 0x3F1 DUP3 DUP3 PUSH3 0x3A2 JUMP JUMPDEST SWAP2 SWAP1 POP JUMP JUMPDEST PUSH0 PUSH8 0xFFFFFFFFFFFFFFFF DUP3 GT ISZERO PUSH3 0x413 JUMPI PUSH3 0x412 PUSH3 0x375 JUMP JUMPDEST JUMPDEST PUSH3 0x41E DUP3 PUSH3 0x365 JUMP JUMPDEST SWAP1 POP PUSH1 0x20 DUP2 ADD SWAP1 POP SWAP2 SWAP1 POP JUMP JUMPDEST PUSH0 JUMPDEST DUP4 DUP2 LT ISZERO PUSH3 0x44A JUMPI DUP1 DUP3 ADD MLOAD DUP2 DUP5 ADD MSTORE PUSH1 0x20 DUP2 ADD SWAP1 POP PUSH3 0x42D JUMP JUMPDEST PUSH0 DUP5 DUP5 ADD MSTORE POP POP POP POP JUMP JUMPDEST PUSH0 PUSH3 0x46B PUSH3 0x465 DUP5 PUSH3 0x3F6 JUMP JUMPDEST PUSH3 0x3D8 JUMP JUMPDEST SWAP1 POP DUP3 DUP2 MSTORE PUSH1 0x20 DUP2 ADD DUP5 DUP5 DUP5 ADD GT ISZERO PUSH3 0x48A JUMPI PUSH3 0x489 PUSH3 0x361 JUMP JUMPDEST JUMPDEST PUSH3 0x497 DUP5 DUP3 DUP6 PUSH3 0x42B JUMP JUMPDEST POP SWAP4 SWAP3 POP POP POP JUMP JUMPDEST PUSH0 DUP3 PUSH1 0x1F DUP4 ADD SLT PUSH3 0x4B6 JUMPI PUSH3 0x4B5 PUSH3 0x35D JUMP JUMPDEST JUMPDEST DUP2 MLOAD PUSH3 0x4C8 DUP5 DUP3 PUSH1 0x20 DUP7 ADD PUSH3 0x455 JUMP JUMPDEST SWAP2 POP POP SWAP3 SWAP2 POP POP JUMP JUMPDEST PUSH0 DUP1 PUSH1 0x40 DUP4 DUP6 SUB SLT ISZERO PUSH3 0x4EA JUMPI PUSH3 0x4E9 PUSH3 0x355 JUMP JUMPDEST JUMPDEST PUSH0 DUP4 ADD MLOAD PUSH8 0xFFFFFFFFFFFFFFFF DUP2 GT ISZERO PUSH3 0x50A JUMPI PUSH3 0x509 PUSH3 0x359 JUMP JUMPDEST JUMPDEST PUSH3 0x518 DUP6 DUP3 DUP7 ADD PUSH3 0x49F JUMP JUMPDEST SWAP3 POP POP PUSH1 0x20 DUP4 ADD MLOAD PUSH8 0xFFFFFFFFFFFFFFFF DUP2 GT ISZERO PUSH3 0x53C JUMPI PUSH3 0x53B PUSH3 0x359 JUMP JUMPDEST JUMPDEST PUSH3 0x54A DUP6 DUP3 DUP7 ADD PUSH3 0x49F JUMP JUMPDEST SWAP2 POP POP SWAP3 POP SWAP3 SWAP1 POP JUMP JUMPDEST PUSH0 DUP2 SWAP1 POP SWAP2 SWAP1 POP JUMP JUMPDEST PUSH3 0x568 DUP2 PUSH3 0x554 JUMP JUMPDEST DUP3 MSTORE POP POP JUMP JUMPDEST PUSH0 DUP2 SWAP1 POP SWAP2 SWAP1 POP JUMP JUMPDEST PUSH3 0x582 DUP2 PUSH3 0x56E JUMP JUMPDEST DUP3 MSTORE POP POP JUMP JUMPDEST PUSH0 PUSH20 0xFFFFFFFFFFFFFFFFFFFFFFFFFFFFFFFFFFFFFFFF DUP3 AND SWAP1 POP SWAP2 SWAP1 POP JUMP JUMPDEST PUSH0 PUSH3 0x5B3 DUP3 PUSH3 0x588 JUMP JUMPDEST SWAP1 POP SWAP2 SWAP1 POP JUMP JUMPDEST PUSH3 0x5C5 DUP2 PUSH3 0x5A7 JUMP JUMPDEST DUP3 MSTORE POP POP JUMP JUMPDEST PUSH0 PUSH1 0xA0 DUP3 ADD SWAP1 POP PUSH3 0x5E0 PUSH0 DUP4 ADD DUP9 PUSH3 0x55D JUMP JUMPDEST PUSH3 0x5EF PUSH1 0x20 DUP4 ADD DUP8 PUSH3 0x55D JUMP JUMPDEST PUSH3 0x5FE PUSH1 0x40 DUP4 ADD DUP7 PUSH3 0x55D JUMP JUMPDEST PUSH3 0x60D PUSH1 0x60 DUP4 ADD DUP6 PUSH3 0x577 JUMP JUMPDEST PUSH3 0x61C PUSH1 0x80 DUP4 ADD DUP5 PUSH3 0x5BA JUMP JUMPDEST SWAP7 SWAP6 POP POP POP POP POP POP JUMP JUMPDEST PUSH1 0x80 MLOAD PUSH1 0xA0 MLOAD PUSH1 0xC0 MLOAD PUSH1 0xE0 MLOAD PUSH2 0x100 MLOAD PUSH2 0x120 MLOAD PUSH2 0x16A7 PUSH3 0x65C PUSH0 CODECOPY PUSH0 POP POP PUSH0 POP POP PUSH0 POP POP PUSH0 POP POP PUSH0 POP POP PUSH0 POP POP PUSH2 0x16A7 PUSH0 RETURN INVALID PUSH1 0x80 PUSH1 0x40 MSTORE PUSH1 0x4 CALLDATASIZE LT PUSH2 0x85 JUMPI PUSH0 CALLDATALOAD PUSH1 0xE0 SHR DUP1 PUSH4 0x826D3379 GT PUSH2 0x58 JUMPI DUP1 PUSH4 0x826D3379 EQ PUSH2 0x145 JUMPI DUP1 PUSH4 0x8DA5CB5B EQ PUSH2 0x181 JUMPI DUP1 PUSH4 0xBAED55E8 EQ PUSH2 0x1AB JUMPI DUP1 PUSH4 0xF2FDE38B EQ PUSH2 0x1C7 JUMPI DUP1 PUSH4 0xFA09DA07 EQ PUSH2 0x1EF JUMPI PUSH2 0x85 JUMP JUMPDEST DUP1 PUSH4 0x2346B05 EQ PUSH2 0x89 JUMPI DUP1 PUSH4 0xD80FEFD EQ PUSH2 0xB3 JUMPI DUP1 PUSH4 0x715018A6 EQ PUSH2 0xF3 JUMPI DUP1 PUSH4 0x72E09AF2 EQ PUSH2 0x109 JUMPI JUMPDEST PUSH0 DUP1 REVERT JUMPDEST CALLVALUE DUP1 ISZERO PUSH2 0x94 JUMPI PUSH0 DUP1 REVERT JUMPDEST POP PUSH2 0x9D PUSH2 0x22B JUMP JUMPDEST PUSH1 0x40 MLOAD PUSH2 0xAA SWAP2 SWAP1 PUSH2 0xA54 JUMP JUMPDEST PUSH1 0x40 MLOAD DUP1 SWAP2 SUB SWAP1 RETURN JUMPDEST CALLVALUE DUP1 ISZERO PUSH2 0xBE JUMPI PUSH0 DUP1 REVERT JUMPDEST POP PUSH2 0xD9 PUSH1 0x4 DUP1 CALLDATASIZE SUB DUP2 ADD SWAP1 PUSH2 0xD4 SWAP2 SWAP1 PUSH2 0xAA8 JUMP JUMPDEST PUSH2 0x232 JUMP JUMPDEST PUSH1 0x40 MLOAD PUSH2 0xEA SWAP6 SWAP5 SWAP4 SWAP3 SWAP2 SWAP1 PUSH2 0xB5D JUMP JUMPDEST PUSH1 0x40 MLOAD DUP1 SWAP2 SUB SWAP1 RETURN JUMPDEST CALLVALUE DUP1 ISZERO PUSH2 0xFE JUMPI PUSH0 DUP1 REVERT JUMPDEST POP PUSH2 0x107 PUSH2 0x405 JUMP JUMPDEST STOP JUMPDEST CALLVALUE DUP1 ISZERO PUSH2 0x114 JUMPI PUSH0 DUP1 REVERT JUMPDEST POP PUSH2 0x12F PUSH1 0x4 DUP1 CALLDATASIZE SUB DUP2 ADD SWAP1 PUSH2 0x12A SWAP2 SWAP1 PUSH2 0xC1D JUMP JUMPDEST PUSH2 0x418 JUMP JUMPDEST PUSH1 0x40 MLOAD PUSH2 0x13C SWAP2 SWAP1 PUSH2 0xA54 JUMP JUMPDEST PUSH1 0x40 MLOAD DUP1 SWAP2 SUB SWAP1 RETURN JUMPDEST CALLVALUE DUP1 ISZERO PUSH2 0x150 JUMPI PUSH0 DUP1 REVERT JUMPDEST POP PUSH2 0x16B PUSH1 0x4 DUP1 CALLDATASIZE SUB DUP2 ADD SWAP1 PUSH2 0x166 SWAP2 SWAP1 PUSH2 0xAA8 JUMP JUMPDEST PUSH2 0x42D JUMP JUMPDEST PUSH1 0x40 MLOAD PUSH2 0x178 SWAP2 SWAP1 PUSH2 0xA54 JUMP JUMPDEST PUSH1 0x40 MLOAD DUP1 SWAP2 SUB SWAP1 RETURN JUMPDEST CALLVALUE DUP1 ISZERO PUSH2 0x18C JUMPI PUSH0 DUP1 REVERT JUMPDEST POP PUSH2 0x195 PUSH2 0x442 JUMP JUMPDEST PUSH1 0x40 MLOAD PUSH2 0x1A2 SWAP2 SWAP1 PUSH2 0xC57 JUMP JUMPDEST PUSH1 0x40 MLOAD DUP1 SWAP2 SUB SWAP1 RETURN JUMPDEST PUSH2 0x1C5 PUSH1 0x4 DUP1 CALLDATASIZE SUB DUP2 ADD SWAP1 PUSH2 0x1C0 SWAP2 SWAP1 PUSH2 0xE3A JUMP JUMPDEST PUSH2 0x46A JUMP JUMPDEST STOP JUMPDEST CALLVALUE DUP1 ISZERO PUSH2 0x1D2 JUMPI PUSH0 DUP1 REVERT JUMPDEST POP PUSH2 0x1ED PUSH1 0x4 DUP1 CALLDATASIZE SUB DUP2 ADD SWAP1 PUSH2 0x1E8 SWAP2 SWAP1 PUSH2 0xC1D JUMP JUMPDEST PUSH2 0x6C8 JUMP JUMPDEST STOP JUMPDEST CALLVALUE DUP1 ISZERO PUSH2 0x1FA JUMPI PUSH0 DUP1 REVERT JUMPDEST POP PUSH2 0x215 PUSH1 0x4 DUP1 CALLDATASIZE SUB DUP2 ADD SWAP1 PUSH2 0x210 SWAP2 SWAP1 PUSH2 0xE3A JUMP JUMPDEST PUSH2 0x74A JUMP JUMPDEST PUSH1 0x40 MLOAD PUSH2 0x222 SWAP2 SWAP1 PUSH2 0xC57 JUMP JUMPDEST PUSH1 0x40 MLOAD DUP1 SWAP2 SUB SWAP1 RETURN JUMPDEST PUSH0 CHAINID SWAP1 POP SWAP1 JUMP JUMPDEST PUSH1 0x2 DUP2 DUP2 SLOAD DUP2 LT PUSH2 0x241 JUMPI PUSH0 DUP1 REVERT JUMPDEST SWAP1 PUSH0 MSTORE PUSH1 0x20 PUSH0 KECCAK256 SWAP1 PUSH1 0x5 MUL ADD PUSH0 SWAP2 POP SWAP1 POP DUP1 PUSH0 ADD DUP1 SLOAD PUSH2 0x260 SWAP1 PUSH2 0xF60 JUMP JUMPDEST DUP1 PUSH1 0x1F ADD PUSH1 0x20 DUP1 SWAP2 DIV MUL PUSH1 0x20 ADD PUSH1 0x40 MLOAD SWAP1 DUP2 ADD PUSH1 0x40 MSTORE DUP1 SWAP3 SWAP2 SWAP1 DUP2 DUP2 MSTORE PUSH1 0x20 ADD DUP3 DUP1 SLOAD PUSH2 0x28C SWAP1 PUSH2 0xF60 JUMP JUMPDEST DUP1 ISZERO PUSH2 0x2D7 JUMPI DUP1 PUSH1 0x1F LT PUSH2 0x2AE JUMPI PUSH2 0x100 DUP1 DUP4 SLOAD DIV MUL DUP4 MSTORE SWAP2 PUSH1 0x20 ADD SWAP2 PUSH2 0x2D7 JUMP JUMPDEST DUP3 ADD SWAP2 SWAP1 PUSH0 MSTORE PUSH1 0x20 PUSH0 KECCAK256 SWAP1 JUMPDEST DUP2 SLOAD DUP2 MSTORE SWAP1 PUSH1 0x1 ADD SWAP1 PUSH1 0x20 ADD DUP1 DUP4 GT PUSH2 0x2BA JUMPI DUP3 SWAP1 SUB PUSH1 0x1F AND DUP3 ADD SWAP2 JUMPDEST POP POP POP POP POP SWAP1 DUP1 PUSH1 0x1 ADD DUP1 SLOAD PUSH2 0x2EC SWAP1 PUSH2 0xF60 JUMP JUMPDEST DUP1 PUSH1 0x1F ADD PUSH1 0x20 DUP1 SWAP2 DIV MUL PUSH1 0x20 ADD PUSH1 0x40 MLOAD SWAP1 DUP2 ADD PUSH1 0x40 MSTORE DUP1 SWAP3 SWAP2 SWAP1 DUP2 DUP2 MSTORE PUSH1 0x20 ADD DUP3 DUP1 SLOAD PUSH2 0x318 SWAP1 PUSH2 0xF60 JUMP JUMPDEST DUP1 ISZERO PUSH2 0x363 JUMPI DUP1 PUSH1 0x1F LT PUSH2 0x33A JUMPI PUSH2 0x100 DUP1 DUP4 SLOAD DIV MUL DUP4 MSTORE SWAP2 PUSH1 0x20 ADD SWAP2 PUSH2 0x363 JUMP JUMPDEST DUP3 ADD SWAP2 SWAP1 PUSH0 MSTORE PUSH1 0x20 PUSH0 KECCAK256 SWAP1 JUMPDEST DUP2 SLOAD DUP2 MSTORE SWAP1 PUSH1 0x1 ADD SWAP1 PUSH1 0x20 ADD DUP1 DUP4 GT PUSH2 0x346 JUMPI DUP3 SWAP1 SUB PUSH1 0x1F AND DUP3 ADD SWAP2 JUMPDEST POP POP POP POP POP SWAP1 DUP1 PUSH1 0x2 ADD DUP1 SLOAD PUSH2 0x378 SWAP1 PUSH2 0xF60 JUMP JUMPDEST DUP1 PUSH1 0x1F ADD PUSH1 0x20 DUP1 SWAP2 DIV MUL PUSH1 0x20 ADD PUSH1 0x40 MLOAD SWAP1 DUP2 ADD PUSH1 0x40 MSTORE DUP1 SWAP3 SWAP2 SWAP1 DUP2 DUP2 MSTORE PUSH1 0x20 ADD DUP3 DUP1 SLOAD PUSH2 0x3A4 SWAP1 PUSH2 0xF60 JUMP JUMPDEST DUP1 ISZERO PUSH2 0x3EF JUMPI DUP1 PUSH1 0x1F LT PUSH2 0x3C6 JUMPI PUSH2 0x100 DUP1 DUP4 SLOAD DIV MUL DUP4 MSTORE SWAP2 PUSH1 0x20 ADD SWAP2 PUSH2 0x3EF JUMP JUMPDEST DUP3 ADD SWAP2 SWAP1 PUSH0 MSTORE PUSH1 0x20 PUSH0 KECCAK256 SWAP1 JUMPDEST DUP2 SLOAD DUP2 MSTORE SWAP1 PUSH1 0x1 ADD SWAP1 PUSH1 0x20 ADD DUP1 DUP4 GT PUSH2 0x3D2 JUMPI DUP3 SWAP1 SUB PUSH1 0x1F AND DUP3 ADD SWAP2 JUMPDEST POP POP POP POP POP SWAP1 DUP1 PUSH1 0x3 ADD SLOAD SWAP1 DUP1 PUSH1 0x4 ADD SLOAD SWAP1 POP DUP6 JUMP JUMPDEST PUSH2 0x40D PUSH2 0x7A9 JUMP JUMPDEST PUSH2 0x416 PUSH0 PUSH2 0x827 JUMP JUMPDEST JUMP JUMPDEST PUSH1 0x3 PUSH1 0x20 MSTORE DUP1 PUSH0 MSTORE PUSH1 0x40 PUSH0 KECCAK256 PUSH0 SWAP2 POP SWAP1 POP SLOAD DUP2 JUMP JUMPDEST PUSH1 0x4 PUSH1 0x20 MSTORE DUP1 PUSH0 MSTORE PUSH1 0x40 PUSH0 KECCAK256 PUSH0 SWAP2 POP SWAP1 POP SLOAD DUP2 JUMP JUMPDEST PUSH0 PUSH1 0x1 PUSH0 SWAP1 SLOAD SWAP1 PUSH2 0x100 EXP SWAP1 DIV PUSH20 0xFFFFFFFFFFFFFFFFFFFFFFFFFFFFFFFFFFFFFFFF AND SWAP1 POP SWAP1 JUMP JUMPDEST CALLER PUSH20 0xFFFFFFFFFFFFFFFFFFFFFFFFFFFFFFFFFFFFFFFF AND PUSH2 0x48F DUP8 DUP8 DUP8 DUP8 DUP8 DUP8 PUSH2 0x74A JUMP JUMPDEST PUSH20 0xFFFFFFFFFFFFFFFFFFFFFFFFFFFFFFFFFFFFFFFF AND EQ PUSH2 0x4E5 JUMPI PUSH1 0x40 MLOAD PUSH32 0x8C379A000000000000000000000000000000000000000000000000000000000 DUP2 MSTORE PUSH1 0x4 ADD PUSH2 0x4DC SWAP1 PUSH2 0xFDA JUMP JUMPDEST PUSH1 0x40 MLOAD DUP1 SWAP2 SUB SWAP1 REVERT JUMPDEST PUSH0 DUP3 GT DUP1 ISZERO PUSH2 0x4F4 JUMPI POP PUSH1 0x4 DUP3 LT JUMPDEST PUSH2 0x533 JUMPI PUSH1 0x40 MLOAD PUSH32 0x8C379A000000000000000000000000000000000000000000000000000000000 DUP2 MSTORE PUSH1 0x4 ADD PUSH2 0x52A SWAP1 PUSH2 0x1042 JUMP JUMPDEST PUSH1 0x40 MLOAD DUP1 SWAP2 SUB SWAP1 REVERT JUMPDEST PUSH1 0x4 PUSH0 DUP4 DUP2 MSTORE PUSH1 0x20 ADD SWAP1 DUP2 MSTORE PUSH1 0x20 ADD PUSH0 KECCAK256 SLOAD CALLVALUE EQ PUSH2 0x586 JUMPI PUSH1 0x40 MLOAD PUSH32 0x8C379A000000000000000000000000000000000000000000000000000000000 DUP2 MSTORE PUSH1 0x4 ADD PUSH2 0x57D SWAP1 PUSH2 0x10AA JUMP JUMPDEST PUSH1 0x40 MLOAD DUP1 SWAP2 SUB SWAP1 REVERT JUMPDEST DUP3 TIMESTAMP LT PUSH2 0x5C8 JUMPI PUSH1 0x40 MLOAD PUSH32 0x8C379A000000000000000000000000000000000000000000000000000000000 DUP2 MSTORE PUSH1 0x4 ADD PUSH2 0x5BF SWAP1 PUSH2 0x1112 JUMP JUMPDEST PUSH1 0x40 MLOAD DUP1 SWAP2 SUB SWAP1 REVERT JUMPDEST CALLVALUE PUSH1 0x3 PUSH0 CALLER PUSH20 0xFFFFFFFFFFFFFFFFFFFFFFFFFFFFFFFFFFFFFFFF AND PUSH20 0xFFFFFFFFFFFFFFFFFFFFFFFFFFFFFFFFFFFFFFFF AND DUP2 MSTORE PUSH1 0x20 ADD SWAP1 DUP2 MSTORE PUSH1 0x20 ADD PUSH0 KECCAK256 PUSH0 DUP3 DUP3 SLOAD PUSH2 0x614 SWAP2 SWAP1 PUSH2 0x115D JUMP JUMPDEST SWAP3 POP POP DUP2 SWAP1 SSTORE POP PUSH1 0x2 PUSH1 0x40 MLOAD DUP1 PUSH1 0xA0 ADD PUSH1 0x40 MSTORE DUP1 DUP9 DUP2 MSTORE PUSH1 0x20 ADD DUP8 DUP2 MSTORE PUSH1 0x20 ADD DUP7 DUP2 MSTORE PUSH1 0x20 ADD DUP5 DUP2 MSTORE PUSH1 0x20 ADD TIMESTAMP DUP2 MSTORE POP SWAP1 DUP1 PUSH1 0x1 DUP2 SLOAD ADD DUP1 DUP3 SSTORE DUP1 SWAP2 POP POP PUSH1 0x1 SWAP1 SUB SWAP1 PUSH0 MSTORE PUSH1 0x20 PUSH0 KECCAK256 SWAP1 PUSH1 0x5 MUL ADD PUSH0 SWAP1 SWAP2 SWAP1 SWAP2 SWAP1 SWAP2 POP PUSH0 DUP3 ADD MLOAD DUP2 PUSH0 ADD SWAP1 DUP2 PUSH2 0x67D SWAP2 SWAP1 PUSH2 0x132D JUMP JUMPDEST POP PUSH1 0x20 DUP3 ADD MLOAD DUP2 PUSH1 0x1 ADD SWAP1 DUP2 PUSH2 0x693 SWAP2 SWAP1 PUSH2 0x132D JUMP JUMPDEST POP PUSH1 0x40 DUP3 ADD MLOAD DUP2 PUSH1 0x2 ADD SWAP1 DUP2 PUSH2 0x6A9 SWAP2 SWAP1 PUSH2 0x132D JUMP JUMPDEST POP PUSH1 0x60 DUP3 ADD MLOAD DUP2 PUSH1 0x3 ADD SSTORE PUSH1 0x80 DUP3 ADD MLOAD DUP2 PUSH1 0x4 ADD SSTORE POP POP POP POP POP POP POP POP JUMP JUMPDEST PUSH2 0x6D0 PUSH2 0x7A9 JUMP JUMPDEST PUSH0 PUSH20 0xFFFFFFFFFFFFFFFFFFFFFFFFFFFFFFFFFFFFFFFF AND DUP2 PUSH20 0xFFFFFFFFFFFFFFFFFFFFFFFFFFFFFFFFFFFFFFFF AND SUB PUSH2 0x73E JUMPI PUSH1 0x40 MLOAD PUSH32 0x8C379A000000000000000000000000000000000000000000000000000000000 DUP2 MSTORE PUSH1 0x4 ADD PUSH2 0x735 SWAP1 PUSH2 0x146C JUMP JUMPDEST PUSH1 0x40 MLOAD DUP1 SWAP2 SUB SWAP1 REVERT JUMPDEST PUSH2 0x747 DUP2 PUSH2 0x827 JUMP JUMPDEST POP JUMP JUMPDEST PUSH0 DUP1 PUSH1 0x40 MLOAD DUP1 PUSH1 0xA0 ADD PUSH1 0x40 MSTORE DUP1 DUP10 DUP2 MSTORE PUSH1 0x20 ADD DUP9 DUP2 MSTORE PUSH1 0x20 ADD DUP8 DUP2 MSTORE PUSH1 0x20 ADD DUP6 DUP2 MSTORE PUSH1 0x20 ADD DUP7 DUP2 MSTORE POP SWAP1 POP PUSH0 DUP1 PUSH0 PUSH2 0x781 DUP7 PUSH2 0x8EA JUMP JUMPDEST DUP1 SWAP4 POP DUP2 SWAP5 POP DUP3 SWAP6 POP POP POP POP PUSH2 0x799 DUP5 DUP5 DUP5 DUP5 PUSH2 0x927 JUMP JUMPDEST SWAP5 POP POP POP POP POP SWAP7 SWAP6 POP POP POP POP POP POP JUMP JUMPDEST PUSH2 0x7B1 PUSH2 0x9B4 JUMP JUMPDEST PUSH20 0xFFFFFFFFFFFFFFFFFFFFFFFFFFFFFFFFFFFFFFFF AND PUSH2 0x7CF PUSH2 0x442 JUMP JUMPDEST PUSH20 0xFFFFFFFFFFFFFFFFFFFFFFFFFFFFFFFFFFFFFFFF AND EQ PUSH2 0x825 JUMPI PUSH1 0x40 MLOAD PUSH32 0x8C379A000000000000000000000000000000000000000000000000000000000 DUP2 MSTORE PUSH1 0x4 ADD PUSH2 0x81C SWAP1 PUSH2 0x14D4 JUMP JUMPDEST PUSH1 0x40 MLOAD DUP1 SWAP2 SUB SWAP1 REVERT JUMPDEST JUMP JUMPDEST PUSH0 PUSH1 0x1 PUSH0 SWAP1 SLOAD SWAP1 PUSH2 0x100 EXP SWAP1 DIV PUSH20 0xFFFFFFFFFFFFFFFFFFFFFFFFFFFFFFFFFFFFFFFF AND SWAP1 POP DUP2 PUSH1 0x1 PUSH0 PUSH2 0x100 EXP DUP2 SLOAD DUP2 PUSH20 0xFFFFFFFFFFFFFFFFFFFFFFFFFFFFFFFFFFFFFFFF MUL NOT AND SWAP1 DUP4 PUSH20 0xFFFFFFFFFFFFFFFFFFFFFFFFFFFFFFFFFFFFFFFF AND MUL OR SWAP1 SSTORE POP DUP2 PUSH20 0xFFFFFFFFFFFFFFFFFFFFFFFFFFFFFFFFFFFFFFFF AND DUP2 PUSH20 0xFFFFFFFFFFFFFFFFFFFFFFFFFFFFFFFFFFFFFFFF AND PUSH32 0x8BE0079C531659141344CD1FD0A4F28419497F9722A3DAAFE3B4186F6B6457E0 PUSH1 0x40 MLOAD PUSH1 0x40 MLOAD DUP1 SWAP2 SUB SWAP1 LOG3 POP POP JUMP JUMPDEST PUSH0 DUP1 PUSH0 PUSH1 0x41 DUP5 MLOAD EQ PUSH2 0x8FA JUMPI PUSH0 DUP1 REVERT JUMPDEST PUSH0 DUP1 PUSH0 PUSH1 0x20 DUP8 ADD MLOAD SWAP3 POP PUSH1 0x40 DUP8 ADD MLOAD SWAP2 POP PUSH1 0x60 DUP8 ADD MLOAD PUSH0 BYTE SWAP1 POP DUP1 DUP4 DUP4 SWAP6 POP SWAP6 POP SWAP6 POP POP POP POP SWAP2 SWAP4 SWAP1 SWAP3 POP JUMP JUMPDEST PUSH0 DUP1 PUSH0 SLOAD PUSH2 0x934 DUP8 PUSH2 0x9BB JUMP JUMPDEST PUSH1 0x40 MLOAD PUSH1 0x20 ADD PUSH2 0x945 SWAP3 SWAP2 SWAP1 PUSH2 0x156F JUMP JUMPDEST PUSH1 0x40 MLOAD PUSH1 0x20 DUP2 DUP4 SUB SUB DUP2 MSTORE SWAP1 PUSH1 0x40 MSTORE DUP1 MLOAD SWAP1 PUSH1 0x20 ADD KECCAK256 SWAP1 POP PUSH1 0x1 DUP2 DUP7 DUP7 DUP7 PUSH1 0x40 MLOAD PUSH0 DUP2 MSTORE PUSH1 0x20 ADD PUSH1 0x40 MSTORE PUSH1 0x40 MLOAD PUSH2 0x97F SWAP5 SWAP4 SWAP3 SWAP2 SWAP1 PUSH2 0x15CF JUMP JUMPDEST PUSH1 0x20 PUSH1 0x40 MLOAD PUSH1 0x20 DUP2 SUB SWAP1 DUP1 DUP5 SUB SWAP1 DUP6 GAS STATICCALL ISZERO DUP1 ISZERO PUSH2 0x99F JUMPI RETURNDATASIZE PUSH0 DUP1 RETURNDATACOPY RETURNDATASIZE PUSH0 REVERT JUMPDEST POP POP POP PUSH1 0x20 PUSH1 0x40 MLOAD SUB MLOAD SWAP2 POP POP SWAP5 SWAP4 POP POP POP POP JUMP JUMPDEST PUSH0 CALLER SWAP1 POP SWAP1 JUMP JUMPDEST PUSH0 PUSH32 0xACF5FE31302E000A021505D68F64F59A958ED052954AF199025629C07A5C0912 DUP3 PUSH0 ADD MLOAD DUP1 MLOAD SWAP1 PUSH1 0x20 ADD KECCAK256 DUP4 PUSH1 0x20 ADD MLOAD DUP1 MLOAD SWAP1 PUSH1 0x20 ADD KECCAK256 DUP5 PUSH1 0x40 ADD MLOAD DUP1 MLOAD SWAP1 PUSH1 0x20 ADD KECCAK256 DUP6 PUSH1 0x60 ADD MLOAD DUP7 PUSH1 0x80 ADD MLOAD PUSH1 0x40 MLOAD PUSH1 0x20 ADD PUSH2 0xA1F SWAP7 SWAP6 SWAP5 SWAP4 SWAP3 SWAP2 SWAP1 PUSH2 0x1612 JUMP JUMPDEST PUSH1 0x40 MLOAD PUSH1 0x20 DUP2 DUP4 SUB SUB DUP2 MSTORE SWAP1 PUSH1 0x40 MSTORE DUP1 MLOAD SWAP1 PUSH1 0x20 ADD KECCAK256 SWAP1 POP SWAP2 SWAP1 POP JUMP JUMPDEST PUSH0 DUP2 SWAP1 POP SWAP2 SWAP1 POP JUMP JUMPDEST PUSH2 0xA4E DUP2 PUSH2 0xA3C JUMP JUMPDEST DUP3 MSTORE POP POP JUMP JUMPDEST PUSH0 PUSH1 0x20 DUP3 ADD SWAP1 POP PUSH2 0xA67 PUSH0 DUP4 ADD DUP5 PUSH2 0xA45 JUMP JUMPDEST SWAP3 SWAP2 POP POP JUMP JUMPDEST PUSH0 PUSH1 0x40 MLOAD SWAP1 POP SWAP1 JUMP JUMPDEST PUSH0 DUP1 REVERT JUMPDEST PUSH0 DUP1 REVERT JUMPDEST PUSH2 0xA87 DUP2 PUSH2 0xA3C JUMP JUMPDEST DUP2 EQ PUSH2 0xA91 JUMPI PUSH0 DUP1 REVERT JUMPDEST POP JUMP JUMPDEST PUSH0 DUP2 CALLDATALOAD SWAP1 POP PUSH2 0xAA2 DUP2 PUSH2 0xA7E JUMP JUMPDEST SWAP3 SWAP2 POP POP JUMP JUMPDEST PUSH0 PUSH1 0x20 DUP3 DUP5 SUB SLT ISZERO PUSH2 0xABD JUMPI PUSH2 0xABC PUSH2 0xA76 JUMP JUMPDEST JUMPDEST PUSH0 PUSH2 0xACA DUP5 DUP3 DUP6 ADD PUSH2 0xA94 JUMP JUMPDEST SWAP2 POP POP SWAP3 SWAP2 POP POP JUMP JUMPDEST PUSH0 DUP2 MLOAD SWAP1 POP SWAP2 SWAP1 POP JUMP JUMPDEST PUSH0 DUP3 DUP3 MSTORE PUSH1 0x20 DUP3 ADD SWAP1 POP SWAP3 SWAP2 POP POP JUMP JUMPDEST PUSH0 JUMPDEST DUP4 DUP2 LT ISZERO PUSH2 0xB0A JUMPI DUP1 DUP3 ADD MLOAD DUP2 DUP5 ADD MSTORE PUSH1 0x20 DUP2 ADD SWAP1 POP PUSH2 0xAEF JUMP JUMPDEST PUSH0 DUP5 DUP5 ADD MSTORE POP POP POP POP JUMP JUMPDEST PUSH0 PUSH1 0x1F NOT PUSH1 0x1F DUP4 ADD AND SWAP1 POP SWAP2 SWAP1 POP JUMP JUMPDEST PUSH0 PUSH2 0xB2F DUP3 PUSH2 0xAD3 JUMP JUMPDEST PUSH2 0xB39 DUP2 DUP6 PUSH2 0xADD JUMP JUMPDEST SWAP4 POP PUSH2 0xB49 DUP2 DUP6 PUSH1 0x20 DUP7 ADD PUSH2 0xAED JUMP JUMPDEST PUSH2 0xB52 DUP2 PUSH2 0xB15 JUMP JUMPDEST DUP5 ADD SWAP2 POP POP SWAP3 SWAP2 POP POP JUMP JUMPDEST PUSH0 PUSH1 0xA0 DUP3 ADD SWAP1 POP DUP2 DUP2 SUB PUSH0 DUP4 ADD MSTORE PUSH2 0xB75 DUP2 DUP9 PUSH2 0xB25 JUMP JUMPDEST SWAP1 POP DUP2 DUP2 SUB PUSH1 0x20 DUP4 ADD MSTORE PUSH2 0xB89 DUP2 DUP8 PUSH2 0xB25 JUMP JUMPDEST SWAP1 POP DUP2 DUP2 SUB PUSH1 0x40 DUP4 ADD MSTORE PUSH2 0xB9D DUP2 DUP7 PUSH2 0xB25 JUMP JUMPDEST SWAP1 POP PUSH2 0xBAC PUSH1 0x60 DUP4 ADD DUP6 PUSH2 0xA45 JUMP JUMPDEST PUSH2 0xBB9 PUSH1 0x80 DUP4 ADD DUP5 PUSH2 0xA45 JUMP JUMPDEST SWAP7 SWAP6 POP POP POP POP POP POP JUMP JUMPDEST PUSH0 PUSH20 0xFFFFFFFFFFFFFFFFFFFFFFFFFFFFFFFFFFFFFFFF DUP3 AND SWAP1 POP SWAP2 SWAP1 POP JUMP JUMPDEST PUSH0 PUSH2 0xBEC DUP3 PUSH2 0xBC3 JUMP JUMPDEST SWAP1 POP SWAP2 SWAP1 POP JUMP JUMPDEST PUSH2 0xBFC DUP2 PUSH2 0xBE2 JUMP JUMPDEST DUP2 EQ PUSH2 0xC06 JUMPI PUSH0 DUP1 REVERT JUMPDEST POP JUMP JUMPDEST PUSH0 DUP2 CALLDATALOAD SWAP1 POP PUSH2 0xC17 DUP2 PUSH2 0xBF3 JUMP JUMPDEST SWAP3 SWAP2 POP POP JUMP JUMPDEST PUSH0 PUSH1 0x20 DUP3 DUP5 SUB SLT ISZERO PUSH2 0xC32 JUMPI PUSH2 0xC31 PUSH2 0xA76 JUMP JUMPDEST JUMPDEST PUSH0 PUSH2 0xC3F DUP5 DUP3 DUP6 ADD PUSH2 0xC09 JUMP JUMPDEST SWAP2 POP POP SWAP3 SWAP2 POP POP JUMP JUMPDEST PUSH2 0xC51 DUP2 PUSH2 0xBE2 JUMP JUMPDEST DUP3 MSTORE POP POP JUMP JUMPDEST PUSH0 PUSH1 0x20 DUP3 ADD SWAP1 POP PUSH2 0xC6A PUSH0 DUP4 ADD DUP5 PUSH2 0xC48 JUMP JUMPDEST SWAP3 SWAP2 POP POP JUMP JUMPDEST PUSH0 DUP1 REVERT JUMPDEST PUSH0 DUP1 REVERT JUMPDEST PUSH32 0x4E487B7100000000000000000000000000000000000000000000000000000000 PUSH0 MSTORE PUSH1 0x41 PUSH1 0x4 MSTORE PUSH1 0x24 PUSH0 REVERT JUMPDEST PUSH2 0xCAE DUP3 PUSH2 0xB15 JUMP JUMPDEST DUP2 ADD DUP2 DUP2 LT PUSH8 0xFFFFFFFFFFFFFFFF DUP3 GT OR ISZERO PUSH2 0xCCD JUMPI PUSH2 0xCCC PUSH2 0xC78 JUMP JUMPDEST JUMPDEST DUP1 PUSH1 0x40 MSTORE POP POP POP JUMP JUMPDEST PUSH0 PUSH2 0xCDF PUSH2 0xA6D JUMP JUMPDEST SWAP1 POP PUSH2 0xCEB DUP3 DUP3 PUSH2 0xCA5 JUMP JUMPDEST SWAP2 SWAP1 POP JUMP JUMPDEST PUSH0 PUSH8 0xFFFFFFFFFFFFFFFF DUP3 GT ISZERO PUSH2 0xD0A JUMPI PUSH2 0xD09 PUSH2 0xC78 JUMP JUMPDEST JUMPDEST PUSH2 0xD13 DUP3 PUSH2 0xB15 JUMP JUMPDEST SWAP1 POP PUSH1 0x20 DUP2 ADD SWAP1 POP SWAP2 SWAP1 POP JUMP JUMPDEST DUP3 DUP2 DUP4 CALLDATACOPY PUSH0 DUP4 DUP4 ADD MSTORE POP POP POP JUMP JUMPDEST PUSH0 PUSH2 0xD40 PUSH2 0xD3B DUP5 PUSH2 0xCF0 JUMP JUMPDEST PUSH2 0xCD6 JUMP JUMPDEST SWAP1 POP DUP3 DUP2 MSTORE PUSH1 0x20 DUP2 ADD DUP5 DUP5 DUP5 ADD GT ISZERO PUSH2 0xD5C JUMPI PUSH2 0xD5B PUSH2 0xC74 JUMP JUMPDEST JUMPDEST PUSH2 0xD67 DUP5 DUP3 DUP6 PUSH2 0xD20 JUMP JUMPDEST POP SWAP4 SWAP3 POP POP POP JUMP JUMPDEST PUSH0 DUP3 PUSH1 0x1F DUP4 ADD SLT PUSH2 0xD83 JUMPI PUSH2 0xD82 PUSH2 0xC70 JUMP JUMPDEST JUMPDEST DUP2 CALLDATALOAD PUSH2 0xD93 DUP5 DUP3 PUSH1 0x20 DUP7 ADD PUSH2 0xD2E JUMP JUMPDEST SWAP2 POP POP SWAP3 SWAP2 POP POP JUMP JUMPDEST PUSH0 PUSH8 0xFFFFFFFFFFFFFFFF DUP3 GT ISZERO PUSH2 0xDB6 JUMPI PUSH2 0xDB5 PUSH2 0xC78 JUMP JUMPDEST JUMPDEST PUSH2 0xDBF DUP3 PUSH2 0xB15 JUMP JUMPDEST SWAP1 POP PUSH1 0x20 DUP2 ADD SWAP1 POP SWAP2 SWAP1 POP JUMP JUMPDEST PUSH0 PUSH2 0xDDE PUSH2 0xDD9 DUP5 PUSH2 0xD9C JUMP JUMPDEST PUSH2 0xCD6 JUMP JUMPDEST SWAP1 POP DUP3 DUP2 MSTORE PUSH1 0x20 DUP2 ADD DUP5 DUP5 DUP5 ADD GT ISZERO PUSH2 0xDFA JUMPI PUSH2 0xDF9 PUSH2 0xC74 JUMP JUMPDEST JUMPDEST PUSH2 0xE05 DUP5 DUP3 DUP6 PUSH2 0xD20 JUMP JUMPDEST POP SWAP4 SWAP3 POP POP POP JUMP JUMPDEST PUSH0 DUP3 PUSH1 0x1F DUP4 ADD SLT PUSH2 0xE21 JUMPI PUSH2 0xE20 PUSH2 0xC70 JUMP JUMPDEST JUMPDEST DUP2 CALLDATALOAD PUSH2 0xE31 DUP5 DUP3 PUSH1 0x20 DUP7 ADD PUSH2 0xDCC JUMP JUMPDEST SWAP2 POP POP SWAP3 SWAP2 POP POP JUMP JUMPDEST PUSH0 DUP1 PUSH0 DUP1 PUSH0 DUP1 PUSH1 0xC0 DUP8 DUP10 SUB SLT ISZERO PUSH2 0xE54 JUMPI PUSH2 0xE53 PUSH2 0xA76 JUMP JUMPDEST JUMPDEST PUSH0 DUP8 ADD CALLDATALOAD PUSH8 0xFFFFFFFFFFFFFFFF DUP2 GT ISZERO PUSH2 0xE71 JUMPI PUSH2 0xE70 PUSH2 0xA7A JUMP JUMPDEST JUMPDEST PUSH2 0xE7D DUP10 DUP3 DUP11 ADD PUSH2 0xD6F JUMP JUMPDEST SWAP7 POP POP PUSH1 0x20 DUP8 ADD CALLDATALOAD PUSH8 0xFFFFFFFFFFFFFFFF DUP2 GT ISZERO PUSH2 0xE9E JUMPI PUSH2 0xE9D PUSH2 0xA7A JUMP JUMPDEST JUMPDEST PUSH2 0xEAA DUP10 DUP3 DUP11 ADD PUSH2 0xD6F JUMP JUMPDEST SWAP6 POP POP PUSH1 0x40 DUP8 ADD CALLDATALOAD PUSH8 0xFFFFFFFFFFFFFFFF DUP2 GT ISZERO PUSH2 0xECB JUMPI PUSH2 0xECA PUSH2 0xA7A JUMP JUMPDEST JUMPDEST PUSH2 0xED7 DUP10 DUP3 DUP11 ADD PUSH2 0xD6F JUMP JUMPDEST SWAP5 POP POP PUSH1 0x60 PUSH2 0xEE8 DUP10 DUP3 DUP11 ADD PUSH2 0xA94 JUMP JUMPDEST SWAP4 POP POP PUSH1 0x80 PUSH2 0xEF9 DUP10 DUP3 DUP11 ADD PUSH2 0xA94 JUMP JUMPDEST SWAP3 POP POP PUSH1 0xA0 DUP8 ADD CALLDATALOAD PUSH8 0xFFFFFFFFFFFFFFFF DUP2 GT ISZERO PUSH2 0xF1A JUMPI PUSH2 0xF19 PUSH2 0xA7A JUMP JUMPDEST JUMPDEST PUSH2 0xF26 DUP10 DUP3 DUP11 ADD PUSH2 0xE0D JUMP JUMPDEST SWAP2 POP POP SWAP3 SWAP6 POP SWAP3 SWAP6 POP SWAP3 SWAP6 JUMP JUMPDEST PUSH32 0x4E487B7100000000000000000000000000000000000000000000000000000000 PUSH0 MSTORE PUSH1 0x22 PUSH1 0x4 MSTORE PUSH1 0x24 PUSH0 REVERT JUMPDEST PUSH0 PUSH1 0x2 DUP3 DIV SWAP1 POP PUSH1 0x1 DUP3 AND DUP1 PUSH2 0xF77 JUMPI PUSH1 0x7F DUP3 AND SWAP2 POP JUMPDEST PUSH1 0x20 DUP3 LT DUP2 SUB PUSH2 0xF8A JUMPI PUSH2 0xF89 PUSH2 0xF33 JUMP JUMPDEST JUMPDEST POP SWAP2 SWAP1 POP JUMP JUMPDEST PUSH32 0x496E76616C6964207369676E6174757265000000000000000000000000000000 PUSH0 DUP3 ADD MSTORE POP JUMP JUMPDEST PUSH0 PUSH2 0xFC4 PUSH1 0x11 DUP4 PUSH2 0xADD JUMP JUMPDEST SWAP2 POP PUSH2 0xFCF DUP3 PUSH2 0xF90 JUMP JUMPDEST PUSH1 0x20 DUP3 ADD SWAP1 POP SWAP2 SWAP1 POP JUMP JUMPDEST PUSH0 PUSH1 0x20 DUP3 ADD SWAP1 POP DUP2 DUP2 SUB PUSH0 DUP4 ADD MSTORE PUSH2 0xFF1 DUP2 PUSH2 0xFB8 JUMP JUMPDEST SWAP1 POP SWAP2 SWAP1 POP JUMP JUMPDEST PUSH32 0x696E76616C696420746965720000000000000000000000000000000000000000 PUSH0 DUP3 ADD MSTORE POP JUMP JUMPDEST PUSH0 PUSH2 0x102C PUSH1 0xC DUP4 PUSH2 0xADD JUMP JUMPDEST SWAP2 POP PUSH2 0x1037 DUP3 PUSH2 0xFF8 JUMP JUMPDEST PUSH1 0x20 DUP3 ADD SWAP1 POP SWAP2 SWAP1 POP JUMP JUMPDEST PUSH0 PUSH1 0x20 DUP3 ADD SWAP1 POP DUP2 DUP2 SUB PUSH0 DUP4 ADD MSTORE PUSH2 0x1059 DUP2 PUSH2 0x1020 JUMP JUMPDEST SWAP1 POP SWAP2 SWAP1 POP JUMP JUMPDEST PUSH32 0x696E636F7265637420707269636520666F722074696572000000000000000000 PUSH0 DUP3 ADD MSTORE POP JUMP JUMPDEST PUSH0 PUSH2 0x1094 PUSH1 0x17 DUP4 PUSH2 0xADD JUMP JUMPDEST SWAP2 POP PUSH2 0x109F DUP3 PUSH2 0x1060 JUMP JUMPDEST PUSH1 0x20 DUP3 ADD SWAP1 POP SWAP2 SWAP1 POP JUMP JUMPDEST PUSH0 PUSH1 0x20 DUP3 ADD SWAP1 POP DUP2 DUP2 SUB PUSH0 DUP4 ADD MSTORE PUSH2 0x10C1 DUP2 PUSH2 0x1088 JUMP JUMPDEST SWAP1 POP SWAP2 SWAP1 POP JUMP JUMPDEST PUSH32 0x70617373656420646561646C696E650000000000000000000000000000000000 PUSH0 DUP3 ADD MSTORE POP JUMP JUMPDEST PUSH0 PUSH2 0x10FC PUSH1 0xF DUP4 PUSH2 0xADD JUMP JUMPDEST SWAP2 POP PUSH2 0x1107 DUP3 PUSH2 0x10C8 JUMP JUMPDEST PUSH1 0x20 DUP3 ADD SWAP1 POP SWAP2 SWAP1 POP JUMP JUMPDEST PUSH0 PUSH1 0x20 DUP3 ADD SWAP1 POP DUP2 DUP2 SUB PUSH0 DUP4 ADD MSTORE PUSH2 0x1129 DUP2 PUSH2 0x10F0 JUMP JUMPDEST SWAP1 POP SWAP2 SWAP1 POP JUMP JUMPDEST PUSH32 0x4E487B7100000000000000000000000000000000000000000000000000000000 PUSH0 MSTORE PUSH1 0x11 PUSH1 0x4 MSTORE PUSH1 0x24 PUSH0 REVERT JUMPDEST PUSH0 PUSH2 0x1167 DUP3 PUSH2 0xA3C JUMP JUMPDEST SWAP2 POP PUSH2 0x1172 DUP4 PUSH2 0xA3C JUMP JUMPDEST SWAP3 POP DUP3 DUP3 ADD SWAP1 POP DUP1 DUP3 GT ISZERO PUSH2 0x118A JUMPI PUSH2 0x1189 PUSH2 0x1130 JUMP JUMPDEST JUMPDEST SWAP3 SWAP2 POP POP JUMP JUMPDEST PUSH0 DUP2 SWAP1 POP DUP2 PUSH0 MSTORE PUSH1 0x20 PUSH0 KECCAK256 SWAP1 POP SWAP2 SWAP1 POP JUMP JUMPDEST PUSH0 PUSH1 0x20 PUSH1 0x1F DUP4 ADD DIV SWAP1 POP SWAP2 SWAP1 POP JUMP JUMPDEST PUSH0 DUP3 DUP3 SHL SWAP1 POP SWAP3 SWAP2 POP POP JUMP JUMPDEST PUSH0 PUSH1 0x8 DUP4 MUL PUSH2 0x11EC PUSH32 0xFFFFFFFFFFFFFFFFFFFFFFFFFFFFFFFFFFFFFFFFFFFFFFFFFFFFFFFFFFFFFFFF DUP3 PUSH2 0x11B1 JUMP JUMPDEST PUSH2 0x11F6 DUP7 DUP4 PUSH2 0x11B1 JUMP JUMPDEST SWAP6 POP DUP1 NOT DUP5 AND SWAP4 POP DUP1 DUP7 AND DUP5 OR SWAP3 POP POP POP SWAP4 SWAP3 POP POP POP JUMP JUMPDEST PUSH0 DUP2 SWAP1 POP SWAP2 SWAP1 POP JUMP JUMPDEST PUSH0 PUSH2 0x1231 PUSH2 0x122C PUSH2 0x1227 DUP5 PUSH2 0xA3C JUMP JUMPDEST PUSH2 0x120E JUMP JUMPDEST PUSH2 0xA3C JUMP JUMPDEST SWAP1 POP SWAP2 SWAP1 POP JUMP JUMPDEST PUSH0 DUP2 SWAP1 POP SWAP2 SWAP1 POP JUMP JUMPDEST PUSH2 0x124A DUP4 PUSH2 0x1217 JUMP JUMPDEST PUSH2 0x125E PUSH2 0x1256 DUP3 PUSH2 0x1238 JUMP JUMPDEST DUP5 DUP5 SLOAD PUSH2 0x11BD JUMP JUMPDEST DUP3 SSTORE POP POP POP POP JUMP JUMPDEST PUSH0 SWAP1 JUMP JUMPDEST PUSH2 0x1272 PUSH2 0x1266 JUMP JUMPDEST PUSH2 0x127D DUP2 DUP5 DUP5 PUSH2 0x1241 JUMP JUMPDEST POP POP POP JUMP JUMPDEST JUMPDEST DUP2 DUP2 LT ISZERO PUSH2 0x12A0 JUMPI PUSH2 0x1295 PUSH0 DUP3 PUSH2 0x126A JUMP JUMPDEST PUSH1 0x1 DUP2 ADD SWAP1 POP PUSH2 0x1283 JUMP JUMPDEST POP POP JUMP JUMPDEST PUSH1 0x1F DUP3 GT ISZERO PUSH2 0x12E5 JUMPI PUSH2 0x12B6 DUP2 PUSH2 0x1190 JUMP JUMPDEST PUSH2 0x12BF DUP5 PUSH2 0x11A2 JUMP JUMPDEST DUP2 ADD PUSH1 0x20 DUP6 LT ISZERO PUSH2 0x12CE JUMPI DUP2 SWAP1 POP JUMPDEST PUSH2 0x12E2 PUSH2 0x12DA DUP6 PUSH2 0x11A2 JUMP JUMPDEST DUP4 ADD DUP3 PUSH2 0x1282 JUMP JUMPDEST POP POP JUMPDEST POP POP POP JUMP JUMPDEST PUSH0 DUP3 DUP3 SHR SWAP1 POP SWAP3 SWAP2 POP POP JUMP JUMPDEST PUSH0 PUSH2 0x1305 PUSH0 NOT DUP5 PUSH1 0x8 MUL PUSH2 0x12EA JUMP JUMPDEST NOT DUP1 DUP4 AND SWAP2 POP POP SWAP3 SWAP2 POP POP JUMP JUMPDEST PUSH0 PUSH2 0x131D DUP4 DUP4 PUSH2 0x12F6 JUMP JUMPDEST SWAP2 POP DUP3 PUSH1 0x2 MUL DUP3 OR SWAP1 POP SWAP3 SWAP2 POP POP JUMP JUMPDEST PUSH2 0x1336 DUP3 PUSH2 0xAD3 JUMP JUMPDEST PUSH8 0xFFFFFFFFFFFFFFFF DUP2 GT ISZERO PUSH2 0x134F JUMPI PUSH2 0x134E PUSH2 0xC78 JUMP JUMPDEST JUMPDEST PUSH2 0x1359 DUP3 SLOAD PUSH2 0xF60 JUMP JUMPDEST PUSH2 0x1364 DUP3 DUP3 DUP6 PUSH2 0x12A4 JUMP JUMPDEST PUSH0 PUSH1 0x20 SWAP1 POP PUSH1 0x1F DUP4 GT PUSH1 0x1 DUP2 EQ PUSH2 0x1395 JUMPI PUSH0 DUP5 ISZERO PUSH2 0x1383 JUMPI DUP3 DUP8 ADD MLOAD SWAP1 POP JUMPDEST PUSH2 0x138D DUP6 DUP3 PUSH2 0x1312 JUMP JUMPDEST DUP7 SSTORE POP PUSH2 0x13F4 JUMP JUMPDEST PUSH1 0x1F NOT DUP5 AND PUSH2 0x13A3 DUP7 PUSH2 0x1190 JUMP JUMPDEST PUSH0 JUMPDEST DUP3 DUP2 LT ISZERO PUSH2 0x13CA JUMPI DUP5 DUP10 ADD MLOAD DUP3 SSTORE PUSH1 0x1 DUP3 ADD SWAP2 POP PUSH1 0x20 DUP6 ADD SWAP5 POP PUSH1 0x20 DUP2 ADD SWAP1 POP PUSH2 0x13A5 JUMP JUMPDEST DUP7 DUP4 LT ISZERO PUSH2 0x13E7 JUMPI DUP5 DUP10 ADD MLOAD PUSH2 0x13E3 PUSH1 0x1F DUP10 AND DUP3 PUSH2 0x12F6 JUMP JUMPDEST DUP4 SSTORE POP JUMPDEST PUSH1 0x1 PUSH1 0x2 DUP9 MUL ADD DUP9 SSTORE POP POP POP JUMPDEST POP POP POP POP POP POP JUMP JUMPDEST PUSH32 0x4F776E61626C653A206E6577206F776E657220697320746865207A65726F2061 PUSH0 DUP3 ADD MSTORE PUSH32 0x6464726573730000000000000000000000000000000000000000000000000000 PUSH1 0x20 DUP3 ADD MSTORE POP JUMP JUMPDEST PUSH0 PUSH2 0x1456 PUSH1 0x26 DUP4 PUSH2 0xADD JUMP JUMPDEST SWAP2 POP PUSH2 0x1461 DUP3 PUSH2 0x13FC JUMP JUMPDEST PUSH1 0x40 DUP3 ADD SWAP1 POP SWAP2 SWAP1 POP JUMP JUMPDEST PUSH0 PUSH1 0x20 DUP3 ADD SWAP1 POP DUP2 DUP2 SUB PUSH0 DUP4 ADD MSTORE PUSH2 0x1483 DUP2 PUSH2 0x144A JUMP JUMPDEST SWAP1 POP SWAP2 SWAP1 POP JUMP JUMPDEST PUSH32 0x4F776E61626C653A2063616C6C6572206973206E6F7420746865206F776E6572 PUSH0 DUP3 ADD MSTORE POP JUMP JUMPDEST PUSH0 PUSH2 0x14BE PUSH1 0x20 DUP4 PUSH2 0xADD JUMP JUMPDEST SWAP2 POP PUSH2 0x14C9 DUP3 PUSH2 0x148A JUMP JUMPDEST PUSH1 0x20 DUP3 ADD SWAP1 POP SWAP2 SWAP1 POP JUMP JUMPDEST PUSH0 PUSH1 0x20 DUP3 ADD SWAP1 POP DUP2 DUP2 SUB PUSH0 DUP4 ADD MSTORE PUSH2 0x14EB DUP2 PUSH2 0x14B2 JUMP JUMPDEST SWAP1 POP SWAP2 SWAP1 POP JUMP JUMPDEST PUSH0 DUP2 SWAP1 POP SWAP3 SWAP2 POP POP JUMP JUMPDEST PUSH32 0x1901000000000000000000000000000000000000000000000000000000000000 PUSH0 DUP3 ADD MSTORE POP JUMP JUMPDEST PUSH0 PUSH2 0x1530 PUSH1 0x2 DUP4 PUSH2 0x14F2 JUMP JUMPDEST SWAP2 POP PUSH2 0x153B DUP3 PUSH2 0x14FC JUMP JUMPDEST PUSH1 0x2 DUP3 ADD SWAP1 POP SWAP2 SWAP1 POP JUMP JUMPDEST PUSH0 DUP2 SWAP1 POP SWAP2 SWAP1 POP JUMP JUMPDEST PUSH0 DUP2 SWAP1 POP SWAP2 SWAP1 POP JUMP JUMPDEST PUSH2 0x1569 PUSH2 0x1564 DUP3 PUSH2 0x1546 JUMP JUMPDEST PUSH2 0x154F JUMP JUMPDEST DUP3 MSTORE POP POP JUMP JUMPDEST PUSH0 PUSH2 0x1579 DUP3 PUSH2 0x1524 JUMP JUMPDEST SWAP2 POP PUSH2 0x1585 DUP3 DUP6 PUSH2 0x1558 JUMP JUMPDEST PUSH1 0x20 DUP3 ADD SWAP2 POP PUSH2 0x1595 DUP3 DUP5 PUSH2 0x1558 JUMP JUMPDEST PUSH1 0x20 DUP3 ADD SWAP2 POP DUP2 SWAP1 POP SWAP4 SWAP3 POP POP POP JUMP JUMPDEST PUSH2 0x15AE DUP2 PUSH2 0x1546 JUMP JUMPDEST DUP3 MSTORE POP POP JUMP JUMPDEST PUSH0 PUSH1 0xFF DUP3 AND SWAP1 POP SWAP2 SWAP1 POP JUMP JUMPDEST PUSH2 0x15C9 DUP2 PUSH2 0x15B4 JUMP JUMPDEST DUP3 MSTORE POP POP JUMP JUMPDEST PUSH0 PUSH1 0x80 DUP3 ADD SWAP1 POP PUSH2 0x15E2 PUSH0 DUP4 ADD DUP8 PUSH2 0x15A5 JUMP JUMPDEST PUSH2 0x15EF PUSH1 0x20 DUP4 ADD DUP7 PUSH2 0x15C0 JUMP JUMPDEST PUSH2 0x15FC PUSH1 0x40 DUP4 ADD DUP6 PUSH2 0x15A5 JUMP JUMPDEST PUSH2 0x1609 PUSH1 0x60 DUP4 ADD DUP5 PUSH2 0x15A5 JUMP JUMPDEST SWAP6 SWAP5 POP POP POP POP POP JUMP JUMPDEST PUSH0 PUSH1 0xC0 DUP3 ADD SWAP1 POP PUSH2 0x1625 PUSH0 DUP4 ADD DUP10 PUSH2 0x15A5 JUMP JUMPDEST PUSH2 0x1632 PUSH1 0x20 DUP4 ADD DUP9 PUSH2 0x15A5 JUMP JUMPDEST PUSH2 0x163F PUSH1 0x40 DUP4 ADD DUP8 PUSH2 0x15A5 JUMP JUMPDEST PUSH2 0x164C PUSH1 0x60 DUP4 ADD DUP7 PUSH2 0x15A5 JUMP JUMPDEST PUSH2 0x1659 PUSH1 0x80 DUP4 ADD DUP6 PUSH2 0xA45 JUMP JUMPDEST PUSH2 0x1666 PUSH1 0xA0 DUP4 ADD DUP5 PUSH2 0xA45 JUMP JUMPDEST SWAP8 SWAP7 POP POP POP POP POP POP POP JUMP INVALID LOG2 PUSH5 0x6970667358 0x22 SLT KECCAK256 PUSH8 0x432F9CB1D35D79DB 0xB2 DUP4 0xCD BASEFEE 0xC3 0x4C SHR SWAP1 PUSH30 0xC69ECD6698817AE67610A5823E8F64736F6C634300081400330000000000 "},"methodIdentifiers":{"_getChainId()":"02346b05","frensTrust(address)":"72e09af2","messages(uint256)":"0d80fefd","owner()":"8da5cb5b","renounceOwnership()":"715018a6","submitMessage(string,string,string,uint256,uint256,bytes)":"baed55e8","tierPrice(uint256)":"826d3379","transferOwnership(address)":"f2fde38b","validateMessage(string,string,string,uint256,uint256,bytes)":"fa09da07"}}}}}