{"contracts/WWW3Shares.sol":{"WWW3Shares":{"abi":[{"inputs":[{"internalType":"string","name":"_name","type":"string"},{"internalType":"string","name":"_symbol","type":"string"},{"internalType":"uint256","name":"_maxAmountOfShares","type":"uint256"},{"internalType":"uint256","name":"_sharePrice","type":"uint256"},{"internalType":"uint256","name":"_privateSellAmount","type":"uint256"},{"internalType":"uint256","name":"_vestingPeriod","type":"uint256"}],"stateMutability":"nonpayable","type":"constructor"},{"anonymous":false,"inputs":[{"indexed":true,"internalType":"address","name":"owner","type":"address"},{"indexed":true,"internalType":"address","name":"spender","type":"address"},{"indexed":false,"internalType":"uint256","name":"value","type":"uint256"}],"name":"Approval","type":"event"},{"anonymous":false,"inputs":[{"indexed":true,"internalType":"address","name":"previousOwner","type":"address"},{"indexed":true,"internalType":"address","name":"newOwner","type":"address"}],"name":"OwnershipTransferred","type":"event"},{"anonymous":false,"inputs":[{"indexed":false,"internalType":"address","name":"to","type":"address"},{"indexed":false,"internalType":"uint256","name":"amount","type":"uint256"}],"name":"ShareMinted","type":"event"},{"anonymous":false,"inputs":[{"indexed":false,"internalType":"address","name":"to","type":"address"},{"indexed":false,"internalType":"uint256","name":"amount","type":"uint256"}],"name":"ShareSold","type":"event"},{"anonymous":false,"inputs":[{"indexed":true,"internalType":"address","name":"from","type":"address"},{"indexed":true,"internalType":"address","name":"to","type":"address"},{"indexed":false,"internalType":"uint256","name":"value","type":"uint256"}],"name":"Transfer","type":"event"},{"inputs":[{"internalType":"address","name":"owner","type":"address"},{"internalType":"address","name":"spender","type":"address"}],"name":"allowance","outputs":[{"internalType":"uint256","name":"","type":"uint256"}],"stateMutability":"view","type":"function"},{"inputs":[{"internalType":"address","name":"spender","type":"address"},{"internalType":"uint256","name":"amount","type":"uint256"}],"name":"approve","outputs":[{"internalType":"bool","name":"","type":"bool"}],"stateMutability":"nonpayable","type":"function"},{"inputs":[{"internalType":"address","name":"account","type":"address"}],"name":"balanceOf","outputs":[{"internalType":"uint256","name":"","type":"uint256"}],"stateMutability":"view","type":"function"},{"inputs":[{"internalType":"uint256","name":"amount","type":"uint256"}],"name":"buyShares","outputs":[],"stateMutability":"payable","type":"function"},{"inputs":[],"name":"currentShareValue","outputs":[{"internalType":"uint256","name":"","type":"uint256"}],"stateMutability":"view","type":"function"},{"inputs":[],"name":"decimals","outputs":[{"internalType":"uint8","name":"","type":"uint8"}],"stateMutability":"view","type":"function"},{"inputs":[{"internalType":"address","name":"spender","type":"address"},{"internalType":"uint256","name":"subtractedValue","type":"uint256"}],"name":"decreaseAllowance","outputs":[{"internalType":"bool","name":"","type":"bool"}],"stateMutability":"nonpayable","type":"function"},{"inputs":[],"name":"developer","outputs":[{"internalType":"address payable","name":"","type":"address"}],"stateMutability":"view","type":"function"},{"inputs":[{"internalType":"address","name":"spender","type":"address"},{"internalType":"uint256","name":"addedValue","type":"uint256"}],"name":"increaseAllowance","outputs":[{"internalType":"bool","name":"","type":"bool"}],"stateMutability":"nonpayable","type":"function"},{"inputs":[],"name":"initialSharePrice","outputs":[{"internalType":"uint256","name":"","type":"uint256"}],"stateMutability":"view","type":"function"},{"inputs":[],"name":"maxAmountOfShares","outputs":[{"internalType":"uint256","name":"","type":"uint256"}],"stateMutability":"view","type":"function"},{"inputs":[],"name":"name","outputs":[{"internalType":"string","name":"","type":"string"}],"stateMutability":"view","type":"function"},{"inputs":[],"name":"owner","outputs":[{"internalType":"address","name":"","type":"address"}],"stateMutability":"view","type":"function"},{"inputs":[],"name":"renounceOwnership","outputs":[],"stateMutability":"nonpayable","type":"function"},{"inputs":[{"internalType":"uint256","name":"amount","type":"uint256"}],"name":"sellShares","outputs":[],"stateMutability":"nonpayable","type":"function"},{"inputs":[],"name":"symbol","outputs":[{"internalType":"string","name":"","type":"string"}],"stateMutability":"view","type":"function"},{"inputs":[],"name":"totalSupply","outputs":[{"internalType":"uint256","name":"","type":"uint256"}],"stateMutability":"view","type":"function"},{"inputs":[{"internalType":"address","name":"to","type":"address"},{"internalType":"uint256","name":"amount","type":"uint256"}],"name":"transfer","outputs":[{"internalType":"bool","name":"","type":"bool"}],"stateMutability":"nonpayable","type":"function"},{"inputs":[{"internalType":"address","name":"from","type":"address"},{"internalType":"address","name":"to","type":"address"},{"internalType":"uint256","name":"amount","type":"uint256"}],"name":"transferFrom","outputs":[{"internalType":"bool","name":"","type":"bool"}],"stateMutability":"nonpayable","type":"function"},{"inputs":[{"internalType":"address","name":"newOwner","type":"address"}],"name":"transferOwnership","outputs":[],"stateMutability":"nonpayable","type":"function"},{"inputs":[],"name":"vestingPeriodEnd","outputs":[{"internalType":"uint256","name":"","type":"uint256"}],"stateMutability":"view","type":"function"},{"stateMutability":"payable","type":"receive"}],"evm":{"bytecode":{"linkReferences":{},"object":"60806040523480156200001157600080fd5b5060405162003730380380620037308339818101604052810190620000379190620005fe565b8585620000596200004d620001e960201b60201c565b620001f160201b60201c565b60018081905550816005908162000071919062000919565b50806006908162000083919062000919565b505050620000a267b84f097f01eee54a60c01b620002b560201b60201c565b620000be670bc5cb0a59f947d860c01b620002b560201b60201c565b620000ce620001e960201b60201c565b600760006101000a81548173ffffffffffffffffffffffffffffffffffffffff021916908373ffffffffffffffffffffffffffffffffffffffff1602179055506200012a673e64119099c4287f60c01b620002b560201b60201c565b836008819055506200014d67c52a9c0c14a7b27f60c01b620002b560201b60201c565b82600981905550620001706713240460d64263fb60c01b620002b560201b60201c565b6200018c673d45e25c76e3bbb460c01b620002b560201b60201c565b620001ad620001a0620001e960201b60201c565b83620002b860201b60201c565b620001c96701adfbfe7ad622c560c01b620002b560201b60201c565b8043620001d7919062000a2f565b600a8190555050505050505062000b1b565b600033905090565b60008060009054906101000a900473ffffffffffffffffffffffffffffffffffffffff169050816000806101000a81548173ffffffffffffffffffffffffffffffffffffffff021916908373ffffffffffffffffffffffffffffffffffffffff1602179055508173ffffffffffffffffffffffffffffffffffffffff168173ffffffffffffffffffffffffffffffffffffffff167f8be0079c531659141344cd1fd0a4f28419497f9722a3daafe3b4186f6b6457e060405160405180910390a35050565b50565b600073ffffffffffffffffffffffffffffffffffffffff168273ffffffffffffffffffffffffffffffffffffffff16036200032a576040517f08c379a0000000000000000000000000000000000000000000000000000000008152600401620003219062000acb565b60405180910390fd5b6200033e600083836200042660201b60201c565b806004600082825462000352919062000a2f565b9250508190555080600260008473ffffffffffffffffffffffffffffffffffffffff1673ffffffffffffffffffffffffffffffffffffffff168152602001908152602001600020600082825401925050819055508173ffffffffffffffffffffffffffffffffffffffff16600073ffffffffffffffffffffffffffffffffffffffff167fddf252ad1be2c89b69c2b068fc378daa952ba7f163c4a11628f55a4df523b3ef8360405162000406919062000afe565b60405180910390a362000422600083836200042b60201b60201c565b5050565b505050565b505050565b6000604051905090565b600080fd5b600080fd5b600080fd5b600080fd5b6000601f19601f8301169050919050565b7f4e487b7100000000000000000000000000000000000000000000000000000000600052604160045260246000fd5b62000499826200044e565b810181811067ffffffffffffffff82111715620004bb57620004ba6200045f565b5b80604052505050565b6000620004d062000430565b9050620004de82826200048e565b919050565b600067ffffffffffffffff8211156200050157620005006200045f565b5b6200050c826200044e565b9050602081019050919050565b60005b83811015620005395780820151818401526020810190506200051c565b60008484015250505050565b60006200055c6200055684620004e3565b620004c4565b9050828152602081018484840111156200057b576200057a62000449565b5b6200058884828562000519565b509392505050565b600082601f830112620005a857620005a762000444565b5b8151620005ba84826020860162000545565b91505092915050565b6000819050919050565b620005d881620005c3565b8114620005e457600080fd5b50565b600081519050620005f881620005cd565b92915050565b60008060008060008060c087890312156200061e576200061d6200043a565b5b600087015167ffffffffffffffff8111156200063f576200063e6200043f565b5b6200064d89828a0162000590565b965050602087015167ffffffffffffffff8111156200067157620006706200043f565b5b6200067f89828a0162000590565b95505060406200069289828a01620005e7565b9450506060620006a589828a01620005e7565b9350506080620006b889828a01620005e7565b92505060a0620006cb89828a01620005e7565b9150509295509295509295565b600081519050919050565b7f4e487b7100000000000000000000000000000000000000000000000000000000600052602260045260246000fd5b600060028204905060018216806200072b57607f821691505b602082108103620007415762000740620006e3565b5b50919050565b60008190508160005260206000209050919050565b60006020601f8301049050919050565b600082821b905092915050565b600060088302620007ab7fffffffffffffffffffffffffffffffffffffffffffffffffffffffffffffffff826200076c565b620007b786836200076c565b95508019841693508086168417925050509392505050565b6000819050919050565b6000620007fa620007f4620007ee84620005c3565b620007cf565b620005c3565b9050919050565b6000819050919050565b6200081683620007d9565b6200082e620008258262000801565b84845462000779565b825550505050565b600090565b6200084562000836565b620008528184846200080b565b505050565b5b818110156200087a576200086e6000826200083b565b60018101905062000858565b5050565b601f821115620008c957620008938162000747565b6200089e846200075c565b81016020851015620008ae578190505b620008c6620008bd856200075c565b83018262000857565b50505b505050565b600082821c905092915050565b6000620008ee60001984600802620008ce565b1980831691505092915050565b6000620009098383620008db565b9150826002028217905092915050565b6200092482620006d8565b67ffffffffffffffff81111562000940576200093f6200045f565b5b6200094c825462000712565b620009598282856200087e565b600060209050601f8311600181146200099157600084156200097c578287015190505b620009888582620008fb565b865550620009f8565b601f198416620009a18662000747565b60005b82811015620009cb57848901518255600182019150602085019450602081019050620009a4565b86831015620009eb5784890151620009e7601f891682620008db565b8355505b6001600288020188555050505b505050505050565b7f4e487b7100000000000000000000000000000000000000000000000000000000600052601160045260246000fd5b600062000a3c82620005c3565b915062000a4983620005c3565b925082820190508082111562000a645762000a6362000a00565b5b92915050565b600082825260208201905092915050565b7f45524332303a206d696e7420746f20746865207a65726f206164647265737300600082015250565b600062000ab3601f8362000a6a565b915062000ac08262000a7b565b602082019050919050565b6000602082019050818103600083015262000ae68162000aa4565b9050919050565b62000af881620005c3565b82525050565b600060208201905062000b15600083018462000aed565b92915050565b612c058062000b2b6000396000f3fe60806040526004361061012e5760003560e01c80638da5cb5b116100ab578063aadc68a51161006f578063aadc68a514610415578063ca4b208b14610440578063d1a93d181461046b578063dd62ed3e14610487578063defbbb68146104c4578063f2fde38b146104ef57610135565b80638da5cb5b1461031a57806395d89b41146103455780639e462fc714610370578063a457c2d71461039b578063a9059cbb146103d857610135565b806339509351116100f257806339509351146102355780634ba8ae81146102725780635f3e364a1461029b57806370a08231146102c6578063715018a61461030357610135565b806306fdde031461013a578063095ea7b31461016557806318160ddd146101a257806323b872dd146101cd578063313ce5671461020a57610135565b3661013557005b600080fd5b34801561014657600080fd5b5061014f610518565b60405161015c9190611f5e565b60405180910390f35b34801561017157600080fd5b5061018c60048036038101906101879190612019565b6105aa565b6040516101999190612074565b60405180910390f35b3480156101ae57600080fd5b506101b76105cd565b6040516101c4919061209e565b60405180910390f35b3480156101d957600080fd5b506101f460048036038101906101ef91906120b9565b6105d7565b6040516102019190612074565b60405180910390f35b34801561021657600080fd5b5061021f610606565b60405161022c9190612128565b60405180910390f35b34801561024157600080fd5b5061025c60048036038101906102579190612019565b61060f565b6040516102699190612074565b60405180910390f35b34801561027e57600080fd5b5061029960048036038101906102949190612143565b610646565b005b3480156102a757600080fd5b506102b0610939565b6040516102bd919061209e565b60405180910390f35b3480156102d257600080fd5b506102ed60048036038101906102e89190612170565b61093f565b6040516102fa919061209e565b60405180910390f35b34801561030f57600080fd5b50610318610988565b005b34801561032657600080fd5b5061032f61099c565b60405161033c91906121ac565b60405180910390f35b34801561035157600080fd5b5061035a6109c5565b6040516103679190611f5e565b60405180910390f35b34801561037c57600080fd5b50610385610a57565b604051610392919061209e565b60405180910390f35b3480156103a757600080fd5b506103c260048036038101906103bd9190612019565b610a5d565b6040516103cf9190612074565b60405180910390f35b3480156103e457600080fd5b506103ff60048036038101906103fa9190612019565b610ad4565b60405161040c9190612074565b60405180910390f35b34801561042157600080fd5b5061042a610af7565b604051610437919061209e565b60405180910390f35b34801561044c57600080fd5b50610455610d29565b60405161046291906121e8565b60405180910390f35b61048560048036038101906104809190612143565b610d4f565b005b34801561049357600080fd5b506104ae60048036038101906104a99190612203565b610ec7565b6040516104bb919061209e565b60405180910390f35b3480156104d057600080fd5b506104d9610f4e565b6040516104e6919061209e565b60405180910390f35b3480156104fb57600080fd5b5061051660048036038101906105119190612170565b610f54565b005b60606005805461052790612272565b80601f016020809104026020016040519081016040528092919081815260200182805461055390612272565b80156105a05780601f10610575576101008083540402835291602001916105a0565b820191906000526020600020905b81548152906001019060200180831161058357829003601f168201915b5050505050905090565b6000806105b5610fd7565b90506105c2818585610fdf565b600191505092915050565b6000600454905090565b6000806105e2610fd7565b90506105ef8582856111a8565b6105fa858585611234565b60019150509392505050565b60006012905090565b60008061061a610fd7565b905061063b81858561062c8589610ec7565b61063691906122d2565b610fdf565b600191505092915050565b61065a67cdc016421cd4de3d60c01b6114ad565b6106626114b0565b6106766705acc4e0fcacecd660c01b6114ad565b61068a67ab7796e12ba36b6f60c01b6114ad565b61069e67e65eb23ac1ff0c5360c01b6114ad565b6106b26727f0c926cf482f6a60c01b6114ad565b6106c667b0fa2dc9662b4b1860c01b6114ad565b600a5443101561070b576040517f08c379a000000000000000000000000000000000000000000000000000000000815260040161070290612352565b60405180910390fd5b61071f676bc94b4dca9b475460c01b6114ad565b6107336739fdf7a74eda647d60c01b6114ad565b6107476767db2aa4eda8f74060c01b6114ad565b610759610752610fd7565b30836105d7565b5061076e6794fce0147ed0a7c660c01b6114ad565b61078267fe2055f61204feae60c01b6114ad565b60008161078d610af7565b6107979190612372565b90506107ad672f80d264d5566f0d60c01b6114ad565b6107c1676d50f93635eeb30860c01b6114ad565b60006107cb610fd7565b73ffffffffffffffffffffffffffffffffffffffff16826040516107ee906123e5565b60006040518083038185875af1925050503d806000811461082b576040519150601f19603f3d011682016040523d82523d6000602084013e610830565b606091505b5050905061084867f2b7f4ec58ccc0ab60c01b6114ad565b61085c67b55aa28ad4977d7e60c01b6114ad565b61087067816bc44ae019aff960c01b6114ad565b806108b0576040517f08c379a00000000000000000000000000000000000000000000000000000000081526004016108a790612446565b60405180910390fd5b6108c4676533c43a5681a39760c01b6114ad565b6108d8677cb03c727201159b60c01b6114ad565b6108ec67fa1f9836fcccda8a60c01b6114ad565b7fe8bb4edfb49cb224db3d7d51f707c053865322c038a54cfcfd81969d0eb1f013610915610fd7565b84604051610924929190612466565b60405180910390a150506109366114ff565b50565b60095481565b6000600260008373ffffffffffffffffffffffffffffffffffffffff1673ffffffffffffffffffffffffffffffffffffffff168152602001908152602001600020549050919050565b610990611508565b61099a6000611586565b565b60008060009054906101000a900473ffffffffffffffffffffffffffffffffffffffff16905090565b6060600680546109d490612272565b80601f0160208091040260200160405190810160405280929190818152602001828054610a0090612272565b8015610a4d5780601f10610a2257610100808354040283529160200191610a4d565b820191906000526020600020905b815481529060010190602001808311610a3057829003601f168201915b5050505050905090565b600a5481565b600080610a68610fd7565b90506000610a768286610ec7565b905083811015610abb576040517f08c379a0000000000000000000000000000000000000000000000000000000008152600401610ab290612501565b60405180910390fd5b610ac88286868403610fdf565b60019250505092915050565b600080610adf610fd7565b9050610aec818585611234565b600191505092915050565b6000610b0d67efa8733de7e3e5f660c01b6114ad565b610b216720ae07a6cddb66f960c01b6114ad565b610b3567d415f2c1050a18a160c01b6114ad565b6000610b3f6105cd565b9050610b55676a777ca8da14a61360c01b6114ad565b610b6967e36b3ad0a4cc389f60c01b6114ad565b6000479050610b826724a6db4d2d68bc9060c01b6114ad565b610b966714ac4dd2da8aa60f60c01b6114ad565b600082148015610bb65750610bb56795abf084cb94990f60c01b61164a565b5b80610bdd5750600081148015610bdc5750610bdb67547dc638214f640e60c01b61164a565b5b5b15610c2957610bf667edfa5bdbae6ca41160c01b6114ad565b610c0a67d65c8fd052e108bd60c01b6114ad565b610c1e67d7ecb8e47edcd52560c01b6114ad565b600092505050610d26565b610c3d67f6128c86ce099a0860c01b6114ad565b610c5167866309a08081e04e60c01b6114ad565b610c6567dea7b4edfe9208a060c01b6114ad565b6000670de0b6b3a764000082610c7b9190612372565b9050610c91674b5c6a754db2cc1d60c01b6114ad565b610ca5677a53b924cb36350760c01b6114ad565b60008382610cb39190612550565b9050610cc9677002ead2af4fcfde60c01b6114ad565b610cdd67fae65de420b7867b60c01b6114ad565b6000670de0b6b3a764000082610cf39190612550565b9050610d0967e1089477e72355f560c01b6114ad565b610d1d6747ba7d87ad81859460c01b6114ad565b80955050505050505b90565b600760009054906101000a900473ffffffffffffffffffffffffffffffffffffffff1681565b610d63677e9e5a0c944fe4ed60c01b6114ad565b610d6b6114b0565b610d7f67ae524dd61a733da760c01b6114ad565b610d9367ffc5b77766a3076060c01b6114ad565b610da76713eff80d52d5f5e660c01b6114ad565b610dbb677ea7e83ec04b259d60c01b6114ad565b600a544310610e0e57610dd867b50cd882e83452f760c01b6114ad565b610dec670a69209894108d5960c01b6114ad565b610e00678db482855aab96d860c01b6114ad565b610e0981611655565b610e54565b610e2267c50862bf1477d9b160c01b6114ad565b610e3667a016246c14a47b1460c01b6114ad565b610e4a67e64a3465f86dce1460c01b6114ad565b610e5381611a90565b5b610e686767ab71b14238597660c01b6114ad565b610e7c67621c0fc93300a42a60c01b6114ad565b7f9e3aff002c0bfdb18b77adb1051b53eda74f919ee90e162c2626995e4db8f055610ea5610fd7565b82604051610eb4929190612466565b60405180910390a1610ec46114ff565b50565b6000600360008473ffffffffffffffffffffffffffffffffffffffff1673ffffffffffffffffffffffffffffffffffffffff16815260200190815260200160002060008373ffffffffffffffffffffffffffffffffffffffff1673ffffffffffffffffffffffffffffffffffffffff16815260200190815260200160002054905092915050565b60085481565b610f5c611508565b600073ffffffffffffffffffffffffffffffffffffffff168173ffffffffffffffffffffffffffffffffffffffff1603610fcb576040517f08c379a0000000000000000000000000000000000000000000000000000000008152600401610fc2906125f3565b60405180910390fd5b610fd481611586565b50565b600033905090565b600073ffffffffffffffffffffffffffffffffffffffff168373ffffffffffffffffffffffffffffffffffffffff160361104e576040517f08c379a000000000000000000000000000000000000000000000000000000000815260040161104590612685565b60405180910390fd5b600073ffffffffffffffffffffffffffffffffffffffff168273ffffffffffffffffffffffffffffffffffffffff16036110bd576040517f08c379a00000000000000000000000000000000000000000000000000000000081526004016110b490612717565b60405180910390fd5b80600360008573ffffffffffffffffffffffffffffffffffffffff1673ffffffffffffffffffffffffffffffffffffffff16815260200190815260200160002060008473ffffffffffffffffffffffffffffffffffffffff1673ffffffffffffffffffffffffffffffffffffffff168152602001908152602001600020819055508173ffffffffffffffffffffffffffffffffffffffff168373ffffffffffffffffffffffffffffffffffffffff167f8c5be1e5ebec7d5bd14f71427d1e84f3dd0314c0f7b2291e5b200ac8c7c3b9258360405161119b919061209e565b60405180910390a3505050565b60006111b48484610ec7565b90507fffffffffffffffffffffffffffffffffffffffffffffffffffffffffffffffff811461122e5781811015611220576040517f08c379a000000000000000000000000000000000000000000000000000000000815260040161121790612783565b60405180910390fd5b61122d8484848403610fdf565b5b50505050565b600073ffffffffffffffffffffffffffffffffffffffff168373ffffffffffffffffffffffffffffffffffffffff16036112a3576040517f08c379a000000000000000000000000000000000000000000000000000000000815260040161129a90612815565b60405180910390fd5b600073ffffffffffffffffffffffffffffffffffffffff168273ffffffffffffffffffffffffffffffffffffffff1603611312576040517f08c379a0000000000000000000000000000000000000000000000000000000008152600401611309906128a7565b60405180910390fd5b61131d838383611d6d565b6000600260008573ffffffffffffffffffffffffffffffffffffffff1673ffffffffffffffffffffffffffffffffffffffff168152602001908152602001600020549050818110156113a4576040517f08c379a000000000000000000000000000000000000000000000000000000000815260040161139b90612939565b60405180910390fd5b818103600260008673ffffffffffffffffffffffffffffffffffffffff1673ffffffffffffffffffffffffffffffffffffffff1681526020019081526020016000208190555081600260008573ffffffffffffffffffffffffffffffffffffffff1673ffffffffffffffffffffffffffffffffffffffff168152602001908152602001600020600082825401925050819055508273ffffffffffffffffffffffffffffffffffffffff168473ffffffffffffffffffffffffffffffffffffffff167fddf252ad1be2c89b69c2b068fc378daa952ba7f163c4a11628f55a4df523b3ef84604051611494919061209e565b60405180910390a36114a7848484611d72565b50505050565b50565b6002600154036114f5576040517f08c379a00000000000000000000000000000000000000000000000000000000081526004016114ec906129a5565b60405180910390fd5b6002600181905550565b60018081905550565b611510610fd7565b73ffffffffffffffffffffffffffffffffffffffff1661152e61099c565b73ffffffffffffffffffffffffffffffffffffffff1614611584576040517f08c379a000000000000000000000000000000000000000000000000000000000815260040161157b90612a11565b60405180910390fd5b565b60008060009054906101000a900473ffffffffffffffffffffffffffffffffffffffff169050816000806101000a81548173ffffffffffffffffffffffffffffffffffffffff021916908373ffffffffffffffffffffffffffffffffffffffff1602179055508173ffffffffffffffffffffffffffffffffffffffff168173ffffffffffffffffffffffffffffffffffffffff167f8be0079c531659141344cd1fd0a4f28419497f9722a3daafe3b4186f6b6457e060405160405180910390a35050565b600060019050919050565b61166967ef12509652f7f3a960c01b6114ad565b61167c66e2479d186948b860c01b6114ad565b611690675c571b7dcab4e7e760c01b6114ad565b600061169b3061093f565b90506116b1677f5560c4df39bb4260c01b6114ad565b6116c5673eeb2f5e72f1a46960c01b6114ad565b6116d967528c7727564ab4ad60c01b6114ad565b6116e1610af7565b826116ec9190612372565b341461172d576040517f08c379a000000000000000000000000000000000000000000000000000000000815260040161172490612a7d565b60405180910390fd5b611741674c33e4844b40ec1d60c01b6114ad565b6117556783d75778b22dd59860c01b6114ad565b61176967bbed833745b2299c60c01b6114ad565b60006117736105cd565b6008546117809190612a9d565b8261178b91906122d2565b90506117a1673c77eadc0151470b60c01b6114ad565b6117b5675d4d28da4c0f53e960c01b6114ad565b6117c96792c0be6199ddd77160c01b6114ad565b8083111561180c576040517f08c379a000000000000000000000000000000000000000000000000000000000815260040161180390612b43565b60405180910390fd5b61182067e92c7ab18ba129d660c01b6114ad565b61183467a85c5bb17d8bbd7360c01b6114ad565b61184867a8de51a081cec07160c01b6114ad565b61185c67bba4d1c9f776518d60c01b6114ad565b82611865610af7565b61186f9190612372565b34146118b0576040517f08c379a00000000000000000000000000000000000000000000000000000000081526004016118a790612a7d565b60405180910390fd5b6118c46774d6aec01a1ea41660c01b6114ad565b6118d8670dc4e63bfcae7f8560c01b6114ad565b6118ec67d1f5472c949d0c5260c01b6114ad565b818311611946576119076728be8af9fab6a96860c01b6114ad565b61191b67dcf2756bc266f9bc60c01b6114ad565b61192f67bb327495ab13070c60c01b6114ad565b61194061193a610fd7565b84610ad4565b50611a8b565b61195a67b32001c2f4feeadb60c01b6114ad565b61196e67299519891cde23e660c01b6114ad565b6000821115611a3c5761198b67238172cb93166f8360c01b6114ad565b61199f67c0ea11aa7681df9f60c01b6114ad565b6119b3671c55572f3b8b19c660c01b6114ad565b600082846119c19190612a9d565b90506119d767a09bcc952333a91560c01b6114ad565b6119eb676a00b962365e82ee60c01b6114ad565b6119fc6119f6610fd7565b84610ad4565b50611a11672a2e03f3872b911260c01b6114ad565b611a25670fb5622567e66dc560c01b6114ad565b611a36611a30610fd7565b82611d77565b50611a8a565b611a50675e38604e3581330a60c01b6114ad565b611a646768c22f3a082bb0ee60c01b6114ad565b611a7867b92c68d5d6fd2f6960c01b6114ad565b611a89611a83610fd7565b84611d77565b5b5b505050565b611aa467461458e1f1fc101060c01b6114ad565b611ab867385b300314bf247660c01b6114ad565b611acc67769b4df5a89c9e4760c01b6114ad565b611ae06710b9e63079629c8060c01b6114ad565b60095481611aee9190612372565b3414611b2f576040517f08c379a0000000000000000000000000000000000000000000000000000000008152600401611b2690612a7d565b60405180910390fd5b611b43679ff9b7d2939de6d760c01b6114ad565b611b576705929440d9527eb060c01b6114ad565b611b6b67a342d519069ef7cf60c01b6114ad565b611b7f675d5dea60b4f903d660c01b6114ad565b600854611b8a6105cd565b82611b9591906122d2565b1115611bd6576040517f08c379a0000000000000000000000000000000000000000000000000000000008152600401611bcd90612b43565b60405180910390fd5b611bea6720d685592363554c60c01b6114ad565b611bfe67e744d07dd6599adf60c01b6114ad565b611c1267b51e7b68fb31d17f60c01b6114ad565b611c23611c1d610fd7565b82611d77565b611c3767c9a0aaf68268d4d660c01b6114ad565b611c4b679cec51f03d4a1cbe60c01b6114ad565b6000600760009054906101000a900473ffffffffffffffffffffffffffffffffffffffff1673ffffffffffffffffffffffffffffffffffffffff1634604051611c93906123e5565b60006040518083038185875af1925050503d8060008114611cd0576040519150601f19603f3d011682016040523d82523d6000602084013e611cd5565b606091505b50509050611ced6753bf09370d5bf72d60c01b6114ad565b611d01672edeac71af4f9fb060c01b6114ad565b611d15678971eb0f8bef6e1c60c01b6114ad565b80611d55576040517f08c379a0000000000000000000000000000000000000000000000000000000008152600401611d4c90612446565b60405180910390fd5b611d696762108bf105b6589260c01b6114ad565b5050565b505050565b505050565b600073ffffffffffffffffffffffffffffffffffffffff168273ffffffffffffffffffffffffffffffffffffffff1603611de6576040517f08c379a0000000000000000000000000000000000000000000000000000000008152600401611ddd90612baf565b60405180910390fd5b611df260008383611d6d565b8060046000828254611e0491906122d2565b9250508190555080600260008473ffffffffffffffffffffffffffffffffffffffff1673ffffffffffffffffffffffffffffffffffffffff168152602001908152602001600020600082825401925050819055508173ffffffffffffffffffffffffffffffffffffffff16600073ffffffffffffffffffffffffffffffffffffffff167fddf252ad1be2c89b69c2b068fc378daa952ba7f163c4a11628f55a4df523b3ef83604051611eb6919061209e565b60405180910390a3611eca60008383611d72565b5050565b600081519050919050565b600082825260208201905092915050565b60005b83811015611f08578082015181840152602081019050611eed565b60008484015250505050565b6000601f19601f8301169050919050565b6000611f3082611ece565b611f3a8185611ed9565b9350611f4a818560208601611eea565b611f5381611f14565b840191505092915050565b60006020820190508181036000830152611f788184611f25565b905092915050565b600080fd5b600073ffffffffffffffffffffffffffffffffffffffff82169050919050565b6000611fb082611f85565b9050919050565b611fc081611fa5565b8114611fcb57600080fd5b50565b600081359050611fdd81611fb7565b92915050565b6000819050919050565b611ff681611fe3565b811461200157600080fd5b50565b60008135905061201381611fed565b92915050565b600080604083850312156120305761202f611f80565b5b600061203e85828601611fce565b925050602061204f85828601612004565b9150509250929050565b60008115159050919050565b61206e81612059565b82525050565b60006020820190506120896000830184612065565b92915050565b61209881611fe3565b82525050565b60006020820190506120b3600083018461208f565b92915050565b6000806000606084860312156120d2576120d1611f80565b5b60006120e086828701611fce565b93505060206120f186828701611fce565b925050604061210286828701612004565b9150509250925092565b600060ff82169050919050565b6121228161210c565b82525050565b600060208201905061213d6000830184612119565b92915050565b60006020828403121561215957612158611f80565b5b600061216784828501612004565b91505092915050565b60006020828403121561218657612185611f80565b5b600061219484828501611fce565b91505092915050565b6121a681611fa5565b82525050565b60006020820190506121c1600083018461219d565b92915050565b60006121d282611f85565b9050919050565b6121e2816121c7565b82525050565b60006020820190506121fd60008301846121d9565b92915050565b6000806040838503121561221a57612219611f80565b5b600061222885828601611fce565b925050602061223985828601611fce565b9150509250929050565b7f4e487b7100000000000000000000000000000000000000000000000000000000600052602260045260246000fd5b6000600282049050600182168061228a57607f821691505b60208210810361229d5761229c612243565b5b50919050565b7f4e487b7100000000000000000000000000000000000000000000000000000000600052601160045260246000fd5b60006122dd82611fe3565b91506122e883611fe3565b9250828201905080821115612300576122ff6122a3565b5b92915050565b7f56657374696e6720706572696f64206973206e6f74206f766572000000000000600082015250565b600061233c601a83611ed9565b915061234782612306565b602082019050919050565b6000602082019050818103600083015261236b8161232f565b9050919050565b600061237d82611fe3565b915061238883611fe3565b925082820261239681611fe3565b915082820484148315176123ad576123ac6122a3565b5b5092915050565b600081905092915050565b50565b60006123cf6000836123b4565b91506123da826123bf565b600082019050919050565b60006123f0826123c2565b9150819050919050565b7f4661696c656420746f2073656e64204574686572000000000000000000000000600082015250565b6000612430601483611ed9565b915061243b826123fa565b602082019050919050565b6000602082019050818103600083015261245f81612423565b9050919050565b600060408201905061247b600083018561219d565b612488602083018461208f565b9392505050565b7f45524332303a2064656372656173656420616c6c6f77616e63652062656c6f7760008201527f207a65726f000000000000000000000000000000000000000000000000000000602082015250565b60006124eb602583611ed9565b91506124f68261248f565b604082019050919050565b6000602082019050818103600083015261251a816124de565b9050919050565b7f4e487b7100000000000000000000000000000000000000000000000000000000600052601260045260246000fd5b600061255b82611fe3565b915061256683611fe3565b92508261257657612575612521565b5b828204905092915050565b7f4f776e61626c653a206e6577206f776e657220697320746865207a65726f206160008201527f6464726573730000000000000000000000000000000000000000000000000000602082015250565b60006125dd602683611ed9565b91506125e882612581565b604082019050919050565b6000602082019050818103600083015261260c816125d0565b9050919050565b7f45524332303a20617070726f76652066726f6d20746865207a65726f2061646460008201527f7265737300000000000000000000000000000000000000000000000000000000602082015250565b600061266f602483611ed9565b915061267a82612613565b604082019050919050565b6000602082019050818103600083015261269e81612662565b9050919050565b7f45524332303a20617070726f766520746f20746865207a65726f20616464726560008201527f7373000000000000000000000000000000000000000000000000000000000000602082015250565b6000612701602283611ed9565b915061270c826126a5565b604082019050919050565b60006020820190508181036000830152612730816126f4565b9050919050565b7f45524332303a20696e73756666696369656e7420616c6c6f77616e6365000000600082015250565b600061276d601d83611ed9565b915061277882612737565b602082019050919050565b6000602082019050818103600083015261279c81612760565b9050919050565b7f45524332303a207472616e736665722066726f6d20746865207a65726f20616460008201527f6472657373000000000000000000000000000000000000000000000000000000602082015250565b60006127ff602583611ed9565b915061280a826127a3565b604082019050919050565b6000602082019050818103600083015261282e816127f2565b9050919050565b7f45524332303a207472616e7366657220746f20746865207a65726f206164647260008201527f6573730000000000000000000000000000000000000000000000000000000000602082015250565b6000612891602383611ed9565b915061289c82612835565b604082019050919050565b600060208201905081810360008301526128c081612884565b9050919050565b7f45524332303a207472616e7366657220616d6f756e742065786365656473206260008201527f616c616e63650000000000000000000000000000000000000000000000000000602082015250565b6000612923602683611ed9565b915061292e826128c7565b604082019050919050565b6000602082019050818103600083015261295281612916565b9050919050565b7f5265656e7472616e637947756172643a207265656e7472616e742063616c6c00600082015250565b600061298f601f83611ed9565b915061299a82612959565b602082019050919050565b600060208201905081810360008301526129be81612982565b9050919050565b7f4f776e61626c653a2063616c6c6572206973206e6f7420746865206f776e6572600082015250565b60006129fb602083611ed9565b9150612a06826129c5565b602082019050919050565b60006020820190508181036000830152612a2a816129ee565b9050919050565b7f496e76616c696420616d6f756e74206f66206574686572000000000000000000600082015250565b6000612a67601783611ed9565b9150612a7282612a31565b602082019050919050565b60006020820190508181036000830152612a9681612a5a565b9050919050565b6000612aa882611fe3565b9150612ab383611fe3565b9250828203905081811115612acb57612aca6122a3565b5b92915050565b7f416d6f756e7420657863656564696e6720617661696c61626c6520737570706c60008201527f7900000000000000000000000000000000000000000000000000000000000000602082015250565b6000612b2d602183611ed9565b9150612b3882612ad1565b604082019050919050565b60006020820190508181036000830152612b5c81612b20565b9050919050565b7f45524332303a206d696e7420746f20746865207a65726f206164647265737300600082015250565b6000612b99601f83611ed9565b9150612ba482612b63565b602082019050919050565b60006020820190508181036000830152612bc881612b8c565b905091905056fea26469706673582212202fdff77da7984bc6f47cb2b3bd30445dd4fc4055b999ce8f930eaa9233d86dd164736f6c63430008150033","opcodes":"PUSH1 0x80 PUSH1 0x40 MSTORE CALLVALUE DUP1 ISZERO PUSH3 0x11 JUMPI PUSH1 0x0 DUP1 REVERT JUMPDEST POP PUSH1 0x40 MLOAD PUSH3 0x3730 CODESIZE SUB DUP1 PUSH3 0x3730 DUP4 CODECOPY DUP2 DUP2 ADD PUSH1 0x40 MSTORE DUP2 ADD SWAP1 PUSH3 0x37 SWAP2 SWAP1 PUSH3 0x5FE JUMP JUMPDEST DUP6 DUP6 PUSH3 0x59 PUSH3 0x4D PUSH3 0x1E9 PUSH1 0x20 SHL PUSH1 0x20 SHR JUMP JUMPDEST PUSH3 0x1F1 PUSH1 0x20 SHL PUSH1 0x20 SHR JUMP JUMPDEST PUSH1 0x1 DUP1 DUP2 SWAP1 SSTORE POP DUP2 PUSH1 0x5 SWAP1 DUP2 PUSH3 0x71 SWAP2 SWAP1 PUSH3 0x919 JUMP JUMPDEST POP DUP1 PUSH1 0x6 SWAP1 DUP2 PUSH3 0x83 SWAP2 SWAP1 PUSH3 0x919 JUMP JUMPDEST POP POP POP PUSH3 0xA2 PUSH8 0xB84F097F01EEE54A PUSH1 0xC0 SHL PUSH3 0x2B5 PUSH1 0x20 SHL PUSH1 0x20 SHR JUMP JUMPDEST PUSH3 0xBE PUSH8 0xBC5CB0A59F947D8 PUSH1 0xC0 SHL PUSH3 0x2B5 PUSH1 0x20 SHL PUSH1 0x20 SHR JUMP JUMPDEST PUSH3 0xCE PUSH3 0x1E9 PUSH1 0x20 SHL PUSH1 0x20 SHR JUMP JUMPDEST PUSH1 0x7 PUSH1 0x0 PUSH2 0x100 EXP DUP2 SLOAD DUP2 PUSH20 0xFFFFFFFFFFFFFFFFFFFFFFFFFFFFFFFFFFFFFFFF MUL NOT AND SWAP1 DUP4 PUSH20 0xFFFFFFFFFFFFFFFFFFFFFFFFFFFFFFFFFFFFFFFF AND MUL OR SWAP1 SSTORE POP PUSH3 0x12A PUSH8 0x3E64119099C4287F PUSH1 0xC0 SHL PUSH3 0x2B5 PUSH1 0x20 SHL PUSH1 0x20 SHR JUMP JUMPDEST DUP4 PUSH1 0x8 DUP2 SWAP1 SSTORE POP PUSH3 0x14D PUSH8 0xC52A9C0C14A7B27F PUSH1 0xC0 SHL PUSH3 0x2B5 PUSH1 0x20 SHL PUSH1 0x20 SHR JUMP JUMPDEST DUP3 PUSH1 0x9 DUP2 SWAP1 SSTORE POP PUSH3 0x170 PUSH8 0x13240460D64263FB PUSH1 0xC0 SHL PUSH3 0x2B5 PUSH1 0x20 SHL PUSH1 0x20 SHR JUMP JUMPDEST PUSH3 0x18C PUSH8 0x3D45E25C76E3BBB4 PUSH1 0xC0 SHL PUSH3 0x2B5 PUSH1 0x20 SHL PUSH1 0x20 SHR JUMP JUMPDEST PUSH3 0x1AD PUSH3 0x1A0 PUSH3 0x1E9 PUSH1 0x20 SHL PUSH1 0x20 SHR JUMP JUMPDEST DUP4 PUSH3 0x2B8 PUSH1 0x20 SHL PUSH1 0x20 SHR JUMP JUMPDEST PUSH3 0x1C9 PUSH8 0x1ADFBFE7AD622C5 PUSH1 0xC0 SHL PUSH3 0x2B5 PUSH1 0x20 SHL PUSH1 0x20 SHR JUMP JUMPDEST DUP1 NUMBER PUSH3 0x1D7 SWAP2 SWAP1 PUSH3 0xA2F JUMP JUMPDEST PUSH1 0xA DUP2 SWAP1 SSTORE POP POP POP POP POP POP POP PUSH3 0xB1B JUMP JUMPDEST PUSH1 0x0 CALLER SWAP1 POP SWAP1 JUMP JUMPDEST PUSH1 0x0 DUP1 PUSH1 0x0 SWAP1 SLOAD SWAP1 PUSH2 0x100 EXP SWAP1 DIV PUSH20 0xFFFFFFFFFFFFFFFFFFFFFFFFFFFFFFFFFFFFFFFF AND SWAP1 POP DUP2 PUSH1 0x0 DUP1 PUSH2 0x100 EXP DUP2 SLOAD DUP2 PUSH20 0xFFFFFFFFFFFFFFFFFFFFFFFFFFFFFFFFFFFFFFFF MUL NOT AND SWAP1 DUP4 PUSH20 0xFFFFFFFFFFFFFFFFFFFFFFFFFFFFFFFFFFFFFFFF AND MUL OR SWAP1 SSTORE POP DUP2 PUSH20 0xFFFFFFFFFFFFFFFFFFFFFFFFFFFFFFFFFFFFFFFF AND DUP2 PUSH20 0xFFFFFFFFFFFFFFFFFFFFFFFFFFFFFFFFFFFFFFFF AND PUSH32 0x8BE0079C531659141344CD1FD0A4F28419497F9722A3DAAFE3B4186F6B6457E0 PUSH1 0x40 MLOAD PUSH1 0x40 MLOAD DUP1 SWAP2 SUB SWAP1 LOG3 POP POP JUMP JUMPDEST POP JUMP JUMPDEST PUSH1 0x0 PUSH20 0xFFFFFFFFFFFFFFFFFFFFFFFFFFFFFFFFFFFFFFFF AND DUP3 PUSH20 0xFFFFFFFFFFFFFFFFFFFFFFFFFFFFFFFFFFFFFFFF AND SUB PUSH3 0x32A JUMPI PUSH1 0x40 MLOAD PUSH32 0x8C379A000000000000000000000000000000000000000000000000000000000 DUP2 MSTORE PUSH1 0x4 ADD PUSH3 0x321 SWAP1 PUSH3 0xACB JUMP JUMPDEST PUSH1 0x40 MLOAD DUP1 SWAP2 SUB SWAP1 REVERT JUMPDEST PUSH3 0x33E PUSH1 0x0 DUP4 DUP4 PUSH3 0x426 PUSH1 0x20 SHL PUSH1 0x20 SHR JUMP JUMPDEST DUP1 PUSH1 0x4 PUSH1 0x0 DUP3 DUP3 SLOAD PUSH3 0x352 SWAP2 SWAP1 PUSH3 0xA2F JUMP JUMPDEST SWAP3 POP POP DUP2 SWAP1 SSTORE POP DUP1 PUSH1 0x2 PUSH1 0x0 DUP5 PUSH20 0xFFFFFFFFFFFFFFFFFFFFFFFFFFFFFFFFFFFFFFFF AND PUSH20 0xFFFFFFFFFFFFFFFFFFFFFFFFFFFFFFFFFFFFFFFF AND DUP2 MSTORE PUSH1 0x20 ADD SWAP1 DUP2 MSTORE PUSH1 0x20 ADD PUSH1 0x0 KECCAK256 PUSH1 0x0 DUP3 DUP3 SLOAD ADD SWAP3 POP POP DUP2 SWAP1 SSTORE POP DUP2 PUSH20 0xFFFFFFFFFFFFFFFFFFFFFFFFFFFFFFFFFFFFFFFF AND PUSH1 0x0 PUSH20 0xFFFFFFFFFFFFFFFFFFFFFFFFFFFFFFFFFFFFFFFF AND PUSH32 0xDDF252AD1BE2C89B69C2B068FC378DAA952BA7F163C4A11628F55A4DF523B3EF DUP4 PUSH1 0x40 MLOAD PUSH3 0x406 SWAP2 SWAP1 PUSH3 0xAFE JUMP JUMPDEST PUSH1 0x40 MLOAD DUP1 SWAP2 SUB SWAP1 LOG3 PUSH3 0x422 PUSH1 0x0 DUP4 DUP4 PUSH3 0x42B PUSH1 0x20 SHL PUSH1 0x20 SHR JUMP JUMPDEST POP POP JUMP JUMPDEST POP POP POP JUMP JUMPDEST POP POP POP JUMP JUMPDEST PUSH1 0x0 PUSH1 0x40 MLOAD SWAP1 POP SWAP1 JUMP JUMPDEST PUSH1 0x0 DUP1 REVERT JUMPDEST PUSH1 0x0 DUP1 REVERT JUMPDEST PUSH1 0x0 DUP1 REVERT JUMPDEST PUSH1 0x0 DUP1 REVERT JUMPDEST PUSH1 0x0 PUSH1 0x1F NOT PUSH1 0x1F DUP4 ADD AND SWAP1 POP SWAP2 SWAP1 POP JUMP JUMPDEST PUSH32 0x4E487B7100000000000000000000000000000000000000000000000000000000 PUSH1 0x0 MSTORE PUSH1 0x41 PUSH1 0x4 MSTORE PUSH1 0x24 PUSH1 0x0 REVERT JUMPDEST PUSH3 0x499 DUP3 PUSH3 0x44E JUMP JUMPDEST DUP2 ADD DUP2 DUP2 LT PUSH8 0xFFFFFFFFFFFFFFFF DUP3 GT OR ISZERO PUSH3 0x4BB JUMPI PUSH3 0x4BA PUSH3 0x45F JUMP JUMPDEST JUMPDEST DUP1 PUSH1 0x40 MSTORE POP POP POP JUMP JUMPDEST PUSH1 0x0 PUSH3 0x4D0 PUSH3 0x430 JUMP JUMPDEST SWAP1 POP PUSH3 0x4DE DUP3 DUP3 PUSH3 0x48E JUMP JUMPDEST SWAP2 SWAP1 POP JUMP JUMPDEST PUSH1 0x0 PUSH8 0xFFFFFFFFFFFFFFFF DUP3 GT ISZERO PUSH3 0x501 JUMPI PUSH3 0x500 PUSH3 0x45F JUMP JUMPDEST JUMPDEST PUSH3 0x50C DUP3 PUSH3 0x44E JUMP JUMPDEST SWAP1 POP PUSH1 0x20 DUP2 ADD SWAP1 POP SWAP2 SWAP1 POP JUMP JUMPDEST PUSH1 0x0 JUMPDEST DUP4 DUP2 LT ISZERO PUSH3 0x539 JUMPI DUP1 DUP3 ADD MLOAD DUP2 DUP5 ADD MSTORE PUSH1 0x20 DUP2 ADD SWAP1 POP PUSH3 0x51C JUMP JUMPDEST PUSH1 0x0 DUP5 DUP5 ADD MSTORE POP POP POP POP JUMP JUMPDEST PUSH1 0x0 PUSH3 0x55C PUSH3 0x556 DUP5 PUSH3 0x4E3 JUMP JUMPDEST PUSH3 0x4C4 JUMP JUMPDEST SWAP1 POP DUP3 DUP2 MSTORE PUSH1 0x20 DUP2 ADD DUP5 DUP5 DUP5 ADD GT ISZERO PUSH3 0x57B JUMPI PUSH3 0x57A PUSH3 0x449 JUMP JUMPDEST JUMPDEST PUSH3 0x588 DUP5 DUP3 DUP6 PUSH3 0x519 JUMP JUMPDEST POP SWAP4 SWAP3 POP POP POP JUMP JUMPDEST PUSH1 0x0 DUP3 PUSH1 0x1F DUP4 ADD SLT PUSH3 0x5A8 JUMPI PUSH3 0x5A7 PUSH3 0x444 JUMP JUMPDEST JUMPDEST DUP2 MLOAD PUSH3 0x5BA DUP5 DUP3 PUSH1 0x20 DUP7 ADD PUSH3 0x545 JUMP JUMPDEST SWAP2 POP POP SWAP3 SWAP2 POP POP JUMP JUMPDEST PUSH1 0x0 DUP2 SWAP1 POP SWAP2 SWAP1 POP JUMP JUMPDEST PUSH3 0x5D8 DUP2 PUSH3 0x5C3 JUMP JUMPDEST DUP2 EQ PUSH3 0x5E4 JUMPI PUSH1 0x0 DUP1 REVERT JUMPDEST POP JUMP JUMPDEST PUSH1 0x0 DUP2 MLOAD SWAP1 POP PUSH3 0x5F8 DUP2 PUSH3 0x5CD JUMP JUMPDEST SWAP3 SWAP2 POP POP JUMP JUMPDEST PUSH1 0x0 DUP1 PUSH1 0x0 DUP1 PUSH1 0x0 DUP1 PUSH1 0xC0 DUP8 DUP10 SUB SLT ISZERO PUSH3 0x61E JUMPI PUSH3 0x61D PUSH3 0x43A JUMP JUMPDEST JUMPDEST PUSH1 0x0 DUP8 ADD MLOAD PUSH8 0xFFFFFFFFFFFFFFFF DUP2 GT ISZERO PUSH3 0x63F JUMPI PUSH3 0x63E PUSH3 0x43F JUMP JUMPDEST JUMPDEST PUSH3 0x64D DUP10 DUP3 DUP11 ADD PUSH3 0x590 JUMP JUMPDEST SWAP7 POP POP PUSH1 0x20 DUP8 ADD MLOAD PUSH8 0xFFFFFFFFFFFFFFFF DUP2 GT ISZERO PUSH3 0x671 JUMPI PUSH3 0x670 PUSH3 0x43F JUMP JUMPDEST JUMPDEST PUSH3 0x67F DUP10 DUP3 DUP11 ADD PUSH3 0x590 JUMP JUMPDEST SWAP6 POP POP PUSH1 0x40 PUSH3 0x692 DUP10 DUP3 DUP11 ADD PUSH3 0x5E7 JUMP JUMPDEST SWAP5 POP POP PUSH1 0x60 PUSH3 0x6A5 DUP10 DUP3 DUP11 ADD PUSH3 0x5E7 JUMP JUMPDEST SWAP4 POP POP PUSH1 0x80 PUSH3 0x6B8 DUP10 DUP3 DUP11 ADD PUSH3 0x5E7 JUMP JUMPDEST SWAP3 POP POP PUSH1 0xA0 PUSH3 0x6CB DUP10 DUP3 DUP11 ADD PUSH3 0x5E7 JUMP JUMPDEST SWAP2 POP POP SWAP3 SWAP6 POP SWAP3 SWAP6 POP SWAP3 SWAP6 JUMP JUMPDEST PUSH1 0x0 DUP2 MLOAD SWAP1 POP SWAP2 SWAP1 POP JUMP JUMPDEST PUSH32 0x4E487B7100000000000000000000000000000000000000000000000000000000 PUSH1 0x0 MSTORE PUSH1 0x22 PUSH1 0x4 MSTORE PUSH1 0x24 PUSH1 0x0 REVERT JUMPDEST PUSH1 0x0 PUSH1 0x2 DUP3 DIV SWAP1 POP PUSH1 0x1 DUP3 AND DUP1 PUSH3 0x72B JUMPI PUSH1 0x7F DUP3 AND SWAP2 POP JUMPDEST PUSH1 0x20 DUP3 LT DUP2 SUB PUSH3 0x741 JUMPI PUSH3 0x740 PUSH3 0x6E3 JUMP JUMPDEST JUMPDEST POP SWAP2 SWAP1 POP JUMP JUMPDEST PUSH1 0x0 DUP2 SWAP1 POP DUP2 PUSH1 0x0 MSTORE PUSH1 0x20 PUSH1 0x0 KECCAK256 SWAP1 POP SWAP2 SWAP1 POP JUMP JUMPDEST PUSH1 0x0 PUSH1 0x20 PUSH1 0x1F DUP4 ADD DIV SWAP1 POP SWAP2 SWAP1 POP JUMP JUMPDEST PUSH1 0x0 DUP3 DUP3 SHL SWAP1 POP SWAP3 SWAP2 POP POP JUMP JUMPDEST PUSH1 0x0 PUSH1 0x8 DUP4 MUL PUSH3 0x7AB PUSH32 0xFFFFFFFFFFFFFFFFFFFFFFFFFFFFFFFFFFFFFFFFFFFFFFFFFFFFFFFFFFFFFFFF DUP3 PUSH3 0x76C JUMP JUMPDEST PUSH3 0x7B7 DUP7 DUP4 PUSH3 0x76C JUMP JUMPDEST SWAP6 POP DUP1 NOT DUP5 AND SWAP4 POP DUP1 DUP7 AND DUP5 OR SWAP3 POP POP POP SWAP4 SWAP3 POP POP POP JUMP JUMPDEST PUSH1 0x0 DUP2 SWAP1 POP SWAP2 SWAP1 POP JUMP JUMPDEST PUSH1 0x0 PUSH3 0x7FA PUSH3 0x7F4 PUSH3 0x7EE DUP5 PUSH3 0x5C3 JUMP JUMPDEST PUSH3 0x7CF JUMP JUMPDEST PUSH3 0x5C3 JUMP JUMPDEST SWAP1 POP SWAP2 SWAP1 POP JUMP JUMPDEST PUSH1 0x0 DUP2 SWAP1 POP SWAP2 SWAP1 POP JUMP JUMPDEST PUSH3 0x816 DUP4 PUSH3 0x7D9 JUMP JUMPDEST PUSH3 0x82E PUSH3 0x825 DUP3 PUSH3 0x801 JUMP JUMPDEST DUP5 DUP5 SLOAD PUSH3 0x779 JUMP JUMPDEST DUP3 SSTORE POP POP POP POP JUMP JUMPDEST PUSH1 0x0 SWAP1 JUMP JUMPDEST PUSH3 0x845 PUSH3 0x836 JUMP JUMPDEST PUSH3 0x852 DUP2 DUP5 DUP5 PUSH3 0x80B JUMP JUMPDEST POP POP POP JUMP JUMPDEST JUMPDEST DUP2 DUP2 LT ISZERO PUSH3 0x87A JUMPI PUSH3 0x86E PUSH1 0x0 DUP3 PUSH3 0x83B JUMP JUMPDEST PUSH1 0x1 DUP2 ADD SWAP1 POP PUSH3 0x858 JUMP JUMPDEST POP POP JUMP JUMPDEST PUSH1 0x1F DUP3 GT ISZERO PUSH3 0x8C9 JUMPI PUSH3 0x893 DUP2 PUSH3 0x747 JUMP JUMPDEST PUSH3 0x89E DUP5 PUSH3 0x75C JUMP JUMPDEST DUP2 ADD PUSH1 0x20 DUP6 LT ISZERO PUSH3 0x8AE JUMPI DUP2 SWAP1 POP JUMPDEST PUSH3 0x8C6 PUSH3 0x8BD DUP6 PUSH3 0x75C JUMP JUMPDEST DUP4 ADD DUP3 PUSH3 0x857 JUMP JUMPDEST POP POP JUMPDEST POP POP POP JUMP JUMPDEST PUSH1 0x0 DUP3 DUP3 SHR SWAP1 POP SWAP3 SWAP2 POP POP JUMP JUMPDEST PUSH1 0x0 PUSH3 0x8EE PUSH1 0x0 NOT DUP5 PUSH1 0x8 MUL PUSH3 0x8CE JUMP JUMPDEST NOT DUP1 DUP4 AND SWAP2 POP POP SWAP3 SWAP2 POP POP JUMP JUMPDEST PUSH1 0x0 PUSH3 0x909 DUP4 DUP4 PUSH3 0x8DB JUMP JUMPDEST SWAP2 POP DUP3 PUSH1 0x2 MUL DUP3 OR SWAP1 POP SWAP3 SWAP2 POP POP JUMP JUMPDEST PUSH3 0x924 DUP3 PUSH3 0x6D8 JUMP JUMPDEST PUSH8 0xFFFFFFFFFFFFFFFF DUP2 GT ISZERO PUSH3 0x940 JUMPI PUSH3 0x93F PUSH3 0x45F JUMP JUMPDEST JUMPDEST PUSH3 0x94C DUP3 SLOAD PUSH3 0x712 JUMP JUMPDEST PUSH3 0x959 DUP3 DUP3 DUP6 PUSH3 0x87E JUMP JUMPDEST PUSH1 0x0 PUSH1 0x20 SWAP1 POP PUSH1 0x1F DUP4 GT PUSH1 0x1 DUP2 EQ PUSH3 0x991 JUMPI PUSH1 0x0 DUP5 ISZERO PUSH3 0x97C JUMPI DUP3 DUP8 ADD MLOAD SWAP1 POP JUMPDEST PUSH3 0x988 DUP6 DUP3 PUSH3 0x8FB JUMP JUMPDEST DUP7 SSTORE POP PUSH3 0x9F8 JUMP JUMPDEST PUSH1 0x1F NOT DUP5 AND PUSH3 0x9A1 DUP7 PUSH3 0x747 JUMP JUMPDEST PUSH1 0x0 JUMPDEST DUP3 DUP2 LT ISZERO PUSH3 0x9CB JUMPI DUP5 DUP10 ADD MLOAD DUP3 SSTORE PUSH1 0x1 DUP3 ADD SWAP2 POP PUSH1 0x20 DUP6 ADD SWAP5 POP PUSH1 0x20 DUP2 ADD SWAP1 POP PUSH3 0x9A4 JUMP JUMPDEST DUP7 DUP4 LT ISZERO PUSH3 0x9EB JUMPI DUP5 DUP10 ADD MLOAD PUSH3 0x9E7 PUSH1 0x1F DUP10 AND DUP3 PUSH3 0x8DB JUMP JUMPDEST DUP4 SSTORE POP JUMPDEST PUSH1 0x1 PUSH1 0x2 DUP9 MUL ADD DUP9 SSTORE POP POP POP JUMPDEST POP POP POP POP POP POP JUMP JUMPDEST PUSH32 0x4E487B7100000000000000000000000000000000000000000000000000000000 PUSH1 0x0 MSTORE PUSH1 0x11 PUSH1 0x4 MSTORE PUSH1 0x24 PUSH1 0x0 REVERT JUMPDEST PUSH1 0x0 PUSH3 0xA3C DUP3 PUSH3 0x5C3 JUMP JUMPDEST SWAP2 POP PUSH3 0xA49 DUP4 PUSH3 0x5C3 JUMP JUMPDEST SWAP3 POP DUP3 DUP3 ADD SWAP1 POP DUP1 DUP3 GT ISZERO PUSH3 0xA64 JUMPI PUSH3 0xA63 PUSH3 0xA00 JUMP JUMPDEST JUMPDEST SWAP3 SWAP2 POP POP JUMP JUMPDEST PUSH1 0x0 DUP3 DUP3 MSTORE PUSH1 0x20 DUP3 ADD SWAP1 POP SWAP3 SWAP2 POP POP JUMP JUMPDEST PUSH32 0x45524332303A206D696E7420746F20746865207A65726F206164647265737300 PUSH1 0x0 DUP3 ADD MSTORE POP JUMP JUMPDEST PUSH1 0x0 PUSH3 0xAB3 PUSH1 0x1F DUP4 PUSH3 0xA6A JUMP JUMPDEST SWAP2 POP PUSH3 0xAC0 DUP3 PUSH3 0xA7B JUMP JUMPDEST PUSH1 0x20 DUP3 ADD SWAP1 POP SWAP2 SWAP1 POP JUMP JUMPDEST PUSH1 0x0 PUSH1 0x20 DUP3 ADD SWAP1 POP DUP2 DUP2 SUB PUSH1 0x0 DUP4 ADD MSTORE PUSH3 0xAE6 DUP2 PUSH3 0xAA4 JUMP JUMPDEST SWAP1 POP SWAP2 SWAP1 POP JUMP JUMPDEST PUSH3 0xAF8 DUP2 PUSH3 0x5C3 JUMP JUMPDEST DUP3 MSTORE POP POP JUMP JUMPDEST PUSH1 0x0 PUSH1 0x20 DUP3 ADD SWAP1 POP PUSH3 0xB15 PUSH1 0x0 DUP4 ADD DUP5 PUSH3 0xAED JUMP JUMPDEST SWAP3 SWAP2 POP POP JUMP JUMPDEST PUSH2 0x2C05 DUP1 PUSH3 0xB2B PUSH1 0x0 CODECOPY PUSH1 0x0 RETURN INVALID PUSH1 0x80 PUSH1 0x40 MSTORE PUSH1 0x4 CALLDATASIZE LT PUSH2 0x12E JUMPI PUSH1 0x0 CALLDATALOAD PUSH1 0xE0 SHR DUP1 PUSH4 0x8DA5CB5B GT PUSH2 0xAB JUMPI DUP1 PUSH4 0xAADC68A5 GT PUSH2 0x6F JUMPI DUP1 PUSH4 0xAADC68A5 EQ PUSH2 0x415 JUMPI DUP1 PUSH4 0xCA4B208B EQ PUSH2 0x440 JUMPI DUP1 PUSH4 0xD1A93D18 EQ PUSH2 0x46B JUMPI DUP1 PUSH4 0xDD62ED3E EQ PUSH2 0x487 JUMPI DUP1 PUSH4 0xDEFBBB68 EQ PUSH2 0x4C4 JUMPI DUP1 PUSH4 0xF2FDE38B EQ PUSH2 0x4EF JUMPI PUSH2 0x135 JUMP JUMPDEST DUP1 PUSH4 0x8DA5CB5B EQ PUSH2 0x31A JUMPI DUP1 PUSH4 0x95D89B41 EQ PUSH2 0x345 JUMPI DUP1 PUSH4 0x9E462FC7 EQ PUSH2 0x370 JUMPI DUP1 PUSH4 0xA457C2D7 EQ PUSH2 0x39B JUMPI DUP1 PUSH4 0xA9059CBB EQ PUSH2 0x3D8 JUMPI PUSH2 0x135 JUMP JUMPDEST DUP1 PUSH4 0x39509351 GT PUSH2 0xF2 JUMPI DUP1 PUSH4 0x39509351 EQ PUSH2 0x235 JUMPI DUP1 PUSH4 0x4BA8AE81 EQ PUSH2 0x272 JUMPI DUP1 PUSH4 0x5F3E364A EQ PUSH2 0x29B JUMPI DUP1 PUSH4 0x70A08231 EQ PUSH2 0x2C6 JUMPI DUP1 PUSH4 0x715018A6 EQ PUSH2 0x303 JUMPI PUSH2 0x135 JUMP JUMPDEST DUP1 PUSH4 0x6FDDE03 EQ PUSH2 0x13A JUMPI DUP1 PUSH4 0x95EA7B3 EQ PUSH2 0x165 JUMPI DUP1 PUSH4 0x18160DDD EQ PUSH2 0x1A2 JUMPI DUP1 PUSH4 0x23B872DD EQ PUSH2 0x1CD JUMPI DUP1 PUSH4 0x313CE567 EQ PUSH2 0x20A JUMPI PUSH2 0x135 JUMP JUMPDEST CALLDATASIZE PUSH2 0x135 JUMPI STOP JUMPDEST PUSH1 0x0 DUP1 REVERT JUMPDEST CALLVALUE DUP1 ISZERO PUSH2 0x146 JUMPI PUSH1 0x0 DUP1 REVERT JUMPDEST POP PUSH2 0x14F PUSH2 0x518 JUMP JUMPDEST PUSH1 0x40 MLOAD PUSH2 0x15C SWAP2 SWAP1 PUSH2 0x1F5E JUMP JUMPDEST PUSH1 0x40 MLOAD DUP1 SWAP2 SUB SWAP1 RETURN JUMPDEST CALLVALUE DUP1 ISZERO PUSH2 0x171 JUMPI PUSH1 0x0 DUP1 REVERT JUMPDEST POP PUSH2 0x18C PUSH1 0x4 DUP1 CALLDATASIZE SUB DUP2 ADD SWAP1 PUSH2 0x187 SWAP2 SWAP1 PUSH2 0x2019 JUMP JUMPDEST PUSH2 0x5AA JUMP JUMPDEST PUSH1 0x40 MLOAD PUSH2 0x199 SWAP2 SWAP1 PUSH2 0x2074 JUMP JUMPDEST PUSH1 0x40 MLOAD DUP1 SWAP2 SUB SWAP1 RETURN JUMPDEST CALLVALUE DUP1 ISZERO PUSH2 0x1AE JUMPI PUSH1 0x0 DUP1 REVERT JUMPDEST POP PUSH2 0x1B7 PUSH2 0x5CD JUMP JUMPDEST PUSH1 0x40 MLOAD PUSH2 0x1C4 SWAP2 SWAP1 PUSH2 0x209E JUMP JUMPDEST PUSH1 0x40 MLOAD DUP1 SWAP2 SUB SWAP1 RETURN JUMPDEST CALLVALUE DUP1 ISZERO PUSH2 0x1D9 JUMPI PUSH1 0x0 DUP1 REVERT JUMPDEST POP PUSH2 0x1F4 PUSH1 0x4 DUP1 CALLDATASIZE SUB DUP2 ADD SWAP1 PUSH2 0x1EF SWAP2 SWAP1 PUSH2 0x20B9 JUMP JUMPDEST PUSH2 0x5D7 JUMP JUMPDEST PUSH1 0x40 MLOAD PUSH2 0x201 SWAP2 SWAP1 PUSH2 0x2074 JUMP JUMPDEST PUSH1 0x40 MLOAD DUP1 SWAP2 SUB SWAP1 RETURN JUMPDEST CALLVALUE DUP1 ISZERO PUSH2 0x216 JUMPI PUSH1 0x0 DUP1 REVERT JUMPDEST POP PUSH2 0x21F PUSH2 0x606 JUMP JUMPDEST PUSH1 0x40 MLOAD PUSH2 0x22C SWAP2 SWAP1 PUSH2 0x2128 JUMP JUMPDEST PUSH1 0x40 MLOAD DUP1 SWAP2 SUB SWAP1 RETURN JUMPDEST CALLVALUE DUP1 ISZERO PUSH2 0x241 JUMPI PUSH1 0x0 DUP1 REVERT JUMPDEST POP PUSH2 0x25C PUSH1 0x4 DUP1 CALLDATASIZE SUB DUP2 ADD SWAP1 PUSH2 0x257 SWAP2 SWAP1 PUSH2 0x2019 JUMP JUMPDEST PUSH2 0x60F JUMP JUMPDEST PUSH1 0x40 MLOAD PUSH2 0x269 SWAP2 SWAP1 PUSH2 0x2074 JUMP JUMPDEST PUSH1 0x40 MLOAD DUP1 SWAP2 SUB SWAP1 RETURN JUMPDEST CALLVALUE DUP1 ISZERO PUSH2 0x27E JUMPI PUSH1 0x0 DUP1 REVERT JUMPDEST POP PUSH2 0x299 PUSH1 0x4 DUP1 CALLDATASIZE SUB DUP2 ADD SWAP1 PUSH2 0x294 SWAP2 SWAP1 PUSH2 0x2143 JUMP JUMPDEST PUSH2 0x646 JUMP JUMPDEST STOP JUMPDEST CALLVALUE DUP1 ISZERO PUSH2 0x2A7 JUMPI PUSH1 0x0 DUP1 REVERT JUMPDEST POP PUSH2 0x2B0 PUSH2 0x939 JUMP JUMPDEST PUSH1 0x40 MLOAD PUSH2 0x2BD SWAP2 SWAP1 PUSH2 0x209E JUMP JUMPDEST PUSH1 0x40 MLOAD DUP1 SWAP2 SUB SWAP1 RETURN JUMPDEST CALLVALUE DUP1 ISZERO PUSH2 0x2D2 JUMPI PUSH1 0x0 DUP1 REVERT JUMPDEST POP PUSH2 0x2ED PUSH1 0x4 DUP1 CALLDATASIZE SUB DUP2 ADD SWAP1 PUSH2 0x2E8 SWAP2 SWAP1 PUSH2 0x2170 JUMP JUMPDEST PUSH2 0x93F JUMP JUMPDEST PUSH1 0x40 MLOAD PUSH2 0x2FA SWAP2 SWAP1 PUSH2 0x209E JUMP JUMPDEST PUSH1 0x40 MLOAD DUP1 SWAP2 SUB SWAP1 RETURN JUMPDEST CALLVALUE DUP1 ISZERO PUSH2 0x30F JUMPI PUSH1 0x0 DUP1 REVERT JUMPDEST POP PUSH2 0x318 PUSH2 0x988 JUMP JUMPDEST STOP JUMPDEST CALLVALUE DUP1 ISZERO PUSH2 0x326 JUMPI PUSH1 0x0 DUP1 REVERT JUMPDEST POP PUSH2 0x32F PUSH2 0x99C JUMP JUMPDEST PUSH1 0x40 MLOAD PUSH2 0x33C SWAP2 SWAP1 PUSH2 0x21AC JUMP JUMPDEST PUSH1 0x40 MLOAD DUP1 SWAP2 SUB SWAP1 RETURN JUMPDEST CALLVALUE DUP1 ISZERO PUSH2 0x351 JUMPI PUSH1 0x0 DUP1 REVERT JUMPDEST POP PUSH2 0x35A PUSH2 0x9C5 JUMP JUMPDEST PUSH1 0x40 MLOAD PUSH2 0x367 SWAP2 SWAP1 PUSH2 0x1F5E JUMP JUMPDEST PUSH1 0x40 MLOAD DUP1 SWAP2 SUB SWAP1 RETURN JUMPDEST CALLVALUE DUP1 ISZERO PUSH2 0x37C JUMPI PUSH1 0x0 DUP1 REVERT JUMPDEST POP PUSH2 0x385 PUSH2 0xA57 JUMP JUMPDEST PUSH1 0x40 MLOAD PUSH2 0x392 SWAP2 SWAP1 PUSH2 0x209E JUMP JUMPDEST PUSH1 0x40 MLOAD DUP1 SWAP2 SUB SWAP1 RETURN JUMPDEST CALLVALUE DUP1 ISZERO PUSH2 0x3A7 JUMPI PUSH1 0x0 DUP1 REVERT JUMPDEST POP PUSH2 0x3C2 PUSH1 0x4 DUP1 CALLDATASIZE SUB DUP2 ADD SWAP1 PUSH2 0x3BD SWAP2 SWAP1 PUSH2 0x2019 JUMP JUMPDEST PUSH2 0xA5D JUMP JUMPDEST PUSH1 0x40 MLOAD PUSH2 0x3CF SWAP2 SWAP1 PUSH2 0x2074 JUMP JUMPDEST PUSH1 0x40 MLOAD DUP1 SWAP2 SUB SWAP1 RETURN JUMPDEST CALLVALUE DUP1 ISZERO PUSH2 0x3E4 JUMPI PUSH1 0x0 DUP1 REVERT JUMPDEST POP PUSH2 0x3FF PUSH1 0x4 DUP1 CALLDATASIZE SUB DUP2 ADD SWAP1 PUSH2 0x3FA SWAP2 SWAP1 PUSH2 0x2019 JUMP JUMPDEST PUSH2 0xAD4 JUMP JUMPDEST PUSH1 0x40 MLOAD PUSH2 0x40C SWAP2 SWAP1 PUSH2 0x2074 JUMP JUMPDEST PUSH1 0x40 MLOAD DUP1 SWAP2 SUB SWAP1 RETURN JUMPDEST CALLVALUE DUP1 ISZERO PUSH2 0x421 JUMPI PUSH1 0x0 DUP1 REVERT JUMPDEST POP PUSH2 0x42A PUSH2 0xAF7 JUMP JUMPDEST PUSH1 0x40 MLOAD PUSH2 0x437 SWAP2 SWAP1 PUSH2 0x209E JUMP JUMPDEST PUSH1 0x40 MLOAD DUP1 SWAP2 SUB SWAP1 RETURN JUMPDEST CALLVALUE DUP1 ISZERO PUSH2 0x44C JUMPI PUSH1 0x0 DUP1 REVERT JUMPDEST POP PUSH2 0x455 PUSH2 0xD29 JUMP JUMPDEST PUSH1 0x40 MLOAD PUSH2 0x462 SWAP2 SWAP1 PUSH2 0x21E8 JUMP JUMPDEST PUSH1 0x40 MLOAD DUP1 SWAP2 SUB SWAP1 RETURN JUMPDEST PUSH2 0x485 PUSH1 0x4 DUP1 CALLDATASIZE SUB DUP2 ADD SWAP1 PUSH2 0x480 SWAP2 SWAP1 PUSH2 0x2143 JUMP JUMPDEST PUSH2 0xD4F JUMP JUMPDEST STOP JUMPDEST CALLVALUE DUP1 ISZERO PUSH2 0x493 JUMPI PUSH1 0x0 DUP1 REVERT JUMPDEST POP PUSH2 0x4AE PUSH1 0x4 DUP1 CALLDATASIZE SUB DUP2 ADD SWAP1 PUSH2 0x4A9 SWAP2 SWAP1 PUSH2 0x2203 JUMP JUMPDEST PUSH2 0xEC7 JUMP JUMPDEST PUSH1 0x40 MLOAD PUSH2 0x4BB SWAP2 SWAP1 PUSH2 0x209E JUMP JUMPDEST PUSH1 0x40 MLOAD DUP1 SWAP2 SUB SWAP1 RETURN JUMPDEST CALLVALUE DUP1 ISZERO PUSH2 0x4D0 JUMPI PUSH1 0x0 DUP1 REVERT JUMPDEST POP PUSH2 0x4D9 PUSH2 0xF4E JUMP JUMPDEST PUSH1 0x40 MLOAD PUSH2 0x4E6 SWAP2 SWAP1 PUSH2 0x209E JUMP JUMPDEST PUSH1 0x40 MLOAD DUP1 SWAP2 SUB SWAP1 RETURN JUMPDEST CALLVALUE DUP1 ISZERO PUSH2 0x4FB JUMPI PUSH1 0x0 DUP1 REVERT JUMPDEST POP PUSH2 0x516 PUSH1 0x4 DUP1 CALLDATASIZE SUB DUP2 ADD SWAP1 PUSH2 0x511 SWAP2 SWAP1 PUSH2 0x2170 JUMP JUMPDEST PUSH2 0xF54 JUMP JUMPDEST STOP JUMPDEST PUSH1 0x60 PUSH1 0x5 DUP1 SLOAD PUSH2 0x527 SWAP1 PUSH2 0x2272 JUMP JUMPDEST DUP1 PUSH1 0x1F ADD PUSH1 0x20 DUP1 SWAP2 DIV MUL PUSH1 0x20 ADD PUSH1 0x40 MLOAD SWAP1 DUP2 ADD PUSH1 0x40 MSTORE DUP1 SWAP3 SWAP2 SWAP1 DUP2 DUP2 MSTORE PUSH1 0x20 ADD DUP3 DUP1 SLOAD PUSH2 0x553 SWAP1 PUSH2 0x2272 JUMP JUMPDEST DUP1 ISZERO PUSH2 0x5A0 JUMPI DUP1 PUSH1 0x1F LT PUSH2 0x575 JUMPI PUSH2 0x100 DUP1 DUP4 SLOAD DIV MUL DUP4 MSTORE SWAP2 PUSH1 0x20 ADD SWAP2 PUSH2 0x5A0 JUMP JUMPDEST DUP3 ADD SWAP2 SWAP1 PUSH1 0x0 MSTORE PUSH1 0x20 PUSH1 0x0 KECCAK256 SWAP1 JUMPDEST DUP2 SLOAD DUP2 MSTORE SWAP1 PUSH1 0x1 ADD SWAP1 PUSH1 0x20 ADD DUP1 DUP4 GT PUSH2 0x583 JUMPI DUP3 SWAP1 SUB PUSH1 0x1F AND DUP3 ADD SWAP2 JUMPDEST POP POP POP POP POP SWAP1 POP SWAP1 JUMP JUMPDEST PUSH1 0x0 DUP1 PUSH2 0x5B5 PUSH2 0xFD7 JUMP JUMPDEST SWAP1 POP PUSH2 0x5C2 DUP2 DUP6 DUP6 PUSH2 0xFDF JUMP JUMPDEST PUSH1 0x1 SWAP2 POP POP SWAP3 SWAP2 POP POP JUMP JUMPDEST PUSH1 0x0 PUSH1 0x4 SLOAD SWAP1 POP SWAP1 JUMP JUMPDEST PUSH1 0x0 DUP1 PUSH2 0x5E2 PUSH2 0xFD7 JUMP JUMPDEST SWAP1 POP PUSH2 0x5EF DUP6 DUP3 DUP6 PUSH2 0x11A8 JUMP JUMPDEST PUSH2 0x5FA DUP6 DUP6 DUP6 PUSH2 0x1234 JUMP JUMPDEST PUSH1 0x1 SWAP2 POP POP SWAP4 SWAP3 POP POP POP JUMP JUMPDEST PUSH1 0x0 PUSH1 0x12 SWAP1 POP SWAP1 JUMP JUMPDEST PUSH1 0x0 DUP1 PUSH2 0x61A PUSH2 0xFD7 JUMP JUMPDEST SWAP1 POP PUSH2 0x63B DUP2 DUP6 DUP6 PUSH2 0x62C DUP6 DUP10 PUSH2 0xEC7 JUMP JUMPDEST PUSH2 0x636 SWAP2 SWAP1 PUSH2 0x22D2 JUMP JUMPDEST PUSH2 0xFDF JUMP JUMPDEST PUSH1 0x1 SWAP2 POP POP SWAP3 SWAP2 POP POP JUMP JUMPDEST PUSH2 0x65A PUSH8 0xCDC016421CD4DE3D PUSH1 0xC0 SHL PUSH2 0x14AD JUMP JUMPDEST PUSH2 0x662 PUSH2 0x14B0 JUMP JUMPDEST PUSH2 0x676 PUSH8 0x5ACC4E0FCACECD6 PUSH1 0xC0 SHL PUSH2 0x14AD JUMP JUMPDEST PUSH2 0x68A PUSH8 0xAB7796E12BA36B6F PUSH1 0xC0 SHL PUSH2 0x14AD JUMP JUMPDEST PUSH2 0x69E PUSH8 0xE65EB23AC1FF0C53 PUSH1 0xC0 SHL PUSH2 0x14AD JUMP JUMPDEST PUSH2 0x6B2 PUSH8 0x27F0C926CF482F6A PUSH1 0xC0 SHL PUSH2 0x14AD JUMP JUMPDEST PUSH2 0x6C6 PUSH8 0xB0FA2DC9662B4B18 PUSH1 0xC0 SHL PUSH2 0x14AD JUMP JUMPDEST PUSH1 0xA SLOAD NUMBER LT ISZERO PUSH2 0x70B JUMPI PUSH1 0x40 MLOAD PUSH32 0x8C379A000000000000000000000000000000000000000000000000000000000 DUP2 MSTORE PUSH1 0x4 ADD PUSH2 0x702 SWAP1 PUSH2 0x2352 JUMP JUMPDEST PUSH1 0x40 MLOAD DUP1 SWAP2 SUB SWAP1 REVERT JUMPDEST PUSH2 0x71F PUSH8 0x6BC94B4DCA9B4754 PUSH1 0xC0 SHL PUSH2 0x14AD JUMP JUMPDEST PUSH2 0x733 PUSH8 0x39FDF7A74EDA647D PUSH1 0xC0 SHL PUSH2 0x14AD JUMP JUMPDEST PUSH2 0x747 PUSH8 0x67DB2AA4EDA8F740 PUSH1 0xC0 SHL PUSH2 0x14AD JUMP JUMPDEST PUSH2 0x759 PUSH2 0x752 PUSH2 0xFD7 JUMP JUMPDEST ADDRESS DUP4 PUSH2 0x5D7 JUMP JUMPDEST POP PUSH2 0x76E PUSH8 0x94FCE0147ED0A7C6 PUSH1 0xC0 SHL PUSH2 0x14AD JUMP JUMPDEST PUSH2 0x782 PUSH8 0xFE2055F61204FEAE PUSH1 0xC0 SHL PUSH2 0x14AD JUMP JUMPDEST PUSH1 0x0 DUP2 PUSH2 0x78D PUSH2 0xAF7 JUMP JUMPDEST PUSH2 0x797 SWAP2 SWAP1 PUSH2 0x2372 JUMP JUMPDEST SWAP1 POP PUSH2 0x7AD PUSH8 0x2F80D264D5566F0D PUSH1 0xC0 SHL PUSH2 0x14AD JUMP JUMPDEST PUSH2 0x7C1 PUSH8 0x6D50F93635EEB308 PUSH1 0xC0 SHL PUSH2 0x14AD JUMP JUMPDEST PUSH1 0x0 PUSH2 0x7CB PUSH2 0xFD7 JUMP JUMPDEST PUSH20 0xFFFFFFFFFFFFFFFFFFFFFFFFFFFFFFFFFFFFFFFF AND DUP3 PUSH1 0x40 MLOAD PUSH2 0x7EE SWAP1 PUSH2 0x23E5 JUMP JUMPDEST PUSH1 0x0 PUSH1 0x40 MLOAD DUP1 DUP4 SUB DUP2 DUP6 DUP8 GAS CALL SWAP3 POP POP POP RETURNDATASIZE DUP1 PUSH1 0x0 DUP2 EQ PUSH2 0x82B JUMPI PUSH1 0x40 MLOAD SWAP2 POP PUSH1 0x1F NOT PUSH1 0x3F RETURNDATASIZE ADD AND DUP3 ADD PUSH1 0x40 MSTORE RETURNDATASIZE DUP3 MSTORE RETURNDATASIZE PUSH1 0x0 PUSH1 0x20 DUP5 ADD RETURNDATACOPY PUSH2 0x830 JUMP JUMPDEST PUSH1 0x60 SWAP2 POP JUMPDEST POP POP SWAP1 POP PUSH2 0x848 PUSH8 0xF2B7F4EC58CCC0AB PUSH1 0xC0 SHL PUSH2 0x14AD JUMP JUMPDEST PUSH2 0x85C PUSH8 0xB55AA28AD4977D7E PUSH1 0xC0 SHL PUSH2 0x14AD JUMP JUMPDEST PUSH2 0x870 PUSH8 0x816BC44AE019AFF9 PUSH1 0xC0 SHL PUSH2 0x14AD JUMP JUMPDEST DUP1 PUSH2 0x8B0 JUMPI PUSH1 0x40 MLOAD PUSH32 0x8C379A000000000000000000000000000000000000000000000000000000000 DUP2 MSTORE PUSH1 0x4 ADD PUSH2 0x8A7 SWAP1 PUSH2 0x2446 JUMP JUMPDEST PUSH1 0x40 MLOAD DUP1 SWAP2 SUB SWAP1 REVERT JUMPDEST PUSH2 0x8C4 PUSH8 0x6533C43A5681A397 PUSH1 0xC0 SHL PUSH2 0x14AD JUMP JUMPDEST PUSH2 0x8D8 PUSH8 0x7CB03C727201159B PUSH1 0xC0 SHL PUSH2 0x14AD JUMP JUMPDEST PUSH2 0x8EC PUSH8 0xFA1F9836FCCCDA8A PUSH1 0xC0 SHL PUSH2 0x14AD JUMP JUMPDEST PUSH32 0xE8BB4EDFB49CB224DB3D7D51F707C053865322C038A54CFCFD81969D0EB1F013 PUSH2 0x915 PUSH2 0xFD7 JUMP JUMPDEST DUP5 PUSH1 0x40 MLOAD PUSH2 0x924 SWAP3 SWAP2 SWAP1 PUSH2 0x2466 JUMP JUMPDEST PUSH1 0x40 MLOAD DUP1 SWAP2 SUB SWAP1 LOG1 POP POP PUSH2 0x936 PUSH2 0x14FF JUMP JUMPDEST POP JUMP JUMPDEST PUSH1 0x9 SLOAD DUP2 JUMP JUMPDEST PUSH1 0x0 PUSH1 0x2 PUSH1 0x0 DUP4 PUSH20 0xFFFFFFFFFFFFFFFFFFFFFFFFFFFFFFFFFFFFFFFF AND PUSH20 0xFFFFFFFFFFFFFFFFFFFFFFFFFFFFFFFFFFFFFFFF AND DUP2 MSTORE PUSH1 0x20 ADD SWAP1 DUP2 MSTORE PUSH1 0x20 ADD PUSH1 0x0 KECCAK256 SLOAD SWAP1 POP SWAP2 SWAP1 POP JUMP JUMPDEST PUSH2 0x990 PUSH2 0x1508 JUMP JUMPDEST PUSH2 0x99A PUSH1 0x0 PUSH2 0x1586 JUMP JUMPDEST JUMP JUMPDEST PUSH1 0x0 DUP1 PUSH1 0x0 SWAP1 SLOAD SWAP1 PUSH2 0x100 EXP SWAP1 DIV PUSH20 0xFFFFFFFFFFFFFFFFFFFFFFFFFFFFFFFFFFFFFFFF AND SWAP1 POP SWAP1 JUMP JUMPDEST PUSH1 0x60 PUSH1 0x6 DUP1 SLOAD PUSH2 0x9D4 SWAP1 PUSH2 0x2272 JUMP JUMPDEST DUP1 PUSH1 0x1F ADD PUSH1 0x20 DUP1 SWAP2 DIV MUL PUSH1 0x20 ADD PUSH1 0x40 MLOAD SWAP1 DUP2 ADD PUSH1 0x40 MSTORE DUP1 SWAP3 SWAP2 SWAP1 DUP2 DUP2 MSTORE PUSH1 0x20 ADD DUP3 DUP1 SLOAD PUSH2 0xA00 SWAP1 PUSH2 0x2272 JUMP JUMPDEST DUP1 ISZERO PUSH2 0xA4D JUMPI DUP1 PUSH1 0x1F LT PUSH2 0xA22 JUMPI PUSH2 0x100 DUP1 DUP4 SLOAD DIV MUL DUP4 MSTORE SWAP2 PUSH1 0x20 ADD SWAP2 PUSH2 0xA4D JUMP JUMPDEST DUP3 ADD SWAP2 SWAP1 PUSH1 0x0 MSTORE PUSH1 0x20 PUSH1 0x0 KECCAK256 SWAP1 JUMPDEST DUP2 SLOAD DUP2 MSTORE SWAP1 PUSH1 0x1 ADD SWAP1 PUSH1 0x20 ADD DUP1 DUP4 GT PUSH2 0xA30 JUMPI DUP3 SWAP1 SUB PUSH1 0x1F AND DUP3 ADD SWAP2 JUMPDEST POP POP POP POP POP SWAP1 POP SWAP1 JUMP JUMPDEST PUSH1 0xA SLOAD DUP2 JUMP JUMPDEST PUSH1 0x0 DUP1 PUSH2 0xA68 PUSH2 0xFD7 JUMP JUMPDEST SWAP1 POP PUSH1 0x0 PUSH2 0xA76 DUP3 DUP7 PUSH2 0xEC7 JUMP JUMPDEST SWAP1 POP DUP4 DUP2 LT ISZERO PUSH2 0xABB JUMPI PUSH1 0x40 MLOAD PUSH32 0x8C379A000000000000000000000000000000000000000000000000000000000 DUP2 MSTORE PUSH1 0x4 ADD PUSH2 0xAB2 SWAP1 PUSH2 0x2501 JUMP JUMPDEST PUSH1 0x40 MLOAD DUP1 SWAP2 SUB SWAP1 REVERT JUMPDEST PUSH2 0xAC8 DUP3 DUP7 DUP7 DUP5 SUB PUSH2 0xFDF JUMP JUMPDEST PUSH1 0x1 SWAP3 POP POP POP SWAP3 SWAP2 POP POP JUMP JUMPDEST PUSH1 0x0 DUP1 PUSH2 0xADF PUSH2 0xFD7 JUMP JUMPDEST SWAP1 POP PUSH2 0xAEC DUP2 DUP6 DUP6 PUSH2 0x1234 JUMP JUMPDEST PUSH1 0x1 SWAP2 POP POP SWAP3 SWAP2 POP POP JUMP JUMPDEST PUSH1 0x0 PUSH2 0xB0D PUSH8 0xEFA8733DE7E3E5F6 PUSH1 0xC0 SHL PUSH2 0x14AD JUMP JUMPDEST PUSH2 0xB21 PUSH8 0x20AE07A6CDDB66F9 PUSH1 0xC0 SHL PUSH2 0x14AD JUMP JUMPDEST PUSH2 0xB35 PUSH8 0xD415F2C1050A18A1 PUSH1 0xC0 SHL PUSH2 0x14AD JUMP JUMPDEST PUSH1 0x0 PUSH2 0xB3F PUSH2 0x5CD JUMP JUMPDEST SWAP1 POP PUSH2 0xB55 PUSH8 0x6A777CA8DA14A613 PUSH1 0xC0 SHL PUSH2 0x14AD JUMP JUMPDEST PUSH2 0xB69 PUSH8 0xE36B3AD0A4CC389F PUSH1 0xC0 SHL PUSH2 0x14AD JUMP JUMPDEST PUSH1 0x0 SELFBALANCE SWAP1 POP PUSH2 0xB82 PUSH8 0x24A6DB4D2D68BC90 PUSH1 0xC0 SHL PUSH2 0x14AD JUMP JUMPDEST PUSH2 0xB96 PUSH8 0x14AC4DD2DA8AA60F PUSH1 0xC0 SHL PUSH2 0x14AD JUMP JUMPDEST PUSH1 0x0 DUP3 EQ DUP1 ISZERO PUSH2 0xBB6 JUMPI POP PUSH2 0xBB5 PUSH8 0x95ABF084CB94990F PUSH1 0xC0 SHL PUSH2 0x164A JUMP JUMPDEST JUMPDEST DUP1 PUSH2 0xBDD JUMPI POP PUSH1 0x0 DUP2 EQ DUP1 ISZERO PUSH2 0xBDC JUMPI POP PUSH2 0xBDB PUSH8 0x547DC638214F640E PUSH1 0xC0 SHL PUSH2 0x164A JUMP JUMPDEST JUMPDEST JUMPDEST ISZERO PUSH2 0xC29 JUMPI PUSH2 0xBF6 PUSH8 0xEDFA5BDBAE6CA411 PUSH1 0xC0 SHL PUSH2 0x14AD JUMP JUMPDEST PUSH2 0xC0A PUSH8 0xD65C8FD052E108BD PUSH1 0xC0 SHL PUSH2 0x14AD JUMP JUMPDEST PUSH2 0xC1E PUSH8 0xD7ECB8E47EDCD525 PUSH1 0xC0 SHL PUSH2 0x14AD JUMP JUMPDEST PUSH1 0x0 SWAP3 POP POP POP PUSH2 0xD26 JUMP JUMPDEST PUSH2 0xC3D PUSH8 0xF6128C86CE099A08 PUSH1 0xC0 SHL PUSH2 0x14AD JUMP JUMPDEST PUSH2 0xC51 PUSH8 0x866309A08081E04E PUSH1 0xC0 SHL PUSH2 0x14AD JUMP JUMPDEST PUSH2 0xC65 PUSH8 0xDEA7B4EDFE9208A0 PUSH1 0xC0 SHL PUSH2 0x14AD JUMP JUMPDEST PUSH1 0x0 PUSH8 0xDE0B6B3A7640000 DUP3 PUSH2 0xC7B SWAP2 SWAP1 PUSH2 0x2372 JUMP JUMPDEST SWAP1 POP PUSH2 0xC91 PUSH8 0x4B5C6A754DB2CC1D PUSH1 0xC0 SHL PUSH2 0x14AD JUMP JUMPDEST PUSH2 0xCA5 PUSH8 0x7A53B924CB363507 PUSH1 0xC0 SHL PUSH2 0x14AD JUMP JUMPDEST PUSH1 0x0 DUP4 DUP3 PUSH2 0xCB3 SWAP2 SWAP1 PUSH2 0x2550 JUMP JUMPDEST SWAP1 POP PUSH2 0xCC9 PUSH8 0x7002EAD2AF4FCFDE PUSH1 0xC0 SHL PUSH2 0x14AD JUMP JUMPDEST PUSH2 0xCDD PUSH8 0xFAE65DE420B7867B PUSH1 0xC0 SHL PUSH2 0x14AD JUMP JUMPDEST PUSH1 0x0 PUSH8 0xDE0B6B3A7640000 DUP3 PUSH2 0xCF3 SWAP2 SWAP1 PUSH2 0x2550 JUMP JUMPDEST SWAP1 POP PUSH2 0xD09 PUSH8 0xE1089477E72355F5 PUSH1 0xC0 SHL PUSH2 0x14AD JUMP JUMPDEST PUSH2 0xD1D PUSH8 0x47BA7D87AD818594 PUSH1 0xC0 SHL PUSH2 0x14AD JUMP JUMPDEST DUP1 SWAP6 POP POP POP POP POP POP JUMPDEST SWAP1 JUMP JUMPDEST PUSH1 0x7 PUSH1 0x0 SWAP1 SLOAD SWAP1 PUSH2 0x100 EXP SWAP1 DIV PUSH20 0xFFFFFFFFFFFFFFFFFFFFFFFFFFFFFFFFFFFFFFFF AND DUP2 JUMP JUMPDEST PUSH2 0xD63 PUSH8 0x7E9E5A0C944FE4ED PUSH1 0xC0 SHL PUSH2 0x14AD JUMP JUMPDEST PUSH2 0xD6B PUSH2 0x14B0 JUMP JUMPDEST PUSH2 0xD7F PUSH8 0xAE524DD61A733DA7 PUSH1 0xC0 SHL PUSH2 0x14AD JUMP JUMPDEST PUSH2 0xD93 PUSH8 0xFFC5B77766A30760 PUSH1 0xC0 SHL PUSH2 0x14AD JUMP JUMPDEST PUSH2 0xDA7 PUSH8 0x13EFF80D52D5F5E6 PUSH1 0xC0 SHL PUSH2 0x14AD JUMP JUMPDEST PUSH2 0xDBB PUSH8 0x7EA7E83EC04B259D PUSH1 0xC0 SHL PUSH2 0x14AD JUMP JUMPDEST PUSH1 0xA SLOAD NUMBER LT PUSH2 0xE0E JUMPI PUSH2 0xDD8 PUSH8 0xB50CD882E83452F7 PUSH1 0xC0 SHL PUSH2 0x14AD JUMP JUMPDEST PUSH2 0xDEC PUSH8 0xA69209894108D59 PUSH1 0xC0 SHL PUSH2 0x14AD JUMP JUMPDEST PUSH2 0xE00 PUSH8 0x8DB482855AAB96D8 PUSH1 0xC0 SHL PUSH2 0x14AD JUMP JUMPDEST PUSH2 0xE09 DUP2 PUSH2 0x1655 JUMP JUMPDEST PUSH2 0xE54 JUMP JUMPDEST PUSH2 0xE22 PUSH8 0xC50862BF1477D9B1 PUSH1 0xC0 SHL PUSH2 0x14AD JUMP JUMPDEST PUSH2 0xE36 PUSH8 0xA016246C14A47B14 PUSH1 0xC0 SHL PUSH2 0x14AD JUMP JUMPDEST PUSH2 0xE4A PUSH8 0xE64A3465F86DCE14 PUSH1 0xC0 SHL PUSH2 0x14AD JUMP JUMPDEST PUSH2 0xE53 DUP2 PUSH2 0x1A90 JUMP JUMPDEST JUMPDEST PUSH2 0xE68 PUSH8 0x67AB71B142385976 PUSH1 0xC0 SHL PUSH2 0x14AD JUMP JUMPDEST PUSH2 0xE7C PUSH8 0x621C0FC93300A42A PUSH1 0xC0 SHL PUSH2 0x14AD JUMP JUMPDEST PUSH32 0x9E3AFF002C0BFDB18B77ADB1051B53EDA74F919EE90E162C2626995E4DB8F055 PUSH2 0xEA5 PUSH2 0xFD7 JUMP JUMPDEST DUP3 PUSH1 0x40 MLOAD PUSH2 0xEB4 SWAP3 SWAP2 SWAP1 PUSH2 0x2466 JUMP JUMPDEST PUSH1 0x40 MLOAD DUP1 SWAP2 SUB SWAP1 LOG1 PUSH2 0xEC4 PUSH2 0x14FF JUMP JUMPDEST POP JUMP JUMPDEST PUSH1 0x0 PUSH1 0x3 PUSH1 0x0 DUP5 PUSH20 0xFFFFFFFFFFFFFFFFFFFFFFFFFFFFFFFFFFFFFFFF AND PUSH20 0xFFFFFFFFFFFFFFFFFFFFFFFFFFFFFFFFFFFFFFFF AND DUP2 MSTORE PUSH1 0x20 ADD SWAP1 DUP2 MSTORE PUSH1 0x20 ADD PUSH1 0x0 KECCAK256 PUSH1 0x0 DUP4 PUSH20 0xFFFFFFFFFFFFFFFFFFFFFFFFFFFFFFFFFFFFFFFF AND PUSH20 0xFFFFFFFFFFFFFFFFFFFFFFFFFFFFFFFFFFFFFFFF AND DUP2 MSTORE PUSH1 0x20 ADD SWAP1 DUP2 MSTORE PUSH1 0x20 ADD PUSH1 0x0 KECCAK256 SLOAD SWAP1 POP SWAP3 SWAP2 POP POP JUMP JUMPDEST PUSH1 0x8 SLOAD DUP2 JUMP JUMPDEST PUSH2 0xF5C PUSH2 0x1508 JUMP JUMPDEST PUSH1 0x0 PUSH20 0xFFFFFFFFFFFFFFFFFFFFFFFFFFFFFFFFFFFFFFFF AND DUP2 PUSH20 0xFFFFFFFFFFFFFFFFFFFFFFFFFFFFFFFFFFFFFFFF AND SUB PUSH2 0xFCB JUMPI PUSH1 0x40 MLOAD PUSH32 0x8C379A000000000000000000000000000000000000000000000000000000000 DUP2 MSTORE PUSH1 0x4 ADD PUSH2 0xFC2 SWAP1 PUSH2 0x25F3 JUMP JUMPDEST PUSH1 0x40 MLOAD DUP1 SWAP2 SUB SWAP1 REVERT JUMPDEST PUSH2 0xFD4 DUP2 PUSH2 0x1586 JUMP JUMPDEST POP JUMP JUMPDEST PUSH1 0x0 CALLER SWAP1 POP SWAP1 JUMP JUMPDEST PUSH1 0x0 PUSH20 0xFFFFFFFFFFFFFFFFFFFFFFFFFFFFFFFFFFFFFFFF AND DUP4 PUSH20 0xFFFFFFFFFFFFFFFFFFFFFFFFFFFFFFFFFFFFFFFF AND SUB PUSH2 0x104E JUMPI PUSH1 0x40 MLOAD PUSH32 0x8C379A000000000000000000000000000000000000000000000000000000000 DUP2 MSTORE PUSH1 0x4 ADD PUSH2 0x1045 SWAP1 PUSH2 0x2685 JUMP JUMPDEST PUSH1 0x40 MLOAD DUP1 SWAP2 SUB SWAP1 REVERT JUMPDEST PUSH1 0x0 PUSH20 0xFFFFFFFFFFFFFFFFFFFFFFFFFFFFFFFFFFFFFFFF AND DUP3 PUSH20 0xFFFFFFFFFFFFFFFFFFFFFFFFFFFFFFFFFFFFFFFF AND SUB PUSH2 0x10BD JUMPI PUSH1 0x40 MLOAD PUSH32 0x8C379A000000000000000000000000000000000000000000000000000000000 DUP2 MSTORE PUSH1 0x4 ADD PUSH2 0x10B4 SWAP1 PUSH2 0x2717 JUMP JUMPDEST PUSH1 0x40 MLOAD DUP1 SWAP2 SUB SWAP1 REVERT JUMPDEST DUP1 PUSH1 0x3 PUSH1 0x0 DUP6 PUSH20 0xFFFFFFFFFFFFFFFFFFFFFFFFFFFFFFFFFFFFFFFF AND PUSH20 0xFFFFFFFFFFFFFFFFFFFFFFFFFFFFFFFFFFFFFFFF AND DUP2 MSTORE PUSH1 0x20 ADD SWAP1 DUP2 MSTORE PUSH1 0x20 ADD PUSH1 0x0 KECCAK256 PUSH1 0x0 DUP5 PUSH20 0xFFFFFFFFFFFFFFFFFFFFFFFFFFFFFFFFFFFFFFFF AND PUSH20 0xFFFFFFFFFFFFFFFFFFFFFFFFFFFFFFFFFFFFFFFF AND DUP2 MSTORE PUSH1 0x20 ADD SWAP1 DUP2 MSTORE PUSH1 0x20 ADD PUSH1 0x0 KECCAK256 DUP2 SWAP1 SSTORE POP DUP2 PUSH20 0xFFFFFFFFFFFFFFFFFFFFFFFFFFFFFFFFFFFFFFFF AND DUP4 PUSH20 0xFFFFFFFFFFFFFFFFFFFFFFFFFFFFFFFFFFFFFFFF AND PUSH32 0x8C5BE1E5EBEC7D5BD14F71427D1E84F3DD0314C0F7B2291E5B200AC8C7C3B925 DUP4 PUSH1 0x40 MLOAD PUSH2 0x119B SWAP2 SWAP1 PUSH2 0x209E JUMP JUMPDEST PUSH1 0x40 MLOAD DUP1 SWAP2 SUB SWAP1 LOG3 POP POP POP JUMP JUMPDEST PUSH1 0x0 PUSH2 0x11B4 DUP5 DUP5 PUSH2 0xEC7 JUMP JUMPDEST SWAP1 POP PUSH32 0xFFFFFFFFFFFFFFFFFFFFFFFFFFFFFFFFFFFFFFFFFFFFFFFFFFFFFFFFFFFFFFFF DUP2 EQ PUSH2 0x122E JUMPI DUP2 DUP2 LT ISZERO PUSH2 0x1220 JUMPI PUSH1 0x40 MLOAD PUSH32 0x8C379A000000000000000000000000000000000000000000000000000000000 DUP2 MSTORE PUSH1 0x4 ADD PUSH2 0x1217 SWAP1 PUSH2 0x2783 JUMP JUMPDEST PUSH1 0x40 MLOAD DUP1 SWAP2 SUB SWAP1 REVERT JUMPDEST PUSH2 0x122D DUP5 DUP5 DUP5 DUP5 SUB PUSH2 0xFDF JUMP JUMPDEST JUMPDEST POP POP POP POP JUMP JUMPDEST PUSH1 0x0 PUSH20 0xFFFFFFFFFFFFFFFFFFFFFFFFFFFFFFFFFFFFFFFF AND DUP4 PUSH20 0xFFFFFFFFFFFFFFFFFFFFFFFFFFFFFFFFFFFFFFFF AND SUB PUSH2 0x12A3 JUMPI PUSH1 0x40 MLOAD PUSH32 0x8C379A000000000000000000000000000000000000000000000000000000000 DUP2 MSTORE PUSH1 0x4 ADD PUSH2 0x129A SWAP1 PUSH2 0x2815 JUMP JUMPDEST PUSH1 0x40 MLOAD DUP1 SWAP2 SUB SWAP1 REVERT JUMPDEST PUSH1 0x0 PUSH20 0xFFFFFFFFFFFFFFFFFFFFFFFFFFFFFFFFFFFFFFFF AND DUP3 PUSH20 0xFFFFFFFFFFFFFFFFFFFFFFFFFFFFFFFFFFFFFFFF AND SUB PUSH2 0x1312 JUMPI PUSH1 0x40 MLOAD PUSH32 0x8C379A000000000000000000000000000000000000000000000000000000000 DUP2 MSTORE PUSH1 0x4 ADD PUSH2 0x1309 SWAP1 PUSH2 0x28A7 JUMP JUMPDEST PUSH1 0x40 MLOAD DUP1 SWAP2 SUB SWAP1 REVERT JUMPDEST PUSH2 0x131D DUP4 DUP4 DUP4 PUSH2 0x1D6D JUMP JUMPDEST PUSH1 0x0 PUSH1 0x2 PUSH1 0x0 DUP6 PUSH20 0xFFFFFFFFFFFFFFFFFFFFFFFFFFFFFFFFFFFFFFFF AND PUSH20 0xFFFFFFFFFFFFFFFFFFFFFFFFFFFFFFFFFFFFFFFF AND DUP2 MSTORE PUSH1 0x20 ADD SWAP1 DUP2 MSTORE PUSH1 0x20 ADD PUSH1 0x0 KECCAK256 SLOAD SWAP1 POP DUP2 DUP2 LT ISZERO PUSH2 0x13A4 JUMPI PUSH1 0x40 MLOAD PUSH32 0x8C379A000000000000000000000000000000000000000000000000000000000 DUP2 MSTORE PUSH1 0x4 ADD PUSH2 0x139B SWAP1 PUSH2 0x2939 JUMP JUMPDEST PUSH1 0x40 MLOAD DUP1 SWAP2 SUB SWAP1 REVERT JUMPDEST DUP2 DUP2 SUB PUSH1 0x2 PUSH1 0x0 DUP7 PUSH20 0xFFFFFFFFFFFFFFFFFFFFFFFFFFFFFFFFFFFFFFFF AND PUSH20 0xFFFFFFFFFFFFFFFFFFFFFFFFFFFFFFFFFFFFFFFF AND DUP2 MSTORE PUSH1 0x20 ADD SWAP1 DUP2 MSTORE PUSH1 0x20 ADD PUSH1 0x0 KECCAK256 DUP2 SWAP1 SSTORE POP DUP2 PUSH1 0x2 PUSH1 0x0 DUP6 PUSH20 0xFFFFFFFFFFFFFFFFFFFFFFFFFFFFFFFFFFFFFFFF AND PUSH20 0xFFFFFFFFFFFFFFFFFFFFFFFFFFFFFFFFFFFFFFFF AND DUP2 MSTORE PUSH1 0x20 ADD SWAP1 DUP2 MSTORE PUSH1 0x20 ADD PUSH1 0x0 KECCAK256 PUSH1 0x0 DUP3 DUP3 SLOAD ADD SWAP3 POP POP DUP2 SWAP1 SSTORE POP DUP3 PUSH20 0xFFFFFFFFFFFFFFFFFFFFFFFFFFFFFFFFFFFFFFFF AND DUP5 PUSH20 0xFFFFFFFFFFFFFFFFFFFFFFFFFFFFFFFFFFFFFFFF AND PUSH32 0xDDF252AD1BE2C89B69C2B068FC378DAA952BA7F163C4A11628F55A4DF523B3EF DUP5 PUSH1 0x40 MLOAD PUSH2 0x1494 SWAP2 SWAP1 PUSH2 0x209E JUMP JUMPDEST PUSH1 0x40 MLOAD DUP1 SWAP2 SUB SWAP1 LOG3 PUSH2 0x14A7 DUP5 DUP5 DUP5 PUSH2 0x1D72 JUMP JUMPDEST POP POP POP POP JUMP JUMPDEST POP JUMP JUMPDEST PUSH1 0x2 PUSH1 0x1 SLOAD SUB PUSH2 0x14F5 JUMPI PUSH1 0x40 MLOAD PUSH32 0x8C379A000000000000000000000000000000000000000000000000000000000 DUP2 MSTORE PUSH1 0x4 ADD PUSH2 0x14EC SWAP1 PUSH2 0x29A5 JUMP JUMPDEST PUSH1 0x40 MLOAD DUP1 SWAP2 SUB SWAP1 REVERT JUMPDEST PUSH1 0x2 PUSH1 0x1 DUP2 SWAP1 SSTORE POP JUMP JUMPDEST PUSH1 0x1 DUP1 DUP2 SWAP1 SSTORE POP JUMP JUMPDEST PUSH2 0x1510 PUSH2 0xFD7 JUMP JUMPDEST PUSH20 0xFFFFFFFFFFFFFFFFFFFFFFFFFFFFFFFFFFFFFFFF AND PUSH2 0x152E PUSH2 0x99C JUMP JUMPDEST PUSH20 0xFFFFFFFFFFFFFFFFFFFFFFFFFFFFFFFFFFFFFFFF AND EQ PUSH2 0x1584 JUMPI PUSH1 0x40 MLOAD PUSH32 0x8C379A000000000000000000000000000000000000000000000000000000000 DUP2 MSTORE PUSH1 0x4 ADD PUSH2 0x157B SWAP1 PUSH2 0x2A11 JUMP JUMPDEST PUSH1 0x40 MLOAD DUP1 SWAP2 SUB SWAP1 REVERT JUMPDEST JUMP JUMPDEST PUSH1 0x0 DUP1 PUSH1 0x0 SWAP1 SLOAD SWAP1 PUSH2 0x100 EXP SWAP1 DIV PUSH20 0xFFFFFFFFFFFFFFFFFFFFFFFFFFFFFFFFFFFFFFFF AND SWAP1 POP DUP2 PUSH1 0x0 DUP1 PUSH2 0x100 EXP DUP2 SLOAD DUP2 PUSH20 0xFFFFFFFFFFFFFFFFFFFFFFFFFFFFFFFFFFFFFFFF MUL NOT AND SWAP1 DUP4 PUSH20 0xFFFFFFFFFFFFFFFFFFFFFFFFFFFFFFFFFFFFFFFF AND MUL OR SWAP1 SSTORE POP DUP2 PUSH20 0xFFFFFFFFFFFFFFFFFFFFFFFFFFFFFFFFFFFFFFFF AND DUP2 PUSH20 0xFFFFFFFFFFFFFFFFFFFFFFFFFFFFFFFFFFFFFFFF AND PUSH32 0x8BE0079C531659141344CD1FD0A4F28419497F9722A3DAAFE3B4186F6B6457E0 PUSH1 0x40 MLOAD PUSH1 0x40 MLOAD DUP1 SWAP2 SUB SWAP1 LOG3 POP POP JUMP JUMPDEST PUSH1 0x0 PUSH1 0x1 SWAP1 POP SWAP2 SWAP1 POP JUMP JUMPDEST PUSH2 0x1669 PUSH8 0xEF12509652F7F3A9 PUSH1 0xC0 SHL PUSH2 0x14AD JUMP JUMPDEST PUSH2 0x167C PUSH7 0xE2479D186948B8 PUSH1 0xC0 SHL PUSH2 0x14AD JUMP JUMPDEST PUSH2 0x1690 PUSH8 0x5C571B7DCAB4E7E7 PUSH1 0xC0 SHL PUSH2 0x14AD JUMP JUMPDEST PUSH1 0x0 PUSH2 0x169B ADDRESS PUSH2 0x93F JUMP JUMPDEST SWAP1 POP PUSH2 0x16B1 PUSH8 0x7F5560C4DF39BB42 PUSH1 0xC0 SHL PUSH2 0x14AD JUMP JUMPDEST PUSH2 0x16C5 PUSH8 0x3EEB2F5E72F1A469 PUSH1 0xC0 SHL PUSH2 0x14AD JUMP JUMPDEST PUSH2 0x16D9 PUSH8 0x528C7727564AB4AD PUSH1 0xC0 SHL PUSH2 0x14AD JUMP JUMPDEST PUSH2 0x16E1 PUSH2 0xAF7 JUMP JUMPDEST DUP3 PUSH2 0x16EC SWAP2 SWAP1 PUSH2 0x2372 JUMP JUMPDEST CALLVALUE EQ PUSH2 0x172D JUMPI PUSH1 0x40 MLOAD PUSH32 0x8C379A000000000000000000000000000000000000000000000000000000000 DUP2 MSTORE PUSH1 0x4 ADD PUSH2 0x1724 SWAP1 PUSH2 0x2A7D JUMP JUMPDEST PUSH1 0x40 MLOAD DUP1 SWAP2 SUB SWAP1 REVERT JUMPDEST PUSH2 0x1741 PUSH8 0x4C33E4844B40EC1D PUSH1 0xC0 SHL PUSH2 0x14AD JUMP JUMPDEST PUSH2 0x1755 PUSH8 0x83D75778B22DD598 PUSH1 0xC0 SHL PUSH2 0x14AD JUMP JUMPDEST PUSH2 0x1769 PUSH8 0xBBED833745B2299C PUSH1 0xC0 SHL PUSH2 0x14AD JUMP JUMPDEST PUSH1 0x0 PUSH2 0x1773 PUSH2 0x5CD JUMP JUMPDEST PUSH1 0x8 SLOAD PUSH2 0x1780 SWAP2 SWAP1 PUSH2 0x2A9D JUMP JUMPDEST DUP3 PUSH2 0x178B SWAP2 SWAP1 PUSH2 0x22D2 JUMP JUMPDEST SWAP1 POP PUSH2 0x17A1 PUSH8 0x3C77EADC0151470B PUSH1 0xC0 SHL PUSH2 0x14AD JUMP JUMPDEST PUSH2 0x17B5 PUSH8 0x5D4D28DA4C0F53E9 PUSH1 0xC0 SHL PUSH2 0x14AD JUMP JUMPDEST PUSH2 0x17C9 PUSH8 0x92C0BE6199DDD771 PUSH1 0xC0 SHL PUSH2 0x14AD JUMP JUMPDEST DUP1 DUP4 GT ISZERO PUSH2 0x180C JUMPI PUSH1 0x40 MLOAD PUSH32 0x8C379A000000000000000000000000000000000000000000000000000000000 DUP2 MSTORE PUSH1 0x4 ADD PUSH2 0x1803 SWAP1 PUSH2 0x2B43 JUMP JUMPDEST PUSH1 0x40 MLOAD DUP1 SWAP2 SUB SWAP1 REVERT JUMPDEST PUSH2 0x1820 PUSH8 0xE92C7AB18BA129D6 PUSH1 0xC0 SHL PUSH2 0x14AD JUMP JUMPDEST PUSH2 0x1834 PUSH8 0xA85C5BB17D8BBD73 PUSH1 0xC0 SHL PUSH2 0x14AD JUMP JUMPDEST PUSH2 0x1848 PUSH8 0xA8DE51A081CEC071 PUSH1 0xC0 SHL PUSH2 0x14AD JUMP JUMPDEST PUSH2 0x185C PUSH8 0xBBA4D1C9F776518D PUSH1 0xC0 SHL PUSH2 0x14AD JUMP JUMPDEST DUP3 PUSH2 0x1865 PUSH2 0xAF7 JUMP JUMPDEST PUSH2 0x186F SWAP2 SWAP1 PUSH2 0x2372 JUMP JUMPDEST CALLVALUE EQ PUSH2 0x18B0 JUMPI PUSH1 0x40 MLOAD PUSH32 0x8C379A000000000000000000000000000000000000000000000000000000000 DUP2 MSTORE PUSH1 0x4 ADD PUSH2 0x18A7 SWAP1 PUSH2 0x2A7D JUMP JUMPDEST PUSH1 0x40 MLOAD DUP1 SWAP2 SUB SWAP1 REVERT JUMPDEST PUSH2 0x18C4 PUSH8 0x74D6AEC01A1EA416 PUSH1 0xC0 SHL PUSH2 0x14AD JUMP JUMPDEST PUSH2 0x18D8 PUSH8 0xDC4E63BFCAE7F85 PUSH1 0xC0 SHL PUSH2 0x14AD JUMP JUMPDEST PUSH2 0x18EC PUSH8 0xD1F5472C949D0C52 PUSH1 0xC0 SHL PUSH2 0x14AD JUMP JUMPDEST DUP2 DUP4 GT PUSH2 0x1946 JUMPI PUSH2 0x1907 PUSH8 0x28BE8AF9FAB6A968 PUSH1 0xC0 SHL PUSH2 0x14AD JUMP JUMPDEST PUSH2 0x191B PUSH8 0xDCF2756BC266F9BC PUSH1 0xC0 SHL PUSH2 0x14AD JUMP JUMPDEST PUSH2 0x192F PUSH8 0xBB327495AB13070C PUSH1 0xC0 SHL PUSH2 0x14AD JUMP JUMPDEST PUSH2 0x1940 PUSH2 0x193A PUSH2 0xFD7 JUMP JUMPDEST DUP5 PUSH2 0xAD4 JUMP JUMPDEST POP PUSH2 0x1A8B JUMP JUMPDEST PUSH2 0x195A PUSH8 0xB32001C2F4FEEADB PUSH1 0xC0 SHL PUSH2 0x14AD JUMP JUMPDEST PUSH2 0x196E PUSH8 0x299519891CDE23E6 PUSH1 0xC0 SHL PUSH2 0x14AD JUMP JUMPDEST PUSH1 0x0 DUP3 GT ISZERO PUSH2 0x1A3C JUMPI PUSH2 0x198B PUSH8 0x238172CB93166F83 PUSH1 0xC0 SHL PUSH2 0x14AD JUMP JUMPDEST PUSH2 0x199F PUSH8 0xC0EA11AA7681DF9F PUSH1 0xC0 SHL PUSH2 0x14AD JUMP JUMPDEST PUSH2 0x19B3 PUSH8 0x1C55572F3B8B19C6 PUSH1 0xC0 SHL PUSH2 0x14AD JUMP JUMPDEST PUSH1 0x0 DUP3 DUP5 PUSH2 0x19C1 SWAP2 SWAP1 PUSH2 0x2A9D JUMP JUMPDEST SWAP1 POP PUSH2 0x19D7 PUSH8 0xA09BCC952333A915 PUSH1 0xC0 SHL PUSH2 0x14AD JUMP JUMPDEST PUSH2 0x19EB PUSH8 0x6A00B962365E82EE PUSH1 0xC0 SHL PUSH2 0x14AD JUMP JUMPDEST PUSH2 0x19FC PUSH2 0x19F6 PUSH2 0xFD7 JUMP JUMPDEST DUP5 PUSH2 0xAD4 JUMP JUMPDEST POP PUSH2 0x1A11 PUSH8 0x2A2E03F3872B9112 PUSH1 0xC0 SHL PUSH2 0x14AD JUMP JUMPDEST PUSH2 0x1A25 PUSH8 0xFB5622567E66DC5 PUSH1 0xC0 SHL PUSH2 0x14AD JUMP JUMPDEST PUSH2 0x1A36 PUSH2 0x1A30 PUSH2 0xFD7 JUMP JUMPDEST DUP3 PUSH2 0x1D77 JUMP JUMPDEST POP PUSH2 0x1A8A JUMP JUMPDEST PUSH2 0x1A50 PUSH8 0x5E38604E3581330A PUSH1 0xC0 SHL PUSH2 0x14AD JUMP JUMPDEST PUSH2 0x1A64 PUSH8 0x68C22F3A082BB0EE PUSH1 0xC0 SHL PUSH2 0x14AD JUMP JUMPDEST PUSH2 0x1A78 PUSH8 0xB92C68D5D6FD2F69 PUSH1 0xC0 SHL PUSH2 0x14AD JUMP JUMPDEST PUSH2 0x1A89 PUSH2 0x1A83 PUSH2 0xFD7 JUMP JUMPDEST DUP5 PUSH2 0x1D77 JUMP JUMPDEST JUMPDEST JUMPDEST POP POP POP JUMP JUMPDEST PUSH2 0x1AA4 PUSH8 0x461458E1F1FC1010 PUSH1 0xC0 SHL PUSH2 0x14AD JUMP JUMPDEST PUSH2 0x1AB8 PUSH8 0x385B300314BF2476 PUSH1 0xC0 SHL PUSH2 0x14AD JUMP JUMPDEST PUSH2 0x1ACC PUSH8 0x769B4DF5A89C9E47 PUSH1 0xC0 SHL PUSH2 0x14AD JUMP JUMPDEST PUSH2 0x1AE0 PUSH8 0x10B9E63079629C80 PUSH1 0xC0 SHL PUSH2 0x14AD JUMP JUMPDEST PUSH1 0x9 SLOAD DUP2 PUSH2 0x1AEE SWAP2 SWAP1 PUSH2 0x2372 JUMP JUMPDEST CALLVALUE EQ PUSH2 0x1B2F JUMPI PUSH1 0x40 MLOAD PUSH32 0x8C379A000000000000000000000000000000000000000000000000000000000 DUP2 MSTORE PUSH1 0x4 ADD PUSH2 0x1B26 SWAP1 PUSH2 0x2A7D JUMP JUMPDEST PUSH1 0x40 MLOAD DUP1 SWAP2 SUB SWAP1 REVERT JUMPDEST PUSH2 0x1B43 PUSH8 0x9FF9B7D2939DE6D7 PUSH1 0xC0 SHL PUSH2 0x14AD JUMP JUMPDEST PUSH2 0x1B57 PUSH8 0x5929440D9527EB0 PUSH1 0xC0 SHL PUSH2 0x14AD JUMP JUMPDEST PUSH2 0x1B6B PUSH8 0xA342D519069EF7CF PUSH1 0xC0 SHL PUSH2 0x14AD JUMP JUMPDEST PUSH2 0x1B7F PUSH8 0x5D5DEA60B4F903D6 PUSH1 0xC0 SHL PUSH2 0x14AD JUMP JUMPDEST PUSH1 0x8 SLOAD PUSH2 0x1B8A PUSH2 0x5CD JUMP JUMPDEST DUP3 PUSH2 0x1B95 SWAP2 SWAP1 PUSH2 0x22D2 JUMP JUMPDEST GT ISZERO PUSH2 0x1BD6 JUMPI PUSH1 0x40 MLOAD PUSH32 0x8C379A000000000000000000000000000000000000000000000000000000000 DUP2 MSTORE PUSH1 0x4 ADD PUSH2 0x1BCD SWAP1 PUSH2 0x2B43 JUMP JUMPDEST PUSH1 0x40 MLOAD DUP1 SWAP2 SUB SWAP1 REVERT JUMPDEST PUSH2 0x1BEA PUSH8 0x20D685592363554C PUSH1 0xC0 SHL PUSH2 0x14AD JUMP JUMPDEST PUSH2 0x1BFE PUSH8 0xE744D07DD6599ADF PUSH1 0xC0 SHL PUSH2 0x14AD JUMP JUMPDEST PUSH2 0x1C12 PUSH8 0xB51E7B68FB31D17F PUSH1 0xC0 SHL PUSH2 0x14AD JUMP JUMPDEST PUSH2 0x1C23 PUSH2 0x1C1D PUSH2 0xFD7 JUMP JUMPDEST DUP3 PUSH2 0x1D77 JUMP JUMPDEST PUSH2 0x1C37 PUSH8 0xC9A0AAF68268D4D6 PUSH1 0xC0 SHL PUSH2 0x14AD JUMP JUMPDEST PUSH2 0x1C4B PUSH8 0x9CEC51F03D4A1CBE PUSH1 0xC0 SHL PUSH2 0x14AD JUMP JUMPDEST PUSH1 0x0 PUSH1 0x7 PUSH1 0x0 SWAP1 SLOAD SWAP1 PUSH2 0x100 EXP SWAP1 DIV PUSH20 0xFFFFFFFFFFFFFFFFFFFFFFFFFFFFFFFFFFFFFFFF AND PUSH20 0xFFFFFFFFFFFFFFFFFFFFFFFFFFFFFFFFFFFFFFFF AND CALLVALUE PUSH1 0x40 MLOAD PUSH2 0x1C93 SWAP1 PUSH2 0x23E5 JUMP JUMPDEST PUSH1 0x0 PUSH1 0x40 MLOAD DUP1 DUP4 SUB DUP2 DUP6 DUP8 GAS CALL SWAP3 POP POP POP RETURNDATASIZE DUP1 PUSH1 0x0 DUP2 EQ PUSH2 0x1CD0 JUMPI PUSH1 0x40 MLOAD SWAP2 POP PUSH1 0x1F NOT PUSH1 0x3F RETURNDATASIZE ADD AND DUP3 ADD PUSH1 0x40 MSTORE RETURNDATASIZE DUP3 MSTORE RETURNDATASIZE PUSH1 0x0 PUSH1 0x20 DUP5 ADD RETURNDATACOPY PUSH2 0x1CD5 JUMP JUMPDEST PUSH1 0x60 SWAP2 POP JUMPDEST POP POP SWAP1 POP PUSH2 0x1CED PUSH8 0x53BF09370D5BF72D PUSH1 0xC0 SHL PUSH2 0x14AD JUMP JUMPDEST PUSH2 0x1D01 PUSH8 0x2EDEAC71AF4F9FB0 PUSH1 0xC0 SHL PUSH2 0x14AD JUMP JUMPDEST PUSH2 0x1D15 PUSH8 0x8971EB0F8BEF6E1C PUSH1 0xC0 SHL PUSH2 0x14AD JUMP JUMPDEST DUP1 PUSH2 0x1D55 JUMPI PUSH1 0x40 MLOAD PUSH32 0x8C379A000000000000000000000000000000000000000000000000000000000 DUP2 MSTORE PUSH1 0x4 ADD PUSH2 0x1D4C SWAP1 PUSH2 0x2446 JUMP JUMPDEST PUSH1 0x40 MLOAD DUP1 SWAP2 SUB SWAP1 REVERT JUMPDEST PUSH2 0x1D69 PUSH8 0x62108BF105B65892 PUSH1 0xC0 SHL PUSH2 0x14AD JUMP JUMPDEST POP POP JUMP JUMPDEST POP POP POP JUMP JUMPDEST POP POP POP JUMP JUMPDEST PUSH1 0x0 PUSH20 0xFFFFFFFFFFFFFFFFFFFFFFFFFFFFFFFFFFFFFFFF AND DUP3 PUSH20 0xFFFFFFFFFFFFFFFFFFFFFFFFFFFFFFFFFFFFFFFF AND SUB PUSH2 0x1DE6 JUMPI PUSH1 0x40 MLOAD PUSH32 0x8C379A000000000000000000000000000000000000000000000000000000000 DUP2 MSTORE PUSH1 0x4 ADD PUSH2 0x1DDD SWAP1 PUSH2 0x2BAF JUMP JUMPDEST PUSH1 0x40 MLOAD DUP1 SWAP2 SUB SWAP1 REVERT JUMPDEST PUSH2 0x1DF2 PUSH1 0x0 DUP4 DUP4 PUSH2 0x1D6D JUMP JUMPDEST DUP1 PUSH1 0x4 PUSH1 0x0 DUP3 DUP3 SLOAD PUSH2 0x1E04 SWAP2 SWAP1 PUSH2 0x22D2 JUMP JUMPDEST SWAP3 POP POP DUP2 SWAP1 SSTORE POP DUP1 PUSH1 0x2 PUSH1 0x0 DUP5 PUSH20 0xFFFFFFFFFFFFFFFFFFFFFFFFFFFFFFFFFFFFFFFF AND PUSH20 0xFFFFFFFFFFFFFFFFFFFFFFFFFFFFFFFFFFFFFFFF AND DUP2 MSTORE PUSH1 0x20 ADD SWAP1 DUP2 MSTORE PUSH1 0x20 ADD PUSH1 0x0 KECCAK256 PUSH1 0x0 DUP3 DUP3 SLOAD ADD SWAP3 POP POP DUP2 SWAP1 SSTORE POP DUP2 PUSH20 0xFFFFFFFFFFFFFFFFFFFFFFFFFFFFFFFFFFFFFFFF AND PUSH1 0x0 PUSH20 0xFFFFFFFFFFFFFFFFFFFFFFFFFFFFFFFFFFFFFFFF AND PUSH32 0xDDF252AD1BE2C89B69C2B068FC378DAA952BA7F163C4A11628F55A4DF523B3EF DUP4 PUSH1 0x40 MLOAD PUSH2 0x1EB6 SWAP2 SWAP1 PUSH2 0x209E JUMP JUMPDEST PUSH1 0x40 MLOAD DUP1 SWAP2 SUB SWAP1 LOG3 PUSH2 0x1ECA PUSH1 0x0 DUP4 DUP4 PUSH2 0x1D72 JUMP JUMPDEST POP POP JUMP JUMPDEST PUSH1 0x0 DUP2 MLOAD SWAP1 POP SWAP2 SWAP1 POP JUMP JUMPDEST PUSH1 0x0 DUP3 DUP3 MSTORE PUSH1 0x20 DUP3 ADD SWAP1 POP SWAP3 SWAP2 POP POP JUMP JUMPDEST PUSH1 0x0 JUMPDEST DUP4 DUP2 LT ISZERO PUSH2 0x1F08 JUMPI DUP1 DUP3 ADD MLOAD DUP2 DUP5 ADD MSTORE PUSH1 0x20 DUP2 ADD SWAP1 POP PUSH2 0x1EED JUMP JUMPDEST PUSH1 0x0 DUP5 DUP5 ADD MSTORE POP POP POP POP JUMP JUMPDEST PUSH1 0x0 PUSH1 0x1F NOT PUSH1 0x1F DUP4 ADD AND SWAP1 POP SWAP2 SWAP1 POP JUMP JUMPDEST PUSH1 0x0 PUSH2 0x1F30 DUP3 PUSH2 0x1ECE JUMP JUMPDEST PUSH2 0x1F3A DUP2 DUP6 PUSH2 0x1ED9 JUMP JUMPDEST SWAP4 POP PUSH2 0x1F4A DUP2 DUP6 PUSH1 0x20 DUP7 ADD PUSH2 0x1EEA JUMP JUMPDEST PUSH2 0x1F53 DUP2 PUSH2 0x1F14 JUMP JUMPDEST DUP5 ADD SWAP2 POP POP SWAP3 SWAP2 POP POP JUMP JUMPDEST PUSH1 0x0 PUSH1 0x20 DUP3 ADD SWAP1 POP DUP2 DUP2 SUB PUSH1 0x0 DUP4 ADD MSTORE PUSH2 0x1F78 DUP2 DUP5 PUSH2 0x1F25 JUMP JUMPDEST SWAP1 POP SWAP3 SWAP2 POP POP JUMP JUMPDEST PUSH1 0x0 DUP1 REVERT JUMPDEST PUSH1 0x0 PUSH20 0xFFFFFFFFFFFFFFFFFFFFFFFFFFFFFFFFFFFFFFFF DUP3 AND SWAP1 POP SWAP2 SWAP1 POP JUMP JUMPDEST PUSH1 0x0 PUSH2 0x1FB0 DUP3 PUSH2 0x1F85 JUMP JUMPDEST SWAP1 POP SWAP2 SWAP1 POP JUMP JUMPDEST PUSH2 0x1FC0 DUP2 PUSH2 0x1FA5 JUMP JUMPDEST DUP2 EQ PUSH2 0x1FCB JUMPI PUSH1 0x0 DUP1 REVERT JUMPDEST POP JUMP JUMPDEST PUSH1 0x0 DUP2 CALLDATALOAD SWAP1 POP PUSH2 0x1FDD DUP2 PUSH2 0x1FB7 JUMP JUMPDEST SWAP3 SWAP2 POP POP JUMP JUMPDEST PUSH1 0x0 DUP2 SWAP1 POP SWAP2 SWAP1 POP JUMP JUMPDEST PUSH2 0x1FF6 DUP2 PUSH2 0x1FE3 JUMP JUMPDEST DUP2 EQ PUSH2 0x2001 JUMPI PUSH1 0x0 DUP1 REVERT JUMPDEST POP JUMP JUMPDEST PUSH1 0x0 DUP2 CALLDATALOAD SWAP1 POP PUSH2 0x2013 DUP2 PUSH2 0x1FED JUMP JUMPDEST SWAP3 SWAP2 POP POP JUMP JUMPDEST PUSH1 0x0 DUP1 PUSH1 0x40 DUP4 DUP6 SUB SLT ISZERO PUSH2 0x2030 JUMPI PUSH2 0x202F PUSH2 0x1F80 JUMP JUMPDEST JUMPDEST PUSH1 0x0 PUSH2 0x203E DUP6 DUP3 DUP7 ADD PUSH2 0x1FCE JUMP JUMPDEST SWAP3 POP POP PUSH1 0x20 PUSH2 0x204F DUP6 DUP3 DUP7 ADD PUSH2 0x2004 JUMP JUMPDEST SWAP2 POP POP SWAP3 POP SWAP3 SWAP1 POP JUMP JUMPDEST PUSH1 0x0 DUP2 ISZERO ISZERO SWAP1 POP SWAP2 SWAP1 POP JUMP JUMPDEST PUSH2 0x206E DUP2 PUSH2 0x2059 JUMP JUMPDEST DUP3 MSTORE POP POP JUMP JUMPDEST PUSH1 0x0 PUSH1 0x20 DUP3 ADD SWAP1 POP PUSH2 0x2089 PUSH1 0x0 DUP4 ADD DUP5 PUSH2 0x2065 JUMP JUMPDEST SWAP3 SWAP2 POP POP JUMP JUMPDEST PUSH2 0x2098 DUP2 PUSH2 0x1FE3 JUMP JUMPDEST DUP3 MSTORE POP POP JUMP JUMPDEST PUSH1 0x0 PUSH1 0x20 DUP3 ADD SWAP1 POP PUSH2 0x20B3 PUSH1 0x0 DUP4 ADD DUP5 PUSH2 0x208F JUMP JUMPDEST SWAP3 SWAP2 POP POP JUMP JUMPDEST PUSH1 0x0 DUP1 PUSH1 0x0 PUSH1 0x60 DUP5 DUP7 SUB SLT ISZERO PUSH2 0x20D2 JUMPI PUSH2 0x20D1 PUSH2 0x1F80 JUMP JUMPDEST JUMPDEST PUSH1 0x0 PUSH2 0x20E0 DUP7 DUP3 DUP8 ADD PUSH2 0x1FCE JUMP JUMPDEST SWAP4 POP POP PUSH1 0x20 PUSH2 0x20F1 DUP7 DUP3 DUP8 ADD PUSH2 0x1FCE JUMP JUMPDEST SWAP3 POP POP PUSH1 0x40 PUSH2 0x2102 DUP7 DUP3 DUP8 ADD PUSH2 0x2004 JUMP JUMPDEST SWAP2 POP POP SWAP3 POP SWAP3 POP SWAP3 JUMP JUMPDEST PUSH1 0x0 PUSH1 0xFF DUP3 AND SWAP1 POP SWAP2 SWAP1 POP JUMP JUMPDEST PUSH2 0x2122 DUP2 PUSH2 0x210C JUMP JUMPDEST DUP3 MSTORE POP POP JUMP JUMPDEST PUSH1 0x0 PUSH1 0x20 DUP3 ADD SWAP1 POP PUSH2 0x213D PUSH1 0x0 DUP4 ADD DUP5 PUSH2 0x2119 JUMP JUMPDEST SWAP3 SWAP2 POP POP JUMP JUMPDEST PUSH1 0x0 PUSH1 0x20 DUP3 DUP5 SUB SLT ISZERO PUSH2 0x2159 JUMPI PUSH2 0x2158 PUSH2 0x1F80 JUMP JUMPDEST JUMPDEST PUSH1 0x0 PUSH2 0x2167 DUP5 DUP3 DUP6 ADD PUSH2 0x2004 JUMP JUMPDEST SWAP2 POP POP SWAP3 SWAP2 POP POP JUMP JUMPDEST PUSH1 0x0 PUSH1 0x20 DUP3 DUP5 SUB SLT ISZERO PUSH2 0x2186 JUMPI PUSH2 0x2185 PUSH2 0x1F80 JUMP JUMPDEST JUMPDEST PUSH1 0x0 PUSH2 0x2194 DUP5 DUP3 DUP6 ADD PUSH2 0x1FCE JUMP JUMPDEST SWAP2 POP POP SWAP3 SWAP2 POP POP JUMP JUMPDEST PUSH2 0x21A6 DUP2 PUSH2 0x1FA5 JUMP JUMPDEST DUP3 MSTORE POP POP JUMP JUMPDEST PUSH1 0x0 PUSH1 0x20 DUP3 ADD SWAP1 POP PUSH2 0x21C1 PUSH1 0x0 DUP4 ADD DUP5 PUSH2 0x219D JUMP JUMPDEST SWAP3 SWAP2 POP POP JUMP JUMPDEST PUSH1 0x0 PUSH2 0x21D2 DUP3 PUSH2 0x1F85 JUMP JUMPDEST SWAP1 POP SWAP2 SWAP1 POP JUMP JUMPDEST PUSH2 0x21E2 DUP2 PUSH2 0x21C7 JUMP JUMPDEST DUP3 MSTORE POP POP JUMP JUMPDEST PUSH1 0x0 PUSH1 0x20 DUP3 ADD SWAP1 POP PUSH2 0x21FD PUSH1 0x0 DUP4 ADD DUP5 PUSH2 0x21D9 JUMP JUMPDEST SWAP3 SWAP2 POP POP JUMP JUMPDEST PUSH1 0x0 DUP1 PUSH1 0x40 DUP4 DUP6 SUB SLT ISZERO PUSH2 0x221A JUMPI PUSH2 0x2219 PUSH2 0x1F80 JUMP JUMPDEST JUMPDEST PUSH1 0x0 PUSH2 0x2228 DUP6 DUP3 DUP7 ADD PUSH2 0x1FCE JUMP JUMPDEST SWAP3 POP POP PUSH1 0x20 PUSH2 0x2239 DUP6 DUP3 DUP7 ADD PUSH2 0x1FCE JUMP JUMPDEST SWAP2 POP POP SWAP3 POP SWAP3 SWAP1 POP JUMP JUMPDEST PUSH32 0x4E487B7100000000000000000000000000000000000000000000000000000000 PUSH1 0x0 MSTORE PUSH1 0x22 PUSH1 0x4 MSTORE PUSH1 0x24 PUSH1 0x0 REVERT JUMPDEST PUSH1 0x0 PUSH1 0x2 DUP3 DIV SWAP1 POP PUSH1 0x1 DUP3 AND DUP1 PUSH2 0x228A JUMPI PUSH1 0x7F DUP3 AND SWAP2 POP JUMPDEST PUSH1 0x20 DUP3 LT DUP2 SUB PUSH2 0x229D JUMPI PUSH2 0x229C PUSH2 0x2243 JUMP JUMPDEST JUMPDEST POP SWAP2 SWAP1 POP JUMP JUMPDEST PUSH32 0x4E487B7100000000000000000000000000000000000000000000000000000000 PUSH1 0x0 MSTORE PUSH1 0x11 PUSH1 0x4 MSTORE PUSH1 0x24 PUSH1 0x0 REVERT JUMPDEST PUSH1 0x0 PUSH2 0x22DD DUP3 PUSH2 0x1FE3 JUMP JUMPDEST SWAP2 POP PUSH2 0x22E8 DUP4 PUSH2 0x1FE3 JUMP JUMPDEST SWAP3 POP DUP3 DUP3 ADD SWAP1 POP DUP1 DUP3 GT ISZERO PUSH2 0x2300 JUMPI PUSH2 0x22FF PUSH2 0x22A3 JUMP JUMPDEST JUMPDEST SWAP3 SWAP2 POP POP JUMP JUMPDEST PUSH32 0x56657374696E6720706572696F64206973206E6F74206F766572000000000000 PUSH1 0x0 DUP3 ADD MSTORE POP JUMP JUMPDEST PUSH1 0x0 PUSH2 0x233C PUSH1 0x1A DUP4 PUSH2 0x1ED9 JUMP JUMPDEST SWAP2 POP PUSH2 0x2347 DUP3 PUSH2 0x2306 JUMP JUMPDEST PUSH1 0x20 DUP3 ADD SWAP1 POP SWAP2 SWAP1 POP JUMP JUMPDEST PUSH1 0x0 PUSH1 0x20 DUP3 ADD SWAP1 POP DUP2 DUP2 SUB PUSH1 0x0 DUP4 ADD MSTORE PUSH2 0x236B DUP2 PUSH2 0x232F JUMP JUMPDEST SWAP1 POP SWAP2 SWAP1 POP JUMP JUMPDEST PUSH1 0x0 PUSH2 0x237D DUP3 PUSH2 0x1FE3 JUMP JUMPDEST SWAP2 POP PUSH2 0x2388 DUP4 PUSH2 0x1FE3 JUMP JUMPDEST SWAP3 POP DUP3 DUP3 MUL PUSH2 0x2396 DUP2 PUSH2 0x1FE3 JUMP JUMPDEST SWAP2 POP DUP3 DUP3 DIV DUP5 EQ DUP4 ISZERO OR PUSH2 0x23AD JUMPI PUSH2 0x23AC PUSH2 0x22A3 JUMP JUMPDEST JUMPDEST POP SWAP3 SWAP2 POP POP JUMP JUMPDEST PUSH1 0x0 DUP2 SWAP1 POP SWAP3 SWAP2 POP POP JUMP JUMPDEST POP JUMP JUMPDEST PUSH1 0x0 PUSH2 0x23CF PUSH1 0x0 DUP4 PUSH2 0x23B4 JUMP JUMPDEST SWAP2 POP PUSH2 0x23DA DUP3 PUSH2 0x23BF JUMP JUMPDEST PUSH1 0x0 DUP3 ADD SWAP1 POP SWAP2 SWAP1 POP JUMP JUMPDEST PUSH1 0x0 PUSH2 0x23F0 DUP3 PUSH2 0x23C2 JUMP JUMPDEST SWAP2 POP DUP2 SWAP1 POP SWAP2 SWAP1 POP JUMP JUMPDEST PUSH32 0x4661696C656420746F2073656E64204574686572000000000000000000000000 PUSH1 0x0 DUP3 ADD MSTORE POP JUMP JUMPDEST PUSH1 0x0 PUSH2 0x2430 PUSH1 0x14 DUP4 PUSH2 0x1ED9 JUMP JUMPDEST SWAP2 POP PUSH2 0x243B DUP3 PUSH2 0x23FA JUMP JUMPDEST PUSH1 0x20 DUP3 ADD SWAP1 POP SWAP2 SWAP1 POP JUMP JUMPDEST PUSH1 0x0 PUSH1 0x20 DUP3 ADD SWAP1 POP DUP2 DUP2 SUB PUSH1 0x0 DUP4 ADD MSTORE PUSH2 0x245F DUP2 PUSH2 0x2423 JUMP JUMPDEST SWAP1 POP SWAP2 SWAP1 POP JUMP JUMPDEST PUSH1 0x0 PUSH1 0x40 DUP3 ADD SWAP1 POP PUSH2 0x247B PUSH1 0x0 DUP4 ADD DUP6 PUSH2 0x219D JUMP JUMPDEST PUSH2 0x2488 PUSH1 0x20 DUP4 ADD DUP5 PUSH2 0x208F JUMP JUMPDEST SWAP4 SWAP3 POP POP POP JUMP JUMPDEST PUSH32 0x45524332303A2064656372656173656420616C6C6F77616E63652062656C6F77 PUSH1 0x0 DUP3 ADD MSTORE PUSH32 0x207A65726F000000000000000000000000000000000000000000000000000000 PUSH1 0x20 DUP3 ADD MSTORE POP JUMP JUMPDEST PUSH1 0x0 PUSH2 0x24EB PUSH1 0x25 DUP4 PUSH2 0x1ED9 JUMP JUMPDEST SWAP2 POP PUSH2 0x24F6 DUP3 PUSH2 0x248F JUMP JUMPDEST PUSH1 0x40 DUP3 ADD SWAP1 POP SWAP2 SWAP1 POP JUMP JUMPDEST PUSH1 0x0 PUSH1 0x20 DUP3 ADD SWAP1 POP DUP2 DUP2 SUB PUSH1 0x0 DUP4 ADD MSTORE PUSH2 0x251A DUP2 PUSH2 0x24DE JUMP JUMPDEST SWAP1 POP SWAP2 SWAP1 POP JUMP JUMPDEST PUSH32 0x4E487B7100000000000000000000000000000000000000000000000000000000 PUSH1 0x0 MSTORE PUSH1 0x12 PUSH1 0x4 MSTORE PUSH1 0x24 PUSH1 0x0 REVERT JUMPDEST PUSH1 0x0 PUSH2 0x255B DUP3 PUSH2 0x1FE3 JUMP JUMPDEST SWAP2 POP PUSH2 0x2566 DUP4 PUSH2 0x1FE3 JUMP JUMPDEST SWAP3 POP DUP3 PUSH2 0x2576 JUMPI PUSH2 0x2575 PUSH2 0x2521 JUMP JUMPDEST JUMPDEST DUP3 DUP3 DIV SWAP1 POP SWAP3 SWAP2 POP POP JUMP JUMPDEST PUSH32 0x4F776E61626C653A206E6577206F776E657220697320746865207A65726F2061 PUSH1 0x0 DUP3 ADD MSTORE PUSH32 0x6464726573730000000000000000000000000000000000000000000000000000 PUSH1 0x20 DUP3 ADD MSTORE POP JUMP JUMPDEST PUSH1 0x0 PUSH2 0x25DD PUSH1 0x26 DUP4 PUSH2 0x1ED9 JUMP JUMPDEST SWAP2 POP PUSH2 0x25E8 DUP3 PUSH2 0x2581 JUMP JUMPDEST PUSH1 0x40 DUP3 ADD SWAP1 POP SWAP2 SWAP1 POP JUMP JUMPDEST PUSH1 0x0 PUSH1 0x20 DUP3 ADD SWAP1 POP DUP2 DUP2 SUB PUSH1 0x0 DUP4 ADD MSTORE PUSH2 0x260C DUP2 PUSH2 0x25D0 JUMP JUMPDEST SWAP1 POP SWAP2 SWAP1 POP JUMP JUMPDEST PUSH32 0x45524332303A20617070726F76652066726F6D20746865207A65726F20616464 PUSH1 0x0 DUP3 ADD MSTORE PUSH32 0x7265737300000000000000000000000000000000000000000000000000000000 PUSH1 0x20 DUP3 ADD MSTORE POP JUMP JUMPDEST PUSH1 0x0 PUSH2 0x266F PUSH1 0x24 DUP4 PUSH2 0x1ED9 JUMP JUMPDEST SWAP2 POP PUSH2 0x267A DUP3 PUSH2 0x2613 JUMP JUMPDEST PUSH1 0x40 DUP3 ADD SWAP1 POP SWAP2 SWAP1 POP JUMP JUMPDEST PUSH1 0x0 PUSH1 0x20 DUP3 ADD SWAP1 POP DUP2 DUP2 SUB PUSH1 0x0 DUP4 ADD MSTORE PUSH2 0x269E DUP2 PUSH2 0x2662 JUMP JUMPDEST SWAP1 POP SWAP2 SWAP1 POP JUMP JUMPDEST PUSH32 0x45524332303A20617070726F766520746F20746865207A65726F206164647265 PUSH1 0x0 DUP3 ADD MSTORE PUSH32 0x7373000000000000000000000000000000000000000000000000000000000000 PUSH1 0x20 DUP3 ADD MSTORE POP JUMP JUMPDEST PUSH1 0x0 PUSH2 0x2701 PUSH1 0x22 DUP4 PUSH2 0x1ED9 JUMP JUMPDEST SWAP2 POP PUSH2 0x270C DUP3 PUSH2 0x26A5 JUMP JUMPDEST PUSH1 0x40 DUP3 ADD SWAP1 POP SWAP2 SWAP1 POP JUMP JUMPDEST PUSH1 0x0 PUSH1 0x20 DUP3 ADD SWAP1 POP DUP2 DUP2 SUB PUSH1 0x0 DUP4 ADD MSTORE PUSH2 0x2730 DUP2 PUSH2 0x26F4 JUMP JUMPDEST SWAP1 POP SWAP2 SWAP1 POP JUMP JUMPDEST PUSH32 0x45524332303A20696E73756666696369656E7420616C6C6F77616E6365000000 PUSH1 0x0 DUP3 ADD MSTORE POP JUMP JUMPDEST PUSH1 0x0 PUSH2 0x276D PUSH1 0x1D DUP4 PUSH2 0x1ED9 JUMP JUMPDEST SWAP2 POP PUSH2 0x2778 DUP3 PUSH2 0x2737 JUMP JUMPDEST PUSH1 0x20 DUP3 ADD SWAP1 POP SWAP2 SWAP1 POP JUMP JUMPDEST PUSH1 0x0 PUSH1 0x20 DUP3 ADD SWAP1 POP DUP2 DUP2 SUB PUSH1 0x0 DUP4 ADD MSTORE PUSH2 0x279C DUP2 PUSH2 0x2760 JUMP JUMPDEST SWAP1 POP SWAP2 SWAP1 POP JUMP JUMPDEST PUSH32 0x45524332303A207472616E736665722066726F6D20746865207A65726F206164 PUSH1 0x0 DUP3 ADD MSTORE PUSH32 0x6472657373000000000000000000000000000000000000000000000000000000 PUSH1 0x20 DUP3 ADD MSTORE POP JUMP JUMPDEST PUSH1 0x0 PUSH2 0x27FF PUSH1 0x25 DUP4 PUSH2 0x1ED9 JUMP JUMPDEST SWAP2 POP PUSH2 0x280A DUP3 PUSH2 0x27A3 JUMP JUMPDEST PUSH1 0x40 DUP3 ADD SWAP1 POP SWAP2 SWAP1 POP JUMP JUMPDEST PUSH1 0x0 PUSH1 0x20 DUP3 ADD SWAP1 POP DUP2 DUP2 SUB PUSH1 0x0 DUP4 ADD MSTORE PUSH2 0x282E DUP2 PUSH2 0x27F2 JUMP JUMPDEST SWAP1 POP SWAP2 SWAP1 POP JUMP JUMPDEST PUSH32 0x45524332303A207472616E7366657220746F20746865207A65726F2061646472 PUSH1 0x0 DUP3 ADD MSTORE PUSH32 0x6573730000000000000000000000000000000000000000000000000000000000 PUSH1 0x20 DUP3 ADD MSTORE POP JUMP JUMPDEST PUSH1 0x0 PUSH2 0x2891 PUSH1 0x23 DUP4 PUSH2 0x1ED9 JUMP JUMPDEST SWAP2 POP PUSH2 0x289C DUP3 PUSH2 0x2835 JUMP JUMPDEST PUSH1 0x40 DUP3 ADD SWAP1 POP SWAP2 SWAP1 POP JUMP JUMPDEST PUSH1 0x0 PUSH1 0x20 DUP3 ADD SWAP1 POP DUP2 DUP2 SUB PUSH1 0x0 DUP4 ADD MSTORE PUSH2 0x28C0 DUP2 PUSH2 0x2884 JUMP JUMPDEST SWAP1 POP SWAP2 SWAP1 POP JUMP JUMPDEST PUSH32 0x45524332303A207472616E7366657220616D6F756E7420657863656564732062 PUSH1 0x0 DUP3 ADD MSTORE PUSH32 0x616C616E63650000000000000000000000000000000000000000000000000000 PUSH1 0x20 DUP3 ADD MSTORE POP JUMP JUMPDEST PUSH1 0x0 PUSH2 0x2923 PUSH1 0x26 DUP4 PUSH2 0x1ED9 JUMP JUMPDEST SWAP2 POP PUSH2 0x292E DUP3 PUSH2 0x28C7 JUMP JUMPDEST PUSH1 0x40 DUP3 ADD SWAP1 POP SWAP2 SWAP1 POP JUMP JUMPDEST PUSH1 0x0 PUSH1 0x20 DUP3 ADD SWAP1 POP DUP2 DUP2 SUB PUSH1 0x0 DUP4 ADD MSTORE PUSH2 0x2952 DUP2 PUSH2 0x2916 JUMP JUMPDEST SWAP1 POP SWAP2 SWAP1 POP JUMP JUMPDEST PUSH32 0x5265656E7472616E637947756172643A207265656E7472616E742063616C6C00 PUSH1 0x0 DUP3 ADD MSTORE POP JUMP JUMPDEST PUSH1 0x0 PUSH2 0x298F PUSH1 0x1F DUP4 PUSH2 0x1ED9 JUMP JUMPDEST SWAP2 POP PUSH2 0x299A DUP3 PUSH2 0x2959 JUMP JUMPDEST PUSH1 0x20 DUP3 ADD SWAP1 POP SWAP2 SWAP1 POP JUMP JUMPDEST PUSH1 0x0 PUSH1 0x20 DUP3 ADD SWAP1 POP DUP2 DUP2 SUB PUSH1 0x0 DUP4 ADD MSTORE PUSH2 0x29BE DUP2 PUSH2 0x2982 JUMP JUMPDEST SWAP1 POP SWAP2 SWAP1 POP JUMP JUMPDEST PUSH32 0x4F776E61626C653A2063616C6C6572206973206E6F7420746865206F776E6572 PUSH1 0x0 DUP3 ADD MSTORE POP JUMP JUMPDEST PUSH1 0x0 PUSH2 0x29FB PUSH1 0x20 DUP4 PUSH2 0x1ED9 JUMP JUMPDEST SWAP2 POP PUSH2 0x2A06 DUP3 PUSH2 0x29C5 JUMP JUMPDEST PUSH1 0x20 DUP3 ADD SWAP1 POP SWAP2 SWAP1 POP JUMP JUMPDEST PUSH1 0x0 PUSH1 0x20 DUP3 ADD SWAP1 POP DUP2 DUP2 SUB PUSH1 0x0 DUP4 ADD MSTORE PUSH2 0x2A2A DUP2 PUSH2 0x29EE JUMP JUMPDEST SWAP1 POP SWAP2 SWAP1 POP JUMP JUMPDEST PUSH32 0x496E76616C696420616D6F756E74206F66206574686572000000000000000000 PUSH1 0x0 DUP3 ADD MSTORE POP JUMP JUMPDEST PUSH1 0x0 PUSH2 0x2A67 PUSH1 0x17 DUP4 PUSH2 0x1ED9 JUMP JUMPDEST SWAP2 POP PUSH2 0x2A72 DUP3 PUSH2 0x2A31 JUMP JUMPDEST PUSH1 0x20 DUP3 ADD SWAP1 POP SWAP2 SWAP1 POP JUMP JUMPDEST PUSH1 0x0 PUSH1 0x20 DUP3 ADD SWAP1 POP DUP2 DUP2 SUB PUSH1 0x0 DUP4 ADD MSTORE PUSH2 0x2A96 DUP2 PUSH2 0x2A5A JUMP JUMPDEST SWAP1 POP SWAP2 SWAP1 POP JUMP JUMPDEST PUSH1 0x0 PUSH2 0x2AA8 DUP3 PUSH2 0x1FE3 JUMP JUMPDEST SWAP2 POP PUSH2 0x2AB3 DUP4 PUSH2 0x1FE3 JUMP JUMPDEST SWAP3 POP DUP3 DUP3 SUB SWAP1 POP DUP2 DUP2 GT ISZERO PUSH2 0x2ACB JUMPI PUSH2 0x2ACA PUSH2 0x22A3 JUMP JUMPDEST JUMPDEST SWAP3 SWAP2 POP POP JUMP JUMPDEST PUSH32 0x416D6F756E7420657863656564696E6720617661696C61626C6520737570706C PUSH1 0x0 DUP3 ADD MSTORE PUSH32 0x7900000000000000000000000000000000000000000000000000000000000000 PUSH1 0x20 DUP3 ADD MSTORE POP JUMP JUMPDEST PUSH1 0x0 PUSH2 0x2B2D PUSH1 0x21 DUP4 PUSH2 0x1ED9 JUMP JUMPDEST SWAP2 POP PUSH2 0x2B38 DUP3 PUSH2 0x2AD1 JUMP JUMPDEST PUSH1 0x40 DUP3 ADD SWAP1 POP SWAP2 SWAP1 POP JUMP JUMPDEST PUSH1 0x0 PUSH1 0x20 DUP3 ADD SWAP1 POP DUP2 DUP2 SUB PUSH1 0x0 DUP4 ADD MSTORE PUSH2 0x2B5C DUP2 PUSH2 0x2B20 JUMP JUMPDEST SWAP1 POP SWAP2 SWAP1 POP JUMP JUMPDEST PUSH32 0x45524332303A206D696E7420746F20746865207A65726F206164647265737300 PUSH1 0x0 DUP3 ADD MSTORE POP JUMP JUMPDEST PUSH1 0x0 PUSH2 0x2B99 PUSH1 0x1F DUP4 PUSH2 0x1ED9 JUMP JUMPDEST SWAP2 POP PUSH2 0x2BA4 DUP3 PUSH2 0x2B63 JUMP JUMPDEST PUSH1 0x20 DUP3 ADD SWAP1 POP SWAP2 SWAP1 POP JUMP JUMPDEST PUSH1 0x0 PUSH1 0x20 DUP3 ADD SWAP1 POP DUP2 DUP2 SUB PUSH1 0x0 DUP4 ADD MSTORE PUSH2 0x2BC8 DUP2 PUSH2 0x2B8C JUMP JUMPDEST SWAP1 POP SWAP2 SWAP1 POP JUMP INVALID LOG2 PUSH5 0x6970667358 0x22 SLT KECCAK256 0x2F 0xDF 0xF7 PUSH30 0xA7984BC6F47CB2B3BD30445DD4FC4055B999CE8F930EAA9233D86DD16473 PUSH16 0x6C634300081500330000000000000000 "},"methodIdentifiers":{"allowance(address,address)":"dd62ed3e","approve(address,uint256)":"095ea7b3","balanceOf(address)":"70a08231","buyShares(uint256)":"d1a93d18","currentShareValue()":"aadc68a5","decimals()":"313ce567","decreaseAllowance(address,uint256)":"a457c2d7","developer()":"ca4b208b","increaseAllowance(address,uint256)":"39509351","initialSharePrice()":"5f3e364a","maxAmountOfShares()":"defbbb68","name()":"06fdde03","owner()":"8da5cb5b","renounceOwnership()":"715018a6","sellShares(uint256)":"4ba8ae81","symbol()":"95d89b41","totalSupply()":"18160ddd","transfer(address,uint256)":"a9059cbb","transferFrom(address,address,uint256)":"23b872dd","transferOwnership(address)":"f2fde38b","vestingPeriodEnd()":"9e462fc7"}}}}}