{"contracts/WorldWideWeb3.sol":{"WorldWideWeb3":{"abi":[{"inputs":[{"internalType":"string","name":"name","type":"string"},{"internalType":"string","name":"version","type":"string"}],"stateMutability":"nonpayable","type":"constructor"},{"inputs":[],"name":"_getChainId","outputs":[{"internalType":"uint256","name":"chainId","type":"uint256"}],"stateMutability":"view","type":"function"},{"inputs":[{"internalType":"address","name":"","type":"address"}],"name":"frensTrust","outputs":[{"internalType":"uint256","name":"","type":"uint256"}],"stateMutability":"view","type":"function"},{"inputs":[{"internalType":"uint256","name":"","type":"uint256"}],"name":"messages","outputs":[{"internalType":"string","name":"message","type":"string"},{"internalType":"string","name":"latitude","type":"string"},{"internalType":"string","name":"longitude","type":"string"},{"internalType":"uint256","name":"tier","type":"uint256"},{"internalType":"uint256","name":"time","type":"uint256"}],"stateMutability":"view","type":"function"},{"inputs":[{"internalType":"string","name":"message","type":"string"},{"internalType":"string","name":"latitude","type":"string"},{"internalType":"string","name":"longitude","type":"string"},{"internalType":"uint256","name":"deadline","type":"uint256"},{"internalType":"uint256","name":"tier","type":"uint256"},{"internalType":"bytes","name":"signature","type":"bytes"}],"name":"submitMessage","outputs":[],"stateMutability":"payable","type":"function"},{"inputs":[{"internalType":"uint256","name":"","type":"uint256"}],"name":"tierPrice","outputs":[{"internalType":"uint256","name":"","type":"uint256"}],"stateMutability":"view","type":"function"},{"inputs":[{"internalType":"string","name":"message","type":"string"},{"internalType":"string","name":"latitude","type":"string"},{"internalType":"string","name":"longitude","type":"string"},{"internalType":"uint256","name":"deadline","type":"uint256"},{"internalType":"uint256","name":"tier","type":"uint256"},{"internalType":"bytes","name":"_signature","type":"bytes"}],"name":"validateMessage","outputs":[{"internalType":"address","name":"","type":"address"}],"stateMutability":"view","type":"function"}],"evm":{"bytecode":{"linkReferences":{},"object":"61014060405234801562000011575f80fd5b5060405162001827380380620018278339818101604052810190620000379190620003e7565b818181815f828051906020012090505f828051906020012090505f7f8b73c3c69bb8fe3d512ecc4cf759cc79239f7b179b0ffacaa9a75d522b39400f90508260e081815250508161010081815250504660a08181525050620000a1818484620001aa60201b60201c565b608081815250503073ffffffffffffffffffffffffffffffffffffffff1660c08173ffffffffffffffffffffffffffffffffffffffff1681525050806101208181525050505050505062000140604051806080016040528084815260200183815260200162000115620001e560201b60201c565b81526020013073ffffffffffffffffffffffffffffffffffffffff16815250620001ec60201b60201c565b5f819055505050660aa87bee53800060035f600181526020019081526020015f2081905550666a94d74f43000060035f600281526020019081526020015f2081905550670429d069189e000060035f600381526020019081526020015f208190555050506200053c565b5f8383834630604051602001620001c6959493929190620004e1565b6040516020818303038152906040528051906020012090509392505050565b5f46905090565b5f7f8b73c3c69bb8fe3d512ecc4cf759cc79239f7b179b0ffacaa9a75d522b39400f825f0151805190602001208360200151805190602001208460400151856060015160405160200162000245959493929190620004e1565b604051602081830303815290604052805190602001209050919050565b5f604051905090565b5f80fd5b5f80fd5b5f80fd5b5f80fd5b5f601f19601f8301169050919050565b7f4e487b71000000000000000000000000000000000000000000000000000000005f52604160045260245ffd5b620002c3826200027b565b810181811067ffffffffffffffff82111715620002e557620002e46200028b565b5b80604052505050565b5f620002f962000262565b9050620003078282620002b8565b919050565b5f67ffffffffffffffff8211156200032957620003286200028b565b5b62000334826200027b565b9050602081019050919050565b5f5b838110156200036057808201518184015260208101905062000343565b5f8484015250505050565b5f620003816200037b846200030c565b620002ee565b905082815260208101848484011115620003a0576200039f62000277565b5b620003ad84828562000341565b509392505050565b5f82601f830112620003cc57620003cb62000273565b5b8151620003de8482602086016200036b565b91505092915050565b5f80604083850312156200040057620003ff6200026b565b5b5f83015167ffffffffffffffff81111562000420576200041f6200026f565b5b6200042e85828601620003b5565b925050602083015167ffffffffffffffff8111156200045257620004516200026f565b5b6200046085828601620003b5565b9150509250929050565b5f819050919050565b6200047e816200046a565b82525050565b5f819050919050565b620004988162000484565b82525050565b5f73ffffffffffffffffffffffffffffffffffffffff82169050919050565b5f620004c9826200049e565b9050919050565b620004db81620004bd565b82525050565b5f60a082019050620004f65f83018862000473565b62000505602083018762000473565b62000514604083018662000473565b6200052360608301856200048d565b620005326080830184620004d0565b9695505050505050565b60805160a05160c05160e05161010051610120516112b5620005725f395f50505f50505f50505f50505f50505f50506112b55ff3fe608060405260043610610054575f3560e01c806302346b05146100585780630d80fefd1461008257806372e09af2146100c2578063826d3379146100fe578063baed55e81461013a578063fa09da0714610156575b5f80fd5b348015610063575f80fd5b5061006c610192565b6040516100799190610789565b60405180910390f35b34801561008d575f80fd5b506100a860048036038101906100a391906107dd565b610199565b6040516100b9959493929190610892565b60405180910390f35b3480156100cd575f80fd5b506100e860048036038101906100e39190610952565b61036c565b6040516100f59190610789565b60405180910390f35b348015610109575f80fd5b50610124600480360381019061011f91906107dd565b610381565b6040516101319190610789565b60405180910390f35b610154600480360381019061014f9190610b47565b610396565b005b348015610161575f80fd5b5061017c60048036038101906101779190610b47565b6105f4565b6040516101899190610c4f565b60405180910390f35b5f46905090565b600181815481106101a8575f80fd5b905f5260205f2090600502015f91509050805f0180546101c790610c95565b80601f01602080910402602001604051908101604052809291908181526020018280546101f390610c95565b801561023e5780601f106102155761010080835404028352916020019161023e565b820191905f5260205f20905b81548152906001019060200180831161022157829003601f168201915b50505050509080600101805461025390610c95565b80601f016020809104026020016040519081016040528092919081815260200182805461027f90610c95565b80156102ca5780601f106102a1576101008083540402835291602001916102ca565b820191905f5260205f20905b8154815290600101906020018083116102ad57829003601f168201915b5050505050908060020180546102df90610c95565b80601f016020809104026020016040519081016040528092919081815260200182805461030b90610c95565b80156103565780601f1061032d57610100808354040283529160200191610356565b820191905f5260205f20905b81548152906001019060200180831161033957829003601f168201915b5050505050908060030154908060040154905085565b6002602052805f5260405f205f915090505481565b6003602052805f5260405f205f915090505481565b3373ffffffffffffffffffffffffffffffffffffffff166103bb8787878787876105f4565b73ffffffffffffffffffffffffffffffffffffffff1614610411576040517f08c379a000000000000000000000000000000000000000000000000000000000815260040161040890610d0f565b60405180910390fd5b5f821180156104205750600482105b61045f576040517f08c379a000000000000000000000000000000000000000000000000000000000815260040161045690610d77565b60405180910390fd5b60035f8381526020019081526020015f205434146104b2576040517f08c379a00000000000000000000000000000000000000000000000000000000081526004016104a990610ddf565b60405180910390fd5b8242106104f4576040517f08c379a00000000000000000000000000000000000000000000000000000000081526004016104eb90610e47565b60405180910390fd5b3460025f3373ffffffffffffffffffffffffffffffffffffffff1673ffffffffffffffffffffffffffffffffffffffff1681526020019081526020015f205f8282546105409190610e92565b9250508190555060016040518060a0016040528088815260200187815260200186815260200184815260200142815250908060018154018082558091505060019003905f5260205f2090600502015f909190919091505f820151815f0190816105a99190611062565b5060208201518160010190816105bf9190611062565b5060408201518160020190816105d59190611062565b5060608201518160030155608082015181600401555050505050505050565b5f806040518060a001604052808981526020018881526020018781526020018581526020018681525090505f805f61062b86610653565b80935081945082955050505061064384848484610690565b9450505050509695505050505050565b5f805f6041845114610663575f80fd5b5f805f602087015192506040870151915060608701515f1a90508083839550955095505050509193909250565b5f805f5461069d8761071d565b6040516020016106ae9291906111ae565b6040516020818303038152906040528051906020012090506001818686866040515f81526020016040526040516106e8949392919061120e565b6020604051602081039080840390855afa158015610708573d5f803e3d5ffd5b50505060206040510351915050949350505050565b5f7f37ac7ffc3bb3032638f4076b219959dbf31b78ca5540aa71a3483c77a77bbc3b825f0151604051602001610754929190611251565b604051602081830303815290604052805190602001209050919050565b5f819050919050565b61078381610771565b82525050565b5f60208201905061079c5f83018461077a565b92915050565b5f604051905090565b5f80fd5b5f80fd5b6107bc81610771565b81146107c6575f80fd5b50565b5f813590506107d7816107b3565b92915050565b5f602082840312156107f2576107f16107ab565b5b5f6107ff848285016107c9565b91505092915050565b5f81519050919050565b5f82825260208201905092915050565b5f5b8381101561083f578082015181840152602081019050610824565b5f8484015250505050565b5f601f19601f8301169050919050565b5f61086482610808565b61086e8185610812565b935061087e818560208601610822565b6108878161084a565b840191505092915050565b5f60a0820190508181035f8301526108aa818861085a565b905081810360208301526108be818761085a565b905081810360408301526108d2818661085a565b90506108e1606083018561077a565b6108ee608083018461077a565b9695505050505050565b5f73ffffffffffffffffffffffffffffffffffffffff82169050919050565b5f610921826108f8565b9050919050565b61093181610917565b811461093b575f80fd5b50565b5f8135905061094c81610928565b92915050565b5f60208284031215610967576109666107ab565b5b5f6109748482850161093e565b91505092915050565b5f80fd5b5f80fd5b7f4e487b71000000000000000000000000000000000000000000000000000000005f52604160045260245ffd5b6109bb8261084a565b810181811067ffffffffffffffff821117156109da576109d9610985565b5b80604052505050565b5f6109ec6107a2565b90506109f882826109b2565b919050565b5f67ffffffffffffffff821115610a1757610a16610985565b5b610a208261084a565b9050602081019050919050565b828183375f83830152505050565b5f610a4d610a48846109fd565b6109e3565b905082815260208101848484011115610a6957610a68610981565b5b610a74848285610a2d565b509392505050565b5f82601f830112610a9057610a8f61097d565b5b8135610aa0848260208601610a3b565b91505092915050565b5f67ffffffffffffffff821115610ac357610ac2610985565b5b610acc8261084a565b9050602081019050919050565b5f610aeb610ae684610aa9565b6109e3565b905082815260208101848484011115610b0757610b06610981565b5b610b12848285610a2d565b509392505050565b5f82601f830112610b2e57610b2d61097d565b5b8135610b3e848260208601610ad9565b91505092915050565b5f805f805f8060c08789031215610b6157610b606107ab565b5b5f87013567ffffffffffffffff811115610b7e57610b7d6107af565b5b610b8a89828a01610a7c565b965050602087013567ffffffffffffffff811115610bab57610baa6107af565b5b610bb789828a01610a7c565b955050604087013567ffffffffffffffff811115610bd857610bd76107af565b5b610be489828a01610a7c565b9450506060610bf589828a016107c9565b9350506080610c0689828a016107c9565b92505060a087013567ffffffffffffffff811115610c2757610c266107af565b5b610c3389828a01610b1a565b9150509295509295509295565b610c4981610917565b82525050565b5f602082019050610c625f830184610c40565b92915050565b7f4e487b71000000000000000000000000000000000000000000000000000000005f52602260045260245ffd5b5f6002820490506001821680610cac57607f821691505b602082108103610cbf57610cbe610c68565b5b50919050565b7f496e76616c6964207369676e61747572650000000000000000000000000000005f82015250565b5f610cf9601183610812565b9150610d0482610cc5565b602082019050919050565b5f6020820190508181035f830152610d2681610ced565b9050919050565b7f696e76616c6964207469657200000000000000000000000000000000000000005f82015250565b5f610d61600c83610812565b9150610d6c82610d2d565b602082019050919050565b5f6020820190508181035f830152610d8e81610d55565b9050919050565b7f696e636f7265637420707269636520666f7220746965720000000000000000005f82015250565b5f610dc9601783610812565b9150610dd482610d95565b602082019050919050565b5f6020820190508181035f830152610df681610dbd565b9050919050565b7f70617373656420646561646c696e6500000000000000000000000000000000005f82015250565b5f610e31600f83610812565b9150610e3c82610dfd565b602082019050919050565b5f6020820190508181035f830152610e5e81610e25565b9050919050565b7f4e487b71000000000000000000000000000000000000000000000000000000005f52601160045260245ffd5b5f610e9c82610771565b9150610ea783610771565b9250828201905080821115610ebf57610ebe610e65565b5b92915050565b5f819050815f5260205f209050919050565b5f6020601f8301049050919050565b5f82821b905092915050565b5f60088302610f217fffffffffffffffffffffffffffffffffffffffffffffffffffffffffffffffff82610ee6565b610f2b8683610ee6565b95508019841693508086168417925050509392505050565b5f819050919050565b5f610f66610f61610f5c84610771565b610f43565b610771565b9050919050565b5f819050919050565b610f7f83610f4c565b610f93610f8b82610f6d565b848454610ef2565b825550505050565b5f90565b610fa7610f9b565b610fb2818484610f76565b505050565b5b81811015610fd557610fca5f82610f9f565b600181019050610fb8565b5050565b601f82111561101a57610feb81610ec5565b610ff484610ed7565b81016020851015611003578190505b61101761100f85610ed7565b830182610fb7565b50505b505050565b5f82821c905092915050565b5f61103a5f198460080261101f565b1980831691505092915050565b5f611052838361102b565b9150826002028217905092915050565b61106b82610808565b67ffffffffffffffff81111561108457611083610985565b5b61108e8254610c95565b611099828285610fd9565b5f60209050601f8311600181146110ca575f84156110b8578287015190505b6110c28582611047565b865550611129565b601f1984166110d886610ec5565b5f5b828110156110ff578489015182556001820191506020850194506020810190506110da565b8683101561111c5784890151611118601f89168261102b565b8355505b6001600288020188555050505b505050505050565b5f81905092915050565b7f19010000000000000000000000000000000000000000000000000000000000005f82015250565b5f61116f600283611131565b915061117a8261113b565b600282019050919050565b5f819050919050565b5f819050919050565b6111a86111a382611185565b61118e565b82525050565b5f6111b882611163565b91506111c48285611197565b6020820191506111d48284611197565b6020820191508190509392505050565b6111ed81611185565b82525050565b5f60ff82169050919050565b611208816111f3565b82525050565b5f6080820190506112215f8301876111e4565b61122e60208301866111ff565b61123b60408301856111e4565b61124860608301846111e4565b95945050505050565b5f6040820190506112645f8301856111e4565b8181036020830152611276818461085a565b9050939250505056fea2646970667358221220b7c8e85847059518a18c6f00c98cf4d21c885e505a0ca333c43b8e18b2358a1c64736f6c63430008140033","opcodes":"PUSH2 0x140 PUSH1 0x40 MSTORE CALLVALUE DUP1 ISZERO PUSH3 0x11 JUMPI PUSH0 DUP1 REVERT JUMPDEST POP PUSH1 0x40 MLOAD PUSH3 0x1827 CODESIZE SUB DUP1 PUSH3 0x1827 DUP4 CODECOPY DUP2 DUP2 ADD PUSH1 0x40 MSTORE DUP2 ADD SWAP1 PUSH3 0x37 SWAP2 SWAP1 PUSH3 0x3E7 JUMP JUMPDEST DUP2 DUP2 DUP2 DUP2 PUSH0 DUP3 DUP1 MLOAD SWAP1 PUSH1 0x20 ADD KECCAK256 SWAP1 POP PUSH0 DUP3 DUP1 MLOAD SWAP1 PUSH1 0x20 ADD KECCAK256 SWAP1 POP PUSH0 PUSH32 0x8B73C3C69BB8FE3D512ECC4CF759CC79239F7B179B0FFACAA9A75D522B39400F SWAP1 POP DUP3 PUSH1 0xE0 DUP2 DUP2 MSTORE POP POP DUP2 PUSH2 0x100 DUP2 DUP2 MSTORE POP POP CHAINID PUSH1 0xA0 DUP2 DUP2 MSTORE POP POP PUSH3 0xA1 DUP2 DUP5 DUP5 PUSH3 0x1AA PUSH1 0x20 SHL PUSH1 0x20 SHR JUMP JUMPDEST PUSH1 0x80 DUP2 DUP2 MSTORE POP POP ADDRESS PUSH20 0xFFFFFFFFFFFFFFFFFFFFFFFFFFFFFFFFFFFFFFFF AND PUSH1 0xC0 DUP2 PUSH20 0xFFFFFFFFFFFFFFFFFFFFFFFFFFFFFFFFFFFFFFFF AND DUP2 MSTORE POP POP DUP1 PUSH2 0x120 DUP2 DUP2 MSTORE POP POP POP POP POP POP POP PUSH3 0x140 PUSH1 0x40 MLOAD DUP1 PUSH1 0x80 ADD PUSH1 0x40 MSTORE DUP1 DUP5 DUP2 MSTORE PUSH1 0x20 ADD DUP4 DUP2 MSTORE PUSH1 0x20 ADD PUSH3 0x115 PUSH3 0x1E5 PUSH1 0x20 SHL PUSH1 0x20 SHR JUMP JUMPDEST DUP2 MSTORE PUSH1 0x20 ADD ADDRESS PUSH20 0xFFFFFFFFFFFFFFFFFFFFFFFFFFFFFFFFFFFFFFFF AND DUP2 MSTORE POP PUSH3 0x1EC PUSH1 0x20 SHL PUSH1 0x20 SHR JUMP JUMPDEST PUSH0 DUP2 SWAP1 SSTORE POP POP POP PUSH7 0xAA87BEE538000 PUSH1 0x3 PUSH0 PUSH1 0x1 DUP2 MSTORE PUSH1 0x20 ADD SWAP1 DUP2 MSTORE PUSH1 0x20 ADD PUSH0 KECCAK256 DUP2 SWAP1 SSTORE POP PUSH7 0x6A94D74F430000 PUSH1 0x3 PUSH0 PUSH1 0x2 DUP2 MSTORE PUSH1 0x20 ADD SWAP1 DUP2 MSTORE PUSH1 0x20 ADD PUSH0 KECCAK256 DUP2 SWAP1 SSTORE POP PUSH8 0x429D069189E0000 PUSH1 0x3 PUSH0 PUSH1 0x3 DUP2 MSTORE PUSH1 0x20 ADD SWAP1 DUP2 MSTORE PUSH1 0x20 ADD PUSH0 KECCAK256 DUP2 SWAP1 SSTORE POP POP POP PUSH3 0x53C JUMP JUMPDEST PUSH0 DUP4 DUP4 DUP4 CHAINID ADDRESS PUSH1 0x40 MLOAD PUSH1 0x20 ADD PUSH3 0x1C6 SWAP6 SWAP5 SWAP4 SWAP3 SWAP2 SWAP1 PUSH3 0x4E1 JUMP JUMPDEST PUSH1 0x40 MLOAD PUSH1 0x20 DUP2 DUP4 SUB SUB DUP2 MSTORE SWAP1 PUSH1 0x40 MSTORE DUP1 MLOAD SWAP1 PUSH1 0x20 ADD KECCAK256 SWAP1 POP SWAP4 SWAP3 POP POP POP JUMP JUMPDEST PUSH0 CHAINID SWAP1 POP SWAP1 JUMP JUMPDEST PUSH0 PUSH32 0x8B73C3C69BB8FE3D512ECC4CF759CC79239F7B179B0FFACAA9A75D522B39400F DUP3 PUSH0 ADD MLOAD DUP1 MLOAD SWAP1 PUSH1 0x20 ADD KECCAK256 DUP4 PUSH1 0x20 ADD MLOAD DUP1 MLOAD SWAP1 PUSH1 0x20 ADD KECCAK256 DUP5 PUSH1 0x40 ADD MLOAD DUP6 PUSH1 0x60 ADD MLOAD PUSH1 0x40 MLOAD PUSH1 0x20 ADD PUSH3 0x245 SWAP6 SWAP5 SWAP4 SWAP3 SWAP2 SWAP1 PUSH3 0x4E1 JUMP JUMPDEST PUSH1 0x40 MLOAD PUSH1 0x20 DUP2 DUP4 SUB SUB DUP2 MSTORE SWAP1 PUSH1 0x40 MSTORE DUP1 MLOAD SWAP1 PUSH1 0x20 ADD KECCAK256 SWAP1 POP SWAP2 SWAP1 POP JUMP JUMPDEST PUSH0 PUSH1 0x40 MLOAD SWAP1 POP SWAP1 JUMP JUMPDEST PUSH0 DUP1 REVERT JUMPDEST PUSH0 DUP1 REVERT JUMPDEST PUSH0 DUP1 REVERT JUMPDEST PUSH0 DUP1 REVERT JUMPDEST PUSH0 PUSH1 0x1F NOT PUSH1 0x1F DUP4 ADD AND SWAP1 POP SWAP2 SWAP1 POP JUMP JUMPDEST PUSH32 0x4E487B7100000000000000000000000000000000000000000000000000000000 PUSH0 MSTORE PUSH1 0x41 PUSH1 0x4 MSTORE PUSH1 0x24 PUSH0 REVERT JUMPDEST PUSH3 0x2C3 DUP3 PUSH3 0x27B JUMP JUMPDEST DUP2 ADD DUP2 DUP2 LT PUSH8 0xFFFFFFFFFFFFFFFF DUP3 GT OR ISZERO PUSH3 0x2E5 JUMPI PUSH3 0x2E4 PUSH3 0x28B JUMP JUMPDEST JUMPDEST DUP1 PUSH1 0x40 MSTORE POP POP POP JUMP JUMPDEST PUSH0 PUSH3 0x2F9 PUSH3 0x262 JUMP JUMPDEST SWAP1 POP PUSH3 0x307 DUP3 DUP3 PUSH3 0x2B8 JUMP JUMPDEST SWAP2 SWAP1 POP JUMP JUMPDEST PUSH0 PUSH8 0xFFFFFFFFFFFFFFFF DUP3 GT ISZERO PUSH3 0x329 JUMPI PUSH3 0x328 PUSH3 0x28B JUMP JUMPDEST JUMPDEST PUSH3 0x334 DUP3 PUSH3 0x27B JUMP JUMPDEST SWAP1 POP PUSH1 0x20 DUP2 ADD SWAP1 POP SWAP2 SWAP1 POP JUMP JUMPDEST PUSH0 JUMPDEST DUP4 DUP2 LT ISZERO PUSH3 0x360 JUMPI DUP1 DUP3 ADD MLOAD DUP2 DUP5 ADD MSTORE PUSH1 0x20 DUP2 ADD SWAP1 POP PUSH3 0x343 JUMP JUMPDEST PUSH0 DUP5 DUP5 ADD MSTORE POP POP POP POP JUMP JUMPDEST PUSH0 PUSH3 0x381 PUSH3 0x37B DUP5 PUSH3 0x30C JUMP JUMPDEST PUSH3 0x2EE JUMP JUMPDEST SWAP1 POP DUP3 DUP2 MSTORE PUSH1 0x20 DUP2 ADD DUP5 DUP5 DUP5 ADD GT ISZERO PUSH3 0x3A0 JUMPI PUSH3 0x39F PUSH3 0x277 JUMP JUMPDEST JUMPDEST PUSH3 0x3AD DUP5 DUP3 DUP6 PUSH3 0x341 JUMP JUMPDEST POP SWAP4 SWAP3 POP POP POP JUMP JUMPDEST PUSH0 DUP3 PUSH1 0x1F DUP4 ADD SLT PUSH3 0x3CC JUMPI PUSH3 0x3CB PUSH3 0x273 JUMP JUMPDEST JUMPDEST DUP2 MLOAD PUSH3 0x3DE DUP5 DUP3 PUSH1 0x20 DUP7 ADD PUSH3 0x36B JUMP JUMPDEST SWAP2 POP POP SWAP3 SWAP2 POP POP JUMP JUMPDEST PUSH0 DUP1 PUSH1 0x40 DUP4 DUP6 SUB SLT ISZERO PUSH3 0x400 JUMPI PUSH3 0x3FF PUSH3 0x26B JUMP JUMPDEST JUMPDEST PUSH0 DUP4 ADD MLOAD PUSH8 0xFFFFFFFFFFFFFFFF DUP2 GT ISZERO PUSH3 0x420 JUMPI PUSH3 0x41F PUSH3 0x26F JUMP JUMPDEST JUMPDEST PUSH3 0x42E DUP6 DUP3 DUP7 ADD PUSH3 0x3B5 JUMP JUMPDEST SWAP3 POP POP PUSH1 0x20 DUP4 ADD MLOAD PUSH8 0xFFFFFFFFFFFFFFFF DUP2 GT ISZERO PUSH3 0x452 JUMPI PUSH3 0x451 PUSH3 0x26F JUMP JUMPDEST JUMPDEST PUSH3 0x460 DUP6 DUP3 DUP7 ADD PUSH3 0x3B5 JUMP JUMPDEST SWAP2 POP POP SWAP3 POP SWAP3 SWAP1 POP JUMP JUMPDEST PUSH0 DUP2 SWAP1 POP SWAP2 SWAP1 POP JUMP JUMPDEST PUSH3 0x47E DUP2 PUSH3 0x46A JUMP JUMPDEST DUP3 MSTORE POP POP JUMP JUMPDEST PUSH0 DUP2 SWAP1 POP SWAP2 SWAP1 POP JUMP JUMPDEST PUSH3 0x498 DUP2 PUSH3 0x484 JUMP JUMPDEST DUP3 MSTORE POP POP JUMP JUMPDEST PUSH0 PUSH20 0xFFFFFFFFFFFFFFFFFFFFFFFFFFFFFFFFFFFFFFFF DUP3 AND SWAP1 POP SWAP2 SWAP1 POP JUMP JUMPDEST PUSH0 PUSH3 0x4C9 DUP3 PUSH3 0x49E JUMP JUMPDEST SWAP1 POP SWAP2 SWAP1 POP JUMP JUMPDEST PUSH3 0x4DB DUP2 PUSH3 0x4BD JUMP JUMPDEST DUP3 MSTORE POP POP JUMP JUMPDEST PUSH0 PUSH1 0xA0 DUP3 ADD SWAP1 POP PUSH3 0x4F6 PUSH0 DUP4 ADD DUP9 PUSH3 0x473 JUMP JUMPDEST PUSH3 0x505 PUSH1 0x20 DUP4 ADD DUP8 PUSH3 0x473 JUMP JUMPDEST PUSH3 0x514 PUSH1 0x40 DUP4 ADD DUP7 PUSH3 0x473 JUMP JUMPDEST PUSH3 0x523 PUSH1 0x60 DUP4 ADD DUP6 PUSH3 0x48D JUMP JUMPDEST PUSH3 0x532 PUSH1 0x80 DUP4 ADD DUP5 PUSH3 0x4D0 JUMP JUMPDEST SWAP7 SWAP6 POP POP POP POP POP POP JUMP JUMPDEST PUSH1 0x80 MLOAD PUSH1 0xA0 MLOAD PUSH1 0xC0 MLOAD PUSH1 0xE0 MLOAD PUSH2 0x100 MLOAD PUSH2 0x120 MLOAD PUSH2 0x12B5 PUSH3 0x572 PUSH0 CODECOPY PUSH0 POP POP PUSH0 POP POP PUSH0 POP POP PUSH0 POP POP PUSH0 POP POP PUSH0 POP POP PUSH2 0x12B5 PUSH0 RETURN INVALID PUSH1 0x80 PUSH1 0x40 MSTORE PUSH1 0x4 CALLDATASIZE LT PUSH2 0x54 JUMPI PUSH0 CALLDATALOAD PUSH1 0xE0 SHR DUP1 PUSH4 0x2346B05 EQ PUSH2 0x58 JUMPI DUP1 PUSH4 0xD80FEFD EQ PUSH2 0x82 JUMPI DUP1 PUSH4 0x72E09AF2 EQ PUSH2 0xC2 JUMPI DUP1 PUSH4 0x826D3379 EQ PUSH2 0xFE JUMPI DUP1 PUSH4 0xBAED55E8 EQ PUSH2 0x13A JUMPI DUP1 PUSH4 0xFA09DA07 EQ PUSH2 0x156 JUMPI JUMPDEST PUSH0 DUP1 REVERT JUMPDEST CALLVALUE DUP1 ISZERO PUSH2 0x63 JUMPI PUSH0 DUP1 REVERT JUMPDEST POP PUSH2 0x6C PUSH2 0x192 JUMP JUMPDEST PUSH1 0x40 MLOAD PUSH2 0x79 SWAP2 SWAP1 PUSH2 0x789 JUMP JUMPDEST PUSH1 0x40 MLOAD DUP1 SWAP2 SUB SWAP1 RETURN JUMPDEST CALLVALUE DUP1 ISZERO PUSH2 0x8D JUMPI PUSH0 DUP1 REVERT JUMPDEST POP PUSH2 0xA8 PUSH1 0x4 DUP1 CALLDATASIZE SUB DUP2 ADD SWAP1 PUSH2 0xA3 SWAP2 SWAP1 PUSH2 0x7DD JUMP JUMPDEST PUSH2 0x199 JUMP JUMPDEST PUSH1 0x40 MLOAD PUSH2 0xB9 SWAP6 SWAP5 SWAP4 SWAP3 SWAP2 SWAP1 PUSH2 0x892 JUMP JUMPDEST PUSH1 0x40 MLOAD DUP1 SWAP2 SUB SWAP1 RETURN JUMPDEST CALLVALUE DUP1 ISZERO PUSH2 0xCD JUMPI PUSH0 DUP1 REVERT JUMPDEST POP PUSH2 0xE8 PUSH1 0x4 DUP1 CALLDATASIZE SUB DUP2 ADD SWAP1 PUSH2 0xE3 SWAP2 SWAP1 PUSH2 0x952 JUMP JUMPDEST PUSH2 0x36C JUMP JUMPDEST PUSH1 0x40 MLOAD PUSH2 0xF5 SWAP2 SWAP1 PUSH2 0x789 JUMP JUMPDEST PUSH1 0x40 MLOAD DUP1 SWAP2 SUB SWAP1 RETURN JUMPDEST CALLVALUE DUP1 ISZERO PUSH2 0x109 JUMPI PUSH0 DUP1 REVERT JUMPDEST POP PUSH2 0x124 PUSH1 0x4 DUP1 CALLDATASIZE SUB DUP2 ADD SWAP1 PUSH2 0x11F SWAP2 SWAP1 PUSH2 0x7DD JUMP JUMPDEST PUSH2 0x381 JUMP JUMPDEST PUSH1 0x40 MLOAD PUSH2 0x131 SWAP2 SWAP1 PUSH2 0x789 JUMP JUMPDEST PUSH1 0x40 MLOAD DUP1 SWAP2 SUB SWAP1 RETURN JUMPDEST PUSH2 0x154 PUSH1 0x4 DUP1 CALLDATASIZE SUB DUP2 ADD SWAP1 PUSH2 0x14F SWAP2 SWAP1 PUSH2 0xB47 JUMP JUMPDEST PUSH2 0x396 JUMP JUMPDEST STOP JUMPDEST CALLVALUE DUP1 ISZERO PUSH2 0x161 JUMPI PUSH0 DUP1 REVERT JUMPDEST POP PUSH2 0x17C PUSH1 0x4 DUP1 CALLDATASIZE SUB DUP2 ADD SWAP1 PUSH2 0x177 SWAP2 SWAP1 PUSH2 0xB47 JUMP JUMPDEST PUSH2 0x5F4 JUMP JUMPDEST PUSH1 0x40 MLOAD PUSH2 0x189 SWAP2 SWAP1 PUSH2 0xC4F JUMP JUMPDEST PUSH1 0x40 MLOAD DUP1 SWAP2 SUB SWAP1 RETURN JUMPDEST PUSH0 CHAINID SWAP1 POP SWAP1 JUMP JUMPDEST PUSH1 0x1 DUP2 DUP2 SLOAD DUP2 LT PUSH2 0x1A8 JUMPI PUSH0 DUP1 REVERT JUMPDEST SWAP1 PUSH0 MSTORE PUSH1 0x20 PUSH0 KECCAK256 SWAP1 PUSH1 0x5 MUL ADD PUSH0 SWAP2 POP SWAP1 POP DUP1 PUSH0 ADD DUP1 SLOAD PUSH2 0x1C7 SWAP1 PUSH2 0xC95 JUMP JUMPDEST DUP1 PUSH1 0x1F ADD PUSH1 0x20 DUP1 SWAP2 DIV MUL PUSH1 0x20 ADD PUSH1 0x40 MLOAD SWAP1 DUP2 ADD PUSH1 0x40 MSTORE DUP1 SWAP3 SWAP2 SWAP1 DUP2 DUP2 MSTORE PUSH1 0x20 ADD DUP3 DUP1 SLOAD PUSH2 0x1F3 SWAP1 PUSH2 0xC95 JUMP JUMPDEST DUP1 ISZERO PUSH2 0x23E JUMPI DUP1 PUSH1 0x1F LT PUSH2 0x215 JUMPI PUSH2 0x100 DUP1 DUP4 SLOAD DIV MUL DUP4 MSTORE SWAP2 PUSH1 0x20 ADD SWAP2 PUSH2 0x23E JUMP JUMPDEST DUP3 ADD SWAP2 SWAP1 PUSH0 MSTORE PUSH1 0x20 PUSH0 KECCAK256 SWAP1 JUMPDEST DUP2 SLOAD DUP2 MSTORE SWAP1 PUSH1 0x1 ADD SWAP1 PUSH1 0x20 ADD DUP1 DUP4 GT PUSH2 0x221 JUMPI DUP3 SWAP1 SUB PUSH1 0x1F AND DUP3 ADD SWAP2 JUMPDEST POP POP POP POP POP SWAP1 DUP1 PUSH1 0x1 ADD DUP1 SLOAD PUSH2 0x253 SWAP1 PUSH2 0xC95 JUMP JUMPDEST DUP1 PUSH1 0x1F ADD PUSH1 0x20 DUP1 SWAP2 DIV MUL PUSH1 0x20 ADD PUSH1 0x40 MLOAD SWAP1 DUP2 ADD PUSH1 0x40 MSTORE DUP1 SWAP3 SWAP2 SWAP1 DUP2 DUP2 MSTORE PUSH1 0x20 ADD DUP3 DUP1 SLOAD PUSH2 0x27F SWAP1 PUSH2 0xC95 JUMP JUMPDEST DUP1 ISZERO PUSH2 0x2CA JUMPI DUP1 PUSH1 0x1F LT PUSH2 0x2A1 JUMPI PUSH2 0x100 DUP1 DUP4 SLOAD DIV MUL DUP4 MSTORE SWAP2 PUSH1 0x20 ADD SWAP2 PUSH2 0x2CA JUMP JUMPDEST DUP3 ADD SWAP2 SWAP1 PUSH0 MSTORE PUSH1 0x20 PUSH0 KECCAK256 SWAP1 JUMPDEST DUP2 SLOAD DUP2 MSTORE SWAP1 PUSH1 0x1 ADD SWAP1 PUSH1 0x20 ADD DUP1 DUP4 GT PUSH2 0x2AD JUMPI DUP3 SWAP1 SUB PUSH1 0x1F AND DUP3 ADD SWAP2 JUMPDEST POP POP POP POP POP SWAP1 DUP1 PUSH1 0x2 ADD DUP1 SLOAD PUSH2 0x2DF SWAP1 PUSH2 0xC95 JUMP JUMPDEST DUP1 PUSH1 0x1F ADD PUSH1 0x20 DUP1 SWAP2 DIV MUL PUSH1 0x20 ADD PUSH1 0x40 MLOAD SWAP1 DUP2 ADD PUSH1 0x40 MSTORE DUP1 SWAP3 SWAP2 SWAP1 DUP2 DUP2 MSTORE PUSH1 0x20 ADD DUP3 DUP1 SLOAD PUSH2 0x30B SWAP1 PUSH2 0xC95 JUMP JUMPDEST DUP1 ISZERO PUSH2 0x356 JUMPI DUP1 PUSH1 0x1F LT PUSH2 0x32D JUMPI PUSH2 0x100 DUP1 DUP4 SLOAD DIV MUL DUP4 MSTORE SWAP2 PUSH1 0x20 ADD SWAP2 PUSH2 0x356 JUMP JUMPDEST DUP3 ADD SWAP2 SWAP1 PUSH0 MSTORE PUSH1 0x20 PUSH0 KECCAK256 SWAP1 JUMPDEST DUP2 SLOAD DUP2 MSTORE SWAP1 PUSH1 0x1 ADD SWAP1 PUSH1 0x20 ADD DUP1 DUP4 GT PUSH2 0x339 JUMPI DUP3 SWAP1 SUB PUSH1 0x1F AND DUP3 ADD SWAP2 JUMPDEST POP POP POP POP POP SWAP1 DUP1 PUSH1 0x3 ADD SLOAD SWAP1 DUP1 PUSH1 0x4 ADD SLOAD SWAP1 POP DUP6 JUMP JUMPDEST PUSH1 0x2 PUSH1 0x20 MSTORE DUP1 PUSH0 MSTORE PUSH1 0x40 PUSH0 KECCAK256 PUSH0 SWAP2 POP SWAP1 POP SLOAD DUP2 JUMP JUMPDEST PUSH1 0x3 PUSH1 0x20 MSTORE DUP1 PUSH0 MSTORE PUSH1 0x40 PUSH0 KECCAK256 PUSH0 SWAP2 POP SWAP1 POP SLOAD DUP2 JUMP JUMPDEST CALLER PUSH20 0xFFFFFFFFFFFFFFFFFFFFFFFFFFFFFFFFFFFFFFFF AND PUSH2 0x3BB DUP8 DUP8 DUP8 DUP8 DUP8 DUP8 PUSH2 0x5F4 JUMP JUMPDEST PUSH20 0xFFFFFFFFFFFFFFFFFFFFFFFFFFFFFFFFFFFFFFFF AND EQ PUSH2 0x411 JUMPI PUSH1 0x40 MLOAD PUSH32 0x8C379A000000000000000000000000000000000000000000000000000000000 DUP2 MSTORE PUSH1 0x4 ADD PUSH2 0x408 SWAP1 PUSH2 0xD0F JUMP JUMPDEST PUSH1 0x40 MLOAD DUP1 SWAP2 SUB SWAP1 REVERT JUMPDEST PUSH0 DUP3 GT DUP1 ISZERO PUSH2 0x420 JUMPI POP PUSH1 0x4 DUP3 LT JUMPDEST PUSH2 0x45F JUMPI PUSH1 0x40 MLOAD PUSH32 0x8C379A000000000000000000000000000000000000000000000000000000000 DUP2 MSTORE PUSH1 0x4 ADD PUSH2 0x456 SWAP1 PUSH2 0xD77 JUMP JUMPDEST PUSH1 0x40 MLOAD DUP1 SWAP2 SUB SWAP1 REVERT JUMPDEST PUSH1 0x3 PUSH0 DUP4 DUP2 MSTORE PUSH1 0x20 ADD SWAP1 DUP2 MSTORE PUSH1 0x20 ADD PUSH0 KECCAK256 SLOAD CALLVALUE EQ PUSH2 0x4B2 JUMPI PUSH1 0x40 MLOAD PUSH32 0x8C379A000000000000000000000000000000000000000000000000000000000 DUP2 MSTORE PUSH1 0x4 ADD PUSH2 0x4A9 SWAP1 PUSH2 0xDDF JUMP JUMPDEST PUSH1 0x40 MLOAD DUP1 SWAP2 SUB SWAP1 REVERT JUMPDEST DUP3 TIMESTAMP LT PUSH2 0x4F4 JUMPI PUSH1 0x40 MLOAD PUSH32 0x8C379A000000000000000000000000000000000000000000000000000000000 DUP2 MSTORE PUSH1 0x4 ADD PUSH2 0x4EB SWAP1 PUSH2 0xE47 JUMP JUMPDEST PUSH1 0x40 MLOAD DUP1 SWAP2 SUB SWAP1 REVERT JUMPDEST CALLVALUE PUSH1 0x2 PUSH0 CALLER PUSH20 0xFFFFFFFFFFFFFFFFFFFFFFFFFFFFFFFFFFFFFFFF AND PUSH20 0xFFFFFFFFFFFFFFFFFFFFFFFFFFFFFFFFFFFFFFFF AND DUP2 MSTORE PUSH1 0x20 ADD SWAP1 DUP2 MSTORE PUSH1 0x20 ADD PUSH0 KECCAK256 PUSH0 DUP3 DUP3 SLOAD PUSH2 0x540 SWAP2 SWAP1 PUSH2 0xE92 JUMP JUMPDEST SWAP3 POP POP DUP2 SWAP1 SSTORE POP PUSH1 0x1 PUSH1 0x40 MLOAD DUP1 PUSH1 0xA0 ADD PUSH1 0x40 MSTORE DUP1 DUP9 DUP2 MSTORE PUSH1 0x20 ADD DUP8 DUP2 MSTORE PUSH1 0x20 ADD DUP7 DUP2 MSTORE PUSH1 0x20 ADD DUP5 DUP2 MSTORE PUSH1 0x20 ADD TIMESTAMP DUP2 MSTORE POP SWAP1 DUP1 PUSH1 0x1 DUP2 SLOAD ADD DUP1 DUP3 SSTORE DUP1 SWAP2 POP POP PUSH1 0x1 SWAP1 SUB SWAP1 PUSH0 MSTORE PUSH1 0x20 PUSH0 KECCAK256 SWAP1 PUSH1 0x5 MUL ADD PUSH0 SWAP1 SWAP2 SWAP1 SWAP2 SWAP1 SWAP2 POP PUSH0 DUP3 ADD MLOAD DUP2 PUSH0 ADD SWAP1 DUP2 PUSH2 0x5A9 SWAP2 SWAP1 PUSH2 0x1062 JUMP JUMPDEST POP PUSH1 0x20 DUP3 ADD MLOAD DUP2 PUSH1 0x1 ADD SWAP1 DUP2 PUSH2 0x5BF SWAP2 SWAP1 PUSH2 0x1062 JUMP JUMPDEST POP PUSH1 0x40 DUP3 ADD MLOAD DUP2 PUSH1 0x2 ADD SWAP1 DUP2 PUSH2 0x5D5 SWAP2 SWAP1 PUSH2 0x1062 JUMP JUMPDEST POP PUSH1 0x60 DUP3 ADD MLOAD DUP2 PUSH1 0x3 ADD SSTORE PUSH1 0x80 DUP3 ADD MLOAD DUP2 PUSH1 0x4 ADD SSTORE POP POP POP POP POP POP POP POP JUMP JUMPDEST PUSH0 DUP1 PUSH1 0x40 MLOAD DUP1 PUSH1 0xA0 ADD PUSH1 0x40 MSTORE DUP1 DUP10 DUP2 MSTORE PUSH1 0x20 ADD DUP9 DUP2 MSTORE PUSH1 0x20 ADD DUP8 DUP2 MSTORE PUSH1 0x20 ADD DUP6 DUP2 MSTORE PUSH1 0x20 ADD DUP7 DUP2 MSTORE POP SWAP1 POP PUSH0 DUP1 PUSH0 PUSH2 0x62B DUP7 PUSH2 0x653 JUMP JUMPDEST DUP1 SWAP4 POP DUP2 SWAP5 POP DUP3 SWAP6 POP POP POP POP PUSH2 0x643 DUP5 DUP5 DUP5 DUP5 PUSH2 0x690 JUMP JUMPDEST SWAP5 POP POP POP POP POP SWAP7 SWAP6 POP POP POP POP POP POP JUMP JUMPDEST PUSH0 DUP1 PUSH0 PUSH1 0x41 DUP5 MLOAD EQ PUSH2 0x663 JUMPI PUSH0 DUP1 REVERT JUMPDEST PUSH0 DUP1 PUSH0 PUSH1 0x20 DUP8 ADD MLOAD SWAP3 POP PUSH1 0x40 DUP8 ADD MLOAD SWAP2 POP PUSH1 0x60 DUP8 ADD MLOAD PUSH0 BYTE SWAP1 POP DUP1 DUP4 DUP4 SWAP6 POP SWAP6 POP SWAP6 POP POP POP POP SWAP2 SWAP4 SWAP1 SWAP3 POP JUMP JUMPDEST PUSH0 DUP1 PUSH0 SLOAD PUSH2 0x69D DUP8 PUSH2 0x71D JUMP JUMPDEST PUSH1 0x40 MLOAD PUSH1 0x20 ADD PUSH2 0x6AE SWAP3 SWAP2 SWAP1 PUSH2 0x11AE JUMP JUMPDEST PUSH1 0x40 MLOAD PUSH1 0x20 DUP2 DUP4 SUB SUB DUP2 MSTORE SWAP1 PUSH1 0x40 MSTORE DUP1 MLOAD SWAP1 PUSH1 0x20 ADD KECCAK256 SWAP1 POP PUSH1 0x1 DUP2 DUP7 DUP7 DUP7 PUSH1 0x40 MLOAD PUSH0 DUP2 MSTORE PUSH1 0x20 ADD PUSH1 0x40 MSTORE PUSH1 0x40 MLOAD PUSH2 0x6E8 SWAP5 SWAP4 SWAP3 SWAP2 SWAP1 PUSH2 0x120E JUMP JUMPDEST PUSH1 0x20 PUSH1 0x40 MLOAD PUSH1 0x20 DUP2 SUB SWAP1 DUP1 DUP5 SUB SWAP1 DUP6 GAS STATICCALL ISZERO DUP1 ISZERO PUSH2 0x708 JUMPI RETURNDATASIZE PUSH0 DUP1 RETURNDATACOPY RETURNDATASIZE PUSH0 REVERT JUMPDEST POP POP POP PUSH1 0x20 PUSH1 0x40 MLOAD SUB MLOAD SWAP2 POP POP SWAP5 SWAP4 POP POP POP POP JUMP JUMPDEST PUSH0 PUSH32 0x37AC7FFC3BB3032638F4076B219959DBF31B78CA5540AA71A3483C77A77BBC3B DUP3 PUSH0 ADD MLOAD PUSH1 0x40 MLOAD PUSH1 0x20 ADD PUSH2 0x754 SWAP3 SWAP2 SWAP1 PUSH2 0x1251 JUMP JUMPDEST PUSH1 0x40 MLOAD PUSH1 0x20 DUP2 DUP4 SUB SUB DUP2 MSTORE SWAP1 PUSH1 0x40 MSTORE DUP1 MLOAD SWAP1 PUSH1 0x20 ADD KECCAK256 SWAP1 POP SWAP2 SWAP1 POP JUMP JUMPDEST PUSH0 DUP2 SWAP1 POP SWAP2 SWAP1 POP JUMP JUMPDEST PUSH2 0x783 DUP2 PUSH2 0x771 JUMP JUMPDEST DUP3 MSTORE POP POP JUMP JUMPDEST PUSH0 PUSH1 0x20 DUP3 ADD SWAP1 POP PUSH2 0x79C PUSH0 DUP4 ADD DUP5 PUSH2 0x77A JUMP JUMPDEST SWAP3 SWAP2 POP POP JUMP JUMPDEST PUSH0 PUSH1 0x40 MLOAD SWAP1 POP SWAP1 JUMP JUMPDEST PUSH0 DUP1 REVERT JUMPDEST PUSH0 DUP1 REVERT JUMPDEST PUSH2 0x7BC DUP2 PUSH2 0x771 JUMP JUMPDEST DUP2 EQ PUSH2 0x7C6 JUMPI PUSH0 DUP1 REVERT JUMPDEST POP JUMP JUMPDEST PUSH0 DUP2 CALLDATALOAD SWAP1 POP PUSH2 0x7D7 DUP2 PUSH2 0x7B3 JUMP JUMPDEST SWAP3 SWAP2 POP POP JUMP JUMPDEST PUSH0 PUSH1 0x20 DUP3 DUP5 SUB SLT ISZERO PUSH2 0x7F2 JUMPI PUSH2 0x7F1 PUSH2 0x7AB JUMP JUMPDEST JUMPDEST PUSH0 PUSH2 0x7FF DUP5 DUP3 DUP6 ADD PUSH2 0x7C9 JUMP JUMPDEST SWAP2 POP POP SWAP3 SWAP2 POP POP JUMP JUMPDEST PUSH0 DUP2 MLOAD SWAP1 POP SWAP2 SWAP1 POP JUMP JUMPDEST PUSH0 DUP3 DUP3 MSTORE PUSH1 0x20 DUP3 ADD SWAP1 POP SWAP3 SWAP2 POP POP JUMP JUMPDEST PUSH0 JUMPDEST DUP4 DUP2 LT ISZERO PUSH2 0x83F JUMPI DUP1 DUP3 ADD MLOAD DUP2 DUP5 ADD MSTORE PUSH1 0x20 DUP2 ADD SWAP1 POP PUSH2 0x824 JUMP JUMPDEST PUSH0 DUP5 DUP5 ADD MSTORE POP POP POP POP JUMP JUMPDEST PUSH0 PUSH1 0x1F NOT PUSH1 0x1F DUP4 ADD AND SWAP1 POP SWAP2 SWAP1 POP JUMP JUMPDEST PUSH0 PUSH2 0x864 DUP3 PUSH2 0x808 JUMP JUMPDEST PUSH2 0x86E DUP2 DUP6 PUSH2 0x812 JUMP JUMPDEST SWAP4 POP PUSH2 0x87E DUP2 DUP6 PUSH1 0x20 DUP7 ADD PUSH2 0x822 JUMP JUMPDEST PUSH2 0x887 DUP2 PUSH2 0x84A JUMP JUMPDEST DUP5 ADD SWAP2 POP POP SWAP3 SWAP2 POP POP JUMP JUMPDEST PUSH0 PUSH1 0xA0 DUP3 ADD SWAP1 POP DUP2 DUP2 SUB PUSH0 DUP4 ADD MSTORE PUSH2 0x8AA DUP2 DUP9 PUSH2 0x85A JUMP JUMPDEST SWAP1 POP DUP2 DUP2 SUB PUSH1 0x20 DUP4 ADD MSTORE PUSH2 0x8BE DUP2 DUP8 PUSH2 0x85A JUMP JUMPDEST SWAP1 POP DUP2 DUP2 SUB PUSH1 0x40 DUP4 ADD MSTORE PUSH2 0x8D2 DUP2 DUP7 PUSH2 0x85A JUMP JUMPDEST SWAP1 POP PUSH2 0x8E1 PUSH1 0x60 DUP4 ADD DUP6 PUSH2 0x77A JUMP JUMPDEST PUSH2 0x8EE PUSH1 0x80 DUP4 ADD DUP5 PUSH2 0x77A JUMP JUMPDEST SWAP7 SWAP6 POP POP POP POP POP POP JUMP JUMPDEST PUSH0 PUSH20 0xFFFFFFFFFFFFFFFFFFFFFFFFFFFFFFFFFFFFFFFF DUP3 AND SWAP1 POP SWAP2 SWAP1 POP JUMP JUMPDEST PUSH0 PUSH2 0x921 DUP3 PUSH2 0x8F8 JUMP JUMPDEST SWAP1 POP SWAP2 SWAP1 POP JUMP JUMPDEST PUSH2 0x931 DUP2 PUSH2 0x917 JUMP JUMPDEST DUP2 EQ PUSH2 0x93B JUMPI PUSH0 DUP1 REVERT JUMPDEST POP JUMP JUMPDEST PUSH0 DUP2 CALLDATALOAD SWAP1 POP PUSH2 0x94C DUP2 PUSH2 0x928 JUMP JUMPDEST SWAP3 SWAP2 POP POP JUMP JUMPDEST PUSH0 PUSH1 0x20 DUP3 DUP5 SUB SLT ISZERO PUSH2 0x967 JUMPI PUSH2 0x966 PUSH2 0x7AB JUMP JUMPDEST JUMPDEST PUSH0 PUSH2 0x974 DUP5 DUP3 DUP6 ADD PUSH2 0x93E JUMP JUMPDEST SWAP2 POP POP SWAP3 SWAP2 POP POP JUMP JUMPDEST PUSH0 DUP1 REVERT JUMPDEST PUSH0 DUP1 REVERT JUMPDEST PUSH32 0x4E487B7100000000000000000000000000000000000000000000000000000000 PUSH0 MSTORE PUSH1 0x41 PUSH1 0x4 MSTORE PUSH1 0x24 PUSH0 REVERT JUMPDEST PUSH2 0x9BB DUP3 PUSH2 0x84A JUMP JUMPDEST DUP2 ADD DUP2 DUP2 LT PUSH8 0xFFFFFFFFFFFFFFFF DUP3 GT OR ISZERO PUSH2 0x9DA JUMPI PUSH2 0x9D9 PUSH2 0x985 JUMP JUMPDEST JUMPDEST DUP1 PUSH1 0x40 MSTORE POP POP POP JUMP JUMPDEST PUSH0 PUSH2 0x9EC PUSH2 0x7A2 JUMP JUMPDEST SWAP1 POP PUSH2 0x9F8 DUP3 DUP3 PUSH2 0x9B2 JUMP JUMPDEST SWAP2 SWAP1 POP JUMP JUMPDEST PUSH0 PUSH8 0xFFFFFFFFFFFFFFFF DUP3 GT ISZERO PUSH2 0xA17 JUMPI PUSH2 0xA16 PUSH2 0x985 JUMP JUMPDEST JUMPDEST PUSH2 0xA20 DUP3 PUSH2 0x84A JUMP JUMPDEST SWAP1 POP PUSH1 0x20 DUP2 ADD SWAP1 POP SWAP2 SWAP1 POP JUMP JUMPDEST DUP3 DUP2 DUP4 CALLDATACOPY PUSH0 DUP4 DUP4 ADD MSTORE POP POP POP JUMP JUMPDEST PUSH0 PUSH2 0xA4D PUSH2 0xA48 DUP5 PUSH2 0x9FD JUMP JUMPDEST PUSH2 0x9E3 JUMP JUMPDEST SWAP1 POP DUP3 DUP2 MSTORE PUSH1 0x20 DUP2 ADD DUP5 DUP5 DUP5 ADD GT ISZERO PUSH2 0xA69 JUMPI PUSH2 0xA68 PUSH2 0x981 JUMP JUMPDEST JUMPDEST PUSH2 0xA74 DUP5 DUP3 DUP6 PUSH2 0xA2D JUMP JUMPDEST POP SWAP4 SWAP3 POP POP POP JUMP JUMPDEST PUSH0 DUP3 PUSH1 0x1F DUP4 ADD SLT PUSH2 0xA90 JUMPI PUSH2 0xA8F PUSH2 0x97D JUMP JUMPDEST JUMPDEST DUP2 CALLDATALOAD PUSH2 0xAA0 DUP5 DUP3 PUSH1 0x20 DUP7 ADD PUSH2 0xA3B JUMP JUMPDEST SWAP2 POP POP SWAP3 SWAP2 POP POP JUMP JUMPDEST PUSH0 PUSH8 0xFFFFFFFFFFFFFFFF DUP3 GT ISZERO PUSH2 0xAC3 JUMPI PUSH2 0xAC2 PUSH2 0x985 JUMP JUMPDEST JUMPDEST PUSH2 0xACC DUP3 PUSH2 0x84A JUMP JUMPDEST SWAP1 POP PUSH1 0x20 DUP2 ADD SWAP1 POP SWAP2 SWAP1 POP JUMP JUMPDEST PUSH0 PUSH2 0xAEB PUSH2 0xAE6 DUP5 PUSH2 0xAA9 JUMP JUMPDEST PUSH2 0x9E3 JUMP JUMPDEST SWAP1 POP DUP3 DUP2 MSTORE PUSH1 0x20 DUP2 ADD DUP5 DUP5 DUP5 ADD GT ISZERO PUSH2 0xB07 JUMPI PUSH2 0xB06 PUSH2 0x981 JUMP JUMPDEST JUMPDEST PUSH2 0xB12 DUP5 DUP3 DUP6 PUSH2 0xA2D JUMP JUMPDEST POP SWAP4 SWAP3 POP POP POP JUMP JUMPDEST PUSH0 DUP3 PUSH1 0x1F DUP4 ADD SLT PUSH2 0xB2E JUMPI PUSH2 0xB2D PUSH2 0x97D JUMP JUMPDEST JUMPDEST DUP2 CALLDATALOAD PUSH2 0xB3E DUP5 DUP3 PUSH1 0x20 DUP7 ADD PUSH2 0xAD9 JUMP JUMPDEST SWAP2 POP POP SWAP3 SWAP2 POP POP JUMP JUMPDEST PUSH0 DUP1 PUSH0 DUP1 PUSH0 DUP1 PUSH1 0xC0 DUP8 DUP10 SUB SLT ISZERO PUSH2 0xB61 JUMPI PUSH2 0xB60 PUSH2 0x7AB JUMP JUMPDEST JUMPDEST PUSH0 DUP8 ADD CALLDATALOAD PUSH8 0xFFFFFFFFFFFFFFFF DUP2 GT ISZERO PUSH2 0xB7E JUMPI PUSH2 0xB7D PUSH2 0x7AF JUMP JUMPDEST JUMPDEST PUSH2 0xB8A DUP10 DUP3 DUP11 ADD PUSH2 0xA7C JUMP JUMPDEST SWAP7 POP POP PUSH1 0x20 DUP8 ADD CALLDATALOAD PUSH8 0xFFFFFFFFFFFFFFFF DUP2 GT ISZERO PUSH2 0xBAB JUMPI PUSH2 0xBAA PUSH2 0x7AF JUMP JUMPDEST JUMPDEST PUSH2 0xBB7 DUP10 DUP3 DUP11 ADD PUSH2 0xA7C JUMP JUMPDEST SWAP6 POP POP PUSH1 0x40 DUP8 ADD CALLDATALOAD PUSH8 0xFFFFFFFFFFFFFFFF DUP2 GT ISZERO PUSH2 0xBD8 JUMPI PUSH2 0xBD7 PUSH2 0x7AF JUMP JUMPDEST JUMPDEST PUSH2 0xBE4 DUP10 DUP3 DUP11 ADD PUSH2 0xA7C JUMP JUMPDEST SWAP5 POP POP PUSH1 0x60 PUSH2 0xBF5 DUP10 DUP3 DUP11 ADD PUSH2 0x7C9 JUMP JUMPDEST SWAP4 POP POP PUSH1 0x80 PUSH2 0xC06 DUP10 DUP3 DUP11 ADD PUSH2 0x7C9 JUMP JUMPDEST SWAP3 POP POP PUSH1 0xA0 DUP8 ADD CALLDATALOAD PUSH8 0xFFFFFFFFFFFFFFFF DUP2 GT ISZERO PUSH2 0xC27 JUMPI PUSH2 0xC26 PUSH2 0x7AF JUMP JUMPDEST JUMPDEST PUSH2 0xC33 DUP10 DUP3 DUP11 ADD PUSH2 0xB1A JUMP JUMPDEST SWAP2 POP POP SWAP3 SWAP6 POP SWAP3 SWAP6 POP SWAP3 SWAP6 JUMP JUMPDEST PUSH2 0xC49 DUP2 PUSH2 0x917 JUMP JUMPDEST DUP3 MSTORE POP POP JUMP JUMPDEST PUSH0 PUSH1 0x20 DUP3 ADD SWAP1 POP PUSH2 0xC62 PUSH0 DUP4 ADD DUP5 PUSH2 0xC40 JUMP JUMPDEST SWAP3 SWAP2 POP POP JUMP JUMPDEST PUSH32 0x4E487B7100000000000000000000000000000000000000000000000000000000 PUSH0 MSTORE PUSH1 0x22 PUSH1 0x4 MSTORE PUSH1 0x24 PUSH0 REVERT JUMPDEST PUSH0 PUSH1 0x2 DUP3 DIV SWAP1 POP PUSH1 0x1 DUP3 AND DUP1 PUSH2 0xCAC JUMPI PUSH1 0x7F DUP3 AND SWAP2 POP JUMPDEST PUSH1 0x20 DUP3 LT DUP2 SUB PUSH2 0xCBF JUMPI PUSH2 0xCBE PUSH2 0xC68 JUMP JUMPDEST JUMPDEST POP SWAP2 SWAP1 POP JUMP JUMPDEST PUSH32 0x496E76616C6964207369676E6174757265000000000000000000000000000000 PUSH0 DUP3 ADD MSTORE POP JUMP JUMPDEST PUSH0 PUSH2 0xCF9 PUSH1 0x11 DUP4 PUSH2 0x812 JUMP JUMPDEST SWAP2 POP PUSH2 0xD04 DUP3 PUSH2 0xCC5 JUMP JUMPDEST PUSH1 0x20 DUP3 ADD SWAP1 POP SWAP2 SWAP1 POP JUMP JUMPDEST PUSH0 PUSH1 0x20 DUP3 ADD SWAP1 POP DUP2 DUP2 SUB PUSH0 DUP4 ADD MSTORE PUSH2 0xD26 DUP2 PUSH2 0xCED JUMP JUMPDEST SWAP1 POP SWAP2 SWAP1 POP JUMP JUMPDEST PUSH32 0x696E76616C696420746965720000000000000000000000000000000000000000 PUSH0 DUP3 ADD MSTORE POP JUMP JUMPDEST PUSH0 PUSH2 0xD61 PUSH1 0xC DUP4 PUSH2 0x812 JUMP JUMPDEST SWAP2 POP PUSH2 0xD6C DUP3 PUSH2 0xD2D JUMP JUMPDEST PUSH1 0x20 DUP3 ADD SWAP1 POP SWAP2 SWAP1 POP JUMP JUMPDEST PUSH0 PUSH1 0x20 DUP3 ADD SWAP1 POP DUP2 DUP2 SUB PUSH0 DUP4 ADD MSTORE PUSH2 0xD8E DUP2 PUSH2 0xD55 JUMP JUMPDEST SWAP1 POP SWAP2 SWAP1 POP JUMP JUMPDEST PUSH32 0x696E636F7265637420707269636520666F722074696572000000000000000000 PUSH0 DUP3 ADD MSTORE POP JUMP JUMPDEST PUSH0 PUSH2 0xDC9 PUSH1 0x17 DUP4 PUSH2 0x812 JUMP JUMPDEST SWAP2 POP PUSH2 0xDD4 DUP3 PUSH2 0xD95 JUMP JUMPDEST PUSH1 0x20 DUP3 ADD SWAP1 POP SWAP2 SWAP1 POP JUMP JUMPDEST PUSH0 PUSH1 0x20 DUP3 ADD SWAP1 POP DUP2 DUP2 SUB PUSH0 DUP4 ADD MSTORE PUSH2 0xDF6 DUP2 PUSH2 0xDBD JUMP JUMPDEST SWAP1 POP SWAP2 SWAP1 POP JUMP JUMPDEST PUSH32 0x70617373656420646561646C696E650000000000000000000000000000000000 PUSH0 DUP3 ADD MSTORE POP JUMP JUMPDEST PUSH0 PUSH2 0xE31 PUSH1 0xF DUP4 PUSH2 0x812 JUMP JUMPDEST SWAP2 POP PUSH2 0xE3C DUP3 PUSH2 0xDFD JUMP JUMPDEST PUSH1 0x20 DUP3 ADD SWAP1 POP SWAP2 SWAP1 POP JUMP JUMPDEST PUSH0 PUSH1 0x20 DUP3 ADD SWAP1 POP DUP2 DUP2 SUB PUSH0 DUP4 ADD MSTORE PUSH2 0xE5E DUP2 PUSH2 0xE25 JUMP JUMPDEST SWAP1 POP SWAP2 SWAP1 POP JUMP JUMPDEST PUSH32 0x4E487B7100000000000000000000000000000000000000000000000000000000 PUSH0 MSTORE PUSH1 0x11 PUSH1 0x4 MSTORE PUSH1 0x24 PUSH0 REVERT JUMPDEST PUSH0 PUSH2 0xE9C DUP3 PUSH2 0x771 JUMP JUMPDEST SWAP2 POP PUSH2 0xEA7 DUP4 PUSH2 0x771 JUMP JUMPDEST SWAP3 POP DUP3 DUP3 ADD SWAP1 POP DUP1 DUP3 GT ISZERO PUSH2 0xEBF JUMPI PUSH2 0xEBE PUSH2 0xE65 JUMP JUMPDEST JUMPDEST SWAP3 SWAP2 POP POP JUMP JUMPDEST PUSH0 DUP2 SWAP1 POP DUP2 PUSH0 MSTORE PUSH1 0x20 PUSH0 KECCAK256 SWAP1 POP SWAP2 SWAP1 POP JUMP JUMPDEST PUSH0 PUSH1 0x20 PUSH1 0x1F DUP4 ADD DIV SWAP1 POP SWAP2 SWAP1 POP JUMP JUMPDEST PUSH0 DUP3 DUP3 SHL SWAP1 POP SWAP3 SWAP2 POP POP JUMP JUMPDEST PUSH0 PUSH1 0x8 DUP4 MUL PUSH2 0xF21 PUSH32 0xFFFFFFFFFFFFFFFFFFFFFFFFFFFFFFFFFFFFFFFFFFFFFFFFFFFFFFFFFFFFFFFF DUP3 PUSH2 0xEE6 JUMP JUMPDEST PUSH2 0xF2B DUP7 DUP4 PUSH2 0xEE6 JUMP JUMPDEST SWAP6 POP DUP1 NOT DUP5 AND SWAP4 POP DUP1 DUP7 AND DUP5 OR SWAP3 POP POP POP SWAP4 SWAP3 POP POP POP JUMP JUMPDEST PUSH0 DUP2 SWAP1 POP SWAP2 SWAP1 POP JUMP JUMPDEST PUSH0 PUSH2 0xF66 PUSH2 0xF61 PUSH2 0xF5C DUP5 PUSH2 0x771 JUMP JUMPDEST PUSH2 0xF43 JUMP JUMPDEST PUSH2 0x771 JUMP JUMPDEST SWAP1 POP SWAP2 SWAP1 POP JUMP JUMPDEST PUSH0 DUP2 SWAP1 POP SWAP2 SWAP1 POP JUMP JUMPDEST PUSH2 0xF7F DUP4 PUSH2 0xF4C JUMP JUMPDEST PUSH2 0xF93 PUSH2 0xF8B DUP3 PUSH2 0xF6D JUMP JUMPDEST DUP5 DUP5 SLOAD PUSH2 0xEF2 JUMP JUMPDEST DUP3 SSTORE POP POP POP POP JUMP JUMPDEST PUSH0 SWAP1 JUMP JUMPDEST PUSH2 0xFA7 PUSH2 0xF9B JUMP JUMPDEST PUSH2 0xFB2 DUP2 DUP5 DUP5 PUSH2 0xF76 JUMP JUMPDEST POP POP POP JUMP JUMPDEST JUMPDEST DUP2 DUP2 LT ISZERO PUSH2 0xFD5 JUMPI PUSH2 0xFCA PUSH0 DUP3 PUSH2 0xF9F JUMP JUMPDEST PUSH1 0x1 DUP2 ADD SWAP1 POP PUSH2 0xFB8 JUMP JUMPDEST POP POP JUMP JUMPDEST PUSH1 0x1F DUP3 GT ISZERO PUSH2 0x101A JUMPI PUSH2 0xFEB DUP2 PUSH2 0xEC5 JUMP JUMPDEST PUSH2 0xFF4 DUP5 PUSH2 0xED7 JUMP JUMPDEST DUP2 ADD PUSH1 0x20 DUP6 LT ISZERO PUSH2 0x1003 JUMPI DUP2 SWAP1 POP JUMPDEST PUSH2 0x1017 PUSH2 0x100F DUP6 PUSH2 0xED7 JUMP JUMPDEST DUP4 ADD DUP3 PUSH2 0xFB7 JUMP JUMPDEST POP POP JUMPDEST POP POP POP JUMP JUMPDEST PUSH0 DUP3 DUP3 SHR SWAP1 POP SWAP3 SWAP2 POP POP JUMP JUMPDEST PUSH0 PUSH2 0x103A PUSH0 NOT DUP5 PUSH1 0x8 MUL PUSH2 0x101F JUMP JUMPDEST NOT DUP1 DUP4 AND SWAP2 POP POP SWAP3 SWAP2 POP POP JUMP JUMPDEST PUSH0 PUSH2 0x1052 DUP4 DUP4 PUSH2 0x102B JUMP JUMPDEST SWAP2 POP DUP3 PUSH1 0x2 MUL DUP3 OR SWAP1 POP SWAP3 SWAP2 POP POP JUMP JUMPDEST PUSH2 0x106B DUP3 PUSH2 0x808 JUMP JUMPDEST PUSH8 0xFFFFFFFFFFFFFFFF DUP2 GT ISZERO PUSH2 0x1084 JUMPI PUSH2 0x1083 PUSH2 0x985 JUMP JUMPDEST JUMPDEST PUSH2 0x108E DUP3 SLOAD PUSH2 0xC95 JUMP JUMPDEST PUSH2 0x1099 DUP3 DUP3 DUP6 PUSH2 0xFD9 JUMP JUMPDEST PUSH0 PUSH1 0x20 SWAP1 POP PUSH1 0x1F DUP4 GT PUSH1 0x1 DUP2 EQ PUSH2 0x10CA JUMPI PUSH0 DUP5 ISZERO PUSH2 0x10B8 JUMPI DUP3 DUP8 ADD MLOAD SWAP1 POP JUMPDEST PUSH2 0x10C2 DUP6 DUP3 PUSH2 0x1047 JUMP JUMPDEST DUP7 SSTORE POP PUSH2 0x1129 JUMP JUMPDEST PUSH1 0x1F NOT DUP5 AND PUSH2 0x10D8 DUP7 PUSH2 0xEC5 JUMP JUMPDEST PUSH0 JUMPDEST DUP3 DUP2 LT ISZERO PUSH2 0x10FF JUMPI DUP5 DUP10 ADD MLOAD DUP3 SSTORE PUSH1 0x1 DUP3 ADD SWAP2 POP PUSH1 0x20 DUP6 ADD SWAP5 POP PUSH1 0x20 DUP2 ADD SWAP1 POP PUSH2 0x10DA JUMP JUMPDEST DUP7 DUP4 LT ISZERO PUSH2 0x111C JUMPI DUP5 DUP10 ADD MLOAD PUSH2 0x1118 PUSH1 0x1F DUP10 AND DUP3 PUSH2 0x102B JUMP JUMPDEST DUP4 SSTORE POP JUMPDEST PUSH1 0x1 PUSH1 0x2 DUP9 MUL ADD DUP9 SSTORE POP POP POP JUMPDEST POP POP POP POP POP POP JUMP JUMPDEST PUSH0 DUP2 SWAP1 POP SWAP3 SWAP2 POP POP JUMP JUMPDEST PUSH32 0x1901000000000000000000000000000000000000000000000000000000000000 PUSH0 DUP3 ADD MSTORE POP JUMP JUMPDEST PUSH0 PUSH2 0x116F PUSH1 0x2 DUP4 PUSH2 0x1131 JUMP JUMPDEST SWAP2 POP PUSH2 0x117A DUP3 PUSH2 0x113B JUMP JUMPDEST PUSH1 0x2 DUP3 ADD SWAP1 POP SWAP2 SWAP1 POP JUMP JUMPDEST PUSH0 DUP2 SWAP1 POP SWAP2 SWAP1 POP JUMP JUMPDEST PUSH0 DUP2 SWAP1 POP SWAP2 SWAP1 POP JUMP JUMPDEST PUSH2 0x11A8 PUSH2 0x11A3 DUP3 PUSH2 0x1185 JUMP JUMPDEST PUSH2 0x118E JUMP JUMPDEST DUP3 MSTORE POP POP JUMP JUMPDEST PUSH0 PUSH2 0x11B8 DUP3 PUSH2 0x1163 JUMP JUMPDEST SWAP2 POP PUSH2 0x11C4 DUP3 DUP6 PUSH2 0x1197 JUMP JUMPDEST PUSH1 0x20 DUP3 ADD SWAP2 POP PUSH2 0x11D4 DUP3 DUP5 PUSH2 0x1197 JUMP JUMPDEST PUSH1 0x20 DUP3 ADD SWAP2 POP DUP2 SWAP1 POP SWAP4 SWAP3 POP POP POP JUMP JUMPDEST PUSH2 0x11ED DUP2 PUSH2 0x1185 JUMP JUMPDEST DUP3 MSTORE POP POP JUMP JUMPDEST PUSH0 PUSH1 0xFF DUP3 AND SWAP1 POP SWAP2 SWAP1 POP JUMP JUMPDEST PUSH2 0x1208 DUP2 PUSH2 0x11F3 JUMP JUMPDEST DUP3 MSTORE POP POP JUMP JUMPDEST PUSH0 PUSH1 0x80 DUP3 ADD SWAP1 POP PUSH2 0x1221 PUSH0 DUP4 ADD DUP8 PUSH2 0x11E4 JUMP JUMPDEST PUSH2 0x122E PUSH1 0x20 DUP4 ADD DUP7 PUSH2 0x11FF JUMP JUMPDEST PUSH2 0x123B PUSH1 0x40 DUP4 ADD DUP6 PUSH2 0x11E4 JUMP JUMPDEST PUSH2 0x1248 PUSH1 0x60 DUP4 ADD DUP5 PUSH2 0x11E4 JUMP JUMPDEST SWAP6 SWAP5 POP POP POP POP POP JUMP JUMPDEST PUSH0 PUSH1 0x40 DUP3 ADD SWAP1 POP PUSH2 0x1264 PUSH0 DUP4 ADD DUP6 PUSH2 0x11E4 JUMP JUMPDEST DUP2 DUP2 SUB PUSH1 0x20 DUP4 ADD MSTORE PUSH2 0x1276 DUP2 DUP5 PUSH2 0x85A JUMP JUMPDEST SWAP1 POP SWAP4 SWAP3 POP POP POP JUMP INVALID LOG2 PUSH5 0x6970667358 0x22 SLT KECCAK256 0xB7 0xC8 0xE8 PC SELFBALANCE SDIV SWAP6 XOR LOG1 DUP13 PUSH16 0xC98CF4D21C885E505A0CA333C43B8E XOR 0xB2 CALLDATALOAD DUP11 SHR PUSH5 0x736F6C6343 STOP ADDMOD EQ STOP CALLER "},"methodIdentifiers":{"_getChainId()":"02346b05","frensTrust(address)":"72e09af2","messages(uint256)":"0d80fefd","submitMessage(string,string,string,uint256,uint256,bytes)":"baed55e8","tierPrice(uint256)":"826d3379","validateMessage(string,string,string,uint256,uint256,bytes)":"fa09da07"}}}}}