{"contracts/EIP712Message.sol":{"EIP712Message":{"abi":[{"inputs":[{"internalType":"string","name":"name","type":"string"},{"internalType":"string","name":"version","type":"string"}],"stateMutability":"nonpayable","type":"constructor"},{"inputs":[],"name":"_getChainId","outputs":[{"internalType":"uint256","name":"chainId","type":"uint256"}],"stateMutability":"view","type":"function"},{"inputs":[{"internalType":"string","name":"message","type":"string"},{"internalType":"string","name":"latitude","type":"string"},{"internalType":"string","name":"longitude","type":"string"},{"internalType":"uint256","name":"time","type":"uint256"},{"internalType":"uint256","name":"tier","type":"uint256"},{"internalType":"bytes","name":"_signature","type":"bytes"}],"name":"validateMessage","outputs":[{"internalType":"address","name":"","type":"address"}],"stateMutability":"view","type":"function"}],"evm":{"bytecode":{"linkReferences":{},"object":"61014060405234801562000011575f80fd5b5060405162000c9638038062000c96833981810160405281019062000037919062000388565b81815f828051906020012090505f828051906020012090505f7f8b73c3c69bb8fe3d512ecc4cf759cc79239f7b179b0ffacaa9a75d522b39400f90508260e081815250508161010081815250504660a081815250506200009f8184846200014b60201b60201c565b608081815250503073ffffffffffffffffffffffffffffffffffffffff1660c08173ffffffffffffffffffffffffffffffffffffffff168152505080610120818152505050505050506200013e6040518060800160405280848152602001838152602001620001136200018660201b60201c565b81526020013073ffffffffffffffffffffffffffffffffffffffff168152506200018d60201b60201c565b5f819055505050620004dd565b5f83838346306040516020016200016795949392919062000482565b6040516020818303038152906040528051906020012090509392505050565b5f46905090565b5f7f8b73c3c69bb8fe3d512ecc4cf759cc79239f7b179b0ffacaa9a75d522b39400f825f01518051906020012083602001518051906020012084604001518560600151604051602001620001e695949392919062000482565b604051602081830303815290604052805190602001209050919050565b5f604051905090565b5f80fd5b5f80fd5b5f80fd5b5f80fd5b5f601f19601f8301169050919050565b7f4e487b71000000000000000000000000000000000000000000000000000000005f52604160045260245ffd5b62000264826200021c565b810181811067ffffffffffffffff821117156200028657620002856200022c565b5b80604052505050565b5f6200029a62000203565b9050620002a8828262000259565b919050565b5f67ffffffffffffffff821115620002ca57620002c96200022c565b5b620002d5826200021c565b9050602081019050919050565b5f5b8381101562000301578082015181840152602081019050620002e4565b5f8484015250505050565b5f620003226200031c84620002ad565b6200028f565b90508281526020810184848401111562000341576200034062000218565b5b6200034e848285620002e2565b509392505050565b5f82601f8301126200036d576200036c62000214565b5b81516200037f8482602086016200030c565b91505092915050565b5f8060408385031215620003a157620003a06200020c565b5b5f83015167ffffffffffffffff811115620003c157620003c062000210565b5b620003cf8582860162000356565b925050602083015167ffffffffffffffff811115620003f357620003f262000210565b5b620004018582860162000356565b9150509250929050565b5f819050919050565b6200041f816200040b565b82525050565b5f819050919050565b620004398162000425565b82525050565b5f73ffffffffffffffffffffffffffffffffffffffff82169050919050565b5f6200046a826200043f565b9050919050565b6200047c816200045e565b82525050565b5f60a082019050620004975f83018862000414565b620004a6602083018762000414565b620004b5604083018662000414565b620004c460608301856200042e565b620004d3608083018462000471565b9695505050505050565b60805160a05160c05160e0516101005161012051610783620005135f395f50505f50505f50505f50505f50505f50506107835ff3fe608060405234801561000f575f80fd5b5060043610610034575f3560e01c806302346b0514610038578063fa09da0714610056575b5f80fd5b610040610086565b60405161004d919061024f565b60405180910390f35b610070600480360381019061006b919061047d565b61008d565b60405161007d91906105b5565b60405180910390f35b5f46905090565b5f806040518060a001604052808981526020018881526020018781526020018581526020018681525090505f805f6100c4866100ec565b8093508194508295505050506100dc84848484610129565b9450505050509695505050505050565b5f805f60418451146100fc575f80fd5b5f805f602087015192506040870151915060608701515f1a90508083839550955095505050509193909250565b5f805f54610136876101b6565b60405160200161014792919061064b565b6040516020818303038152906040528051906020012090506001818686866040515f815260200160405260405161018194939291906106ab565b6020604051602081039080840390855afa1580156101a1573d5f803e3d5ffd5b50505060206040510351915050949350505050565b5f7facf5fe31302e000a021505d68f64f59a958ed052954af199025629c07a5c0912825f0151805190602001208360200151805190602001208460400151805190602001208560600151866080015160405160200161021a969594939291906106ee565b604051602081830303815290604052805190602001209050919050565b5f819050919050565b61024981610237565b82525050565b5f6020820190506102625f830184610240565b92915050565b5f604051905090565b5f80fd5b5f80fd5b5f80fd5b5f80fd5b5f601f19601f8301169050919050565b7f4e487b71000000000000000000000000000000000000000000000000000000005f52604160045260245ffd5b6102c782610281565b810181811067ffffffffffffffff821117156102e6576102e5610291565b5b80604052505050565b5f6102f8610268565b905061030482826102be565b919050565b5f67ffffffffffffffff82111561032357610322610291565b5b61032c82610281565b9050602081019050919050565b828183375f83830152505050565b5f61035961035484610309565b6102ef565b9050828152602081018484840111156103755761037461027d565b5b610380848285610339565b509392505050565b5f82601f83011261039c5761039b610279565b5b81356103ac848260208601610347565b91505092915050565b6103be81610237565b81146103c8575f80fd5b50565b5f813590506103d9816103b5565b92915050565b5f67ffffffffffffffff8211156103f9576103f8610291565b5b61040282610281565b9050602081019050919050565b5f61042161041c846103df565b6102ef565b90508281526020810184848401111561043d5761043c61027d565b5b610448848285610339565b509392505050565b5f82601f83011261046457610463610279565b5b813561047484826020860161040f565b91505092915050565b5f805f805f8060c0878903121561049757610496610271565b5b5f87013567ffffffffffffffff8111156104b4576104b3610275565b5b6104c089828a01610388565b965050602087013567ffffffffffffffff8111156104e1576104e0610275565b5b6104ed89828a01610388565b955050604087013567ffffffffffffffff81111561050e5761050d610275565b5b61051a89828a01610388565b945050606061052b89828a016103cb565b935050608061053c89828a016103cb565b92505060a087013567ffffffffffffffff81111561055d5761055c610275565b5b61056989828a01610450565b9150509295509295509295565b5f73ffffffffffffffffffffffffffffffffffffffff82169050919050565b5f61059f82610576565b9050919050565b6105af81610595565b82525050565b5f6020820190506105c85f8301846105a6565b92915050565b5f81905092915050565b7f19010000000000000000000000000000000000000000000000000000000000005f82015250565b5f61060c6002836105ce565b9150610617826105d8565b600282019050919050565b5f819050919050565b5f819050919050565b61064561064082610622565b61062b565b82525050565b5f61065582610600565b91506106618285610634565b6020820191506106718284610634565b6020820191508190509392505050565b61068a81610622565b82525050565b5f60ff82169050919050565b6106a581610690565b82525050565b5f6080820190506106be5f830187610681565b6106cb602083018661069c565b6106d86040830185610681565b6106e56060830184610681565b95945050505050565b5f60c0820190506107015f830189610681565b61070e6020830188610681565b61071b6040830187610681565b6107286060830186610681565b6107356080830185610240565b61074260a0830184610240565b97965050505050505056fea264697066735822122010f9894cfeb95bb0e54b89393fe09af90fcc935b235b0210ac5c3df8f130482864736f6c63430008140033","opcodes":"PUSH2 0x140 PUSH1 0x40 MSTORE CALLVALUE DUP1 ISZERO PUSH3 0x11 JUMPI PUSH0 DUP1 REVERT JUMPDEST POP PUSH1 0x40 MLOAD PUSH3 0xC96 CODESIZE SUB DUP1 PUSH3 0xC96 DUP4 CODECOPY DUP2 DUP2 ADD PUSH1 0x40 MSTORE DUP2 ADD SWAP1 PUSH3 0x37 SWAP2 SWAP1 PUSH3 0x388 JUMP JUMPDEST DUP2 DUP2 PUSH0 DUP3 DUP1 MLOAD SWAP1 PUSH1 0x20 ADD KECCAK256 SWAP1 POP PUSH0 DUP3 DUP1 MLOAD SWAP1 PUSH1 0x20 ADD KECCAK256 SWAP1 POP PUSH0 PUSH32 0x8B73C3C69BB8FE3D512ECC4CF759CC79239F7B179B0FFACAA9A75D522B39400F SWAP1 POP DUP3 PUSH1 0xE0 DUP2 DUP2 MSTORE POP POP DUP2 PUSH2 0x100 DUP2 DUP2 MSTORE POP POP CHAINID PUSH1 0xA0 DUP2 DUP2 MSTORE POP POP PUSH3 0x9F DUP2 DUP5 DUP5 PUSH3 0x14B PUSH1 0x20 SHL PUSH1 0x20 SHR JUMP JUMPDEST PUSH1 0x80 DUP2 DUP2 MSTORE POP POP ADDRESS PUSH20 0xFFFFFFFFFFFFFFFFFFFFFFFFFFFFFFFFFFFFFFFF AND PUSH1 0xC0 DUP2 PUSH20 0xFFFFFFFFFFFFFFFFFFFFFFFFFFFFFFFFFFFFFFFF AND DUP2 MSTORE POP POP DUP1 PUSH2 0x120 DUP2 DUP2 MSTORE POP POP POP POP POP POP POP PUSH3 0x13E PUSH1 0x40 MLOAD DUP1 PUSH1 0x80 ADD PUSH1 0x40 MSTORE DUP1 DUP5 DUP2 MSTORE PUSH1 0x20 ADD DUP4 DUP2 MSTORE PUSH1 0x20 ADD PUSH3 0x113 PUSH3 0x186 PUSH1 0x20 SHL PUSH1 0x20 SHR JUMP JUMPDEST DUP2 MSTORE PUSH1 0x20 ADD ADDRESS PUSH20 0xFFFFFFFFFFFFFFFFFFFFFFFFFFFFFFFFFFFFFFFF AND DUP2 MSTORE POP PUSH3 0x18D PUSH1 0x20 SHL PUSH1 0x20 SHR JUMP JUMPDEST PUSH0 DUP2 SWAP1 SSTORE POP POP POP PUSH3 0x4DD JUMP JUMPDEST PUSH0 DUP4 DUP4 DUP4 CHAINID ADDRESS PUSH1 0x40 MLOAD PUSH1 0x20 ADD PUSH3 0x167 SWAP6 SWAP5 SWAP4 SWAP3 SWAP2 SWAP1 PUSH3 0x482 JUMP JUMPDEST PUSH1 0x40 MLOAD PUSH1 0x20 DUP2 DUP4 SUB SUB DUP2 MSTORE SWAP1 PUSH1 0x40 MSTORE DUP1 MLOAD SWAP1 PUSH1 0x20 ADD KECCAK256 SWAP1 POP SWAP4 SWAP3 POP POP POP JUMP JUMPDEST PUSH0 CHAINID SWAP1 POP SWAP1 JUMP JUMPDEST PUSH0 PUSH32 0x8B73C3C69BB8FE3D512ECC4CF759CC79239F7B179B0FFACAA9A75D522B39400F DUP3 PUSH0 ADD MLOAD DUP1 MLOAD SWAP1 PUSH1 0x20 ADD KECCAK256 DUP4 PUSH1 0x20 ADD MLOAD DUP1 MLOAD SWAP1 PUSH1 0x20 ADD KECCAK256 DUP5 PUSH1 0x40 ADD MLOAD DUP6 PUSH1 0x60 ADD MLOAD PUSH1 0x40 MLOAD PUSH1 0x20 ADD PUSH3 0x1E6 SWAP6 SWAP5 SWAP4 SWAP3 SWAP2 SWAP1 PUSH3 0x482 JUMP JUMPDEST PUSH1 0x40 MLOAD PUSH1 0x20 DUP2 DUP4 SUB SUB DUP2 MSTORE SWAP1 PUSH1 0x40 MSTORE DUP1 MLOAD SWAP1 PUSH1 0x20 ADD KECCAK256 SWAP1 POP SWAP2 SWAP1 POP JUMP JUMPDEST PUSH0 PUSH1 0x40 MLOAD SWAP1 POP SWAP1 JUMP JUMPDEST PUSH0 DUP1 REVERT JUMPDEST PUSH0 DUP1 REVERT JUMPDEST PUSH0 DUP1 REVERT JUMPDEST PUSH0 DUP1 REVERT JUMPDEST PUSH0 PUSH1 0x1F NOT PUSH1 0x1F DUP4 ADD AND SWAP1 POP SWAP2 SWAP1 POP JUMP JUMPDEST PUSH32 0x4E487B7100000000000000000000000000000000000000000000000000000000 PUSH0 MSTORE PUSH1 0x41 PUSH1 0x4 MSTORE PUSH1 0x24 PUSH0 REVERT JUMPDEST PUSH3 0x264 DUP3 PUSH3 0x21C JUMP JUMPDEST DUP2 ADD DUP2 DUP2 LT PUSH8 0xFFFFFFFFFFFFFFFF DUP3 GT OR ISZERO PUSH3 0x286 JUMPI PUSH3 0x285 PUSH3 0x22C JUMP JUMPDEST JUMPDEST DUP1 PUSH1 0x40 MSTORE POP POP POP JUMP JUMPDEST PUSH0 PUSH3 0x29A PUSH3 0x203 JUMP JUMPDEST SWAP1 POP PUSH3 0x2A8 DUP3 DUP3 PUSH3 0x259 JUMP JUMPDEST SWAP2 SWAP1 POP JUMP JUMPDEST PUSH0 PUSH8 0xFFFFFFFFFFFFFFFF DUP3 GT ISZERO PUSH3 0x2CA JUMPI PUSH3 0x2C9 PUSH3 0x22C JUMP JUMPDEST JUMPDEST PUSH3 0x2D5 DUP3 PUSH3 0x21C JUMP JUMPDEST SWAP1 POP PUSH1 0x20 DUP2 ADD SWAP1 POP SWAP2 SWAP1 POP JUMP JUMPDEST PUSH0 JUMPDEST DUP4 DUP2 LT ISZERO PUSH3 0x301 JUMPI DUP1 DUP3 ADD MLOAD DUP2 DUP5 ADD MSTORE PUSH1 0x20 DUP2 ADD SWAP1 POP PUSH3 0x2E4 JUMP JUMPDEST PUSH0 DUP5 DUP5 ADD MSTORE POP POP POP POP JUMP JUMPDEST PUSH0 PUSH3 0x322 PUSH3 0x31C DUP5 PUSH3 0x2AD JUMP JUMPDEST PUSH3 0x28F JUMP JUMPDEST SWAP1 POP DUP3 DUP2 MSTORE PUSH1 0x20 DUP2 ADD DUP5 DUP5 DUP5 ADD GT ISZERO PUSH3 0x341 JUMPI PUSH3 0x340 PUSH3 0x218 JUMP JUMPDEST JUMPDEST PUSH3 0x34E DUP5 DUP3 DUP6 PUSH3 0x2E2 JUMP JUMPDEST POP SWAP4 SWAP3 POP POP POP JUMP JUMPDEST PUSH0 DUP3 PUSH1 0x1F DUP4 ADD SLT PUSH3 0x36D JUMPI PUSH3 0x36C PUSH3 0x214 JUMP JUMPDEST JUMPDEST DUP2 MLOAD PUSH3 0x37F DUP5 DUP3 PUSH1 0x20 DUP7 ADD PUSH3 0x30C JUMP JUMPDEST SWAP2 POP POP SWAP3 SWAP2 POP POP JUMP JUMPDEST PUSH0 DUP1 PUSH1 0x40 DUP4 DUP6 SUB SLT ISZERO PUSH3 0x3A1 JUMPI PUSH3 0x3A0 PUSH3 0x20C JUMP JUMPDEST JUMPDEST PUSH0 DUP4 ADD MLOAD PUSH8 0xFFFFFFFFFFFFFFFF DUP2 GT ISZERO PUSH3 0x3C1 JUMPI PUSH3 0x3C0 PUSH3 0x210 JUMP JUMPDEST JUMPDEST PUSH3 0x3CF DUP6 DUP3 DUP7 ADD PUSH3 0x356 JUMP JUMPDEST SWAP3 POP POP PUSH1 0x20 DUP4 ADD MLOAD PUSH8 0xFFFFFFFFFFFFFFFF DUP2 GT ISZERO PUSH3 0x3F3 JUMPI PUSH3 0x3F2 PUSH3 0x210 JUMP JUMPDEST JUMPDEST PUSH3 0x401 DUP6 DUP3 DUP7 ADD PUSH3 0x356 JUMP JUMPDEST SWAP2 POP POP SWAP3 POP SWAP3 SWAP1 POP JUMP JUMPDEST PUSH0 DUP2 SWAP1 POP SWAP2 SWAP1 POP JUMP JUMPDEST PUSH3 0x41F DUP2 PUSH3 0x40B JUMP JUMPDEST DUP3 MSTORE POP POP JUMP JUMPDEST PUSH0 DUP2 SWAP1 POP SWAP2 SWAP1 POP JUMP JUMPDEST PUSH3 0x439 DUP2 PUSH3 0x425 JUMP JUMPDEST DUP3 MSTORE POP POP JUMP JUMPDEST PUSH0 PUSH20 0xFFFFFFFFFFFFFFFFFFFFFFFFFFFFFFFFFFFFFFFF DUP3 AND SWAP1 POP SWAP2 SWAP1 POP JUMP JUMPDEST PUSH0 PUSH3 0x46A DUP3 PUSH3 0x43F JUMP JUMPDEST SWAP1 POP SWAP2 SWAP1 POP JUMP JUMPDEST PUSH3 0x47C DUP2 PUSH3 0x45E JUMP JUMPDEST DUP3 MSTORE POP POP JUMP JUMPDEST PUSH0 PUSH1 0xA0 DUP3 ADD SWAP1 POP PUSH3 0x497 PUSH0 DUP4 ADD DUP9 PUSH3 0x414 JUMP JUMPDEST PUSH3 0x4A6 PUSH1 0x20 DUP4 ADD DUP8 PUSH3 0x414 JUMP JUMPDEST PUSH3 0x4B5 PUSH1 0x40 DUP4 ADD DUP7 PUSH3 0x414 JUMP JUMPDEST PUSH3 0x4C4 PUSH1 0x60 DUP4 ADD DUP6 PUSH3 0x42E JUMP JUMPDEST PUSH3 0x4D3 PUSH1 0x80 DUP4 ADD DUP5 PUSH3 0x471 JUMP JUMPDEST SWAP7 SWAP6 POP POP POP POP POP POP JUMP JUMPDEST PUSH1 0x80 MLOAD PUSH1 0xA0 MLOAD PUSH1 0xC0 MLOAD PUSH1 0xE0 MLOAD PUSH2 0x100 MLOAD PUSH2 0x120 MLOAD PUSH2 0x783 PUSH3 0x513 PUSH0 CODECOPY PUSH0 POP POP PUSH0 POP POP PUSH0 POP POP PUSH0 POP POP PUSH0 POP POP PUSH0 POP POP PUSH2 0x783 PUSH0 RETURN INVALID PUSH1 0x80 PUSH1 0x40 MSTORE CALLVALUE DUP1 ISZERO PUSH2 0xF JUMPI PUSH0 DUP1 REVERT JUMPDEST POP PUSH1 0x4 CALLDATASIZE LT PUSH2 0x34 JUMPI PUSH0 CALLDATALOAD PUSH1 0xE0 SHR DUP1 PUSH4 0x2346B05 EQ PUSH2 0x38 JUMPI DUP1 PUSH4 0xFA09DA07 EQ PUSH2 0x56 JUMPI JUMPDEST PUSH0 DUP1 REVERT JUMPDEST PUSH2 0x40 PUSH2 0x86 JUMP JUMPDEST PUSH1 0x40 MLOAD PUSH2 0x4D SWAP2 SWAP1 PUSH2 0x24F JUMP JUMPDEST PUSH1 0x40 MLOAD DUP1 SWAP2 SUB SWAP1 RETURN JUMPDEST PUSH2 0x70 PUSH1 0x4 DUP1 CALLDATASIZE SUB DUP2 ADD SWAP1 PUSH2 0x6B SWAP2 SWAP1 PUSH2 0x47D JUMP JUMPDEST PUSH2 0x8D JUMP JUMPDEST PUSH1 0x40 MLOAD PUSH2 0x7D SWAP2 SWAP1 PUSH2 0x5B5 JUMP JUMPDEST PUSH1 0x40 MLOAD DUP1 SWAP2 SUB SWAP1 RETURN JUMPDEST PUSH0 CHAINID SWAP1 POP SWAP1 JUMP JUMPDEST PUSH0 DUP1 PUSH1 0x40 MLOAD DUP1 PUSH1 0xA0 ADD PUSH1 0x40 MSTORE DUP1 DUP10 DUP2 MSTORE PUSH1 0x20 ADD DUP9 DUP2 MSTORE PUSH1 0x20 ADD DUP8 DUP2 MSTORE PUSH1 0x20 ADD DUP6 DUP2 MSTORE PUSH1 0x20 ADD DUP7 DUP2 MSTORE POP SWAP1 POP PUSH0 DUP1 PUSH0 PUSH2 0xC4 DUP7 PUSH2 0xEC JUMP JUMPDEST DUP1 SWAP4 POP DUP2 SWAP5 POP DUP3 SWAP6 POP POP POP POP PUSH2 0xDC DUP5 DUP5 DUP5 DUP5 PUSH2 0x129 JUMP JUMPDEST SWAP5 POP POP POP POP POP SWAP7 SWAP6 POP POP POP POP POP POP JUMP JUMPDEST PUSH0 DUP1 PUSH0 PUSH1 0x41 DUP5 MLOAD EQ PUSH2 0xFC JUMPI PUSH0 DUP1 REVERT JUMPDEST PUSH0 DUP1 PUSH0 PUSH1 0x20 DUP8 ADD MLOAD SWAP3 POP PUSH1 0x40 DUP8 ADD MLOAD SWAP2 POP PUSH1 0x60 DUP8 ADD MLOAD PUSH0 BYTE SWAP1 POP DUP1 DUP4 DUP4 SWAP6 POP SWAP6 POP SWAP6 POP POP POP POP SWAP2 SWAP4 SWAP1 SWAP3 POP JUMP JUMPDEST PUSH0 DUP1 PUSH0 SLOAD PUSH2 0x136 DUP8 PUSH2 0x1B6 JUMP JUMPDEST PUSH1 0x40 MLOAD PUSH1 0x20 ADD PUSH2 0x147 SWAP3 SWAP2 SWAP1 PUSH2 0x64B JUMP JUMPDEST PUSH1 0x40 MLOAD PUSH1 0x20 DUP2 DUP4 SUB SUB DUP2 MSTORE SWAP1 PUSH1 0x40 MSTORE DUP1 MLOAD SWAP1 PUSH1 0x20 ADD KECCAK256 SWAP1 POP PUSH1 0x1 DUP2 DUP7 DUP7 DUP7 PUSH1 0x40 MLOAD PUSH0 DUP2 MSTORE PUSH1 0x20 ADD PUSH1 0x40 MSTORE PUSH1 0x40 MLOAD PUSH2 0x181 SWAP5 SWAP4 SWAP3 SWAP2 SWAP1 PUSH2 0x6AB JUMP JUMPDEST PUSH1 0x20 PUSH1 0x40 MLOAD PUSH1 0x20 DUP2 SUB SWAP1 DUP1 DUP5 SUB SWAP1 DUP6 GAS STATICCALL ISZERO DUP1 ISZERO PUSH2 0x1A1 JUMPI RETURNDATASIZE PUSH0 DUP1 RETURNDATACOPY RETURNDATASIZE PUSH0 REVERT JUMPDEST POP POP POP PUSH1 0x20 PUSH1 0x40 MLOAD SUB MLOAD SWAP2 POP POP SWAP5 SWAP4 POP POP POP POP JUMP JUMPDEST PUSH0 PUSH32 0xACF5FE31302E000A021505D68F64F59A958ED052954AF199025629C07A5C0912 DUP3 PUSH0 ADD MLOAD DUP1 MLOAD SWAP1 PUSH1 0x20 ADD KECCAK256 DUP4 PUSH1 0x20 ADD MLOAD DUP1 MLOAD SWAP1 PUSH1 0x20 ADD KECCAK256 DUP5 PUSH1 0x40 ADD MLOAD DUP1 MLOAD SWAP1 PUSH1 0x20 ADD KECCAK256 DUP6 PUSH1 0x60 ADD MLOAD DUP7 PUSH1 0x80 ADD MLOAD PUSH1 0x40 MLOAD PUSH1 0x20 ADD PUSH2 0x21A SWAP7 SWAP6 SWAP5 SWAP4 SWAP3 SWAP2 SWAP1 PUSH2 0x6EE JUMP JUMPDEST PUSH1 0x40 MLOAD PUSH1 0x20 DUP2 DUP4 SUB SUB DUP2 MSTORE SWAP1 PUSH1 0x40 MSTORE DUP1 MLOAD SWAP1 PUSH1 0x20 ADD KECCAK256 SWAP1 POP SWAP2 SWAP1 POP JUMP JUMPDEST PUSH0 DUP2 SWAP1 POP SWAP2 SWAP1 POP JUMP JUMPDEST PUSH2 0x249 DUP2 PUSH2 0x237 JUMP JUMPDEST DUP3 MSTORE POP POP JUMP JUMPDEST PUSH0 PUSH1 0x20 DUP3 ADD SWAP1 POP PUSH2 0x262 PUSH0 DUP4 ADD DUP5 PUSH2 0x240 JUMP JUMPDEST SWAP3 SWAP2 POP POP JUMP JUMPDEST PUSH0 PUSH1 0x40 MLOAD SWAP1 POP SWAP1 JUMP JUMPDEST PUSH0 DUP1 REVERT JUMPDEST PUSH0 DUP1 REVERT JUMPDEST PUSH0 DUP1 REVERT JUMPDEST PUSH0 DUP1 REVERT JUMPDEST PUSH0 PUSH1 0x1F NOT PUSH1 0x1F DUP4 ADD AND SWAP1 POP SWAP2 SWAP1 POP JUMP JUMPDEST PUSH32 0x4E487B7100000000000000000000000000000000000000000000000000000000 PUSH0 MSTORE PUSH1 0x41 PUSH1 0x4 MSTORE PUSH1 0x24 PUSH0 REVERT JUMPDEST PUSH2 0x2C7 DUP3 PUSH2 0x281 JUMP JUMPDEST DUP2 ADD DUP2 DUP2 LT PUSH8 0xFFFFFFFFFFFFFFFF DUP3 GT OR ISZERO PUSH2 0x2E6 JUMPI PUSH2 0x2E5 PUSH2 0x291 JUMP JUMPDEST JUMPDEST DUP1 PUSH1 0x40 MSTORE POP POP POP JUMP JUMPDEST PUSH0 PUSH2 0x2F8 PUSH2 0x268 JUMP JUMPDEST SWAP1 POP PUSH2 0x304 DUP3 DUP3 PUSH2 0x2BE JUMP JUMPDEST SWAP2 SWAP1 POP JUMP JUMPDEST PUSH0 PUSH8 0xFFFFFFFFFFFFFFFF DUP3 GT ISZERO PUSH2 0x323 JUMPI PUSH2 0x322 PUSH2 0x291 JUMP JUMPDEST JUMPDEST PUSH2 0x32C DUP3 PUSH2 0x281 JUMP JUMPDEST SWAP1 POP PUSH1 0x20 DUP2 ADD SWAP1 POP SWAP2 SWAP1 POP JUMP JUMPDEST DUP3 DUP2 DUP4 CALLDATACOPY PUSH0 DUP4 DUP4 ADD MSTORE POP POP POP JUMP JUMPDEST PUSH0 PUSH2 0x359 PUSH2 0x354 DUP5 PUSH2 0x309 JUMP JUMPDEST PUSH2 0x2EF JUMP JUMPDEST SWAP1 POP DUP3 DUP2 MSTORE PUSH1 0x20 DUP2 ADD DUP5 DUP5 DUP5 ADD GT ISZERO PUSH2 0x375 JUMPI PUSH2 0x374 PUSH2 0x27D JUMP JUMPDEST JUMPDEST PUSH2 0x380 DUP5 DUP3 DUP6 PUSH2 0x339 JUMP JUMPDEST POP SWAP4 SWAP3 POP POP POP JUMP JUMPDEST PUSH0 DUP3 PUSH1 0x1F DUP4 ADD SLT PUSH2 0x39C JUMPI PUSH2 0x39B PUSH2 0x279 JUMP JUMPDEST JUMPDEST DUP2 CALLDATALOAD PUSH2 0x3AC DUP5 DUP3 PUSH1 0x20 DUP7 ADD PUSH2 0x347 JUMP JUMPDEST SWAP2 POP POP SWAP3 SWAP2 POP POP JUMP JUMPDEST PUSH2 0x3BE DUP2 PUSH2 0x237 JUMP JUMPDEST DUP2 EQ PUSH2 0x3C8 JUMPI PUSH0 DUP1 REVERT JUMPDEST POP JUMP JUMPDEST PUSH0 DUP2 CALLDATALOAD SWAP1 POP PUSH2 0x3D9 DUP2 PUSH2 0x3B5 JUMP JUMPDEST SWAP3 SWAP2 POP POP JUMP JUMPDEST PUSH0 PUSH8 0xFFFFFFFFFFFFFFFF DUP3 GT ISZERO PUSH2 0x3F9 JUMPI PUSH2 0x3F8 PUSH2 0x291 JUMP JUMPDEST JUMPDEST PUSH2 0x402 DUP3 PUSH2 0x281 JUMP JUMPDEST SWAP1 POP PUSH1 0x20 DUP2 ADD SWAP1 POP SWAP2 SWAP1 POP JUMP JUMPDEST PUSH0 PUSH2 0x421 PUSH2 0x41C DUP5 PUSH2 0x3DF JUMP JUMPDEST PUSH2 0x2EF JUMP JUMPDEST SWAP1 POP DUP3 DUP2 MSTORE PUSH1 0x20 DUP2 ADD DUP5 DUP5 DUP5 ADD GT ISZERO PUSH2 0x43D JUMPI PUSH2 0x43C PUSH2 0x27D JUMP JUMPDEST JUMPDEST PUSH2 0x448 DUP5 DUP3 DUP6 PUSH2 0x339 JUMP JUMPDEST POP SWAP4 SWAP3 POP POP POP JUMP JUMPDEST PUSH0 DUP3 PUSH1 0x1F DUP4 ADD SLT PUSH2 0x464 JUMPI PUSH2 0x463 PUSH2 0x279 JUMP JUMPDEST JUMPDEST DUP2 CALLDATALOAD PUSH2 0x474 DUP5 DUP3 PUSH1 0x20 DUP7 ADD PUSH2 0x40F JUMP JUMPDEST SWAP2 POP POP SWAP3 SWAP2 POP POP JUMP JUMPDEST PUSH0 DUP1 PUSH0 DUP1 PUSH0 DUP1 PUSH1 0xC0 DUP8 DUP10 SUB SLT ISZERO PUSH2 0x497 JUMPI PUSH2 0x496 PUSH2 0x271 JUMP JUMPDEST JUMPDEST PUSH0 DUP8 ADD CALLDATALOAD PUSH8 0xFFFFFFFFFFFFFFFF DUP2 GT ISZERO PUSH2 0x4B4 JUMPI PUSH2 0x4B3 PUSH2 0x275 JUMP JUMPDEST JUMPDEST PUSH2 0x4C0 DUP10 DUP3 DUP11 ADD PUSH2 0x388 JUMP JUMPDEST SWAP7 POP POP PUSH1 0x20 DUP8 ADD CALLDATALOAD PUSH8 0xFFFFFFFFFFFFFFFF DUP2 GT ISZERO PUSH2 0x4E1 JUMPI PUSH2 0x4E0 PUSH2 0x275 JUMP JUMPDEST JUMPDEST PUSH2 0x4ED DUP10 DUP3 DUP11 ADD PUSH2 0x388 JUMP JUMPDEST SWAP6 POP POP PUSH1 0x40 DUP8 ADD CALLDATALOAD PUSH8 0xFFFFFFFFFFFFFFFF DUP2 GT ISZERO PUSH2 0x50E JUMPI PUSH2 0x50D PUSH2 0x275 JUMP JUMPDEST JUMPDEST PUSH2 0x51A DUP10 DUP3 DUP11 ADD PUSH2 0x388 JUMP JUMPDEST SWAP5 POP POP PUSH1 0x60 PUSH2 0x52B DUP10 DUP3 DUP11 ADD PUSH2 0x3CB JUMP JUMPDEST SWAP4 POP POP PUSH1 0x80 PUSH2 0x53C DUP10 DUP3 DUP11 ADD PUSH2 0x3CB JUMP JUMPDEST SWAP3 POP POP PUSH1 0xA0 DUP8 ADD CALLDATALOAD PUSH8 0xFFFFFFFFFFFFFFFF DUP2 GT ISZERO PUSH2 0x55D JUMPI PUSH2 0x55C PUSH2 0x275 JUMP JUMPDEST JUMPDEST PUSH2 0x569 DUP10 DUP3 DUP11 ADD PUSH2 0x450 JUMP JUMPDEST SWAP2 POP POP SWAP3 SWAP6 POP SWAP3 SWAP6 POP SWAP3 SWAP6 JUMP JUMPDEST PUSH0 PUSH20 0xFFFFFFFFFFFFFFFFFFFFFFFFFFFFFFFFFFFFFFFF DUP3 AND SWAP1 POP SWAP2 SWAP1 POP JUMP JUMPDEST PUSH0 PUSH2 0x59F DUP3 PUSH2 0x576 JUMP JUMPDEST SWAP1 POP SWAP2 SWAP1 POP JUMP JUMPDEST PUSH2 0x5AF DUP2 PUSH2 0x595 JUMP JUMPDEST DUP3 MSTORE POP POP JUMP JUMPDEST PUSH0 PUSH1 0x20 DUP3 ADD SWAP1 POP PUSH2 0x5C8 PUSH0 DUP4 ADD DUP5 PUSH2 0x5A6 JUMP JUMPDEST SWAP3 SWAP2 POP POP JUMP JUMPDEST PUSH0 DUP2 SWAP1 POP SWAP3 SWAP2 POP POP JUMP JUMPDEST PUSH32 0x1901000000000000000000000000000000000000000000000000000000000000 PUSH0 DUP3 ADD MSTORE POP JUMP JUMPDEST PUSH0 PUSH2 0x60C PUSH1 0x2 DUP4 PUSH2 0x5CE JUMP JUMPDEST SWAP2 POP PUSH2 0x617 DUP3 PUSH2 0x5D8 JUMP JUMPDEST PUSH1 0x2 DUP3 ADD SWAP1 POP SWAP2 SWAP1 POP JUMP JUMPDEST PUSH0 DUP2 SWAP1 POP SWAP2 SWAP1 POP JUMP JUMPDEST PUSH0 DUP2 SWAP1 POP SWAP2 SWAP1 POP JUMP JUMPDEST PUSH2 0x645 PUSH2 0x640 DUP3 PUSH2 0x622 JUMP JUMPDEST PUSH2 0x62B JUMP JUMPDEST DUP3 MSTORE POP POP JUMP JUMPDEST PUSH0 PUSH2 0x655 DUP3 PUSH2 0x600 JUMP JUMPDEST SWAP2 POP PUSH2 0x661 DUP3 DUP6 PUSH2 0x634 JUMP JUMPDEST PUSH1 0x20 DUP3 ADD SWAP2 POP PUSH2 0x671 DUP3 DUP5 PUSH2 0x634 JUMP JUMPDEST PUSH1 0x20 DUP3 ADD SWAP2 POP DUP2 SWAP1 POP SWAP4 SWAP3 POP POP POP JUMP JUMPDEST PUSH2 0x68A DUP2 PUSH2 0x622 JUMP JUMPDEST DUP3 MSTORE POP POP JUMP JUMPDEST PUSH0 PUSH1 0xFF DUP3 AND SWAP1 POP SWAP2 SWAP1 POP JUMP JUMPDEST PUSH2 0x6A5 DUP2 PUSH2 0x690 JUMP JUMPDEST DUP3 MSTORE POP POP JUMP JUMPDEST PUSH0 PUSH1 0x80 DUP3 ADD SWAP1 POP PUSH2 0x6BE PUSH0 DUP4 ADD DUP8 PUSH2 0x681 JUMP JUMPDEST PUSH2 0x6CB PUSH1 0x20 DUP4 ADD DUP7 PUSH2 0x69C JUMP JUMPDEST PUSH2 0x6D8 PUSH1 0x40 DUP4 ADD DUP6 PUSH2 0x681 JUMP JUMPDEST PUSH2 0x6E5 PUSH1 0x60 DUP4 ADD DUP5 PUSH2 0x681 JUMP JUMPDEST SWAP6 SWAP5 POP POP POP POP POP JUMP JUMPDEST PUSH0 PUSH1 0xC0 DUP3 ADD SWAP1 POP PUSH2 0x701 PUSH0 DUP4 ADD DUP10 PUSH2 0x681 JUMP JUMPDEST PUSH2 0x70E PUSH1 0x20 DUP4 ADD DUP9 PUSH2 0x681 JUMP JUMPDEST PUSH2 0x71B PUSH1 0x40 DUP4 ADD DUP8 PUSH2 0x681 JUMP JUMPDEST PUSH2 0x728 PUSH1 0x60 DUP4 ADD DUP7 PUSH2 0x681 JUMP JUMPDEST PUSH2 0x735 PUSH1 0x80 DUP4 ADD DUP6 PUSH2 0x240 JUMP JUMPDEST PUSH2 0x742 PUSH1 0xA0 DUP4 ADD DUP5 PUSH2 0x240 JUMP JUMPDEST SWAP8 SWAP7 POP POP POP POP POP POP POP JUMP INVALID LOG2 PUSH5 0x6970667358 0x22 SLT KECCAK256 LT 0xF9 DUP10 0x4C INVALID 0xB9 JUMPDEST 0xB0 0xE5 0x4B DUP10 CODECOPY EXTCODEHASH 0xE0 SWAP11 0xF9 0xF 0xCC SWAP4 JUMPDEST 0x23 JUMPDEST MUL LT 0xAC 0x5C RETURNDATASIZE 0xF8 CALL ADDRESS BASEFEE 0x28 PUSH5 0x736F6C6343 STOP ADDMOD EQ STOP CALLER "},"methodIdentifiers":{"_getChainId()":"02346b05","validateMessage(string,string,string,uint256,uint256,bytes)":"fa09da07"}}}}}