{"contracts/EIP712Message.sol":{"EIP712Message":{"abi":[{"inputs":[{"internalType":"string","name":"name","type":"string"},{"internalType":"string","name":"version","type":"string"}],"stateMutability":"nonpayable","type":"constructor"},{"inputs":[],"name":"_getChainId","outputs":[{"internalType":"uint256","name":"chainId","type":"uint256"}],"stateMutability":"view","type":"function"},{"inputs":[{"internalType":"string","name":"message","type":"string"},{"internalType":"string","name":"latitude","type":"string"},{"internalType":"string","name":"longitude","type":"string"},{"internalType":"uint256","name":"time","type":"uint256"},{"internalType":"uint256","name":"tier","type":"uint256"},{"internalType":"bytes","name":"_signature","type":"bytes"}],"name":"validateMessage","outputs":[{"internalType":"address","name":"","type":"address"}],"stateMutability":"view","type":"function"}],"evm":{"bytecode":{"linkReferences":{},"object":"6101406040523480156200001257600080fd5b50604051620010f6380380620010f683398181016040528101906200003891906200049e565b818160008280519060200120905060008280519060200120905060007f8b73c3c69bb8fe3d512ecc4cf759cc79239f7b179b0ffacaa9a75d522b39400f90508260e081815250508161010081815250504660a08181525050620000a38184846200018860201b60201c565b608081815250503073ffffffffffffffffffffffffffffffffffffffff1660c08173ffffffffffffffffffffffffffffffffffffffff1681525050806101208181525050505050505062000108677605795e6bf8f49b60c01b620001c460201b60201c565b62000124673b718fecd7659de060c01b620001c460201b60201c565b6200017a60405180608001604052808481526020018381526020016200014f620001c760201b60201c565b81526020013073ffffffffffffffffffffffffffffffffffffffff168152506200023f60201b60201c565b6000819055505050620005fb565b60008383834630604051602001620001a59594939291906200059e565b6040516020818303038152906040528051906020012090509392505050565b50565b6000620001e5674d8781a188f4e9de60c01b620001c460201b60201c565b62000201671954c3e5c09214e260c01b620001c460201b60201c565b4690506200022067c4148d33c013634960c01b620001c460201b60201c565b6200023c67dc9d80ffb8b9038260c01b620001c460201b60201c565b90565b60006200025d670c6233df7b258fb160c01b620001c460201b60201c565b620002796798298bb581e2185e60c01b620001c460201b60201c565b62000295670b1e7f8dd82adaa160c01b620001c460201b60201c565b7f8b73c3c69bb8fe3d512ecc4cf759cc79239f7b179b0ffacaa9a75d522b39400f82600001518051906020012083602001518051906020012084604001518560600151604051602001620002ee9594939291906200059e565b604051602081830303815290604052805190602001209050919050565b6000604051905090565b600080fd5b600080fd5b600080fd5b600080fd5b6000601f19601f8301169050919050565b7f4e487b7100000000000000000000000000000000000000000000000000000000600052604160045260246000fd5b620003748262000329565b810181811067ffffffffffffffff821117156200039657620003956200033a565b5b80604052505050565b6000620003ab6200030b565b9050620003b9828262000369565b919050565b600067ffffffffffffffff821115620003dc57620003db6200033a565b5b620003e78262000329565b9050602081019050919050565b60005b8381101562000414578082015181840152602081019050620003f7565b60008484015250505050565b6000620004376200043184620003be565b6200039f565b90508281526020810184848401111562000456576200045562000324565b5b62000463848285620003f4565b509392505050565b600082601f8301126200048357620004826200031f565b5b81516200049584826020860162000420565b91505092915050565b60008060408385031215620004b857620004b762000315565b5b600083015167ffffffffffffffff811115620004d957620004d86200031a565b5b620004e7858286016200046b565b925050602083015167ffffffffffffffff8111156200050b576200050a6200031a565b5b62000519858286016200046b565b9150509250929050565b6000819050919050565b620005388162000523565b82525050565b6000819050919050565b62000553816200053e565b82525050565b600073ffffffffffffffffffffffffffffffffffffffff82169050919050565b6000620005868262000559565b9050919050565b620005988162000579565b82525050565b600060a082019050620005b560008301886200052d565b620005c460208301876200052d565b620005d360408301866200052d565b620005e2606083018562000548565b620005f160808301846200058d565b9695505050505050565b60805160a05160c05160e0516101005161012051610abd62000639600039600050506000505060005050600050506000505060005050610abd6000f3fe608060405234801561001057600080fd5b50600436106100365760003560e01c806302346b051461003b578063fa09da0714610059575b600080fd5b610043610089565b6040516100509190610562565b60405180910390f35b610073600480360381019061006e91906107a4565b6100e1565b60405161008091906108e2565b60405180910390f35b600061009f674d8781a188f4e9de60c01b610235565b6100b3671954c3e5c09214e260c01b610235565b4690506100ca67c4148d33c013634960c01b610235565b6100de67dc9d80ffb8b9038260c01b610235565b90565b60006100f767a7926f8e9bd5502360c01b610235565b61010b671edb4b31eb5d04e060c01b610235565b61011f6784d080070ab8090960c01b610235565b60006040518060a0016040528089815260200188815260200187815260200185815260200186815250905061015e670367124be565452860c01b610235565b61017267d761153cdecd1e7160c01b610235565b6000610188675bcb680d8cf04c0860c01b610235565b61019c6715f421b8612b91ff60c01b610235565b60006101b267b14a1065514eac9960c01b610235565b6101c667e7af03bd9cc3bae460c01b610235565b60006101dc673ca94e4d7ddcbb3e60c01b610235565b6101e586610238565b8093508194508295505050506102056768a932163e49740b60c01b610235565b61021967c26b9664f17a361b60c01b610235565b61022584848484610394565b9450505050509695505050505050565b50565b600080600061025167a8f6a6a38c4ed47460c01b610235565b610265677ca8545e4de7f19560c01b610235565b61027967b8468564871bc76360c01b610235565b61028d67d67e65e6dd17112d60c01b610235565b604184511461029b57600080fd5b6102af67b8638811709e768260c01b610235565b6102c36763f72b6e369b09b160c01b610235565b6102d767aea246f0c453720e60c01b610235565b60006102ed67577de50a1f00668c60c01b610235565b6103016794cedb1e469a174960c01b610235565b6000610317672250c72ac0ec5aff60c01b610235565b61032b67e25d539f73c762f260c01b610235565b600061034167ede93601db22bc4560c01b610235565b6020870151925060408701519150606087015160001a905061036d678ec95b7f9784365760c01b610235565b61038167e8528638f24d8e1060c01b610235565b8083839550955095505050509193909250565b60006103aa67105ff00a3b12b33060c01b610235565b6103be67460ca9e94873f19a60c01b610235565b6103d267e69930983dd51ae760c01b610235565b600080546103df8761048a565b6040516020016103f092919061097f565b60405160208183030381529060405280519060200120905061041c67ff456692e8d9f0f060c01b610235565b61043067d432072f6940485760c01b610235565b6001818686866040516000815260200160405260405161045394939291906109e1565b6020604051602081039080840390855afa158015610475573d6000803e3d6000fd5b50505060206040510351915050949350505050565b60006104a0679fda9599c026502c60c01b610235565b6104b46764f606e26383e90e60c01b610235565b6104c867bdb43e4fa61d522160c01b610235565b7facf5fe31302e000a021505d68f64f59a958ed052954af199025629c07a5c09128260000151805190602001208360200151805190602001208460400151805190602001208560600151866080015160405160200161052c96959493929190610a26565b604051602081830303815290604052805190602001209050919050565b6000819050919050565b61055c81610549565b82525050565b60006020820190506105776000830184610553565b92915050565b6000604051905090565b600080fd5b600080fd5b600080fd5b600080fd5b6000601f19601f8301169050919050565b7f4e487b7100000000000000000000000000000000000000000000000000000000600052604160045260246000fd5b6105e48261059b565b810181811067ffffffffffffffff82111715610603576106026105ac565b5b80604052505050565b600061061661057d565b905061062282826105db565b919050565b600067ffffffffffffffff821115610642576106416105ac565b5b61064b8261059b565b9050602081019050919050565b82818337600083830152505050565b600061067a61067584610627565b61060c565b90508281526020810184848401111561069657610695610596565b5b6106a1848285610658565b509392505050565b600082601f8301126106be576106bd610591565b5b81356106ce848260208601610667565b91505092915050565b6106e081610549565b81146106eb57600080fd5b50565b6000813590506106fd816106d7565b92915050565b600067ffffffffffffffff82111561071e5761071d6105ac565b5b6107278261059b565b9050602081019050919050565b600061074761074284610703565b61060c565b90508281526020810184848401111561076357610762610596565b5b61076e848285610658565b509392505050565b600082601f83011261078b5761078a610591565b5b813561079b848260208601610734565b91505092915050565b60008060008060008060c087890312156107c1576107c0610587565b5b600087013567ffffffffffffffff8111156107df576107de61058c565b5b6107eb89828a016106a9565b965050602087013567ffffffffffffffff81111561080c5761080b61058c565b5b61081889828a016106a9565b955050604087013567ffffffffffffffff8111156108395761083861058c565b5b61084589828a016106a9565b945050606061085689828a016106ee565b935050608061086789828a016106ee565b92505060a087013567ffffffffffffffff8111156108885761088761058c565b5b61089489828a01610776565b9150509295509295509295565b600073ffffffffffffffffffffffffffffffffffffffff82169050919050565b60006108cc826108a1565b9050919050565b6108dc816108c1565b82525050565b60006020820190506108f760008301846108d3565b92915050565b600081905092915050565b7f1901000000000000000000000000000000000000000000000000000000000000600082015250565b600061093e6002836108fd565b915061094982610908565b600282019050919050565b6000819050919050565b6000819050919050565b61097961097482610954565b61095e565b82525050565b600061098a82610931565b91506109968285610968565b6020820191506109a68284610968565b6020820191508190509392505050565b6109bf81610954565b82525050565b600060ff82169050919050565b6109db816109c5565b82525050565b60006080820190506109f660008301876109b6565b610a0360208301866109d2565b610a1060408301856109b6565b610a1d60608301846109b6565b95945050505050565b600060c082019050610a3b60008301896109b6565b610a4860208301886109b6565b610a5560408301876109b6565b610a6260608301866109b6565b610a6f6080830185610553565b610a7c60a0830184610553565b97965050505050505056fea2646970667358221220af3be0522c6b6c02956459f1ce4c2365e55f69c6f70d7ccb725e2e05f53df6f864736f6c63430008150033","opcodes":"PUSH2 0x140 PUSH1 0x40 MSTORE CALLVALUE DUP1 ISZERO PUSH3 0x12 JUMPI PUSH1 0x0 DUP1 REVERT JUMPDEST POP PUSH1 0x40 MLOAD PUSH3 0x10F6 CODESIZE SUB DUP1 PUSH3 0x10F6 DUP4 CODECOPY DUP2 DUP2 ADD PUSH1 0x40 MSTORE DUP2 ADD SWAP1 PUSH3 0x38 SWAP2 SWAP1 PUSH3 0x49E JUMP JUMPDEST DUP2 DUP2 PUSH1 0x0 DUP3 DUP1 MLOAD SWAP1 PUSH1 0x20 ADD KECCAK256 SWAP1 POP PUSH1 0x0 DUP3 DUP1 MLOAD SWAP1 PUSH1 0x20 ADD KECCAK256 SWAP1 POP PUSH1 0x0 PUSH32 0x8B73C3C69BB8FE3D512ECC4CF759CC79239F7B179B0FFACAA9A75D522B39400F SWAP1 POP DUP3 PUSH1 0xE0 DUP2 DUP2 MSTORE POP POP DUP2 PUSH2 0x100 DUP2 DUP2 MSTORE POP POP CHAINID PUSH1 0xA0 DUP2 DUP2 MSTORE POP POP PUSH3 0xA3 DUP2 DUP5 DUP5 PUSH3 0x188 PUSH1 0x20 SHL PUSH1 0x20 SHR JUMP JUMPDEST PUSH1 0x80 DUP2 DUP2 MSTORE POP POP ADDRESS PUSH20 0xFFFFFFFFFFFFFFFFFFFFFFFFFFFFFFFFFFFFFFFF AND PUSH1 0xC0 DUP2 PUSH20 0xFFFFFFFFFFFFFFFFFFFFFFFFFFFFFFFFFFFFFFFF AND DUP2 MSTORE POP POP DUP1 PUSH2 0x120 DUP2 DUP2 MSTORE POP POP POP POP POP POP POP PUSH3 0x108 PUSH8 0x7605795E6BF8F49B PUSH1 0xC0 SHL PUSH3 0x1C4 PUSH1 0x20 SHL PUSH1 0x20 SHR JUMP JUMPDEST PUSH3 0x124 PUSH8 0x3B718FECD7659DE0 PUSH1 0xC0 SHL PUSH3 0x1C4 PUSH1 0x20 SHL PUSH1 0x20 SHR JUMP JUMPDEST PUSH3 0x17A PUSH1 0x40 MLOAD DUP1 PUSH1 0x80 ADD PUSH1 0x40 MSTORE DUP1 DUP5 DUP2 MSTORE PUSH1 0x20 ADD DUP4 DUP2 MSTORE PUSH1 0x20 ADD PUSH3 0x14F PUSH3 0x1C7 PUSH1 0x20 SHL PUSH1 0x20 SHR JUMP JUMPDEST DUP2 MSTORE PUSH1 0x20 ADD ADDRESS PUSH20 0xFFFFFFFFFFFFFFFFFFFFFFFFFFFFFFFFFFFFFFFF AND DUP2 MSTORE POP PUSH3 0x23F PUSH1 0x20 SHL PUSH1 0x20 SHR JUMP JUMPDEST PUSH1 0x0 DUP2 SWAP1 SSTORE POP POP POP PUSH3 0x5FB JUMP JUMPDEST PUSH1 0x0 DUP4 DUP4 DUP4 CHAINID ADDRESS PUSH1 0x40 MLOAD PUSH1 0x20 ADD PUSH3 0x1A5 SWAP6 SWAP5 SWAP4 SWAP3 SWAP2 SWAP1 PUSH3 0x59E JUMP JUMPDEST PUSH1 0x40 MLOAD PUSH1 0x20 DUP2 DUP4 SUB SUB DUP2 MSTORE SWAP1 PUSH1 0x40 MSTORE DUP1 MLOAD SWAP1 PUSH1 0x20 ADD KECCAK256 SWAP1 POP SWAP4 SWAP3 POP POP POP JUMP JUMPDEST POP JUMP JUMPDEST PUSH1 0x0 PUSH3 0x1E5 PUSH8 0x4D8781A188F4E9DE PUSH1 0xC0 SHL PUSH3 0x1C4 PUSH1 0x20 SHL PUSH1 0x20 SHR JUMP JUMPDEST PUSH3 0x201 PUSH8 0x1954C3E5C09214E2 PUSH1 0xC0 SHL PUSH3 0x1C4 PUSH1 0x20 SHL PUSH1 0x20 SHR JUMP JUMPDEST CHAINID SWAP1 POP PUSH3 0x220 PUSH8 0xC4148D33C0136349 PUSH1 0xC0 SHL PUSH3 0x1C4 PUSH1 0x20 SHL PUSH1 0x20 SHR JUMP JUMPDEST PUSH3 0x23C PUSH8 0xDC9D80FFB8B90382 PUSH1 0xC0 SHL PUSH3 0x1C4 PUSH1 0x20 SHL PUSH1 0x20 SHR JUMP JUMPDEST SWAP1 JUMP JUMPDEST PUSH1 0x0 PUSH3 0x25D PUSH8 0xC6233DF7B258FB1 PUSH1 0xC0 SHL PUSH3 0x1C4 PUSH1 0x20 SHL PUSH1 0x20 SHR JUMP JUMPDEST PUSH3 0x279 PUSH8 0x98298BB581E2185E PUSH1 0xC0 SHL PUSH3 0x1C4 PUSH1 0x20 SHL PUSH1 0x20 SHR JUMP JUMPDEST PUSH3 0x295 PUSH8 0xB1E7F8DD82ADAA1 PUSH1 0xC0 SHL PUSH3 0x1C4 PUSH1 0x20 SHL PUSH1 0x20 SHR JUMP JUMPDEST PUSH32 0x8B73C3C69BB8FE3D512ECC4CF759CC79239F7B179B0FFACAA9A75D522B39400F DUP3 PUSH1 0x0 ADD MLOAD DUP1 MLOAD SWAP1 PUSH1 0x20 ADD KECCAK256 DUP4 PUSH1 0x20 ADD MLOAD DUP1 MLOAD SWAP1 PUSH1 0x20 ADD KECCAK256 DUP5 PUSH1 0x40 ADD MLOAD DUP6 PUSH1 0x60 ADD MLOAD PUSH1 0x40 MLOAD PUSH1 0x20 ADD PUSH3 0x2EE SWAP6 SWAP5 SWAP4 SWAP3 SWAP2 SWAP1 PUSH3 0x59E JUMP JUMPDEST PUSH1 0x40 MLOAD PUSH1 0x20 DUP2 DUP4 SUB SUB DUP2 MSTORE SWAP1 PUSH1 0x40 MSTORE DUP1 MLOAD SWAP1 PUSH1 0x20 ADD KECCAK256 SWAP1 POP SWAP2 SWAP1 POP JUMP JUMPDEST PUSH1 0x0 PUSH1 0x40 MLOAD SWAP1 POP SWAP1 JUMP JUMPDEST PUSH1 0x0 DUP1 REVERT JUMPDEST PUSH1 0x0 DUP1 REVERT JUMPDEST PUSH1 0x0 DUP1 REVERT JUMPDEST PUSH1 0x0 DUP1 REVERT JUMPDEST PUSH1 0x0 PUSH1 0x1F NOT PUSH1 0x1F DUP4 ADD AND SWAP1 POP SWAP2 SWAP1 POP JUMP JUMPDEST PUSH32 0x4E487B7100000000000000000000000000000000000000000000000000000000 PUSH1 0x0 MSTORE PUSH1 0x41 PUSH1 0x4 MSTORE PUSH1 0x24 PUSH1 0x0 REVERT JUMPDEST PUSH3 0x374 DUP3 PUSH3 0x329 JUMP JUMPDEST DUP2 ADD DUP2 DUP2 LT PUSH8 0xFFFFFFFFFFFFFFFF DUP3 GT OR ISZERO PUSH3 0x396 JUMPI PUSH3 0x395 PUSH3 0x33A JUMP JUMPDEST JUMPDEST DUP1 PUSH1 0x40 MSTORE POP POP POP JUMP JUMPDEST PUSH1 0x0 PUSH3 0x3AB PUSH3 0x30B JUMP JUMPDEST SWAP1 POP PUSH3 0x3B9 DUP3 DUP3 PUSH3 0x369 JUMP JUMPDEST SWAP2 SWAP1 POP JUMP JUMPDEST PUSH1 0x0 PUSH8 0xFFFFFFFFFFFFFFFF DUP3 GT ISZERO PUSH3 0x3DC JUMPI PUSH3 0x3DB PUSH3 0x33A JUMP JUMPDEST JUMPDEST PUSH3 0x3E7 DUP3 PUSH3 0x329 JUMP JUMPDEST SWAP1 POP PUSH1 0x20 DUP2 ADD SWAP1 POP SWAP2 SWAP1 POP JUMP JUMPDEST PUSH1 0x0 JUMPDEST DUP4 DUP2 LT ISZERO PUSH3 0x414 JUMPI DUP1 DUP3 ADD MLOAD DUP2 DUP5 ADD MSTORE PUSH1 0x20 DUP2 ADD SWAP1 POP PUSH3 0x3F7 JUMP JUMPDEST PUSH1 0x0 DUP5 DUP5 ADD MSTORE POP POP POP POP JUMP JUMPDEST PUSH1 0x0 PUSH3 0x437 PUSH3 0x431 DUP5 PUSH3 0x3BE JUMP JUMPDEST PUSH3 0x39F JUMP JUMPDEST SWAP1 POP DUP3 DUP2 MSTORE PUSH1 0x20 DUP2 ADD DUP5 DUP5 DUP5 ADD GT ISZERO PUSH3 0x456 JUMPI PUSH3 0x455 PUSH3 0x324 JUMP JUMPDEST JUMPDEST PUSH3 0x463 DUP5 DUP3 DUP6 PUSH3 0x3F4 JUMP JUMPDEST POP SWAP4 SWAP3 POP POP POP JUMP JUMPDEST PUSH1 0x0 DUP3 PUSH1 0x1F DUP4 ADD SLT PUSH3 0x483 JUMPI PUSH3 0x482 PUSH3 0x31F JUMP JUMPDEST JUMPDEST DUP2 MLOAD PUSH3 0x495 DUP5 DUP3 PUSH1 0x20 DUP7 ADD PUSH3 0x420 JUMP JUMPDEST SWAP2 POP POP SWAP3 SWAP2 POP POP JUMP JUMPDEST PUSH1 0x0 DUP1 PUSH1 0x40 DUP4 DUP6 SUB SLT ISZERO PUSH3 0x4B8 JUMPI PUSH3 0x4B7 PUSH3 0x315 JUMP JUMPDEST JUMPDEST PUSH1 0x0 DUP4 ADD MLOAD PUSH8 0xFFFFFFFFFFFFFFFF DUP2 GT ISZERO PUSH3 0x4D9 JUMPI PUSH3 0x4D8 PUSH3 0x31A JUMP JUMPDEST JUMPDEST PUSH3 0x4E7 DUP6 DUP3 DUP7 ADD PUSH3 0x46B JUMP JUMPDEST SWAP3 POP POP PUSH1 0x20 DUP4 ADD MLOAD PUSH8 0xFFFFFFFFFFFFFFFF DUP2 GT ISZERO PUSH3 0x50B JUMPI PUSH3 0x50A PUSH3 0x31A JUMP JUMPDEST JUMPDEST PUSH3 0x519 DUP6 DUP3 DUP7 ADD PUSH3 0x46B JUMP JUMPDEST SWAP2 POP POP SWAP3 POP SWAP3 SWAP1 POP JUMP JUMPDEST PUSH1 0x0 DUP2 SWAP1 POP SWAP2 SWAP1 POP JUMP JUMPDEST PUSH3 0x538 DUP2 PUSH3 0x523 JUMP JUMPDEST DUP3 MSTORE POP POP JUMP JUMPDEST PUSH1 0x0 DUP2 SWAP1 POP SWAP2 SWAP1 POP JUMP JUMPDEST PUSH3 0x553 DUP2 PUSH3 0x53E JUMP JUMPDEST DUP3 MSTORE POP POP JUMP JUMPDEST PUSH1 0x0 PUSH20 0xFFFFFFFFFFFFFFFFFFFFFFFFFFFFFFFFFFFFFFFF DUP3 AND SWAP1 POP SWAP2 SWAP1 POP JUMP JUMPDEST PUSH1 0x0 PUSH3 0x586 DUP3 PUSH3 0x559 JUMP JUMPDEST SWAP1 POP SWAP2 SWAP1 POP JUMP JUMPDEST PUSH3 0x598 DUP2 PUSH3 0x579 JUMP JUMPDEST DUP3 MSTORE POP POP JUMP JUMPDEST PUSH1 0x0 PUSH1 0xA0 DUP3 ADD SWAP1 POP PUSH3 0x5B5 PUSH1 0x0 DUP4 ADD DUP9 PUSH3 0x52D JUMP JUMPDEST PUSH3 0x5C4 PUSH1 0x20 DUP4 ADD DUP8 PUSH3 0x52D JUMP JUMPDEST PUSH3 0x5D3 PUSH1 0x40 DUP4 ADD DUP7 PUSH3 0x52D JUMP JUMPDEST PUSH3 0x5E2 PUSH1 0x60 DUP4 ADD DUP6 PUSH3 0x548 JUMP JUMPDEST PUSH3 0x5F1 PUSH1 0x80 DUP4 ADD DUP5 PUSH3 0x58D JUMP JUMPDEST SWAP7 SWAP6 POP POP POP POP POP POP JUMP JUMPDEST PUSH1 0x80 MLOAD PUSH1 0xA0 MLOAD PUSH1 0xC0 MLOAD PUSH1 0xE0 MLOAD PUSH2 0x100 MLOAD PUSH2 0x120 MLOAD PUSH2 0xABD PUSH3 0x639 PUSH1 0x0 CODECOPY PUSH1 0x0 POP POP PUSH1 0x0 POP POP PUSH1 0x0 POP POP PUSH1 0x0 POP POP PUSH1 0x0 POP POP PUSH1 0x0 POP POP PUSH2 0xABD PUSH1 0x0 RETURN INVALID PUSH1 0x80 PUSH1 0x40 MSTORE CALLVALUE DUP1 ISZERO PUSH2 0x10 JUMPI PUSH1 0x0 DUP1 REVERT JUMPDEST POP PUSH1 0x4 CALLDATASIZE LT PUSH2 0x36 JUMPI PUSH1 0x0 CALLDATALOAD PUSH1 0xE0 SHR DUP1 PUSH4 0x2346B05 EQ PUSH2 0x3B JUMPI DUP1 PUSH4 0xFA09DA07 EQ PUSH2 0x59 JUMPI JUMPDEST PUSH1 0x0 DUP1 REVERT JUMPDEST PUSH2 0x43 PUSH2 0x89 JUMP JUMPDEST PUSH1 0x40 MLOAD PUSH2 0x50 SWAP2 SWAP1 PUSH2 0x562 JUMP JUMPDEST PUSH1 0x40 MLOAD DUP1 SWAP2 SUB SWAP1 RETURN JUMPDEST PUSH2 0x73 PUSH1 0x4 DUP1 CALLDATASIZE SUB DUP2 ADD SWAP1 PUSH2 0x6E SWAP2 SWAP1 PUSH2 0x7A4 JUMP JUMPDEST PUSH2 0xE1 JUMP JUMPDEST PUSH1 0x40 MLOAD PUSH2 0x80 SWAP2 SWAP1 PUSH2 0x8E2 JUMP JUMPDEST PUSH1 0x40 MLOAD DUP1 SWAP2 SUB SWAP1 RETURN JUMPDEST PUSH1 0x0 PUSH2 0x9F PUSH8 0x4D8781A188F4E9DE PUSH1 0xC0 SHL PUSH2 0x235 JUMP JUMPDEST PUSH2 0xB3 PUSH8 0x1954C3E5C09214E2 PUSH1 0xC0 SHL PUSH2 0x235 JUMP JUMPDEST CHAINID SWAP1 POP PUSH2 0xCA PUSH8 0xC4148D33C0136349 PUSH1 0xC0 SHL PUSH2 0x235 JUMP JUMPDEST PUSH2 0xDE PUSH8 0xDC9D80FFB8B90382 PUSH1 0xC0 SHL PUSH2 0x235 JUMP JUMPDEST SWAP1 JUMP JUMPDEST PUSH1 0x0 PUSH2 0xF7 PUSH8 0xA7926F8E9BD55023 PUSH1 0xC0 SHL PUSH2 0x235 JUMP JUMPDEST PUSH2 0x10B PUSH8 0x1EDB4B31EB5D04E0 PUSH1 0xC0 SHL PUSH2 0x235 JUMP JUMPDEST PUSH2 0x11F PUSH8 0x84D080070AB80909 PUSH1 0xC0 SHL PUSH2 0x235 JUMP JUMPDEST PUSH1 0x0 PUSH1 0x40 MLOAD DUP1 PUSH1 0xA0 ADD PUSH1 0x40 MSTORE DUP1 DUP10 DUP2 MSTORE PUSH1 0x20 ADD DUP9 DUP2 MSTORE PUSH1 0x20 ADD DUP8 DUP2 MSTORE PUSH1 0x20 ADD DUP6 DUP2 MSTORE PUSH1 0x20 ADD DUP7 DUP2 MSTORE POP SWAP1 POP PUSH2 0x15E PUSH8 0x367124BE5654528 PUSH1 0xC0 SHL PUSH2 0x235 JUMP JUMPDEST PUSH2 0x172 PUSH8 0xD761153CDECD1E71 PUSH1 0xC0 SHL PUSH2 0x235 JUMP JUMPDEST PUSH1 0x0 PUSH2 0x188 PUSH8 0x5BCB680D8CF04C08 PUSH1 0xC0 SHL PUSH2 0x235 JUMP JUMPDEST PUSH2 0x19C PUSH8 0x15F421B8612B91FF PUSH1 0xC0 SHL PUSH2 0x235 JUMP JUMPDEST PUSH1 0x0 PUSH2 0x1B2 PUSH8 0xB14A1065514EAC99 PUSH1 0xC0 SHL PUSH2 0x235 JUMP JUMPDEST PUSH2 0x1C6 PUSH8 0xE7AF03BD9CC3BAE4 PUSH1 0xC0 SHL PUSH2 0x235 JUMP JUMPDEST PUSH1 0x0 PUSH2 0x1DC PUSH8 0x3CA94E4D7DDCBB3E PUSH1 0xC0 SHL PUSH2 0x235 JUMP JUMPDEST PUSH2 0x1E5 DUP7 PUSH2 0x238 JUMP JUMPDEST DUP1 SWAP4 POP DUP2 SWAP5 POP DUP3 SWAP6 POP POP POP POP PUSH2 0x205 PUSH8 0x68A932163E49740B PUSH1 0xC0 SHL PUSH2 0x235 JUMP JUMPDEST PUSH2 0x219 PUSH8 0xC26B9664F17A361B PUSH1 0xC0 SHL PUSH2 0x235 JUMP JUMPDEST PUSH2 0x225 DUP5 DUP5 DUP5 DUP5 PUSH2 0x394 JUMP JUMPDEST SWAP5 POP POP POP POP POP SWAP7 SWAP6 POP POP POP POP POP POP JUMP JUMPDEST POP JUMP JUMPDEST PUSH1 0x0 DUP1 PUSH1 0x0 PUSH2 0x251 PUSH8 0xA8F6A6A38C4ED474 PUSH1 0xC0 SHL PUSH2 0x235 JUMP JUMPDEST PUSH2 0x265 PUSH8 0x7CA8545E4DE7F195 PUSH1 0xC0 SHL PUSH2 0x235 JUMP JUMPDEST PUSH2 0x279 PUSH8 0xB8468564871BC763 PUSH1 0xC0 SHL PUSH2 0x235 JUMP JUMPDEST PUSH2 0x28D PUSH8 0xD67E65E6DD17112D PUSH1 0xC0 SHL PUSH2 0x235 JUMP JUMPDEST PUSH1 0x41 DUP5 MLOAD EQ PUSH2 0x29B JUMPI PUSH1 0x0 DUP1 REVERT JUMPDEST PUSH2 0x2AF PUSH8 0xB8638811709E7682 PUSH1 0xC0 SHL PUSH2 0x235 JUMP JUMPDEST PUSH2 0x2C3 PUSH8 0x63F72B6E369B09B1 PUSH1 0xC0 SHL PUSH2 0x235 JUMP JUMPDEST PUSH2 0x2D7 PUSH8 0xAEA246F0C453720E PUSH1 0xC0 SHL PUSH2 0x235 JUMP JUMPDEST PUSH1 0x0 PUSH2 0x2ED PUSH8 0x577DE50A1F00668C PUSH1 0xC0 SHL PUSH2 0x235 JUMP JUMPDEST PUSH2 0x301 PUSH8 0x94CEDB1E469A1749 PUSH1 0xC0 SHL PUSH2 0x235 JUMP JUMPDEST PUSH1 0x0 PUSH2 0x317 PUSH8 0x2250C72AC0EC5AFF PUSH1 0xC0 SHL PUSH2 0x235 JUMP JUMPDEST PUSH2 0x32B PUSH8 0xE25D539F73C762F2 PUSH1 0xC0 SHL PUSH2 0x235 JUMP JUMPDEST PUSH1 0x0 PUSH2 0x341 PUSH8 0xEDE93601DB22BC45 PUSH1 0xC0 SHL PUSH2 0x235 JUMP JUMPDEST PUSH1 0x20 DUP8 ADD MLOAD SWAP3 POP PUSH1 0x40 DUP8 ADD MLOAD SWAP2 POP PUSH1 0x60 DUP8 ADD MLOAD PUSH1 0x0 BYTE SWAP1 POP PUSH2 0x36D PUSH8 0x8EC95B7F97843657 PUSH1 0xC0 SHL PUSH2 0x235 JUMP JUMPDEST PUSH2 0x381 PUSH8 0xE8528638F24D8E10 PUSH1 0xC0 SHL PUSH2 0x235 JUMP JUMPDEST DUP1 DUP4 DUP4 SWAP6 POP SWAP6 POP SWAP6 POP POP POP POP SWAP2 SWAP4 SWAP1 SWAP3 POP JUMP JUMPDEST PUSH1 0x0 PUSH2 0x3AA PUSH8 0x105FF00A3B12B330 PUSH1 0xC0 SHL PUSH2 0x235 JUMP JUMPDEST PUSH2 0x3BE PUSH8 0x460CA9E94873F19A PUSH1 0xC0 SHL PUSH2 0x235 JUMP JUMPDEST PUSH2 0x3D2 PUSH8 0xE69930983DD51AE7 PUSH1 0xC0 SHL PUSH2 0x235 JUMP JUMPDEST PUSH1 0x0 DUP1 SLOAD PUSH2 0x3DF DUP8 PUSH2 0x48A JUMP JUMPDEST PUSH1 0x40 MLOAD PUSH1 0x20 ADD PUSH2 0x3F0 SWAP3 SWAP2 SWAP1 PUSH2 0x97F JUMP JUMPDEST PUSH1 0x40 MLOAD PUSH1 0x20 DUP2 DUP4 SUB SUB DUP2 MSTORE SWAP1 PUSH1 0x40 MSTORE DUP1 MLOAD SWAP1 PUSH1 0x20 ADD KECCAK256 SWAP1 POP PUSH2 0x41C PUSH8 0xFF456692E8D9F0F0 PUSH1 0xC0 SHL PUSH2 0x235 JUMP JUMPDEST PUSH2 0x430 PUSH8 0xD432072F69404857 PUSH1 0xC0 SHL PUSH2 0x235 JUMP JUMPDEST PUSH1 0x1 DUP2 DUP7 DUP7 DUP7 PUSH1 0x40 MLOAD PUSH1 0x0 DUP2 MSTORE PUSH1 0x20 ADD PUSH1 0x40 MSTORE PUSH1 0x40 MLOAD PUSH2 0x453 SWAP5 SWAP4 SWAP3 SWAP2 SWAP1 PUSH2 0x9E1 JUMP JUMPDEST PUSH1 0x20 PUSH1 0x40 MLOAD PUSH1 0x20 DUP2 SUB SWAP1 DUP1 DUP5 SUB SWAP1 DUP6 GAS STATICCALL ISZERO DUP1 ISZERO PUSH2 0x475 JUMPI RETURNDATASIZE PUSH1 0x0 DUP1 RETURNDATACOPY RETURNDATASIZE PUSH1 0x0 REVERT JUMPDEST POP POP POP PUSH1 0x20 PUSH1 0x40 MLOAD SUB MLOAD SWAP2 POP POP SWAP5 SWAP4 POP POP POP POP JUMP JUMPDEST PUSH1 0x0 PUSH2 0x4A0 PUSH8 0x9FDA9599C026502C PUSH1 0xC0 SHL PUSH2 0x235 JUMP JUMPDEST PUSH2 0x4B4 PUSH8 0x64F606E26383E90E PUSH1 0xC0 SHL PUSH2 0x235 JUMP JUMPDEST PUSH2 0x4C8 PUSH8 0xBDB43E4FA61D5221 PUSH1 0xC0 SHL PUSH2 0x235 JUMP JUMPDEST PUSH32 0xACF5FE31302E000A021505D68F64F59A958ED052954AF199025629C07A5C0912 DUP3 PUSH1 0x0 ADD MLOAD DUP1 MLOAD SWAP1 PUSH1 0x20 ADD KECCAK256 DUP4 PUSH1 0x20 ADD MLOAD DUP1 MLOAD SWAP1 PUSH1 0x20 ADD KECCAK256 DUP5 PUSH1 0x40 ADD MLOAD DUP1 MLOAD SWAP1 PUSH1 0x20 ADD KECCAK256 DUP6 PUSH1 0x60 ADD MLOAD DUP7 PUSH1 0x80 ADD MLOAD PUSH1 0x40 MLOAD PUSH1 0x20 ADD PUSH2 0x52C SWAP7 SWAP6 SWAP5 SWAP4 SWAP3 SWAP2 SWAP1 PUSH2 0xA26 JUMP JUMPDEST PUSH1 0x40 MLOAD PUSH1 0x20 DUP2 DUP4 SUB SUB DUP2 MSTORE SWAP1 PUSH1 0x40 MSTORE DUP1 MLOAD SWAP1 PUSH1 0x20 ADD KECCAK256 SWAP1 POP SWAP2 SWAP1 POP JUMP JUMPDEST PUSH1 0x0 DUP2 SWAP1 POP SWAP2 SWAP1 POP JUMP JUMPDEST PUSH2 0x55C DUP2 PUSH2 0x549 JUMP JUMPDEST DUP3 MSTORE POP POP JUMP JUMPDEST PUSH1 0x0 PUSH1 0x20 DUP3 ADD SWAP1 POP PUSH2 0x577 PUSH1 0x0 DUP4 ADD DUP5 PUSH2 0x553 JUMP JUMPDEST SWAP3 SWAP2 POP POP JUMP JUMPDEST PUSH1 0x0 PUSH1 0x40 MLOAD SWAP1 POP SWAP1 JUMP JUMPDEST PUSH1 0x0 DUP1 REVERT JUMPDEST PUSH1 0x0 DUP1 REVERT JUMPDEST PUSH1 0x0 DUP1 REVERT JUMPDEST PUSH1 0x0 DUP1 REVERT JUMPDEST PUSH1 0x0 PUSH1 0x1F NOT PUSH1 0x1F DUP4 ADD AND SWAP1 POP SWAP2 SWAP1 POP JUMP JUMPDEST PUSH32 0x4E487B7100000000000000000000000000000000000000000000000000000000 PUSH1 0x0 MSTORE PUSH1 0x41 PUSH1 0x4 MSTORE PUSH1 0x24 PUSH1 0x0 REVERT JUMPDEST PUSH2 0x5E4 DUP3 PUSH2 0x59B JUMP JUMPDEST DUP2 ADD DUP2 DUP2 LT PUSH8 0xFFFFFFFFFFFFFFFF DUP3 GT OR ISZERO PUSH2 0x603 JUMPI PUSH2 0x602 PUSH2 0x5AC JUMP JUMPDEST JUMPDEST DUP1 PUSH1 0x40 MSTORE POP POP POP JUMP JUMPDEST PUSH1 0x0 PUSH2 0x616 PUSH2 0x57D JUMP JUMPDEST SWAP1 POP PUSH2 0x622 DUP3 DUP3 PUSH2 0x5DB JUMP JUMPDEST SWAP2 SWAP1 POP JUMP JUMPDEST PUSH1 0x0 PUSH8 0xFFFFFFFFFFFFFFFF DUP3 GT ISZERO PUSH2 0x642 JUMPI PUSH2 0x641 PUSH2 0x5AC JUMP JUMPDEST JUMPDEST PUSH2 0x64B DUP3 PUSH2 0x59B JUMP JUMPDEST SWAP1 POP PUSH1 0x20 DUP2 ADD SWAP1 POP SWAP2 SWAP1 POP JUMP JUMPDEST DUP3 DUP2 DUP4 CALLDATACOPY PUSH1 0x0 DUP4 DUP4 ADD MSTORE POP POP POP JUMP JUMPDEST PUSH1 0x0 PUSH2 0x67A PUSH2 0x675 DUP5 PUSH2 0x627 JUMP JUMPDEST PUSH2 0x60C JUMP JUMPDEST SWAP1 POP DUP3 DUP2 MSTORE PUSH1 0x20 DUP2 ADD DUP5 DUP5 DUP5 ADD GT ISZERO PUSH2 0x696 JUMPI PUSH2 0x695 PUSH2 0x596 JUMP JUMPDEST JUMPDEST PUSH2 0x6A1 DUP5 DUP3 DUP6 PUSH2 0x658 JUMP JUMPDEST POP SWAP4 SWAP3 POP POP POP JUMP JUMPDEST PUSH1 0x0 DUP3 PUSH1 0x1F DUP4 ADD SLT PUSH2 0x6BE JUMPI PUSH2 0x6BD PUSH2 0x591 JUMP JUMPDEST JUMPDEST DUP2 CALLDATALOAD PUSH2 0x6CE DUP5 DUP3 PUSH1 0x20 DUP7 ADD PUSH2 0x667 JUMP JUMPDEST SWAP2 POP POP SWAP3 SWAP2 POP POP JUMP JUMPDEST PUSH2 0x6E0 DUP2 PUSH2 0x549 JUMP JUMPDEST DUP2 EQ PUSH2 0x6EB JUMPI PUSH1 0x0 DUP1 REVERT JUMPDEST POP JUMP JUMPDEST PUSH1 0x0 DUP2 CALLDATALOAD SWAP1 POP PUSH2 0x6FD DUP2 PUSH2 0x6D7 JUMP JUMPDEST SWAP3 SWAP2 POP POP JUMP JUMPDEST PUSH1 0x0 PUSH8 0xFFFFFFFFFFFFFFFF DUP3 GT ISZERO PUSH2 0x71E JUMPI PUSH2 0x71D PUSH2 0x5AC JUMP JUMPDEST JUMPDEST PUSH2 0x727 DUP3 PUSH2 0x59B JUMP JUMPDEST SWAP1 POP PUSH1 0x20 DUP2 ADD SWAP1 POP SWAP2 SWAP1 POP JUMP JUMPDEST PUSH1 0x0 PUSH2 0x747 PUSH2 0x742 DUP5 PUSH2 0x703 JUMP JUMPDEST PUSH2 0x60C JUMP JUMPDEST SWAP1 POP DUP3 DUP2 MSTORE PUSH1 0x20 DUP2 ADD DUP5 DUP5 DUP5 ADD GT ISZERO PUSH2 0x763 JUMPI PUSH2 0x762 PUSH2 0x596 JUMP JUMPDEST JUMPDEST PUSH2 0x76E DUP5 DUP3 DUP6 PUSH2 0x658 JUMP JUMPDEST POP SWAP4 SWAP3 POP POP POP JUMP JUMPDEST PUSH1 0x0 DUP3 PUSH1 0x1F DUP4 ADD SLT PUSH2 0x78B JUMPI PUSH2 0x78A PUSH2 0x591 JUMP JUMPDEST JUMPDEST DUP2 CALLDATALOAD PUSH2 0x79B DUP5 DUP3 PUSH1 0x20 DUP7 ADD PUSH2 0x734 JUMP JUMPDEST SWAP2 POP POP SWAP3 SWAP2 POP POP JUMP JUMPDEST PUSH1 0x0 DUP1 PUSH1 0x0 DUP1 PUSH1 0x0 DUP1 PUSH1 0xC0 DUP8 DUP10 SUB SLT ISZERO PUSH2 0x7C1 JUMPI PUSH2 0x7C0 PUSH2 0x587 JUMP JUMPDEST JUMPDEST PUSH1 0x0 DUP8 ADD CALLDATALOAD PUSH8 0xFFFFFFFFFFFFFFFF DUP2 GT ISZERO PUSH2 0x7DF JUMPI PUSH2 0x7DE PUSH2 0x58C JUMP JUMPDEST JUMPDEST PUSH2 0x7EB DUP10 DUP3 DUP11 ADD PUSH2 0x6A9 JUMP JUMPDEST SWAP7 POP POP PUSH1 0x20 DUP8 ADD CALLDATALOAD PUSH8 0xFFFFFFFFFFFFFFFF DUP2 GT ISZERO PUSH2 0x80C JUMPI PUSH2 0x80B PUSH2 0x58C JUMP JUMPDEST JUMPDEST PUSH2 0x818 DUP10 DUP3 DUP11 ADD PUSH2 0x6A9 JUMP JUMPDEST SWAP6 POP POP PUSH1 0x40 DUP8 ADD CALLDATALOAD PUSH8 0xFFFFFFFFFFFFFFFF DUP2 GT ISZERO PUSH2 0x839 JUMPI PUSH2 0x838 PUSH2 0x58C JUMP JUMPDEST JUMPDEST PUSH2 0x845 DUP10 DUP3 DUP11 ADD PUSH2 0x6A9 JUMP JUMPDEST SWAP5 POP POP PUSH1 0x60 PUSH2 0x856 DUP10 DUP3 DUP11 ADD PUSH2 0x6EE JUMP JUMPDEST SWAP4 POP POP PUSH1 0x80 PUSH2 0x867 DUP10 DUP3 DUP11 ADD PUSH2 0x6EE JUMP JUMPDEST SWAP3 POP POP PUSH1 0xA0 DUP8 ADD CALLDATALOAD PUSH8 0xFFFFFFFFFFFFFFFF DUP2 GT ISZERO PUSH2 0x888 JUMPI PUSH2 0x887 PUSH2 0x58C JUMP JUMPDEST JUMPDEST PUSH2 0x894 DUP10 DUP3 DUP11 ADD PUSH2 0x776 JUMP JUMPDEST SWAP2 POP POP SWAP3 SWAP6 POP SWAP3 SWAP6 POP SWAP3 SWAP6 JUMP JUMPDEST PUSH1 0x0 PUSH20 0xFFFFFFFFFFFFFFFFFFFFFFFFFFFFFFFFFFFFFFFF DUP3 AND SWAP1 POP SWAP2 SWAP1 POP JUMP JUMPDEST PUSH1 0x0 PUSH2 0x8CC DUP3 PUSH2 0x8A1 JUMP JUMPDEST SWAP1 POP SWAP2 SWAP1 POP JUMP JUMPDEST PUSH2 0x8DC DUP2 PUSH2 0x8C1 JUMP JUMPDEST DUP3 MSTORE POP POP JUMP JUMPDEST PUSH1 0x0 PUSH1 0x20 DUP3 ADD SWAP1 POP PUSH2 0x8F7 PUSH1 0x0 DUP4 ADD DUP5 PUSH2 0x8D3 JUMP JUMPDEST SWAP3 SWAP2 POP POP JUMP JUMPDEST PUSH1 0x0 DUP2 SWAP1 POP SWAP3 SWAP2 POP POP JUMP JUMPDEST PUSH32 0x1901000000000000000000000000000000000000000000000000000000000000 PUSH1 0x0 DUP3 ADD MSTORE POP JUMP JUMPDEST PUSH1 0x0 PUSH2 0x93E PUSH1 0x2 DUP4 PUSH2 0x8FD JUMP JUMPDEST SWAP2 POP PUSH2 0x949 DUP3 PUSH2 0x908 JUMP JUMPDEST PUSH1 0x2 DUP3 ADD SWAP1 POP SWAP2 SWAP1 POP JUMP JUMPDEST PUSH1 0x0 DUP2 SWAP1 POP SWAP2 SWAP1 POP JUMP JUMPDEST PUSH1 0x0 DUP2 SWAP1 POP SWAP2 SWAP1 POP JUMP JUMPDEST PUSH2 0x979 PUSH2 0x974 DUP3 PUSH2 0x954 JUMP JUMPDEST PUSH2 0x95E JUMP JUMPDEST DUP3 MSTORE POP POP JUMP JUMPDEST PUSH1 0x0 PUSH2 0x98A DUP3 PUSH2 0x931 JUMP JUMPDEST SWAP2 POP PUSH2 0x996 DUP3 DUP6 PUSH2 0x968 JUMP JUMPDEST PUSH1 0x20 DUP3 ADD SWAP2 POP PUSH2 0x9A6 DUP3 DUP5 PUSH2 0x968 JUMP JUMPDEST PUSH1 0x20 DUP3 ADD SWAP2 POP DUP2 SWAP1 POP SWAP4 SWAP3 POP POP POP JUMP JUMPDEST PUSH2 0x9BF DUP2 PUSH2 0x954 JUMP JUMPDEST DUP3 MSTORE POP POP JUMP JUMPDEST PUSH1 0x0 PUSH1 0xFF DUP3 AND SWAP1 POP SWAP2 SWAP1 POP JUMP JUMPDEST PUSH2 0x9DB DUP2 PUSH2 0x9C5 JUMP JUMPDEST DUP3 MSTORE POP POP JUMP JUMPDEST PUSH1 0x0 PUSH1 0x80 DUP3 ADD SWAP1 POP PUSH2 0x9F6 PUSH1 0x0 DUP4 ADD DUP8 PUSH2 0x9B6 JUMP JUMPDEST PUSH2 0xA03 PUSH1 0x20 DUP4 ADD DUP7 PUSH2 0x9D2 JUMP JUMPDEST PUSH2 0xA10 PUSH1 0x40 DUP4 ADD DUP6 PUSH2 0x9B6 JUMP JUMPDEST PUSH2 0xA1D PUSH1 0x60 DUP4 ADD DUP5 PUSH2 0x9B6 JUMP JUMPDEST SWAP6 SWAP5 POP POP POP POP POP JUMP JUMPDEST PUSH1 0x0 PUSH1 0xC0 DUP3 ADD SWAP1 POP PUSH2 0xA3B PUSH1 0x0 DUP4 ADD DUP10 PUSH2 0x9B6 JUMP JUMPDEST PUSH2 0xA48 PUSH1 0x20 DUP4 ADD DUP9 PUSH2 0x9B6 JUMP JUMPDEST PUSH2 0xA55 PUSH1 0x40 DUP4 ADD DUP8 PUSH2 0x9B6 JUMP JUMPDEST PUSH2 0xA62 PUSH1 0x60 DUP4 ADD DUP7 PUSH2 0x9B6 JUMP JUMPDEST PUSH2 0xA6F PUSH1 0x80 DUP4 ADD DUP6 PUSH2 0x553 JUMP JUMPDEST PUSH2 0xA7C PUSH1 0xA0 DUP4 ADD DUP5 PUSH2 0x553 JUMP JUMPDEST SWAP8 SWAP7 POP POP POP POP POP POP POP JUMP INVALID LOG2 PUSH5 0x6970667358 0x22 SLT KECCAK256 0xAF EXTCODESIZE 0xE0 MSTORE 0x2C PUSH12 0x6C02956459F1CE4C2365E55F PUSH10 0xC6F70D7CCB725E2E05F5 RETURNDATASIZE 0xF6 0xF8 PUSH5 0x736F6C6343 STOP ADDMOD ISZERO STOP CALLER "},"methodIdentifiers":{"_getChainId()":"02346b05","validateMessage(string,string,string,uint256,uint256,bytes)":"fa09da07"}}}}}