{"contracts/WWW3Shares.sol":{"WWW3Shares":{"abi":[{"inputs":[{"internalType":"string","name":"_name","type":"string"},{"internalType":"string","name":"_symbol","type":"string"},{"internalType":"uint256","name":"_maxAmountOfShares","type":"uint256"},{"internalType":"uint256","name":"_sharePrice","type":"uint256"},{"internalType":"uint256","name":"_privateSellAmount","type":"uint256"},{"internalType":"uint256","name":"_vestingPeriod","type":"uint256"},{"internalType":"address","name":"_dev","type":"address"}],"stateMutability":"nonpayable","type":"constructor"},{"inputs":[{"internalType":"address","name":"spender","type":"address"},{"internalType":"uint256","name":"allowance","type":"uint256"},{"internalType":"uint256","name":"needed","type":"uint256"}],"name":"ERC20InsufficientAllowance","type":"error"},{"inputs":[{"internalType":"address","name":"sender","type":"address"},{"internalType":"uint256","name":"balance","type":"uint256"},{"internalType":"uint256","name":"needed","type":"uint256"}],"name":"ERC20InsufficientBalance","type":"error"},{"inputs":[{"internalType":"address","name":"approver","type":"address"}],"name":"ERC20InvalidApprover","type":"error"},{"inputs":[{"internalType":"address","name":"receiver","type":"address"}],"name":"ERC20InvalidReceiver","type":"error"},{"inputs":[{"internalType":"address","name":"sender","type":"address"}],"name":"ERC20InvalidSender","type":"error"},{"inputs":[{"internalType":"address","name":"spender","type":"address"}],"name":"ERC20InvalidSpender","type":"error"},{"inputs":[{"internalType":"address","name":"owner","type":"address"}],"name":"OwnableInvalidOwner","type":"error"},{"inputs":[{"internalType":"address","name":"account","type":"address"}],"name":"OwnableUnauthorizedAccount","type":"error"},{"inputs":[],"name":"ReentrancyGuardReentrantCall","type":"error"},{"anonymous":false,"inputs":[{"indexed":true,"internalType":"address","name":"owner","type":"address"},{"indexed":true,"internalType":"address","name":"spender","type":"address"},{"indexed":false,"internalType":"uint256","name":"value","type":"uint256"}],"name":"Approval","type":"event"},{"anonymous":false,"inputs":[{"indexed":true,"internalType":"address","name":"previousOwner","type":"address"},{"indexed":true,"internalType":"address","name":"newOwner","type":"address"}],"name":"OwnershipTransferred","type":"event"},{"anonymous":false,"inputs":[{"indexed":false,"internalType":"address","name":"to","type":"address"},{"indexed":false,"internalType":"uint256","name":"amount","type":"uint256"}],"name":"ShareMinted","type":"event"},{"anonymous":false,"inputs":[{"indexed":false,"internalType":"address","name":"to","type":"address"},{"indexed":false,"internalType":"uint256","name":"amount","type":"uint256"}],"name":"ShareSold","type":"event"},{"anonymous":false,"inputs":[{"indexed":true,"internalType":"address","name":"from","type":"address"},{"indexed":true,"internalType":"address","name":"to","type":"address"},{"indexed":false,"internalType":"uint256","name":"value","type":"uint256"}],"name":"Transfer","type":"event"},{"inputs":[{"internalType":"address","name":"owner","type":"address"},{"internalType":"address","name":"spender","type":"address"}],"name":"allowance","outputs":[{"internalType":"uint256","name":"","type":"uint256"}],"stateMutability":"view","type":"function"},{"inputs":[{"internalType":"address","name":"spender","type":"address"},{"internalType":"uint256","name":"value","type":"uint256"}],"name":"approve","outputs":[{"internalType":"bool","name":"","type":"bool"}],"stateMutability":"nonpayable","type":"function"},{"inputs":[],"name":"availableShares","outputs":[{"internalType":"uint256","name":"","type":"uint256"},{"internalType":"uint256","name":"","type":"uint256"}],"stateMutability":"view","type":"function"},{"inputs":[{"internalType":"address","name":"account","type":"address"}],"name":"balanceOf","outputs":[{"internalType":"uint256","name":"","type":"uint256"}],"stateMutability":"view","type":"function"},{"inputs":[{"internalType":"uint256","name":"amount","type":"uint256"}],"name":"buyShares","outputs":[],"stateMutability":"payable","type":"function"},{"inputs":[{"internalType":"uint256","name":"incomingEther","type":"uint256"}],"name":"currentShareValue","outputs":[{"internalType":"uint256","name":"","type":"uint256"}],"stateMutability":"view","type":"function"},{"inputs":[],"name":"decimals","outputs":[{"internalType":"uint8","name":"","type":"uint8"}],"stateMutability":"view","type":"function"},{"inputs":[],"name":"developer","outputs":[{"internalType":"address payable","name":"","type":"address"}],"stateMutability":"view","type":"function"},{"inputs":[],"name":"initialSharePrice","outputs":[{"internalType":"uint256","name":"","type":"uint256"}],"stateMutability":"view","type":"function"},{"inputs":[],"name":"maxAmountOfShares","outputs":[{"internalType":"uint256","name":"","type":"uint256"}],"stateMutability":"view","type":"function"},{"inputs":[],"name":"name","outputs":[{"internalType":"string","name":"","type":"string"}],"stateMutability":"view","type":"function"},{"inputs":[],"name":"owner","outputs":[{"internalType":"address","name":"","type":"address"}],"stateMutability":"view","type":"function"},{"inputs":[],"name":"renounceOwnership","outputs":[],"stateMutability":"nonpayable","type":"function"},{"inputs":[{"internalType":"uint256","name":"amount","type":"uint256"}],"name":"sellShares","outputs":[],"stateMutability":"nonpayable","type":"function"},{"inputs":[],"name":"symbol","outputs":[{"internalType":"string","name":"","type":"string"}],"stateMutability":"view","type":"function"},{"inputs":[],"name":"totalSupply","outputs":[{"internalType":"uint256","name":"","type":"uint256"}],"stateMutability":"view","type":"function"},{"inputs":[{"internalType":"address","name":"to","type":"address"},{"internalType":"uint256","name":"value","type":"uint256"}],"name":"transfer","outputs":[{"internalType":"bool","name":"","type":"bool"}],"stateMutability":"nonpayable","type":"function"},{"inputs":[{"internalType":"address","name":"from","type":"address"},{"internalType":"address","name":"to","type":"address"},{"internalType":"uint256","name":"value","type":"uint256"}],"name":"transferFrom","outputs":[{"internalType":"bool","name":"","type":"bool"}],"stateMutability":"nonpayable","type":"function"},{"inputs":[{"internalType":"address","name":"newOwner","type":"address"}],"name":"transferOwnership","outputs":[],"stateMutability":"nonpayable","type":"function"},{"inputs":[],"name":"vestingPeriodEnd","outputs":[{"internalType":"uint256","name":"","type":"uint256"}],"stateMutability":"view","type":"function"},{"stateMutability":"payable","type":"receive"}],"evm":{"bytecode":{"linkReferences":{},"object":"60806040523480156200001157600080fd5b50604051620037e7380380620037e7833981810160405281019062000037919062000805565b868682600073ffffffffffffffffffffffffffffffffffffffff168173ffffffffffffffffffffffffffffffffffffffff1603620000af5760006040517f1e4fbdf7000000000000000000000000000000000000000000000000000000008152600401620000a6919062000907565b60405180910390fd5b620000c0816200024360201b60201c565b50600180819055508160059081620000d9919062000b65565b508060069081620000eb919062000b65565b5050506200010a67dbad686cfb07dca260c01b6200030760201b60201c565b6200012667d5e351a0f4dd8f4c60c01b6200030760201b60201c565b80600760006101000a81548173ffffffffffffffffffffffffffffffffffffffff021916908373ffffffffffffffffffffffffffffffffffffffff16021790555062000183676807256b9b6fc97960c01b6200030760201b60201c565b84600881905550620001a667305cbd99d95d9a8a60c01b6200030760201b60201c565b83600981905550620001c96761bf6a940fadac9f60c01b6200030760201b60201c565b620001e5670c869c874f49d02460c01b6200030760201b60201c565b62000206620001f96200030a60201b60201c565b846200031260201b60201c565b6200022267331ac3766a7d2c0560c01b6200030760201b60201c565b814362000230919062000c7b565b600a819055505050505050505062000d21565b60008060009054906101000a900473ffffffffffffffffffffffffffffffffffffffff169050816000806101000a81548173ffffffffffffffffffffffffffffffffffffffff021916908373ffffffffffffffffffffffffffffffffffffffff1602179055508173ffffffffffffffffffffffffffffffffffffffff168173ffffffffffffffffffffffffffffffffffffffff167f8be0079c531659141344cd1fd0a4f28419497f9722a3daafe3b4186f6b6457e060405160405180910390a35050565b50565b600033905090565b600073ffffffffffffffffffffffffffffffffffffffff168273ffffffffffffffffffffffffffffffffffffffff1603620003875760006040517fec442f050000000000000000000000000000000000000000000000000000000081526004016200037e919062000907565b60405180910390fd5b6200039b600083836200039f60201b60201c565b5050565b600073ffffffffffffffffffffffffffffffffffffffff168373ffffffffffffffffffffffffffffffffffffffff1603620003f5578060046000828254620003e8919062000c7b565b92505081905550620004cd565b6000600260008573ffffffffffffffffffffffffffffffffffffffff1673ffffffffffffffffffffffffffffffffffffffff1681526020019081526020016000205490508181101562000485578381836040517fe450d38c0000000000000000000000000000000000000000000000000000000081526004016200047c9392919062000cc7565b60405180910390fd5b818103600260008673ffffffffffffffffffffffffffffffffffffffff1673ffffffffffffffffffffffffffffffffffffffff16815260200190815260200160002081905550505b600073ffffffffffffffffffffffffffffffffffffffff168273ffffffffffffffffffffffffffffffffffffffff160362000518578060046000828254039250508190555062000566565b80600260008473ffffffffffffffffffffffffffffffffffffffff1673ffffffffffffffffffffffffffffffffffffffff168152602001908152602001600020600082825401925050819055505b8173ffffffffffffffffffffffffffffffffffffffff168373ffffffffffffffffffffffffffffffffffffffff167fddf252ad1be2c89b69c2b068fc378daa952ba7f163c4a11628f55a4df523b3ef83604051620005c5919062000d04565b60405180910390a3505050565b6000604051905090565b600080fd5b600080fd5b600080fd5b600080fd5b6000601f19601f8301169050919050565b7f4e487b7100000000000000000000000000000000000000000000000000000000600052604160045260246000fd5b6200063b82620005f0565b810181811067ffffffffffffffff821117156200065d576200065c62000601565b5b80604052505050565b600062000672620005d2565b905062000680828262000630565b919050565b600067ffffffffffffffff821115620006a357620006a262000601565b5b620006ae82620005f0565b9050602081019050919050565b60005b83811015620006db578082015181840152602081019050620006be565b60008484015250505050565b6000620006fe620006f88462000685565b62000666565b9050828152602081018484840111156200071d576200071c620005eb565b5b6200072a848285620006bb565b509392505050565b600082601f8301126200074a5762000749620005e6565b5b81516200075c848260208601620006e7565b91505092915050565b6000819050919050565b6200077a8162000765565b81146200078657600080fd5b50565b6000815190506200079a816200076f565b92915050565b600073ffffffffffffffffffffffffffffffffffffffff82169050919050565b6000620007cd82620007a0565b9050919050565b620007df81620007c0565b8114620007eb57600080fd5b50565b600081519050620007ff81620007d4565b92915050565b600080600080600080600060e0888a031215620008275762000826620005dc565b5b600088015167ffffffffffffffff811115620008485762000847620005e1565b5b620008568a828b0162000732565b975050602088015167ffffffffffffffff8111156200087a5762000879620005e1565b5b620008888a828b0162000732565b96505060406200089b8a828b0162000789565b9550506060620008ae8a828b0162000789565b9450506080620008c18a828b0162000789565b93505060a0620008d48a828b0162000789565b92505060c0620008e78a828b01620007ee565b91505092959891949750929550565b6200090181620007c0565b82525050565b60006020820190506200091e6000830184620008f6565b92915050565b600081519050919050565b7f4e487b7100000000000000000000000000000000000000000000000000000000600052602260045260246000fd5b600060028204905060018216806200097757607f821691505b6020821081036200098d576200098c6200092f565b5b50919050565b60008190508160005260206000209050919050565b60006020601f8301049050919050565b600082821b905092915050565b600060088302620009f77fffffffffffffffffffffffffffffffffffffffffffffffffffffffffffffffff82620009b8565b62000a038683620009b8565b95508019841693508086168417925050509392505050565b6000819050919050565b600062000a4662000a4062000a3a8462000765565b62000a1b565b62000765565b9050919050565b6000819050919050565b62000a628362000a25565b62000a7a62000a718262000a4d565b848454620009c5565b825550505050565b600090565b62000a9162000a82565b62000a9e81848462000a57565b505050565b5b8181101562000ac65762000aba60008262000a87565b60018101905062000aa4565b5050565b601f82111562000b155762000adf8162000993565b62000aea84620009a8565b8101602085101562000afa578190505b62000b1262000b0985620009a8565b83018262000aa3565b50505b505050565b600082821c905092915050565b600062000b3a6000198460080262000b1a565b1980831691505092915050565b600062000b55838362000b27565b9150826002028217905092915050565b62000b708262000924565b67ffffffffffffffff81111562000b8c5762000b8b62000601565b5b62000b9882546200095e565b62000ba582828562000aca565b600060209050601f83116001811462000bdd576000841562000bc8578287015190505b62000bd4858262000b47565b86555062000c44565b601f19841662000bed8662000993565b60005b8281101562000c175784890151825560018201915060208501945060208101905062000bf0565b8683101562000c37578489015162000c33601f89168262000b27565b8355505b6001600288020188555050505b505050505050565b7f4e487b7100000000000000000000000000000000000000000000000000000000600052601160045260246000fd5b600062000c888262000765565b915062000c958362000765565b925082820190508082111562000cb05762000caf62000c4c565b5b92915050565b62000cc18162000765565b82525050565b600060608201905062000cde6000830186620008f6565b62000ced602083018562000cb6565b62000cfc604083018462000cb6565b949350505050565b600060208201905062000d1b600083018462000cb6565b92915050565b612ab68062000d316000396000f3fe6080604052600436106101235760003560e01c806395d89b41116100a0578063d1a93d1811610064578063d1a93d18146103e7578063d224ca7814610403578063dd62ed3e14610440578063defbbb681461047d578063f2fde38b146104a85761012a565b806395d89b41146102fd5780639e462fc714610328578063a173f79e14610353578063a9059cbb1461037f578063ca4b208b146103bc5761012a565b80634ba8ae81116100e75780634ba8ae811461022a5780635f3e364a1461025357806370a082311461027e578063715018a6146102bb5780638da5cb5b146102d25761012a565b806306fdde031461012f578063095ea7b31461015a57806318160ddd1461019757806323b872dd146101c2578063313ce567146101ff5761012a565b3661012a57005b600080fd5b34801561013b57600080fd5b506101446104d1565b6040516101519190612284565b60405180910390f35b34801561016657600080fd5b50610181600480360381019061017c919061233f565b610563565b60405161018e919061239a565b60405180910390f35b3480156101a357600080fd5b506101ac610586565b6040516101b991906123c4565b60405180910390f35b3480156101ce57600080fd5b506101e960048036038101906101e491906123df565b610590565b6040516101f6919061239a565b60405180910390f35b34801561020b57600080fd5b506102146105bf565b604051610221919061244e565b60405180910390f35b34801561023657600080fd5b50610251600480360381019061024c9190612469565b6105c8565b005b34801561025f57600080fd5b50610268610a5b565b60405161027591906123c4565b60405180910390f35b34801561028a57600080fd5b506102a560048036038101906102a09190612496565b610a61565b6040516102b291906123c4565b60405180910390f35b3480156102c757600080fd5b506102d0610aaa565b005b3480156102de57600080fd5b506102e7610abe565b6040516102f491906124d2565b60405180910390f35b34801561030957600080fd5b50610312610ae7565b60405161031f9190612284565b60405180910390f35b34801561033457600080fd5b5061033d610b79565b60405161034a91906123c4565b60405180910390f35b34801561035f57600080fd5b50610368610b7f565b6040516103769291906124ed565b60405180910390f35b34801561038b57600080fd5b506103a660048036038101906103a1919061233f565b610c4b565b6040516103b3919061239a565b60405180910390f35b3480156103c857600080fd5b506103d1610c6e565b6040516103de9190612537565b60405180910390f35b61040160048036038101906103fc9190612469565b610c94565b005b34801561040f57600080fd5b5061042a60048036038101906104259190612469565b610dd4565b60405161043791906123c4565b60405180910390f35b34801561044c57600080fd5b5061046760048036038101906104629190612552565b611039565b60405161047491906123c4565b60405180910390f35b34801561048957600080fd5b506104926110c0565b60405161049f91906123c4565b60405180910390f35b3480156104b457600080fd5b506104cf60048036038101906104ca9190612496565b6110c6565b005b6060600580546104e0906125c1565b80601f016020809104026020016040519081016040528092919081815260200182805461050c906125c1565b80156105595780601f1061052e57610100808354040283529160200191610559565b820191906000526020600020905b81548152906001019060200180831161053c57829003601f168201915b5050505050905090565b60008061056e61114c565b905061057b818585611154565b600191505092915050565b6000600454905090565b60008061059b61114c565b90506105a8858285611166565b6105b38585856111fa565b60019150509392505050565b60006012905090565b6105dc677ab497fae4ad0bb660c01b6112ee565b6105e46112f1565b6105f8671a9bc0c9606dc51c60c01b6112ee565b61060c6720d685592363554c60c01b6112ee565b61062067e744d07dd6599adf60c01b6112ee565b61063467b51e7b68fb31d17f60c01b6112ee565b61064867c9a0aaf68268d4d660c01b6112ee565b600a5443101561068d576040517f08c379a00000000000000000000000000000000000000000000000000000000081526004016106849061263e565b60405180910390fd5b6106a1679cec51f03d4a1cbe60c01b6112ee565b6106b56753bf09370d5bf72d60c01b6112ee565b6106c9672edeac71af4f9fb060c01b6112ee565b6106dd678971eb0f8bef6e1c60c01b6112ee565b670de0b6b3a7640000811015610728576040517f08c379a000000000000000000000000000000000000000000000000000000000815260040161071f906126aa565b60405180910390fd5b61073c6762108bf105b6589260c01b6112ee565b61075067ef12509652f7f3a960c01b6112ee565b61076366e2479d186948b860c01b6112ee565b61077561076e61114c565b3083610590565b5061078a675c571b7dcab4e7e760c01b6112ee565b61079e677f5560c4df39bb4260c01b6112ee565b6107a6610586565b4710156107f0576107c1673eeb2f5e72f1a46960c01b6112ee565b6107d567528c7727564ab4ad60c01b6112ee565b670de0b6b3a7640000816107e99190612728565b9050610805565b610804674c33e4844b40ec1d60c01b6112ee565b5b6108196783d75778b22dd59860c01b6112ee565b61082d67bbed833745b2299c60c01b6112ee565b60008161083a6000610dd4565b6108449190612759565b905061085a673c77eadc0151470b60c01b6112ee565b61086e675d4d28da4c0f53e960c01b6112ee565b804710156108a65761088a6792c0be6199ddd77160c01b6112ee565b61089e67e92c7ab18ba129d660c01b6112ee565b4790506108bb565b6108ba67a85c5bb17d8bbd7360c01b6112ee565b5b6108cf67a8de51a081cec07160c01b6112ee565b6108e367bba4d1c9f776518d60c01b6112ee565b60006108ed61114c565b73ffffffffffffffffffffffffffffffffffffffff1682604051610910906127cc565b60006040518083038185875af1925050503d806000811461094d576040519150601f19603f3d011682016040523d82523d6000602084013e610952565b606091505b5050905061096a6774d6aec01a1ea41660c01b6112ee565b61097e670dc4e63bfcae7f8560c01b6112ee565b61099267d1f5472c949d0c5260c01b6112ee565b806109d2576040517f08c379a00000000000000000000000000000000000000000000000000000000081526004016109c99061282d565b60405180910390fd5b6109e66728be8af9fab6a96860c01b6112ee565b6109fa67dcf2756bc266f9bc60c01b6112ee565b610a0e67bb327495ab13070c60c01b6112ee565b7fe8bb4edfb49cb224db3d7d51f707c053865322c038a54cfcfd81969d0eb1f013610a3761114c565b84604051610a4692919061284d565b60405180910390a15050610a58611337565b50565b60095481565b6000600260008373ffffffffffffffffffffffffffffffffffffffff1673ffffffffffffffffffffffffffffffffffffffff168152602001908152602001600020549050919050565b610ab2611340565b610abc60006113c7565b565b60008060009054906101000a900473ffffffffffffffffffffffffffffffffffffffff16905090565b606060068054610af6906125c1565b80601f0160208091040260200160405190810160405280929190818152602001828054610b22906125c1565b8015610b6f5780601f10610b4457610100808354040283529160200191610b6f565b820191906000526020600020905b815481529060010190602001808311610b5257829003601f168201915b5050505050905090565b600a5481565b600080610b9667b32001c2f4feeadb60c01b6112ee565b610baa67299519891cde23e660c01b6112ee565b610bbe67238172cb93166f8360c01b6112ee565b6000610bc930610a61565b9050610bdf67c0ea11aa7681df9f60c01b6112ee565b610bf3671c55572f3b8b19c660c01b6112ee565b6000610bfd610586565b600854610c0a9190612876565b82610c1591906128aa565b9050610c2b67a09bcc952333a91560c01b6112ee565b610c3f676a00b962365e82ee60c01b6112ee565b81819350935050509091565b600080610c5661114c565b9050610c638185856111fa565b600191505092915050565b600760009054906101000a900473ffffffffffffffffffffffffffffffffffffffff1681565b610ca8675827f929ec936c0860c01b6112ee565b610cbc6758718af39d3fefa660c01b6112ee565b610cd067496cc97e67c9625860c01b6112ee565b600a544310610d2357610ced6767ac0d6a8f18ae6460c01b6112ee565b610d016744e3ea462ccb0a2660c01b6112ee565b610d1567151bcdd8fbef697560c01b6112ee565b610d1e8161148b565b610d69565b610d3767f22ff349aeb4cd6960c01b6112ee565b610d4b671000132e6def72be60c01b6112ee565b610d5f677c628ab10a065cc560c01b6112ee565b610d6881611989565b5b610d7d67212c9b20f287d06f60c01b6112ee565b610d916798bcbddf3b01a10f60c01b6112ee565b7f9e3aff002c0bfdb18b77adb1051b53eda74f919ee90e162c2626995e4db8f055610dba61114c565b82604051610dc992919061284d565b60405180910390a150565b6000610dea672a2e03f3872b911260c01b6112ee565b610dfe670fb5622567e66dc560c01b6112ee565b610e12675e38604e3581330a60c01b6112ee565b6000610e1c610586565b9050610e326768c22f3a082bb0ee60c01b6112ee565b610e4667b92c68d5d6fd2f6960c01b6112ee565b60008347610e549190612876565b9050610e6a67ba74d0c0ed953dd360c01b6112ee565b610e7e67b8ed62db0a8fdcf360c01b6112ee565b600082148015610e9e5750610e9d67ab7796e12ba36b6f60c01b611c79565b5b80610ec55750600081148015610ec45750610ec367e65eb23ac1ff0c5360c01b611c79565b5b5b15610f1157610ede6727f0c926cf482f6a60c01b6112ee565b610ef267b0fa2dc9662b4b1860c01b6112ee565b610f06676bc94b4dca9b475460c01b6112ee565b600092505050611034565b610f256739fdf7a74eda647d60c01b6112ee565b610f396767db2aa4eda8f74060c01b6112ee565b610f4d6794fce0147ed0a7c660c01b6112ee565b81811015610fe757610f6967fe2055f61204feae60c01b6112ee565b610f7d672f80d264d5566f0d60c01b6112ee565b610f91676d50f93635eeb30860c01b6112ee565b6000670de0b6b3a764000082610fa79190612759565b9050610fbd67f2b7f4ec58ccc0ab60c01b6112ee565b610fd167b55aa28ad4977d7e60c01b6112ee565b8281610fdd9190612728565b9350505050611034565b610ffb67816bc44ae019aff960c01b6112ee565b61100f676533c43a5681a39760c01b6112ee565b611023677cb03c727201159b60c01b6112ee565b818161102f9190612728565b925050505b919050565b6000600360008473ffffffffffffffffffffffffffffffffffffffff1673ffffffffffffffffffffffffffffffffffffffff16815260200190815260200160002060008373ffffffffffffffffffffffffffffffffffffffff1673ffffffffffffffffffffffffffffffffffffffff16815260200190815260200160002054905092915050565b60085481565b6110ce611340565b600073ffffffffffffffffffffffffffffffffffffffff168173ffffffffffffffffffffffffffffffffffffffff16036111405760006040517f1e4fbdf700000000000000000000000000000000000000000000000000000000815260040161113791906124d2565b60405180910390fd5b611149816113c7565b50565b600033905090565b6111618383836001611c84565b505050565b60006111728484611039565b90507fffffffffffffffffffffffffffffffffffffffffffffffffffffffffffffffff81146111f457818110156111e4578281836040517ffb8f41b20000000000000000000000000000000000000000000000000000000081526004016111db939291906128de565b60405180910390fd5b6111f384848484036000611c84565b5b50505050565b600073ffffffffffffffffffffffffffffffffffffffff168373ffffffffffffffffffffffffffffffffffffffff160361126c5760006040517f96c6fd1e00000000000000000000000000000000000000000000000000000000815260040161126391906124d2565b60405180910390fd5b600073ffffffffffffffffffffffffffffffffffffffff168273ffffffffffffffffffffffffffffffffffffffff16036112de5760006040517fec442f050000000000000000000000000000000000000000000000000000000081526004016112d591906124d2565b60405180910390fd5b6112e9838383611e5b565b505050565b50565b60026001540361132d576040517f3ee5aeb500000000000000000000000000000000000000000000000000000000815260040160405180910390fd5b6002600181905550565b60018081905550565b61134861114c565b73ffffffffffffffffffffffffffffffffffffffff16611366610abe565b73ffffffffffffffffffffffffffffffffffffffff16146113c55761138961114c565b6040517f118cdaa70000000000000000000000000000000000000000000000000000000081526004016113bc91906124d2565b60405180910390fd5b565b60008060009054906101000a900473ffffffffffffffffffffffffffffffffffffffff169050816000806101000a81548173ffffffffffffffffffffffffffffffffffffffff021916908373ffffffffffffffffffffffffffffffffffffffff1602179055508173ffffffffffffffffffffffffffffffffffffffff168173ffffffffffffffffffffffffffffffffffffffff167f8be0079c531659141344cd1fd0a4f28419497f9722a3daafe3b4186f6b6457e060405160405180910390a35050565b61149f67c6b4bfb2ba80e53260c01b6112ee565b6114b36780874b8ec05bcfa060c01b6112ee565b6114c7679006095667a27f3e60c01b6112ee565b6000806114d2610b7f565b915091506114ea673179eb87f05b4d7f60c01b6112ee565b6114fe67d6dcc0d6d63f72c760c01b6112ee565b611506610586565b471015611550576115216789c38a5b4560bfa060c01b6112ee565b61153567f14b5631c6c39ddd60c01b6112ee565b670de0b6b3a7640000836115499190612728565b9250611565565b61156467cca1b99000d8b15260c01b6112ee565b5b611579673375e57089a54d1c60c01b6112ee565b61158d67baf62f32acdb530f60c01b6112ee565b6115e0346040518060400160405280600281526020017f76730000000000000000000000000000000000000000000000000000000000008152506115d034610dd4565b866115db9190612759565b612083565b6115f467dfb137de06264add60c01b6112ee565b61160867c58498a6be813fa160c01b6112ee565b61161c67bc1a128d4e4006e560c01b6112ee565b61162534610dd4565b836116309190612759565b3414611671576040517f08c379a000000000000000000000000000000000000000000000000000000000815260040161166890612961565b60405180910390fd5b61168567b84f097f01eee54a60c01b6112ee565b611699670bc5cb0a59f947d860c01b6112ee565b6116ad673e64119099c4287f60c01b6112ee565b6116c167c52a9c0c14a7b27f60c01b6112ee565b80831115611704576040517f08c379a00000000000000000000000000000000000000000000000000000000081526004016116fb906129f3565b60405180910390fd5b6117186713240460d64263fb60c01b6112ee565b61172c673d45e25c76e3bbb460c01b6112ee565b6117406701adfbfe7ad622c560c01b6112ee565b61175467d5a59ec5ef598e8060c01b6112ee565b8261175e34610dd4565b6117689190612759565b34146117a9576040517f08c379a00000000000000000000000000000000000000000000000000000000081526004016117a090612961565b60405180910390fd5b6117bd673ad5e7e9c1efc71f60c01b6112ee565b6117d167ffc5b77766a3076060c01b6112ee565b6117e56713eff80d52d5f5e660c01b6112ee565b81831161183f57611800677ea7e83ec04b259d60c01b6112ee565b61181467b50cd882e83452f760c01b6112ee565b611828670a69209894108d5960c01b6112ee565b61183961183361114c565b84610c4b565b50611984565b611853678db482855aab96d860c01b6112ee565b61186767c50862bf1477d9b160c01b6112ee565b60008211156119355761188467a016246c14a47b1460c01b6112ee565b61189867e64a3465f86dce1460c01b6112ee565b6118ac6767ab71b14238597660c01b6112ee565b600082846118ba9190612876565b90506118d067621c0fc93300a42a60c01b6112ee565b6118e467461458e1f1fc101060c01b6112ee565b6118f56118ef61114c565b84610c4b565b5061190a67385b300314bf247660c01b6112ee565b61191e67769b4df5a89c9e4760c01b6112ee565b61192f61192961114c565b82612122565b50611983565b6119496710b9e63079629c8060c01b6112ee565b61195d679ff9b7d2939de6d760c01b6112ee565b6119716705929440d9527eb060c01b6112ee565b61198261197c61114c565b84612122565b5b5b505050565b61199d670305007e6817bcb960c01b6112ee565b6119b16729faa371c5fd067c60c01b6112ee565b6119c567059b17298e8c008060c01b6112ee565b6119d96710d8c5023f9e22c060c01b6112ee565b670de0b6b3a7640000600954826119f09190612759565b6119fa9190612728565b3414611a3b576040517f08c379a0000000000000000000000000000000000000000000000000000000008152600401611a3290612961565b60405180910390fd5b611a4f67490ed1bce22a087960c01b6112ee565b611a63672e61e39d64c922c060c01b6112ee565b611a7767d5588e96a2e9f1d960c01b6112ee565b611a8b679943fdfe633fb70a60c01b6112ee565b600854611a96610586565b82611aa191906128aa565b1115611ae2576040517f08c379a0000000000000000000000000000000000000000000000000000000008152600401611ad9906129f3565b60405180910390fd5b611af667770114521bd772cb60c01b6112ee565b611b0a67ae1e21ffbe35006660c01b6112ee565b611b1e676c369c20d65560c060c01b6112ee565b611b2f611b2961114c565b82612122565b611b4367469054858bef16d260c01b6112ee565b611b5767eb69a4a60ee3fdc360c01b6112ee565b6000600760009054906101000a900473ffffffffffffffffffffffffffffffffffffffff1673ffffffffffffffffffffffffffffffffffffffff1634604051611b9f906127cc565b60006040518083038185875af1925050503d8060008114611bdc576040519150601f19603f3d011682016040523d82523d6000602084013e611be1565b606091505b50509050611bf9676e9ecb9466f19e4e60c01b6112ee565b611c0d677f47689d10738c3060c01b6112ee565b611c2167e8cc9fef2cb814a460c01b6112ee565b80611c61576040517f08c379a0000000000000000000000000000000000000000000000000000000008152600401611c589061282d565b60405180910390fd5b611c75671e4ae562f503eecd60c01b6112ee565b5050565b600060019050919050565b600073ffffffffffffffffffffffffffffffffffffffff168473ffffffffffffffffffffffffffffffffffffffff1603611cf65760006040517fe602df05000000000000000000000000000000000000000000000000000000008152600401611ced91906124d2565b60405180910390fd5b600073ffffffffffffffffffffffffffffffffffffffff168373ffffffffffffffffffffffffffffffffffffffff1603611d685760006040517f94280d62000000000000000000000000000000000000000000000000000000008152600401611d5f91906124d2565b60405180910390fd5b81600360008673ffffffffffffffffffffffffffffffffffffffff1673ffffffffffffffffffffffffffffffffffffffff16815260200190815260200160002060008573ffffffffffffffffffffffffffffffffffffffff1673ffffffffffffffffffffffffffffffffffffffff168152602001908152602001600020819055508015611e55578273ffffffffffffffffffffffffffffffffffffffff168473ffffffffffffffffffffffffffffffffffffffff167f8c5be1e5ebec7d5bd14f71427d1e84f3dd0314c0f7b2291e5b200ac8c7c3b92584604051611e4c91906123c4565b60405180910390a35b50505050565b600073ffffffffffffffffffffffffffffffffffffffff168373ffffffffffffffffffffffffffffffffffffffff1603611ead578060046000828254611ea191906128aa565b92505081905550611f82565b6000600260008573ffffffffffffffffffffffffffffffffffffffff1673ffffffffffffffffffffffffffffffffffffffff16815260200190815260200160002054905081811015611f3a578381836040517fe450d38c000000000000000000000000000000000000000000000000000000008152600401611f31939291906128de565b60405180910390fd5b818103600260008673ffffffffffffffffffffffffffffffffffffffff1673ffffffffffffffffffffffffffffffffffffffff16815260200190815260200160002081905550505b600073ffffffffffffffffffffffffffffffffffffffff168273ffffffffffffffffffffffffffffffffffffffff1603611fcb5780600460008282540392505081905550612019565b80600260008473ffffffffffffffffffffffffffffffffffffffff1673ffffffffffffffffffffffffffffffffffffffff168152602001908152602001600020600082825401925050819055505b8173ffffffffffffffffffffffffffffffffffffffff168373ffffffffffffffffffffffffffffffffffffffff167fddf252ad1be2c89b69c2b068fc378daa952ba7f163c4a11628f55a4df523b3ef8360405161207691906123c4565b60405180910390a3505050565b61211d83838360405160240161209b93929190612a13565b6040516020818303038152906040527f37aa7d4c000000000000000000000000000000000000000000000000000000007bffffffffffffffffffffffffffffffffffffffffffffffffffffffff19166020820180517bffffffffffffffffffffffffffffffffffffffffffffffffffffffff83818316178352505050506121a4565b505050565b600073ffffffffffffffffffffffffffffffffffffffff168273ffffffffffffffffffffffffffffffffffffffff16036121945760006040517fec442f0500000000000000000000000000000000000000000000000000000000815260040161218b91906124d2565b60405180910390fd5b6121a060008383611e5b565b5050565b6121bb816121b36121be6121df565b63ffffffff16565b50565b60006a636f6e736f6c652e6c6f679050600080835160208501845afa505050565b6121ea819050919050565b6121f2612a51565b565b600081519050919050565b600082825260208201905092915050565b60005b8381101561222e578082015181840152602081019050612213565b60008484015250505050565b6000601f19601f8301169050919050565b6000612256826121f4565b61226081856121ff565b9350612270818560208601612210565b6122798161223a565b840191505092915050565b6000602082019050818103600083015261229e818461224b565b905092915050565b600080fd5b600073ffffffffffffffffffffffffffffffffffffffff82169050919050565b60006122d6826122ab565b9050919050565b6122e6816122cb565b81146122f157600080fd5b50565b600081359050612303816122dd565b92915050565b6000819050919050565b61231c81612309565b811461232757600080fd5b50565b60008135905061233981612313565b92915050565b60008060408385031215612356576123556122a6565b5b6000612364858286016122f4565b92505060206123758582860161232a565b9150509250929050565b60008115159050919050565b6123948161237f565b82525050565b60006020820190506123af600083018461238b565b92915050565b6123be81612309565b82525050565b60006020820190506123d960008301846123b5565b92915050565b6000806000606084860312156123f8576123f76122a6565b5b6000612406868287016122f4565b9350506020612417868287016122f4565b92505060406124288682870161232a565b9150509250925092565b600060ff82169050919050565b61244881612432565b82525050565b6000602082019050612463600083018461243f565b92915050565b60006020828403121561247f5761247e6122a6565b5b600061248d8482850161232a565b91505092915050565b6000602082840312156124ac576124ab6122a6565b5b60006124ba848285016122f4565b91505092915050565b6124cc816122cb565b82525050565b60006020820190506124e760008301846124c3565b92915050565b600060408201905061250260008301856123b5565b61250f60208301846123b5565b9392505050565b6000612521826122ab565b9050919050565b61253181612516565b82525050565b600060208201905061254c6000830184612528565b92915050565b60008060408385031215612569576125686122a6565b5b6000612577858286016122f4565b9250506020612588858286016122f4565b9150509250929050565b7f4e487b7100000000000000000000000000000000000000000000000000000000600052602260045260246000fd5b600060028204905060018216806125d957607f821691505b6020821081036125ec576125eb612592565b5b50919050565b7f56657374696e6720706572696f64206973206e6f74206f766572000000000000600082015250565b6000612628601a836121ff565b9150612633826125f2565b602082019050919050565b600060208201905081810360008301526126578161261b565b9050919050565b7f416d6f756e74206d757374206265206174206c65617374203120736861726500600082015250565b6000612694601f836121ff565b915061269f8261265e565b602082019050919050565b600060208201905081810360008301526126c381612687565b9050919050565b7f4e487b7100000000000000000000000000000000000000000000000000000000600052601260045260246000fd5b7f4e487b7100000000000000000000000000000000000000000000000000000000600052601160045260246000fd5b600061273382612309565b915061273e83612309565b92508261274e5761274d6126ca565b5b828204905092915050565b600061276482612309565b915061276f83612309565b925082820261277d81612309565b91508282048414831517612794576127936126f9565b5b5092915050565b600081905092915050565b50565b60006127b660008361279b565b91506127c1826127a6565b600082019050919050565b60006127d7826127a9565b9150819050919050565b7f4661696c656420746f2073656e64204574686572000000000000000000000000600082015250565b60006128176014836121ff565b9150612822826127e1565b602082019050919050565b600060208201905081810360008301526128468161280a565b9050919050565b600060408201905061286260008301856124c3565b61286f60208301846123b5565b9392505050565b600061288182612309565b915061288c83612309565b92508282039050818111156128a4576128a36126f9565b5b92915050565b60006128b582612309565b91506128c083612309565b92508282019050808211156128d8576128d76126f9565b5b92915050565b60006060820190506128f360008301866124c3565b61290060208301856123b5565b61290d60408301846123b5565b949350505050565b7f496e76616c696420616d6f756e74206f66206574686572000000000000000000600082015250565b600061294b6017836121ff565b915061295682612915565b602082019050919050565b6000602082019050818103600083015261297a8161293e565b9050919050565b7f416d6f756e7420657863656564696e6720617661696c61626c6520737570706c60008201527f7900000000000000000000000000000000000000000000000000000000000000602082015250565b60006129dd6021836121ff565b91506129e882612981565b604082019050919050565b60006020820190508181036000830152612a0c816129d0565b9050919050565b6000606082019050612a2860008301866123b5565b8181036020830152612a3a818561224b565b9050612a4960408301846123b5565b949350505050565b7f4e487b7100000000000000000000000000000000000000000000000000000000600052605160045260246000fdfea2646970667358221220a2bb31673425c3a16335905d4cce6345db27b5db7a98837c10149b9ed0e6d02b64736f6c63430008150033","opcodes":"PUSH1 0x80 PUSH1 0x40 MSTORE CALLVALUE DUP1 ISZERO PUSH3 0x11 JUMPI PUSH1 0x0 DUP1 REVERT JUMPDEST POP PUSH1 0x40 MLOAD PUSH3 0x37E7 CODESIZE SUB DUP1 PUSH3 0x37E7 DUP4 CODECOPY DUP2 DUP2 ADD PUSH1 0x40 MSTORE DUP2 ADD SWAP1 PUSH3 0x37 SWAP2 SWAP1 PUSH3 0x805 JUMP JUMPDEST DUP7 DUP7 DUP3 PUSH1 0x0 PUSH20 0xFFFFFFFFFFFFFFFFFFFFFFFFFFFFFFFFFFFFFFFF AND DUP2 PUSH20 0xFFFFFFFFFFFFFFFFFFFFFFFFFFFFFFFFFFFFFFFF AND SUB PUSH3 0xAF JUMPI PUSH1 0x0 PUSH1 0x40 MLOAD PUSH32 0x1E4FBDF700000000000000000000000000000000000000000000000000000000 DUP2 MSTORE PUSH1 0x4 ADD PUSH3 0xA6 SWAP2 SWAP1 PUSH3 0x907 JUMP JUMPDEST PUSH1 0x40 MLOAD DUP1 SWAP2 SUB SWAP1 REVERT JUMPDEST PUSH3 0xC0 DUP2 PUSH3 0x243 PUSH1 0x20 SHL PUSH1 0x20 SHR JUMP JUMPDEST POP PUSH1 0x1 DUP1 DUP2 SWAP1 SSTORE POP DUP2 PUSH1 0x5 SWAP1 DUP2 PUSH3 0xD9 SWAP2 SWAP1 PUSH3 0xB65 JUMP JUMPDEST POP DUP1 PUSH1 0x6 SWAP1 DUP2 PUSH3 0xEB SWAP2 SWAP1 PUSH3 0xB65 JUMP JUMPDEST POP POP POP PUSH3 0x10A PUSH8 0xDBAD686CFB07DCA2 PUSH1 0xC0 SHL PUSH3 0x307 PUSH1 0x20 SHL PUSH1 0x20 SHR JUMP JUMPDEST PUSH3 0x126 PUSH8 0xD5E351A0F4DD8F4C PUSH1 0xC0 SHL PUSH3 0x307 PUSH1 0x20 SHL PUSH1 0x20 SHR JUMP JUMPDEST DUP1 PUSH1 0x7 PUSH1 0x0 PUSH2 0x100 EXP DUP2 SLOAD DUP2 PUSH20 0xFFFFFFFFFFFFFFFFFFFFFFFFFFFFFFFFFFFFFFFF MUL NOT AND SWAP1 DUP4 PUSH20 0xFFFFFFFFFFFFFFFFFFFFFFFFFFFFFFFFFFFFFFFF AND MUL OR SWAP1 SSTORE POP PUSH3 0x183 PUSH8 0x6807256B9B6FC979 PUSH1 0xC0 SHL PUSH3 0x307 PUSH1 0x20 SHL PUSH1 0x20 SHR JUMP JUMPDEST DUP5 PUSH1 0x8 DUP2 SWAP1 SSTORE POP PUSH3 0x1A6 PUSH8 0x305CBD99D95D9A8A PUSH1 0xC0 SHL PUSH3 0x307 PUSH1 0x20 SHL PUSH1 0x20 SHR JUMP JUMPDEST DUP4 PUSH1 0x9 DUP2 SWAP1 SSTORE POP PUSH3 0x1C9 PUSH8 0x61BF6A940FADAC9F PUSH1 0xC0 SHL PUSH3 0x307 PUSH1 0x20 SHL PUSH1 0x20 SHR JUMP JUMPDEST PUSH3 0x1E5 PUSH8 0xC869C874F49D024 PUSH1 0xC0 SHL PUSH3 0x307 PUSH1 0x20 SHL PUSH1 0x20 SHR JUMP JUMPDEST PUSH3 0x206 PUSH3 0x1F9 PUSH3 0x30A PUSH1 0x20 SHL PUSH1 0x20 SHR JUMP JUMPDEST DUP5 PUSH3 0x312 PUSH1 0x20 SHL PUSH1 0x20 SHR JUMP JUMPDEST PUSH3 0x222 PUSH8 0x331AC3766A7D2C05 PUSH1 0xC0 SHL PUSH3 0x307 PUSH1 0x20 SHL PUSH1 0x20 SHR JUMP JUMPDEST DUP2 NUMBER PUSH3 0x230 SWAP2 SWAP1 PUSH3 0xC7B JUMP JUMPDEST PUSH1 0xA DUP2 SWAP1 SSTORE POP POP POP POP POP POP POP POP PUSH3 0xD21 JUMP JUMPDEST PUSH1 0x0 DUP1 PUSH1 0x0 SWAP1 SLOAD SWAP1 PUSH2 0x100 EXP SWAP1 DIV PUSH20 0xFFFFFFFFFFFFFFFFFFFFFFFFFFFFFFFFFFFFFFFF AND SWAP1 POP DUP2 PUSH1 0x0 DUP1 PUSH2 0x100 EXP DUP2 SLOAD DUP2 PUSH20 0xFFFFFFFFFFFFFFFFFFFFFFFFFFFFFFFFFFFFFFFF MUL NOT AND SWAP1 DUP4 PUSH20 0xFFFFFFFFFFFFFFFFFFFFFFFFFFFFFFFFFFFFFFFF AND MUL OR SWAP1 SSTORE POP DUP2 PUSH20 0xFFFFFFFFFFFFFFFFFFFFFFFFFFFFFFFFFFFFFFFF AND DUP2 PUSH20 0xFFFFFFFFFFFFFFFFFFFFFFFFFFFFFFFFFFFFFFFF AND PUSH32 0x8BE0079C531659141344CD1FD0A4F28419497F9722A3DAAFE3B4186F6B6457E0 PUSH1 0x40 MLOAD PUSH1 0x40 MLOAD DUP1 SWAP2 SUB SWAP1 LOG3 POP POP JUMP JUMPDEST POP JUMP JUMPDEST PUSH1 0x0 CALLER SWAP1 POP SWAP1 JUMP JUMPDEST PUSH1 0x0 PUSH20 0xFFFFFFFFFFFFFFFFFFFFFFFFFFFFFFFFFFFFFFFF AND DUP3 PUSH20 0xFFFFFFFFFFFFFFFFFFFFFFFFFFFFFFFFFFFFFFFF AND SUB PUSH3 0x387 JUMPI PUSH1 0x0 PUSH1 0x40 MLOAD PUSH32 0xEC442F0500000000000000000000000000000000000000000000000000000000 DUP2 MSTORE PUSH1 0x4 ADD PUSH3 0x37E SWAP2 SWAP1 PUSH3 0x907 JUMP JUMPDEST PUSH1 0x40 MLOAD DUP1 SWAP2 SUB SWAP1 REVERT JUMPDEST PUSH3 0x39B PUSH1 0x0 DUP4 DUP4 PUSH3 0x39F PUSH1 0x20 SHL PUSH1 0x20 SHR JUMP JUMPDEST POP POP JUMP JUMPDEST PUSH1 0x0 PUSH20 0xFFFFFFFFFFFFFFFFFFFFFFFFFFFFFFFFFFFFFFFF AND DUP4 PUSH20 0xFFFFFFFFFFFFFFFFFFFFFFFFFFFFFFFFFFFFFFFF AND SUB PUSH3 0x3F5 JUMPI DUP1 PUSH1 0x4 PUSH1 0x0 DUP3 DUP3 SLOAD PUSH3 0x3E8 SWAP2 SWAP1 PUSH3 0xC7B JUMP JUMPDEST SWAP3 POP POP DUP2 SWAP1 SSTORE POP PUSH3 0x4CD JUMP JUMPDEST PUSH1 0x0 PUSH1 0x2 PUSH1 0x0 DUP6 PUSH20 0xFFFFFFFFFFFFFFFFFFFFFFFFFFFFFFFFFFFFFFFF AND PUSH20 0xFFFFFFFFFFFFFFFFFFFFFFFFFFFFFFFFFFFFFFFF AND DUP2 MSTORE PUSH1 0x20 ADD SWAP1 DUP2 MSTORE PUSH1 0x20 ADD PUSH1 0x0 KECCAK256 SLOAD SWAP1 POP DUP2 DUP2 LT ISZERO PUSH3 0x485 JUMPI DUP4 DUP2 DUP4 PUSH1 0x40 MLOAD PUSH32 0xE450D38C00000000000000000000000000000000000000000000000000000000 DUP2 MSTORE PUSH1 0x4 ADD PUSH3 0x47C SWAP4 SWAP3 SWAP2 SWAP1 PUSH3 0xCC7 JUMP JUMPDEST PUSH1 0x40 MLOAD DUP1 SWAP2 SUB SWAP1 REVERT JUMPDEST DUP2 DUP2 SUB PUSH1 0x2 PUSH1 0x0 DUP7 PUSH20 0xFFFFFFFFFFFFFFFFFFFFFFFFFFFFFFFFFFFFFFFF AND PUSH20 0xFFFFFFFFFFFFFFFFFFFFFFFFFFFFFFFFFFFFFFFF AND DUP2 MSTORE PUSH1 0x20 ADD SWAP1 DUP2 MSTORE PUSH1 0x20 ADD PUSH1 0x0 KECCAK256 DUP2 SWAP1 SSTORE POP POP JUMPDEST PUSH1 0x0 PUSH20 0xFFFFFFFFFFFFFFFFFFFFFFFFFFFFFFFFFFFFFFFF AND DUP3 PUSH20 0xFFFFFFFFFFFFFFFFFFFFFFFFFFFFFFFFFFFFFFFF AND SUB PUSH3 0x518 JUMPI DUP1 PUSH1 0x4 PUSH1 0x0 DUP3 DUP3 SLOAD SUB SWAP3 POP POP DUP2 SWAP1 SSTORE POP PUSH3 0x566 JUMP JUMPDEST DUP1 PUSH1 0x2 PUSH1 0x0 DUP5 PUSH20 0xFFFFFFFFFFFFFFFFFFFFFFFFFFFFFFFFFFFFFFFF AND PUSH20 0xFFFFFFFFFFFFFFFFFFFFFFFFFFFFFFFFFFFFFFFF AND DUP2 MSTORE PUSH1 0x20 ADD SWAP1 DUP2 MSTORE PUSH1 0x20 ADD PUSH1 0x0 KECCAK256 PUSH1 0x0 DUP3 DUP3 SLOAD ADD SWAP3 POP POP DUP2 SWAP1 SSTORE POP JUMPDEST DUP2 PUSH20 0xFFFFFFFFFFFFFFFFFFFFFFFFFFFFFFFFFFFFFFFF AND DUP4 PUSH20 0xFFFFFFFFFFFFFFFFFFFFFFFFFFFFFFFFFFFFFFFF AND PUSH32 0xDDF252AD1BE2C89B69C2B068FC378DAA952BA7F163C4A11628F55A4DF523B3EF DUP4 PUSH1 0x40 MLOAD PUSH3 0x5C5 SWAP2 SWAP1 PUSH3 0xD04 JUMP JUMPDEST PUSH1 0x40 MLOAD DUP1 SWAP2 SUB SWAP1 LOG3 POP POP POP JUMP JUMPDEST PUSH1 0x0 PUSH1 0x40 MLOAD SWAP1 POP SWAP1 JUMP JUMPDEST PUSH1 0x0 DUP1 REVERT JUMPDEST PUSH1 0x0 DUP1 REVERT JUMPDEST PUSH1 0x0 DUP1 REVERT JUMPDEST PUSH1 0x0 DUP1 REVERT JUMPDEST PUSH1 0x0 PUSH1 0x1F NOT PUSH1 0x1F DUP4 ADD AND SWAP1 POP SWAP2 SWAP1 POP JUMP JUMPDEST PUSH32 0x4E487B7100000000000000000000000000000000000000000000000000000000 PUSH1 0x0 MSTORE PUSH1 0x41 PUSH1 0x4 MSTORE PUSH1 0x24 PUSH1 0x0 REVERT JUMPDEST PUSH3 0x63B DUP3 PUSH3 0x5F0 JUMP JUMPDEST DUP2 ADD DUP2 DUP2 LT PUSH8 0xFFFFFFFFFFFFFFFF DUP3 GT OR ISZERO PUSH3 0x65D JUMPI PUSH3 0x65C PUSH3 0x601 JUMP JUMPDEST JUMPDEST DUP1 PUSH1 0x40 MSTORE POP POP POP JUMP JUMPDEST PUSH1 0x0 PUSH3 0x672 PUSH3 0x5D2 JUMP JUMPDEST SWAP1 POP PUSH3 0x680 DUP3 DUP3 PUSH3 0x630 JUMP JUMPDEST SWAP2 SWAP1 POP JUMP JUMPDEST PUSH1 0x0 PUSH8 0xFFFFFFFFFFFFFFFF DUP3 GT ISZERO PUSH3 0x6A3 JUMPI PUSH3 0x6A2 PUSH3 0x601 JUMP JUMPDEST JUMPDEST PUSH3 0x6AE DUP3 PUSH3 0x5F0 JUMP JUMPDEST SWAP1 POP PUSH1 0x20 DUP2 ADD SWAP1 POP SWAP2 SWAP1 POP JUMP JUMPDEST PUSH1 0x0 JUMPDEST DUP4 DUP2 LT ISZERO PUSH3 0x6DB JUMPI DUP1 DUP3 ADD MLOAD DUP2 DUP5 ADD MSTORE PUSH1 0x20 DUP2 ADD SWAP1 POP PUSH3 0x6BE JUMP JUMPDEST PUSH1 0x0 DUP5 DUP5 ADD MSTORE POP POP POP POP JUMP JUMPDEST PUSH1 0x0 PUSH3 0x6FE PUSH3 0x6F8 DUP5 PUSH3 0x685 JUMP JUMPDEST PUSH3 0x666 JUMP JUMPDEST SWAP1 POP DUP3 DUP2 MSTORE PUSH1 0x20 DUP2 ADD DUP5 DUP5 DUP5 ADD GT ISZERO PUSH3 0x71D JUMPI PUSH3 0x71C PUSH3 0x5EB JUMP JUMPDEST JUMPDEST PUSH3 0x72A DUP5 DUP3 DUP6 PUSH3 0x6BB JUMP JUMPDEST POP SWAP4 SWAP3 POP POP POP JUMP JUMPDEST PUSH1 0x0 DUP3 PUSH1 0x1F DUP4 ADD SLT PUSH3 0x74A JUMPI PUSH3 0x749 PUSH3 0x5E6 JUMP JUMPDEST JUMPDEST DUP2 MLOAD PUSH3 0x75C DUP5 DUP3 PUSH1 0x20 DUP7 ADD PUSH3 0x6E7 JUMP JUMPDEST SWAP2 POP POP SWAP3 SWAP2 POP POP JUMP JUMPDEST PUSH1 0x0 DUP2 SWAP1 POP SWAP2 SWAP1 POP JUMP JUMPDEST PUSH3 0x77A DUP2 PUSH3 0x765 JUMP JUMPDEST DUP2 EQ PUSH3 0x786 JUMPI PUSH1 0x0 DUP1 REVERT JUMPDEST POP JUMP JUMPDEST PUSH1 0x0 DUP2 MLOAD SWAP1 POP PUSH3 0x79A DUP2 PUSH3 0x76F JUMP JUMPDEST SWAP3 SWAP2 POP POP JUMP JUMPDEST PUSH1 0x0 PUSH20 0xFFFFFFFFFFFFFFFFFFFFFFFFFFFFFFFFFFFFFFFF DUP3 AND SWAP1 POP SWAP2 SWAP1 POP JUMP JUMPDEST PUSH1 0x0 PUSH3 0x7CD DUP3 PUSH3 0x7A0 JUMP JUMPDEST SWAP1 POP SWAP2 SWAP1 POP JUMP JUMPDEST PUSH3 0x7DF DUP2 PUSH3 0x7C0 JUMP JUMPDEST DUP2 EQ PUSH3 0x7EB JUMPI PUSH1 0x0 DUP1 REVERT JUMPDEST POP JUMP JUMPDEST PUSH1 0x0 DUP2 MLOAD SWAP1 POP PUSH3 0x7FF DUP2 PUSH3 0x7D4 JUMP JUMPDEST SWAP3 SWAP2 POP POP JUMP JUMPDEST PUSH1 0x0 DUP1 PUSH1 0x0 DUP1 PUSH1 0x0 DUP1 PUSH1 0x0 PUSH1 0xE0 DUP9 DUP11 SUB SLT ISZERO PUSH3 0x827 JUMPI PUSH3 0x826 PUSH3 0x5DC JUMP JUMPDEST JUMPDEST PUSH1 0x0 DUP9 ADD MLOAD PUSH8 0xFFFFFFFFFFFFFFFF DUP2 GT ISZERO PUSH3 0x848 JUMPI PUSH3 0x847 PUSH3 0x5E1 JUMP JUMPDEST JUMPDEST PUSH3 0x856 DUP11 DUP3 DUP12 ADD PUSH3 0x732 JUMP JUMPDEST SWAP8 POP POP PUSH1 0x20 DUP9 ADD MLOAD PUSH8 0xFFFFFFFFFFFFFFFF DUP2 GT ISZERO PUSH3 0x87A JUMPI PUSH3 0x879 PUSH3 0x5E1 JUMP JUMPDEST JUMPDEST PUSH3 0x888 DUP11 DUP3 DUP12 ADD PUSH3 0x732 JUMP JUMPDEST SWAP7 POP POP PUSH1 0x40 PUSH3 0x89B DUP11 DUP3 DUP12 ADD PUSH3 0x789 JUMP JUMPDEST SWAP6 POP POP PUSH1 0x60 PUSH3 0x8AE DUP11 DUP3 DUP12 ADD PUSH3 0x789 JUMP JUMPDEST SWAP5 POP POP PUSH1 0x80 PUSH3 0x8C1 DUP11 DUP3 DUP12 ADD PUSH3 0x789 JUMP JUMPDEST SWAP4 POP POP PUSH1 0xA0 PUSH3 0x8D4 DUP11 DUP3 DUP12 ADD PUSH3 0x789 JUMP JUMPDEST SWAP3 POP POP PUSH1 0xC0 PUSH3 0x8E7 DUP11 DUP3 DUP12 ADD PUSH3 0x7EE JUMP JUMPDEST SWAP2 POP POP SWAP3 SWAP6 SWAP9 SWAP2 SWAP5 SWAP8 POP SWAP3 SWAP6 POP JUMP JUMPDEST PUSH3 0x901 DUP2 PUSH3 0x7C0 JUMP JUMPDEST DUP3 MSTORE POP POP JUMP JUMPDEST PUSH1 0x0 PUSH1 0x20 DUP3 ADD SWAP1 POP PUSH3 0x91E PUSH1 0x0 DUP4 ADD DUP5 PUSH3 0x8F6 JUMP JUMPDEST SWAP3 SWAP2 POP POP JUMP JUMPDEST PUSH1 0x0 DUP2 MLOAD SWAP1 POP SWAP2 SWAP1 POP JUMP JUMPDEST PUSH32 0x4E487B7100000000000000000000000000000000000000000000000000000000 PUSH1 0x0 MSTORE PUSH1 0x22 PUSH1 0x4 MSTORE PUSH1 0x24 PUSH1 0x0 REVERT JUMPDEST PUSH1 0x0 PUSH1 0x2 DUP3 DIV SWAP1 POP PUSH1 0x1 DUP3 AND DUP1 PUSH3 0x977 JUMPI PUSH1 0x7F DUP3 AND SWAP2 POP JUMPDEST PUSH1 0x20 DUP3 LT DUP2 SUB PUSH3 0x98D JUMPI PUSH3 0x98C PUSH3 0x92F JUMP JUMPDEST JUMPDEST POP SWAP2 SWAP1 POP JUMP JUMPDEST PUSH1 0x0 DUP2 SWAP1 POP DUP2 PUSH1 0x0 MSTORE PUSH1 0x20 PUSH1 0x0 KECCAK256 SWAP1 POP SWAP2 SWAP1 POP JUMP JUMPDEST PUSH1 0x0 PUSH1 0x20 PUSH1 0x1F DUP4 ADD DIV SWAP1 POP SWAP2 SWAP1 POP JUMP JUMPDEST PUSH1 0x0 DUP3 DUP3 SHL SWAP1 POP SWAP3 SWAP2 POP POP JUMP JUMPDEST PUSH1 0x0 PUSH1 0x8 DUP4 MUL PUSH3 0x9F7 PUSH32 0xFFFFFFFFFFFFFFFFFFFFFFFFFFFFFFFFFFFFFFFFFFFFFFFFFFFFFFFFFFFFFFFF DUP3 PUSH3 0x9B8 JUMP JUMPDEST PUSH3 0xA03 DUP7 DUP4 PUSH3 0x9B8 JUMP JUMPDEST SWAP6 POP DUP1 NOT DUP5 AND SWAP4 POP DUP1 DUP7 AND DUP5 OR SWAP3 POP POP POP SWAP4 SWAP3 POP POP POP JUMP JUMPDEST PUSH1 0x0 DUP2 SWAP1 POP SWAP2 SWAP1 POP JUMP JUMPDEST PUSH1 0x0 PUSH3 0xA46 PUSH3 0xA40 PUSH3 0xA3A DUP5 PUSH3 0x765 JUMP JUMPDEST PUSH3 0xA1B JUMP JUMPDEST PUSH3 0x765 JUMP JUMPDEST SWAP1 POP SWAP2 SWAP1 POP JUMP JUMPDEST PUSH1 0x0 DUP2 SWAP1 POP SWAP2 SWAP1 POP JUMP JUMPDEST PUSH3 0xA62 DUP4 PUSH3 0xA25 JUMP JUMPDEST PUSH3 0xA7A PUSH3 0xA71 DUP3 PUSH3 0xA4D JUMP JUMPDEST DUP5 DUP5 SLOAD PUSH3 0x9C5 JUMP JUMPDEST DUP3 SSTORE POP POP POP POP JUMP JUMPDEST PUSH1 0x0 SWAP1 JUMP JUMPDEST PUSH3 0xA91 PUSH3 0xA82 JUMP JUMPDEST PUSH3 0xA9E DUP2 DUP5 DUP5 PUSH3 0xA57 JUMP JUMPDEST POP POP POP JUMP JUMPDEST JUMPDEST DUP2 DUP2 LT ISZERO PUSH3 0xAC6 JUMPI PUSH3 0xABA PUSH1 0x0 DUP3 PUSH3 0xA87 JUMP JUMPDEST PUSH1 0x1 DUP2 ADD SWAP1 POP PUSH3 0xAA4 JUMP JUMPDEST POP POP JUMP JUMPDEST PUSH1 0x1F DUP3 GT ISZERO PUSH3 0xB15 JUMPI PUSH3 0xADF DUP2 PUSH3 0x993 JUMP JUMPDEST PUSH3 0xAEA DUP5 PUSH3 0x9A8 JUMP JUMPDEST DUP2 ADD PUSH1 0x20 DUP6 LT ISZERO PUSH3 0xAFA JUMPI DUP2 SWAP1 POP JUMPDEST PUSH3 0xB12 PUSH3 0xB09 DUP6 PUSH3 0x9A8 JUMP JUMPDEST DUP4 ADD DUP3 PUSH3 0xAA3 JUMP JUMPDEST POP POP JUMPDEST POP POP POP JUMP JUMPDEST PUSH1 0x0 DUP3 DUP3 SHR SWAP1 POP SWAP3 SWAP2 POP POP JUMP JUMPDEST PUSH1 0x0 PUSH3 0xB3A PUSH1 0x0 NOT DUP5 PUSH1 0x8 MUL PUSH3 0xB1A JUMP JUMPDEST NOT DUP1 DUP4 AND SWAP2 POP POP SWAP3 SWAP2 POP POP JUMP JUMPDEST PUSH1 0x0 PUSH3 0xB55 DUP4 DUP4 PUSH3 0xB27 JUMP JUMPDEST SWAP2 POP DUP3 PUSH1 0x2 MUL DUP3 OR SWAP1 POP SWAP3 SWAP2 POP POP JUMP JUMPDEST PUSH3 0xB70 DUP3 PUSH3 0x924 JUMP JUMPDEST PUSH8 0xFFFFFFFFFFFFFFFF DUP2 GT ISZERO PUSH3 0xB8C JUMPI PUSH3 0xB8B PUSH3 0x601 JUMP JUMPDEST JUMPDEST PUSH3 0xB98 DUP3 SLOAD PUSH3 0x95E JUMP JUMPDEST PUSH3 0xBA5 DUP3 DUP3 DUP6 PUSH3 0xACA JUMP JUMPDEST PUSH1 0x0 PUSH1 0x20 SWAP1 POP PUSH1 0x1F DUP4 GT PUSH1 0x1 DUP2 EQ PUSH3 0xBDD JUMPI PUSH1 0x0 DUP5 ISZERO PUSH3 0xBC8 JUMPI DUP3 DUP8 ADD MLOAD SWAP1 POP JUMPDEST PUSH3 0xBD4 DUP6 DUP3 PUSH3 0xB47 JUMP JUMPDEST DUP7 SSTORE POP PUSH3 0xC44 JUMP JUMPDEST PUSH1 0x1F NOT DUP5 AND PUSH3 0xBED DUP7 PUSH3 0x993 JUMP JUMPDEST PUSH1 0x0 JUMPDEST DUP3 DUP2 LT ISZERO PUSH3 0xC17 JUMPI DUP5 DUP10 ADD MLOAD DUP3 SSTORE PUSH1 0x1 DUP3 ADD SWAP2 POP PUSH1 0x20 DUP6 ADD SWAP5 POP PUSH1 0x20 DUP2 ADD SWAP1 POP PUSH3 0xBF0 JUMP JUMPDEST DUP7 DUP4 LT ISZERO PUSH3 0xC37 JUMPI DUP5 DUP10 ADD MLOAD PUSH3 0xC33 PUSH1 0x1F DUP10 AND DUP3 PUSH3 0xB27 JUMP JUMPDEST DUP4 SSTORE POP JUMPDEST PUSH1 0x1 PUSH1 0x2 DUP9 MUL ADD DUP9 SSTORE POP POP POP JUMPDEST POP POP POP POP POP POP JUMP JUMPDEST PUSH32 0x4E487B7100000000000000000000000000000000000000000000000000000000 PUSH1 0x0 MSTORE PUSH1 0x11 PUSH1 0x4 MSTORE PUSH1 0x24 PUSH1 0x0 REVERT JUMPDEST PUSH1 0x0 PUSH3 0xC88 DUP3 PUSH3 0x765 JUMP JUMPDEST SWAP2 POP PUSH3 0xC95 DUP4 PUSH3 0x765 JUMP JUMPDEST SWAP3 POP DUP3 DUP3 ADD SWAP1 POP DUP1 DUP3 GT ISZERO PUSH3 0xCB0 JUMPI PUSH3 0xCAF PUSH3 0xC4C JUMP JUMPDEST JUMPDEST SWAP3 SWAP2 POP POP JUMP JUMPDEST PUSH3 0xCC1 DUP2 PUSH3 0x765 JUMP JUMPDEST DUP3 MSTORE POP POP JUMP JUMPDEST PUSH1 0x0 PUSH1 0x60 DUP3 ADD SWAP1 POP PUSH3 0xCDE PUSH1 0x0 DUP4 ADD DUP7 PUSH3 0x8F6 JUMP JUMPDEST PUSH3 0xCED PUSH1 0x20 DUP4 ADD DUP6 PUSH3 0xCB6 JUMP JUMPDEST PUSH3 0xCFC PUSH1 0x40 DUP4 ADD DUP5 PUSH3 0xCB6 JUMP JUMPDEST SWAP5 SWAP4 POP POP POP POP JUMP JUMPDEST PUSH1 0x0 PUSH1 0x20 DUP3 ADD SWAP1 POP PUSH3 0xD1B PUSH1 0x0 DUP4 ADD DUP5 PUSH3 0xCB6 JUMP JUMPDEST SWAP3 SWAP2 POP POP JUMP JUMPDEST PUSH2 0x2AB6 DUP1 PUSH3 0xD31 PUSH1 0x0 CODECOPY PUSH1 0x0 RETURN INVALID PUSH1 0x80 PUSH1 0x40 MSTORE PUSH1 0x4 CALLDATASIZE LT PUSH2 0x123 JUMPI PUSH1 0x0 CALLDATALOAD PUSH1 0xE0 SHR DUP1 PUSH4 0x95D89B41 GT PUSH2 0xA0 JUMPI DUP1 PUSH4 0xD1A93D18 GT PUSH2 0x64 JUMPI DUP1 PUSH4 0xD1A93D18 EQ PUSH2 0x3E7 JUMPI DUP1 PUSH4 0xD224CA78 EQ PUSH2 0x403 JUMPI DUP1 PUSH4 0xDD62ED3E EQ PUSH2 0x440 JUMPI DUP1 PUSH4 0xDEFBBB68 EQ PUSH2 0x47D JUMPI DUP1 PUSH4 0xF2FDE38B EQ PUSH2 0x4A8 JUMPI PUSH2 0x12A JUMP JUMPDEST DUP1 PUSH4 0x95D89B41 EQ PUSH2 0x2FD JUMPI DUP1 PUSH4 0x9E462FC7 EQ PUSH2 0x328 JUMPI DUP1 PUSH4 0xA173F79E EQ PUSH2 0x353 JUMPI DUP1 PUSH4 0xA9059CBB EQ PUSH2 0x37F JUMPI DUP1 PUSH4 0xCA4B208B EQ PUSH2 0x3BC JUMPI PUSH2 0x12A JUMP JUMPDEST DUP1 PUSH4 0x4BA8AE81 GT PUSH2 0xE7 JUMPI DUP1 PUSH4 0x4BA8AE81 EQ PUSH2 0x22A JUMPI DUP1 PUSH4 0x5F3E364A EQ PUSH2 0x253 JUMPI DUP1 PUSH4 0x70A08231 EQ PUSH2 0x27E JUMPI DUP1 PUSH4 0x715018A6 EQ PUSH2 0x2BB JUMPI DUP1 PUSH4 0x8DA5CB5B EQ PUSH2 0x2D2 JUMPI PUSH2 0x12A JUMP JUMPDEST DUP1 PUSH4 0x6FDDE03 EQ PUSH2 0x12F JUMPI DUP1 PUSH4 0x95EA7B3 EQ PUSH2 0x15A JUMPI DUP1 PUSH4 0x18160DDD EQ PUSH2 0x197 JUMPI DUP1 PUSH4 0x23B872DD EQ PUSH2 0x1C2 JUMPI DUP1 PUSH4 0x313CE567 EQ PUSH2 0x1FF JUMPI PUSH2 0x12A JUMP JUMPDEST CALLDATASIZE PUSH2 0x12A JUMPI STOP JUMPDEST PUSH1 0x0 DUP1 REVERT JUMPDEST CALLVALUE DUP1 ISZERO PUSH2 0x13B JUMPI PUSH1 0x0 DUP1 REVERT JUMPDEST POP PUSH2 0x144 PUSH2 0x4D1 JUMP JUMPDEST PUSH1 0x40 MLOAD PUSH2 0x151 SWAP2 SWAP1 PUSH2 0x2284 JUMP JUMPDEST PUSH1 0x40 MLOAD DUP1 SWAP2 SUB SWAP1 RETURN JUMPDEST CALLVALUE DUP1 ISZERO PUSH2 0x166 JUMPI PUSH1 0x0 DUP1 REVERT JUMPDEST POP PUSH2 0x181 PUSH1 0x4 DUP1 CALLDATASIZE SUB DUP2 ADD SWAP1 PUSH2 0x17C SWAP2 SWAP1 PUSH2 0x233F JUMP JUMPDEST PUSH2 0x563 JUMP JUMPDEST PUSH1 0x40 MLOAD PUSH2 0x18E SWAP2 SWAP1 PUSH2 0x239A JUMP JUMPDEST PUSH1 0x40 MLOAD DUP1 SWAP2 SUB SWAP1 RETURN JUMPDEST CALLVALUE DUP1 ISZERO PUSH2 0x1A3 JUMPI PUSH1 0x0 DUP1 REVERT JUMPDEST POP PUSH2 0x1AC PUSH2 0x586 JUMP JUMPDEST PUSH1 0x40 MLOAD PUSH2 0x1B9 SWAP2 SWAP1 PUSH2 0x23C4 JUMP JUMPDEST PUSH1 0x40 MLOAD DUP1 SWAP2 SUB SWAP1 RETURN JUMPDEST CALLVALUE DUP1 ISZERO PUSH2 0x1CE JUMPI PUSH1 0x0 DUP1 REVERT JUMPDEST POP PUSH2 0x1E9 PUSH1 0x4 DUP1 CALLDATASIZE SUB DUP2 ADD SWAP1 PUSH2 0x1E4 SWAP2 SWAP1 PUSH2 0x23DF JUMP JUMPDEST PUSH2 0x590 JUMP JUMPDEST PUSH1 0x40 MLOAD PUSH2 0x1F6 SWAP2 SWAP1 PUSH2 0x239A JUMP JUMPDEST PUSH1 0x40 MLOAD DUP1 SWAP2 SUB SWAP1 RETURN JUMPDEST CALLVALUE DUP1 ISZERO PUSH2 0x20B JUMPI PUSH1 0x0 DUP1 REVERT JUMPDEST POP PUSH2 0x214 PUSH2 0x5BF JUMP JUMPDEST PUSH1 0x40 MLOAD PUSH2 0x221 SWAP2 SWAP1 PUSH2 0x244E JUMP JUMPDEST PUSH1 0x40 MLOAD DUP1 SWAP2 SUB SWAP1 RETURN JUMPDEST CALLVALUE DUP1 ISZERO PUSH2 0x236 JUMPI PUSH1 0x0 DUP1 REVERT JUMPDEST POP PUSH2 0x251 PUSH1 0x4 DUP1 CALLDATASIZE SUB DUP2 ADD SWAP1 PUSH2 0x24C SWAP2 SWAP1 PUSH2 0x2469 JUMP JUMPDEST PUSH2 0x5C8 JUMP JUMPDEST STOP JUMPDEST CALLVALUE DUP1 ISZERO PUSH2 0x25F JUMPI PUSH1 0x0 DUP1 REVERT JUMPDEST POP PUSH2 0x268 PUSH2 0xA5B JUMP JUMPDEST PUSH1 0x40 MLOAD PUSH2 0x275 SWAP2 SWAP1 PUSH2 0x23C4 JUMP JUMPDEST PUSH1 0x40 MLOAD DUP1 SWAP2 SUB SWAP1 RETURN JUMPDEST CALLVALUE DUP1 ISZERO PUSH2 0x28A JUMPI PUSH1 0x0 DUP1 REVERT JUMPDEST POP PUSH2 0x2A5 PUSH1 0x4 DUP1 CALLDATASIZE SUB DUP2 ADD SWAP1 PUSH2 0x2A0 SWAP2 SWAP1 PUSH2 0x2496 JUMP JUMPDEST PUSH2 0xA61 JUMP JUMPDEST PUSH1 0x40 MLOAD PUSH2 0x2B2 SWAP2 SWAP1 PUSH2 0x23C4 JUMP JUMPDEST PUSH1 0x40 MLOAD DUP1 SWAP2 SUB SWAP1 RETURN JUMPDEST CALLVALUE DUP1 ISZERO PUSH2 0x2C7 JUMPI PUSH1 0x0 DUP1 REVERT JUMPDEST POP PUSH2 0x2D0 PUSH2 0xAAA JUMP JUMPDEST STOP JUMPDEST CALLVALUE DUP1 ISZERO PUSH2 0x2DE JUMPI PUSH1 0x0 DUP1 REVERT JUMPDEST POP PUSH2 0x2E7 PUSH2 0xABE JUMP JUMPDEST PUSH1 0x40 MLOAD PUSH2 0x2F4 SWAP2 SWAP1 PUSH2 0x24D2 JUMP JUMPDEST PUSH1 0x40 MLOAD DUP1 SWAP2 SUB SWAP1 RETURN JUMPDEST CALLVALUE DUP1 ISZERO PUSH2 0x309 JUMPI PUSH1 0x0 DUP1 REVERT JUMPDEST POP PUSH2 0x312 PUSH2 0xAE7 JUMP JUMPDEST PUSH1 0x40 MLOAD PUSH2 0x31F SWAP2 SWAP1 PUSH2 0x2284 JUMP JUMPDEST PUSH1 0x40 MLOAD DUP1 SWAP2 SUB SWAP1 RETURN JUMPDEST CALLVALUE DUP1 ISZERO PUSH2 0x334 JUMPI PUSH1 0x0 DUP1 REVERT JUMPDEST POP PUSH2 0x33D PUSH2 0xB79 JUMP JUMPDEST PUSH1 0x40 MLOAD PUSH2 0x34A SWAP2 SWAP1 PUSH2 0x23C4 JUMP JUMPDEST PUSH1 0x40 MLOAD DUP1 SWAP2 SUB SWAP1 RETURN JUMPDEST CALLVALUE DUP1 ISZERO PUSH2 0x35F JUMPI PUSH1 0x0 DUP1 REVERT JUMPDEST POP PUSH2 0x368 PUSH2 0xB7F JUMP JUMPDEST PUSH1 0x40 MLOAD PUSH2 0x376 SWAP3 SWAP2 SWAP1 PUSH2 0x24ED JUMP JUMPDEST PUSH1 0x40 MLOAD DUP1 SWAP2 SUB SWAP1 RETURN JUMPDEST CALLVALUE DUP1 ISZERO PUSH2 0x38B JUMPI PUSH1 0x0 DUP1 REVERT JUMPDEST POP PUSH2 0x3A6 PUSH1 0x4 DUP1 CALLDATASIZE SUB DUP2 ADD SWAP1 PUSH2 0x3A1 SWAP2 SWAP1 PUSH2 0x233F JUMP JUMPDEST PUSH2 0xC4B JUMP JUMPDEST PUSH1 0x40 MLOAD PUSH2 0x3B3 SWAP2 SWAP1 PUSH2 0x239A JUMP JUMPDEST PUSH1 0x40 MLOAD DUP1 SWAP2 SUB SWAP1 RETURN JUMPDEST CALLVALUE DUP1 ISZERO PUSH2 0x3C8 JUMPI PUSH1 0x0 DUP1 REVERT JUMPDEST POP PUSH2 0x3D1 PUSH2 0xC6E JUMP JUMPDEST PUSH1 0x40 MLOAD PUSH2 0x3DE SWAP2 SWAP1 PUSH2 0x2537 JUMP JUMPDEST PUSH1 0x40 MLOAD DUP1 SWAP2 SUB SWAP1 RETURN JUMPDEST PUSH2 0x401 PUSH1 0x4 DUP1 CALLDATASIZE SUB DUP2 ADD SWAP1 PUSH2 0x3FC SWAP2 SWAP1 PUSH2 0x2469 JUMP JUMPDEST PUSH2 0xC94 JUMP JUMPDEST STOP JUMPDEST CALLVALUE DUP1 ISZERO PUSH2 0x40F JUMPI PUSH1 0x0 DUP1 REVERT JUMPDEST POP PUSH2 0x42A PUSH1 0x4 DUP1 CALLDATASIZE SUB DUP2 ADD SWAP1 PUSH2 0x425 SWAP2 SWAP1 PUSH2 0x2469 JUMP JUMPDEST PUSH2 0xDD4 JUMP JUMPDEST PUSH1 0x40 MLOAD PUSH2 0x437 SWAP2 SWAP1 PUSH2 0x23C4 JUMP JUMPDEST PUSH1 0x40 MLOAD DUP1 SWAP2 SUB SWAP1 RETURN JUMPDEST CALLVALUE DUP1 ISZERO PUSH2 0x44C JUMPI PUSH1 0x0 DUP1 REVERT JUMPDEST POP PUSH2 0x467 PUSH1 0x4 DUP1 CALLDATASIZE SUB DUP2 ADD SWAP1 PUSH2 0x462 SWAP2 SWAP1 PUSH2 0x2552 JUMP JUMPDEST PUSH2 0x1039 JUMP JUMPDEST PUSH1 0x40 MLOAD PUSH2 0x474 SWAP2 SWAP1 PUSH2 0x23C4 JUMP JUMPDEST PUSH1 0x40 MLOAD DUP1 SWAP2 SUB SWAP1 RETURN JUMPDEST CALLVALUE DUP1 ISZERO PUSH2 0x489 JUMPI PUSH1 0x0 DUP1 REVERT JUMPDEST POP PUSH2 0x492 PUSH2 0x10C0 JUMP JUMPDEST PUSH1 0x40 MLOAD PUSH2 0x49F SWAP2 SWAP1 PUSH2 0x23C4 JUMP JUMPDEST PUSH1 0x40 MLOAD DUP1 SWAP2 SUB SWAP1 RETURN JUMPDEST CALLVALUE DUP1 ISZERO PUSH2 0x4B4 JUMPI PUSH1 0x0 DUP1 REVERT JUMPDEST POP PUSH2 0x4CF PUSH1 0x4 DUP1 CALLDATASIZE SUB DUP2 ADD SWAP1 PUSH2 0x4CA SWAP2 SWAP1 PUSH2 0x2496 JUMP JUMPDEST PUSH2 0x10C6 JUMP JUMPDEST STOP JUMPDEST PUSH1 0x60 PUSH1 0x5 DUP1 SLOAD PUSH2 0x4E0 SWAP1 PUSH2 0x25C1 JUMP JUMPDEST DUP1 PUSH1 0x1F ADD PUSH1 0x20 DUP1 SWAP2 DIV MUL PUSH1 0x20 ADD PUSH1 0x40 MLOAD SWAP1 DUP2 ADD PUSH1 0x40 MSTORE DUP1 SWAP3 SWAP2 SWAP1 DUP2 DUP2 MSTORE PUSH1 0x20 ADD DUP3 DUP1 SLOAD PUSH2 0x50C SWAP1 PUSH2 0x25C1 JUMP JUMPDEST DUP1 ISZERO PUSH2 0x559 JUMPI DUP1 PUSH1 0x1F LT PUSH2 0x52E JUMPI PUSH2 0x100 DUP1 DUP4 SLOAD DIV MUL DUP4 MSTORE SWAP2 PUSH1 0x20 ADD SWAP2 PUSH2 0x559 JUMP JUMPDEST DUP3 ADD SWAP2 SWAP1 PUSH1 0x0 MSTORE PUSH1 0x20 PUSH1 0x0 KECCAK256 SWAP1 JUMPDEST DUP2 SLOAD DUP2 MSTORE SWAP1 PUSH1 0x1 ADD SWAP1 PUSH1 0x20 ADD DUP1 DUP4 GT PUSH2 0x53C JUMPI DUP3 SWAP1 SUB PUSH1 0x1F AND DUP3 ADD SWAP2 JUMPDEST POP POP POP POP POP SWAP1 POP SWAP1 JUMP JUMPDEST PUSH1 0x0 DUP1 PUSH2 0x56E PUSH2 0x114C JUMP JUMPDEST SWAP1 POP PUSH2 0x57B DUP2 DUP6 DUP6 PUSH2 0x1154 JUMP JUMPDEST PUSH1 0x1 SWAP2 POP POP SWAP3 SWAP2 POP POP JUMP JUMPDEST PUSH1 0x0 PUSH1 0x4 SLOAD SWAP1 POP SWAP1 JUMP JUMPDEST PUSH1 0x0 DUP1 PUSH2 0x59B PUSH2 0x114C JUMP JUMPDEST SWAP1 POP PUSH2 0x5A8 DUP6 DUP3 DUP6 PUSH2 0x1166 JUMP JUMPDEST PUSH2 0x5B3 DUP6 DUP6 DUP6 PUSH2 0x11FA JUMP JUMPDEST PUSH1 0x1 SWAP2 POP POP SWAP4 SWAP3 POP POP POP JUMP JUMPDEST PUSH1 0x0 PUSH1 0x12 SWAP1 POP SWAP1 JUMP JUMPDEST PUSH2 0x5DC PUSH8 0x7AB497FAE4AD0BB6 PUSH1 0xC0 SHL PUSH2 0x12EE JUMP JUMPDEST PUSH2 0x5E4 PUSH2 0x12F1 JUMP JUMPDEST PUSH2 0x5F8 PUSH8 0x1A9BC0C9606DC51C PUSH1 0xC0 SHL PUSH2 0x12EE JUMP JUMPDEST PUSH2 0x60C PUSH8 0x20D685592363554C PUSH1 0xC0 SHL PUSH2 0x12EE JUMP JUMPDEST PUSH2 0x620 PUSH8 0xE744D07DD6599ADF PUSH1 0xC0 SHL PUSH2 0x12EE JUMP JUMPDEST PUSH2 0x634 PUSH8 0xB51E7B68FB31D17F PUSH1 0xC0 SHL PUSH2 0x12EE JUMP JUMPDEST PUSH2 0x648 PUSH8 0xC9A0AAF68268D4D6 PUSH1 0xC0 SHL PUSH2 0x12EE JUMP JUMPDEST PUSH1 0xA SLOAD NUMBER LT ISZERO PUSH2 0x68D JUMPI PUSH1 0x40 MLOAD PUSH32 0x8C379A000000000000000000000000000000000000000000000000000000000 DUP2 MSTORE PUSH1 0x4 ADD PUSH2 0x684 SWAP1 PUSH2 0x263E JUMP JUMPDEST PUSH1 0x40 MLOAD DUP1 SWAP2 SUB SWAP1 REVERT JUMPDEST PUSH2 0x6A1 PUSH8 0x9CEC51F03D4A1CBE PUSH1 0xC0 SHL PUSH2 0x12EE JUMP JUMPDEST PUSH2 0x6B5 PUSH8 0x53BF09370D5BF72D PUSH1 0xC0 SHL PUSH2 0x12EE JUMP JUMPDEST PUSH2 0x6C9 PUSH8 0x2EDEAC71AF4F9FB0 PUSH1 0xC0 SHL PUSH2 0x12EE JUMP JUMPDEST PUSH2 0x6DD PUSH8 0x8971EB0F8BEF6E1C PUSH1 0xC0 SHL PUSH2 0x12EE JUMP JUMPDEST PUSH8 0xDE0B6B3A7640000 DUP2 LT ISZERO PUSH2 0x728 JUMPI PUSH1 0x40 MLOAD PUSH32 0x8C379A000000000000000000000000000000000000000000000000000000000 DUP2 MSTORE PUSH1 0x4 ADD PUSH2 0x71F SWAP1 PUSH2 0x26AA JUMP JUMPDEST PUSH1 0x40 MLOAD DUP1 SWAP2 SUB SWAP1 REVERT JUMPDEST PUSH2 0x73C PUSH8 0x62108BF105B65892 PUSH1 0xC0 SHL PUSH2 0x12EE JUMP JUMPDEST PUSH2 0x750 PUSH8 0xEF12509652F7F3A9 PUSH1 0xC0 SHL PUSH2 0x12EE JUMP JUMPDEST PUSH2 0x763 PUSH7 0xE2479D186948B8 PUSH1 0xC0 SHL PUSH2 0x12EE JUMP JUMPDEST PUSH2 0x775 PUSH2 0x76E PUSH2 0x114C JUMP JUMPDEST ADDRESS DUP4 PUSH2 0x590 JUMP JUMPDEST POP PUSH2 0x78A PUSH8 0x5C571B7DCAB4E7E7 PUSH1 0xC0 SHL PUSH2 0x12EE JUMP JUMPDEST PUSH2 0x79E PUSH8 0x7F5560C4DF39BB42 PUSH1 0xC0 SHL PUSH2 0x12EE JUMP JUMPDEST PUSH2 0x7A6 PUSH2 0x586 JUMP JUMPDEST SELFBALANCE LT ISZERO PUSH2 0x7F0 JUMPI PUSH2 0x7C1 PUSH8 0x3EEB2F5E72F1A469 PUSH1 0xC0 SHL PUSH2 0x12EE JUMP JUMPDEST PUSH2 0x7D5 PUSH8 0x528C7727564AB4AD PUSH1 0xC0 SHL PUSH2 0x12EE JUMP JUMPDEST PUSH8 0xDE0B6B3A7640000 DUP2 PUSH2 0x7E9 SWAP2 SWAP1 PUSH2 0x2728 JUMP JUMPDEST SWAP1 POP PUSH2 0x805 JUMP JUMPDEST PUSH2 0x804 PUSH8 0x4C33E4844B40EC1D PUSH1 0xC0 SHL PUSH2 0x12EE JUMP JUMPDEST JUMPDEST PUSH2 0x819 PUSH8 0x83D75778B22DD598 PUSH1 0xC0 SHL PUSH2 0x12EE JUMP JUMPDEST PUSH2 0x82D PUSH8 0xBBED833745B2299C PUSH1 0xC0 SHL PUSH2 0x12EE JUMP JUMPDEST PUSH1 0x0 DUP2 PUSH2 0x83A PUSH1 0x0 PUSH2 0xDD4 JUMP JUMPDEST PUSH2 0x844 SWAP2 SWAP1 PUSH2 0x2759 JUMP JUMPDEST SWAP1 POP PUSH2 0x85A PUSH8 0x3C77EADC0151470B PUSH1 0xC0 SHL PUSH2 0x12EE JUMP JUMPDEST PUSH2 0x86E PUSH8 0x5D4D28DA4C0F53E9 PUSH1 0xC0 SHL PUSH2 0x12EE JUMP JUMPDEST DUP1 SELFBALANCE LT ISZERO PUSH2 0x8A6 JUMPI PUSH2 0x88A PUSH8 0x92C0BE6199DDD771 PUSH1 0xC0 SHL PUSH2 0x12EE JUMP JUMPDEST PUSH2 0x89E PUSH8 0xE92C7AB18BA129D6 PUSH1 0xC0 SHL PUSH2 0x12EE JUMP JUMPDEST SELFBALANCE SWAP1 POP PUSH2 0x8BB JUMP JUMPDEST PUSH2 0x8BA PUSH8 0xA85C5BB17D8BBD73 PUSH1 0xC0 SHL PUSH2 0x12EE JUMP JUMPDEST JUMPDEST PUSH2 0x8CF PUSH8 0xA8DE51A081CEC071 PUSH1 0xC0 SHL PUSH2 0x12EE JUMP JUMPDEST PUSH2 0x8E3 PUSH8 0xBBA4D1C9F776518D PUSH1 0xC0 SHL PUSH2 0x12EE JUMP JUMPDEST PUSH1 0x0 PUSH2 0x8ED PUSH2 0x114C JUMP JUMPDEST PUSH20 0xFFFFFFFFFFFFFFFFFFFFFFFFFFFFFFFFFFFFFFFF AND DUP3 PUSH1 0x40 MLOAD PUSH2 0x910 SWAP1 PUSH2 0x27CC JUMP JUMPDEST PUSH1 0x0 PUSH1 0x40 MLOAD DUP1 DUP4 SUB DUP2 DUP6 DUP8 GAS CALL SWAP3 POP POP POP RETURNDATASIZE DUP1 PUSH1 0x0 DUP2 EQ PUSH2 0x94D JUMPI PUSH1 0x40 MLOAD SWAP2 POP PUSH1 0x1F NOT PUSH1 0x3F RETURNDATASIZE ADD AND DUP3 ADD PUSH1 0x40 MSTORE RETURNDATASIZE DUP3 MSTORE RETURNDATASIZE PUSH1 0x0 PUSH1 0x20 DUP5 ADD RETURNDATACOPY PUSH2 0x952 JUMP JUMPDEST PUSH1 0x60 SWAP2 POP JUMPDEST POP POP SWAP1 POP PUSH2 0x96A PUSH8 0x74D6AEC01A1EA416 PUSH1 0xC0 SHL PUSH2 0x12EE JUMP JUMPDEST PUSH2 0x97E PUSH8 0xDC4E63BFCAE7F85 PUSH1 0xC0 SHL PUSH2 0x12EE JUMP JUMPDEST PUSH2 0x992 PUSH8 0xD1F5472C949D0C52 PUSH1 0xC0 SHL PUSH2 0x12EE JUMP JUMPDEST DUP1 PUSH2 0x9D2 JUMPI PUSH1 0x40 MLOAD PUSH32 0x8C379A000000000000000000000000000000000000000000000000000000000 DUP2 MSTORE PUSH1 0x4 ADD PUSH2 0x9C9 SWAP1 PUSH2 0x282D JUMP JUMPDEST PUSH1 0x40 MLOAD DUP1 SWAP2 SUB SWAP1 REVERT JUMPDEST PUSH2 0x9E6 PUSH8 0x28BE8AF9FAB6A968 PUSH1 0xC0 SHL PUSH2 0x12EE JUMP JUMPDEST PUSH2 0x9FA PUSH8 0xDCF2756BC266F9BC PUSH1 0xC0 SHL PUSH2 0x12EE JUMP JUMPDEST PUSH2 0xA0E PUSH8 0xBB327495AB13070C PUSH1 0xC0 SHL PUSH2 0x12EE JUMP JUMPDEST PUSH32 0xE8BB4EDFB49CB224DB3D7D51F707C053865322C038A54CFCFD81969D0EB1F013 PUSH2 0xA37 PUSH2 0x114C JUMP JUMPDEST DUP5 PUSH1 0x40 MLOAD PUSH2 0xA46 SWAP3 SWAP2 SWAP1 PUSH2 0x284D JUMP JUMPDEST PUSH1 0x40 MLOAD DUP1 SWAP2 SUB SWAP1 LOG1 POP POP PUSH2 0xA58 PUSH2 0x1337 JUMP JUMPDEST POP JUMP JUMPDEST PUSH1 0x9 SLOAD DUP2 JUMP JUMPDEST PUSH1 0x0 PUSH1 0x2 PUSH1 0x0 DUP4 PUSH20 0xFFFFFFFFFFFFFFFFFFFFFFFFFFFFFFFFFFFFFFFF AND PUSH20 0xFFFFFFFFFFFFFFFFFFFFFFFFFFFFFFFFFFFFFFFF AND DUP2 MSTORE PUSH1 0x20 ADD SWAP1 DUP2 MSTORE PUSH1 0x20 ADD PUSH1 0x0 KECCAK256 SLOAD SWAP1 POP SWAP2 SWAP1 POP JUMP JUMPDEST PUSH2 0xAB2 PUSH2 0x1340 JUMP JUMPDEST PUSH2 0xABC PUSH1 0x0 PUSH2 0x13C7 JUMP JUMPDEST JUMP JUMPDEST PUSH1 0x0 DUP1 PUSH1 0x0 SWAP1 SLOAD SWAP1 PUSH2 0x100 EXP SWAP1 DIV PUSH20 0xFFFFFFFFFFFFFFFFFFFFFFFFFFFFFFFFFFFFFFFF AND SWAP1 POP SWAP1 JUMP JUMPDEST PUSH1 0x60 PUSH1 0x6 DUP1 SLOAD PUSH2 0xAF6 SWAP1 PUSH2 0x25C1 JUMP JUMPDEST DUP1 PUSH1 0x1F ADD PUSH1 0x20 DUP1 SWAP2 DIV MUL PUSH1 0x20 ADD PUSH1 0x40 MLOAD SWAP1 DUP2 ADD PUSH1 0x40 MSTORE DUP1 SWAP3 SWAP2 SWAP1 DUP2 DUP2 MSTORE PUSH1 0x20 ADD DUP3 DUP1 SLOAD PUSH2 0xB22 SWAP1 PUSH2 0x25C1 JUMP JUMPDEST DUP1 ISZERO PUSH2 0xB6F JUMPI DUP1 PUSH1 0x1F LT PUSH2 0xB44 JUMPI PUSH2 0x100 DUP1 DUP4 SLOAD DIV MUL DUP4 MSTORE SWAP2 PUSH1 0x20 ADD SWAP2 PUSH2 0xB6F JUMP JUMPDEST DUP3 ADD SWAP2 SWAP1 PUSH1 0x0 MSTORE PUSH1 0x20 PUSH1 0x0 KECCAK256 SWAP1 JUMPDEST DUP2 SLOAD DUP2 MSTORE SWAP1 PUSH1 0x1 ADD SWAP1 PUSH1 0x20 ADD DUP1 DUP4 GT PUSH2 0xB52 JUMPI DUP3 SWAP1 SUB PUSH1 0x1F AND DUP3 ADD SWAP2 JUMPDEST POP POP POP POP POP SWAP1 POP SWAP1 JUMP JUMPDEST PUSH1 0xA SLOAD DUP2 JUMP JUMPDEST PUSH1 0x0 DUP1 PUSH2 0xB96 PUSH8 0xB32001C2F4FEEADB PUSH1 0xC0 SHL PUSH2 0x12EE JUMP JUMPDEST PUSH2 0xBAA PUSH8 0x299519891CDE23E6 PUSH1 0xC0 SHL PUSH2 0x12EE JUMP JUMPDEST PUSH2 0xBBE PUSH8 0x238172CB93166F83 PUSH1 0xC0 SHL PUSH2 0x12EE JUMP JUMPDEST PUSH1 0x0 PUSH2 0xBC9 ADDRESS PUSH2 0xA61 JUMP JUMPDEST SWAP1 POP PUSH2 0xBDF PUSH8 0xC0EA11AA7681DF9F PUSH1 0xC0 SHL PUSH2 0x12EE JUMP JUMPDEST PUSH2 0xBF3 PUSH8 0x1C55572F3B8B19C6 PUSH1 0xC0 SHL PUSH2 0x12EE JUMP JUMPDEST PUSH1 0x0 PUSH2 0xBFD PUSH2 0x586 JUMP JUMPDEST PUSH1 0x8 SLOAD PUSH2 0xC0A SWAP2 SWAP1 PUSH2 0x2876 JUMP JUMPDEST DUP3 PUSH2 0xC15 SWAP2 SWAP1 PUSH2 0x28AA JUMP JUMPDEST SWAP1 POP PUSH2 0xC2B PUSH8 0xA09BCC952333A915 PUSH1 0xC0 SHL PUSH2 0x12EE JUMP JUMPDEST PUSH2 0xC3F PUSH8 0x6A00B962365E82EE PUSH1 0xC0 SHL PUSH2 0x12EE JUMP JUMPDEST DUP2 DUP2 SWAP4 POP SWAP4 POP POP POP SWAP1 SWAP2 JUMP JUMPDEST PUSH1 0x0 DUP1 PUSH2 0xC56 PUSH2 0x114C JUMP JUMPDEST SWAP1 POP PUSH2 0xC63 DUP2 DUP6 DUP6 PUSH2 0x11FA JUMP JUMPDEST PUSH1 0x1 SWAP2 POP POP SWAP3 SWAP2 POP POP JUMP JUMPDEST PUSH1 0x7 PUSH1 0x0 SWAP1 SLOAD SWAP1 PUSH2 0x100 EXP SWAP1 DIV PUSH20 0xFFFFFFFFFFFFFFFFFFFFFFFFFFFFFFFFFFFFFFFF AND DUP2 JUMP JUMPDEST PUSH2 0xCA8 PUSH8 0x5827F929EC936C08 PUSH1 0xC0 SHL PUSH2 0x12EE JUMP JUMPDEST PUSH2 0xCBC PUSH8 0x58718AF39D3FEFA6 PUSH1 0xC0 SHL PUSH2 0x12EE JUMP JUMPDEST PUSH2 0xCD0 PUSH8 0x496CC97E67C96258 PUSH1 0xC0 SHL PUSH2 0x12EE JUMP JUMPDEST PUSH1 0xA SLOAD NUMBER LT PUSH2 0xD23 JUMPI PUSH2 0xCED PUSH8 0x67AC0D6A8F18AE64 PUSH1 0xC0 SHL PUSH2 0x12EE JUMP JUMPDEST PUSH2 0xD01 PUSH8 0x44E3EA462CCB0A26 PUSH1 0xC0 SHL PUSH2 0x12EE JUMP JUMPDEST PUSH2 0xD15 PUSH8 0x151BCDD8FBEF6975 PUSH1 0xC0 SHL PUSH2 0x12EE JUMP JUMPDEST PUSH2 0xD1E DUP2 PUSH2 0x148B JUMP JUMPDEST PUSH2 0xD69 JUMP JUMPDEST PUSH2 0xD37 PUSH8 0xF22FF349AEB4CD69 PUSH1 0xC0 SHL PUSH2 0x12EE JUMP JUMPDEST PUSH2 0xD4B PUSH8 0x1000132E6DEF72BE PUSH1 0xC0 SHL PUSH2 0x12EE JUMP JUMPDEST PUSH2 0xD5F PUSH8 0x7C628AB10A065CC5 PUSH1 0xC0 SHL PUSH2 0x12EE JUMP JUMPDEST PUSH2 0xD68 DUP2 PUSH2 0x1989 JUMP JUMPDEST JUMPDEST PUSH2 0xD7D PUSH8 0x212C9B20F287D06F PUSH1 0xC0 SHL PUSH2 0x12EE JUMP JUMPDEST PUSH2 0xD91 PUSH8 0x98BCBDDF3B01A10F PUSH1 0xC0 SHL PUSH2 0x12EE JUMP JUMPDEST PUSH32 0x9E3AFF002C0BFDB18B77ADB1051B53EDA74F919EE90E162C2626995E4DB8F055 PUSH2 0xDBA PUSH2 0x114C JUMP JUMPDEST DUP3 PUSH1 0x40 MLOAD PUSH2 0xDC9 SWAP3 SWAP2 SWAP1 PUSH2 0x284D JUMP JUMPDEST PUSH1 0x40 MLOAD DUP1 SWAP2 SUB SWAP1 LOG1 POP JUMP JUMPDEST PUSH1 0x0 PUSH2 0xDEA PUSH8 0x2A2E03F3872B9112 PUSH1 0xC0 SHL PUSH2 0x12EE JUMP JUMPDEST PUSH2 0xDFE PUSH8 0xFB5622567E66DC5 PUSH1 0xC0 SHL PUSH2 0x12EE JUMP JUMPDEST PUSH2 0xE12 PUSH8 0x5E38604E3581330A PUSH1 0xC0 SHL PUSH2 0x12EE JUMP JUMPDEST PUSH1 0x0 PUSH2 0xE1C PUSH2 0x586 JUMP JUMPDEST SWAP1 POP PUSH2 0xE32 PUSH8 0x68C22F3A082BB0EE PUSH1 0xC0 SHL PUSH2 0x12EE JUMP JUMPDEST PUSH2 0xE46 PUSH8 0xB92C68D5D6FD2F69 PUSH1 0xC0 SHL PUSH2 0x12EE JUMP JUMPDEST PUSH1 0x0 DUP4 SELFBALANCE PUSH2 0xE54 SWAP2 SWAP1 PUSH2 0x2876 JUMP JUMPDEST SWAP1 POP PUSH2 0xE6A PUSH8 0xBA74D0C0ED953DD3 PUSH1 0xC0 SHL PUSH2 0x12EE JUMP JUMPDEST PUSH2 0xE7E PUSH8 0xB8ED62DB0A8FDCF3 PUSH1 0xC0 SHL PUSH2 0x12EE JUMP JUMPDEST PUSH1 0x0 DUP3 EQ DUP1 ISZERO PUSH2 0xE9E JUMPI POP PUSH2 0xE9D PUSH8 0xAB7796E12BA36B6F PUSH1 0xC0 SHL PUSH2 0x1C79 JUMP JUMPDEST JUMPDEST DUP1 PUSH2 0xEC5 JUMPI POP PUSH1 0x0 DUP2 EQ DUP1 ISZERO PUSH2 0xEC4 JUMPI POP PUSH2 0xEC3 PUSH8 0xE65EB23AC1FF0C53 PUSH1 0xC0 SHL PUSH2 0x1C79 JUMP JUMPDEST JUMPDEST JUMPDEST ISZERO PUSH2 0xF11 JUMPI PUSH2 0xEDE PUSH8 0x27F0C926CF482F6A PUSH1 0xC0 SHL PUSH2 0x12EE JUMP JUMPDEST PUSH2 0xEF2 PUSH8 0xB0FA2DC9662B4B18 PUSH1 0xC0 SHL PUSH2 0x12EE JUMP JUMPDEST PUSH2 0xF06 PUSH8 0x6BC94B4DCA9B4754 PUSH1 0xC0 SHL PUSH2 0x12EE JUMP JUMPDEST PUSH1 0x0 SWAP3 POP POP POP PUSH2 0x1034 JUMP JUMPDEST PUSH2 0xF25 PUSH8 0x39FDF7A74EDA647D PUSH1 0xC0 SHL PUSH2 0x12EE JUMP JUMPDEST PUSH2 0xF39 PUSH8 0x67DB2AA4EDA8F740 PUSH1 0xC0 SHL PUSH2 0x12EE JUMP JUMPDEST PUSH2 0xF4D PUSH8 0x94FCE0147ED0A7C6 PUSH1 0xC0 SHL PUSH2 0x12EE JUMP JUMPDEST DUP2 DUP2 LT ISZERO PUSH2 0xFE7 JUMPI PUSH2 0xF69 PUSH8 0xFE2055F61204FEAE PUSH1 0xC0 SHL PUSH2 0x12EE JUMP JUMPDEST PUSH2 0xF7D PUSH8 0x2F80D264D5566F0D PUSH1 0xC0 SHL PUSH2 0x12EE JUMP JUMPDEST PUSH2 0xF91 PUSH8 0x6D50F93635EEB308 PUSH1 0xC0 SHL PUSH2 0x12EE JUMP JUMPDEST PUSH1 0x0 PUSH8 0xDE0B6B3A7640000 DUP3 PUSH2 0xFA7 SWAP2 SWAP1 PUSH2 0x2759 JUMP JUMPDEST SWAP1 POP PUSH2 0xFBD PUSH8 0xF2B7F4EC58CCC0AB PUSH1 0xC0 SHL PUSH2 0x12EE JUMP JUMPDEST PUSH2 0xFD1 PUSH8 0xB55AA28AD4977D7E PUSH1 0xC0 SHL PUSH2 0x12EE JUMP JUMPDEST DUP3 DUP2 PUSH2 0xFDD SWAP2 SWAP1 PUSH2 0x2728 JUMP JUMPDEST SWAP4 POP POP POP POP PUSH2 0x1034 JUMP JUMPDEST PUSH2 0xFFB PUSH8 0x816BC44AE019AFF9 PUSH1 0xC0 SHL PUSH2 0x12EE JUMP JUMPDEST PUSH2 0x100F PUSH8 0x6533C43A5681A397 PUSH1 0xC0 SHL PUSH2 0x12EE JUMP JUMPDEST PUSH2 0x1023 PUSH8 0x7CB03C727201159B PUSH1 0xC0 SHL PUSH2 0x12EE JUMP JUMPDEST DUP2 DUP2 PUSH2 0x102F SWAP2 SWAP1 PUSH2 0x2728 JUMP JUMPDEST SWAP3 POP POP POP JUMPDEST SWAP2 SWAP1 POP JUMP JUMPDEST PUSH1 0x0 PUSH1 0x3 PUSH1 0x0 DUP5 PUSH20 0xFFFFFFFFFFFFFFFFFFFFFFFFFFFFFFFFFFFFFFFF AND PUSH20 0xFFFFFFFFFFFFFFFFFFFFFFFFFFFFFFFFFFFFFFFF AND DUP2 MSTORE PUSH1 0x20 ADD SWAP1 DUP2 MSTORE PUSH1 0x20 ADD PUSH1 0x0 KECCAK256 PUSH1 0x0 DUP4 PUSH20 0xFFFFFFFFFFFFFFFFFFFFFFFFFFFFFFFFFFFFFFFF AND PUSH20 0xFFFFFFFFFFFFFFFFFFFFFFFFFFFFFFFFFFFFFFFF AND DUP2 MSTORE PUSH1 0x20 ADD SWAP1 DUP2 MSTORE PUSH1 0x20 ADD PUSH1 0x0 KECCAK256 SLOAD SWAP1 POP SWAP3 SWAP2 POP POP JUMP JUMPDEST PUSH1 0x8 SLOAD DUP2 JUMP JUMPDEST PUSH2 0x10CE PUSH2 0x1340 JUMP JUMPDEST PUSH1 0x0 PUSH20 0xFFFFFFFFFFFFFFFFFFFFFFFFFFFFFFFFFFFFFFFF AND DUP2 PUSH20 0xFFFFFFFFFFFFFFFFFFFFFFFFFFFFFFFFFFFFFFFF AND SUB PUSH2 0x1140 JUMPI PUSH1 0x0 PUSH1 0x40 MLOAD PUSH32 0x1E4FBDF700000000000000000000000000000000000000000000000000000000 DUP2 MSTORE PUSH1 0x4 ADD PUSH2 0x1137 SWAP2 SWAP1 PUSH2 0x24D2 JUMP JUMPDEST PUSH1 0x40 MLOAD DUP1 SWAP2 SUB SWAP1 REVERT JUMPDEST PUSH2 0x1149 DUP2 PUSH2 0x13C7 JUMP JUMPDEST POP JUMP JUMPDEST PUSH1 0x0 CALLER SWAP1 POP SWAP1 JUMP JUMPDEST PUSH2 0x1161 DUP4 DUP4 DUP4 PUSH1 0x1 PUSH2 0x1C84 JUMP JUMPDEST POP POP POP JUMP JUMPDEST PUSH1 0x0 PUSH2 0x1172 DUP5 DUP5 PUSH2 0x1039 JUMP JUMPDEST SWAP1 POP PUSH32 0xFFFFFFFFFFFFFFFFFFFFFFFFFFFFFFFFFFFFFFFFFFFFFFFFFFFFFFFFFFFFFFFF DUP2 EQ PUSH2 0x11F4 JUMPI DUP2 DUP2 LT ISZERO PUSH2 0x11E4 JUMPI DUP3 DUP2 DUP4 PUSH1 0x40 MLOAD PUSH32 0xFB8F41B200000000000000000000000000000000000000000000000000000000 DUP2 MSTORE PUSH1 0x4 ADD PUSH2 0x11DB SWAP4 SWAP3 SWAP2 SWAP1 PUSH2 0x28DE JUMP JUMPDEST PUSH1 0x40 MLOAD DUP1 SWAP2 SUB SWAP1 REVERT JUMPDEST PUSH2 0x11F3 DUP5 DUP5 DUP5 DUP5 SUB PUSH1 0x0 PUSH2 0x1C84 JUMP JUMPDEST JUMPDEST POP POP POP POP JUMP JUMPDEST PUSH1 0x0 PUSH20 0xFFFFFFFFFFFFFFFFFFFFFFFFFFFFFFFFFFFFFFFF AND DUP4 PUSH20 0xFFFFFFFFFFFFFFFFFFFFFFFFFFFFFFFFFFFFFFFF AND SUB PUSH2 0x126C JUMPI PUSH1 0x0 PUSH1 0x40 MLOAD PUSH32 0x96C6FD1E00000000000000000000000000000000000000000000000000000000 DUP2 MSTORE PUSH1 0x4 ADD PUSH2 0x1263 SWAP2 SWAP1 PUSH2 0x24D2 JUMP JUMPDEST PUSH1 0x40 MLOAD DUP1 SWAP2 SUB SWAP1 REVERT JUMPDEST PUSH1 0x0 PUSH20 0xFFFFFFFFFFFFFFFFFFFFFFFFFFFFFFFFFFFFFFFF AND DUP3 PUSH20 0xFFFFFFFFFFFFFFFFFFFFFFFFFFFFFFFFFFFFFFFF AND SUB PUSH2 0x12DE JUMPI PUSH1 0x0 PUSH1 0x40 MLOAD PUSH32 0xEC442F0500000000000000000000000000000000000000000000000000000000 DUP2 MSTORE PUSH1 0x4 ADD PUSH2 0x12D5 SWAP2 SWAP1 PUSH2 0x24D2 JUMP JUMPDEST PUSH1 0x40 MLOAD DUP1 SWAP2 SUB SWAP1 REVERT JUMPDEST PUSH2 0x12E9 DUP4 DUP4 DUP4 PUSH2 0x1E5B JUMP JUMPDEST POP POP POP JUMP JUMPDEST POP JUMP JUMPDEST PUSH1 0x2 PUSH1 0x1 SLOAD SUB PUSH2 0x132D JUMPI PUSH1 0x40 MLOAD PUSH32 0x3EE5AEB500000000000000000000000000000000000000000000000000000000 DUP2 MSTORE PUSH1 0x4 ADD PUSH1 0x40 MLOAD DUP1 SWAP2 SUB SWAP1 REVERT JUMPDEST PUSH1 0x2 PUSH1 0x1 DUP2 SWAP1 SSTORE POP JUMP JUMPDEST PUSH1 0x1 DUP1 DUP2 SWAP1 SSTORE POP JUMP JUMPDEST PUSH2 0x1348 PUSH2 0x114C JUMP JUMPDEST PUSH20 0xFFFFFFFFFFFFFFFFFFFFFFFFFFFFFFFFFFFFFFFF AND PUSH2 0x1366 PUSH2 0xABE JUMP JUMPDEST PUSH20 0xFFFFFFFFFFFFFFFFFFFFFFFFFFFFFFFFFFFFFFFF AND EQ PUSH2 0x13C5 JUMPI PUSH2 0x1389 PUSH2 0x114C JUMP JUMPDEST PUSH1 0x40 MLOAD PUSH32 0x118CDAA700000000000000000000000000000000000000000000000000000000 DUP2 MSTORE PUSH1 0x4 ADD PUSH2 0x13BC SWAP2 SWAP1 PUSH2 0x24D2 JUMP JUMPDEST PUSH1 0x40 MLOAD DUP1 SWAP2 SUB SWAP1 REVERT JUMPDEST JUMP JUMPDEST PUSH1 0x0 DUP1 PUSH1 0x0 SWAP1 SLOAD SWAP1 PUSH2 0x100 EXP SWAP1 DIV PUSH20 0xFFFFFFFFFFFFFFFFFFFFFFFFFFFFFFFFFFFFFFFF AND SWAP1 POP DUP2 PUSH1 0x0 DUP1 PUSH2 0x100 EXP DUP2 SLOAD DUP2 PUSH20 0xFFFFFFFFFFFFFFFFFFFFFFFFFFFFFFFFFFFFFFFF MUL NOT AND SWAP1 DUP4 PUSH20 0xFFFFFFFFFFFFFFFFFFFFFFFFFFFFFFFFFFFFFFFF AND MUL OR SWAP1 SSTORE POP DUP2 PUSH20 0xFFFFFFFFFFFFFFFFFFFFFFFFFFFFFFFFFFFFFFFF AND DUP2 PUSH20 0xFFFFFFFFFFFFFFFFFFFFFFFFFFFFFFFFFFFFFFFF AND PUSH32 0x8BE0079C531659141344CD1FD0A4F28419497F9722A3DAAFE3B4186F6B6457E0 PUSH1 0x40 MLOAD PUSH1 0x40 MLOAD DUP1 SWAP2 SUB SWAP1 LOG3 POP POP JUMP JUMPDEST PUSH2 0x149F PUSH8 0xC6B4BFB2BA80E532 PUSH1 0xC0 SHL PUSH2 0x12EE JUMP JUMPDEST PUSH2 0x14B3 PUSH8 0x80874B8EC05BCFA0 PUSH1 0xC0 SHL PUSH2 0x12EE JUMP JUMPDEST PUSH2 0x14C7 PUSH8 0x9006095667A27F3E PUSH1 0xC0 SHL PUSH2 0x12EE JUMP JUMPDEST PUSH1 0x0 DUP1 PUSH2 0x14D2 PUSH2 0xB7F JUMP JUMPDEST SWAP2 POP SWAP2 POP PUSH2 0x14EA PUSH8 0x3179EB87F05B4D7F PUSH1 0xC0 SHL PUSH2 0x12EE JUMP JUMPDEST PUSH2 0x14FE PUSH8 0xD6DCC0D6D63F72C7 PUSH1 0xC0 SHL PUSH2 0x12EE JUMP JUMPDEST PUSH2 0x1506 PUSH2 0x586 JUMP JUMPDEST SELFBALANCE LT ISZERO PUSH2 0x1550 JUMPI PUSH2 0x1521 PUSH8 0x89C38A5B4560BFA0 PUSH1 0xC0 SHL PUSH2 0x12EE JUMP JUMPDEST PUSH2 0x1535 PUSH8 0xF14B5631C6C39DDD PUSH1 0xC0 SHL PUSH2 0x12EE JUMP JUMPDEST PUSH8 0xDE0B6B3A7640000 DUP4 PUSH2 0x1549 SWAP2 SWAP1 PUSH2 0x2728 JUMP JUMPDEST SWAP3 POP PUSH2 0x1565 JUMP JUMPDEST PUSH2 0x1564 PUSH8 0xCCA1B99000D8B152 PUSH1 0xC0 SHL PUSH2 0x12EE JUMP JUMPDEST JUMPDEST PUSH2 0x1579 PUSH8 0x3375E57089A54D1C PUSH1 0xC0 SHL PUSH2 0x12EE JUMP JUMPDEST PUSH2 0x158D PUSH8 0xBAF62F32ACDB530F PUSH1 0xC0 SHL PUSH2 0x12EE JUMP JUMPDEST PUSH2 0x15E0 CALLVALUE PUSH1 0x40 MLOAD DUP1 PUSH1 0x40 ADD PUSH1 0x40 MSTORE DUP1 PUSH1 0x2 DUP2 MSTORE PUSH1 0x20 ADD PUSH32 0x7673000000000000000000000000000000000000000000000000000000000000 DUP2 MSTORE POP PUSH2 0x15D0 CALLVALUE PUSH2 0xDD4 JUMP JUMPDEST DUP7 PUSH2 0x15DB SWAP2 SWAP1 PUSH2 0x2759 JUMP JUMPDEST PUSH2 0x2083 JUMP JUMPDEST PUSH2 0x15F4 PUSH8 0xDFB137DE06264ADD PUSH1 0xC0 SHL PUSH2 0x12EE JUMP JUMPDEST PUSH2 0x1608 PUSH8 0xC58498A6BE813FA1 PUSH1 0xC0 SHL PUSH2 0x12EE JUMP JUMPDEST PUSH2 0x161C PUSH8 0xBC1A128D4E4006E5 PUSH1 0xC0 SHL PUSH2 0x12EE JUMP JUMPDEST PUSH2 0x1625 CALLVALUE PUSH2 0xDD4 JUMP JUMPDEST DUP4 PUSH2 0x1630 SWAP2 SWAP1 PUSH2 0x2759 JUMP JUMPDEST CALLVALUE EQ PUSH2 0x1671 JUMPI PUSH1 0x40 MLOAD PUSH32 0x8C379A000000000000000000000000000000000000000000000000000000000 DUP2 MSTORE PUSH1 0x4 ADD PUSH2 0x1668 SWAP1 PUSH2 0x2961 JUMP JUMPDEST PUSH1 0x40 MLOAD DUP1 SWAP2 SUB SWAP1 REVERT JUMPDEST PUSH2 0x1685 PUSH8 0xB84F097F01EEE54A PUSH1 0xC0 SHL PUSH2 0x12EE JUMP JUMPDEST PUSH2 0x1699 PUSH8 0xBC5CB0A59F947D8 PUSH1 0xC0 SHL PUSH2 0x12EE JUMP JUMPDEST PUSH2 0x16AD PUSH8 0x3E64119099C4287F PUSH1 0xC0 SHL PUSH2 0x12EE JUMP JUMPDEST PUSH2 0x16C1 PUSH8 0xC52A9C0C14A7B27F PUSH1 0xC0 SHL PUSH2 0x12EE JUMP JUMPDEST DUP1 DUP4 GT ISZERO PUSH2 0x1704 JUMPI PUSH1 0x40 MLOAD PUSH32 0x8C379A000000000000000000000000000000000000000000000000000000000 DUP2 MSTORE PUSH1 0x4 ADD PUSH2 0x16FB SWAP1 PUSH2 0x29F3 JUMP JUMPDEST PUSH1 0x40 MLOAD DUP1 SWAP2 SUB SWAP1 REVERT JUMPDEST PUSH2 0x1718 PUSH8 0x13240460D64263FB PUSH1 0xC0 SHL PUSH2 0x12EE JUMP JUMPDEST PUSH2 0x172C PUSH8 0x3D45E25C76E3BBB4 PUSH1 0xC0 SHL PUSH2 0x12EE JUMP JUMPDEST PUSH2 0x1740 PUSH8 0x1ADFBFE7AD622C5 PUSH1 0xC0 SHL PUSH2 0x12EE JUMP JUMPDEST PUSH2 0x1754 PUSH8 0xD5A59EC5EF598E80 PUSH1 0xC0 SHL PUSH2 0x12EE JUMP JUMPDEST DUP3 PUSH2 0x175E CALLVALUE PUSH2 0xDD4 JUMP JUMPDEST PUSH2 0x1768 SWAP2 SWAP1 PUSH2 0x2759 JUMP JUMPDEST CALLVALUE EQ PUSH2 0x17A9 JUMPI PUSH1 0x40 MLOAD PUSH32 0x8C379A000000000000000000000000000000000000000000000000000000000 DUP2 MSTORE PUSH1 0x4 ADD PUSH2 0x17A0 SWAP1 PUSH2 0x2961 JUMP JUMPDEST PUSH1 0x40 MLOAD DUP1 SWAP2 SUB SWAP1 REVERT JUMPDEST PUSH2 0x17BD PUSH8 0x3AD5E7E9C1EFC71F PUSH1 0xC0 SHL PUSH2 0x12EE JUMP JUMPDEST PUSH2 0x17D1 PUSH8 0xFFC5B77766A30760 PUSH1 0xC0 SHL PUSH2 0x12EE JUMP JUMPDEST PUSH2 0x17E5 PUSH8 0x13EFF80D52D5F5E6 PUSH1 0xC0 SHL PUSH2 0x12EE JUMP JUMPDEST DUP2 DUP4 GT PUSH2 0x183F JUMPI PUSH2 0x1800 PUSH8 0x7EA7E83EC04B259D PUSH1 0xC0 SHL PUSH2 0x12EE JUMP JUMPDEST PUSH2 0x1814 PUSH8 0xB50CD882E83452F7 PUSH1 0xC0 SHL PUSH2 0x12EE JUMP JUMPDEST PUSH2 0x1828 PUSH8 0xA69209894108D59 PUSH1 0xC0 SHL PUSH2 0x12EE JUMP JUMPDEST PUSH2 0x1839 PUSH2 0x1833 PUSH2 0x114C JUMP JUMPDEST DUP5 PUSH2 0xC4B JUMP JUMPDEST POP PUSH2 0x1984 JUMP JUMPDEST PUSH2 0x1853 PUSH8 0x8DB482855AAB96D8 PUSH1 0xC0 SHL PUSH2 0x12EE JUMP JUMPDEST PUSH2 0x1867 PUSH8 0xC50862BF1477D9B1 PUSH1 0xC0 SHL PUSH2 0x12EE JUMP JUMPDEST PUSH1 0x0 DUP3 GT ISZERO PUSH2 0x1935 JUMPI PUSH2 0x1884 PUSH8 0xA016246C14A47B14 PUSH1 0xC0 SHL PUSH2 0x12EE JUMP JUMPDEST PUSH2 0x1898 PUSH8 0xE64A3465F86DCE14 PUSH1 0xC0 SHL PUSH2 0x12EE JUMP JUMPDEST PUSH2 0x18AC PUSH8 0x67AB71B142385976 PUSH1 0xC0 SHL PUSH2 0x12EE JUMP JUMPDEST PUSH1 0x0 DUP3 DUP5 PUSH2 0x18BA SWAP2 SWAP1 PUSH2 0x2876 JUMP JUMPDEST SWAP1 POP PUSH2 0x18D0 PUSH8 0x621C0FC93300A42A PUSH1 0xC0 SHL PUSH2 0x12EE JUMP JUMPDEST PUSH2 0x18E4 PUSH8 0x461458E1F1FC1010 PUSH1 0xC0 SHL PUSH2 0x12EE JUMP JUMPDEST PUSH2 0x18F5 PUSH2 0x18EF PUSH2 0x114C JUMP JUMPDEST DUP5 PUSH2 0xC4B JUMP JUMPDEST POP PUSH2 0x190A PUSH8 0x385B300314BF2476 PUSH1 0xC0 SHL PUSH2 0x12EE JUMP JUMPDEST PUSH2 0x191E PUSH8 0x769B4DF5A89C9E47 PUSH1 0xC0 SHL PUSH2 0x12EE JUMP JUMPDEST PUSH2 0x192F PUSH2 0x1929 PUSH2 0x114C JUMP JUMPDEST DUP3 PUSH2 0x2122 JUMP JUMPDEST POP PUSH2 0x1983 JUMP JUMPDEST PUSH2 0x1949 PUSH8 0x10B9E63079629C80 PUSH1 0xC0 SHL PUSH2 0x12EE JUMP JUMPDEST PUSH2 0x195D PUSH8 0x9FF9B7D2939DE6D7 PUSH1 0xC0 SHL PUSH2 0x12EE JUMP JUMPDEST PUSH2 0x1971 PUSH8 0x5929440D9527EB0 PUSH1 0xC0 SHL PUSH2 0x12EE JUMP JUMPDEST PUSH2 0x1982 PUSH2 0x197C PUSH2 0x114C JUMP JUMPDEST DUP5 PUSH2 0x2122 JUMP JUMPDEST JUMPDEST JUMPDEST POP POP POP JUMP JUMPDEST PUSH2 0x199D PUSH8 0x305007E6817BCB9 PUSH1 0xC0 SHL PUSH2 0x12EE JUMP JUMPDEST PUSH2 0x19B1 PUSH8 0x29FAA371C5FD067C PUSH1 0xC0 SHL PUSH2 0x12EE JUMP JUMPDEST PUSH2 0x19C5 PUSH8 0x59B17298E8C0080 PUSH1 0xC0 SHL PUSH2 0x12EE JUMP JUMPDEST PUSH2 0x19D9 PUSH8 0x10D8C5023F9E22C0 PUSH1 0xC0 SHL PUSH2 0x12EE JUMP JUMPDEST PUSH8 0xDE0B6B3A7640000 PUSH1 0x9 SLOAD DUP3 PUSH2 0x19F0 SWAP2 SWAP1 PUSH2 0x2759 JUMP JUMPDEST PUSH2 0x19FA SWAP2 SWAP1 PUSH2 0x2728 JUMP JUMPDEST CALLVALUE EQ PUSH2 0x1A3B JUMPI PUSH1 0x40 MLOAD PUSH32 0x8C379A000000000000000000000000000000000000000000000000000000000 DUP2 MSTORE PUSH1 0x4 ADD PUSH2 0x1A32 SWAP1 PUSH2 0x2961 JUMP JUMPDEST PUSH1 0x40 MLOAD DUP1 SWAP2 SUB SWAP1 REVERT JUMPDEST PUSH2 0x1A4F PUSH8 0x490ED1BCE22A0879 PUSH1 0xC0 SHL PUSH2 0x12EE JUMP JUMPDEST PUSH2 0x1A63 PUSH8 0x2E61E39D64C922C0 PUSH1 0xC0 SHL PUSH2 0x12EE JUMP JUMPDEST PUSH2 0x1A77 PUSH8 0xD5588E96A2E9F1D9 PUSH1 0xC0 SHL PUSH2 0x12EE JUMP JUMPDEST PUSH2 0x1A8B PUSH8 0x9943FDFE633FB70A PUSH1 0xC0 SHL PUSH2 0x12EE JUMP JUMPDEST PUSH1 0x8 SLOAD PUSH2 0x1A96 PUSH2 0x586 JUMP JUMPDEST DUP3 PUSH2 0x1AA1 SWAP2 SWAP1 PUSH2 0x28AA JUMP JUMPDEST GT ISZERO PUSH2 0x1AE2 JUMPI PUSH1 0x40 MLOAD PUSH32 0x8C379A000000000000000000000000000000000000000000000000000000000 DUP2 MSTORE PUSH1 0x4 ADD PUSH2 0x1AD9 SWAP1 PUSH2 0x29F3 JUMP JUMPDEST PUSH1 0x40 MLOAD DUP1 SWAP2 SUB SWAP1 REVERT JUMPDEST PUSH2 0x1AF6 PUSH8 0x770114521BD772CB PUSH1 0xC0 SHL PUSH2 0x12EE JUMP JUMPDEST PUSH2 0x1B0A PUSH8 0xAE1E21FFBE350066 PUSH1 0xC0 SHL PUSH2 0x12EE JUMP JUMPDEST PUSH2 0x1B1E PUSH8 0x6C369C20D65560C0 PUSH1 0xC0 SHL PUSH2 0x12EE JUMP JUMPDEST PUSH2 0x1B2F PUSH2 0x1B29 PUSH2 0x114C JUMP JUMPDEST DUP3 PUSH2 0x2122 JUMP JUMPDEST PUSH2 0x1B43 PUSH8 0x469054858BEF16D2 PUSH1 0xC0 SHL PUSH2 0x12EE JUMP JUMPDEST PUSH2 0x1B57 PUSH8 0xEB69A4A60EE3FDC3 PUSH1 0xC0 SHL PUSH2 0x12EE JUMP JUMPDEST PUSH1 0x0 PUSH1 0x7 PUSH1 0x0 SWAP1 SLOAD SWAP1 PUSH2 0x100 EXP SWAP1 DIV PUSH20 0xFFFFFFFFFFFFFFFFFFFFFFFFFFFFFFFFFFFFFFFF AND PUSH20 0xFFFFFFFFFFFFFFFFFFFFFFFFFFFFFFFFFFFFFFFF AND CALLVALUE PUSH1 0x40 MLOAD PUSH2 0x1B9F SWAP1 PUSH2 0x27CC JUMP JUMPDEST PUSH1 0x0 PUSH1 0x40 MLOAD DUP1 DUP4 SUB DUP2 DUP6 DUP8 GAS CALL SWAP3 POP POP POP RETURNDATASIZE DUP1 PUSH1 0x0 DUP2 EQ PUSH2 0x1BDC JUMPI PUSH1 0x40 MLOAD SWAP2 POP PUSH1 0x1F NOT PUSH1 0x3F RETURNDATASIZE ADD AND DUP3 ADD PUSH1 0x40 MSTORE RETURNDATASIZE DUP3 MSTORE RETURNDATASIZE PUSH1 0x0 PUSH1 0x20 DUP5 ADD RETURNDATACOPY PUSH2 0x1BE1 JUMP JUMPDEST PUSH1 0x60 SWAP2 POP JUMPDEST POP POP SWAP1 POP PUSH2 0x1BF9 PUSH8 0x6E9ECB9466F19E4E PUSH1 0xC0 SHL PUSH2 0x12EE JUMP JUMPDEST PUSH2 0x1C0D PUSH8 0x7F47689D10738C30 PUSH1 0xC0 SHL PUSH2 0x12EE JUMP JUMPDEST PUSH2 0x1C21 PUSH8 0xE8CC9FEF2CB814A4 PUSH1 0xC0 SHL PUSH2 0x12EE JUMP JUMPDEST DUP1 PUSH2 0x1C61 JUMPI PUSH1 0x40 MLOAD PUSH32 0x8C379A000000000000000000000000000000000000000000000000000000000 DUP2 MSTORE PUSH1 0x4 ADD PUSH2 0x1C58 SWAP1 PUSH2 0x282D JUMP JUMPDEST PUSH1 0x40 MLOAD DUP1 SWAP2 SUB SWAP1 REVERT JUMPDEST PUSH2 0x1C75 PUSH8 0x1E4AE562F503EECD PUSH1 0xC0 SHL PUSH2 0x12EE JUMP JUMPDEST POP POP JUMP JUMPDEST PUSH1 0x0 PUSH1 0x1 SWAP1 POP SWAP2 SWAP1 POP JUMP JUMPDEST PUSH1 0x0 PUSH20 0xFFFFFFFFFFFFFFFFFFFFFFFFFFFFFFFFFFFFFFFF AND DUP5 PUSH20 0xFFFFFFFFFFFFFFFFFFFFFFFFFFFFFFFFFFFFFFFF AND SUB PUSH2 0x1CF6 JUMPI PUSH1 0x0 PUSH1 0x40 MLOAD PUSH32 0xE602DF0500000000000000000000000000000000000000000000000000000000 DUP2 MSTORE PUSH1 0x4 ADD PUSH2 0x1CED SWAP2 SWAP1 PUSH2 0x24D2 JUMP JUMPDEST PUSH1 0x40 MLOAD DUP1 SWAP2 SUB SWAP1 REVERT JUMPDEST PUSH1 0x0 PUSH20 0xFFFFFFFFFFFFFFFFFFFFFFFFFFFFFFFFFFFFFFFF AND DUP4 PUSH20 0xFFFFFFFFFFFFFFFFFFFFFFFFFFFFFFFFFFFFFFFF AND SUB PUSH2 0x1D68 JUMPI PUSH1 0x0 PUSH1 0x40 MLOAD PUSH32 0x94280D6200000000000000000000000000000000000000000000000000000000 DUP2 MSTORE PUSH1 0x4 ADD PUSH2 0x1D5F SWAP2 SWAP1 PUSH2 0x24D2 JUMP JUMPDEST PUSH1 0x40 MLOAD DUP1 SWAP2 SUB SWAP1 REVERT JUMPDEST DUP2 PUSH1 0x3 PUSH1 0x0 DUP7 PUSH20 0xFFFFFFFFFFFFFFFFFFFFFFFFFFFFFFFFFFFFFFFF AND PUSH20 0xFFFFFFFFFFFFFFFFFFFFFFFFFFFFFFFFFFFFFFFF AND DUP2 MSTORE PUSH1 0x20 ADD SWAP1 DUP2 MSTORE PUSH1 0x20 ADD PUSH1 0x0 KECCAK256 PUSH1 0x0 DUP6 PUSH20 0xFFFFFFFFFFFFFFFFFFFFFFFFFFFFFFFFFFFFFFFF AND PUSH20 0xFFFFFFFFFFFFFFFFFFFFFFFFFFFFFFFFFFFFFFFF AND DUP2 MSTORE PUSH1 0x20 ADD SWAP1 DUP2 MSTORE PUSH1 0x20 ADD PUSH1 0x0 KECCAK256 DUP2 SWAP1 SSTORE POP DUP1 ISZERO PUSH2 0x1E55 JUMPI DUP3 PUSH20 0xFFFFFFFFFFFFFFFFFFFFFFFFFFFFFFFFFFFFFFFF AND DUP5 PUSH20 0xFFFFFFFFFFFFFFFFFFFFFFFFFFFFFFFFFFFFFFFF AND PUSH32 0x8C5BE1E5EBEC7D5BD14F71427D1E84F3DD0314C0F7B2291E5B200AC8C7C3B925 DUP5 PUSH1 0x40 MLOAD PUSH2 0x1E4C SWAP2 SWAP1 PUSH2 0x23C4 JUMP JUMPDEST PUSH1 0x40 MLOAD DUP1 SWAP2 SUB SWAP1 LOG3 JUMPDEST POP POP POP POP JUMP JUMPDEST PUSH1 0x0 PUSH20 0xFFFFFFFFFFFFFFFFFFFFFFFFFFFFFFFFFFFFFFFF AND DUP4 PUSH20 0xFFFFFFFFFFFFFFFFFFFFFFFFFFFFFFFFFFFFFFFF AND SUB PUSH2 0x1EAD JUMPI DUP1 PUSH1 0x4 PUSH1 0x0 DUP3 DUP3 SLOAD PUSH2 0x1EA1 SWAP2 SWAP1 PUSH2 0x28AA JUMP JUMPDEST SWAP3 POP POP DUP2 SWAP1 SSTORE POP PUSH2 0x1F82 JUMP JUMPDEST PUSH1 0x0 PUSH1 0x2 PUSH1 0x0 DUP6 PUSH20 0xFFFFFFFFFFFFFFFFFFFFFFFFFFFFFFFFFFFFFFFF AND PUSH20 0xFFFFFFFFFFFFFFFFFFFFFFFFFFFFFFFFFFFFFFFF AND DUP2 MSTORE PUSH1 0x20 ADD SWAP1 DUP2 MSTORE PUSH1 0x20 ADD PUSH1 0x0 KECCAK256 SLOAD SWAP1 POP DUP2 DUP2 LT ISZERO PUSH2 0x1F3A JUMPI DUP4 DUP2 DUP4 PUSH1 0x40 MLOAD PUSH32 0xE450D38C00000000000000000000000000000000000000000000000000000000 DUP2 MSTORE PUSH1 0x4 ADD PUSH2 0x1F31 SWAP4 SWAP3 SWAP2 SWAP1 PUSH2 0x28DE JUMP JUMPDEST PUSH1 0x40 MLOAD DUP1 SWAP2 SUB SWAP1 REVERT JUMPDEST DUP2 DUP2 SUB PUSH1 0x2 PUSH1 0x0 DUP7 PUSH20 0xFFFFFFFFFFFFFFFFFFFFFFFFFFFFFFFFFFFFFFFF AND PUSH20 0xFFFFFFFFFFFFFFFFFFFFFFFFFFFFFFFFFFFFFFFF AND DUP2 MSTORE PUSH1 0x20 ADD SWAP1 DUP2 MSTORE PUSH1 0x20 ADD PUSH1 0x0 KECCAK256 DUP2 SWAP1 SSTORE POP POP JUMPDEST PUSH1 0x0 PUSH20 0xFFFFFFFFFFFFFFFFFFFFFFFFFFFFFFFFFFFFFFFF AND DUP3 PUSH20 0xFFFFFFFFFFFFFFFFFFFFFFFFFFFFFFFFFFFFFFFF AND SUB PUSH2 0x1FCB JUMPI DUP1 PUSH1 0x4 PUSH1 0x0 DUP3 DUP3 SLOAD SUB SWAP3 POP POP DUP2 SWAP1 SSTORE POP PUSH2 0x2019 JUMP JUMPDEST DUP1 PUSH1 0x2 PUSH1 0x0 DUP5 PUSH20 0xFFFFFFFFFFFFFFFFFFFFFFFFFFFFFFFFFFFFFFFF AND PUSH20 0xFFFFFFFFFFFFFFFFFFFFFFFFFFFFFFFFFFFFFFFF AND DUP2 MSTORE PUSH1 0x20 ADD SWAP1 DUP2 MSTORE PUSH1 0x20 ADD PUSH1 0x0 KECCAK256 PUSH1 0x0 DUP3 DUP3 SLOAD ADD SWAP3 POP POP DUP2 SWAP1 SSTORE POP JUMPDEST DUP2 PUSH20 0xFFFFFFFFFFFFFFFFFFFFFFFFFFFFFFFFFFFFFFFF AND DUP4 PUSH20 0xFFFFFFFFFFFFFFFFFFFFFFFFFFFFFFFFFFFFFFFF AND PUSH32 0xDDF252AD1BE2C89B69C2B068FC378DAA952BA7F163C4A11628F55A4DF523B3EF DUP4 PUSH1 0x40 MLOAD PUSH2 0x2076 SWAP2 SWAP1 PUSH2 0x23C4 JUMP JUMPDEST PUSH1 0x40 MLOAD DUP1 SWAP2 SUB SWAP1 LOG3 POP POP POP JUMP JUMPDEST PUSH2 0x211D DUP4 DUP4 DUP4 PUSH1 0x40 MLOAD PUSH1 0x24 ADD PUSH2 0x209B SWAP4 SWAP3 SWAP2 SWAP1 PUSH2 0x2A13 JUMP JUMPDEST PUSH1 0x40 MLOAD PUSH1 0x20 DUP2 DUP4 SUB SUB DUP2 MSTORE SWAP1 PUSH1 0x40 MSTORE PUSH32 0x37AA7D4C00000000000000000000000000000000000000000000000000000000 PUSH28 0xFFFFFFFFFFFFFFFFFFFFFFFFFFFFFFFFFFFFFFFFFFFFFFFFFFFFFFFF NOT AND PUSH1 0x20 DUP3 ADD DUP1 MLOAD PUSH28 0xFFFFFFFFFFFFFFFFFFFFFFFFFFFFFFFFFFFFFFFFFFFFFFFFFFFFFFFF DUP4 DUP2 DUP4 AND OR DUP4 MSTORE POP POP POP POP PUSH2 0x21A4 JUMP JUMPDEST POP POP POP JUMP JUMPDEST PUSH1 0x0 PUSH20 0xFFFFFFFFFFFFFFFFFFFFFFFFFFFFFFFFFFFFFFFF AND DUP3 PUSH20 0xFFFFFFFFFFFFFFFFFFFFFFFFFFFFFFFFFFFFFFFF AND SUB PUSH2 0x2194 JUMPI PUSH1 0x0 PUSH1 0x40 MLOAD PUSH32 0xEC442F0500000000000000000000000000000000000000000000000000000000 DUP2 MSTORE PUSH1 0x4 ADD PUSH2 0x218B SWAP2 SWAP1 PUSH2 0x24D2 JUMP JUMPDEST PUSH1 0x40 MLOAD DUP1 SWAP2 SUB SWAP1 REVERT JUMPDEST PUSH2 0x21A0 PUSH1 0x0 DUP4 DUP4 PUSH2 0x1E5B JUMP JUMPDEST POP POP JUMP JUMPDEST PUSH2 0x21BB DUP2 PUSH2 0x21B3 PUSH2 0x21BE PUSH2 0x21DF JUMP JUMPDEST PUSH4 0xFFFFFFFF AND JUMP JUMPDEST POP JUMP JUMPDEST PUSH1 0x0 PUSH11 0x636F6E736F6C652E6C6F67 SWAP1 POP PUSH1 0x0 DUP1 DUP4 MLOAD PUSH1 0x20 DUP6 ADD DUP5 GAS STATICCALL POP POP POP JUMP JUMPDEST PUSH2 0x21EA DUP2 SWAP1 POP SWAP2 SWAP1 POP JUMP JUMPDEST PUSH2 0x21F2 PUSH2 0x2A51 JUMP JUMPDEST JUMP JUMPDEST PUSH1 0x0 DUP2 MLOAD SWAP1 POP SWAP2 SWAP1 POP JUMP JUMPDEST PUSH1 0x0 DUP3 DUP3 MSTORE PUSH1 0x20 DUP3 ADD SWAP1 POP SWAP3 SWAP2 POP POP JUMP JUMPDEST PUSH1 0x0 JUMPDEST DUP4 DUP2 LT ISZERO PUSH2 0x222E JUMPI DUP1 DUP3 ADD MLOAD DUP2 DUP5 ADD MSTORE PUSH1 0x20 DUP2 ADD SWAP1 POP PUSH2 0x2213 JUMP JUMPDEST PUSH1 0x0 DUP5 DUP5 ADD MSTORE POP POP POP POP JUMP JUMPDEST PUSH1 0x0 PUSH1 0x1F NOT PUSH1 0x1F DUP4 ADD AND SWAP1 POP SWAP2 SWAP1 POP JUMP JUMPDEST PUSH1 0x0 PUSH2 0x2256 DUP3 PUSH2 0x21F4 JUMP JUMPDEST PUSH2 0x2260 DUP2 DUP6 PUSH2 0x21FF JUMP JUMPDEST SWAP4 POP PUSH2 0x2270 DUP2 DUP6 PUSH1 0x20 DUP7 ADD PUSH2 0x2210 JUMP JUMPDEST PUSH2 0x2279 DUP2 PUSH2 0x223A JUMP JUMPDEST DUP5 ADD SWAP2 POP POP SWAP3 SWAP2 POP POP JUMP JUMPDEST PUSH1 0x0 PUSH1 0x20 DUP3 ADD SWAP1 POP DUP2 DUP2 SUB PUSH1 0x0 DUP4 ADD MSTORE PUSH2 0x229E DUP2 DUP5 PUSH2 0x224B JUMP JUMPDEST SWAP1 POP SWAP3 SWAP2 POP POP JUMP JUMPDEST PUSH1 0x0 DUP1 REVERT JUMPDEST PUSH1 0x0 PUSH20 0xFFFFFFFFFFFFFFFFFFFFFFFFFFFFFFFFFFFFFFFF DUP3 AND SWAP1 POP SWAP2 SWAP1 POP JUMP JUMPDEST PUSH1 0x0 PUSH2 0x22D6 DUP3 PUSH2 0x22AB JUMP JUMPDEST SWAP1 POP SWAP2 SWAP1 POP JUMP JUMPDEST PUSH2 0x22E6 DUP2 PUSH2 0x22CB JUMP JUMPDEST DUP2 EQ PUSH2 0x22F1 JUMPI PUSH1 0x0 DUP1 REVERT JUMPDEST POP JUMP JUMPDEST PUSH1 0x0 DUP2 CALLDATALOAD SWAP1 POP PUSH2 0x2303 DUP2 PUSH2 0x22DD JUMP JUMPDEST SWAP3 SWAP2 POP POP JUMP JUMPDEST PUSH1 0x0 DUP2 SWAP1 POP SWAP2 SWAP1 POP JUMP JUMPDEST PUSH2 0x231C DUP2 PUSH2 0x2309 JUMP JUMPDEST DUP2 EQ PUSH2 0x2327 JUMPI PUSH1 0x0 DUP1 REVERT JUMPDEST POP JUMP JUMPDEST PUSH1 0x0 DUP2 CALLDATALOAD SWAP1 POP PUSH2 0x2339 DUP2 PUSH2 0x2313 JUMP JUMPDEST SWAP3 SWAP2 POP POP JUMP JUMPDEST PUSH1 0x0 DUP1 PUSH1 0x40 DUP4 DUP6 SUB SLT ISZERO PUSH2 0x2356 JUMPI PUSH2 0x2355 PUSH2 0x22A6 JUMP JUMPDEST JUMPDEST PUSH1 0x0 PUSH2 0x2364 DUP6 DUP3 DUP7 ADD PUSH2 0x22F4 JUMP JUMPDEST SWAP3 POP POP PUSH1 0x20 PUSH2 0x2375 DUP6 DUP3 DUP7 ADD PUSH2 0x232A JUMP JUMPDEST SWAP2 POP POP SWAP3 POP SWAP3 SWAP1 POP JUMP JUMPDEST PUSH1 0x0 DUP2 ISZERO ISZERO SWAP1 POP SWAP2 SWAP1 POP JUMP JUMPDEST PUSH2 0x2394 DUP2 PUSH2 0x237F JUMP JUMPDEST DUP3 MSTORE POP POP JUMP JUMPDEST PUSH1 0x0 PUSH1 0x20 DUP3 ADD SWAP1 POP PUSH2 0x23AF PUSH1 0x0 DUP4 ADD DUP5 PUSH2 0x238B JUMP JUMPDEST SWAP3 SWAP2 POP POP JUMP JUMPDEST PUSH2 0x23BE DUP2 PUSH2 0x2309 JUMP JUMPDEST DUP3 MSTORE POP POP JUMP JUMPDEST PUSH1 0x0 PUSH1 0x20 DUP3 ADD SWAP1 POP PUSH2 0x23D9 PUSH1 0x0 DUP4 ADD DUP5 PUSH2 0x23B5 JUMP JUMPDEST SWAP3 SWAP2 POP POP JUMP JUMPDEST PUSH1 0x0 DUP1 PUSH1 0x0 PUSH1 0x60 DUP5 DUP7 SUB SLT ISZERO PUSH2 0x23F8 JUMPI PUSH2 0x23F7 PUSH2 0x22A6 JUMP JUMPDEST JUMPDEST PUSH1 0x0 PUSH2 0x2406 DUP7 DUP3 DUP8 ADD PUSH2 0x22F4 JUMP JUMPDEST SWAP4 POP POP PUSH1 0x20 PUSH2 0x2417 DUP7 DUP3 DUP8 ADD PUSH2 0x22F4 JUMP JUMPDEST SWAP3 POP POP PUSH1 0x40 PUSH2 0x2428 DUP7 DUP3 DUP8 ADD PUSH2 0x232A JUMP JUMPDEST SWAP2 POP POP SWAP3 POP SWAP3 POP SWAP3 JUMP JUMPDEST PUSH1 0x0 PUSH1 0xFF DUP3 AND SWAP1 POP SWAP2 SWAP1 POP JUMP JUMPDEST PUSH2 0x2448 DUP2 PUSH2 0x2432 JUMP JUMPDEST DUP3 MSTORE POP POP JUMP JUMPDEST PUSH1 0x0 PUSH1 0x20 DUP3 ADD SWAP1 POP PUSH2 0x2463 PUSH1 0x0 DUP4 ADD DUP5 PUSH2 0x243F JUMP JUMPDEST SWAP3 SWAP2 POP POP JUMP JUMPDEST PUSH1 0x0 PUSH1 0x20 DUP3 DUP5 SUB SLT ISZERO PUSH2 0x247F JUMPI PUSH2 0x247E PUSH2 0x22A6 JUMP JUMPDEST JUMPDEST PUSH1 0x0 PUSH2 0x248D DUP5 DUP3 DUP6 ADD PUSH2 0x232A JUMP JUMPDEST SWAP2 POP POP SWAP3 SWAP2 POP POP JUMP JUMPDEST PUSH1 0x0 PUSH1 0x20 DUP3 DUP5 SUB SLT ISZERO PUSH2 0x24AC JUMPI PUSH2 0x24AB PUSH2 0x22A6 JUMP JUMPDEST JUMPDEST PUSH1 0x0 PUSH2 0x24BA DUP5 DUP3 DUP6 ADD PUSH2 0x22F4 JUMP JUMPDEST SWAP2 POP POP SWAP3 SWAP2 POP POP JUMP JUMPDEST PUSH2 0x24CC DUP2 PUSH2 0x22CB JUMP JUMPDEST DUP3 MSTORE POP POP JUMP JUMPDEST PUSH1 0x0 PUSH1 0x20 DUP3 ADD SWAP1 POP PUSH2 0x24E7 PUSH1 0x0 DUP4 ADD DUP5 PUSH2 0x24C3 JUMP JUMPDEST SWAP3 SWAP2 POP POP JUMP JUMPDEST PUSH1 0x0 PUSH1 0x40 DUP3 ADD SWAP1 POP PUSH2 0x2502 PUSH1 0x0 DUP4 ADD DUP6 PUSH2 0x23B5 JUMP JUMPDEST PUSH2 0x250F PUSH1 0x20 DUP4 ADD DUP5 PUSH2 0x23B5 JUMP JUMPDEST SWAP4 SWAP3 POP POP POP JUMP JUMPDEST PUSH1 0x0 PUSH2 0x2521 DUP3 PUSH2 0x22AB JUMP JUMPDEST SWAP1 POP SWAP2 SWAP1 POP JUMP JUMPDEST PUSH2 0x2531 DUP2 PUSH2 0x2516 JUMP JUMPDEST DUP3 MSTORE POP POP JUMP JUMPDEST PUSH1 0x0 PUSH1 0x20 DUP3 ADD SWAP1 POP PUSH2 0x254C PUSH1 0x0 DUP4 ADD DUP5 PUSH2 0x2528 JUMP JUMPDEST SWAP3 SWAP2 POP POP JUMP JUMPDEST PUSH1 0x0 DUP1 PUSH1 0x40 DUP4 DUP6 SUB SLT ISZERO PUSH2 0x2569 JUMPI PUSH2 0x2568 PUSH2 0x22A6 JUMP JUMPDEST JUMPDEST PUSH1 0x0 PUSH2 0x2577 DUP6 DUP3 DUP7 ADD PUSH2 0x22F4 JUMP JUMPDEST SWAP3 POP POP PUSH1 0x20 PUSH2 0x2588 DUP6 DUP3 DUP7 ADD PUSH2 0x22F4 JUMP JUMPDEST SWAP2 POP POP SWAP3 POP SWAP3 SWAP1 POP JUMP JUMPDEST PUSH32 0x4E487B7100000000000000000000000000000000000000000000000000000000 PUSH1 0x0 MSTORE PUSH1 0x22 PUSH1 0x4 MSTORE PUSH1 0x24 PUSH1 0x0 REVERT JUMPDEST PUSH1 0x0 PUSH1 0x2 DUP3 DIV SWAP1 POP PUSH1 0x1 DUP3 AND DUP1 PUSH2 0x25D9 JUMPI PUSH1 0x7F DUP3 AND SWAP2 POP JUMPDEST PUSH1 0x20 DUP3 LT DUP2 SUB PUSH2 0x25EC JUMPI PUSH2 0x25EB PUSH2 0x2592 JUMP JUMPDEST JUMPDEST POP SWAP2 SWAP1 POP JUMP JUMPDEST PUSH32 0x56657374696E6720706572696F64206973206E6F74206F766572000000000000 PUSH1 0x0 DUP3 ADD MSTORE POP JUMP JUMPDEST PUSH1 0x0 PUSH2 0x2628 PUSH1 0x1A DUP4 PUSH2 0x21FF JUMP JUMPDEST SWAP2 POP PUSH2 0x2633 DUP3 PUSH2 0x25F2 JUMP JUMPDEST PUSH1 0x20 DUP3 ADD SWAP1 POP SWAP2 SWAP1 POP JUMP JUMPDEST PUSH1 0x0 PUSH1 0x20 DUP3 ADD SWAP1 POP DUP2 DUP2 SUB PUSH1 0x0 DUP4 ADD MSTORE PUSH2 0x2657 DUP2 PUSH2 0x261B JUMP JUMPDEST SWAP1 POP SWAP2 SWAP1 POP JUMP JUMPDEST PUSH32 0x416D6F756E74206D757374206265206174206C65617374203120736861726500 PUSH1 0x0 DUP3 ADD MSTORE POP JUMP JUMPDEST PUSH1 0x0 PUSH2 0x2694 PUSH1 0x1F DUP4 PUSH2 0x21FF JUMP JUMPDEST SWAP2 POP PUSH2 0x269F DUP3 PUSH2 0x265E JUMP JUMPDEST PUSH1 0x20 DUP3 ADD SWAP1 POP SWAP2 SWAP1 POP JUMP JUMPDEST PUSH1 0x0 PUSH1 0x20 DUP3 ADD SWAP1 POP DUP2 DUP2 SUB PUSH1 0x0 DUP4 ADD MSTORE PUSH2 0x26C3 DUP2 PUSH2 0x2687 JUMP JUMPDEST SWAP1 POP SWAP2 SWAP1 POP JUMP JUMPDEST PUSH32 0x4E487B7100000000000000000000000000000000000000000000000000000000 PUSH1 0x0 MSTORE PUSH1 0x12 PUSH1 0x4 MSTORE PUSH1 0x24 PUSH1 0x0 REVERT JUMPDEST PUSH32 0x4E487B7100000000000000000000000000000000000000000000000000000000 PUSH1 0x0 MSTORE PUSH1 0x11 PUSH1 0x4 MSTORE PUSH1 0x24 PUSH1 0x0 REVERT JUMPDEST PUSH1 0x0 PUSH2 0x2733 DUP3 PUSH2 0x2309 JUMP JUMPDEST SWAP2 POP PUSH2 0x273E DUP4 PUSH2 0x2309 JUMP JUMPDEST SWAP3 POP DUP3 PUSH2 0x274E JUMPI PUSH2 0x274D PUSH2 0x26CA JUMP JUMPDEST JUMPDEST DUP3 DUP3 DIV SWAP1 POP SWAP3 SWAP2 POP POP JUMP JUMPDEST PUSH1 0x0 PUSH2 0x2764 DUP3 PUSH2 0x2309 JUMP JUMPDEST SWAP2 POP PUSH2 0x276F DUP4 PUSH2 0x2309 JUMP JUMPDEST SWAP3 POP DUP3 DUP3 MUL PUSH2 0x277D DUP2 PUSH2 0x2309 JUMP JUMPDEST SWAP2 POP DUP3 DUP3 DIV DUP5 EQ DUP4 ISZERO OR PUSH2 0x2794 JUMPI PUSH2 0x2793 PUSH2 0x26F9 JUMP JUMPDEST JUMPDEST POP SWAP3 SWAP2 POP POP JUMP JUMPDEST PUSH1 0x0 DUP2 SWAP1 POP SWAP3 SWAP2 POP POP JUMP JUMPDEST POP JUMP JUMPDEST PUSH1 0x0 PUSH2 0x27B6 PUSH1 0x0 DUP4 PUSH2 0x279B JUMP JUMPDEST SWAP2 POP PUSH2 0x27C1 DUP3 PUSH2 0x27A6 JUMP JUMPDEST PUSH1 0x0 DUP3 ADD SWAP1 POP SWAP2 SWAP1 POP JUMP JUMPDEST PUSH1 0x0 PUSH2 0x27D7 DUP3 PUSH2 0x27A9 JUMP JUMPDEST SWAP2 POP DUP2 SWAP1 POP SWAP2 SWAP1 POP JUMP JUMPDEST PUSH32 0x4661696C656420746F2073656E64204574686572000000000000000000000000 PUSH1 0x0 DUP3 ADD MSTORE POP JUMP JUMPDEST PUSH1 0x0 PUSH2 0x2817 PUSH1 0x14 DUP4 PUSH2 0x21FF JUMP JUMPDEST SWAP2 POP PUSH2 0x2822 DUP3 PUSH2 0x27E1 JUMP JUMPDEST PUSH1 0x20 DUP3 ADD SWAP1 POP SWAP2 SWAP1 POP JUMP JUMPDEST PUSH1 0x0 PUSH1 0x20 DUP3 ADD SWAP1 POP DUP2 DUP2 SUB PUSH1 0x0 DUP4 ADD MSTORE PUSH2 0x2846 DUP2 PUSH2 0x280A JUMP JUMPDEST SWAP1 POP SWAP2 SWAP1 POP JUMP JUMPDEST PUSH1 0x0 PUSH1 0x40 DUP3 ADD SWAP1 POP PUSH2 0x2862 PUSH1 0x0 DUP4 ADD DUP6 PUSH2 0x24C3 JUMP JUMPDEST PUSH2 0x286F PUSH1 0x20 DUP4 ADD DUP5 PUSH2 0x23B5 JUMP JUMPDEST SWAP4 SWAP3 POP POP POP JUMP JUMPDEST PUSH1 0x0 PUSH2 0x2881 DUP3 PUSH2 0x2309 JUMP JUMPDEST SWAP2 POP PUSH2 0x288C DUP4 PUSH2 0x2309 JUMP JUMPDEST SWAP3 POP DUP3 DUP3 SUB SWAP1 POP DUP2 DUP2 GT ISZERO PUSH2 0x28A4 JUMPI PUSH2 0x28A3 PUSH2 0x26F9 JUMP JUMPDEST JUMPDEST SWAP3 SWAP2 POP POP JUMP JUMPDEST PUSH1 0x0 PUSH2 0x28B5 DUP3 PUSH2 0x2309 JUMP JUMPDEST SWAP2 POP PUSH2 0x28C0 DUP4 PUSH2 0x2309 JUMP JUMPDEST SWAP3 POP DUP3 DUP3 ADD SWAP1 POP DUP1 DUP3 GT ISZERO PUSH2 0x28D8 JUMPI PUSH2 0x28D7 PUSH2 0x26F9 JUMP JUMPDEST JUMPDEST SWAP3 SWAP2 POP POP JUMP JUMPDEST PUSH1 0x0 PUSH1 0x60 DUP3 ADD SWAP1 POP PUSH2 0x28F3 PUSH1 0x0 DUP4 ADD DUP7 PUSH2 0x24C3 JUMP JUMPDEST PUSH2 0x2900 PUSH1 0x20 DUP4 ADD DUP6 PUSH2 0x23B5 JUMP JUMPDEST PUSH2 0x290D PUSH1 0x40 DUP4 ADD DUP5 PUSH2 0x23B5 JUMP JUMPDEST SWAP5 SWAP4 POP POP POP POP JUMP JUMPDEST PUSH32 0x496E76616C696420616D6F756E74206F66206574686572000000000000000000 PUSH1 0x0 DUP3 ADD MSTORE POP JUMP JUMPDEST PUSH1 0x0 PUSH2 0x294B PUSH1 0x17 DUP4 PUSH2 0x21FF JUMP JUMPDEST SWAP2 POP PUSH2 0x2956 DUP3 PUSH2 0x2915 JUMP JUMPDEST PUSH1 0x20 DUP3 ADD SWAP1 POP SWAP2 SWAP1 POP JUMP JUMPDEST PUSH1 0x0 PUSH1 0x20 DUP3 ADD SWAP1 POP DUP2 DUP2 SUB PUSH1 0x0 DUP4 ADD MSTORE PUSH2 0x297A DUP2 PUSH2 0x293E JUMP JUMPDEST SWAP1 POP SWAP2 SWAP1 POP JUMP JUMPDEST PUSH32 0x416D6F756E7420657863656564696E6720617661696C61626C6520737570706C PUSH1 0x0 DUP3 ADD MSTORE PUSH32 0x7900000000000000000000000000000000000000000000000000000000000000 PUSH1 0x20 DUP3 ADD MSTORE POP JUMP JUMPDEST PUSH1 0x0 PUSH2 0x29DD PUSH1 0x21 DUP4 PUSH2 0x21FF JUMP JUMPDEST SWAP2 POP PUSH2 0x29E8 DUP3 PUSH2 0x2981 JUMP JUMPDEST PUSH1 0x40 DUP3 ADD SWAP1 POP SWAP2 SWAP1 POP JUMP JUMPDEST PUSH1 0x0 PUSH1 0x20 DUP3 ADD SWAP1 POP DUP2 DUP2 SUB PUSH1 0x0 DUP4 ADD MSTORE PUSH2 0x2A0C DUP2 PUSH2 0x29D0 JUMP JUMPDEST SWAP1 POP SWAP2 SWAP1 POP JUMP JUMPDEST PUSH1 0x0 PUSH1 0x60 DUP3 ADD SWAP1 POP PUSH2 0x2A28 PUSH1 0x0 DUP4 ADD DUP7 PUSH2 0x23B5 JUMP JUMPDEST DUP2 DUP2 SUB PUSH1 0x20 DUP4 ADD MSTORE PUSH2 0x2A3A DUP2 DUP6 PUSH2 0x224B JUMP JUMPDEST SWAP1 POP PUSH2 0x2A49 PUSH1 0x40 DUP4 ADD DUP5 PUSH2 0x23B5 JUMP JUMPDEST SWAP5 SWAP4 POP POP POP POP JUMP JUMPDEST PUSH32 0x4E487B7100000000000000000000000000000000000000000000000000000000 PUSH1 0x0 MSTORE PUSH1 0x51 PUSH1 0x4 MSTORE PUSH1 0x24 PUSH1 0x0 REVERT INVALID LOG2 PUSH5 0x6970667358 0x22 SLT KECCAK256 LOG2 0xBB BALANCE PUSH8 0x3425C3A16335905D 0x4C 0xCE PUSH4 0x45DB27B5 0xDB PUSH27 0x98837C10149B9ED0E6D02B64736F6C634300081500330000000000 "},"methodIdentifiers":{"allowance(address,address)":"dd62ed3e","approve(address,uint256)":"095ea7b3","availableShares()":"a173f79e","balanceOf(address)":"70a08231","buyShares(uint256)":"d1a93d18","currentShareValue(uint256)":"d224ca78","decimals()":"313ce567","developer()":"ca4b208b","initialSharePrice()":"5f3e364a","maxAmountOfShares()":"defbbb68","name()":"06fdde03","owner()":"8da5cb5b","renounceOwnership()":"715018a6","sellShares(uint256)":"4ba8ae81","symbol()":"95d89b41","totalSupply()":"18160ddd","transfer(address,uint256)":"a9059cbb","transferFrom(address,address,uint256)":"23b872dd","transferOwnership(address)":"f2fde38b","vestingPeriodEnd()":"9e462fc7"}}}}}