{
  "_format": "hh-sol-artifact-1",
  "contractName": "WorldWideWeb3",
  "sourceName": "contracts/WorldWideWeb3.sol",
  "abi": [
    {
      "inputs": [
        {
          "internalType": "string",
          "name": "_name",
          "type": "string"
        },
        {
          "internalType": "string",
          "name": "_version",
          "type": "string"
        },
        {
          "internalType": "address",
          "name": "_validator",
          "type": "address"
        },
        {
          "internalType": "string",
          "name": "_tokenName",
          "type": "string"
        },
        {
          "internalType": "string",
          "name": "_tokenSymbol",
          "type": "string"
        }
      ],
      "stateMutability": "nonpayable",
      "type": "constructor"
    },
    {
      "anonymous": false,
      "inputs": [
        {
          "indexed": true,
          "internalType": "address",
          "name": "owner",
          "type": "address"
        },
        {
          "indexed": true,
          "internalType": "address",
          "name": "spender",
          "type": "address"
        },
        {
          "indexed": false,
          "internalType": "uint256",
          "name": "value",
          "type": "uint256"
        }
      ],
      "name": "Approval",
      "type": "event"
    },
    {
      "anonymous": false,
      "inputs": [
        {
          "indexed": false,
          "internalType": "bool",
          "name": "started",
          "type": "bool"
        }
      ],
      "name": "MintStarted",
      "type": "event"
    },
    {
      "anonymous": false,
      "inputs": [
        {
          "indexed": false,
          "internalType": "address",
          "name": "account",
          "type": "address"
        },
        {
          "indexed": false,
          "internalType": "uint256",
          "name": "amount",
          "type": "uint256"
        }
      ],
      "name": "Minter",
      "type": "event"
    },
    {
      "anonymous": false,
      "inputs": [
        {
          "indexed": true,
          "internalType": "address",
          "name": "previousOwner",
          "type": "address"
        },
        {
          "indexed": true,
          "internalType": "address",
          "name": "newOwner",
          "type": "address"
        }
      ],
      "name": "OwnershipTransferred",
      "type": "event"
    },
    {
      "anonymous": false,
      "inputs": [
        {
          "indexed": false,
          "internalType": "address",
          "name": "account",
          "type": "address"
        },
        {
          "indexed": false,
          "internalType": "uint256",
          "name": "tier",
          "type": "uint256"
        }
      ],
      "name": "Signer",
      "type": "event"
    },
    {
      "anonymous": false,
      "inputs": [
        {
          "indexed": true,
          "internalType": "address",
          "name": "from",
          "type": "address"
        },
        {
          "indexed": true,
          "internalType": "address",
          "name": "to",
          "type": "address"
        },
        {
          "indexed": false,
          "internalType": "uint256",
          "name": "value",
          "type": "uint256"
        }
      ],
      "name": "Transfer",
      "type": "event"
    },
    {
      "inputs": [],
      "name": "_getChainId",
      "outputs": [
        {
          "internalType": "uint256",
          "name": "chainId",
          "type": "uint256"
        }
      ],
      "stateMutability": "view",
      "type": "function"
    },
    {
      "inputs": [
        {
          "internalType": "address",
          "name": "owner",
          "type": "address"
        },
        {
          "internalType": "address",
          "name": "spender",
          "type": "address"
        }
      ],
      "name": "allowance",
      "outputs": [
        {
          "internalType": "uint256",
          "name": "",
          "type": "uint256"
        }
      ],
      "stateMutability": "view",
      "type": "function"
    },
    {
      "inputs": [
        {
          "internalType": "address",
          "name": "spender",
          "type": "address"
        },
        {
          "internalType": "uint256",
          "name": "amount",
          "type": "uint256"
        }
      ],
      "name": "approve",
      "outputs": [
        {
          "internalType": "bool",
          "name": "",
          "type": "bool"
        }
      ],
      "stateMutability": "nonpayable",
      "type": "function"
    },
    {
      "inputs": [
        {
          "internalType": "address",
          "name": "account",
          "type": "address"
        }
      ],
      "name": "balanceOf",
      "outputs": [
        {
          "internalType": "uint256",
          "name": "",
          "type": "uint256"
        }
      ],
      "stateMutability": "view",
      "type": "function"
    },
    {
      "inputs": [],
      "name": "decimals",
      "outputs": [
        {
          "internalType": "uint8",
          "name": "",
          "type": "uint8"
        }
      ],
      "stateMutability": "view",
      "type": "function"
    },
    {
      "inputs": [
        {
          "internalType": "address",
          "name": "spender",
          "type": "address"
        },
        {
          "internalType": "uint256",
          "name": "subtractedValue",
          "type": "uint256"
        }
      ],
      "name": "decreaseAllowance",
      "outputs": [
        {
          "internalType": "bool",
          "name": "",
          "type": "bool"
        }
      ],
      "stateMutability": "nonpayable",
      "type": "function"
    },
    {
      "inputs": [
        {
          "internalType": "address",
          "name": "",
          "type": "address"
        }
      ],
      "name": "frensTrust",
      "outputs": [
        {
          "internalType": "uint256",
          "name": "",
          "type": "uint256"
        }
      ],
      "stateMutability": "view",
      "type": "function"
    },
    {
      "inputs": [
        {
          "internalType": "address",
          "name": "spender",
          "type": "address"
        },
        {
          "internalType": "uint256",
          "name": "addedValue",
          "type": "uint256"
        }
      ],
      "name": "increaseAllowance",
      "outputs": [
        {
          "internalType": "bool",
          "name": "",
          "type": "bool"
        }
      ],
      "stateMutability": "nonpayable",
      "type": "function"
    },
    {
      "inputs": [],
      "name": "mintStarted",
      "outputs": [
        {
          "internalType": "bool",
          "name": "",
          "type": "bool"
        }
      ],
      "stateMutability": "view",
      "type": "function"
    },
    {
      "inputs": [],
      "name": "mintTrust",
      "outputs": [],
      "stateMutability": "nonpayable",
      "type": "function"
    },
    {
      "inputs": [],
      "name": "name",
      "outputs": [
        {
          "internalType": "string",
          "name": "",
          "type": "string"
        }
      ],
      "stateMutability": "view",
      "type": "function"
    },
    {
      "inputs": [],
      "name": "owner",
      "outputs": [
        {
          "internalType": "address",
          "name": "",
          "type": "address"
        }
      ],
      "stateMutability": "view",
      "type": "function"
    },
    {
      "inputs": [],
      "name": "renounceOwnership",
      "outputs": [],
      "stateMutability": "nonpayable",
      "type": "function"
    },
    {
      "inputs": [],
      "name": "startMint",
      "outputs": [],
      "stateMutability": "nonpayable",
      "type": "function"
    },
    {
      "inputs": [
        {
          "internalType": "string",
          "name": "message",
          "type": "string"
        },
        {
          "internalType": "string",
          "name": "latitude",
          "type": "string"
        },
        {
          "internalType": "string",
          "name": "longitude",
          "type": "string"
        },
        {
          "internalType": "uint256",
          "name": "deadline",
          "type": "uint256"
        },
        {
          "internalType": "uint256",
          "name": "tier",
          "type": "uint256"
        },
        {
          "internalType": "bytes",
          "name": "signature",
          "type": "bytes"
        },
        {
          "internalType": "bytes",
          "name": "validatorSignature",
          "type": "bytes"
        }
      ],
      "name": "submitMessage",
      "outputs": [],
      "stateMutability": "payable",
      "type": "function"
    },
    {
      "inputs": [],
      "name": "symbol",
      "outputs": [
        {
          "internalType": "string",
          "name": "",
          "type": "string"
        }
      ],
      "stateMutability": "view",
      "type": "function"
    },
    {
      "inputs": [
        {
          "internalType": "uint256",
          "name": "",
          "type": "uint256"
        }
      ],
      "name": "tierPrice",
      "outputs": [
        {
          "internalType": "uint256",
          "name": "",
          "type": "uint256"
        }
      ],
      "stateMutability": "view",
      "type": "function"
    },
    {
      "inputs": [],
      "name": "totalSupply",
      "outputs": [
        {
          "internalType": "uint256",
          "name": "",
          "type": "uint256"
        }
      ],
      "stateMutability": "view",
      "type": "function"
    },
    {
      "inputs": [
        {
          "internalType": "address",
          "name": "to",
          "type": "address"
        },
        {
          "internalType": "uint256",
          "name": "amount",
          "type": "uint256"
        }
      ],
      "name": "transfer",
      "outputs": [
        {
          "internalType": "bool",
          "name": "",
          "type": "bool"
        }
      ],
      "stateMutability": "nonpayable",
      "type": "function"
    },
    {
      "inputs": [
        {
          "internalType": "address",
          "name": "from",
          "type": "address"
        },
        {
          "internalType": "address",
          "name": "to",
          "type": "address"
        },
        {
          "internalType": "uint256",
          "name": "amount",
          "type": "uint256"
        }
      ],
      "name": "transferFrom",
      "outputs": [
        {
          "internalType": "bool",
          "name": "",
          "type": "bool"
        }
      ],
      "stateMutability": "nonpayable",
      "type": "function"
    },
    {
      "inputs": [
        {
          "internalType": "address",
          "name": "newOwner",
          "type": "address"
        }
      ],
      "name": "transferOwnership",
      "outputs": [],
      "stateMutability": "nonpayable",
      "type": "function"
    },
    {
      "inputs": [
        {
          "internalType": "string",
          "name": "message",
          "type": "string"
        },
        {
          "internalType": "string",
          "name": "latitude",
          "type": "string"
        },
        {
          "internalType": "string",
          "name": "longitude",
          "type": "string"
        },
        {
          "internalType": "uint256",
          "name": "time",
          "type": "uint256"
        },
        {
          "internalType": "uint256",
          "name": "tier",
          "type": "uint256"
        },
        {
          "internalType": "bytes",
          "name": "_signature",
          "type": "bytes"
        }
      ],
      "name": "validateMessage",
      "outputs": [
        {
          "internalType": "address",
          "name": "",
          "type": "address"
        }
      ],
      "stateMutability": "view",
      "type": "function"
    },
    {
      "inputs": [],
      "name": "validator",
      "outputs": [
        {
          "internalType": "address",
          "name": "",
          "type": "address"
        }
      ],
      "stateMutability": "view",
      "type": "function"
    }
  ],
  "bytecode": "0x61014060405234801562000011575f80fd5b506040516200357f3803806200357f83398181016040528101906200003791906200059c565b8484818185856200005d620000516200023660201b60201c565b6200023d60201b60201c565b81600490816200006e9190620008d3565b508060059081620000809190620008d3565b5050505f828051906020012090505f828051906020012090505f7f8b73c3c69bb8fe3d512ecc4cf759cc79239f7b179b0ffacaa9a75d522b39400f90508260e081815250508161010081815250504660a08181525050620000e9818484620002fe60201b60201c565b608081815250503073ffffffffffffffffffffffffffffffffffffffff1660c08173ffffffffffffffffffffffffffffffffffffffff168152505080610120818152505050505050506200018860405180608001604052808481526020018381526020016200015d6200033960201b60201c565b81526020013073ffffffffffffffffffffffffffffffffffffffff168152506200034060201b60201c565b6006819055505050660aa87bee53800060095f600181526020019081526020015f2081905550666a94d74f43000060095f600281526020019081526020015f2081905550670429d069189e000060095f600381526020019081526020015f20819055508260075f6101000a81548173ffffffffffffffffffffffffffffffffffffffff021916908373ffffffffffffffffffffffffffffffffffffffff160217905550505050505062000a4e565b5f33905090565b5f805f9054906101000a900473ffffffffffffffffffffffffffffffffffffffff169050815f806101000a81548173ffffffffffffffffffffffffffffffffffffffff021916908373ffffffffffffffffffffffffffffffffffffffff1602179055508173ffffffffffffffffffffffffffffffffffffffff168173ffffffffffffffffffffffffffffffffffffffff167f8be0079c531659141344cd1fd0a4f28419497f9722a3daafe3b4186f6b6457e060405160405180910390a35050565b5f83838346306040516020016200031a959493929190620009f3565b6040516020818303038152906040528051906020012090509392505050565b5f46905090565b5f7f8b73c3c69bb8fe3d512ecc4cf759cc79239f7b179b0ffacaa9a75d522b39400f825f0151805190602001208360200151805190602001208460400151856060015160405160200162000399959493929190620009f3565b604051602081830303815290604052805190602001209050919050565b5f604051905090565b5f80fd5b5f80fd5b5f80fd5b5f80fd5b5f601f19601f8301169050919050565b7f4e487b71000000000000000000000000000000000000000000000000000000005f52604160045260245ffd5b6200041782620003cf565b810181811067ffffffffffffffff82111715620004395762000438620003df565b5b80604052505050565b5f6200044d620003b6565b90506200045b82826200040c565b919050565b5f67ffffffffffffffff8211156200047d576200047c620003df565b5b6200048882620003cf565b9050602081019050919050565b5f5b83811015620004b457808201518184015260208101905062000497565b5f8484015250505050565b5f620004d5620004cf8462000460565b62000442565b905082815260208101848484011115620004f457620004f3620003cb565b5b6200050184828562000495565b509392505050565b5f82601f83011262000520576200051f620003c7565b5b815162000532848260208601620004bf565b91505092915050565b5f73ffffffffffffffffffffffffffffffffffffffff82169050919050565b5f62000566826200053b565b9050919050565b62000578816200055a565b811462000583575f80fd5b50565b5f8151905062000596816200056d565b92915050565b5f805f805f60a08688031215620005b857620005b7620003bf565b5b5f86015167ffffffffffffffff811115620005d857620005d7620003c3565b5b620005e68882890162000509565b955050602086015167ffffffffffffffff8111156200060a5762000609620003c3565b5b620006188882890162000509565b94505060406200062b8882890162000586565b935050606086015167ffffffffffffffff8111156200064f576200064e620003c3565b5b6200065d8882890162000509565b925050608086015167ffffffffffffffff811115620006815762000680620003c3565b5b6200068f8882890162000509565b9150509295509295909350565b5f81519050919050565b7f4e487b71000000000000000000000000000000000000000000000000000000005f52602260045260245ffd5b5f6002820490506001821680620006eb57607f821691505b602082108103620007015762000700620006a6565b5b50919050565b5f819050815f5260205f209050919050565b5f6020601f8301049050919050565b5f82821b905092915050565b5f60088302620007657fffffffffffffffffffffffffffffffffffffffffffffffffffffffffffffffff8262000728565b62000771868362000728565b95508019841693508086168417925050509392505050565b5f819050919050565b5f819050919050565b5f620007bb620007b5620007af8462000789565b62000792565b62000789565b9050919050565b5f819050919050565b620007d6836200079b565b620007ee620007e582620007c2565b84845462000734565b825550505050565b5f90565b62000804620007f6565b62000811818484620007cb565b505050565b5b8181101562000838576200082c5f82620007fa565b60018101905062000817565b5050565b601f8211156200088757620008518162000707565b6200085c8462000719565b810160208510156200086c578190505b620008846200087b8562000719565b83018262000816565b50505b505050565b5f82821c905092915050565b5f620008a95f19846008026200088c565b1980831691505092915050565b5f620008c3838362000898565b9150826002028217905092915050565b620008de826200069c565b67ffffffffffffffff811115620008fa57620008f9620003df565b5b620009068254620006d3565b620009138282856200083c565b5f60209050601f83116001811462000949575f841562000934578287015190505b620009408582620008b6565b865550620009af565b601f198416620009598662000707565b5f5b8281101562000982578489015182556001820191506020850194506020810190506200095b565b86831015620009a257848901516200099e601f89168262000898565b8355505b6001600288020188555050505b505050505050565b5f819050919050565b620009cb81620009b7565b82525050565b620009dc8162000789565b82525050565b620009ed816200055a565b82525050565b5f60a08201905062000a085f830188620009c0565b62000a176020830187620009c0565b62000a266040830186620009c0565b62000a356060830185620009d1565b62000a446080830184620009e2565b9695505050505050565b60805160a05160c05160e0516101005161012051612afb62000a845f395f50505f50505f50505f50505f50505f5050612afb5ff3fe60806040526004361061013f575f3560e01c8063715018a6116100b5578063a9059cbb1161006e578063a9059cbb1461044f578063a9722cf31461048b578063d97cb71f146104b5578063dd62ed3e146104d1578063f2fde38b1461050d578063fa09da07146105355761013f565b8063715018a61461033157806372e09af214610347578063826d3379146103835780638da5cb5b146103bf57806395d89b41146103e9578063a457c2d7146104135761013f565b80632be09561116101075780632be0956114610239578063313ce5671461024f57806339509351146102795780633a5381b5146102b557806359b7df70146102df57806370a08231146102f55761013f565b806302346b051461014357806306fdde031461016d578063095ea7b31461019757806318160ddd146101d357806323b872dd146101fd575b5f80fd5b34801561014e575f80fd5b50610157610571565b60405161016491906118e2565b60405180910390f35b348015610178575f80fd5b50610181610578565b60405161018e9190611985565b60405180910390f35b3480156101a2575f80fd5b506101bd60048036038101906101b89190611a3a565b610608565b6040516101ca9190611a92565b60405180910390f35b3480156101de575f80fd5b506101e761062a565b6040516101f491906118e2565b60405180910390f35b348015610208575f80fd5b50610223600480360381019061021e9190611aab565b610633565b6040516102309190611a92565b60405180910390f35b348015610244575f80fd5b5061024d610661565b005b34801561025a575f80fd5b506102636106cb565b6040516102709190611b16565b60405180910390f35b348015610284575f80fd5b5061029f600480360381019061029a9190611a3a565b6106d3565b6040516102ac9190611a92565b60405180910390f35b3480156102c0575f80fd5b506102c9610709565b6040516102d69190611b3e565b60405180910390f35b3480156102ea575f80fd5b506102f361072e565b005b348015610300575f80fd5b5061031b60048036038101906103169190611b57565b610852565b60405161032891906118e2565b60405180910390f35b34801561033c575f80fd5b50610345610898565b005b348015610352575f80fd5b5061036d60048036038101906103689190611b57565b6108ab565b60405161037a91906118e2565b60405180910390f35b34801561038e575f80fd5b506103a960048036038101906103a49190611b82565b6108c0565b6040516103b691906118e2565b60405180910390f35b3480156103ca575f80fd5b506103d36108d5565b6040516103e09190611b3e565b60405180910390f35b3480156103f4575f80fd5b506103fd6108fc565b60405161040a9190611985565b60405180910390f35b34801561041e575f80fd5b5061043960048036038101906104349190611a3a565b61098c565b6040516104469190611a92565b60405180910390f35b34801561045a575f80fd5b5061047560048036038101906104709190611a3a565b610a01565b6040516104829190611a92565b60405180910390f35b348015610496575f80fd5b5061049f610a23565b6040516104ac9190611a92565b60405180910390f35b6104cf60048036038101906104ca9190611d77565b610a36565b005b3480156104dc575f80fd5b506104f760048036038101906104f29190611ea0565b610cfa565b60405161050491906118e2565b60405180910390f35b348015610518575f80fd5b50610533600480360381019061052e9190611b57565b610d7c565b005b348015610540575f80fd5b5061055b60048036038101906105569190611ede565b610dfe565b6040516105689190611b3e565b60405180910390f35b5f46905090565b60606004805461058790612004565b80601f01602080910402602001604051908101604052809291908181526020018280546105b390612004565b80156105fe5780601f106105d5576101008083540402835291602001916105fe565b820191905f5260205f20905b8154815290600101906020018083116105e157829003601f168201915b5050505050905090565b5f80610612610e5d565b905061061f818585610e64565b600191505092915050565b5f600354905090565b5f8061063d610e5d565b905061064a858285611027565b6106558585856110b2565b60019150509392505050565b610669611321565b6001600760146101000a81548160ff0219169083151502179055507edc88d9c7529d0f10e4bfa9d34fe6c22887e5f76a94be52db285cff07ba8f95600760149054906101000a900460ff166040516106c19190611a92565b60405180910390a1565b5f6012905090565b5f806106dd610e5d565b90506106fe8185856106ef8589610cfa565b6106f99190612061565b610e64565b600191505092915050565b60075f9054906101000a900473ffffffffffffffffffffffffffffffffffffffff1681565b5f610737610e5d565b9050600760149054906101000a900460ff16610788576040517f08c379a000000000000000000000000000000000000000000000000000000000815260040161077f906120de565b60405180910390fd5b5f60085f8373ffffffffffffffffffffffffffffffffffffffff1673ffffffffffffffffffffffffffffffffffffffff1681526020019081526020015f205490505f60085f8473ffffffffffffffffffffffffffffffffffffffff1673ffffffffffffffffffffffffffffffffffffffff1681526020019081526020015f2081905550610815828261139f565b7f158f4fdc939d59bb841b6bd6d8d8215cd7e64c6f5ed226c59e3157b8a51a279b82826040516108469291906120fc565b60405180910390a15050565b5f60015f8373ffffffffffffffffffffffffffffffffffffffff1673ffffffffffffffffffffffffffffffffffffffff1681526020019081526020015f20549050919050565b6108a0611321565b6108a95f6114ee565b565b6008602052805f5260405f205f915090505481565b6009602052805f5260405f205f915090505481565b5f805f9054906101000a900473ffffffffffffffffffffffffffffffffffffffff16905090565b60606005805461090b90612004565b80601f016020809104026020016040519081016040528092919081815260200182805461093790612004565b80156109825780601f1061095957610100808354040283529160200191610982565b820191905f5260205f20905b81548152906001019060200180831161096557829003601f168201915b5050505050905090565b5f80610996610e5d565b90505f6109a38286610cfa565b9050838110156109e8576040517f08c379a00000000000000000000000000000000000000000000000000000000081526004016109df90612193565b60405180910390fd5b6109f58286868403610e64565b60019250505092915050565b5f80610a0b610e5d565b9050610a188185856110b2565b600191505092915050565b600760149054906101000a900460ff1681565b3373ffffffffffffffffffffffffffffffffffffffff16610a5b888888888888610dfe565b73ffffffffffffffffffffffffffffffffffffffff1614610ab1576040517f08c379a0000000000000000000000000000000000000000000000000000000008152600401610aa8906121fb565b60405180910390fd5b60075f9054906101000a900473ffffffffffffffffffffffffffffffffffffffff1673ffffffffffffffffffffffffffffffffffffffff16610af7888888888887610dfe565b73ffffffffffffffffffffffffffffffffffffffff1614610b4d576040517f08c379a0000000000000000000000000000000000000000000000000000000008152600401610b4490612263565b60405180910390fd5b5f83118015610b5c5750600483105b610b9b576040517f08c379a0000000000000000000000000000000000000000000000000000000008152600401610b92906122cb565b60405180910390fd5b834210610bdd576040517f08c379a0000000000000000000000000000000000000000000000000000000008152600401610bd490612333565b60405180910390fd5b600760149054906101000a900460ff16610c9c5760095f8481526020019081526020015f20543414610c44576040517f08c379a0000000000000000000000000000000000000000000000000000000008152600401610c3b9061239b565b60405180910390fd5b3460085f3373ffffffffffffffffffffffffffffffffffffffff1673ffffffffffffffffffffffffffffffffffffffff1681526020019081526020015f205f828254610c909190612061565b92505081905550610cb8565b610cb73360095f8681526020019081526020015f20546115af565b5b7f034fc77b8ce78dbffae6d936714ef4dabe9228f22f46e3943be649e39ba013c93384604051610ce99291906120fc565b60405180910390a150505050505050565b5f60025f8473ffffffffffffffffffffffffffffffffffffffff1673ffffffffffffffffffffffffffffffffffffffff1681526020019081526020015f205f8373ffffffffffffffffffffffffffffffffffffffff1673ffffffffffffffffffffffffffffffffffffffff1681526020019081526020015f2054905092915050565b610d84611321565b5f73ffffffffffffffffffffffffffffffffffffffff168173ffffffffffffffffffffffffffffffffffffffff1603610df2576040517f08c379a0000000000000000000000000000000000000000000000000000000008152600401610de990612429565b60405180910390fd5b610dfb816114ee565b50565b5f806040518060a001604052808981526020018881526020018781526020018581526020018681525090505f805f610e3586611774565b809350819450829550505050610e4d848484846117b1565b9450505050509695505050505050565b5f33905090565b5f73ffffffffffffffffffffffffffffffffffffffff168373ffffffffffffffffffffffffffffffffffffffff1603610ed2576040517f08c379a0000000000000000000000000000000000000000000000000000000008152600401610ec9906124b7565b60405180910390fd5b5f73ffffffffffffffffffffffffffffffffffffffff168273ffffffffffffffffffffffffffffffffffffffff1603610f40576040517f08c379a0000000000000000000000000000000000000000000000000000000008152600401610f3790612545565b60405180910390fd5b8060025f8573ffffffffffffffffffffffffffffffffffffffff1673ffffffffffffffffffffffffffffffffffffffff1681526020019081526020015f205f8473ffffffffffffffffffffffffffffffffffffffff1673ffffffffffffffffffffffffffffffffffffffff1681526020019081526020015f20819055508173ffffffffffffffffffffffffffffffffffffffff168373ffffffffffffffffffffffffffffffffffffffff167f8c5be1e5ebec7d5bd14f71427d1e84f3dd0314c0f7b2291e5b200ac8c7c3b9258360405161101a91906118e2565b60405180910390a3505050565b5f6110328484610cfa565b90507fffffffffffffffffffffffffffffffffffffffffffffffffffffffffffffffff81146110ac578181101561109e576040517f08c379a0000000000000000000000000000000000000000000000000000000008152600401611095906125ad565b60405180910390fd5b6110ab8484848403610e64565b5b50505050565b5f73ffffffffffffffffffffffffffffffffffffffff168373ffffffffffffffffffffffffffffffffffffffff1603611120576040517f08c379a00000000000000000000000000000000000000000000000000000000081526004016111179061263b565b60405180910390fd5b5f73ffffffffffffffffffffffffffffffffffffffff168273ffffffffffffffffffffffffffffffffffffffff160361118e576040517f08c379a0000000000000000000000000000000000000000000000000000000008152600401611185906126c9565b60405180910390fd5b61119983838361183f565b5f60015f8573ffffffffffffffffffffffffffffffffffffffff1673ffffffffffffffffffffffffffffffffffffffff1681526020019081526020015f205490508181101561121d576040517f08c379a000000000000000000000000000000000000000000000000000000000815260040161121490612757565b60405180910390fd5b81810360015f8673ffffffffffffffffffffffffffffffffffffffff1673ffffffffffffffffffffffffffffffffffffffff1681526020019081526020015f20819055508160015f8573ffffffffffffffffffffffffffffffffffffffff1673ffffffffffffffffffffffffffffffffffffffff1681526020019081526020015f205f82825401925050819055508273ffffffffffffffffffffffffffffffffffffffff168473ffffffffffffffffffffffffffffffffffffffff167fddf252ad1be2c89b69c2b068fc378daa952ba7f163c4a11628f55a4df523b3ef8460405161130891906118e2565b60405180910390a361131b848484611844565b50505050565b611329610e5d565b73ffffffffffffffffffffffffffffffffffffffff166113476108d5565b73ffffffffffffffffffffffffffffffffffffffff161461139d576040517f08c379a0000000000000000000000000000000000000000000000000000000008152600401611394906127bf565b60405180910390fd5b565b5f73ffffffffffffffffffffffffffffffffffffffff168273ffffffffffffffffffffffffffffffffffffffff160361140d576040517f08c379a000000000000000000000000000000000000000000000000000000000815260040161140490612827565b60405180910390fd5b6114185f838361183f565b8060035f8282546114299190612061565b925050819055508060015f8473ffffffffffffffffffffffffffffffffffffffff1673ffffffffffffffffffffffffffffffffffffffff1681526020019081526020015f205f82825401925050819055508173ffffffffffffffffffffffffffffffffffffffff165f73ffffffffffffffffffffffffffffffffffffffff167fddf252ad1be2c89b69c2b068fc378daa952ba7f163c4a11628f55a4df523b3ef836040516114d791906118e2565b60405180910390a36114ea5f8383611844565b5050565b5f805f9054906101000a900473ffffffffffffffffffffffffffffffffffffffff169050815f806101000a81548173ffffffffffffffffffffffffffffffffffffffff021916908373ffffffffffffffffffffffffffffffffffffffff1602179055508173ffffffffffffffffffffffffffffffffffffffff168173ffffffffffffffffffffffffffffffffffffffff167f8be0079c531659141344cd1fd0a4f28419497f9722a3daafe3b4186f6b6457e060405160405180910390a35050565b5f73ffffffffffffffffffffffffffffffffffffffff168273ffffffffffffffffffffffffffffffffffffffff160361161d576040517f08c379a0000000000000000000000000000000000000000000000000000000008152600401611614906128b5565b60405180910390fd5b611628825f8361183f565b5f60015f8473ffffffffffffffffffffffffffffffffffffffff1673ffffffffffffffffffffffffffffffffffffffff1681526020019081526020015f20549050818110156116ac576040517f08c379a00000000000000000000000000000000000000000000000000000000081526004016116a390612943565b60405180910390fd5b81810360015f8573ffffffffffffffffffffffffffffffffffffffff1673ffffffffffffffffffffffffffffffffffffffff1681526020019081526020015f20819055508160035f82825403925050819055505f73ffffffffffffffffffffffffffffffffffffffff168373ffffffffffffffffffffffffffffffffffffffff167fddf252ad1be2c89b69c2b068fc378daa952ba7f163c4a11628f55a4df523b3ef8460405161175c91906118e2565b60405180910390a361176f835f84611844565b505050565b5f805f6041845114611784575f80fd5b5f805f602087015192506040870151915060608701515f1a90508083839550955095505050509193909250565b5f806006546117bf87611849565b6040516020016117d09291906129de565b6040516020818303038152906040528051906020012090506001818686866040515f815260200160405260405161180a9493929190612a23565b6020604051602081039080840390855afa15801561182a573d5f803e3d5ffd5b50505060206040510351915050949350505050565b505050565b505050565b5f7facf5fe31302e000a021505d68f64f59a958ed052954af199025629c07a5c0912825f015180519060200120836020015180519060200120846040015180519060200120856060015186608001516040516020016118ad96959493929190612a66565b604051602081830303815290604052805190602001209050919050565b5f819050919050565b6118dc816118ca565b82525050565b5f6020820190506118f55f8301846118d3565b92915050565b5f81519050919050565b5f82825260208201905092915050565b5f5b83811015611932578082015181840152602081019050611917565b5f8484015250505050565b5f601f19601f8301169050919050565b5f611957826118fb565b6119618185611905565b9350611971818560208601611915565b61197a8161193d565b840191505092915050565b5f6020820190508181035f83015261199d818461194d565b905092915050565b5f604051905090565b5f80fd5b5f80fd5b5f73ffffffffffffffffffffffffffffffffffffffff82169050919050565b5f6119df826119b6565b9050919050565b6119ef816119d5565b81146119f9575f80fd5b50565b5f81359050611a0a816119e6565b92915050565b611a19816118ca565b8114611a23575f80fd5b50565b5f81359050611a3481611a10565b92915050565b5f8060408385031215611a5057611a4f6119ae565b5b5f611a5d858286016119fc565b9250506020611a6e85828601611a26565b9150509250929050565b5f8115159050919050565b611a8c81611a78565b82525050565b5f602082019050611aa55f830184611a83565b92915050565b5f805f60608486031215611ac257611ac16119ae565b5b5f611acf868287016119fc565b9350506020611ae0868287016119fc565b9250506040611af186828701611a26565b9150509250925092565b5f60ff82169050919050565b611b1081611afb565b82525050565b5f602082019050611b295f830184611b07565b92915050565b611b38816119d5565b82525050565b5f602082019050611b515f830184611b2f565b92915050565b5f60208284031215611b6c57611b6b6119ae565b5b5f611b79848285016119fc565b91505092915050565b5f60208284031215611b9757611b966119ae565b5b5f611ba484828501611a26565b91505092915050565b5f80fd5b5f80fd5b7f4e487b71000000000000000000000000000000000000000000000000000000005f52604160045260245ffd5b611beb8261193d565b810181811067ffffffffffffffff82111715611c0a57611c09611bb5565b5b80604052505050565b5f611c1c6119a5565b9050611c288282611be2565b919050565b5f67ffffffffffffffff821115611c4757611c46611bb5565b5b611c508261193d565b9050602081019050919050565b828183375f83830152505050565b5f611c7d611c7884611c2d565b611c13565b905082815260208101848484011115611c9957611c98611bb1565b5b611ca4848285611c5d565b509392505050565b5f82601f830112611cc057611cbf611bad565b5b8135611cd0848260208601611c6b565b91505092915050565b5f67ffffffffffffffff821115611cf357611cf2611bb5565b5b611cfc8261193d565b9050602081019050919050565b5f611d1b611d1684611cd9565b611c13565b905082815260208101848484011115611d3757611d36611bb1565b5b611d42848285611c5d565b509392505050565b5f82601f830112611d5e57611d5d611bad565b5b8135611d6e848260208601611d09565b91505092915050565b5f805f805f805f60e0888a031215611d9257611d916119ae565b5b5f88013567ffffffffffffffff811115611daf57611dae6119b2565b5b611dbb8a828b01611cac565b975050602088013567ffffffffffffffff811115611ddc57611ddb6119b2565b5b611de88a828b01611cac565b965050604088013567ffffffffffffffff811115611e0957611e086119b2565b5b611e158a828b01611cac565b9550506060611e268a828b01611a26565b9450506080611e378a828b01611a26565b93505060a088013567ffffffffffffffff811115611e5857611e576119b2565b5b611e648a828b01611d4a565b92505060c088013567ffffffffffffffff811115611e8557611e846119b2565b5b611e918a828b01611d4a565b91505092959891949750929550565b5f8060408385031215611eb657611eb56119ae565b5b5f611ec3858286016119fc565b9250506020611ed4858286016119fc565b9150509250929050565b5f805f805f8060c08789031215611ef857611ef76119ae565b5b5f87013567ffffffffffffffff811115611f1557611f146119b2565b5b611f2189828a01611cac565b965050602087013567ffffffffffffffff811115611f4257611f416119b2565b5b611f4e89828a01611cac565b955050604087013567ffffffffffffffff811115611f6f57611f6e6119b2565b5b611f7b89828a01611cac565b9450506060611f8c89828a01611a26565b9350506080611f9d89828a01611a26565b92505060a087013567ffffffffffffffff811115611fbe57611fbd6119b2565b5b611fca89828a01611d4a565b9150509295509295509295565b7f4e487b71000000000000000000000000000000000000000000000000000000005f52602260045260245ffd5b5f600282049050600182168061201b57607f821691505b60208210810361202e5761202d611fd7565b5b50919050565b7f4e487b71000000000000000000000000000000000000000000000000000000005f52601160045260245ffd5b5f61206b826118ca565b9150612076836118ca565b925082820190508082111561208e5761208d612034565b5b92915050565b7f4d696e74206e6f742073746172746564207965740000000000000000000000005f82015250565b5f6120c8601483611905565b91506120d382612094565b602082019050919050565b5f6020820190508181035f8301526120f5816120bc565b9050919050565b5f60408201905061210f5f830185611b2f565b61211c60208301846118d3565b9392505050565b7f45524332303a2064656372656173656420616c6c6f77616e63652062656c6f775f8201527f207a65726f000000000000000000000000000000000000000000000000000000602082015250565b5f61217d602583611905565b915061218882612123565b604082019050919050565b5f6020820190508181035f8301526121aa81612171565b9050919050565b7f496e76616c6964207369676e61747572650000000000000000000000000000005f82015250565b5f6121e5601183611905565b91506121f0826121b1565b602082019050919050565b5f6020820190508181035f830152612212816121d9565b9050919050565b7f496e76616c69642076616c696461746f72207369676e617475726500000000005f82015250565b5f61224d601b83611905565b915061225882612219565b602082019050919050565b5f6020820190508181035f83015261227a81612241565b9050919050565b7f696e76616c6964207469657200000000000000000000000000000000000000005f82015250565b5f6122b5600c83611905565b91506122c082612281565b602082019050919050565b5f6020820190508181035f8301526122e2816122a9565b9050919050565b7f70617373656420646561646c696e6500000000000000000000000000000000005f82015250565b5f61231d600f83611905565b9150612328826122e9565b602082019050919050565b5f6020820190508181035f83015261234a81612311565b9050919050565b7f696e636f727265637420707269636520666f72207469657200000000000000005f82015250565b5f612385601883611905565b915061239082612351565b602082019050919050565b5f6020820190508181035f8301526123b281612379565b9050919050565b7f4f776e61626c653a206e6577206f776e657220697320746865207a65726f20615f8201527f6464726573730000000000000000000000000000000000000000000000000000602082015250565b5f612413602683611905565b915061241e826123b9565b604082019050919050565b5f6020820190508181035f83015261244081612407565b9050919050565b7f45524332303a20617070726f76652066726f6d20746865207a65726f206164645f8201527f7265737300000000000000000000000000000000000000000000000000000000602082015250565b5f6124a1602483611905565b91506124ac82612447565b604082019050919050565b5f6020820190508181035f8301526124ce81612495565b9050919050565b7f45524332303a20617070726f766520746f20746865207a65726f2061646472655f8201527f7373000000000000000000000000000000000000000000000000000000000000602082015250565b5f61252f602283611905565b915061253a826124d5565b604082019050919050565b5f6020820190508181035f83015261255c81612523565b9050919050565b7f45524332303a20696e73756666696369656e7420616c6c6f77616e63650000005f82015250565b5f612597601d83611905565b91506125a282612563565b602082019050919050565b5f6020820190508181035f8301526125c48161258b565b9050919050565b7f45524332303a207472616e736665722066726f6d20746865207a65726f2061645f8201527f6472657373000000000000000000000000000000000000000000000000000000602082015250565b5f612625602583611905565b9150612630826125cb565b604082019050919050565b5f6020820190508181035f83015261265281612619565b9050919050565b7f45524332303a207472616e7366657220746f20746865207a65726f20616464725f8201527f6573730000000000000000000000000000000000000000000000000000000000602082015250565b5f6126b3602383611905565b91506126be82612659565b604082019050919050565b5f6020820190508181035f8301526126e0816126a7565b9050919050565b7f45524332303a207472616e7366657220616d6f756e74206578636565647320625f8201527f616c616e63650000000000000000000000000000000000000000000000000000602082015250565b5f612741602683611905565b915061274c826126e7565b604082019050919050565b5f6020820190508181035f83015261276e81612735565b9050919050565b7f4f776e61626c653a2063616c6c6572206973206e6f7420746865206f776e65725f82015250565b5f6127a9602083611905565b91506127b482612775565b602082019050919050565b5f6020820190508181035f8301526127d68161279d565b9050919050565b7f45524332303a206d696e7420746f20746865207a65726f2061646472657373005f82015250565b5f612811601f83611905565b915061281c826127dd565b602082019050919050565b5f6020820190508181035f83015261283e81612805565b9050919050565b7f45524332303a206275726e2066726f6d20746865207a65726f206164647265735f8201527f7300000000000000000000000000000000000000000000000000000000000000602082015250565b5f61289f602183611905565b91506128aa82612845565b604082019050919050565b5f6020820190508181035f8301526128cc81612893565b9050919050565b7f45524332303a206275726e20616d6f756e7420657863656564732062616c616e5f8201527f6365000000000000000000000000000000000000000000000000000000000000602082015250565b5f61292d602283611905565b9150612938826128d3565b604082019050919050565b5f6020820190508181035f83015261295a81612921565b9050919050565b5f81905092915050565b7f19010000000000000000000000000000000000000000000000000000000000005f82015250565b5f61299f600283612961565b91506129aa8261296b565b600282019050919050565b5f819050919050565b5f819050919050565b6129d86129d3826129b5565b6129be565b82525050565b5f6129e882612993565b91506129f482856129c7565b602082019150612a0482846129c7565b6020820191508190509392505050565b612a1d816129b5565b82525050565b5f608082019050612a365f830187612a14565b612a436020830186611b07565b612a506040830185612a14565b612a5d6060830184612a14565b95945050505050565b5f60c082019050612a795f830189612a14565b612a866020830188612a14565b612a936040830187612a14565b612aa06060830186612a14565b612aad60808301856118d3565b612aba60a08301846118d3565b97965050505050505056fea26469706673582212200441d2338d5fa1458b983658011dd2d175e95bd9a28cc6863381fd4cbc5608dd64736f6c63430008140033",
  "linkReferences": {},
  "deployedLinkReferences": {}
}