{
  "_format": "hh-sol-artifact-1",
  "contractName": "WorldWideWeb3",
  "sourceName": "contracts/WorldWideWeb3.sol",
  "abi": [
    {
      "inputs": [
        {
          "internalType": "string",
          "name": "_name",
          "type": "string"
        },
        {
          "internalType": "string",
          "name": "_version",
          "type": "string"
        },
        {
          "internalType": "address",
          "name": "_validator",
          "type": "address"
        },
        {
          "internalType": "string",
          "name": "_tokenName",
          "type": "string"
        },
        {
          "internalType": "string",
          "name": "_tokenSymbol",
          "type": "string"
        }
      ],
      "stateMutability": "nonpayable",
      "type": "constructor"
    },
    {
      "anonymous": false,
      "inputs": [
        {
          "indexed": true,
          "internalType": "address",
          "name": "owner",
          "type": "address"
        },
        {
          "indexed": true,
          "internalType": "address",
          "name": "spender",
          "type": "address"
        },
        {
          "indexed": false,
          "internalType": "uint256",
          "name": "value",
          "type": "uint256"
        }
      ],
      "name": "Approval",
      "type": "event"
    },
    {
      "anonymous": false,
      "inputs": [
        {
          "indexed": true,
          "internalType": "address",
          "name": "previousOwner",
          "type": "address"
        },
        {
          "indexed": true,
          "internalType": "address",
          "name": "newOwner",
          "type": "address"
        }
      ],
      "name": "OwnershipTransferred",
      "type": "event"
    },
    {
      "anonymous": false,
      "inputs": [
        {
          "indexed": false,
          "internalType": "address",
          "name": "account",
          "type": "address"
        },
        {
          "indexed": false,
          "internalType": "uint256",
          "name": "tier",
          "type": "uint256"
        }
      ],
      "name": "Signer",
      "type": "event"
    },
    {
      "anonymous": false,
      "inputs": [
        {
          "indexed": true,
          "internalType": "address",
          "name": "from",
          "type": "address"
        },
        {
          "indexed": true,
          "internalType": "address",
          "name": "to",
          "type": "address"
        },
        {
          "indexed": false,
          "internalType": "uint256",
          "name": "value",
          "type": "uint256"
        }
      ],
      "name": "Transfer",
      "type": "event"
    },
    {
      "inputs": [],
      "name": "_getChainId",
      "outputs": [
        {
          "internalType": "uint256",
          "name": "chainId",
          "type": "uint256"
        }
      ],
      "stateMutability": "view",
      "type": "function"
    },
    {
      "inputs": [
        {
          "internalType": "address",
          "name": "owner",
          "type": "address"
        },
        {
          "internalType": "address",
          "name": "spender",
          "type": "address"
        }
      ],
      "name": "allowance",
      "outputs": [
        {
          "internalType": "uint256",
          "name": "",
          "type": "uint256"
        }
      ],
      "stateMutability": "view",
      "type": "function"
    },
    {
      "inputs": [
        {
          "internalType": "address",
          "name": "spender",
          "type": "address"
        },
        {
          "internalType": "uint256",
          "name": "amount",
          "type": "uint256"
        }
      ],
      "name": "approve",
      "outputs": [
        {
          "internalType": "bool",
          "name": "",
          "type": "bool"
        }
      ],
      "stateMutability": "nonpayable",
      "type": "function"
    },
    {
      "inputs": [
        {
          "internalType": "address",
          "name": "account",
          "type": "address"
        }
      ],
      "name": "balanceOf",
      "outputs": [
        {
          "internalType": "uint256",
          "name": "",
          "type": "uint256"
        }
      ],
      "stateMutability": "view",
      "type": "function"
    },
    {
      "inputs": [],
      "name": "decimals",
      "outputs": [
        {
          "internalType": "uint8",
          "name": "",
          "type": "uint8"
        }
      ],
      "stateMutability": "view",
      "type": "function"
    },
    {
      "inputs": [
        {
          "internalType": "address",
          "name": "spender",
          "type": "address"
        },
        {
          "internalType": "uint256",
          "name": "subtractedValue",
          "type": "uint256"
        }
      ],
      "name": "decreaseAllowance",
      "outputs": [
        {
          "internalType": "bool",
          "name": "",
          "type": "bool"
        }
      ],
      "stateMutability": "nonpayable",
      "type": "function"
    },
    {
      "inputs": [
        {
          "internalType": "address",
          "name": "",
          "type": "address"
        }
      ],
      "name": "frensTrust",
      "outputs": [
        {
          "internalType": "uint256",
          "name": "",
          "type": "uint256"
        }
      ],
      "stateMutability": "view",
      "type": "function"
    },
    {
      "inputs": [
        {
          "internalType": "address",
          "name": "spender",
          "type": "address"
        },
        {
          "internalType": "uint256",
          "name": "addedValue",
          "type": "uint256"
        }
      ],
      "name": "increaseAllowance",
      "outputs": [
        {
          "internalType": "bool",
          "name": "",
          "type": "bool"
        }
      ],
      "stateMutability": "nonpayable",
      "type": "function"
    },
    {
      "inputs": [],
      "name": "name",
      "outputs": [
        {
          "internalType": "string",
          "name": "",
          "type": "string"
        }
      ],
      "stateMutability": "view",
      "type": "function"
    },
    {
      "inputs": [],
      "name": "owner",
      "outputs": [
        {
          "internalType": "address",
          "name": "",
          "type": "address"
        }
      ],
      "stateMutability": "view",
      "type": "function"
    },
    {
      "inputs": [],
      "name": "renounceOwnership",
      "outputs": [],
      "stateMutability": "nonpayable",
      "type": "function"
    },
    {
      "inputs": [
        {
          "internalType": "string",
          "name": "message",
          "type": "string"
        },
        {
          "internalType": "string",
          "name": "latitude",
          "type": "string"
        },
        {
          "internalType": "string",
          "name": "longitude",
          "type": "string"
        },
        {
          "internalType": "uint256",
          "name": "deadline",
          "type": "uint256"
        },
        {
          "internalType": "uint256",
          "name": "tier",
          "type": "uint256"
        },
        {
          "internalType": "bytes",
          "name": "signature",
          "type": "bytes"
        },
        {
          "internalType": "bytes",
          "name": "validatorSignature",
          "type": "bytes"
        }
      ],
      "name": "submitMessage",
      "outputs": [],
      "stateMutability": "payable",
      "type": "function"
    },
    {
      "inputs": [],
      "name": "symbol",
      "outputs": [
        {
          "internalType": "string",
          "name": "",
          "type": "string"
        }
      ],
      "stateMutability": "view",
      "type": "function"
    },
    {
      "inputs": [
        {
          "internalType": "uint256",
          "name": "",
          "type": "uint256"
        }
      ],
      "name": "tierPrice",
      "outputs": [
        {
          "internalType": "uint256",
          "name": "",
          "type": "uint256"
        }
      ],
      "stateMutability": "view",
      "type": "function"
    },
    {
      "inputs": [],
      "name": "totalSupply",
      "outputs": [
        {
          "internalType": "uint256",
          "name": "",
          "type": "uint256"
        }
      ],
      "stateMutability": "view",
      "type": "function"
    },
    {
      "inputs": [
        {
          "internalType": "address",
          "name": "to",
          "type": "address"
        },
        {
          "internalType": "uint256",
          "name": "amount",
          "type": "uint256"
        }
      ],
      "name": "transfer",
      "outputs": [
        {
          "internalType": "bool",
          "name": "",
          "type": "bool"
        }
      ],
      "stateMutability": "nonpayable",
      "type": "function"
    },
    {
      "inputs": [
        {
          "internalType": "address",
          "name": "from",
          "type": "address"
        },
        {
          "internalType": "address",
          "name": "to",
          "type": "address"
        },
        {
          "internalType": "uint256",
          "name": "amount",
          "type": "uint256"
        }
      ],
      "name": "transferFrom",
      "outputs": [
        {
          "internalType": "bool",
          "name": "",
          "type": "bool"
        }
      ],
      "stateMutability": "nonpayable",
      "type": "function"
    },
    {
      "inputs": [
        {
          "internalType": "address",
          "name": "newOwner",
          "type": "address"
        }
      ],
      "name": "transferOwnership",
      "outputs": [],
      "stateMutability": "nonpayable",
      "type": "function"
    },
    {
      "inputs": [
        {
          "internalType": "string",
          "name": "message",
          "type": "string"
        },
        {
          "internalType": "string",
          "name": "latitude",
          "type": "string"
        },
        {
          "internalType": "string",
          "name": "longitude",
          "type": "string"
        },
        {
          "internalType": "uint256",
          "name": "time",
          "type": "uint256"
        },
        {
          "internalType": "uint256",
          "name": "tier",
          "type": "uint256"
        },
        {
          "internalType": "bytes",
          "name": "_signature",
          "type": "bytes"
        }
      ],
      "name": "validateMessage",
      "outputs": [
        {
          "internalType": "address",
          "name": "",
          "type": "address"
        }
      ],
      "stateMutability": "view",
      "type": "function"
    },
    {
      "inputs": [],
      "name": "validator",
      "outputs": [
        {
          "internalType": "address",
          "name": "",
          "type": "address"
        }
      ],
      "stateMutability": "view",
      "type": "function"
    }
  ],
  "bytecode": "0x61014060405234801562000011575f80fd5b5060405162002e3238038062002e3283398181016040528101906200003791906200059c565b8484818185856200005d620000516200023660201b60201c565b6200023d60201b60201c565b81600490816200006e9190620008d3565b508060059081620000809190620008d3565b5050505f828051906020012090505f828051906020012090505f7f8b73c3c69bb8fe3d512ecc4cf759cc79239f7b179b0ffacaa9a75d522b39400f90508260e081815250508161010081815250504660a08181525050620000e9818484620002fe60201b60201c565b608081815250503073ffffffffffffffffffffffffffffffffffffffff1660c08173ffffffffffffffffffffffffffffffffffffffff168152505080610120818152505050505050506200018860405180608001604052808481526020018381526020016200015d6200033960201b60201c565b81526020013073ffffffffffffffffffffffffffffffffffffffff168152506200034060201b60201c565b6006819055505050660aa87bee53800060095f600181526020019081526020015f2081905550666a94d74f43000060095f600281526020019081526020015f2081905550670429d069189e000060095f600381526020019081526020015f20819055508260075f6101000a81548173ffffffffffffffffffffffffffffffffffffffff021916908373ffffffffffffffffffffffffffffffffffffffff160217905550505050505062000a4e565b5f33905090565b5f805f9054906101000a900473ffffffffffffffffffffffffffffffffffffffff169050815f806101000a81548173ffffffffffffffffffffffffffffffffffffffff021916908373ffffffffffffffffffffffffffffffffffffffff1602179055508173ffffffffffffffffffffffffffffffffffffffff168173ffffffffffffffffffffffffffffffffffffffff167f8be0079c531659141344cd1fd0a4f28419497f9722a3daafe3b4186f6b6457e060405160405180910390a35050565b5f83838346306040516020016200031a959493929190620009f3565b6040516020818303038152906040528051906020012090509392505050565b5f46905090565b5f7f8b73c3c69bb8fe3d512ecc4cf759cc79239f7b179b0ffacaa9a75d522b39400f825f0151805190602001208360200151805190602001208460400151856060015160405160200162000399959493929190620009f3565b604051602081830303815290604052805190602001209050919050565b5f604051905090565b5f80fd5b5f80fd5b5f80fd5b5f80fd5b5f601f19601f8301169050919050565b7f4e487b71000000000000000000000000000000000000000000000000000000005f52604160045260245ffd5b6200041782620003cf565b810181811067ffffffffffffffff82111715620004395762000438620003df565b5b80604052505050565b5f6200044d620003b6565b90506200045b82826200040c565b919050565b5f67ffffffffffffffff8211156200047d576200047c620003df565b5b6200048882620003cf565b9050602081019050919050565b5f5b83811015620004b457808201518184015260208101905062000497565b5f8484015250505050565b5f620004d5620004cf8462000460565b62000442565b905082815260208101848484011115620004f457620004f3620003cb565b5b6200050184828562000495565b509392505050565b5f82601f83011262000520576200051f620003c7565b5b815162000532848260208601620004bf565b91505092915050565b5f73ffffffffffffffffffffffffffffffffffffffff82169050919050565b5f62000566826200053b565b9050919050565b62000578816200055a565b811462000583575f80fd5b50565b5f8151905062000596816200056d565b92915050565b5f805f805f60a08688031215620005b857620005b7620003bf565b5b5f86015167ffffffffffffffff811115620005d857620005d7620003c3565b5b620005e68882890162000509565b955050602086015167ffffffffffffffff8111156200060a5762000609620003c3565b5b620006188882890162000509565b94505060406200062b8882890162000586565b935050606086015167ffffffffffffffff8111156200064f576200064e620003c3565b5b6200065d8882890162000509565b925050608086015167ffffffffffffffff811115620006815762000680620003c3565b5b6200068f8882890162000509565b9150509295509295909350565b5f81519050919050565b7f4e487b71000000000000000000000000000000000000000000000000000000005f52602260045260245ffd5b5f6002820490506001821680620006eb57607f821691505b602082108103620007015762000700620006a6565b5b50919050565b5f819050815f5260205f209050919050565b5f6020601f8301049050919050565b5f82821b905092915050565b5f60088302620007657fffffffffffffffffffffffffffffffffffffffffffffffffffffffffffffffff8262000728565b62000771868362000728565b95508019841693508086168417925050509392505050565b5f819050919050565b5f819050919050565b5f620007bb620007b5620007af8462000789565b62000792565b62000789565b9050919050565b5f819050919050565b620007d6836200079b565b620007ee620007e582620007c2565b84845462000734565b825550505050565b5f90565b62000804620007f6565b62000811818484620007cb565b505050565b5b8181101562000838576200082c5f82620007fa565b60018101905062000817565b5050565b601f8211156200088757620008518162000707565b6200085c8462000719565b810160208510156200086c578190505b620008846200087b8562000719565b83018262000816565b50505b505050565b5f82821c905092915050565b5f620008a95f19846008026200088c565b1980831691505092915050565b5f620008c3838362000898565b9150826002028217905092915050565b620008de826200069c565b67ffffffffffffffff811115620008fa57620008f9620003df565b5b620009068254620006d3565b620009138282856200083c565b5f60209050601f83116001811462000949575f841562000934578287015190505b620009408582620008b6565b865550620009af565b601f198416620009598662000707565b5f5b8281101562000982578489015182556001820191506020850194506020810190506200095b565b86831015620009a257848901516200099e601f89168262000898565b8355505b6001600288020188555050505b505050505050565b5f819050919050565b620009cb81620009b7565b82525050565b620009dc8162000789565b82525050565b620009ed816200055a565b82525050565b5f60a08201905062000a085f830188620009c0565b62000a176020830187620009c0565b62000a266040830186620009c0565b62000a356060830185620009d1565b62000a446080830184620009e2565b9695505050505050565b60805160a05160c05160e05161010051610120516123ae62000a845f395f50505f50505f50505f50505f50505f50506123ae5ff3fe60806040526004361061011e575f3560e01c806372e09af21161009f578063a9059cbb11610063578063a9059cbb14610402578063d97cb71f1461043e578063dd62ed3e1461045a578063f2fde38b14610496578063fa09da07146104be5761011e565b806372e09af2146102fa578063826d3379146103365780638da5cb5b1461037257806395d89b411461039c578063a457c2d7146103c65761011e565b8063313ce567116100e6578063313ce5671461021857806339509351146102425780633a5381b51461027e57806370a08231146102a8578063715018a6146102e45761011e565b806302346b051461012257806306fdde031461014c578063095ea7b31461017657806318160ddd146101b257806323b872dd146101dc575b5f80fd5b34801561012d575f80fd5b506101366104fa565b6040516101439190611381565b60405180910390f35b348015610157575f80fd5b50610160610501565b60405161016d9190611424565b60405180910390f35b348015610181575f80fd5b5061019c600480360381019061019791906114d9565b610591565b6040516101a99190611531565b60405180910390f35b3480156101bd575f80fd5b506101c66105b3565b6040516101d39190611381565b60405180910390f35b3480156101e7575f80fd5b5061020260048036038101906101fd919061154a565b6105bc565b60405161020f9190611531565b60405180910390f35b348015610223575f80fd5b5061022c6105ea565b60405161023991906115b5565b60405180910390f35b34801561024d575f80fd5b50610268600480360381019061026391906114d9565b6105f2565b6040516102759190611531565b60405180910390f35b348015610289575f80fd5b50610292610628565b60405161029f91906115dd565b60405180910390f35b3480156102b3575f80fd5b506102ce60048036038101906102c991906115f6565b61064d565b6040516102db9190611381565b60405180910390f35b3480156102ef575f80fd5b506102f8610693565b005b348015610305575f80fd5b50610320600480360381019061031b91906115f6565b6106a6565b60405161032d9190611381565b60405180910390f35b348015610341575f80fd5b5061035c60048036038101906103579190611621565b6106bb565b6040516103699190611381565b60405180910390f35b34801561037d575f80fd5b506103866106d0565b60405161039391906115dd565b60405180910390f35b3480156103a7575f80fd5b506103b06106f7565b6040516103bd9190611424565b60405180910390f35b3480156103d1575f80fd5b506103ec60048036038101906103e791906114d9565b610787565b6040516103f99190611531565b60405180910390f35b34801561040d575f80fd5b50610428600480360381019061042391906114d9565b6107fc565b6040516104359190611531565b60405180910390f35b61045860048036038101906104539190611816565b61081e565b005b348015610465575f80fd5b50610480600480360381019061047b919061193f565b610aad565b60405161048d9190611381565b60405180910390f35b3480156104a1575f80fd5b506104bc60048036038101906104b791906115f6565b610b2f565b005b3480156104c9575f80fd5b506104e460048036038101906104df919061197d565b610bb1565b6040516104f191906115dd565b60405180910390f35b5f46905090565b60606004805461051090611aa3565b80601f016020809104026020016040519081016040528092919081815260200182805461053c90611aa3565b80156105875780601f1061055e57610100808354040283529160200191610587565b820191905f5260205f20905b81548152906001019060200180831161056a57829003601f168201915b5050505050905090565b5f8061059b610c10565b90506105a8818585610c17565b600191505092915050565b5f600354905090565b5f806105c6610c10565b90506105d3858285610dda565b6105de858585610e65565b60019150509392505050565b5f6012905090565b5f806105fc610c10565b905061061d81858561060e8589610aad565b6106189190611b00565b610c17565b600191505092915050565b60075f9054906101000a900473ffffffffffffffffffffffffffffffffffffffff1681565b5f60015f8373ffffffffffffffffffffffffffffffffffffffff1673ffffffffffffffffffffffffffffffffffffffff1681526020019081526020015f20549050919050565b61069b6110d4565b6106a45f611152565b565b6008602052805f5260405f205f915090505481565b6009602052805f5260405f205f915090505481565b5f805f9054906101000a900473ffffffffffffffffffffffffffffffffffffffff16905090565b60606005805461070690611aa3565b80601f016020809104026020016040519081016040528092919081815260200182805461073290611aa3565b801561077d5780601f106107545761010080835404028352916020019161077d565b820191905f5260205f20905b81548152906001019060200180831161076057829003601f168201915b5050505050905090565b5f80610791610c10565b90505f61079e8286610aad565b9050838110156107e3576040517f08c379a00000000000000000000000000000000000000000000000000000000081526004016107da90611ba3565b60405180910390fd5b6107f08286868403610c17565b60019250505092915050565b5f80610806610c10565b9050610813818585610e65565b600191505092915050565b3373ffffffffffffffffffffffffffffffffffffffff16610843888888888888610bb1565b73ffffffffffffffffffffffffffffffffffffffff1614610899576040517f08c379a000000000000000000000000000000000000000000000000000000000815260040161089090611c0b565b60405180910390fd5b60075f9054906101000a900473ffffffffffffffffffffffffffffffffffffffff1673ffffffffffffffffffffffffffffffffffffffff166108df888888888887610bb1565b73ffffffffffffffffffffffffffffffffffffffff1614610935576040517f08c379a000000000000000000000000000000000000000000000000000000000815260040161092c90611c73565b60405180910390fd5b5f831180156109445750600483105b610983576040517f08c379a000000000000000000000000000000000000000000000000000000000815260040161097a90611cdb565b60405180910390fd5b60095f8481526020019081526020015f205434146109d6576040517f08c379a00000000000000000000000000000000000000000000000000000000081526004016109cd90611d43565b60405180910390fd5b834210610a18576040517f08c379a0000000000000000000000000000000000000000000000000000000008152600401610a0f90611dab565b60405180910390fd5b3460085f3373ffffffffffffffffffffffffffffffffffffffff1673ffffffffffffffffffffffffffffffffffffffff1681526020019081526020015f205f828254610a649190611b00565b925050819055507f034fc77b8ce78dbffae6d936714ef4dabe9228f22f46e3943be649e39ba013c93384604051610a9c929190611dc9565b60405180910390a150505050505050565b5f60025f8473ffffffffffffffffffffffffffffffffffffffff1673ffffffffffffffffffffffffffffffffffffffff1681526020019081526020015f205f8373ffffffffffffffffffffffffffffffffffffffff1673ffffffffffffffffffffffffffffffffffffffff1681526020019081526020015f2054905092915050565b610b376110d4565b5f73ffffffffffffffffffffffffffffffffffffffff168173ffffffffffffffffffffffffffffffffffffffff1603610ba5576040517f08c379a0000000000000000000000000000000000000000000000000000000008152600401610b9c90611e60565b60405180910390fd5b610bae81611152565b50565b5f806040518060a001604052808981526020018881526020018781526020018581526020018681525090505f805f610be886611213565b809350819450829550505050610c0084848484611250565b9450505050509695505050505050565b5f33905090565b5f73ffffffffffffffffffffffffffffffffffffffff168373ffffffffffffffffffffffffffffffffffffffff1603610c85576040517f08c379a0000000000000000000000000000000000000000000000000000000008152600401610c7c90611eee565b60405180910390fd5b5f73ffffffffffffffffffffffffffffffffffffffff168273ffffffffffffffffffffffffffffffffffffffff1603610cf3576040517f08c379a0000000000000000000000000000000000000000000000000000000008152600401610cea90611f7c565b60405180910390fd5b8060025f8573ffffffffffffffffffffffffffffffffffffffff1673ffffffffffffffffffffffffffffffffffffffff1681526020019081526020015f205f8473ffffffffffffffffffffffffffffffffffffffff1673ffffffffffffffffffffffffffffffffffffffff1681526020019081526020015f20819055508173ffffffffffffffffffffffffffffffffffffffff168373ffffffffffffffffffffffffffffffffffffffff167f8c5be1e5ebec7d5bd14f71427d1e84f3dd0314c0f7b2291e5b200ac8c7c3b92583604051610dcd9190611381565b60405180910390a3505050565b5f610de58484610aad565b90507fffffffffffffffffffffffffffffffffffffffffffffffffffffffffffffffff8114610e5f5781811015610e51576040517f08c379a0000000000000000000000000000000000000000000000000000000008152600401610e4890611fe4565b60405180910390fd5b610e5e8484848403610c17565b5b50505050565b5f73ffffffffffffffffffffffffffffffffffffffff168373ffffffffffffffffffffffffffffffffffffffff1603610ed3576040517f08c379a0000000000000000000000000000000000000000000000000000000008152600401610eca90612072565b60405180910390fd5b5f73ffffffffffffffffffffffffffffffffffffffff168273ffffffffffffffffffffffffffffffffffffffff1603610f41576040517f08c379a0000000000000000000000000000000000000000000000000000000008152600401610f3890612100565b60405180910390fd5b610f4c8383836112de565b5f60015f8573ffffffffffffffffffffffffffffffffffffffff1673ffffffffffffffffffffffffffffffffffffffff1681526020019081526020015f2054905081811015610fd0576040517f08c379a0000000000000000000000000000000000000000000000000000000008152600401610fc79061218e565b60405180910390fd5b81810360015f8673ffffffffffffffffffffffffffffffffffffffff1673ffffffffffffffffffffffffffffffffffffffff1681526020019081526020015f20819055508160015f8573ffffffffffffffffffffffffffffffffffffffff1673ffffffffffffffffffffffffffffffffffffffff1681526020019081526020015f205f82825401925050819055508273ffffffffffffffffffffffffffffffffffffffff168473ffffffffffffffffffffffffffffffffffffffff167fddf252ad1be2c89b69c2b068fc378daa952ba7f163c4a11628f55a4df523b3ef846040516110bb9190611381565b60405180910390a36110ce8484846112e3565b50505050565b6110dc610c10565b73ffffffffffffffffffffffffffffffffffffffff166110fa6106d0565b73ffffffffffffffffffffffffffffffffffffffff1614611150576040517f08c379a0000000000000000000000000000000000000000000000000000000008152600401611147906121f6565b60405180910390fd5b565b5f805f9054906101000a900473ffffffffffffffffffffffffffffffffffffffff169050815f806101000a81548173ffffffffffffffffffffffffffffffffffffffff021916908373ffffffffffffffffffffffffffffffffffffffff1602179055508173ffffffffffffffffffffffffffffffffffffffff168173ffffffffffffffffffffffffffffffffffffffff167f8be0079c531659141344cd1fd0a4f28419497f9722a3daafe3b4186f6b6457e060405160405180910390a35050565b5f805f6041845114611223575f80fd5b5f805f602087015192506040870151915060608701515f1a90508083839550955095505050509193909250565b5f8060065461125e876112e8565b60405160200161126f929190612291565b6040516020818303038152906040528051906020012090506001818686866040515f81526020016040526040516112a994939291906122d6565b6020604051602081039080840390855afa1580156112c9573d5f803e3d5ffd5b50505060206040510351915050949350505050565b505050565b505050565b5f7facf5fe31302e000a021505d68f64f59a958ed052954af199025629c07a5c0912825f0151805190602001208360200151805190602001208460400151805190602001208560600151866080015160405160200161134c96959493929190612319565b604051602081830303815290604052805190602001209050919050565b5f819050919050565b61137b81611369565b82525050565b5f6020820190506113945f830184611372565b92915050565b5f81519050919050565b5f82825260208201905092915050565b5f5b838110156113d15780820151818401526020810190506113b6565b5f8484015250505050565b5f601f19601f8301169050919050565b5f6113f68261139a565b61140081856113a4565b93506114108185602086016113b4565b611419816113dc565b840191505092915050565b5f6020820190508181035f83015261143c81846113ec565b905092915050565b5f604051905090565b5f80fd5b5f80fd5b5f73ffffffffffffffffffffffffffffffffffffffff82169050919050565b5f61147e82611455565b9050919050565b61148e81611474565b8114611498575f80fd5b50565b5f813590506114a981611485565b92915050565b6114b881611369565b81146114c2575f80fd5b50565b5f813590506114d3816114af565b92915050565b5f80604083850312156114ef576114ee61144d565b5b5f6114fc8582860161149b565b925050602061150d858286016114c5565b9150509250929050565b5f8115159050919050565b61152b81611517565b82525050565b5f6020820190506115445f830184611522565b92915050565b5f805f606084860312156115615761156061144d565b5b5f61156e8682870161149b565b935050602061157f8682870161149b565b9250506040611590868287016114c5565b9150509250925092565b5f60ff82169050919050565b6115af8161159a565b82525050565b5f6020820190506115c85f8301846115a6565b92915050565b6115d781611474565b82525050565b5f6020820190506115f05f8301846115ce565b92915050565b5f6020828403121561160b5761160a61144d565b5b5f6116188482850161149b565b91505092915050565b5f602082840312156116365761163561144d565b5b5f611643848285016114c5565b91505092915050565b5f80fd5b5f80fd5b7f4e487b71000000000000000000000000000000000000000000000000000000005f52604160045260245ffd5b61168a826113dc565b810181811067ffffffffffffffff821117156116a9576116a8611654565b5b80604052505050565b5f6116bb611444565b90506116c78282611681565b919050565b5f67ffffffffffffffff8211156116e6576116e5611654565b5b6116ef826113dc565b9050602081019050919050565b828183375f83830152505050565b5f61171c611717846116cc565b6116b2565b90508281526020810184848401111561173857611737611650565b5b6117438482856116fc565b509392505050565b5f82601f83011261175f5761175e61164c565b5b813561176f84826020860161170a565b91505092915050565b5f67ffffffffffffffff82111561179257611791611654565b5b61179b826113dc565b9050602081019050919050565b5f6117ba6117b584611778565b6116b2565b9050828152602081018484840111156117d6576117d5611650565b5b6117e18482856116fc565b509392505050565b5f82601f8301126117fd576117fc61164c565b5b813561180d8482602086016117a8565b91505092915050565b5f805f805f805f60e0888a0312156118315761183061144d565b5b5f88013567ffffffffffffffff81111561184e5761184d611451565b5b61185a8a828b0161174b565b975050602088013567ffffffffffffffff81111561187b5761187a611451565b5b6118878a828b0161174b565b965050604088013567ffffffffffffffff8111156118a8576118a7611451565b5b6118b48a828b0161174b565b95505060606118c58a828b016114c5565b94505060806118d68a828b016114c5565b93505060a088013567ffffffffffffffff8111156118f7576118f6611451565b5b6119038a828b016117e9565b92505060c088013567ffffffffffffffff81111561192457611923611451565b5b6119308a828b016117e9565b91505092959891949750929550565b5f80604083850312156119555761195461144d565b5b5f6119628582860161149b565b92505060206119738582860161149b565b9150509250929050565b5f805f805f8060c087890312156119975761199661144d565b5b5f87013567ffffffffffffffff8111156119b4576119b3611451565b5b6119c089828a0161174b565b965050602087013567ffffffffffffffff8111156119e1576119e0611451565b5b6119ed89828a0161174b565b955050604087013567ffffffffffffffff811115611a0e57611a0d611451565b5b611a1a89828a0161174b565b9450506060611a2b89828a016114c5565b9350506080611a3c89828a016114c5565b92505060a087013567ffffffffffffffff811115611a5d57611a5c611451565b5b611a6989828a016117e9565b9150509295509295509295565b7f4e487b71000000000000000000000000000000000000000000000000000000005f52602260045260245ffd5b5f6002820490506001821680611aba57607f821691505b602082108103611acd57611acc611a76565b5b50919050565b7f4e487b71000000000000000000000000000000000000000000000000000000005f52601160045260245ffd5b5f611b0a82611369565b9150611b1583611369565b9250828201905080821115611b2d57611b2c611ad3565b5b92915050565b7f45524332303a2064656372656173656420616c6c6f77616e63652062656c6f775f8201527f207a65726f000000000000000000000000000000000000000000000000000000602082015250565b5f611b8d6025836113a4565b9150611b9882611b33565b604082019050919050565b5f6020820190508181035f830152611bba81611b81565b9050919050565b7f496e76616c6964207369676e61747572650000000000000000000000000000005f82015250565b5f611bf56011836113a4565b9150611c0082611bc1565b602082019050919050565b5f6020820190508181035f830152611c2281611be9565b9050919050565b7f496e76616c69642076616c696461746f72207369676e617475726500000000005f82015250565b5f611c5d601b836113a4565b9150611c6882611c29565b602082019050919050565b5f6020820190508181035f830152611c8a81611c51565b9050919050565b7f696e76616c6964207469657200000000000000000000000000000000000000005f82015250565b5f611cc5600c836113a4565b9150611cd082611c91565b602082019050919050565b5f6020820190508181035f830152611cf281611cb9565b9050919050565b7f696e636f727265637420707269636520666f72207469657200000000000000005f82015250565b5f611d2d6018836113a4565b9150611d3882611cf9565b602082019050919050565b5f6020820190508181035f830152611d5a81611d21565b9050919050565b7f70617373656420646561646c696e6500000000000000000000000000000000005f82015250565b5f611d95600f836113a4565b9150611da082611d61565b602082019050919050565b5f6020820190508181035f830152611dc281611d89565b9050919050565b5f604082019050611ddc5f8301856115ce565b611de96020830184611372565b9392505050565b7f4f776e61626c653a206e6577206f776e657220697320746865207a65726f20615f8201527f6464726573730000000000000000000000000000000000000000000000000000602082015250565b5f611e4a6026836113a4565b9150611e5582611df0565b604082019050919050565b5f6020820190508181035f830152611e7781611e3e565b9050919050565b7f45524332303a20617070726f76652066726f6d20746865207a65726f206164645f8201527f7265737300000000000000000000000000000000000000000000000000000000602082015250565b5f611ed86024836113a4565b9150611ee382611e7e565b604082019050919050565b5f6020820190508181035f830152611f0581611ecc565b9050919050565b7f45524332303a20617070726f766520746f20746865207a65726f2061646472655f8201527f7373000000000000000000000000000000000000000000000000000000000000602082015250565b5f611f666022836113a4565b9150611f7182611f0c565b604082019050919050565b5f6020820190508181035f830152611f9381611f5a565b9050919050565b7f45524332303a20696e73756666696369656e7420616c6c6f77616e63650000005f82015250565b5f611fce601d836113a4565b9150611fd982611f9a565b602082019050919050565b5f6020820190508181035f830152611ffb81611fc2565b9050919050565b7f45524332303a207472616e736665722066726f6d20746865207a65726f2061645f8201527f6472657373000000000000000000000000000000000000000000000000000000602082015250565b5f61205c6025836113a4565b915061206782612002565b604082019050919050565b5f6020820190508181035f83015261208981612050565b9050919050565b7f45524332303a207472616e7366657220746f20746865207a65726f20616464725f8201527f6573730000000000000000000000000000000000000000000000000000000000602082015250565b5f6120ea6023836113a4565b91506120f582612090565b604082019050919050565b5f6020820190508181035f830152612117816120de565b9050919050565b7f45524332303a207472616e7366657220616d6f756e74206578636565647320625f8201527f616c616e63650000000000000000000000000000000000000000000000000000602082015250565b5f6121786026836113a4565b91506121838261211e565b604082019050919050565b5f6020820190508181035f8301526121a58161216c565b9050919050565b7f4f776e61626c653a2063616c6c6572206973206e6f7420746865206f776e65725f82015250565b5f6121e06020836113a4565b91506121eb826121ac565b602082019050919050565b5f6020820190508181035f83015261220d816121d4565b9050919050565b5f81905092915050565b7f19010000000000000000000000000000000000000000000000000000000000005f82015250565b5f612252600283612214565b915061225d8261221e565b600282019050919050565b5f819050919050565b5f819050919050565b61228b61228682612268565b612271565b82525050565b5f61229b82612246565b91506122a7828561227a565b6020820191506122b7828461227a565b6020820191508190509392505050565b6122d081612268565b82525050565b5f6080820190506122e95f8301876122c7565b6122f660208301866115a6565b61230360408301856122c7565b61231060608301846122c7565b95945050505050565b5f60c08201905061232c5f8301896122c7565b61233960208301886122c7565b61234660408301876122c7565b61235360608301866122c7565b6123606080830185611372565b61236d60a0830184611372565b97965050505050505056fea2646970667358221220fb8f8e064f4721d7fc7f04b3d083701dd45a6e90224a8c622bf989b3df17b20a64736f6c63430008140033",
  "linkReferences": {},
  "deployedLinkReferences": {}
}