{
  "_format": "hh-sol-artifact-1",
  "contractName": "WorldWideWeb3",
  "sourceName": "contracts/WorldWideWeb3.sol",
  "abi": [
    {
      "inputs": [
        {
          "internalType": "string",
          "name": "name",
          "type": "string"
        },
        {
          "internalType": "string",
          "name": "version",
          "type": "string"
        }
      ],
      "stateMutability": "nonpayable",
      "type": "constructor"
    },
    {
      "anonymous": false,
      "inputs": [
        {
          "indexed": true,
          "internalType": "address",
          "name": "previousOwner",
          "type": "address"
        },
        {
          "indexed": true,
          "internalType": "address",
          "name": "newOwner",
          "type": "address"
        }
      ],
      "name": "OwnershipTransferred",
      "type": "event"
    },
    {
      "anonymous": false,
      "inputs": [
        {
          "indexed": false,
          "internalType": "address",
          "name": "account",
          "type": "address"
        },
        {
          "indexed": false,
          "internalType": "uint256",
          "name": "tier",
          "type": "uint256"
        }
      ],
      "name": "Signer",
      "type": "event"
    },
    {
      "inputs": [],
      "name": "_getChainId",
      "outputs": [
        {
          "internalType": "uint256",
          "name": "chainId",
          "type": "uint256"
        }
      ],
      "stateMutability": "view",
      "type": "function"
    },
    {
      "inputs": [
        {
          "internalType": "address",
          "name": "",
          "type": "address"
        }
      ],
      "name": "frensTrust",
      "outputs": [
        {
          "internalType": "uint256",
          "name": "",
          "type": "uint256"
        }
      ],
      "stateMutability": "view",
      "type": "function"
    },
    {
      "inputs": [],
      "name": "owner",
      "outputs": [
        {
          "internalType": "address",
          "name": "",
          "type": "address"
        }
      ],
      "stateMutability": "view",
      "type": "function"
    },
    {
      "inputs": [],
      "name": "renounceOwnership",
      "outputs": [],
      "stateMutability": "nonpayable",
      "type": "function"
    },
    {
      "inputs": [
        {
          "internalType": "string",
          "name": "message",
          "type": "string"
        },
        {
          "internalType": "string",
          "name": "latitude",
          "type": "string"
        },
        {
          "internalType": "string",
          "name": "longitude",
          "type": "string"
        },
        {
          "internalType": "uint256",
          "name": "deadline",
          "type": "uint256"
        },
        {
          "internalType": "uint256",
          "name": "tier",
          "type": "uint256"
        },
        {
          "internalType": "bytes",
          "name": "signature",
          "type": "bytes"
        }
      ],
      "name": "submitMessage",
      "outputs": [],
      "stateMutability": "payable",
      "type": "function"
    },
    {
      "inputs": [
        {
          "internalType": "uint256",
          "name": "",
          "type": "uint256"
        }
      ],
      "name": "tierPrice",
      "outputs": [
        {
          "internalType": "uint256",
          "name": "",
          "type": "uint256"
        }
      ],
      "stateMutability": "view",
      "type": "function"
    },
    {
      "inputs": [
        {
          "internalType": "address",
          "name": "newOwner",
          "type": "address"
        }
      ],
      "name": "transferOwnership",
      "outputs": [],
      "stateMutability": "nonpayable",
      "type": "function"
    },
    {
      "inputs": [
        {
          "internalType": "string",
          "name": "message",
          "type": "string"
        },
        {
          "internalType": "string",
          "name": "latitude",
          "type": "string"
        },
        {
          "internalType": "string",
          "name": "longitude",
          "type": "string"
        },
        {
          "internalType": "uint256",
          "name": "time",
          "type": "uint256"
        },
        {
          "internalType": "uint256",
          "name": "tier",
          "type": "uint256"
        },
        {
          "internalType": "bytes",
          "name": "_signature",
          "type": "bytes"
        }
      ],
      "name": "validateMessage",
      "outputs": [
        {
          "internalType": "address",
          "name": "",
          "type": "address"
        }
      ],
      "stateMutability": "view",
      "type": "function"
    }
  ],
  "bytecode": "0x61014060405234801562000011575f80fd5b5060405162001707380380620017078339818101604052810190620000379190620004d1565b818181815f828051906020012090505f828051906020012090505f7f8b73c3c69bb8fe3d512ecc4cf759cc79239f7b179b0ffacaa9a75d522b39400f90508260e081815250508161010081815250504660a08181525050620000a1818484620001ca60201b60201c565b608081815250503073ffffffffffffffffffffffffffffffffffffffff1660c08173ffffffffffffffffffffffffffffffffffffffff16815250508061012081815250505050505050620001406040518060800160405280848152602001838152602001620001156200020560201b60201c565b81526020013073ffffffffffffffffffffffffffffffffffffffff168152506200020c60201b60201c565b5f819055505050620001676200015b6200028260201b60201c565b6200028960201b60201c565b660aa87bee53800060035f600181526020019081526020015f2081905550666a94d74f43000060035f600281526020019081526020015f2081905550670429d069189e000060035f600381526020019081526020015f2081905550505062000626565b5f8383834630604051602001620001e6959493929190620005cb565b6040516020818303038152906040528051906020012090509392505050565b5f46905090565b5f7f8b73c3c69bb8fe3d512ecc4cf759cc79239f7b179b0ffacaa9a75d522b39400f825f0151805190602001208360200151805190602001208460400151856060015160405160200162000265959493929190620005cb565b604051602081830303815290604052805190602001209050919050565b5f33905090565b5f60015f9054906101000a900473ffffffffffffffffffffffffffffffffffffffff1690508160015f6101000a81548173ffffffffffffffffffffffffffffffffffffffff021916908373ffffffffffffffffffffffffffffffffffffffff1602179055508173ffffffffffffffffffffffffffffffffffffffff168173ffffffffffffffffffffffffffffffffffffffff167f8be0079c531659141344cd1fd0a4f28419497f9722a3daafe3b4186f6b6457e060405160405180910390a35050565b5f604051905090565b5f80fd5b5f80fd5b5f80fd5b5f80fd5b5f601f19601f8301169050919050565b7f4e487b71000000000000000000000000000000000000000000000000000000005f52604160045260245ffd5b620003ad8262000365565b810181811067ffffffffffffffff82111715620003cf57620003ce62000375565b5b80604052505050565b5f620003e36200034c565b9050620003f18282620003a2565b919050565b5f67ffffffffffffffff82111562000413576200041262000375565b5b6200041e8262000365565b9050602081019050919050565b5f5b838110156200044a5780820151818401526020810190506200042d565b5f8484015250505050565b5f6200046b6200046584620003f6565b620003d8565b9050828152602081018484840111156200048a576200048962000361565b5b620004978482856200042b565b509392505050565b5f82601f830112620004b657620004b56200035d565b5b8151620004c884826020860162000455565b91505092915050565b5f8060408385031215620004ea57620004e962000355565b5b5f83015167ffffffffffffffff8111156200050a576200050962000359565b5b62000518858286016200049f565b925050602083015167ffffffffffffffff8111156200053c576200053b62000359565b5b6200054a858286016200049f565b9150509250929050565b5f819050919050565b620005688162000554565b82525050565b5f819050919050565b62000582816200056e565b82525050565b5f73ffffffffffffffffffffffffffffffffffffffff82169050919050565b5f620005b38262000588565b9050919050565b620005c581620005a7565b82525050565b5f60a082019050620005e05f8301886200055d565b620005ef60208301876200055d565b620005fe60408301866200055d565b6200060d606083018562000577565b6200061c6080830184620005ba565b9695505050505050565b60805160a05160c05160e05161010051610120516110ab6200065c5f395f50505f50505f50505f50505f50505f50506110ab5ff3fe60806040526004361061007a575f3560e01c80638da5cb5b1161004d5780638da5cb5b14610136578063baed55e814610160578063f2fde38b1461017c578063fa09da07146101a45761007a565b806302346b051461007e578063715018a6146100a857806372e09af2146100be578063826d3379146100fa575b5f80fd5b348015610089575f80fd5b506100926101e0565b60405161009f91906107ca565b60405180910390f35b3480156100b3575f80fd5b506100bc6101e7565b005b3480156100c9575f80fd5b506100e460048036038101906100df919061084e565b6101fa565b6040516100f191906107ca565b60405180910390f35b348015610105575f80fd5b50610120600480360381019061011b91906108a3565b61020f565b60405161012d91906107ca565b60405180910390f35b348015610141575f80fd5b5061014a610224565b60405161015791906108dd565b60405180910390f35b61017a60048036038101906101759190610ad0565b61024c565b005b348015610187575f80fd5b506101a2600480360381019061019d919061084e565b61043e565b005b3480156101af575f80fd5b506101ca60048036038101906101c59190610ad0565b6104c0565b6040516101d791906108dd565b60405180910390f35b5f46905090565b6101ef61051f565b6101f85f61059d565b565b6002602052805f5260405f205f915090505481565b6003602052805f5260405f205f915090505481565b5f60015f9054906101000a900473ffffffffffffffffffffffffffffffffffffffff16905090565b3373ffffffffffffffffffffffffffffffffffffffff166102718787878787876104c0565b73ffffffffffffffffffffffffffffffffffffffff16146102c7576040517f08c379a00000000000000000000000000000000000000000000000000000000081526004016102be90610c23565b60405180910390fd5b5f821180156102d65750600482105b610315576040517f08c379a000000000000000000000000000000000000000000000000000000000815260040161030c90610c8b565b60405180910390fd5b60035f8381526020019081526020015f20543414610368576040517f08c379a000000000000000000000000000000000000000000000000000000000815260040161035f90610cf3565b60405180910390fd5b8242106103aa576040517f08c379a00000000000000000000000000000000000000000000000000000000081526004016103a190610d5b565b60405180910390fd5b3460025f3373ffffffffffffffffffffffffffffffffffffffff1673ffffffffffffffffffffffffffffffffffffffff1681526020019081526020015f205f8282546103f69190610da6565b925050819055507f034fc77b8ce78dbffae6d936714ef4dabe9228f22f46e3943be649e39ba013c9338360405161042e929190610dd9565b60405180910390a1505050505050565b61044661051f565b5f73ffffffffffffffffffffffffffffffffffffffff168173ffffffffffffffffffffffffffffffffffffffff16036104b4576040517f08c379a00000000000000000000000000000000000000000000000000000000081526004016104ab90610e70565b60405180910390fd5b6104bd8161059d565b50565b5f806040518060a001604052808981526020018881526020018781526020018581526020018681525090505f805f6104f786610660565b80935081945082955050505061050f8484848461069d565b9450505050509695505050505050565b61052761072a565b73ffffffffffffffffffffffffffffffffffffffff16610545610224565b73ffffffffffffffffffffffffffffffffffffffff161461059b576040517f08c379a000000000000000000000000000000000000000000000000000000000815260040161059290610ed8565b60405180910390fd5b565b5f60015f9054906101000a900473ffffffffffffffffffffffffffffffffffffffff1690508160015f6101000a81548173ffffffffffffffffffffffffffffffffffffffff021916908373ffffffffffffffffffffffffffffffffffffffff1602179055508173ffffffffffffffffffffffffffffffffffffffff168173ffffffffffffffffffffffffffffffffffffffff167f8be0079c531659141344cd1fd0a4f28419497f9722a3daafe3b4186f6b6457e060405160405180910390a35050565b5f805f6041845114610670575f80fd5b5f805f602087015192506040870151915060608701515f1a90508083839550955095505050509193909250565b5f805f546106aa87610731565b6040516020016106bb929190610f73565b6040516020818303038152906040528051906020012090506001818686866040515f81526020016040526040516106f59493929190610fd3565b6020604051602081039080840390855afa158015610715573d5f803e3d5ffd5b50505060206040510351915050949350505050565b5f33905090565b5f7facf5fe31302e000a021505d68f64f59a958ed052954af199025629c07a5c0912825f0151805190602001208360200151805190602001208460400151805190602001208560600151866080015160405160200161079596959493929190611016565b604051602081830303815290604052805190602001209050919050565b5f819050919050565b6107c4816107b2565b82525050565b5f6020820190506107dd5f8301846107bb565b92915050565b5f604051905090565b5f80fd5b5f80fd5b5f73ffffffffffffffffffffffffffffffffffffffff82169050919050565b5f61081d826107f4565b9050919050565b61082d81610813565b8114610837575f80fd5b50565b5f8135905061084881610824565b92915050565b5f60208284031215610863576108626107ec565b5b5f6108708482850161083a565b91505092915050565b610882816107b2565b811461088c575f80fd5b50565b5f8135905061089d81610879565b92915050565b5f602082840312156108b8576108b76107ec565b5b5f6108c58482850161088f565b91505092915050565b6108d781610813565b82525050565b5f6020820190506108f05f8301846108ce565b92915050565b5f80fd5b5f80fd5b5f601f19601f8301169050919050565b7f4e487b71000000000000000000000000000000000000000000000000000000005f52604160045260245ffd5b610944826108fe565b810181811067ffffffffffffffff821117156109635761096261090e565b5b80604052505050565b5f6109756107e3565b9050610981828261093b565b919050565b5f67ffffffffffffffff8211156109a05761099f61090e565b5b6109a9826108fe565b9050602081019050919050565b828183375f83830152505050565b5f6109d66109d184610986565b61096c565b9050828152602081018484840111156109f2576109f16108fa565b5b6109fd8482856109b6565b509392505050565b5f82601f830112610a1957610a186108f6565b5b8135610a298482602086016109c4565b91505092915050565b5f67ffffffffffffffff821115610a4c57610a4b61090e565b5b610a55826108fe565b9050602081019050919050565b5f610a74610a6f84610a32565b61096c565b905082815260208101848484011115610a9057610a8f6108fa565b5b610a9b8482856109b6565b509392505050565b5f82601f830112610ab757610ab66108f6565b5b8135610ac7848260208601610a62565b91505092915050565b5f805f805f8060c08789031215610aea57610ae96107ec565b5b5f87013567ffffffffffffffff811115610b0757610b066107f0565b5b610b1389828a01610a05565b965050602087013567ffffffffffffffff811115610b3457610b336107f0565b5b610b4089828a01610a05565b955050604087013567ffffffffffffffff811115610b6157610b606107f0565b5b610b6d89828a01610a05565b9450506060610b7e89828a0161088f565b9350506080610b8f89828a0161088f565b92505060a087013567ffffffffffffffff811115610bb057610baf6107f0565b5b610bbc89828a01610aa3565b9150509295509295509295565b5f82825260208201905092915050565b7f496e76616c6964207369676e61747572650000000000000000000000000000005f82015250565b5f610c0d601183610bc9565b9150610c1882610bd9565b602082019050919050565b5f6020820190508181035f830152610c3a81610c01565b9050919050565b7f696e76616c6964207469657200000000000000000000000000000000000000005f82015250565b5f610c75600c83610bc9565b9150610c8082610c41565b602082019050919050565b5f6020820190508181035f830152610ca281610c69565b9050919050565b7f696e636f7265637420707269636520666f7220746965720000000000000000005f82015250565b5f610cdd601783610bc9565b9150610ce882610ca9565b602082019050919050565b5f6020820190508181035f830152610d0a81610cd1565b9050919050565b7f70617373656420646561646c696e6500000000000000000000000000000000005f82015250565b5f610d45600f83610bc9565b9150610d5082610d11565b602082019050919050565b5f6020820190508181035f830152610d7281610d39565b9050919050565b7f4e487b71000000000000000000000000000000000000000000000000000000005f52601160045260245ffd5b5f610db0826107b2565b9150610dbb836107b2565b9250828201905080821115610dd357610dd2610d79565b5b92915050565b5f604082019050610dec5f8301856108ce565b610df960208301846107bb565b9392505050565b7f4f776e61626c653a206e6577206f776e657220697320746865207a65726f20615f8201527f6464726573730000000000000000000000000000000000000000000000000000602082015250565b5f610e5a602683610bc9565b9150610e6582610e00565b604082019050919050565b5f6020820190508181035f830152610e8781610e4e565b9050919050565b7f4f776e61626c653a2063616c6c6572206973206e6f7420746865206f776e65725f82015250565b5f610ec2602083610bc9565b9150610ecd82610e8e565b602082019050919050565b5f6020820190508181035f830152610eef81610eb6565b9050919050565b5f81905092915050565b7f19010000000000000000000000000000000000000000000000000000000000005f82015250565b5f610f34600283610ef6565b9150610f3f82610f00565b600282019050919050565b5f819050919050565b5f819050919050565b610f6d610f6882610f4a565b610f53565b82525050565b5f610f7d82610f28565b9150610f898285610f5c565b602082019150610f998284610f5c565b6020820191508190509392505050565b610fb281610f4a565b82525050565b5f60ff82169050919050565b610fcd81610fb8565b82525050565b5f608082019050610fe65f830187610fa9565b610ff36020830186610fc4565b6110006040830185610fa9565b61100d6060830184610fa9565b95945050505050565b5f60c0820190506110295f830189610fa9565b6110366020830188610fa9565b6110436040830187610fa9565b6110506060830186610fa9565b61105d60808301856107bb565b61106a60a08301846107bb565b97965050505050505056fea2646970667358221220ab84f67c160b1f52f874e3e1552a8febb276156b6f8d448fd2a11d170d7d43b864736f6c63430008140033",
  "linkReferences": {},
  "deployedLinkReferences": {}
}