{
  "_format": "hh-sol-artifact-1",
  "contractName": "WorldWideWeb3",
  "sourceName": "contracts/WorldWideWeb3.sol",
  "abi": [
    {
      "inputs": [
        {
          "internalType": "string",
          "name": "_name",
          "type": "string"
        },
        {
          "internalType": "string",
          "name": "_version",
          "type": "string"
        },
        {
          "internalType": "address",
          "name": "_validator",
          "type": "address"
        },
        {
          "internalType": "address",
          "name": "_shareHoldingContract",
          "type": "address"
        }
      ],
      "stateMutability": "nonpayable",
      "type": "constructor"
    },
    {
      "inputs": [],
      "name": "InvalidShortString",
      "type": "error"
    },
    {
      "inputs": [
        {
          "internalType": "address",
          "name": "owner",
          "type": "address"
        }
      ],
      "name": "OwnableInvalidOwner",
      "type": "error"
    },
    {
      "inputs": [
        {
          "internalType": "address",
          "name": "account",
          "type": "address"
        }
      ],
      "name": "OwnableUnauthorizedAccount",
      "type": "error"
    },
    {
      "inputs": [
        {
          "internalType": "string",
          "name": "str",
          "type": "string"
        }
      ],
      "name": "StringTooLong",
      "type": "error"
    },
    {
      "anonymous": false,
      "inputs": [],
      "name": "EIP712DomainChanged",
      "type": "event"
    },
    {
      "anonymous": false,
      "inputs": [
        {
          "indexed": false,
          "internalType": "address",
          "name": "account",
          "type": "address"
        },
        {
          "indexed": false,
          "internalType": "uint256",
          "name": "id",
          "type": "uint256"
        }
      ],
      "name": "Mint",
      "type": "event"
    },
    {
      "anonymous": false,
      "inputs": [
        {
          "indexed": true,
          "internalType": "address",
          "name": "previousOwner",
          "type": "address"
        },
        {
          "indexed": true,
          "internalType": "address",
          "name": "newOwner",
          "type": "address"
        }
      ],
      "name": "OwnershipTransferred",
      "type": "event"
    },
    {
      "anonymous": false,
      "inputs": [
        {
          "indexed": false,
          "internalType": "address",
          "name": "account",
          "type": "address"
        },
        {
          "indexed": false,
          "internalType": "uint256",
          "name": "tier",
          "type": "uint256"
        },
        {
          "indexed": false,
          "internalType": "bytes",
          "name": "signature",
          "type": "bytes"
        }
      ],
      "name": "Signer",
      "type": "event"
    },
    {
      "inputs": [],
      "name": "_getChainId",
      "outputs": [
        {
          "internalType": "uint256",
          "name": "chainId",
          "type": "uint256"
        }
      ],
      "stateMutability": "view",
      "type": "function"
    },
    {
      "inputs": [],
      "name": "eip712Domain",
      "outputs": [
        {
          "internalType": "bytes1",
          "name": "fields",
          "type": "bytes1"
        },
        {
          "internalType": "string",
          "name": "name",
          "type": "string"
        },
        {
          "internalType": "string",
          "name": "version",
          "type": "string"
        },
        {
          "internalType": "uint256",
          "name": "chainId",
          "type": "uint256"
        },
        {
          "internalType": "address",
          "name": "verifyingContract",
          "type": "address"
        },
        {
          "internalType": "bytes32",
          "name": "salt",
          "type": "bytes32"
        },
        {
          "internalType": "uint256[]",
          "name": "extensions",
          "type": "uint256[]"
        }
      ],
      "stateMutability": "view",
      "type": "function"
    },
    {
      "inputs": [],
      "name": "owner",
      "outputs": [
        {
          "internalType": "address",
          "name": "",
          "type": "address"
        }
      ],
      "stateMutability": "view",
      "type": "function"
    },
    {
      "inputs": [
        {
          "internalType": "address",
          "name": "",
          "type": "address"
        }
      ],
      "name": "premiumAccount",
      "outputs": [
        {
          "internalType": "bool",
          "name": "",
          "type": "bool"
        }
      ],
      "stateMutability": "view",
      "type": "function"
    },
    {
      "inputs": [],
      "name": "renounceOwnership",
      "outputs": [],
      "stateMutability": "nonpayable",
      "type": "function"
    },
    {
      "inputs": [
        {
          "internalType": "string",
          "name": "message",
          "type": "string"
        },
        {
          "internalType": "string",
          "name": "latitude",
          "type": "string"
        },
        {
          "internalType": "string",
          "name": "longitude",
          "type": "string"
        },
        {
          "internalType": "uint256",
          "name": "deadline",
          "type": "uint256"
        },
        {
          "internalType": "uint256",
          "name": "tier",
          "type": "uint256"
        },
        {
          "internalType": "bytes",
          "name": "signature",
          "type": "bytes"
        },
        {
          "internalType": "bytes",
          "name": "validatorSignature",
          "type": "bytes"
        }
      ],
      "name": "submitMessage",
      "outputs": [],
      "stateMutability": "payable",
      "type": "function"
    },
    {
      "inputs": [
        {
          "internalType": "uint256",
          "name": "",
          "type": "uint256"
        }
      ],
      "name": "tierPrice",
      "outputs": [
        {
          "internalType": "uint256",
          "name": "",
          "type": "uint256"
        }
      ],
      "stateMutability": "view",
      "type": "function"
    },
    {
      "inputs": [
        {
          "internalType": "address",
          "name": "newOwner",
          "type": "address"
        }
      ],
      "name": "transferOwnership",
      "outputs": [],
      "stateMutability": "nonpayable",
      "type": "function"
    },
    {
      "inputs": [
        {
          "internalType": "address",
          "name": "",
          "type": "address"
        }
      ],
      "name": "trust",
      "outputs": [
        {
          "internalType": "uint256",
          "name": "",
          "type": "uint256"
        }
      ],
      "stateMutability": "view",
      "type": "function"
    },
    {
      "inputs": [
        {
          "internalType": "string",
          "name": "message",
          "type": "string"
        },
        {
          "internalType": "string",
          "name": "latitude",
          "type": "string"
        },
        {
          "internalType": "string",
          "name": "longitude",
          "type": "string"
        },
        {
          "internalType": "uint256",
          "name": "time",
          "type": "uint256"
        },
        {
          "internalType": "uint256",
          "name": "tier",
          "type": "uint256"
        },
        {
          "internalType": "bytes",
          "name": "_signature",
          "type": "bytes"
        }
      ],
      "name": "validateMessage",
      "outputs": [
        {
          "internalType": "address",
          "name": "",
          "type": "address"
        }
      ],
      "stateMutability": "view",
      "type": "function"
    },
    {
      "inputs": [],
      "name": "validator",
      "outputs": [
        {
          "internalType": "address",
          "name": "",
          "type": "address"
        }
      ],
      "stateMutability": "view",
      "type": "function"
    }
  ],
  "bytecode": "0x6101606040523480156200001257600080fd5b5060405162002ffe38038062002ffe8339818101604052810190620000389190620008cb565b8383818133600073ffffffffffffffffffffffffffffffffffffffff168173ffffffffffffffffffffffffffffffffffffffff1603620000b25760006040517f1e4fbdf7000000000000000000000000000000000000000000000000000000008152600401620000a991906200098c565b60405180910390fd5b620000c3816200039960201b60201c565b50620000da6001836200045d60201b90919060201c565b6101208181525050620000f86002826200045d60201b90919060201c565b6101408181525050818051906020012060e08181525050808051906020012061010081815250504660a0818152505062000137620004b560201b60201c565b608081815250503073ffffffffffffffffffffffffffffffffffffffff1660c08173ffffffffffffffffffffffffffffffffffffffff1681525050505062000190677605795e6bf8f49b60c01b6200051260201b60201c565b620001ac673b718fecd7659de060c01b6200051260201b60201c565b620002026040518060800160405280848152602001838152602001620001d76200051560201b60201c565b81526020013073ffffffffffffffffffffffffffffffffffffffff168152506200058d60201b60201c565b60038190555050506200022667859845f20388ebdb60c01b6200065960201b60201c565b62000242679b93974b4cc0118460c01b6200065960201b60201c565b60006006600060018152602001908152602001600020819055506200027867e838bdbdf5246b8060c01b6200065960201b60201c565b660aa87bee538000600660006002815260200190815260200160002081905550620002b467551fb1e1eda2c0cb60c01b6200065960201b60201c565b670429d069189e0000600660006003815260200190815260200160002081905550620002f167da32e66799d269c760c01b6200065960201b60201c565b81600460006101000a81548173ffffffffffffffffffffffffffffffffffffffff021916908373ffffffffffffffffffffffffffffffffffffffff1602179055506200034e676296ef97026d64ce60c01b6200065960201b60201c565b80600860006101000a81548173ffffffffffffffffffffffffffffffffffffffff021916908373ffffffffffffffffffffffffffffffffffffffff1602179055505050505062000e7c565b60008060009054906101000a900473ffffffffffffffffffffffffffffffffffffffff169050816000806101000a81548173ffffffffffffffffffffffffffffffffffffffff021916908373ffffffffffffffffffffffffffffffffffffffff1602179055508173ffffffffffffffffffffffffffffffffffffffff168173ffffffffffffffffffffffffffffffffffffffff167f8be0079c531659141344cd1fd0a4f28419497f9722a3daafe3b4186f6b6457e060405160405180910390a35050565b600060208351101562000483576200047b836200065c60201b60201c565b9050620004af565b826200049583620006c960201b60201c565b6000019081620004a6919062000bf4565b5060ff60001b90505b92915050565b60007f8b73c3c69bb8fe3d512ecc4cf759cc79239f7b179b0ffacaa9a75d522b39400f60e051610100514630604051602001620004f795949392919062000d07565b60405160208183030381529060405280519060200120905090565b50565b600062000533674d8781a188f4e9de60c01b6200051260201b60201c565b6200054f671954c3e5c09214e260c01b6200051260201b60201c565b4690506200056e67c4148d33c013634960c01b6200051260201b60201c565b6200058a67dc9d80ffb8b9038260c01b6200051260201b60201c565b90565b6000620005ab670c6233df7b258fb160c01b6200051260201b60201c565b620005c76798298bb581e2185e60c01b6200051260201b60201c565b620005e3670b1e7f8dd82adaa160c01b6200051260201b60201c565b7f8b73c3c69bb8fe3d512ecc4cf759cc79239f7b179b0ffacaa9a75d522b39400f826000015180519060200120836020015180519060200120846040015185606001516040516020016200063c95949392919062000d07565b604051602081830303815290604052805190602001209050919050565b50565b600080829050601f81511115620006ac57826040517f305a27a9000000000000000000000000000000000000000000000000000000008152600401620006a3919062000db6565b60405180910390fd5b805181620006ba9062000e0c565b60001c1760001b915050919050565b6000819050919050565b6000604051905090565b600080fd5b600080fd5b600080fd5b600080fd5b6000601f19601f8301169050919050565b7f4e487b7100000000000000000000000000000000000000000000000000000000600052604160045260246000fd5b6200073c82620006f1565b810181811067ffffffffffffffff821117156200075e576200075d62000702565b5b80604052505050565b600062000773620006d3565b905062000781828262000731565b919050565b600067ffffffffffffffff821115620007a457620007a362000702565b5b620007af82620006f1565b9050602081019050919050565b60005b83811015620007dc578082015181840152602081019050620007bf565b60008484015250505050565b6000620007ff620007f98462000786565b62000767565b9050828152602081018484840111156200081e576200081d620006ec565b5b6200082b848285620007bc565b509392505050565b600082601f8301126200084b576200084a620006e7565b5b81516200085d848260208601620007e8565b91505092915050565b600073ffffffffffffffffffffffffffffffffffffffff82169050919050565b6000620008938262000866565b9050919050565b620008a58162000886565b8114620008b157600080fd5b50565b600081519050620008c5816200089a565b92915050565b60008060008060808587031215620008e857620008e7620006dd565b5b600085015167ffffffffffffffff811115620009095762000908620006e2565b5b620009178782880162000833565b945050602085015167ffffffffffffffff8111156200093b576200093a620006e2565b5b620009498782880162000833565b93505060406200095c87828801620008b4565b92505060606200096f87828801620008b4565b91505092959194509250565b620009868162000886565b82525050565b6000602082019050620009a360008301846200097b565b92915050565b600081519050919050565b7f4e487b7100000000000000000000000000000000000000000000000000000000600052602260045260246000fd5b60006002820490506001821680620009fc57607f821691505b60208210810362000a125762000a11620009b4565b5b50919050565b60008190508160005260206000209050919050565b60006020601f8301049050919050565b600082821b905092915050565b60006008830262000a7c7fffffffffffffffffffffffffffffffffffffffffffffffffffffffffffffffff8262000a3d565b62000a88868362000a3d565b95508019841693508086168417925050509392505050565b6000819050919050565b6000819050919050565b600062000ad562000acf62000ac98462000aa0565b62000aaa565b62000aa0565b9050919050565b6000819050919050565b62000af18362000ab4565b62000b0962000b008262000adc565b84845462000a4a565b825550505050565b600090565b62000b2062000b11565b62000b2d81848462000ae6565b505050565b5b8181101562000b555762000b4960008262000b16565b60018101905062000b33565b5050565b601f82111562000ba45762000b6e8162000a18565b62000b798462000a2d565b8101602085101562000b89578190505b62000ba162000b988562000a2d565b83018262000b32565b50505b505050565b600082821c905092915050565b600062000bc96000198460080262000ba9565b1980831691505092915050565b600062000be4838362000bb6565b9150826002028217905092915050565b62000bff82620009a9565b67ffffffffffffffff81111562000c1b5762000c1a62000702565b5b62000c278254620009e3565b62000c3482828562000b59565b600060209050601f83116001811462000c6c576000841562000c57578287015190505b62000c63858262000bd6565b86555062000cd3565b601f19841662000c7c8662000a18565b60005b8281101562000ca65784890151825560018201915060208501945060208101905062000c7f565b8683101562000cc6578489015162000cc2601f89168262000bb6565b8355505b6001600288020188555050505b505050505050565b6000819050919050565b62000cf08162000cdb565b82525050565b62000d018162000aa0565b82525050565b600060a08201905062000d1e600083018862000ce5565b62000d2d602083018762000ce5565b62000d3c604083018662000ce5565b62000d4b606083018562000cf6565b62000d5a60808301846200097b565b9695505050505050565b600082825260208201905092915050565b600062000d8282620009a9565b62000d8e818562000d64565b935062000da0818560208601620007bc565b62000dab81620006f1565b840191505092915050565b6000602082019050818103600083015262000dd2818462000d75565b905092915050565b600081519050919050565b6000819050602082019050919050565b600062000e03825162000cdb565b80915050919050565b600062000e198262000dda565b8262000e258462000de5565b905062000e328162000df5565b9250602082101562000e755762000e707fffffffffffffffffffffffffffffffffffffffffffffffffffffffffffffffff8360200360080262000a3d565b831692505b5050919050565b60805160a05160c05160e05161010051610120516101405161213662000ec86000396000610ef501526000610eba015260005050600050506000505060005050600050506121366000f3fe60806040526004361061009c5760003560e01c806384b0196e1161006457806384b0196e146101885780638da5cb5b146101b9578063d97cb71f146101e4578063f2fde38b14610200578063fa09da0714610229578063fb660a13146102665761009c565b806302346b05146100a15780633a5381b5146100cc5780634637d827146100f7578063715018a614610134578063826d33791461014b575b600080fd5b3480156100ad57600080fd5b506100b66102a3565b6040516100c391906113d1565b60405180910390f35b3480156100d857600080fd5b506100e16102fb565b6040516100ee919061142d565b60405180910390f35b34801561010357600080fd5b5061011e60048036038101906101199190611488565b610321565b60405161012b91906113d1565b60405180910390f35b34801561014057600080fd5b50610149610339565b005b34801561015757600080fd5b50610172600480360381019061016d91906114e1565b61034d565b60405161017f91906113d1565b60405180910390f35b34801561019457600080fd5b5061019d610365565b6040516101b097969594939291906116b0565b60405180910390f35b3480156101c557600080fd5b506101ce61040f565b6040516101db919061142d565b60405180910390f35b6101fe60048036038101906101f9919061190a565b610438565b005b34801561020c57600080fd5b5061022760048036038101906102229190611488565b610b69565b005b34801561023557600080fd5b50610250600480360381019061024b9190611a38565b610bef565b60405161025d919061142d565b60405180910390f35b34801561027257600080fd5b5061028d60048036038101906102889190611488565b610d43565b60405161029a9190611b50565b60405180910390f35b60006102b9674d8781a188f4e9de60c01b610d63565b6102cd671954c3e5c09214e260c01b610d63565b4690506102e467c4148d33c013634960c01b610d63565b6102f867dc9d80ffb8b9038260c01b610d63565b90565b600460009054906101000a900473ffffffffffffffffffffffffffffffffffffffff1681565b60056020528060005260406000206000915090505481565b610341610d66565b61034b6000610ded565b565b60066020528060005260406000206000915090505481565b600060608060008060006060610379610eb1565b610381610eec565b46306000801b600067ffffffffffffffff8111156103a2576103a161173e565b5b6040519080825280602002602001820160405280156103d05781602001602082028036833780820191505090505b507f0f00000000000000000000000000000000000000000000000000000000000000959493929190965096509650965096509650965090919293949596565b60008060009054906101000a900473ffffffffffffffffffffffffffffffffffffffff16905090565b61044c67c6f71914f1c2249560c01b610f27565b610460676549cd94516b065260c01b610f27565b61047467502edbc628e0f00660c01b610f27565b610488679bcc49a8b65142df60c01b610f27565b3373ffffffffffffffffffffffffffffffffffffffff166104ad888888888888610bef565b73ffffffffffffffffffffffffffffffffffffffff1614610503576040517f08c379a00000000000000000000000000000000000000000000000000000000081526004016104fa90611bb7565b60405180910390fd5b610517678eff277b3a9d20e960c01b610f27565b61052b678274fb14d0c60f0d60c01b610f27565b61053f677f01977a4c08a03560c01b610f27565b6105536731cfb2abdd14054c60c01b610f27565b600460009054906101000a900473ffffffffffffffffffffffffffffffffffffffff1673ffffffffffffffffffffffffffffffffffffffff1661059a888888888887610bef565b73ffffffffffffffffffffffffffffffffffffffff16146105f0576040517f08c379a00000000000000000000000000000000000000000000000000000000081526004016105e790611c23565b60405180910390fd5b610604674bb20cb7dbb83f3560c01b610f27565b61061867611a24467899e88160c01b610f27565b61062c677a1f517941f7315e60c01b610f27565b61064067a92c13946be43ba960c01b610f27565b6000831180156106505750600483105b61068f576040517f08c379a000000000000000000000000000000000000000000000000000000000815260040161068690611c8f565b60405180910390fd5b6106a367c936004919b74bd260c01b610f27565b6106b767e63b3109553c7d0260c01b610f27565b6106cb677993e56b85e2ccb060c01b610f27565b6106df67ebba8b1b4331b1f960c01b610f27565b834210610721576040517f08c379a000000000000000000000000000000000000000000000000000000000815260040161071890611cfb565b60405180910390fd5b61073567f0d4a9986741873060c01b610f27565b6107496708c03468a501358960c01b610f27565b61075d6728a4860801a15c0660c01b610f27565b600760003373ffffffffffffffffffffffffffffffffffffffff1673ffffffffffffffffffffffffffffffffffffffff16815260200190815260200160002060009054906101000a900460ff16156107c8576107c367942d5ed3cffbe11560c01b610f27565b6109b6565b6107dc679ea1ce95ff3a43ca60c01b610f27565b6107f067af9d12953d0785f160c01b610f27565b61080467d429d1b09593b30c60c01b610f27565b610818670202da6233bf6b2560c01b610f27565b6006600084815260200190815260200160002054341461086d576040517f08c379a000000000000000000000000000000000000000000000000000000000815260040161086490611d67565b60405180910390fd5b61088167e9446412a2175ada60c01b610f27565b6108956759f99933874e5a6660c01b610f27565b34600560003373ffffffffffffffffffffffffffffffffffffffff1673ffffffffffffffffffffffffffffffffffffffff16815260200190815260200160002060008282546108e49190611db6565b925050819055506108ff674f04a9fc64efe94260c01b610f27565b6109136710c0ab359f1be18560c01b610f27565b600383036109a05761092f6757eb25a0ba94c58660c01b610f27565b61094367336bf1b5d82d612160c01b610f27565b6001600760003373ffffffffffffffffffffffffffffffffffffffff1673ffffffffffffffffffffffffffffffffffffffff16815260200190815260200160002060006101000a81548160ff0219169083151502179055506109b5565b6109b46776a759e213558ba960c01b610f27565b5b5b6109ca6792e8e96c6f0a00ca60c01b610f27565b6109de671d01f466d5f4af6f60c01b610f27565b6000600860009054906101000a900473ffffffffffffffffffffffffffffffffffffffff1673ffffffffffffffffffffffffffffffffffffffff1634604051610a2690611e1b565b60006040518083038185875af1925050503d8060008114610a63576040519150601f19603f3d011682016040523d82523d6000602084013e610a68565b606091505b50509050610a8067d02e4b10dc3848e260c01b610f27565b610a9467ed3069eb24ce5fd760c01b610f27565b610aa867f3ee33c99978849060c01b610f27565b80610ae8576040517f08c379a0000000000000000000000000000000000000000000000000000000008152600401610adf90611e7c565b60405180910390fd5b610afc67318e8743299a51dc60c01b610f27565b610b106779356f0744196b1060c01b610f27565b610b2467fae66c9708941a4f60c01b610f27565b7f4de6bc4cd4b4de1907cdbc178d12d48944d640834a9740877b7b4b36f00fa169338585604051610b5793929190611ef1565b60405180910390a15050505050505050565b610b71610d66565b600073ffffffffffffffffffffffffffffffffffffffff168173ffffffffffffffffffffffffffffffffffffffff1603610be35760006040517f1e4fbdf7000000000000000000000000000000000000000000000000000000008152600401610bda919061142d565b60405180910390fd5b610bec81610ded565b50565b6000610c0567a7926f8e9bd5502360c01b610d63565b610c19671edb4b31eb5d04e060c01b610d63565b610c2d6784d080070ab8090960c01b610d63565b60006040518060a00160405280898152602001888152602001878152602001858152602001868152509050610c6c670367124be565452860c01b610d63565b610c8067d761153cdecd1e7160c01b610d63565b6000610c96675bcb680d8cf04c0860c01b610d63565b610caa6715f421b8612b91ff60c01b610d63565b6000610cc067b14a1065514eac9960c01b610d63565b610cd467e7af03bd9cc3bae460c01b610d63565b6000610cea673ca94e4d7ddcbb3e60c01b610d63565b610cf386610f2a565b809350819450829550505050610d136768a932163e49740b60c01b610d63565b610d2767c26b9664f17a361b60c01b610d63565b610d3384848484611086565b9450505050509695505050505050565b60076020528060005260406000206000915054906101000a900460ff1681565b50565b610d6e61117d565b73ffffffffffffffffffffffffffffffffffffffff16610d8c61040f565b73ffffffffffffffffffffffffffffffffffffffff1614610deb57610daf61117d565b6040517f118cdaa7000000000000000000000000000000000000000000000000000000008152600401610de2919061142d565b60405180910390fd5b565b60008060009054906101000a900473ffffffffffffffffffffffffffffffffffffffff169050816000806101000a81548173ffffffffffffffffffffffffffffffffffffffff021916908373ffffffffffffffffffffffffffffffffffffffff1602179055508173ffffffffffffffffffffffffffffffffffffffff168173ffffffffffffffffffffffffffffffffffffffff167f8be0079c531659141344cd1fd0a4f28419497f9722a3daafe3b4186f6b6457e060405160405180910390a35050565b6060610ee760017f000000000000000000000000000000000000000000000000000000000000000061118590919063ffffffff16565b905090565b6060610f2260027f000000000000000000000000000000000000000000000000000000000000000061118590919063ffffffff16565b905090565b50565b6000806000610f4367a8f6a6a38c4ed47460c01b610d63565b610f57677ca8545e4de7f19560c01b610d63565b610f6b67b8468564871bc76360c01b610d63565b610f7f67d67e65e6dd17112d60c01b610d63565b6041845114610f8d57600080fd5b610fa167b8638811709e768260c01b610d63565b610fb56763f72b6e369b09b160c01b610d63565b610fc967aea246f0c453720e60c01b610d63565b6000610fdf67577de50a1f00668c60c01b610d63565b610ff36794cedb1e469a174960c01b610d63565b6000611009672250c72ac0ec5aff60c01b610d63565b61101d67e25d539f73c762f260c01b610d63565b600061103367ede93601db22bc4560c01b610d63565b6020870151925060408701519150606087015160001a905061105f678ec95b7f9784365760c01b610d63565b61107367e8528638f24d8e1060c01b610d63565b8083839550955095505050509193909250565b600061109c67105ff00a3b12b33060c01b610d63565b6110b067460ca9e94873f19a60c01b610d63565b6110c467e69930983dd51ae760c01b610d63565b60006003546110d287611235565b6040516020016110e3929190611fa7565b60405160208183030381529060405280519060200120905061110f67ff456692e8d9f0f060c01b610d63565b61112367d432072f6940485760c01b610d63565b600181868686604051600081526020016040526040516111469493929190611ffa565b6020604051602081039080840390855afa158015611168573d6000803e3d6000fd5b50505060206040510351915050949350505050565b600033905090565b606060ff60001b83146111a25761119b836112f4565b905061122f565b8180546111ae9061206e565b80601f01602080910402602001604051908101604052809291908181526020018280546111da9061206e565b80156112275780601f106111fc57610100808354040283529160200191611227565b820191906000526020600020905b81548152906001019060200180831161120a57829003601f168201915b505050505090505b92915050565b600061124b679fda9599c026502c60c01b610d63565b61125f6764f606e26383e90e60c01b610d63565b61127367bdb43e4fa61d522160c01b610d63565b7facf5fe31302e000a021505d68f64f59a958ed052954af199025629c07a5c0912826000015180519060200120836020015180519060200120846040015180519060200120856060015186608001516040516020016112d79695949392919061209f565b604051602081830303815290604052805190602001209050919050565b6060600061130183611368565b90506000602067ffffffffffffffff8111156113205761131f61173e565b5b6040519080825280601f01601f1916602001820160405280156113525781602001600182028036833780820191505090505b5090508181528360208201528092505050919050565b60008060ff8360001c169050601f8111156113af576040517fb3512b0c00000000000000000000000000000000000000000000000000000000815260040160405180910390fd5b80915050919050565b6000819050919050565b6113cb816113b8565b82525050565b60006020820190506113e660008301846113c2565b92915050565b600073ffffffffffffffffffffffffffffffffffffffff82169050919050565b6000611417826113ec565b9050919050565b6114278161140c565b82525050565b6000602082019050611442600083018461141e565b92915050565b6000604051905090565b600080fd5b600080fd5b6114658161140c565b811461147057600080fd5b50565b6000813590506114828161145c565b92915050565b60006020828403121561149e5761149d611452565b5b60006114ac84828501611473565b91505092915050565b6114be816113b8565b81146114c957600080fd5b50565b6000813590506114db816114b5565b92915050565b6000602082840312156114f7576114f6611452565b5b6000611505848285016114cc565b91505092915050565b60007fff0000000000000000000000000000000000000000000000000000000000000082169050919050565b6115438161150e565b82525050565b600081519050919050565b600082825260208201905092915050565b60005b83811015611583578082015181840152602081019050611568565b60008484015250505050565b6000601f19601f8301169050919050565b60006115ab82611549565b6115b58185611554565b93506115c5818560208601611565565b6115ce8161158f565b840191505092915050565b6000819050919050565b6115ec816115d9565b82525050565b600081519050919050565b600082825260208201905092915050565b6000819050602082019050919050565b611627816113b8565b82525050565b6000611639838361161e565b60208301905092915050565b6000602082019050919050565b600061165d826115f2565b61166781856115fd565b93506116728361160e565b8060005b838110156116a357815161168a888261162d565b975061169583611645565b925050600181019050611676565b5085935050505092915050565b600060e0820190506116c5600083018a61153a565b81810360208301526116d781896115a0565b905081810360408301526116eb81886115a0565b90506116fa60608301876113c2565b611707608083018661141e565b61171460a08301856115e3565b81810360c08301526117268184611652565b905098975050505050505050565b600080fd5b600080fd5b7f4e487b7100000000000000000000000000000000000000000000000000000000600052604160045260246000fd5b6117768261158f565b810181811067ffffffffffffffff821117156117955761179461173e565b5b80604052505050565b60006117a8611448565b90506117b4828261176d565b919050565b600067ffffffffffffffff8211156117d4576117d361173e565b5b6117dd8261158f565b9050602081019050919050565b82818337600083830152505050565b600061180c611807846117b9565b61179e565b90508281526020810184848401111561182857611827611739565b5b6118338482856117ea565b509392505050565b600082601f8301126118505761184f611734565b5b81356118608482602086016117f9565b91505092915050565b600067ffffffffffffffff8211156118845761188361173e565b5b61188d8261158f565b9050602081019050919050565b60006118ad6118a884611869565b61179e565b9050828152602081018484840111156118c9576118c8611739565b5b6118d48482856117ea565b509392505050565b600082601f8301126118f1576118f0611734565b5b813561190184826020860161189a565b91505092915050565b600080600080600080600060e0888a03121561192957611928611452565b5b600088013567ffffffffffffffff81111561194757611946611457565b5b6119538a828b0161183b565b975050602088013567ffffffffffffffff81111561197457611973611457565b5b6119808a828b0161183b565b965050604088013567ffffffffffffffff8111156119a1576119a0611457565b5b6119ad8a828b0161183b565b95505060606119be8a828b016114cc565b94505060806119cf8a828b016114cc565b93505060a088013567ffffffffffffffff8111156119f0576119ef611457565b5b6119fc8a828b016118dc565b92505060c088013567ffffffffffffffff811115611a1d57611a1c611457565b5b611a298a828b016118dc565b91505092959891949750929550565b60008060008060008060c08789031215611a5557611a54611452565b5b600087013567ffffffffffffffff811115611a7357611a72611457565b5b611a7f89828a0161183b565b965050602087013567ffffffffffffffff811115611aa057611a9f611457565b5b611aac89828a0161183b565b955050604087013567ffffffffffffffff811115611acd57611acc611457565b5b611ad989828a0161183b565b9450506060611aea89828a016114cc565b9350506080611afb89828a016114cc565b92505060a087013567ffffffffffffffff811115611b1c57611b1b611457565b5b611b2889828a016118dc565b9150509295509295509295565b60008115159050919050565b611b4a81611b35565b82525050565b6000602082019050611b656000830184611b41565b92915050565b7f496e76616c6964207369676e6174757265000000000000000000000000000000600082015250565b6000611ba1601183611554565b9150611bac82611b6b565b602082019050919050565b60006020820190508181036000830152611bd081611b94565b9050919050565b7f496e76616c69642076616c696461746f72207369676e61747572650000000000600082015250565b6000611c0d601b83611554565b9150611c1882611bd7565b602082019050919050565b60006020820190508181036000830152611c3c81611c00565b9050919050565b7f696e76616c696420746965720000000000000000000000000000000000000000600082015250565b6000611c79600c83611554565b9150611c8482611c43565b602082019050919050565b60006020820190508181036000830152611ca881611c6c565b9050919050565b7f5061737365642074686520646561646c696e6500000000000000000000000000600082015250565b6000611ce5601383611554565b9150611cf082611caf565b602082019050919050565b60006020820190508181036000830152611d1481611cd8565b9050919050565b7f496e636f727265637420707269636520666f7220746965720000000000000000600082015250565b6000611d51601883611554565b9150611d5c82611d1b565b602082019050919050565b60006020820190508181036000830152611d8081611d44565b9050919050565b7f4e487b7100000000000000000000000000000000000000000000000000000000600052601160045260246000fd5b6000611dc1826113b8565b9150611dcc836113b8565b9250828201905080821115611de457611de3611d87565b5b92915050565b600081905092915050565b50565b6000611e05600083611dea565b9150611e1082611df5565b600082019050919050565b6000611e2682611df8565b9150819050919050565b7f4661696c656420746f2073656e64204574686572000000000000000000000000600082015250565b6000611e66601483611554565b9150611e7182611e30565b602082019050919050565b60006020820190508181036000830152611e9581611e59565b9050919050565b600081519050919050565b600082825260208201905092915050565b6000611ec382611e9c565b611ecd8185611ea7565b9350611edd818560208601611565565b611ee68161158f565b840191505092915050565b6000606082019050611f06600083018661141e565b611f1360208301856113c2565b8181036040830152611f258184611eb8565b9050949350505050565b600081905092915050565b7f1901000000000000000000000000000000000000000000000000000000000000600082015250565b6000611f70600283611f2f565b9150611f7b82611f3a565b600282019050919050565b6000819050919050565b611fa1611f9c826115d9565b611f86565b82525050565b6000611fb282611f63565b9150611fbe8285611f90565b602082019150611fce8284611f90565b6020820191508190509392505050565b600060ff82169050919050565b611ff481611fde565b82525050565b600060808201905061200f60008301876115e3565b61201c6020830186611feb565b61202960408301856115e3565b61203660608301846115e3565b95945050505050565b7f4e487b7100000000000000000000000000000000000000000000000000000000600052602260045260246000fd5b6000600282049050600182168061208657607f821691505b6020821081036120995761209861203f565b5b50919050565b600060c0820190506120b460008301896115e3565b6120c160208301886115e3565b6120ce60408301876115e3565b6120db60608301866115e3565b6120e860808301856113c2565b6120f560a08301846113c2565b97965050505050505056fea2646970667358221220e3609b93a136280f23e1fea71ff7135ba79dbb0a12e0d8d9b65cdd907a941ac664736f6c63430008150033",
  "linkReferences": {},
  "deployedLinkReferences": {}
}