{
  "_format": "hh-sol-artifact-1",
  "contractName": "WWW3Shares",
  "sourceName": "contracts/WWW3Shares.sol",
  "abi": [
    {
      "inputs": [
        {
          "internalType": "string",
          "name": "_name",
          "type": "string"
        },
        {
          "internalType": "string",
          "name": "_symbol",
          "type": "string"
        },
        {
          "internalType": "string",
          "name": "_domain",
          "type": "string"
        },
        {
          "internalType": "uint256",
          "name": "_maxAmountOfShares",
          "type": "uint256"
        },
        {
          "internalType": "uint256",
          "name": "_sharePrice",
          "type": "uint256"
        },
        {
          "internalType": "uint256",
          "name": "_privateSellAmount",
          "type": "uint256"
        },
        {
          "internalType": "uint256",
          "name": "_vestingPeriod",
          "type": "uint256"
        },
        {
          "internalType": "address",
          "name": "_dev",
          "type": "address"
        }
      ],
      "stateMutability": "nonpayable",
      "type": "constructor"
    },
    {
      "inputs": [],
      "name": "ECDSAInvalidSignature",
      "type": "error"
    },
    {
      "inputs": [
        {
          "internalType": "uint256",
          "name": "length",
          "type": "uint256"
        }
      ],
      "name": "ECDSAInvalidSignatureLength",
      "type": "error"
    },
    {
      "inputs": [
        {
          "internalType": "bytes32",
          "name": "s",
          "type": "bytes32"
        }
      ],
      "name": "ECDSAInvalidSignatureS",
      "type": "error"
    },
    {
      "inputs": [
        {
          "internalType": "address",
          "name": "spender",
          "type": "address"
        },
        {
          "internalType": "uint256",
          "name": "allowance",
          "type": "uint256"
        },
        {
          "internalType": "uint256",
          "name": "needed",
          "type": "uint256"
        }
      ],
      "name": "ERC20InsufficientAllowance",
      "type": "error"
    },
    {
      "inputs": [
        {
          "internalType": "address",
          "name": "sender",
          "type": "address"
        },
        {
          "internalType": "uint256",
          "name": "balance",
          "type": "uint256"
        },
        {
          "internalType": "uint256",
          "name": "needed",
          "type": "uint256"
        }
      ],
      "name": "ERC20InsufficientBalance",
      "type": "error"
    },
    {
      "inputs": [
        {
          "internalType": "address",
          "name": "approver",
          "type": "address"
        }
      ],
      "name": "ERC20InvalidApprover",
      "type": "error"
    },
    {
      "inputs": [
        {
          "internalType": "address",
          "name": "receiver",
          "type": "address"
        }
      ],
      "name": "ERC20InvalidReceiver",
      "type": "error"
    },
    {
      "inputs": [
        {
          "internalType": "address",
          "name": "sender",
          "type": "address"
        }
      ],
      "name": "ERC20InvalidSender",
      "type": "error"
    },
    {
      "inputs": [
        {
          "internalType": "address",
          "name": "spender",
          "type": "address"
        }
      ],
      "name": "ERC20InvalidSpender",
      "type": "error"
    },
    {
      "inputs": [
        {
          "internalType": "uint256",
          "name": "deadline",
          "type": "uint256"
        }
      ],
      "name": "ERC2612ExpiredSignature",
      "type": "error"
    },
    {
      "inputs": [
        {
          "internalType": "address",
          "name": "signer",
          "type": "address"
        },
        {
          "internalType": "address",
          "name": "owner",
          "type": "address"
        }
      ],
      "name": "ERC2612InvalidSigner",
      "type": "error"
    },
    {
      "inputs": [
        {
          "internalType": "address",
          "name": "account",
          "type": "address"
        },
        {
          "internalType": "uint256",
          "name": "currentNonce",
          "type": "uint256"
        }
      ],
      "name": "InvalidAccountNonce",
      "type": "error"
    },
    {
      "inputs": [],
      "name": "InvalidShortString",
      "type": "error"
    },
    {
      "inputs": [
        {
          "internalType": "address",
          "name": "owner",
          "type": "address"
        }
      ],
      "name": "OwnableInvalidOwner",
      "type": "error"
    },
    {
      "inputs": [
        {
          "internalType": "address",
          "name": "account",
          "type": "address"
        }
      ],
      "name": "OwnableUnauthorizedAccount",
      "type": "error"
    },
    {
      "inputs": [],
      "name": "ReentrancyGuardReentrantCall",
      "type": "error"
    },
    {
      "inputs": [
        {
          "internalType": "string",
          "name": "str",
          "type": "string"
        }
      ],
      "name": "StringTooLong",
      "type": "error"
    },
    {
      "anonymous": false,
      "inputs": [
        {
          "indexed": true,
          "internalType": "address",
          "name": "owner",
          "type": "address"
        },
        {
          "indexed": true,
          "internalType": "address",
          "name": "spender",
          "type": "address"
        },
        {
          "indexed": false,
          "internalType": "uint256",
          "name": "value",
          "type": "uint256"
        }
      ],
      "name": "Approval",
      "type": "event"
    },
    {
      "anonymous": false,
      "inputs": [],
      "name": "EIP712DomainChanged",
      "type": "event"
    },
    {
      "anonymous": false,
      "inputs": [
        {
          "indexed": true,
          "internalType": "address",
          "name": "previousOwner",
          "type": "address"
        },
        {
          "indexed": true,
          "internalType": "address",
          "name": "newOwner",
          "type": "address"
        }
      ],
      "name": "OwnershipTransferred",
      "type": "event"
    },
    {
      "anonymous": false,
      "inputs": [
        {
          "indexed": false,
          "internalType": "address",
          "name": "to",
          "type": "address"
        },
        {
          "indexed": false,
          "internalType": "uint256",
          "name": "amount",
          "type": "uint256"
        }
      ],
      "name": "ShareMinted",
      "type": "event"
    },
    {
      "anonymous": false,
      "inputs": [
        {
          "indexed": false,
          "internalType": "address",
          "name": "to",
          "type": "address"
        },
        {
          "indexed": false,
          "internalType": "uint256",
          "name": "amount",
          "type": "uint256"
        }
      ],
      "name": "ShareSold",
      "type": "event"
    },
    {
      "anonymous": false,
      "inputs": [
        {
          "indexed": true,
          "internalType": "address",
          "name": "from",
          "type": "address"
        },
        {
          "indexed": true,
          "internalType": "address",
          "name": "to",
          "type": "address"
        },
        {
          "indexed": false,
          "internalType": "uint256",
          "name": "value",
          "type": "uint256"
        }
      ],
      "name": "Transfer",
      "type": "event"
    },
    {
      "inputs": [],
      "name": "DOMAIN_SEPARATOR",
      "outputs": [
        {
          "internalType": "bytes32",
          "name": "",
          "type": "bytes32"
        }
      ],
      "stateMutability": "view",
      "type": "function"
    },
    {
      "inputs": [
        {
          "internalType": "address",
          "name": "owner",
          "type": "address"
        },
        {
          "internalType": "address",
          "name": "spender",
          "type": "address"
        }
      ],
      "name": "allowance",
      "outputs": [
        {
          "internalType": "uint256",
          "name": "",
          "type": "uint256"
        }
      ],
      "stateMutability": "view",
      "type": "function"
    },
    {
      "inputs": [
        {
          "internalType": "address",
          "name": "spender",
          "type": "address"
        },
        {
          "internalType": "uint256",
          "name": "value",
          "type": "uint256"
        }
      ],
      "name": "approve",
      "outputs": [
        {
          "internalType": "bool",
          "name": "",
          "type": "bool"
        }
      ],
      "stateMutability": "nonpayable",
      "type": "function"
    },
    {
      "inputs": [],
      "name": "availableShares",
      "outputs": [
        {
          "internalType": "uint256",
          "name": "",
          "type": "uint256"
        },
        {
          "internalType": "uint256",
          "name": "",
          "type": "uint256"
        }
      ],
      "stateMutability": "view",
      "type": "function"
    },
    {
      "inputs": [
        {
          "internalType": "address",
          "name": "account",
          "type": "address"
        }
      ],
      "name": "balanceOf",
      "outputs": [
        {
          "internalType": "uint256",
          "name": "",
          "type": "uint256"
        }
      ],
      "stateMutability": "view",
      "type": "function"
    },
    {
      "inputs": [
        {
          "internalType": "uint256",
          "name": "amount",
          "type": "uint256"
        }
      ],
      "name": "buyShares",
      "outputs": [],
      "stateMutability": "payable",
      "type": "function"
    },
    {
      "inputs": [
        {
          "internalType": "uint256",
          "name": "incomingEther",
          "type": "uint256"
        }
      ],
      "name": "currentShareValue",
      "outputs": [
        {
          "internalType": "uint256",
          "name": "",
          "type": "uint256"
        }
      ],
      "stateMutability": "view",
      "type": "function"
    },
    {
      "inputs": [],
      "name": "decimals",
      "outputs": [
        {
          "internalType": "uint8",
          "name": "",
          "type": "uint8"
        }
      ],
      "stateMutability": "view",
      "type": "function"
    },
    {
      "inputs": [],
      "name": "developer",
      "outputs": [
        {
          "internalType": "address payable",
          "name": "",
          "type": "address"
        }
      ],
      "stateMutability": "view",
      "type": "function"
    },
    {
      "inputs": [],
      "name": "eip712Domain",
      "outputs": [
        {
          "internalType": "bytes1",
          "name": "fields",
          "type": "bytes1"
        },
        {
          "internalType": "string",
          "name": "name",
          "type": "string"
        },
        {
          "internalType": "string",
          "name": "version",
          "type": "string"
        },
        {
          "internalType": "uint256",
          "name": "chainId",
          "type": "uint256"
        },
        {
          "internalType": "address",
          "name": "verifyingContract",
          "type": "address"
        },
        {
          "internalType": "bytes32",
          "name": "salt",
          "type": "bytes32"
        },
        {
          "internalType": "uint256[]",
          "name": "extensions",
          "type": "uint256[]"
        }
      ],
      "stateMutability": "view",
      "type": "function"
    },
    {
      "inputs": [],
      "name": "initialSharePrice",
      "outputs": [
        {
          "internalType": "uint256",
          "name": "",
          "type": "uint256"
        }
      ],
      "stateMutability": "view",
      "type": "function"
    },
    {
      "inputs": [],
      "name": "maxAmountOfShares",
      "outputs": [
        {
          "internalType": "uint256",
          "name": "",
          "type": "uint256"
        }
      ],
      "stateMutability": "view",
      "type": "function"
    },
    {
      "inputs": [],
      "name": "name",
      "outputs": [
        {
          "internalType": "string",
          "name": "",
          "type": "string"
        }
      ],
      "stateMutability": "view",
      "type": "function"
    },
    {
      "inputs": [
        {
          "internalType": "address",
          "name": "owner",
          "type": "address"
        }
      ],
      "name": "nonces",
      "outputs": [
        {
          "internalType": "uint256",
          "name": "",
          "type": "uint256"
        }
      ],
      "stateMutability": "view",
      "type": "function"
    },
    {
      "inputs": [],
      "name": "owner",
      "outputs": [
        {
          "internalType": "address",
          "name": "",
          "type": "address"
        }
      ],
      "stateMutability": "view",
      "type": "function"
    },
    {
      "inputs": [
        {
          "internalType": "address",
          "name": "owner",
          "type": "address"
        },
        {
          "internalType": "address",
          "name": "spender",
          "type": "address"
        },
        {
          "internalType": "uint256",
          "name": "value",
          "type": "uint256"
        },
        {
          "internalType": "uint256",
          "name": "deadline",
          "type": "uint256"
        },
        {
          "internalType": "uint8",
          "name": "v",
          "type": "uint8"
        },
        {
          "internalType": "bytes32",
          "name": "r",
          "type": "bytes32"
        },
        {
          "internalType": "bytes32",
          "name": "s",
          "type": "bytes32"
        }
      ],
      "name": "permit",
      "outputs": [],
      "stateMutability": "nonpayable",
      "type": "function"
    },
    {
      "inputs": [],
      "name": "renounceOwnership",
      "outputs": [],
      "stateMutability": "nonpayable",
      "type": "function"
    },
    {
      "inputs": [
        {
          "internalType": "uint256",
          "name": "amount",
          "type": "uint256"
        }
      ],
      "name": "sellShares",
      "outputs": [],
      "stateMutability": "nonpayable",
      "type": "function"
    },
    {
      "inputs": [],
      "name": "symbol",
      "outputs": [
        {
          "internalType": "string",
          "name": "",
          "type": "string"
        }
      ],
      "stateMutability": "view",
      "type": "function"
    },
    {
      "inputs": [],
      "name": "totalSupply",
      "outputs": [
        {
          "internalType": "uint256",
          "name": "",
          "type": "uint256"
        }
      ],
      "stateMutability": "view",
      "type": "function"
    },
    {
      "inputs": [
        {
          "internalType": "address",
          "name": "to",
          "type": "address"
        },
        {
          "internalType": "uint256",
          "name": "value",
          "type": "uint256"
        }
      ],
      "name": "transfer",
      "outputs": [
        {
          "internalType": "bool",
          "name": "",
          "type": "bool"
        }
      ],
      "stateMutability": "nonpayable",
      "type": "function"
    },
    {
      "inputs": [
        {
          "internalType": "address",
          "name": "from",
          "type": "address"
        },
        {
          "internalType": "address",
          "name": "to",
          "type": "address"
        },
        {
          "internalType": "uint256",
          "name": "value",
          "type": "uint256"
        }
      ],
      "name": "transferFrom",
      "outputs": [
        {
          "internalType": "bool",
          "name": "",
          "type": "bool"
        }
      ],
      "stateMutability": "nonpayable",
      "type": "function"
    },
    {
      "inputs": [
        {
          "internalType": "address",
          "name": "newOwner",
          "type": "address"
        }
      ],
      "name": "transferOwnership",
      "outputs": [],
      "stateMutability": "nonpayable",
      "type": "function"
    },
    {
      "inputs": [],
      "name": "vestingPeriodEnd",
      "outputs": [
        {
          "internalType": "uint256",
          "name": "",
          "type": "uint256"
        }
      ],
      "stateMutability": "view",
      "type": "function"
    },
    {
      "stateMutability": "payable",
      "type": "receive"
    }
  ],
  "bytecode": "0x610160604052670de0b6b3a7640000600e553480156200001e57600080fd5b506040516200454938038062004549833981810160405281019062000044919062000a28565b85806040518060400160405280600181526020017f31000000000000000000000000000000000000000000000000000000000000008152508a8a85600073ffffffffffffffffffffffffffffffffffffffff168173ffffffffffffffffffffffffffffffffffffffff1603620000f45760006040517f1e4fbdf7000000000000000000000000000000000000000000000000000000008152600401620000eb919062000b5f565b60405180910390fd5b62000105816200033a60201b60201c565b506001808190555081600590816200011e919062000dbd565b50806006908162000130919062000dbd565b50505062000149600783620003fe60201b90919060201c565b610120818152505062000167600882620003fe60201b90919060201c565b6101408181525050818051906020012060e08181525050808051906020012061010081815250504660a08181525050620001a66200045660201b60201c565b608081815250503073ffffffffffffffffffffffffffffffffffffffff1660c08173ffffffffffffffffffffffffffffffffffffffff168152505050505062000200671e4ae562f503eecd60c01b620004b360201b60201c565b6200021c67c6b4bfb2ba80e53260c01b620004b360201b60201c565b80600a60006101000a81548173ffffffffffffffffffffffffffffffffffffffff021916908373ffffffffffffffffffffffffffffffffffffffff160217905550620002796780874b8ec05bcfa060c01b620004b360201b60201c565b84600b819055506200029c679006095667a27f3e60c01b620004b360201b60201c565b83600c81905550620002bf673179eb87f05b4d7f60c01b620004b360201b60201c565b620002db67d6dcc0d6d63f72c760c01b620004b360201b60201c565b620002fc620002ef620004b660201b60201c565b84620004be60201b60201c565b620003186789c38a5b4560bfa060c01b620004b360201b60201c565b814362000326919062000ed3565b600d81905550505050505050505062001109565b60008060009054906101000a900473ffffffffffffffffffffffffffffffffffffffff169050816000806101000a81548173ffffffffffffffffffffffffffffffffffffffff021916908373ffffffffffffffffffffffffffffffffffffffff1602179055508173ffffffffffffffffffffffffffffffffffffffff168173ffffffffffffffffffffffffffffffffffffffff167f8be0079c531659141344cd1fd0a4f28419497f9722a3daafe3b4186f6b6457e060405160405180910390a35050565b600060208351101562000424576200041c836200054b60201b60201c565b905062000450565b826200043683620005b860201b60201c565b600001908162000447919062000dbd565b5060ff60001b90505b92915050565b60007f8b73c3c69bb8fe3d512ecc4cf759cc79239f7b179b0ffacaa9a75d522b39400f60e0516101005146306040516020016200049895949392919062000f3a565b60405160208183030381529060405280519060200120905090565b50565b600033905090565b600073ffffffffffffffffffffffffffffffffffffffff168273ffffffffffffffffffffffffffffffffffffffff1603620005335760006040517fec442f050000000000000000000000000000000000000000000000000000000081526004016200052a919062000b5f565b60405180910390fd5b6200054760008383620005c260201b60201c565b5050565b600080829050601f815111156200059b57826040517f305a27a900000000000000000000000000000000000000000000000000000000815260040162000592919062000fe9565b60405180910390fd5b805181620005a9906200103f565b60001c1760001b915050919050565b6000819050919050565b600073ffffffffffffffffffffffffffffffffffffffff168373ffffffffffffffffffffffffffffffffffffffff1603620006185780600460008282546200060b919062000ed3565b92505081905550620006f0565b6000600260008573ffffffffffffffffffffffffffffffffffffffff1673ffffffffffffffffffffffffffffffffffffffff16815260200190815260200160002054905081811015620006a8578381836040517fe450d38c0000000000000000000000000000000000000000000000000000000081526004016200069f93929190620010af565b60405180910390fd5b818103600260008673ffffffffffffffffffffffffffffffffffffffff1673ffffffffffffffffffffffffffffffffffffffff16815260200190815260200160002081905550505b600073ffffffffffffffffffffffffffffffffffffffff168273ffffffffffffffffffffffffffffffffffffffff16036200073b578060046000828254039250508190555062000789565b80600260008473ffffffffffffffffffffffffffffffffffffffff1673ffffffffffffffffffffffffffffffffffffffff168152602001908152602001600020600082825401925050819055505b8173ffffffffffffffffffffffffffffffffffffffff168373ffffffffffffffffffffffffffffffffffffffff167fddf252ad1be2c89b69c2b068fc378daa952ba7f163c4a11628f55a4df523b3ef83604051620007e89190620010ec565b60405180910390a3505050565b6000604051905090565b600080fd5b600080fd5b600080fd5b600080fd5b6000601f19601f8301169050919050565b7f4e487b7100000000000000000000000000000000000000000000000000000000600052604160045260246000fd5b6200085e8262000813565b810181811067ffffffffffffffff8211171562000880576200087f62000824565b5b80604052505050565b600062000895620007f5565b9050620008a3828262000853565b919050565b600067ffffffffffffffff821115620008c657620008c562000824565b5b620008d18262000813565b9050602081019050919050565b60005b83811015620008fe578082015181840152602081019050620008e1565b60008484015250505050565b6000620009216200091b84620008a8565b62000889565b90508281526020810184848401111562000940576200093f6200080e565b5b6200094d848285620008de565b509392505050565b600082601f8301126200096d576200096c62000809565b5b81516200097f8482602086016200090a565b91505092915050565b6000819050919050565b6200099d8162000988565b8114620009a957600080fd5b50565b600081519050620009bd8162000992565b92915050565b600073ffffffffffffffffffffffffffffffffffffffff82169050919050565b6000620009f082620009c3565b9050919050565b62000a0281620009e3565b811462000a0e57600080fd5b50565b60008151905062000a2281620009f7565b92915050565b600080600080600080600080610100898b03121562000a4c5762000a4b620007ff565b5b600089015167ffffffffffffffff81111562000a6d5762000a6c62000804565b5b62000a7b8b828c0162000955565b985050602089015167ffffffffffffffff81111562000a9f5762000a9e62000804565b5b62000aad8b828c0162000955565b975050604089015167ffffffffffffffff81111562000ad15762000ad062000804565b5b62000adf8b828c0162000955565b965050606062000af28b828c01620009ac565b955050608062000b058b828c01620009ac565b94505060a062000b188b828c01620009ac565b93505060c062000b2b8b828c01620009ac565b92505060e062000b3e8b828c0162000a11565b9150509295985092959890939650565b62000b5981620009e3565b82525050565b600060208201905062000b76600083018462000b4e565b92915050565b600081519050919050565b7f4e487b7100000000000000000000000000000000000000000000000000000000600052602260045260246000fd5b6000600282049050600182168062000bcf57607f821691505b60208210810362000be55762000be462000b87565b5b50919050565b60008190508160005260206000209050919050565b60006020601f8301049050919050565b600082821b905092915050565b60006008830262000c4f7fffffffffffffffffffffffffffffffffffffffffffffffffffffffffffffffff8262000c10565b62000c5b868362000c10565b95508019841693508086168417925050509392505050565b6000819050919050565b600062000c9e62000c9862000c928462000988565b62000c73565b62000988565b9050919050565b6000819050919050565b62000cba8362000c7d565b62000cd262000cc98262000ca5565b84845462000c1d565b825550505050565b600090565b62000ce962000cda565b62000cf681848462000caf565b505050565b5b8181101562000d1e5762000d1260008262000cdf565b60018101905062000cfc565b5050565b601f82111562000d6d5762000d378162000beb565b62000d428462000c00565b8101602085101562000d52578190505b62000d6a62000d618562000c00565b83018262000cfb565b50505b505050565b600082821c905092915050565b600062000d926000198460080262000d72565b1980831691505092915050565b600062000dad838362000d7f565b9150826002028217905092915050565b62000dc88262000b7c565b67ffffffffffffffff81111562000de45762000de362000824565b5b62000df0825462000bb6565b62000dfd82828562000d22565b600060209050601f83116001811462000e35576000841562000e20578287015190505b62000e2c858262000d9f565b86555062000e9c565b601f19841662000e458662000beb565b60005b8281101562000e6f5784890151825560018201915060208501945060208101905062000e48565b8683101562000e8f578489015162000e8b601f89168262000d7f565b8355505b6001600288020188555050505b505050505050565b7f4e487b7100000000000000000000000000000000000000000000000000000000600052601160045260246000fd5b600062000ee08262000988565b915062000eed8362000988565b925082820190508082111562000f085762000f0762000ea4565b5b92915050565b6000819050919050565b62000f238162000f0e565b82525050565b62000f348162000988565b82525050565b600060a08201905062000f51600083018862000f18565b62000f60602083018762000f18565b62000f6f604083018662000f18565b62000f7e606083018562000f29565b62000f8d608083018462000b4e565b9695505050505050565b600082825260208201905092915050565b600062000fb58262000b7c565b62000fc1818562000f97565b935062000fd3818560208601620008de565b62000fde8162000813565b840191505092915050565b6000602082019050818103600083015262001005818462000fa8565b905092915050565b600081519050919050565b6000819050602082019050919050565b600062001036825162000f0e565b80915050919050565b60006200104c826200100d565b82620010588462001018565b9050620010658162001028565b92506020821015620010a857620010a37fffffffffffffffffffffffffffffffffffffffffffffffffffffffffffffffff8360200360080262000c10565b831692505b5050919050565b6000606082019050620010c6600083018662000b4e565b620010d5602083018562000f29565b620010e4604083018462000f29565b949350505050565b600060208201905062001103600083018462000f29565b92915050565b60805160a05160c05160e0516101005161012051610140516133e5620011646000396000611717015260006116dc01526000612286015260006122650152600061143a01526000611490015260006114b901526133e56000f3fe60806040526004361061014f5760003560e01c80638da5cb5b116100b6578063d1a93d181161006f578063d1a93d18146104ac578063d224ca78146104c8578063d505accf14610505578063dd62ed3e1461052e578063defbbb681461056b578063f2fde38b1461059657610156565b80638da5cb5b1461039757806395d89b41146103c25780639e462fc7146103ed578063a173f79e14610418578063a9059cbb14610444578063ca4b208b1461048157610156565b80634ba8ae81116101085780634ba8ae81146102815780635f3e364a146102aa57806370a08231146102d5578063715018a6146103125780637ecebe001461032957806384b0196e1461036657610156565b806306fdde031461015b578063095ea7b31461018657806318160ddd146101c357806323b872dd146101ee578063313ce5671461022b5780633644e5151461025657610156565b3661015657005b600080fd5b34801561016757600080fd5b506101706105bf565b60405161017d91906127f5565b60405180910390f35b34801561019257600080fd5b506101ad60048036038101906101a891906128b0565b610651565b6040516101ba919061290b565b60405180910390f35b3480156101cf57600080fd5b506101d8610674565b6040516101e59190612935565b60405180910390f35b3480156101fa57600080fd5b5061021560048036038101906102109190612950565b61067e565b604051610222919061290b565b60405180910390f35b34801561023757600080fd5b506102406106ad565b60405161024d91906129bf565b60405180910390f35b34801561026257600080fd5b5061026b6106b6565b60405161027891906129f3565b60405180910390f35b34801561028d57600080fd5b506102a860048036038101906102a39190612a0e565b6106c5565b005b3480156102b657600080fd5b506102bf610a68565b6040516102cc9190612935565b60405180910390f35b3480156102e157600080fd5b506102fc60048036038101906102f79190612a3b565b610a6e565b6040516103099190612935565b60405180910390f35b34801561031e57600080fd5b50610327610ab7565b005b34801561033557600080fd5b50610350600480360381019061034b9190612a3b565b610acb565b60405161035d9190612935565b60405180910390f35b34801561037257600080fd5b5061037b610add565b60405161038e9796959493929190612b70565b60405180910390f35b3480156103a357600080fd5b506103ac610b87565b6040516103b99190612bf4565b60405180910390f35b3480156103ce57600080fd5b506103d7610bb0565b6040516103e491906127f5565b60405180910390f35b3480156103f957600080fd5b50610402610c42565b60405161040f9190612935565b60405180910390f35b34801561042457600080fd5b5061042d610c48565b60405161043b929190612c0f565b60405180910390f35b34801561045057600080fd5b5061046b600480360381019061046691906128b0565b610d14565b604051610478919061290b565b60405180910390f35b34801561048d57600080fd5b50610496610d37565b6040516104a39190612c59565b60405180910390f35b6104c660048036038101906104c19190612a0e565b610d5d565b005b3480156104d457600080fd5b506104ef60048036038101906104ea9190612a0e565b610e9d565b6040516104fc9190612935565b60405180910390f35b34801561051157600080fd5b5061052c60048036038101906105279190612ccc565b611039565b005b34801561053a57600080fd5b5061055560048036038101906105509190612d6e565b611181565b6040516105629190612935565b60405180910390f35b34801561057757600080fd5b50610580611208565b60405161058d9190612935565b60405180910390f35b3480156105a257600080fd5b506105bd60048036038101906105b89190612a3b565b61120e565b005b6060600580546105ce90612ddd565b80601f01602080910402602001604051908101604052809291908181526020018280546105fa90612ddd565b80156106475780601f1061061c57610100808354040283529160200191610647565b820191906000526020600020905b81548152906001019060200180831161062a57829003601f168201915b5050505050905090565b60008061065c611294565b905061066981858561129c565b600191505092915050565b6000600454905090565b600080610689611294565b90506106968582856112ae565b6106a1858585611342565b60019150509392505050565b60006012905090565b60006106c0611436565b905090565b6106d967e1935d62608bcd3d60c01b6114ed565b6106e16114f0565b6106f5672b4a78bf7e358f6960c01b6114ed565b61070967a8de51a081cec07160c01b6114ed565b61071d67bba4d1c9f776518d60c01b6114ed565b6107316774d6aec01a1ea41660c01b6114ed565b610745670dc4e63bfcae7f8560c01b6114ed565b600d5443101561078a576040517f08c379a000000000000000000000000000000000000000000000000000000000815260040161078190612e5a565b60405180910390fd5b61079e67d1f5472c949d0c5260c01b6114ed565b6107b26728be8af9fab6a96860c01b6114ed565b6107c667dcf2756bc266f9bc60c01b6114ed565b6107da67bb327495ab13070c60c01b6114ed565b806107eb6107e6611294565b610a6e565b101561082c576040517f08c379a000000000000000000000000000000000000000000000000000000000815260040161082390612ec6565b60405180910390fd5b61084067b32001c2f4feeadb60c01b6114ed565b61085467299519891cde23e660c01b6114ed565b61086867238172cb93166f8360c01b6114ed565b61087a610873611294565b3083611342565b61088e67c0ea11aa7681df9f60c01b6114ed565b6108a2671c55572f3b8b19c660c01b6114ed565b6000600e54826108b26000610e9d565b6108bc9190612f15565b6108c69190612f86565b90506108dc67a09bcc952333a91560c01b6114ed565b6108f0676a00b962365e82ee60c01b6114ed565b60006108fa611294565b73ffffffffffffffffffffffffffffffffffffffff168260405161091d90612fe8565b60006040518083038185875af1925050503d806000811461095a576040519150601f19603f3d011682016040523d82523d6000602084013e61095f565b606091505b50509050610977672a2e03f3872b911260c01b6114ed565b61098b670fb5622567e66dc560c01b6114ed565b61099f675e38604e3581330a60c01b6114ed565b806109df576040517f08c379a00000000000000000000000000000000000000000000000000000000081526004016109d690613049565b60405180910390fd5b6109f36768c22f3a082bb0ee60c01b6114ed565b610a0767b92c68d5d6fd2f6960c01b6114ed565b610a1b67ba74d0c0ed953dd360c01b6114ed565b7fe8bb4edfb49cb224db3d7d51f707c053865322c038a54cfcfd81969d0eb1f013610a44611294565b84604051610a53929190613069565b60405180910390a15050610a65611536565b50565b600c5481565b6000600260008373ffffffffffffffffffffffffffffffffffffffff1673ffffffffffffffffffffffffffffffffffffffff168152602001908152602001600020549050919050565b610abf61153f565b610ac960006115c6565b565b6000610ad68261168a565b9050919050565b600060608060008060006060610af16116d3565b610af961170e565b46306000801b600067ffffffffffffffff811115610b1a57610b19613092565b5b604051908082528060200260200182016040528015610b485781602001602082028036833780820191505090505b507f0f00000000000000000000000000000000000000000000000000000000000000959493929190965096509650965096509650965090919293949596565b60008060009054906101000a900473ffffffffffffffffffffffffffffffffffffffff16905090565b606060068054610bbf90612ddd565b80601f0160208091040260200160405190810160405280929190818152602001828054610beb90612ddd565b8015610c385780601f10610c0d57610100808354040283529160200191610c38565b820191906000526020600020905b815481529060010190602001808311610c1b57829003601f168201915b5050505050905090565b600d5481565b600080610c5f67b8ed62db0a8fdcf360c01b6114ed565b610c7367ab7796e12ba36b6f60c01b6114ed565b610c8767e65eb23ac1ff0c5360c01b6114ed565b6000610c9230610a6e565b9050610ca86727f0c926cf482f6a60c01b6114ed565b610cbc67b0fa2dc9662b4b1860c01b6114ed565b6000610cc6610674565b600b54610cd391906130c1565b82610cde91906130f5565b9050610cf4676bc94b4dca9b475460c01b6114ed565b610d086739fdf7a74eda647d60c01b6114ed565b81819350935050509091565b600080610d1f611294565b9050610d2c818585611342565b600191505092915050565b600a60009054906101000a900473ffffffffffffffffffffffffffffffffffffffff1681565b610d7167f14b5631c6c39ddd60c01b6114ed565b610d8567cca1b99000d8b15260c01b6114ed565b610d99673375e57089a54d1c60c01b6114ed565b600d544310610dec57610db667baf62f32acdb530f60c01b6114ed565b610dca67dfb137de06264add60c01b6114ed565b610dde67c58498a6be813fa160c01b6114ed565b610de781611749565b610e32565b610e0067bc1a128d4e4006e560c01b6114ed565b610e1467b84f097f01eee54a60c01b6114ed565b610e28670bc5cb0a59f947d860c01b6114ed565b610e3181611aa5565b5b610e46673e64119099c4287f60c01b6114ed565b610e5a67c52a9c0c14a7b27f60c01b6114ed565b7f9e3aff002c0bfdb18b77adb1051b53eda74f919ee90e162c2626995e4db8f055610e83611294565b82604051610e92929190613069565b60405180910390a150565b6000610eb36767db2aa4eda8f74060c01b6114ed565b610ec76794fce0147ed0a7c660c01b6114ed565b610edb67fe2055f61204feae60c01b6114ed565b6000610ee5610674565b9050610efb672f80d264d5566f0d60c01b6114ed565b610f0f676d50f93635eeb30860c01b6114ed565b60008347610f1d91906130c1565b9050610f3367f2b7f4ec58ccc0ab60c01b6114ed565b610f4767b55aa28ad4977d7e60c01b6114ed565b600082148015610f675750610f6667816bc44ae019aff960c01b611d95565b5b80610f8e5750600081148015610f8d5750610f8c676533c43a5681a39760c01b611d95565b5b5b15610fda57610fa7677cb03c727201159b60c01b6114ed565b610fbb67fa1f9836fcccda8a60c01b6114ed565b610fcf67efa8733de7e3e5f660c01b6114ed565b600092505050611034565b610fee6720ae07a6cddb66f960c01b6114ed565b61100267d415f2c1050a18a160c01b6114ed565b611016676a777ca8da14a61360c01b6114ed565b81600e54826110259190612f15565b61102f9190612f86565b925050505b919050565b8342111561107e57836040517f627913020000000000000000000000000000000000000000000000000000000081526004016110759190612935565b60405180910390fd5b60007f6e71edae12b1b97f4d1f60370fef10105fa2faae0126114a169c64845d6126c98888886110ad8c611da0565b896040516020016110c396959493929190613129565b60405160208183030381529060405280519060200120905060006110e682611df7565b905060006110f682878787611e11565b90508973ffffffffffffffffffffffffffffffffffffffff168173ffffffffffffffffffffffffffffffffffffffff161461116a57808a6040517f4b800e4600000000000000000000000000000000000000000000000000000000815260040161116192919061318a565b60405180910390fd5b6111758a8a8a61129c565b50505050505050505050565b6000600360008473ffffffffffffffffffffffffffffffffffffffff1673ffffffffffffffffffffffffffffffffffffffff16815260200190815260200160002060008373ffffffffffffffffffffffffffffffffffffffff1673ffffffffffffffffffffffffffffffffffffffff16815260200190815260200160002054905092915050565b600b5481565b61121661153f565b600073ffffffffffffffffffffffffffffffffffffffff168173ffffffffffffffffffffffffffffffffffffffff16036112885760006040517f1e4fbdf700000000000000000000000000000000000000000000000000000000815260040161127f9190612bf4565b60405180910390fd5b611291816115c6565b50565b600033905090565b6112a98383836001611e41565b505050565b60006112ba8484611181565b90507fffffffffffffffffffffffffffffffffffffffffffffffffffffffffffffffff811461133c578181101561132c578281836040517ffb8f41b2000000000000000000000000000000000000000000000000000000008152600401611323939291906131b3565b60405180910390fd5b61133b84848484036000611e41565b5b50505050565b600073ffffffffffffffffffffffffffffffffffffffff168373ffffffffffffffffffffffffffffffffffffffff16036113b45760006040517f96c6fd1e0000000000000000000000000000000000000000000000000000000081526004016113ab9190612bf4565b60405180910390fd5b600073ffffffffffffffffffffffffffffffffffffffff168273ffffffffffffffffffffffffffffffffffffffff16036114265760006040517fec442f0500000000000000000000000000000000000000000000000000000000815260040161141d9190612bf4565b60405180910390fd5b611431838383612018565b505050565b60007f000000000000000000000000000000000000000000000000000000000000000073ffffffffffffffffffffffffffffffffffffffff163073ffffffffffffffffffffffffffffffffffffffff161480156114b257507f000000000000000000000000000000000000000000000000000000000000000046145b156114df577f000000000000000000000000000000000000000000000000000000000000000090506114ea565b6114e7612240565b90505b90565b50565b60026001540361152c576040517f3ee5aeb500000000000000000000000000000000000000000000000000000000815260040160405180910390fd5b6002600181905550565b60018081905550565b611547611294565b73ffffffffffffffffffffffffffffffffffffffff16611565610b87565b73ffffffffffffffffffffffffffffffffffffffff16146115c457611588611294565b6040517f118cdaa70000000000000000000000000000000000000000000000000000000081526004016115bb9190612bf4565b60405180910390fd5b565b60008060009054906101000a900473ffffffffffffffffffffffffffffffffffffffff169050816000806101000a81548173ffffffffffffffffffffffffffffffffffffffff021916908373ffffffffffffffffffffffffffffffffffffffff1602179055508173ffffffffffffffffffffffffffffffffffffffff168173ffffffffffffffffffffffffffffffffffffffff167f8be0079c531659141344cd1fd0a4f28419497f9722a3daafe3b4186f6b6457e060405160405180910390a35050565b6000600960008373ffffffffffffffffffffffffffffffffffffffff1673ffffffffffffffffffffffffffffffffffffffff168152602001908152602001600020549050919050565b606061170960077f00000000000000000000000000000000000000000000000000000000000000006122d690919063ffffffff16565b905090565b606061174460087f00000000000000000000000000000000000000000000000000000000000000006122d690919063ffffffff16565b905090565b61175d67385b300314bf247660c01b6114ed565b61177167769b4df5a89c9e4760c01b6114ed565b6117856710b9e63079629c8060c01b6114ed565b600080611790610c48565b915091506117a8679ff9b7d2939de6d760c01b6114ed565b6117bc6705929440d9527eb060c01b6114ed565b6117d067a342d519069ef7cf60c01b6114ed565b600e546117dc34610e9d565b846117e79190612f15565b6117f19190612f86565b341015611833576040517f08c379a000000000000000000000000000000000000000000000000000000000815260040161182a90613236565b60405180910390fd5b611847675d5dea60b4f903d660c01b6114ed565b61185b6720d685592363554c60c01b6114ed565b61186f67e744d07dd6599adf60c01b6114ed565b61188367b51e7b68fb31d17f60c01b6114ed565b808311156118c6576040517f08c379a00000000000000000000000000000000000000000000000000000000081526004016118bd906132c8565b60405180910390fd5b6118da67c9a0aaf68268d4d660c01b6114ed565b6118ee679cec51f03d4a1cbe60c01b6114ed565b6119026753bf09370d5bf72d60c01b6114ed565b81831161195c5761191d672edeac71af4f9fb060c01b6114ed565b611931678971eb0f8bef6e1c60c01b6114ed565b6119456762108bf105b6589260c01b6114ed565b611956611950611294565b84610d14565b50611aa0565b61197067ef12509652f7f3a960c01b6114ed565b61198366e2479d186948b860c01b6114ed565b6000821115611a51576119a0675c571b7dcab4e7e760c01b6114ed565b6119b4677f5560c4df39bb4260c01b6114ed565b6119c8673eeb2f5e72f1a46960c01b6114ed565b600082846119d691906130c1565b90506119ec67528c7727564ab4ad60c01b6114ed565b611a00674c33e4844b40ec1d60c01b6114ed565b611a11611a0b611294565b84610d14565b50611a266783d75778b22dd59860c01b6114ed565b611a3a67bbed833745b2299c60c01b6114ed565b611a4b611a45611294565b82612386565b50611a9f565b611a65673c77eadc0151470b60c01b6114ed565b611a79675d4d28da4c0f53e960c01b6114ed565b611a8d6792c0be6199ddd77160c01b6114ed565b611a9e611a98611294565b84612386565b5b5b505050565b611ab96713240460d64263fb60c01b6114ed565b611acd673d45e25c76e3bbb460c01b6114ed565b611ae16701adfbfe7ad622c560c01b6114ed565b611af567d5a59ec5ef598e8060c01b6114ed565b670de0b6b3a7640000600c5482611b0c9190612f15565b611b169190612f86565b3414611b57576040517f08c379a0000000000000000000000000000000000000000000000000000000008152600401611b4e90613236565b60405180910390fd5b611b6b673ad5e7e9c1efc71f60c01b6114ed565b611b7f67ffc5b77766a3076060c01b6114ed565b611b936713eff80d52d5f5e660c01b6114ed565b611ba7677ea7e83ec04b259d60c01b6114ed565b600b54611bb2610674565b82611bbd91906130f5565b1115611bfe576040517f08c379a0000000000000000000000000000000000000000000000000000000008152600401611bf5906132c8565b60405180910390fd5b611c1267b50cd882e83452f760c01b6114ed565b611c26670a69209894108d5960c01b6114ed565b611c3a678db482855aab96d860c01b6114ed565b611c4b611c45611294565b82612386565b611c5f67c50862bf1477d9b160c01b6114ed565b611c7367a016246c14a47b1460c01b6114ed565b6000600a60009054906101000a900473ffffffffffffffffffffffffffffffffffffffff1673ffffffffffffffffffffffffffffffffffffffff1634604051611cbb90612fe8565b60006040518083038185875af1925050503d8060008114611cf8576040519150601f19603f3d011682016040523d82523d6000602084013e611cfd565b606091505b50509050611d1567e64a3465f86dce1460c01b6114ed565b611d296767ab71b14238597660c01b6114ed565b611d3d67621c0fc93300a42a60c01b6114ed565b80611d7d576040517f08c379a0000000000000000000000000000000000000000000000000000000008152600401611d7490613049565b60405180910390fd5b611d9167461458e1f1fc101060c01b6114ed565b5050565b600060019050919050565b6000600960008373ffffffffffffffffffffffffffffffffffffffff1673ffffffffffffffffffffffffffffffffffffffff1681526020019081526020016000206000815480929190600101919050559050919050565b6000611e0a611e04611436565b83612408565b9050919050565b600080600080611e2388888888612449565b925092509250611e33828261253d565b829350505050949350505050565b600073ffffffffffffffffffffffffffffffffffffffff168473ffffffffffffffffffffffffffffffffffffffff1603611eb35760006040517fe602df05000000000000000000000000000000000000000000000000000000008152600401611eaa9190612bf4565b60405180910390fd5b600073ffffffffffffffffffffffffffffffffffffffff168373ffffffffffffffffffffffffffffffffffffffff1603611f255760006040517f94280d62000000000000000000000000000000000000000000000000000000008152600401611f1c9190612bf4565b60405180910390fd5b81600360008673ffffffffffffffffffffffffffffffffffffffff1673ffffffffffffffffffffffffffffffffffffffff16815260200190815260200160002060008573ffffffffffffffffffffffffffffffffffffffff1673ffffffffffffffffffffffffffffffffffffffff168152602001908152602001600020819055508015612012578273ffffffffffffffffffffffffffffffffffffffff168473ffffffffffffffffffffffffffffffffffffffff167f8c5be1e5ebec7d5bd14f71427d1e84f3dd0314c0f7b2291e5b200ac8c7c3b925846040516120099190612935565b60405180910390a35b50505050565b600073ffffffffffffffffffffffffffffffffffffffff168373ffffffffffffffffffffffffffffffffffffffff160361206a57806004600082825461205e91906130f5565b9250508190555061213f565b6000600260008573ffffffffffffffffffffffffffffffffffffffff1673ffffffffffffffffffffffffffffffffffffffff168152602001908152602001600020549050818110156120f7578381836040517fe450d38c0000000000000000000000000000000000000000000000000000000081526004016120ee939291906131b3565b60405180910390fd5b818103600260008673ffffffffffffffffffffffffffffffffffffffff1673ffffffffffffffffffffffffffffffffffffffff16815260200190815260200160002081905550505b600073ffffffffffffffffffffffffffffffffffffffff168273ffffffffffffffffffffffffffffffffffffffff160361218857806004600082825403925050819055506121d6565b80600260008473ffffffffffffffffffffffffffffffffffffffff1673ffffffffffffffffffffffffffffffffffffffff168152602001908152602001600020600082825401925050819055505b8173ffffffffffffffffffffffffffffffffffffffff168373ffffffffffffffffffffffffffffffffffffffff167fddf252ad1be2c89b69c2b068fc378daa952ba7f163c4a11628f55a4df523b3ef836040516122339190612935565b60405180910390a3505050565b60007f8b73c3c69bb8fe3d512ecc4cf759cc79239f7b179b0ffacaa9a75d522b39400f7f00000000000000000000000000000000000000000000000000000000000000007f000000000000000000000000000000000000000000000000000000000000000046306040516020016122bb9594939291906132e8565b60405160208183030381529060405280519060200120905090565b606060ff60001b83146122f3576122ec836126a1565b9050612380565b8180546122ff90612ddd565b80601f016020809104026020016040519081016040528092919081815260200182805461232b90612ddd565b80156123785780601f1061234d57610100808354040283529160200191612378565b820191906000526020600020905b81548152906001019060200180831161235b57829003601f168201915b505050505090505b92915050565b600073ffffffffffffffffffffffffffffffffffffffff168273ffffffffffffffffffffffffffffffffffffffff16036123f85760006040517fec442f050000000000000000000000000000000000000000000000000000000081526004016123ef9190612bf4565b60405180910390fd5b61240460008383612018565b5050565b60006040517f190100000000000000000000000000000000000000000000000000000000000081528360028201528260228201526042812091505092915050565b60008060007f7fffffffffffffffffffffffffffffff5d576e7357a4501ddfe92f46681b20a08460001c1115612489576000600385925092509250612533565b6000600188888888604051600081526020016040526040516124ae949392919061333b565b6020604051602081039080840390855afa1580156124d0573d6000803e3d6000fd5b505050602060405103519050600073ffffffffffffffffffffffffffffffffffffffff168173ffffffffffffffffffffffffffffffffffffffff160361252457600060016000801b93509350935050612533565b8060008060001b935093509350505b9450945094915050565b6000600381111561255157612550613380565b5b82600381111561256457612563613380565b5b031561269d576001600381111561257e5761257d613380565b5b82600381111561259157612590613380565b5b036125c8576040517ff645eedf00000000000000000000000000000000000000000000000000000000815260040160405180910390fd5b600260038111156125dc576125db613380565b5b8260038111156125ef576125ee613380565b5b03612634578060001c6040517ffce698f700000000000000000000000000000000000000000000000000000000815260040161262b9190612935565b60405180910390fd5b60038081111561264757612646613380565b5b82600381111561265a57612659613380565b5b0361269c57806040517fd78bce0c00000000000000000000000000000000000000000000000000000000815260040161269391906129f3565b60405180910390fd5b5b5050565b606060006126ae83612715565b90506000602067ffffffffffffffff8111156126cd576126cc613092565b5b6040519080825280601f01601f1916602001820160405280156126ff5781602001600182028036833780820191505090505b5090508181528360208201528092505050919050565b60008060ff8360001c169050601f81111561275c576040517fb3512b0c00000000000000000000000000000000000000000000000000000000815260040160405180910390fd5b80915050919050565b600081519050919050565b600082825260208201905092915050565b60005b8381101561279f578082015181840152602081019050612784565b60008484015250505050565b6000601f19601f8301169050919050565b60006127c782612765565b6127d18185612770565b93506127e1818560208601612781565b6127ea816127ab565b840191505092915050565b6000602082019050818103600083015261280f81846127bc565b905092915050565b600080fd5b600073ffffffffffffffffffffffffffffffffffffffff82169050919050565b60006128478261281c565b9050919050565b6128578161283c565b811461286257600080fd5b50565b6000813590506128748161284e565b92915050565b6000819050919050565b61288d8161287a565b811461289857600080fd5b50565b6000813590506128aa81612884565b92915050565b600080604083850312156128c7576128c6612817565b5b60006128d585828601612865565b92505060206128e68582860161289b565b9150509250929050565b60008115159050919050565b612905816128f0565b82525050565b600060208201905061292060008301846128fc565b92915050565b61292f8161287a565b82525050565b600060208201905061294a6000830184612926565b92915050565b60008060006060848603121561296957612968612817565b5b600061297786828701612865565b935050602061298886828701612865565b92505060406129998682870161289b565b9150509250925092565b600060ff82169050919050565b6129b9816129a3565b82525050565b60006020820190506129d460008301846129b0565b92915050565b6000819050919050565b6129ed816129da565b82525050565b6000602082019050612a0860008301846129e4565b92915050565b600060208284031215612a2457612a23612817565b5b6000612a328482850161289b565b91505092915050565b600060208284031215612a5157612a50612817565b5b6000612a5f84828501612865565b91505092915050565b60007fff0000000000000000000000000000000000000000000000000000000000000082169050919050565b612a9d81612a68565b82525050565b612aac8161283c565b82525050565b600081519050919050565b600082825260208201905092915050565b6000819050602082019050919050565b612ae78161287a565b82525050565b6000612af98383612ade565b60208301905092915050565b6000602082019050919050565b6000612b1d82612ab2565b612b278185612abd565b9350612b3283612ace565b8060005b83811015612b63578151612b4a8882612aed565b9750612b5583612b05565b925050600181019050612b36565b5085935050505092915050565b600060e082019050612b85600083018a612a94565b8181036020830152612b9781896127bc565b90508181036040830152612bab81886127bc565b9050612bba6060830187612926565b612bc76080830186612aa3565b612bd460a08301856129e4565b81810360c0830152612be68184612b12565b905098975050505050505050565b6000602082019050612c096000830184612aa3565b92915050565b6000604082019050612c246000830185612926565b612c316020830184612926565b9392505050565b6000612c438261281c565b9050919050565b612c5381612c38565b82525050565b6000602082019050612c6e6000830184612c4a565b92915050565b612c7d816129a3565b8114612c8857600080fd5b50565b600081359050612c9a81612c74565b92915050565b612ca9816129da565b8114612cb457600080fd5b50565b600081359050612cc681612ca0565b92915050565b600080600080600080600060e0888a031215612ceb57612cea612817565b5b6000612cf98a828b01612865565b9750506020612d0a8a828b01612865565b9650506040612d1b8a828b0161289b565b9550506060612d2c8a828b0161289b565b9450506080612d3d8a828b01612c8b565b93505060a0612d4e8a828b01612cb7565b92505060c0612d5f8a828b01612cb7565b91505092959891949750929550565b60008060408385031215612d8557612d84612817565b5b6000612d9385828601612865565b9250506020612da485828601612865565b9150509250929050565b7f4e487b7100000000000000000000000000000000000000000000000000000000600052602260045260246000fd5b60006002820490506001821680612df557607f821691505b602082108103612e0857612e07612dae565b5b50919050565b7f56657374696e6720706572696f64206973206e6f74206f766572000000000000600082015250565b6000612e44601a83612770565b9150612e4f82612e0e565b602082019050919050565b60006020820190508181036000830152612e7381612e37565b9050919050565b7f496e73756666696369656e742042616c616e6365000000000000000000000000600082015250565b6000612eb0601483612770565b9150612ebb82612e7a565b602082019050919050565b60006020820190508181036000830152612edf81612ea3565b9050919050565b7f4e487b7100000000000000000000000000000000000000000000000000000000600052601160045260246000fd5b6000612f208261287a565b9150612f2b8361287a565b9250828202612f398161287a565b91508282048414831517612f5057612f4f612ee6565b5b5092915050565b7f4e487b7100000000000000000000000000000000000000000000000000000000600052601260045260246000fd5b6000612f918261287a565b9150612f9c8361287a565b925082612fac57612fab612f57565b5b828204905092915050565b600081905092915050565b50565b6000612fd2600083612fb7565b9150612fdd82612fc2565b600082019050919050565b6000612ff382612fc5565b9150819050919050565b7f4661696c656420746f2073656e64204574686572000000000000000000000000600082015250565b6000613033601483612770565b915061303e82612ffd565b602082019050919050565b6000602082019050818103600083015261306281613026565b9050919050565b600060408201905061307e6000830185612aa3565b61308b6020830184612926565b9392505050565b7f4e487b7100000000000000000000000000000000000000000000000000000000600052604160045260246000fd5b60006130cc8261287a565b91506130d78361287a565b92508282039050818111156130ef576130ee612ee6565b5b92915050565b60006131008261287a565b915061310b8361287a565b925082820190508082111561312357613122612ee6565b5b92915050565b600060c08201905061313e60008301896129e4565b61314b6020830188612aa3565b6131586040830187612aa3565b6131656060830186612926565b6131726080830185612926565b61317f60a0830184612926565b979650505050505050565b600060408201905061319f6000830185612aa3565b6131ac6020830184612aa3565b9392505050565b60006060820190506131c86000830186612aa3565b6131d56020830185612926565b6131e26040830184612926565b949350505050565b7f496e76616c696420616d6f756e74206f66206574686572000000000000000000600082015250565b6000613220601783612770565b915061322b826131ea565b602082019050919050565b6000602082019050818103600083015261324f81613213565b9050919050565b7f416d6f756e7420657863656564696e6720617661696c61626c6520737570706c60008201527f7900000000000000000000000000000000000000000000000000000000000000602082015250565b60006132b2602183612770565b91506132bd82613256565b604082019050919050565b600060208201905081810360008301526132e1816132a5565b9050919050565b600060a0820190506132fd60008301886129e4565b61330a60208301876129e4565b61331760408301866129e4565b6133246060830185612926565b6133316080830184612aa3565b9695505050505050565b600060808201905061335060008301876129e4565b61335d60208301866129b0565b61336a60408301856129e4565b61337760608301846129e4565b95945050505050565b7f4e487b7100000000000000000000000000000000000000000000000000000000600052602160045260246000fdfea2646970667358221220f79d4e8ba5ae017e3fe6e69001c89a939acca3ce6a8dfaaa9330a23ae4c0393364736f6c63430008150033",
  "linkReferences": {},
  "deployedLinkReferences": {}
}