{
  "_format": "hh-sol-artifact-1",
  "contractName": "WWW3Shares",
  "sourceName": "contracts/WWW3Shares.sol",
  "abi": [
    {
      "inputs": [
        {
          "internalType": "string",
          "name": "_name",
          "type": "string"
        },
        {
          "internalType": "string",
          "name": "_symbol",
          "type": "string"
        },
        {
          "internalType": "uint256",
          "name": "_maxAmountOfShares",
          "type": "uint256"
        },
        {
          "internalType": "uint256",
          "name": "_sharePrice",
          "type": "uint256"
        },
        {
          "internalType": "uint256",
          "name": "_privateSellAmount",
          "type": "uint256"
        },
        {
          "internalType": "uint256",
          "name": "_vestingPeriod",
          "type": "uint256"
        }
      ],
      "stateMutability": "nonpayable",
      "type": "constructor"
    },
    {
      "anonymous": false,
      "inputs": [
        {
          "indexed": true,
          "internalType": "address",
          "name": "owner",
          "type": "address"
        },
        {
          "indexed": true,
          "internalType": "address",
          "name": "spender",
          "type": "address"
        },
        {
          "indexed": false,
          "internalType": "uint256",
          "name": "value",
          "type": "uint256"
        }
      ],
      "name": "Approval",
      "type": "event"
    },
    {
      "anonymous": false,
      "inputs": [
        {
          "indexed": true,
          "internalType": "address",
          "name": "previousOwner",
          "type": "address"
        },
        {
          "indexed": true,
          "internalType": "address",
          "name": "newOwner",
          "type": "address"
        }
      ],
      "name": "OwnershipTransferred",
      "type": "event"
    },
    {
      "anonymous": false,
      "inputs": [
        {
          "indexed": false,
          "internalType": "address",
          "name": "to",
          "type": "address"
        },
        {
          "indexed": false,
          "internalType": "uint256",
          "name": "amount",
          "type": "uint256"
        }
      ],
      "name": "ShareMinted",
      "type": "event"
    },
    {
      "anonymous": false,
      "inputs": [
        {
          "indexed": false,
          "internalType": "address",
          "name": "to",
          "type": "address"
        },
        {
          "indexed": false,
          "internalType": "uint256",
          "name": "amount",
          "type": "uint256"
        }
      ],
      "name": "ShareSold",
      "type": "event"
    },
    {
      "anonymous": false,
      "inputs": [
        {
          "indexed": true,
          "internalType": "address",
          "name": "from",
          "type": "address"
        },
        {
          "indexed": true,
          "internalType": "address",
          "name": "to",
          "type": "address"
        },
        {
          "indexed": false,
          "internalType": "uint256",
          "name": "value",
          "type": "uint256"
        }
      ],
      "name": "Transfer",
      "type": "event"
    },
    {
      "inputs": [
        {
          "internalType": "address",
          "name": "owner",
          "type": "address"
        },
        {
          "internalType": "address",
          "name": "spender",
          "type": "address"
        }
      ],
      "name": "allowance",
      "outputs": [
        {
          "internalType": "uint256",
          "name": "",
          "type": "uint256"
        }
      ],
      "stateMutability": "view",
      "type": "function"
    },
    {
      "inputs": [
        {
          "internalType": "address",
          "name": "spender",
          "type": "address"
        },
        {
          "internalType": "uint256",
          "name": "amount",
          "type": "uint256"
        }
      ],
      "name": "approve",
      "outputs": [
        {
          "internalType": "bool",
          "name": "",
          "type": "bool"
        }
      ],
      "stateMutability": "nonpayable",
      "type": "function"
    },
    {
      "inputs": [
        {
          "internalType": "address",
          "name": "account",
          "type": "address"
        }
      ],
      "name": "balanceOf",
      "outputs": [
        {
          "internalType": "uint256",
          "name": "",
          "type": "uint256"
        }
      ],
      "stateMutability": "view",
      "type": "function"
    },
    {
      "inputs": [
        {
          "internalType": "uint256",
          "name": "amount",
          "type": "uint256"
        }
      ],
      "name": "buyShares",
      "outputs": [],
      "stateMutability": "payable",
      "type": "function"
    },
    {
      "inputs": [],
      "name": "currentShareValue",
      "outputs": [
        {
          "internalType": "uint256",
          "name": "",
          "type": "uint256"
        }
      ],
      "stateMutability": "view",
      "type": "function"
    },
    {
      "inputs": [],
      "name": "decimals",
      "outputs": [
        {
          "internalType": "uint8",
          "name": "",
          "type": "uint8"
        }
      ],
      "stateMutability": "view",
      "type": "function"
    },
    {
      "inputs": [
        {
          "internalType": "address",
          "name": "spender",
          "type": "address"
        },
        {
          "internalType": "uint256",
          "name": "subtractedValue",
          "type": "uint256"
        }
      ],
      "name": "decreaseAllowance",
      "outputs": [
        {
          "internalType": "bool",
          "name": "",
          "type": "bool"
        }
      ],
      "stateMutability": "nonpayable",
      "type": "function"
    },
    {
      "inputs": [],
      "name": "developer",
      "outputs": [
        {
          "internalType": "address payable",
          "name": "",
          "type": "address"
        }
      ],
      "stateMutability": "view",
      "type": "function"
    },
    {
      "inputs": [
        {
          "internalType": "address",
          "name": "spender",
          "type": "address"
        },
        {
          "internalType": "uint256",
          "name": "addedValue",
          "type": "uint256"
        }
      ],
      "name": "increaseAllowance",
      "outputs": [
        {
          "internalType": "bool",
          "name": "",
          "type": "bool"
        }
      ],
      "stateMutability": "nonpayable",
      "type": "function"
    },
    {
      "inputs": [],
      "name": "initialSharePrice",
      "outputs": [
        {
          "internalType": "uint256",
          "name": "",
          "type": "uint256"
        }
      ],
      "stateMutability": "view",
      "type": "function"
    },
    {
      "inputs": [],
      "name": "maxAmountOfShares",
      "outputs": [
        {
          "internalType": "uint256",
          "name": "",
          "type": "uint256"
        }
      ],
      "stateMutability": "view",
      "type": "function"
    },
    {
      "inputs": [],
      "name": "name",
      "outputs": [
        {
          "internalType": "string",
          "name": "",
          "type": "string"
        }
      ],
      "stateMutability": "view",
      "type": "function"
    },
    {
      "inputs": [],
      "name": "owner",
      "outputs": [
        {
          "internalType": "address",
          "name": "",
          "type": "address"
        }
      ],
      "stateMutability": "view",
      "type": "function"
    },
    {
      "inputs": [],
      "name": "renounceOwnership",
      "outputs": [],
      "stateMutability": "nonpayable",
      "type": "function"
    },
    {
      "inputs": [
        {
          "internalType": "uint256",
          "name": "amount",
          "type": "uint256"
        }
      ],
      "name": "sellShares",
      "outputs": [],
      "stateMutability": "nonpayable",
      "type": "function"
    },
    {
      "inputs": [],
      "name": "symbol",
      "outputs": [
        {
          "internalType": "string",
          "name": "",
          "type": "string"
        }
      ],
      "stateMutability": "view",
      "type": "function"
    },
    {
      "inputs": [],
      "name": "totalSupply",
      "outputs": [
        {
          "internalType": "uint256",
          "name": "",
          "type": "uint256"
        }
      ],
      "stateMutability": "view",
      "type": "function"
    },
    {
      "inputs": [
        {
          "internalType": "address",
          "name": "to",
          "type": "address"
        },
        {
          "internalType": "uint256",
          "name": "amount",
          "type": "uint256"
        }
      ],
      "name": "transfer",
      "outputs": [
        {
          "internalType": "bool",
          "name": "",
          "type": "bool"
        }
      ],
      "stateMutability": "nonpayable",
      "type": "function"
    },
    {
      "inputs": [
        {
          "internalType": "address",
          "name": "from",
          "type": "address"
        },
        {
          "internalType": "address",
          "name": "to",
          "type": "address"
        },
        {
          "internalType": "uint256",
          "name": "amount",
          "type": "uint256"
        }
      ],
      "name": "transferFrom",
      "outputs": [
        {
          "internalType": "bool",
          "name": "",
          "type": "bool"
        }
      ],
      "stateMutability": "nonpayable",
      "type": "function"
    },
    {
      "inputs": [
        {
          "internalType": "address",
          "name": "newOwner",
          "type": "address"
        }
      ],
      "name": "transferOwnership",
      "outputs": [],
      "stateMutability": "nonpayable",
      "type": "function"
    },
    {
      "inputs": [],
      "name": "vestingPeriodEnd",
      "outputs": [
        {
          "internalType": "uint256",
          "name": "",
          "type": "uint256"
        }
      ],
      "stateMutability": "view",
      "type": "function"
    },
    {
      "stateMutability": "payable",
      "type": "receive"
    }
  ],
  "bytecode": "0x60806040523480156200001157600080fd5b5060405162003730380380620037308339818101604052810190620000379190620005fe565b8585620000596200004d620001e960201b60201c565b620001f160201b60201c565b60018081905550816005908162000071919062000919565b50806006908162000083919062000919565b505050620000a267b84f097f01eee54a60c01b620002b560201b60201c565b620000be670bc5cb0a59f947d860c01b620002b560201b60201c565b620000ce620001e960201b60201c565b600760006101000a81548173ffffffffffffffffffffffffffffffffffffffff021916908373ffffffffffffffffffffffffffffffffffffffff1602179055506200012a673e64119099c4287f60c01b620002b560201b60201c565b836008819055506200014d67c52a9c0c14a7b27f60c01b620002b560201b60201c565b82600981905550620001706713240460d64263fb60c01b620002b560201b60201c565b6200018c673d45e25c76e3bbb460c01b620002b560201b60201c565b620001ad620001a0620001e960201b60201c565b83620002b860201b60201c565b620001c96701adfbfe7ad622c560c01b620002b560201b60201c565b8043620001d7919062000a2f565b600a8190555050505050505062000b1b565b600033905090565b60008060009054906101000a900473ffffffffffffffffffffffffffffffffffffffff169050816000806101000a81548173ffffffffffffffffffffffffffffffffffffffff021916908373ffffffffffffffffffffffffffffffffffffffff1602179055508173ffffffffffffffffffffffffffffffffffffffff168173ffffffffffffffffffffffffffffffffffffffff167f8be0079c531659141344cd1fd0a4f28419497f9722a3daafe3b4186f6b6457e060405160405180910390a35050565b50565b600073ffffffffffffffffffffffffffffffffffffffff168273ffffffffffffffffffffffffffffffffffffffff16036200032a576040517f08c379a0000000000000000000000000000000000000000000000000000000008152600401620003219062000acb565b60405180910390fd5b6200033e600083836200042660201b60201c565b806004600082825462000352919062000a2f565b9250508190555080600260008473ffffffffffffffffffffffffffffffffffffffff1673ffffffffffffffffffffffffffffffffffffffff168152602001908152602001600020600082825401925050819055508173ffffffffffffffffffffffffffffffffffffffff16600073ffffffffffffffffffffffffffffffffffffffff167fddf252ad1be2c89b69c2b068fc378daa952ba7f163c4a11628f55a4df523b3ef8360405162000406919062000afe565b60405180910390a362000422600083836200042b60201b60201c565b5050565b505050565b505050565b6000604051905090565b600080fd5b600080fd5b600080fd5b600080fd5b6000601f19601f8301169050919050565b7f4e487b7100000000000000000000000000000000000000000000000000000000600052604160045260246000fd5b62000499826200044e565b810181811067ffffffffffffffff82111715620004bb57620004ba6200045f565b5b80604052505050565b6000620004d062000430565b9050620004de82826200048e565b919050565b600067ffffffffffffffff8211156200050157620005006200045f565b5b6200050c826200044e565b9050602081019050919050565b60005b83811015620005395780820151818401526020810190506200051c565b60008484015250505050565b60006200055c6200055684620004e3565b620004c4565b9050828152602081018484840111156200057b576200057a62000449565b5b6200058884828562000519565b509392505050565b600082601f830112620005a857620005a762000444565b5b8151620005ba84826020860162000545565b91505092915050565b6000819050919050565b620005d881620005c3565b8114620005e457600080fd5b50565b600081519050620005f881620005cd565b92915050565b60008060008060008060c087890312156200061e576200061d6200043a565b5b600087015167ffffffffffffffff8111156200063f576200063e6200043f565b5b6200064d89828a0162000590565b965050602087015167ffffffffffffffff8111156200067157620006706200043f565b5b6200067f89828a0162000590565b95505060406200069289828a01620005e7565b9450506060620006a589828a01620005e7565b9350506080620006b889828a01620005e7565b92505060a0620006cb89828a01620005e7565b9150509295509295509295565b600081519050919050565b7f4e487b7100000000000000000000000000000000000000000000000000000000600052602260045260246000fd5b600060028204905060018216806200072b57607f821691505b602082108103620007415762000740620006e3565b5b50919050565b60008190508160005260206000209050919050565b60006020601f8301049050919050565b600082821b905092915050565b600060088302620007ab7fffffffffffffffffffffffffffffffffffffffffffffffffffffffffffffffff826200076c565b620007b786836200076c565b95508019841693508086168417925050509392505050565b6000819050919050565b6000620007fa620007f4620007ee84620005c3565b620007cf565b620005c3565b9050919050565b6000819050919050565b6200081683620007d9565b6200082e620008258262000801565b84845462000779565b825550505050565b600090565b6200084562000836565b620008528184846200080b565b505050565b5b818110156200087a576200086e6000826200083b565b60018101905062000858565b5050565b601f821115620008c957620008938162000747565b6200089e846200075c565b81016020851015620008ae578190505b620008c6620008bd856200075c565b83018262000857565b50505b505050565b600082821c905092915050565b6000620008ee60001984600802620008ce565b1980831691505092915050565b6000620009098383620008db565b9150826002028217905092915050565b6200092482620006d8565b67ffffffffffffffff81111562000940576200093f6200045f565b5b6200094c825462000712565b620009598282856200087e565b600060209050601f8311600181146200099157600084156200097c578287015190505b620009888582620008fb565b865550620009f8565b601f198416620009a18662000747565b60005b82811015620009cb57848901518255600182019150602085019450602081019050620009a4565b86831015620009eb5784890151620009e7601f891682620008db565b8355505b6001600288020188555050505b505050505050565b7f4e487b7100000000000000000000000000000000000000000000000000000000600052601160045260246000fd5b600062000a3c82620005c3565b915062000a4983620005c3565b925082820190508082111562000a645762000a6362000a00565b5b92915050565b600082825260208201905092915050565b7f45524332303a206d696e7420746f20746865207a65726f206164647265737300600082015250565b600062000ab3601f8362000a6a565b915062000ac08262000a7b565b602082019050919050565b6000602082019050818103600083015262000ae68162000aa4565b9050919050565b62000af881620005c3565b82525050565b600060208201905062000b15600083018462000aed565b92915050565b612c058062000b2b6000396000f3fe60806040526004361061012e5760003560e01c80638da5cb5b116100ab578063aadc68a51161006f578063aadc68a514610415578063ca4b208b14610440578063d1a93d181461046b578063dd62ed3e14610487578063defbbb68146104c4578063f2fde38b146104ef57610135565b80638da5cb5b1461031a57806395d89b41146103455780639e462fc714610370578063a457c2d71461039b578063a9059cbb146103d857610135565b806339509351116100f257806339509351146102355780634ba8ae81146102725780635f3e364a1461029b57806370a08231146102c6578063715018a61461030357610135565b806306fdde031461013a578063095ea7b31461016557806318160ddd146101a257806323b872dd146101cd578063313ce5671461020a57610135565b3661013557005b600080fd5b34801561014657600080fd5b5061014f610518565b60405161015c9190611f5e565b60405180910390f35b34801561017157600080fd5b5061018c60048036038101906101879190612019565b6105aa565b6040516101999190612074565b60405180910390f35b3480156101ae57600080fd5b506101b76105cd565b6040516101c4919061209e565b60405180910390f35b3480156101d957600080fd5b506101f460048036038101906101ef91906120b9565b6105d7565b6040516102019190612074565b60405180910390f35b34801561021657600080fd5b5061021f610606565b60405161022c9190612128565b60405180910390f35b34801561024157600080fd5b5061025c60048036038101906102579190612019565b61060f565b6040516102699190612074565b60405180910390f35b34801561027e57600080fd5b5061029960048036038101906102949190612143565b610646565b005b3480156102a757600080fd5b506102b0610939565b6040516102bd919061209e565b60405180910390f35b3480156102d257600080fd5b506102ed60048036038101906102e89190612170565b61093f565b6040516102fa919061209e565b60405180910390f35b34801561030f57600080fd5b50610318610988565b005b34801561032657600080fd5b5061032f61099c565b60405161033c91906121ac565b60405180910390f35b34801561035157600080fd5b5061035a6109c5565b6040516103679190611f5e565b60405180910390f35b34801561037c57600080fd5b50610385610a57565b604051610392919061209e565b60405180910390f35b3480156103a757600080fd5b506103c260048036038101906103bd9190612019565b610a5d565b6040516103cf9190612074565b60405180910390f35b3480156103e457600080fd5b506103ff60048036038101906103fa9190612019565b610ad4565b60405161040c9190612074565b60405180910390f35b34801561042157600080fd5b5061042a610af7565b604051610437919061209e565b60405180910390f35b34801561044c57600080fd5b50610455610d29565b60405161046291906121e8565b60405180910390f35b61048560048036038101906104809190612143565b610d4f565b005b34801561049357600080fd5b506104ae60048036038101906104a99190612203565b610ec7565b6040516104bb919061209e565b60405180910390f35b3480156104d057600080fd5b506104d9610f4e565b6040516104e6919061209e565b60405180910390f35b3480156104fb57600080fd5b5061051660048036038101906105119190612170565b610f54565b005b60606005805461052790612272565b80601f016020809104026020016040519081016040528092919081815260200182805461055390612272565b80156105a05780601f10610575576101008083540402835291602001916105a0565b820191906000526020600020905b81548152906001019060200180831161058357829003601f168201915b5050505050905090565b6000806105b5610fd7565b90506105c2818585610fdf565b600191505092915050565b6000600454905090565b6000806105e2610fd7565b90506105ef8582856111a8565b6105fa858585611234565b60019150509392505050565b60006012905090565b60008061061a610fd7565b905061063b81858561062c8589610ec7565b61063691906122d2565b610fdf565b600191505092915050565b61065a67cdc016421cd4de3d60c01b6114ad565b6106626114b0565b6106766705acc4e0fcacecd660c01b6114ad565b61068a67ab7796e12ba36b6f60c01b6114ad565b61069e67e65eb23ac1ff0c5360c01b6114ad565b6106b26727f0c926cf482f6a60c01b6114ad565b6106c667b0fa2dc9662b4b1860c01b6114ad565b600a5443101561070b576040517f08c379a000000000000000000000000000000000000000000000000000000000815260040161070290612352565b60405180910390fd5b61071f676bc94b4dca9b475460c01b6114ad565b6107336739fdf7a74eda647d60c01b6114ad565b6107476767db2aa4eda8f74060c01b6114ad565b610759610752610fd7565b30836105d7565b5061076e6794fce0147ed0a7c660c01b6114ad565b61078267fe2055f61204feae60c01b6114ad565b60008161078d610af7565b6107979190612372565b90506107ad672f80d264d5566f0d60c01b6114ad565b6107c1676d50f93635eeb30860c01b6114ad565b60006107cb610fd7565b73ffffffffffffffffffffffffffffffffffffffff16826040516107ee906123e5565b60006040518083038185875af1925050503d806000811461082b576040519150601f19603f3d011682016040523d82523d6000602084013e610830565b606091505b5050905061084867f2b7f4ec58ccc0ab60c01b6114ad565b61085c67b55aa28ad4977d7e60c01b6114ad565b61087067816bc44ae019aff960c01b6114ad565b806108b0576040517f08c379a00000000000000000000000000000000000000000000000000000000081526004016108a790612446565b60405180910390fd5b6108c4676533c43a5681a39760c01b6114ad565b6108d8677cb03c727201159b60c01b6114ad565b6108ec67fa1f9836fcccda8a60c01b6114ad565b7fe8bb4edfb49cb224db3d7d51f707c053865322c038a54cfcfd81969d0eb1f013610915610fd7565b84604051610924929190612466565b60405180910390a150506109366114ff565b50565b60095481565b6000600260008373ffffffffffffffffffffffffffffffffffffffff1673ffffffffffffffffffffffffffffffffffffffff168152602001908152602001600020549050919050565b610990611508565b61099a6000611586565b565b60008060009054906101000a900473ffffffffffffffffffffffffffffffffffffffff16905090565b6060600680546109d490612272565b80601f0160208091040260200160405190810160405280929190818152602001828054610a0090612272565b8015610a4d5780601f10610a2257610100808354040283529160200191610a4d565b820191906000526020600020905b815481529060010190602001808311610a3057829003601f168201915b5050505050905090565b600a5481565b600080610a68610fd7565b90506000610a768286610ec7565b905083811015610abb576040517f08c379a0000000000000000000000000000000000000000000000000000000008152600401610ab290612501565b60405180910390fd5b610ac88286868403610fdf565b60019250505092915050565b600080610adf610fd7565b9050610aec818585611234565b600191505092915050565b6000610b0d67efa8733de7e3e5f660c01b6114ad565b610b216720ae07a6cddb66f960c01b6114ad565b610b3567d415f2c1050a18a160c01b6114ad565b6000610b3f6105cd565b9050610b55676a777ca8da14a61360c01b6114ad565b610b6967e36b3ad0a4cc389f60c01b6114ad565b6000479050610b826724a6db4d2d68bc9060c01b6114ad565b610b966714ac4dd2da8aa60f60c01b6114ad565b600082148015610bb65750610bb56795abf084cb94990f60c01b61164a565b5b80610bdd5750600081148015610bdc5750610bdb67547dc638214f640e60c01b61164a565b5b5b15610c2957610bf667edfa5bdbae6ca41160c01b6114ad565b610c0a67d65c8fd052e108bd60c01b6114ad565b610c1e67d7ecb8e47edcd52560c01b6114ad565b600092505050610d26565b610c3d67f6128c86ce099a0860c01b6114ad565b610c5167866309a08081e04e60c01b6114ad565b610c6567dea7b4edfe9208a060c01b6114ad565b6000670de0b6b3a764000082610c7b9190612372565b9050610c91674b5c6a754db2cc1d60c01b6114ad565b610ca5677a53b924cb36350760c01b6114ad565b60008382610cb39190612550565b9050610cc9677002ead2af4fcfde60c01b6114ad565b610cdd67fae65de420b7867b60c01b6114ad565b6000670de0b6b3a764000082610cf39190612550565b9050610d0967e1089477e72355f560c01b6114ad565b610d1d6747ba7d87ad81859460c01b6114ad565b80955050505050505b90565b600760009054906101000a900473ffffffffffffffffffffffffffffffffffffffff1681565b610d63677e9e5a0c944fe4ed60c01b6114ad565b610d6b6114b0565b610d7f67ae524dd61a733da760c01b6114ad565b610d9367ffc5b77766a3076060c01b6114ad565b610da76713eff80d52d5f5e660c01b6114ad565b610dbb677ea7e83ec04b259d60c01b6114ad565b600a544310610e0e57610dd867b50cd882e83452f760c01b6114ad565b610dec670a69209894108d5960c01b6114ad565b610e00678db482855aab96d860c01b6114ad565b610e0981611655565b610e54565b610e2267c50862bf1477d9b160c01b6114ad565b610e3667a016246c14a47b1460c01b6114ad565b610e4a67e64a3465f86dce1460c01b6114ad565b610e5381611a90565b5b610e686767ab71b14238597660c01b6114ad565b610e7c67621c0fc93300a42a60c01b6114ad565b7f9e3aff002c0bfdb18b77adb1051b53eda74f919ee90e162c2626995e4db8f055610ea5610fd7565b82604051610eb4929190612466565b60405180910390a1610ec46114ff565b50565b6000600360008473ffffffffffffffffffffffffffffffffffffffff1673ffffffffffffffffffffffffffffffffffffffff16815260200190815260200160002060008373ffffffffffffffffffffffffffffffffffffffff1673ffffffffffffffffffffffffffffffffffffffff16815260200190815260200160002054905092915050565b60085481565b610f5c611508565b600073ffffffffffffffffffffffffffffffffffffffff168173ffffffffffffffffffffffffffffffffffffffff1603610fcb576040517f08c379a0000000000000000000000000000000000000000000000000000000008152600401610fc2906125f3565b60405180910390fd5b610fd481611586565b50565b600033905090565b600073ffffffffffffffffffffffffffffffffffffffff168373ffffffffffffffffffffffffffffffffffffffff160361104e576040517f08c379a000000000000000000000000000000000000000000000000000000000815260040161104590612685565b60405180910390fd5b600073ffffffffffffffffffffffffffffffffffffffff168273ffffffffffffffffffffffffffffffffffffffff16036110bd576040517f08c379a00000000000000000000000000000000000000000000000000000000081526004016110b490612717565b60405180910390fd5b80600360008573ffffffffffffffffffffffffffffffffffffffff1673ffffffffffffffffffffffffffffffffffffffff16815260200190815260200160002060008473ffffffffffffffffffffffffffffffffffffffff1673ffffffffffffffffffffffffffffffffffffffff168152602001908152602001600020819055508173ffffffffffffffffffffffffffffffffffffffff168373ffffffffffffffffffffffffffffffffffffffff167f8c5be1e5ebec7d5bd14f71427d1e84f3dd0314c0f7b2291e5b200ac8c7c3b9258360405161119b919061209e565b60405180910390a3505050565b60006111b48484610ec7565b90507fffffffffffffffffffffffffffffffffffffffffffffffffffffffffffffffff811461122e5781811015611220576040517f08c379a000000000000000000000000000000000000000000000000000000000815260040161121790612783565b60405180910390fd5b61122d8484848403610fdf565b5b50505050565b600073ffffffffffffffffffffffffffffffffffffffff168373ffffffffffffffffffffffffffffffffffffffff16036112a3576040517f08c379a000000000000000000000000000000000000000000000000000000000815260040161129a90612815565b60405180910390fd5b600073ffffffffffffffffffffffffffffffffffffffff168273ffffffffffffffffffffffffffffffffffffffff1603611312576040517f08c379a0000000000000000000000000000000000000000000000000000000008152600401611309906128a7565b60405180910390fd5b61131d838383611d6d565b6000600260008573ffffffffffffffffffffffffffffffffffffffff1673ffffffffffffffffffffffffffffffffffffffff168152602001908152602001600020549050818110156113a4576040517f08c379a000000000000000000000000000000000000000000000000000000000815260040161139b90612939565b60405180910390fd5b818103600260008673ffffffffffffffffffffffffffffffffffffffff1673ffffffffffffffffffffffffffffffffffffffff1681526020019081526020016000208190555081600260008573ffffffffffffffffffffffffffffffffffffffff1673ffffffffffffffffffffffffffffffffffffffff168152602001908152602001600020600082825401925050819055508273ffffffffffffffffffffffffffffffffffffffff168473ffffffffffffffffffffffffffffffffffffffff167fddf252ad1be2c89b69c2b068fc378daa952ba7f163c4a11628f55a4df523b3ef84604051611494919061209e565b60405180910390a36114a7848484611d72565b50505050565b50565b6002600154036114f5576040517f08c379a00000000000000000000000000000000000000000000000000000000081526004016114ec906129a5565b60405180910390fd5b6002600181905550565b60018081905550565b611510610fd7565b73ffffffffffffffffffffffffffffffffffffffff1661152e61099c565b73ffffffffffffffffffffffffffffffffffffffff1614611584576040517f08c379a000000000000000000000000000000000000000000000000000000000815260040161157b90612a11565b60405180910390fd5b565b60008060009054906101000a900473ffffffffffffffffffffffffffffffffffffffff169050816000806101000a81548173ffffffffffffffffffffffffffffffffffffffff021916908373ffffffffffffffffffffffffffffffffffffffff1602179055508173ffffffffffffffffffffffffffffffffffffffff168173ffffffffffffffffffffffffffffffffffffffff167f8be0079c531659141344cd1fd0a4f28419497f9722a3daafe3b4186f6b6457e060405160405180910390a35050565b600060019050919050565b61166967ef12509652f7f3a960c01b6114ad565b61167c66e2479d186948b860c01b6114ad565b611690675c571b7dcab4e7e760c01b6114ad565b600061169b3061093f565b90506116b1677f5560c4df39bb4260c01b6114ad565b6116c5673eeb2f5e72f1a46960c01b6114ad565b6116d967528c7727564ab4ad60c01b6114ad565b6116e1610af7565b826116ec9190612372565b341461172d576040517f08c379a000000000000000000000000000000000000000000000000000000000815260040161172490612a7d565b60405180910390fd5b611741674c33e4844b40ec1d60c01b6114ad565b6117556783d75778b22dd59860c01b6114ad565b61176967bbed833745b2299c60c01b6114ad565b60006117736105cd565b6008546117809190612a9d565b8261178b91906122d2565b90506117a1673c77eadc0151470b60c01b6114ad565b6117b5675d4d28da4c0f53e960c01b6114ad565b6117c96792c0be6199ddd77160c01b6114ad565b8083111561180c576040517f08c379a000000000000000000000000000000000000000000000000000000000815260040161180390612b43565b60405180910390fd5b61182067e92c7ab18ba129d660c01b6114ad565b61183467a85c5bb17d8bbd7360c01b6114ad565b61184867a8de51a081cec07160c01b6114ad565b61185c67bba4d1c9f776518d60c01b6114ad565b82611865610af7565b61186f9190612372565b34146118b0576040517f08c379a00000000000000000000000000000000000000000000000000000000081526004016118a790612a7d565b60405180910390fd5b6118c46774d6aec01a1ea41660c01b6114ad565b6118d8670dc4e63bfcae7f8560c01b6114ad565b6118ec67d1f5472c949d0c5260c01b6114ad565b818311611946576119076728be8af9fab6a96860c01b6114ad565b61191b67dcf2756bc266f9bc60c01b6114ad565b61192f67bb327495ab13070c60c01b6114ad565b61194061193a610fd7565b84610ad4565b50611a8b565b61195a67b32001c2f4feeadb60c01b6114ad565b61196e67299519891cde23e660c01b6114ad565b6000821115611a3c5761198b67238172cb93166f8360c01b6114ad565b61199f67c0ea11aa7681df9f60c01b6114ad565b6119b3671c55572f3b8b19c660c01b6114ad565b600082846119c19190612a9d565b90506119d767a09bcc952333a91560c01b6114ad565b6119eb676a00b962365e82ee60c01b6114ad565b6119fc6119f6610fd7565b84610ad4565b50611a11672a2e03f3872b911260c01b6114ad565b611a25670fb5622567e66dc560c01b6114ad565b611a36611a30610fd7565b82611d77565b50611a8a565b611a50675e38604e3581330a60c01b6114ad565b611a646768c22f3a082bb0ee60c01b6114ad565b611a7867b92c68d5d6fd2f6960c01b6114ad565b611a89611a83610fd7565b84611d77565b5b5b505050565b611aa467461458e1f1fc101060c01b6114ad565b611ab867385b300314bf247660c01b6114ad565b611acc67769b4df5a89c9e4760c01b6114ad565b611ae06710b9e63079629c8060c01b6114ad565b60095481611aee9190612372565b3414611b2f576040517f08c379a0000000000000000000000000000000000000000000000000000000008152600401611b2690612a7d565b60405180910390fd5b611b43679ff9b7d2939de6d760c01b6114ad565b611b576705929440d9527eb060c01b6114ad565b611b6b67a342d519069ef7cf60c01b6114ad565b611b7f675d5dea60b4f903d660c01b6114ad565b600854611b8a6105cd565b82611b9591906122d2565b1115611bd6576040517f08c379a0000000000000000000000000000000000000000000000000000000008152600401611bcd90612b43565b60405180910390fd5b611bea6720d685592363554c60c01b6114ad565b611bfe67e744d07dd6599adf60c01b6114ad565b611c1267b51e7b68fb31d17f60c01b6114ad565b611c23611c1d610fd7565b82611d77565b611c3767c9a0aaf68268d4d660c01b6114ad565b611c4b679cec51f03d4a1cbe60c01b6114ad565b6000600760009054906101000a900473ffffffffffffffffffffffffffffffffffffffff1673ffffffffffffffffffffffffffffffffffffffff1634604051611c93906123e5565b60006040518083038185875af1925050503d8060008114611cd0576040519150601f19603f3d011682016040523d82523d6000602084013e611cd5565b606091505b50509050611ced6753bf09370d5bf72d60c01b6114ad565b611d01672edeac71af4f9fb060c01b6114ad565b611d15678971eb0f8bef6e1c60c01b6114ad565b80611d55576040517f08c379a0000000000000000000000000000000000000000000000000000000008152600401611d4c90612446565b60405180910390fd5b611d696762108bf105b6589260c01b6114ad565b5050565b505050565b505050565b600073ffffffffffffffffffffffffffffffffffffffff168273ffffffffffffffffffffffffffffffffffffffff1603611de6576040517f08c379a0000000000000000000000000000000000000000000000000000000008152600401611ddd90612baf565b60405180910390fd5b611df260008383611d6d565b8060046000828254611e0491906122d2565b9250508190555080600260008473ffffffffffffffffffffffffffffffffffffffff1673ffffffffffffffffffffffffffffffffffffffff168152602001908152602001600020600082825401925050819055508173ffffffffffffffffffffffffffffffffffffffff16600073ffffffffffffffffffffffffffffffffffffffff167fddf252ad1be2c89b69c2b068fc378daa952ba7f163c4a11628f55a4df523b3ef83604051611eb6919061209e565b60405180910390a3611eca60008383611d72565b5050565b600081519050919050565b600082825260208201905092915050565b60005b83811015611f08578082015181840152602081019050611eed565b60008484015250505050565b6000601f19601f8301169050919050565b6000611f3082611ece565b611f3a8185611ed9565b9350611f4a818560208601611eea565b611f5381611f14565b840191505092915050565b60006020820190508181036000830152611f788184611f25565b905092915050565b600080fd5b600073ffffffffffffffffffffffffffffffffffffffff82169050919050565b6000611fb082611f85565b9050919050565b611fc081611fa5565b8114611fcb57600080fd5b50565b600081359050611fdd81611fb7565b92915050565b6000819050919050565b611ff681611fe3565b811461200157600080fd5b50565b60008135905061201381611fed565b92915050565b600080604083850312156120305761202f611f80565b5b600061203e85828601611fce565b925050602061204f85828601612004565b9150509250929050565b60008115159050919050565b61206e81612059565b82525050565b60006020820190506120896000830184612065565b92915050565b61209881611fe3565b82525050565b60006020820190506120b3600083018461208f565b92915050565b6000806000606084860312156120d2576120d1611f80565b5b60006120e086828701611fce565b93505060206120f186828701611fce565b925050604061210286828701612004565b9150509250925092565b600060ff82169050919050565b6121228161210c565b82525050565b600060208201905061213d6000830184612119565b92915050565b60006020828403121561215957612158611f80565b5b600061216784828501612004565b91505092915050565b60006020828403121561218657612185611f80565b5b600061219484828501611fce565b91505092915050565b6121a681611fa5565b82525050565b60006020820190506121c1600083018461219d565b92915050565b60006121d282611f85565b9050919050565b6121e2816121c7565b82525050565b60006020820190506121fd60008301846121d9565b92915050565b6000806040838503121561221a57612219611f80565b5b600061222885828601611fce565b925050602061223985828601611fce565b9150509250929050565b7f4e487b7100000000000000000000000000000000000000000000000000000000600052602260045260246000fd5b6000600282049050600182168061228a57607f821691505b60208210810361229d5761229c612243565b5b50919050565b7f4e487b7100000000000000000000000000000000000000000000000000000000600052601160045260246000fd5b60006122dd82611fe3565b91506122e883611fe3565b9250828201905080821115612300576122ff6122a3565b5b92915050565b7f56657374696e6720706572696f64206973206e6f74206f766572000000000000600082015250565b600061233c601a83611ed9565b915061234782612306565b602082019050919050565b6000602082019050818103600083015261236b8161232f565b9050919050565b600061237d82611fe3565b915061238883611fe3565b925082820261239681611fe3565b915082820484148315176123ad576123ac6122a3565b5b5092915050565b600081905092915050565b50565b60006123cf6000836123b4565b91506123da826123bf565b600082019050919050565b60006123f0826123c2565b9150819050919050565b7f4661696c656420746f2073656e64204574686572000000000000000000000000600082015250565b6000612430601483611ed9565b915061243b826123fa565b602082019050919050565b6000602082019050818103600083015261245f81612423565b9050919050565b600060408201905061247b600083018561219d565b612488602083018461208f565b9392505050565b7f45524332303a2064656372656173656420616c6c6f77616e63652062656c6f7760008201527f207a65726f000000000000000000000000000000000000000000000000000000602082015250565b60006124eb602583611ed9565b91506124f68261248f565b604082019050919050565b6000602082019050818103600083015261251a816124de565b9050919050565b7f4e487b7100000000000000000000000000000000000000000000000000000000600052601260045260246000fd5b600061255b82611fe3565b915061256683611fe3565b92508261257657612575612521565b5b828204905092915050565b7f4f776e61626c653a206e6577206f776e657220697320746865207a65726f206160008201527f6464726573730000000000000000000000000000000000000000000000000000602082015250565b60006125dd602683611ed9565b91506125e882612581565b604082019050919050565b6000602082019050818103600083015261260c816125d0565b9050919050565b7f45524332303a20617070726f76652066726f6d20746865207a65726f2061646460008201527f7265737300000000000000000000000000000000000000000000000000000000602082015250565b600061266f602483611ed9565b915061267a82612613565b604082019050919050565b6000602082019050818103600083015261269e81612662565b9050919050565b7f45524332303a20617070726f766520746f20746865207a65726f20616464726560008201527f7373000000000000000000000000000000000000000000000000000000000000602082015250565b6000612701602283611ed9565b915061270c826126a5565b604082019050919050565b60006020820190508181036000830152612730816126f4565b9050919050565b7f45524332303a20696e73756666696369656e7420616c6c6f77616e6365000000600082015250565b600061276d601d83611ed9565b915061277882612737565b602082019050919050565b6000602082019050818103600083015261279c81612760565b9050919050565b7f45524332303a207472616e736665722066726f6d20746865207a65726f20616460008201527f6472657373000000000000000000000000000000000000000000000000000000602082015250565b60006127ff602583611ed9565b915061280a826127a3565b604082019050919050565b6000602082019050818103600083015261282e816127f2565b9050919050565b7f45524332303a207472616e7366657220746f20746865207a65726f206164647260008201527f6573730000000000000000000000000000000000000000000000000000000000602082015250565b6000612891602383611ed9565b915061289c82612835565b604082019050919050565b600060208201905081810360008301526128c081612884565b9050919050565b7f45524332303a207472616e7366657220616d6f756e742065786365656473206260008201527f616c616e63650000000000000000000000000000000000000000000000000000602082015250565b6000612923602683611ed9565b915061292e826128c7565b604082019050919050565b6000602082019050818103600083015261295281612916565b9050919050565b7f5265656e7472616e637947756172643a207265656e7472616e742063616c6c00600082015250565b600061298f601f83611ed9565b915061299a82612959565b602082019050919050565b600060208201905081810360008301526129be81612982565b9050919050565b7f4f776e61626c653a2063616c6c6572206973206e6f7420746865206f776e6572600082015250565b60006129fb602083611ed9565b9150612a06826129c5565b602082019050919050565b60006020820190508181036000830152612a2a816129ee565b9050919050565b7f496e76616c696420616d6f756e74206f66206574686572000000000000000000600082015250565b6000612a67601783611ed9565b9150612a7282612a31565b602082019050919050565b60006020820190508181036000830152612a9681612a5a565b9050919050565b6000612aa882611fe3565b9150612ab383611fe3565b9250828203905081811115612acb57612aca6122a3565b5b92915050565b7f416d6f756e7420657863656564696e6720617661696c61626c6520737570706c60008201527f7900000000000000000000000000000000000000000000000000000000000000602082015250565b6000612b2d602183611ed9565b9150612b3882612ad1565b604082019050919050565b60006020820190508181036000830152612b5c81612b20565b9050919050565b7f45524332303a206d696e7420746f20746865207a65726f206164647265737300600082015250565b6000612b99601f83611ed9565b9150612ba482612b63565b602082019050919050565b60006020820190508181036000830152612bc881612b8c565b905091905056fea26469706673582212202fdff77da7984bc6f47cb2b3bd30445dd4fc4055b999ce8f930eaa9233d86dd164736f6c63430008150033",
  "linkReferences": {},
  "deployedLinkReferences": {}
}