{
  "_format": "hh-sol-artifact-1",
  "contractName": "WWW3Shares",
  "sourceName": "contracts/WWW3Shares.sol",
  "abi": [
    {
      "inputs": [
        {
          "internalType": "string",
          "name": "_name",
          "type": "string"
        },
        {
          "internalType": "string",
          "name": "_symbol",
          "type": "string"
        },
        {
          "internalType": "uint256",
          "name": "_maxAmountOfShares",
          "type": "uint256"
        },
        {
          "internalType": "uint256",
          "name": "_sharePrice",
          "type": "uint256"
        },
        {
          "internalType": "uint256",
          "name": "_privateSellAmount",
          "type": "uint256"
        },
        {
          "internalType": "uint256",
          "name": "_vestingPeriod",
          "type": "uint256"
        }
      ],
      "stateMutability": "nonpayable",
      "type": "constructor"
    },
    {
      "anonymous": false,
      "inputs": [
        {
          "indexed": true,
          "internalType": "address",
          "name": "owner",
          "type": "address"
        },
        {
          "indexed": true,
          "internalType": "address",
          "name": "spender",
          "type": "address"
        },
        {
          "indexed": false,
          "internalType": "uint256",
          "name": "value",
          "type": "uint256"
        }
      ],
      "name": "Approval",
      "type": "event"
    },
    {
      "anonymous": false,
      "inputs": [
        {
          "indexed": true,
          "internalType": "address",
          "name": "previousOwner",
          "type": "address"
        },
        {
          "indexed": true,
          "internalType": "address",
          "name": "newOwner",
          "type": "address"
        }
      ],
      "name": "OwnershipTransferred",
      "type": "event"
    },
    {
      "anonymous": false,
      "inputs": [
        {
          "indexed": false,
          "internalType": "address",
          "name": "to",
          "type": "address"
        },
        {
          "indexed": false,
          "internalType": "uint256",
          "name": "amount",
          "type": "uint256"
        }
      ],
      "name": "ShareMinted",
      "type": "event"
    },
    {
      "anonymous": false,
      "inputs": [
        {
          "indexed": false,
          "internalType": "address",
          "name": "to",
          "type": "address"
        },
        {
          "indexed": false,
          "internalType": "uint256",
          "name": "amount",
          "type": "uint256"
        }
      ],
      "name": "ShareSold",
      "type": "event"
    },
    {
      "anonymous": false,
      "inputs": [
        {
          "indexed": true,
          "internalType": "address",
          "name": "from",
          "type": "address"
        },
        {
          "indexed": true,
          "internalType": "address",
          "name": "to",
          "type": "address"
        },
        {
          "indexed": false,
          "internalType": "uint256",
          "name": "value",
          "type": "uint256"
        }
      ],
      "name": "Transfer",
      "type": "event"
    },
    {
      "inputs": [
        {
          "internalType": "address",
          "name": "owner",
          "type": "address"
        },
        {
          "internalType": "address",
          "name": "spender",
          "type": "address"
        }
      ],
      "name": "allowance",
      "outputs": [
        {
          "internalType": "uint256",
          "name": "",
          "type": "uint256"
        }
      ],
      "stateMutability": "view",
      "type": "function"
    },
    {
      "inputs": [
        {
          "internalType": "address",
          "name": "spender",
          "type": "address"
        },
        {
          "internalType": "uint256",
          "name": "amount",
          "type": "uint256"
        }
      ],
      "name": "approve",
      "outputs": [
        {
          "internalType": "bool",
          "name": "",
          "type": "bool"
        }
      ],
      "stateMutability": "nonpayable",
      "type": "function"
    },
    {
      "inputs": [],
      "name": "availableShares",
      "outputs": [
        {
          "internalType": "uint256",
          "name": "",
          "type": "uint256"
        },
        {
          "internalType": "uint256",
          "name": "",
          "type": "uint256"
        }
      ],
      "stateMutability": "view",
      "type": "function"
    },
    {
      "inputs": [
        {
          "internalType": "address",
          "name": "account",
          "type": "address"
        }
      ],
      "name": "balanceOf",
      "outputs": [
        {
          "internalType": "uint256",
          "name": "",
          "type": "uint256"
        }
      ],
      "stateMutability": "view",
      "type": "function"
    },
    {
      "inputs": [
        {
          "internalType": "uint256",
          "name": "amount",
          "type": "uint256"
        }
      ],
      "name": "buyShares",
      "outputs": [],
      "stateMutability": "payable",
      "type": "function"
    },
    {
      "inputs": [],
      "name": "currentShareValue",
      "outputs": [
        {
          "internalType": "uint256",
          "name": "",
          "type": "uint256"
        }
      ],
      "stateMutability": "view",
      "type": "function"
    },
    {
      "inputs": [],
      "name": "decimals",
      "outputs": [
        {
          "internalType": "uint8",
          "name": "",
          "type": "uint8"
        }
      ],
      "stateMutability": "view",
      "type": "function"
    },
    {
      "inputs": [
        {
          "internalType": "address",
          "name": "spender",
          "type": "address"
        },
        {
          "internalType": "uint256",
          "name": "subtractedValue",
          "type": "uint256"
        }
      ],
      "name": "decreaseAllowance",
      "outputs": [
        {
          "internalType": "bool",
          "name": "",
          "type": "bool"
        }
      ],
      "stateMutability": "nonpayable",
      "type": "function"
    },
    {
      "inputs": [],
      "name": "developer",
      "outputs": [
        {
          "internalType": "address payable",
          "name": "",
          "type": "address"
        }
      ],
      "stateMutability": "view",
      "type": "function"
    },
    {
      "inputs": [
        {
          "internalType": "address",
          "name": "spender",
          "type": "address"
        },
        {
          "internalType": "uint256",
          "name": "addedValue",
          "type": "uint256"
        }
      ],
      "name": "increaseAllowance",
      "outputs": [
        {
          "internalType": "bool",
          "name": "",
          "type": "bool"
        }
      ],
      "stateMutability": "nonpayable",
      "type": "function"
    },
    {
      "inputs": [],
      "name": "initialSharePrice",
      "outputs": [
        {
          "internalType": "uint256",
          "name": "",
          "type": "uint256"
        }
      ],
      "stateMutability": "view",
      "type": "function"
    },
    {
      "inputs": [],
      "name": "maxAmountOfShares",
      "outputs": [
        {
          "internalType": "uint256",
          "name": "",
          "type": "uint256"
        }
      ],
      "stateMutability": "view",
      "type": "function"
    },
    {
      "inputs": [],
      "name": "name",
      "outputs": [
        {
          "internalType": "string",
          "name": "",
          "type": "string"
        }
      ],
      "stateMutability": "view",
      "type": "function"
    },
    {
      "inputs": [],
      "name": "owner",
      "outputs": [
        {
          "internalType": "address",
          "name": "",
          "type": "address"
        }
      ],
      "stateMutability": "view",
      "type": "function"
    },
    {
      "inputs": [],
      "name": "renounceOwnership",
      "outputs": [],
      "stateMutability": "nonpayable",
      "type": "function"
    },
    {
      "inputs": [
        {
          "internalType": "uint256",
          "name": "amount",
          "type": "uint256"
        }
      ],
      "name": "sellShares",
      "outputs": [],
      "stateMutability": "nonpayable",
      "type": "function"
    },
    {
      "inputs": [],
      "name": "symbol",
      "outputs": [
        {
          "internalType": "string",
          "name": "",
          "type": "string"
        }
      ],
      "stateMutability": "view",
      "type": "function"
    },
    {
      "inputs": [],
      "name": "totalSupply",
      "outputs": [
        {
          "internalType": "uint256",
          "name": "",
          "type": "uint256"
        }
      ],
      "stateMutability": "view",
      "type": "function"
    },
    {
      "inputs": [
        {
          "internalType": "address",
          "name": "to",
          "type": "address"
        },
        {
          "internalType": "uint256",
          "name": "amount",
          "type": "uint256"
        }
      ],
      "name": "transfer",
      "outputs": [
        {
          "internalType": "bool",
          "name": "",
          "type": "bool"
        }
      ],
      "stateMutability": "nonpayable",
      "type": "function"
    },
    {
      "inputs": [
        {
          "internalType": "address",
          "name": "from",
          "type": "address"
        },
        {
          "internalType": "address",
          "name": "to",
          "type": "address"
        },
        {
          "internalType": "uint256",
          "name": "amount",
          "type": "uint256"
        }
      ],
      "name": "transferFrom",
      "outputs": [
        {
          "internalType": "bool",
          "name": "",
          "type": "bool"
        }
      ],
      "stateMutability": "nonpayable",
      "type": "function"
    },
    {
      "inputs": [
        {
          "internalType": "address",
          "name": "newOwner",
          "type": "address"
        }
      ],
      "name": "transferOwnership",
      "outputs": [],
      "stateMutability": "nonpayable",
      "type": "function"
    },
    {
      "inputs": [],
      "name": "vestingPeriodEnd",
      "outputs": [
        {
          "internalType": "uint256",
          "name": "",
          "type": "uint256"
        }
      ],
      "stateMutability": "view",
      "type": "function"
    },
    {
      "stateMutability": "payable",
      "type": "receive"
    }
  ],
  "bytecode": "0x60806040523480156200001157600080fd5b5060405162003c4d38038062003c4d8339818101604052810190620000379190620005fe565b8585620000596200004d620001e960201b60201c565b620001f160201b60201c565b60018081905550816005908162000071919062000919565b50806006908162000083919062000919565b505050620000a267305cbd99d95d9a8a60c01b620002b560201b60201c565b620000be6761bf6a940fadac9f60c01b620002b560201b60201c565b620000ce620001e960201b60201c565b600760006101000a81548173ffffffffffffffffffffffffffffffffffffffff021916908373ffffffffffffffffffffffffffffffffffffffff1602179055506200012a670c869c874f49d02460c01b620002b560201b60201c565b836008819055506200014d67331ac3766a7d2c0560c01b620002b560201b60201c565b8260098190555062000170675827f929ec936c0860c01b620002b560201b60201c565b6200018c6758718af39d3fefa660c01b620002b560201b60201c565b620001ad620001a0620001e960201b60201c565b83620002b860201b60201c565b620001c967496cc97e67c9625860c01b620002b560201b60201c565b8043620001d7919062000a2f565b600a8190555050505050505062000b1b565b600033905090565b60008060009054906101000a900473ffffffffffffffffffffffffffffffffffffffff169050816000806101000a81548173ffffffffffffffffffffffffffffffffffffffff021916908373ffffffffffffffffffffffffffffffffffffffff1602179055508173ffffffffffffffffffffffffffffffffffffffff168173ffffffffffffffffffffffffffffffffffffffff167f8be0079c531659141344cd1fd0a4f28419497f9722a3daafe3b4186f6b6457e060405160405180910390a35050565b50565b600073ffffffffffffffffffffffffffffffffffffffff168273ffffffffffffffffffffffffffffffffffffffff16036200032a576040517f08c379a0000000000000000000000000000000000000000000000000000000008152600401620003219062000acb565b60405180910390fd5b6200033e600083836200042660201b60201c565b806004600082825462000352919062000a2f565b9250508190555080600260008473ffffffffffffffffffffffffffffffffffffffff1673ffffffffffffffffffffffffffffffffffffffff168152602001908152602001600020600082825401925050819055508173ffffffffffffffffffffffffffffffffffffffff16600073ffffffffffffffffffffffffffffffffffffffff167fddf252ad1be2c89b69c2b068fc378daa952ba7f163c4a11628f55a4df523b3ef8360405162000406919062000afe565b60405180910390a362000422600083836200042b60201b60201c565b5050565b505050565b505050565b6000604051905090565b600080fd5b600080fd5b600080fd5b600080fd5b6000601f19601f8301169050919050565b7f4e487b7100000000000000000000000000000000000000000000000000000000600052604160045260246000fd5b62000499826200044e565b810181811067ffffffffffffffff82111715620004bb57620004ba6200045f565b5b80604052505050565b6000620004d062000430565b9050620004de82826200048e565b919050565b600067ffffffffffffffff8211156200050157620005006200045f565b5b6200050c826200044e565b9050602081019050919050565b60005b83811015620005395780820151818401526020810190506200051c565b60008484015250505050565b60006200055c6200055684620004e3565b620004c4565b9050828152602081018484840111156200057b576200057a62000449565b5b6200058884828562000519565b509392505050565b600082601f830112620005a857620005a762000444565b5b8151620005ba84826020860162000545565b91505092915050565b6000819050919050565b620005d881620005c3565b8114620005e457600080fd5b50565b600081519050620005f881620005cd565b92915050565b60008060008060008060c087890312156200061e576200061d6200043a565b5b600087015167ffffffffffffffff8111156200063f576200063e6200043f565b5b6200064d89828a0162000590565b965050602087015167ffffffffffffffff8111156200067157620006706200043f565b5b6200067f89828a0162000590565b95505060406200069289828a01620005e7565b9450506060620006a589828a01620005e7565b9350506080620006b889828a01620005e7565b92505060a0620006cb89828a01620005e7565b9150509295509295509295565b600081519050919050565b7f4e487b7100000000000000000000000000000000000000000000000000000000600052602260045260246000fd5b600060028204905060018216806200072b57607f821691505b602082108103620007415762000740620006e3565b5b50919050565b60008190508160005260206000209050919050565b60006020601f8301049050919050565b600082821b905092915050565b600060088302620007ab7fffffffffffffffffffffffffffffffffffffffffffffffffffffffffffffffff826200076c565b620007b786836200076c565b95508019841693508086168417925050509392505050565b6000819050919050565b6000620007fa620007f4620007ee84620005c3565b620007cf565b620005c3565b9050919050565b6000819050919050565b6200081683620007d9565b6200082e620008258262000801565b84845462000779565b825550505050565b600090565b6200084562000836565b620008528184846200080b565b505050565b5b818110156200087a576200086e6000826200083b565b60018101905062000858565b5050565b601f821115620008c957620008938162000747565b6200089e846200075c565b81016020851015620008ae578190505b620008c6620008bd856200075c565b83018262000857565b50505b505050565b600082821c905092915050565b6000620008ee60001984600802620008ce565b1980831691505092915050565b6000620009098383620008db565b9150826002028217905092915050565b6200092482620006d8565b67ffffffffffffffff81111562000940576200093f6200045f565b5b6200094c825462000712565b620009598282856200087e565b600060209050601f8311600181146200099157600084156200097c578287015190505b620009888582620008fb565b865550620009f8565b601f198416620009a18662000747565b60005b82811015620009cb57848901518255600182019150602085019450602081019050620009a4565b86831015620009eb5784890151620009e7601f891682620008db565b8355505b6001600288020188555050505b505050505050565b7f4e487b7100000000000000000000000000000000000000000000000000000000600052601160045260246000fd5b600062000a3c82620005c3565b915062000a4983620005c3565b925082820190508082111562000a645762000a6362000a00565b5b92915050565b600082825260208201905092915050565b7f45524332303a206d696e7420746f20746865207a65726f206164647265737300600082015250565b600062000ab3601f8362000a6a565b915062000ac08262000a7b565b602082019050919050565b6000602082019050818103600083015262000ae68162000aa4565b9050919050565b62000af881620005c3565b82525050565b600060208201905062000b15600083018462000aed565b92915050565b6131228062000b2b6000396000f3fe6080604052600436106101395760003560e01c806395d89b41116100ab578063aadc68a51161006f578063aadc68a51461044c578063ca4b208b14610477578063d1a93d18146104a2578063dd62ed3e146104be578063defbbb68146104fb578063f2fde38b1461052657610140565b806395d89b41146103505780639e462fc71461037b578063a173f79e146103a6578063a457c2d7146103d2578063a9059cbb1461040f57610140565b806339509351116100fd57806339509351146102405780634ba8ae811461027d5780635f3e364a146102a657806370a08231146102d1578063715018a61461030e5780638da5cb5b1461032557610140565b806306fdde0314610145578063095ea7b31461017057806318160ddd146101ad57806323b872dd146101d8578063313ce5671461021557610140565b3661014057005b600080fd5b34801561015157600080fd5b5061015a61054f565b60405161016791906123b7565b60405180910390f35b34801561017c57600080fd5b5061019760048036038101906101929190612472565b6105e1565b6040516101a491906124cd565b60405180910390f35b3480156101b957600080fd5b506101c2610604565b6040516101cf91906124f7565b60405180910390f35b3480156101e457600080fd5b506101ff60048036038101906101fa9190612512565b61060e565b60405161020c91906124cd565b60405180910390f35b34801561022157600080fd5b5061022a61063d565b6040516102379190612581565b60405180910390f35b34801561024c57600080fd5b5061026760048036038101906102629190612472565b610646565b60405161027491906124cd565b60405180910390f35b34801561028957600080fd5b506102a4600480360381019061029f919061259c565b61067d565b005b3480156102b257600080fd5b506102bb610b79565b6040516102c891906124f7565b60405180910390f35b3480156102dd57600080fd5b506102f860048036038101906102f391906125c9565b610b7f565b60405161030591906124f7565b60405180910390f35b34801561031a57600080fd5b50610323610bc8565b005b34801561033157600080fd5b5061033a610bdc565b6040516103479190612605565b60405180910390f35b34801561035c57600080fd5b50610365610c05565b60405161037291906123b7565b60405180910390f35b34801561038757600080fd5b50610390610c97565b60405161039d91906124f7565b60405180910390f35b3480156103b257600080fd5b506103bb610c9d565b6040516103c9929190612620565b60405180910390f35b3480156103de57600080fd5b506103f960048036038101906103f49190612472565b610d69565b60405161040691906124cd565b60405180910390f35b34801561041b57600080fd5b5061043660048036038101906104319190612472565b610de0565b60405161044391906124cd565b60405180910390f35b34801561045857600080fd5b50610461610e03565b60405161046e91906124f7565b60405180910390f35b34801561048357600080fd5b5061048c61105b565b604051610499919061266a565b60405180910390f35b6104bc60048036038101906104b7919061259c565b611081565b005b3480156104ca57600080fd5b506104e560048036038101906104e09190612685565b6111c1565b6040516104f291906124f7565b60405180910390f35b34801561050757600080fd5b50610510611248565b60405161051d91906124f7565b60405180910390f35b34801561053257600080fd5b5061054d600480360381019061054891906125c9565b61124e565b005b60606005805461055e906126f4565b80601f016020809104026020016040519081016040528092919081815260200182805461058a906126f4565b80156105d75780601f106105ac576101008083540402835291602001916105d7565b820191906000526020600020905b8154815290600101906020018083116105ba57829003601f168201915b5050505050905090565b6000806105ec6112d1565b90506105f98185856112d9565b600191505092915050565b6000600454905090565b6000806106196112d1565b90506106268582856114a2565b61063185858561152e565b60019150509392505050565b60006012905090565b6000806106516112d1565b905061067281858561066385896111c1565b61066d9190612754565b6112d9565b600191505092915050565b610691678836db85c300c35e60c01b6117a7565b6106996117aa565b6106ad679047406dfb56c99560c01b6117a7565b6106c1679ff9b7d2939de6d760c01b6117a7565b6106d56705929440d9527eb060c01b6117a7565b6106e967a342d519069ef7cf60c01b6117a7565b6106fd675d5dea60b4f903d660c01b6117a7565b600a54431015610742576040517f08c379a0000000000000000000000000000000000000000000000000000000008152600401610739906127d4565b60405180910390fd5b6107566720d685592363554c60c01b6117a7565b61076a67e744d07dd6599adf60c01b6117a7565b61077e67b51e7b68fb31d17f60c01b6117a7565b61079267c9a0aaf68268d4d660c01b6117a7565b670de0b6b3a76400008110156107dd576040517f08c379a00000000000000000000000000000000000000000000000000000000081526004016107d490612840565b60405180910390fd5b6107f1679cec51f03d4a1cbe60c01b6117a7565b6108056753bf09370d5bf72d60c01b6117a7565b610819672edeac71af4f9fb060c01b6117a7565b61082b61082633306111c1565b6117f9565b61083f678971eb0f8bef6e1c60c01b6117a7565b6108536762108bf105b6589260c01b6117a7565b61085c33611892565b61087067ef12509652f7f3a960c01b6117a7565b61088366e2479d186948b860c01b6117a7565b61089561088e6112d1565b308361060e565b506108aa675c571b7dcab4e7e760c01b6117a7565b6108be677f5560c4df39bb4260c01b6117a7565b6108c6610604565b471015610910576108e1673eeb2f5e72f1a46960c01b6117a7565b6108f567528c7727564ab4ad60c01b6117a7565b670de0b6b3a764000081610909919061288f565b9050610925565b610924674c33e4844b40ec1d60c01b6117a7565b5b6109396783d75778b22dd59860c01b6117a7565b61094d67bbed833745b2299c60c01b6117a7565b600081610958610e03565b61096291906128c0565b9050610978673c77eadc0151470b60c01b6117a7565b61098c675d4d28da4c0f53e960c01b6117a7565b804710156109c4576109a86792c0be6199ddd77160c01b6117a7565b6109bc67e92c7ab18ba129d660c01b6117a7565b4790506109d9565b6109d867a85c5bb17d8bbd7360c01b6117a7565b5b6109ed67a8de51a081cec07160c01b6117a7565b610a0167bba4d1c9f776518d60c01b6117a7565b6000610a0b6112d1565b73ffffffffffffffffffffffffffffffffffffffff1682604051610a2e90612933565b60006040518083038185875af1925050503d8060008114610a6b576040519150601f19603f3d011682016040523d82523d6000602084013e610a70565b606091505b50509050610a886774d6aec01a1ea41660c01b6117a7565b610a9c670dc4e63bfcae7f8560c01b6117a7565b610ab067d1f5472c949d0c5260c01b6117a7565b80610af0576040517f08c379a0000000000000000000000000000000000000000000000000000000008152600401610ae790612994565b60405180910390fd5b610b046728be8af9fab6a96860c01b6117a7565b610b1867dcf2756bc266f9bc60c01b6117a7565b610b2c67bb327495ab13070c60c01b6117a7565b7fe8bb4edfb49cb224db3d7d51f707c053865322c038a54cfcfd81969d0eb1f013610b556112d1565b84604051610b649291906129b4565b60405180910390a15050610b7661192b565b50565b60095481565b6000600260008373ffffffffffffffffffffffffffffffffffffffff1673ffffffffffffffffffffffffffffffffffffffff168152602001908152602001600020549050919050565b610bd0611934565b610bda60006119b2565b565b60008060009054906101000a900473ffffffffffffffffffffffffffffffffffffffff16905090565b606060068054610c14906126f4565b80601f0160208091040260200160405190810160405280929190818152602001828054610c40906126f4565b8015610c8d5780601f10610c6257610100808354040283529160200191610c8d565b820191906000526020600020905b815481529060010190602001808311610c7057829003601f168201915b5050505050905090565b600a5481565b600080610cb467b32001c2f4feeadb60c01b6117a7565b610cc867299519891cde23e660c01b6117a7565b610cdc67238172cb93166f8360c01b6117a7565b6000610ce730610b7f565b9050610cfd67c0ea11aa7681df9f60c01b6117a7565b610d11671c55572f3b8b19c660c01b6117a7565b6000610d1b610604565b600854610d2891906129dd565b82610d339190612754565b9050610d4967a09bcc952333a91560c01b6117a7565b610d5d676a00b962365e82ee60c01b6117a7565b81819350935050509091565b600080610d746112d1565b90506000610d8282866111c1565b905083811015610dc7576040517f08c379a0000000000000000000000000000000000000000000000000000000008152600401610dbe90612a83565b60405180910390fd5b610dd482868684036112d9565b60019250505092915050565b600080610deb6112d1565b9050610df881858561152e565b600191505092915050565b6000610e19672a2e03f3872b911260c01b6117a7565b610e2d670fb5622567e66dc560c01b6117a7565b610e41675e38604e3581330a60c01b6117a7565b6000610e4b610604565b9050610e616768c22f3a082bb0ee60c01b6117a7565b610e7567b92c68d5d6fd2f6960c01b6117a7565b6000479050610e8e67ba74d0c0ed953dd360c01b6117a7565b610ea267b8ed62db0a8fdcf360c01b6117a7565b600082148015610ec25750610ec167ab7796e12ba36b6f60c01b611a76565b5b80610ee95750600081148015610ee85750610ee767e65eb23ac1ff0c5360c01b611a76565b5b5b15610f3557610f026727f0c926cf482f6a60c01b6117a7565b610f1667b0fa2dc9662b4b1860c01b6117a7565b610f2a676bc94b4dca9b475460c01b6117a7565b600092505050611058565b610f496739fdf7a74eda647d60c01b6117a7565b610f5d6767db2aa4eda8f74060c01b6117a7565b610f716794fce0147ed0a7c660c01b6117a7565b8181101561100b57610f8d67fe2055f61204feae60c01b6117a7565b610fa1672f80d264d5566f0d60c01b6117a7565b610fb5676d50f93635eeb30860c01b6117a7565b6000670de0b6b3a764000082610fcb91906128c0565b9050610fe167f2b7f4ec58ccc0ab60c01b6117a7565b610ff567b55aa28ad4977d7e60c01b6117a7565b8281611001919061288f565b9350505050611058565b61101f67816bc44ae019aff960c01b6117a7565b611033676533c43a5681a39760c01b6117a7565b611047677cb03c727201159b60c01b6117a7565b8181611053919061288f565b925050505b90565b600760009054906101000a900473ffffffffffffffffffffffffffffffffffffffff1681565b6110956767ac0d6a8f18ae6460c01b6117a7565b6110a96744e3ea462ccb0a2660c01b6117a7565b6110bd67151bcdd8fbef697560c01b6117a7565b600a544310611110576110da67f22ff349aeb4cd6960c01b6117a7565b6110ee671000132e6def72be60c01b6117a7565b611102677c628ab10a065cc560c01b6117a7565b61110b81611a81565b611156565b61112467212c9b20f287d06f60c01b6117a7565b6111386798bcbddf3b01a10f60c01b6117a7565b61114c670305007e6817bcb960c01b6117a7565b61115581611e86565b5b61116a6729faa371c5fd067c60c01b6117a7565b61117e67059b17298e8c008060c01b6117a7565b7f9e3aff002c0bfdb18b77adb1051b53eda74f919ee90e162c2626995e4db8f0556111a76112d1565b826040516111b69291906129b4565b60405180910390a150565b6000600360008473ffffffffffffffffffffffffffffffffffffffff1673ffffffffffffffffffffffffffffffffffffffff16815260200190815260200160002060008373ffffffffffffffffffffffffffffffffffffffff1673ffffffffffffffffffffffffffffffffffffffff16815260200190815260200160002054905092915050565b60085481565b611256611934565b600073ffffffffffffffffffffffffffffffffffffffff168173ffffffffffffffffffffffffffffffffffffffff16036112c5576040517f08c379a00000000000000000000000000000000000000000000000000000000081526004016112bc90612b15565b60405180910390fd5b6112ce816119b2565b50565b600033905090565b600073ffffffffffffffffffffffffffffffffffffffff168373ffffffffffffffffffffffffffffffffffffffff1603611348576040517f08c379a000000000000000000000000000000000000000000000000000000000815260040161133f90612ba7565b60405180910390fd5b600073ffffffffffffffffffffffffffffffffffffffff168273ffffffffffffffffffffffffffffffffffffffff16036113b7576040517f08c379a00000000000000000000000000000000000000000000000000000000081526004016113ae90612c39565b60405180910390fd5b80600360008573ffffffffffffffffffffffffffffffffffffffff1673ffffffffffffffffffffffffffffffffffffffff16815260200190815260200160002060008473ffffffffffffffffffffffffffffffffffffffff1673ffffffffffffffffffffffffffffffffffffffff168152602001908152602001600020819055508173ffffffffffffffffffffffffffffffffffffffff168373ffffffffffffffffffffffffffffffffffffffff167f8c5be1e5ebec7d5bd14f71427d1e84f3dd0314c0f7b2291e5b200ac8c7c3b9258360405161149591906124f7565b60405180910390a3505050565b60006114ae84846111c1565b90507fffffffffffffffffffffffffffffffffffffffffffffffffffffffffffffffff8114611528578181101561151a576040517f08c379a000000000000000000000000000000000000000000000000000000000815260040161151190612ca5565b60405180910390fd5b61152784848484036112d9565b5b50505050565b600073ffffffffffffffffffffffffffffffffffffffff168373ffffffffffffffffffffffffffffffffffffffff160361159d576040517f08c379a000000000000000000000000000000000000000000000000000000000815260040161159490612d37565b60405180910390fd5b600073ffffffffffffffffffffffffffffffffffffffff168273ffffffffffffffffffffffffffffffffffffffff160361160c576040517f08c379a000000000000000000000000000000000000000000000000000000000815260040161160390612dc9565b60405180910390fd5b611617838383612176565b6000600260008573ffffffffffffffffffffffffffffffffffffffff1673ffffffffffffffffffffffffffffffffffffffff1681526020019081526020016000205490508181101561169e576040517f08c379a000000000000000000000000000000000000000000000000000000000815260040161169590612e5b565b60405180910390fd5b818103600260008673ffffffffffffffffffffffffffffffffffffffff1673ffffffffffffffffffffffffffffffffffffffff1681526020019081526020016000208190555081600260008573ffffffffffffffffffffffffffffffffffffffff1673ffffffffffffffffffffffffffffffffffffffff168152602001908152602001600020600082825401925050819055508273ffffffffffffffffffffffffffffffffffffffff168473ffffffffffffffffffffffffffffffffffffffff167fddf252ad1be2c89b69c2b068fc378daa952ba7f163c4a11628f55a4df523b3ef8460405161178e91906124f7565b60405180910390a36117a184848461217b565b50505050565b50565b6002600154036117ef576040517f08c379a00000000000000000000000000000000000000000000000000000000081526004016117e690612ec7565b60405180910390fd5b6002600181905550565b61188f8160405160240161180d91906124f7565b6040516020818303038152906040527ff82c50f1000000000000000000000000000000000000000000000000000000007bffffffffffffffffffffffffffffffffffffffffffffffffffffffff19166020820180517bffffffffffffffffffffffffffffffffffffffffffffffffffffffff8381831617835250505050612180565b50565b611928816040516024016118a69190612605565b6040516020818303038152906040527f2c2ecbc2000000000000000000000000000000000000000000000000000000007bffffffffffffffffffffffffffffffffffffffffffffffffffffffff19166020820180517bffffffffffffffffffffffffffffffffffffffffffffffffffffffff8381831617835250505050612180565b50565b60018081905550565b61193c6112d1565b73ffffffffffffffffffffffffffffffffffffffff1661195a610bdc565b73ffffffffffffffffffffffffffffffffffffffff16146119b0576040517f08c379a00000000000000000000000000000000000000000000000000000000081526004016119a790612f33565b60405180910390fd5b565b60008060009054906101000a900473ffffffffffffffffffffffffffffffffffffffff169050816000806101000a81548173ffffffffffffffffffffffffffffffffffffffff021916908373ffffffffffffffffffffffffffffffffffffffff1602179055508173ffffffffffffffffffffffffffffffffffffffff168173ffffffffffffffffffffffffffffffffffffffff167f8be0079c531659141344cd1fd0a4f28419497f9722a3daafe3b4186f6b6457e060405160405180910390a35050565b600060019050919050565b611a95673179eb87f05b4d7f60c01b6117a7565b611aa967d6dcc0d6d63f72c760c01b6117a7565b611abd6789c38a5b4560bfa060c01b6117a7565b600080611ac8610c9d565b91509150611ae067f14b5631c6c39ddd60c01b6117a7565b611af467cca1b99000d8b15260c01b6117a7565b611b08673375e57089a54d1c60c01b6117a7565b670de0b6b3a7640000611b19610e03565b84611b2491906128c0565b611b2e919061288f565b3414611b6f576040517f08c379a0000000000000000000000000000000000000000000000000000000008152600401611b6690612f9f565b60405180910390fd5b611b8367baf62f32acdb530f60c01b6117a7565b611b9767dfb137de06264add60c01b6117a7565b611bab67c58498a6be813fa160c01b6117a7565b611bbf67bc1a128d4e4006e560c01b6117a7565b80831115611c02576040517f08c379a0000000000000000000000000000000000000000000000000000000008152600401611bf990613031565b60405180910390fd5b611c1667b84f097f01eee54a60c01b6117a7565b611c2a670bc5cb0a59f947d860c01b6117a7565b611c3e673e64119099c4287f60c01b6117a7565b611c5267c52a9c0c14a7b27f60c01b6117a7565b82611c5b610e03565b611c6591906128c0565b3414611ca6576040517f08c379a0000000000000000000000000000000000000000000000000000000008152600401611c9d90612f9f565b60405180910390fd5b611cba6713240460d64263fb60c01b6117a7565b611cce673d45e25c76e3bbb460c01b6117a7565b611ce26701adfbfe7ad622c560c01b6117a7565b818311611d3c57611cfd67d5a59ec5ef598e8060c01b6117a7565b611d11673ad5e7e9c1efc71f60c01b6117a7565b611d2567ffc5b77766a3076060c01b6117a7565b611d36611d306112d1565b84610de0565b50611e81565b611d506713eff80d52d5f5e660c01b6117a7565b611d64677ea7e83ec04b259d60c01b6117a7565b6000821115611e3257611d8167b50cd882e83452f760c01b6117a7565b611d95670a69209894108d5960c01b6117a7565b611da9678db482855aab96d860c01b6117a7565b60008284611db791906129dd565b9050611dcd67c50862bf1477d9b160c01b6117a7565b611de167a016246c14a47b1460c01b6117a7565b611df2611dec6112d1565b84610de0565b50611e0767e64a3465f86dce1460c01b6117a7565b611e1b6767ab71b14238597660c01b6117a7565b611e2c611e266112d1565b8261219a565b50611e80565b611e4667621c0fc93300a42a60c01b6117a7565b611e5a67461458e1f1fc101060c01b6117a7565b611e6e67385b300314bf247660c01b6117a7565b611e7f611e796112d1565b8461219a565b5b5b505050565b611e9a6710d8c5023f9e22c060c01b6117a7565b611eae67490ed1bce22a087960c01b6117a7565b611ec2672e61e39d64c922c060c01b6117a7565b611ed667d5588e96a2e9f1d960c01b6117a7565b670de0b6b3a764000060095482611eed91906128c0565b611ef7919061288f565b3414611f38576040517f08c379a0000000000000000000000000000000000000000000000000000000008152600401611f2f90612f9f565b60405180910390fd5b611f4c679943fdfe633fb70a60c01b6117a7565b611f6067770114521bd772cb60c01b6117a7565b611f7467ae1e21ffbe35006660c01b6117a7565b611f88676c369c20d65560c060c01b6117a7565b600854611f93610604565b82611f9e9190612754565b1115611fdf576040517f08c379a0000000000000000000000000000000000000000000000000000000008152600401611fd690613031565b60405180910390fd5b611ff367469054858bef16d260c01b6117a7565b61200767eb69a4a60ee3fdc360c01b6117a7565b61201b676e9ecb9466f19e4e60c01b6117a7565b61202c6120266112d1565b8261219a565b612040677f47689d10738c3060c01b6117a7565b61205467e8cc9fef2cb814a460c01b6117a7565b6000600760009054906101000a900473ffffffffffffffffffffffffffffffffffffffff1673ffffffffffffffffffffffffffffffffffffffff163460405161209c90612933565b60006040518083038185875af1925050503d80600081146120d9576040519150601f19603f3d011682016040523d82523d6000602084013e6120de565b606091505b505090506120f6671e4ae562f503eecd60c01b6117a7565b61210a67c6b4bfb2ba80e53260c01b6117a7565b61211e6780874b8ec05bcfa060c01b6117a7565b8061215e576040517f08c379a000000000000000000000000000000000000000000000000000000000815260040161215590612994565b60405180910390fd5b612172679006095667a27f3e60c01b6117a7565b5050565b505050565b505050565b6121978161218f6122f1612312565b63ffffffff16565b50565b600073ffffffffffffffffffffffffffffffffffffffff168273ffffffffffffffffffffffffffffffffffffffff1603612209576040517f08c379a00000000000000000000000000000000000000000000000000000000081526004016122009061309d565b60405180910390fd5b61221560008383612176565b80600460008282546122279190612754565b9250508190555080600260008473ffffffffffffffffffffffffffffffffffffffff1673ffffffffffffffffffffffffffffffffffffffff168152602001908152602001600020600082825401925050819055508173ffffffffffffffffffffffffffffffffffffffff16600073ffffffffffffffffffffffffffffffffffffffff167fddf252ad1be2c89b69c2b068fc378daa952ba7f163c4a11628f55a4df523b3ef836040516122d991906124f7565b60405180910390a36122ed6000838361217b565b5050565b60006a636f6e736f6c652e6c6f679050600080835160208501845afa505050565b61231d819050919050565b6123256130bd565b565b600081519050919050565b600082825260208201905092915050565b60005b83811015612361578082015181840152602081019050612346565b60008484015250505050565b6000601f19601f8301169050919050565b600061238982612327565b6123938185612332565b93506123a3818560208601612343565b6123ac8161236d565b840191505092915050565b600060208201905081810360008301526123d1818461237e565b905092915050565b600080fd5b600073ffffffffffffffffffffffffffffffffffffffff82169050919050565b6000612409826123de565b9050919050565b612419816123fe565b811461242457600080fd5b50565b60008135905061243681612410565b92915050565b6000819050919050565b61244f8161243c565b811461245a57600080fd5b50565b60008135905061246c81612446565b92915050565b60008060408385031215612489576124886123d9565b5b600061249785828601612427565b92505060206124a88582860161245d565b9150509250929050565b60008115159050919050565b6124c7816124b2565b82525050565b60006020820190506124e260008301846124be565b92915050565b6124f18161243c565b82525050565b600060208201905061250c60008301846124e8565b92915050565b60008060006060848603121561252b5761252a6123d9565b5b600061253986828701612427565b935050602061254a86828701612427565b925050604061255b8682870161245d565b9150509250925092565b600060ff82169050919050565b61257b81612565565b82525050565b60006020820190506125966000830184612572565b92915050565b6000602082840312156125b2576125b16123d9565b5b60006125c08482850161245d565b91505092915050565b6000602082840312156125df576125de6123d9565b5b60006125ed84828501612427565b91505092915050565b6125ff816123fe565b82525050565b600060208201905061261a60008301846125f6565b92915050565b600060408201905061263560008301856124e8565b61264260208301846124e8565b9392505050565b6000612654826123de565b9050919050565b61266481612649565b82525050565b600060208201905061267f600083018461265b565b92915050565b6000806040838503121561269c5761269b6123d9565b5b60006126aa85828601612427565b92505060206126bb85828601612427565b9150509250929050565b7f4e487b7100000000000000000000000000000000000000000000000000000000600052602260045260246000fd5b6000600282049050600182168061270c57607f821691505b60208210810361271f5761271e6126c5565b5b50919050565b7f4e487b7100000000000000000000000000000000000000000000000000000000600052601160045260246000fd5b600061275f8261243c565b915061276a8361243c565b925082820190508082111561278257612781612725565b5b92915050565b7f56657374696e6720706572696f64206973206e6f74206f766572000000000000600082015250565b60006127be601a83612332565b91506127c982612788565b602082019050919050565b600060208201905081810360008301526127ed816127b1565b9050919050565b7f416d6f756e74206d757374206265206174206c65617374203120736861726500600082015250565b600061282a601f83612332565b9150612835826127f4565b602082019050919050565b600060208201905081810360008301526128598161281d565b9050919050565b7f4e487b7100000000000000000000000000000000000000000000000000000000600052601260045260246000fd5b600061289a8261243c565b91506128a58361243c565b9250826128b5576128b4612860565b5b828204905092915050565b60006128cb8261243c565b91506128d68361243c565b92508282026128e48161243c565b915082820484148315176128fb576128fa612725565b5b5092915050565b600081905092915050565b50565b600061291d600083612902565b91506129288261290d565b600082019050919050565b600061293e82612910565b9150819050919050565b7f4661696c656420746f2073656e64204574686572000000000000000000000000600082015250565b600061297e601483612332565b915061298982612948565b602082019050919050565b600060208201905081810360008301526129ad81612971565b9050919050565b60006040820190506129c960008301856125f6565b6129d660208301846124e8565b9392505050565b60006129e88261243c565b91506129f38361243c565b9250828203905081811115612a0b57612a0a612725565b5b92915050565b7f45524332303a2064656372656173656420616c6c6f77616e63652062656c6f7760008201527f207a65726f000000000000000000000000000000000000000000000000000000602082015250565b6000612a6d602583612332565b9150612a7882612a11565b604082019050919050565b60006020820190508181036000830152612a9c81612a60565b9050919050565b7f4f776e61626c653a206e6577206f776e657220697320746865207a65726f206160008201527f6464726573730000000000000000000000000000000000000000000000000000602082015250565b6000612aff602683612332565b9150612b0a82612aa3565b604082019050919050565b60006020820190508181036000830152612b2e81612af2565b9050919050565b7f45524332303a20617070726f76652066726f6d20746865207a65726f2061646460008201527f7265737300000000000000000000000000000000000000000000000000000000602082015250565b6000612b91602483612332565b9150612b9c82612b35565b604082019050919050565b60006020820190508181036000830152612bc081612b84565b9050919050565b7f45524332303a20617070726f766520746f20746865207a65726f20616464726560008201527f7373000000000000000000000000000000000000000000000000000000000000602082015250565b6000612c23602283612332565b9150612c2e82612bc7565b604082019050919050565b60006020820190508181036000830152612c5281612c16565b9050919050565b7f45524332303a20696e73756666696369656e7420616c6c6f77616e6365000000600082015250565b6000612c8f601d83612332565b9150612c9a82612c59565b602082019050919050565b60006020820190508181036000830152612cbe81612c82565b9050919050565b7f45524332303a207472616e736665722066726f6d20746865207a65726f20616460008201527f6472657373000000000000000000000000000000000000000000000000000000602082015250565b6000612d21602583612332565b9150612d2c82612cc5565b604082019050919050565b60006020820190508181036000830152612d5081612d14565b9050919050565b7f45524332303a207472616e7366657220746f20746865207a65726f206164647260008201527f6573730000000000000000000000000000000000000000000000000000000000602082015250565b6000612db3602383612332565b9150612dbe82612d57565b604082019050919050565b60006020820190508181036000830152612de281612da6565b9050919050565b7f45524332303a207472616e7366657220616d6f756e742065786365656473206260008201527f616c616e63650000000000000000000000000000000000000000000000000000602082015250565b6000612e45602683612332565b9150612e5082612de9565b604082019050919050565b60006020820190508181036000830152612e7481612e38565b9050919050565b7f5265656e7472616e637947756172643a207265656e7472616e742063616c6c00600082015250565b6000612eb1601f83612332565b9150612ebc82612e7b565b602082019050919050565b60006020820190508181036000830152612ee081612ea4565b9050919050565b7f4f776e61626c653a2063616c6c6572206973206e6f7420746865206f776e6572600082015250565b6000612f1d602083612332565b9150612f2882612ee7565b602082019050919050565b60006020820190508181036000830152612f4c81612f10565b9050919050565b7f496e76616c696420616d6f756e74206f66206574686572000000000000000000600082015250565b6000612f89601783612332565b9150612f9482612f53565b602082019050919050565b60006020820190508181036000830152612fb881612f7c565b9050919050565b7f416d6f756e7420657863656564696e6720617661696c61626c6520737570706c60008201527f7900000000000000000000000000000000000000000000000000000000000000602082015250565b600061301b602183612332565b915061302682612fbf565b604082019050919050565b6000602082019050818103600083015261304a8161300e565b9050919050565b7f45524332303a206d696e7420746f20746865207a65726f206164647265737300600082015250565b6000613087601f83612332565b915061309282613051565b602082019050919050565b600060208201905081810360008301526130b68161307a565b9050919050565b7f4e487b7100000000000000000000000000000000000000000000000000000000600052605160045260246000fdfea2646970667358221220ed94a2c04f3805b25196cb3169222b3363f88a1e88d8a196321ffe8e765173f764736f6c63430008150033",
  "linkReferences": {},
  "deployedLinkReferences": {}
}