{
  "_format": "hh-sol-artifact-1",
  "contractName": "WWW3Shares",
  "sourceName": "contracts/WWW3Shares.sol",
  "abi": [
    {
      "inputs": [
        {
          "internalType": "string",
          "name": "_name",
          "type": "string"
        },
        {
          "internalType": "string",
          "name": "_symbol",
          "type": "string"
        },
        {
          "internalType": "uint256",
          "name": "_maxAmountOfShares",
          "type": "uint256"
        },
        {
          "internalType": "uint256",
          "name": "_sharePrice",
          "type": "uint256"
        },
        {
          "internalType": "uint256",
          "name": "_privateSellAmount",
          "type": "uint256"
        },
        {
          "internalType": "uint256",
          "name": "_vestingPeriod",
          "type": "uint256"
        },
        {
          "internalType": "address",
          "name": "_dev",
          "type": "address"
        }
      ],
      "stateMutability": "nonpayable",
      "type": "constructor"
    },
    {
      "anonymous": false,
      "inputs": [
        {
          "indexed": true,
          "internalType": "address",
          "name": "owner",
          "type": "address"
        },
        {
          "indexed": true,
          "internalType": "address",
          "name": "spender",
          "type": "address"
        },
        {
          "indexed": false,
          "internalType": "uint256",
          "name": "value",
          "type": "uint256"
        }
      ],
      "name": "Approval",
      "type": "event"
    },
    {
      "anonymous": false,
      "inputs": [
        {
          "indexed": true,
          "internalType": "address",
          "name": "previousOwner",
          "type": "address"
        },
        {
          "indexed": true,
          "internalType": "address",
          "name": "newOwner",
          "type": "address"
        }
      ],
      "name": "OwnershipTransferred",
      "type": "event"
    },
    {
      "anonymous": false,
      "inputs": [
        {
          "indexed": false,
          "internalType": "address",
          "name": "to",
          "type": "address"
        },
        {
          "indexed": false,
          "internalType": "uint256",
          "name": "amount",
          "type": "uint256"
        }
      ],
      "name": "ShareMinted",
      "type": "event"
    },
    {
      "anonymous": false,
      "inputs": [
        {
          "indexed": false,
          "internalType": "address",
          "name": "to",
          "type": "address"
        },
        {
          "indexed": false,
          "internalType": "uint256",
          "name": "amount",
          "type": "uint256"
        }
      ],
      "name": "ShareSold",
      "type": "event"
    },
    {
      "anonymous": false,
      "inputs": [
        {
          "indexed": true,
          "internalType": "address",
          "name": "from",
          "type": "address"
        },
        {
          "indexed": true,
          "internalType": "address",
          "name": "to",
          "type": "address"
        },
        {
          "indexed": false,
          "internalType": "uint256",
          "name": "value",
          "type": "uint256"
        }
      ],
      "name": "Transfer",
      "type": "event"
    },
    {
      "inputs": [
        {
          "internalType": "address",
          "name": "owner",
          "type": "address"
        },
        {
          "internalType": "address",
          "name": "spender",
          "type": "address"
        }
      ],
      "name": "allowance",
      "outputs": [
        {
          "internalType": "uint256",
          "name": "",
          "type": "uint256"
        }
      ],
      "stateMutability": "view",
      "type": "function"
    },
    {
      "inputs": [
        {
          "internalType": "address",
          "name": "spender",
          "type": "address"
        },
        {
          "internalType": "uint256",
          "name": "amount",
          "type": "uint256"
        }
      ],
      "name": "approve",
      "outputs": [
        {
          "internalType": "bool",
          "name": "",
          "type": "bool"
        }
      ],
      "stateMutability": "nonpayable",
      "type": "function"
    },
    {
      "inputs": [],
      "name": "availableShares",
      "outputs": [
        {
          "internalType": "uint256",
          "name": "",
          "type": "uint256"
        },
        {
          "internalType": "uint256",
          "name": "",
          "type": "uint256"
        }
      ],
      "stateMutability": "view",
      "type": "function"
    },
    {
      "inputs": [
        {
          "internalType": "address",
          "name": "account",
          "type": "address"
        }
      ],
      "name": "balanceOf",
      "outputs": [
        {
          "internalType": "uint256",
          "name": "",
          "type": "uint256"
        }
      ],
      "stateMutability": "view",
      "type": "function"
    },
    {
      "inputs": [
        {
          "internalType": "uint256",
          "name": "amount",
          "type": "uint256"
        }
      ],
      "name": "buyShares",
      "outputs": [],
      "stateMutability": "payable",
      "type": "function"
    },
    {
      "inputs": [
        {
          "internalType": "uint256",
          "name": "incomingEther",
          "type": "uint256"
        }
      ],
      "name": "currentShareValue",
      "outputs": [
        {
          "internalType": "uint256",
          "name": "",
          "type": "uint256"
        }
      ],
      "stateMutability": "view",
      "type": "function"
    },
    {
      "inputs": [],
      "name": "decimals",
      "outputs": [
        {
          "internalType": "uint8",
          "name": "",
          "type": "uint8"
        }
      ],
      "stateMutability": "view",
      "type": "function"
    },
    {
      "inputs": [
        {
          "internalType": "address",
          "name": "spender",
          "type": "address"
        },
        {
          "internalType": "uint256",
          "name": "subtractedValue",
          "type": "uint256"
        }
      ],
      "name": "decreaseAllowance",
      "outputs": [
        {
          "internalType": "bool",
          "name": "",
          "type": "bool"
        }
      ],
      "stateMutability": "nonpayable",
      "type": "function"
    },
    {
      "inputs": [],
      "name": "developer",
      "outputs": [
        {
          "internalType": "address payable",
          "name": "",
          "type": "address"
        }
      ],
      "stateMutability": "view",
      "type": "function"
    },
    {
      "inputs": [
        {
          "internalType": "address",
          "name": "spender",
          "type": "address"
        },
        {
          "internalType": "uint256",
          "name": "addedValue",
          "type": "uint256"
        }
      ],
      "name": "increaseAllowance",
      "outputs": [
        {
          "internalType": "bool",
          "name": "",
          "type": "bool"
        }
      ],
      "stateMutability": "nonpayable",
      "type": "function"
    },
    {
      "inputs": [],
      "name": "initialSharePrice",
      "outputs": [
        {
          "internalType": "uint256",
          "name": "",
          "type": "uint256"
        }
      ],
      "stateMutability": "view",
      "type": "function"
    },
    {
      "inputs": [],
      "name": "maxAmountOfShares",
      "outputs": [
        {
          "internalType": "uint256",
          "name": "",
          "type": "uint256"
        }
      ],
      "stateMutability": "view",
      "type": "function"
    },
    {
      "inputs": [],
      "name": "name",
      "outputs": [
        {
          "internalType": "string",
          "name": "",
          "type": "string"
        }
      ],
      "stateMutability": "view",
      "type": "function"
    },
    {
      "inputs": [],
      "name": "owner",
      "outputs": [
        {
          "internalType": "address",
          "name": "",
          "type": "address"
        }
      ],
      "stateMutability": "view",
      "type": "function"
    },
    {
      "inputs": [],
      "name": "renounceOwnership",
      "outputs": [],
      "stateMutability": "nonpayable",
      "type": "function"
    },
    {
      "inputs": [
        {
          "internalType": "uint256",
          "name": "amount",
          "type": "uint256"
        }
      ],
      "name": "sellShares",
      "outputs": [],
      "stateMutability": "nonpayable",
      "type": "function"
    },
    {
      "inputs": [],
      "name": "symbol",
      "outputs": [
        {
          "internalType": "string",
          "name": "",
          "type": "string"
        }
      ],
      "stateMutability": "view",
      "type": "function"
    },
    {
      "inputs": [],
      "name": "totalSupply",
      "outputs": [
        {
          "internalType": "uint256",
          "name": "",
          "type": "uint256"
        }
      ],
      "stateMutability": "view",
      "type": "function"
    },
    {
      "inputs": [
        {
          "internalType": "address",
          "name": "to",
          "type": "address"
        },
        {
          "internalType": "uint256",
          "name": "amount",
          "type": "uint256"
        }
      ],
      "name": "transfer",
      "outputs": [
        {
          "internalType": "bool",
          "name": "",
          "type": "bool"
        }
      ],
      "stateMutability": "nonpayable",
      "type": "function"
    },
    {
      "inputs": [
        {
          "internalType": "address",
          "name": "from",
          "type": "address"
        },
        {
          "internalType": "address",
          "name": "to",
          "type": "address"
        },
        {
          "internalType": "uint256",
          "name": "amount",
          "type": "uint256"
        }
      ],
      "name": "transferFrom",
      "outputs": [
        {
          "internalType": "bool",
          "name": "",
          "type": "bool"
        }
      ],
      "stateMutability": "nonpayable",
      "type": "function"
    },
    {
      "inputs": [
        {
          "internalType": "address",
          "name": "newOwner",
          "type": "address"
        }
      ],
      "name": "transferOwnership",
      "outputs": [],
      "stateMutability": "nonpayable",
      "type": "function"
    },
    {
      "inputs": [],
      "name": "vestingPeriodEnd",
      "outputs": [
        {
          "internalType": "uint256",
          "name": "",
          "type": "uint256"
        }
      ],
      "stateMutability": "view",
      "type": "function"
    },
    {
      "stateMutability": "payable",
      "type": "receive"
    }
  ],
  "bytecode": "0x60806040523480156200001157600080fd5b5060405162003d1538038062003d15833981810160405281019062000037919062000655565b8686620000596200004d620001db60201b60201c565b620001e360201b60201c565b60018081905550816005908162000071919062000987565b50806006908162000083919062000987565b505050620000a267dbad686cfb07dca260c01b620002a760201b60201c565b620000be67d5e351a0f4dd8f4c60c01b620002a760201b60201c565b80600760006101000a81548173ffffffffffffffffffffffffffffffffffffffff021916908373ffffffffffffffffffffffffffffffffffffffff1602179055506200011b676807256b9b6fc97960c01b620002a760201b60201c565b846008819055506200013e67305cbd99d95d9a8a60c01b620002a760201b60201c565b83600981905550620001616761bf6a940fadac9f60c01b620002a760201b60201c565b6200017d670c869c874f49d02460c01b620002a760201b60201c565b6200019e62000191620001db60201b60201c565b84620002aa60201b60201c565b620001ba67331ac3766a7d2c0560c01b620002a760201b60201c565b8143620001c8919062000a9d565b600a819055505050505050505062000b89565b600033905090565b60008060009054906101000a900473ffffffffffffffffffffffffffffffffffffffff169050816000806101000a81548173ffffffffffffffffffffffffffffffffffffffff021916908373ffffffffffffffffffffffffffffffffffffffff1602179055508173ffffffffffffffffffffffffffffffffffffffff168173ffffffffffffffffffffffffffffffffffffffff167f8be0079c531659141344cd1fd0a4f28419497f9722a3daafe3b4186f6b6457e060405160405180910390a35050565b50565b600073ffffffffffffffffffffffffffffffffffffffff168273ffffffffffffffffffffffffffffffffffffffff16036200031c576040517f08c379a0000000000000000000000000000000000000000000000000000000008152600401620003139062000b39565b60405180910390fd5b62000330600083836200041860201b60201c565b806004600082825462000344919062000a9d565b9250508190555080600260008473ffffffffffffffffffffffffffffffffffffffff1673ffffffffffffffffffffffffffffffffffffffff168152602001908152602001600020600082825401925050819055508173ffffffffffffffffffffffffffffffffffffffff16600073ffffffffffffffffffffffffffffffffffffffff167fddf252ad1be2c89b69c2b068fc378daa952ba7f163c4a11628f55a4df523b3ef83604051620003f8919062000b6c565b60405180910390a362000414600083836200041d60201b60201c565b5050565b505050565b505050565b6000604051905090565b600080fd5b600080fd5b600080fd5b600080fd5b6000601f19601f8301169050919050565b7f4e487b7100000000000000000000000000000000000000000000000000000000600052604160045260246000fd5b6200048b8262000440565b810181811067ffffffffffffffff82111715620004ad57620004ac62000451565b5b80604052505050565b6000620004c262000422565b9050620004d0828262000480565b919050565b600067ffffffffffffffff821115620004f357620004f262000451565b5b620004fe8262000440565b9050602081019050919050565b60005b838110156200052b5780820151818401526020810190506200050e565b60008484015250505050565b60006200054e6200054884620004d5565b620004b6565b9050828152602081018484840111156200056d576200056c6200043b565b5b6200057a8482856200050b565b509392505050565b600082601f8301126200059a576200059962000436565b5b8151620005ac84826020860162000537565b91505092915050565b6000819050919050565b620005ca81620005b5565b8114620005d657600080fd5b50565b600081519050620005ea81620005bf565b92915050565b600073ffffffffffffffffffffffffffffffffffffffff82169050919050565b60006200061d82620005f0565b9050919050565b6200062f8162000610565b81146200063b57600080fd5b50565b6000815190506200064f8162000624565b92915050565b600080600080600080600060e0888a0312156200067757620006766200042c565b5b600088015167ffffffffffffffff81111562000698576200069762000431565b5b620006a68a828b0162000582565b975050602088015167ffffffffffffffff811115620006ca57620006c962000431565b5b620006d88a828b0162000582565b9650506040620006eb8a828b01620005d9565b9550506060620006fe8a828b01620005d9565b9450506080620007118a828b01620005d9565b93505060a0620007248a828b01620005d9565b92505060c0620007378a828b016200063e565b91505092959891949750929550565b600081519050919050565b7f4e487b7100000000000000000000000000000000000000000000000000000000600052602260045260246000fd5b600060028204905060018216806200079957607f821691505b602082108103620007af57620007ae62000751565b5b50919050565b60008190508160005260206000209050919050565b60006020601f8301049050919050565b600082821b905092915050565b600060088302620008197fffffffffffffffffffffffffffffffffffffffffffffffffffffffffffffffff82620007da565b620008258683620007da565b95508019841693508086168417925050509392505050565b6000819050919050565b600062000868620008626200085c84620005b5565b6200083d565b620005b5565b9050919050565b6000819050919050565b620008848362000847565b6200089c62000893826200086f565b848454620007e7565b825550505050565b600090565b620008b3620008a4565b620008c081848462000879565b505050565b5b81811015620008e857620008dc600082620008a9565b600181019050620008c6565b5050565b601f82111562000937576200090181620007b5565b6200090c84620007ca565b810160208510156200091c578190505b620009346200092b85620007ca565b830182620008c5565b50505b505050565b600082821c905092915050565b60006200095c600019846008026200093c565b1980831691505092915050565b600062000977838362000949565b9150826002028217905092915050565b620009928262000746565b67ffffffffffffffff811115620009ae57620009ad62000451565b5b620009ba825462000780565b620009c7828285620008ec565b600060209050601f831160018114620009ff5760008415620009ea578287015190505b620009f6858262000969565b86555062000a66565b601f19841662000a0f86620007b5565b60005b8281101562000a395784890151825560018201915060208501945060208101905062000a12565b8683101562000a59578489015162000a55601f89168262000949565b8355505b6001600288020188555050505b505050505050565b7f4e487b7100000000000000000000000000000000000000000000000000000000600052601160045260246000fd5b600062000aaa82620005b5565b915062000ab783620005b5565b925082820190508082111562000ad25762000ad162000a6e565b5b92915050565b600082825260208201905092915050565b7f45524332303a206d696e7420746f20746865207a65726f206164647265737300600082015250565b600062000b21601f8362000ad8565b915062000b2e8262000ae9565b602082019050919050565b6000602082019050818103600083015262000b548162000b12565b9050919050565b62000b6681620005b5565b82525050565b600060208201905062000b83600083018462000b5b565b92915050565b61317c8062000b996000396000f3fe6080604052600436106101395760003560e01c806395d89b41116100ab578063ca4b208b1161006f578063ca4b208b1461044c578063d1a93d1814610477578063d224ca7814610493578063dd62ed3e146104d0578063defbbb681461050d578063f2fde38b1461053857610140565b806395d89b41146103505780639e462fc71461037b578063a173f79e146103a6578063a457c2d7146103d2578063a9059cbb1461040f57610140565b806339509351116100fd57806339509351146102405780634ba8ae811461027d5780635f3e364a146102a657806370a08231146102d1578063715018a61461030e5780638da5cb5b1461032557610140565b806306fdde0314610145578063095ea7b31461017057806318160ddd146101ad57806323b872dd146101d8578063313ce5671461021557610140565b3661014057005b600080fd5b34801561015157600080fd5b5061015a610561565b60405161016791906123d3565b60405180910390f35b34801561017c57600080fd5b506101976004803603810190610192919061248e565b6105f3565b6040516101a491906124e9565b60405180910390f35b3480156101b957600080fd5b506101c2610616565b6040516101cf9190612513565b60405180910390f35b3480156101e457600080fd5b506101ff60048036038101906101fa919061252e565b610620565b60405161020c91906124e9565b60405180910390f35b34801561022157600080fd5b5061022a61064f565b604051610237919061259d565b60405180910390f35b34801561024c57600080fd5b506102676004803603810190610262919061248e565b610658565b60405161027491906124e9565b60405180910390f35b34801561028957600080fd5b506102a4600480360381019061029f91906125b8565b61068f565b005b3480156102b257600080fd5b506102bb610b22565b6040516102c89190612513565b60405180910390f35b3480156102dd57600080fd5b506102f860048036038101906102f391906125e5565b610b28565b6040516103059190612513565b60405180910390f35b34801561031a57600080fd5b50610323610b71565b005b34801561033157600080fd5b5061033a610b85565b6040516103479190612621565b60405180910390f35b34801561035c57600080fd5b50610365610bae565b60405161037291906123d3565b60405180910390f35b34801561038757600080fd5b50610390610c40565b60405161039d9190612513565b60405180910390f35b3480156103b257600080fd5b506103bb610c46565b6040516103c992919061263c565b60405180910390f35b3480156103de57600080fd5b506103f960048036038101906103f4919061248e565b610d12565b60405161040691906124e9565b60405180910390f35b34801561041b57600080fd5b506104366004803603810190610431919061248e565b610d89565b60405161044391906124e9565b60405180910390f35b34801561045857600080fd5b50610461610dac565b60405161046e9190612686565b60405180910390f35b610491600480360381019061048c91906125b8565b610dd2565b005b34801561049f57600080fd5b506104ba60048036038101906104b591906125b8565b610f12565b6040516104c79190612513565b60405180910390f35b3480156104dc57600080fd5b506104f760048036038101906104f291906126a1565b611177565b6040516105049190612513565b60405180910390f35b34801561051957600080fd5b506105226111fe565b60405161052f9190612513565b60405180910390f35b34801561054457600080fd5b5061055f600480360381019061055a91906125e5565b611204565b005b60606005805461057090612710565b80601f016020809104026020016040519081016040528092919081815260200182805461059c90612710565b80156105e95780601f106105be576101008083540402835291602001916105e9565b820191906000526020600020905b8154815290600101906020018083116105cc57829003601f168201915b5050505050905090565b6000806105fe611287565b905061060b81858561128f565b600191505092915050565b6000600454905090565b60008061062b611287565b9050610638858285611458565b6106438585856114e4565b60019150509392505050565b60006012905090565b600080610663611287565b90506106848185856106758589611177565b61067f9190612770565b61128f565b600191505092915050565b6106a3677ab497fae4ad0bb660c01b61175d565b6106ab611760565b6106bf671a9bc0c9606dc51c60c01b61175d565b6106d36720d685592363554c60c01b61175d565b6106e767e744d07dd6599adf60c01b61175d565b6106fb67b51e7b68fb31d17f60c01b61175d565b61070f67c9a0aaf68268d4d660c01b61175d565b600a54431015610754576040517f08c379a000000000000000000000000000000000000000000000000000000000815260040161074b906127f0565b60405180910390fd5b610768679cec51f03d4a1cbe60c01b61175d565b61077c6753bf09370d5bf72d60c01b61175d565b610790672edeac71af4f9fb060c01b61175d565b6107a4678971eb0f8bef6e1c60c01b61175d565b670de0b6b3a76400008110156107ef576040517f08c379a00000000000000000000000000000000000000000000000000000000081526004016107e69061285c565b60405180910390fd5b6108036762108bf105b6589260c01b61175d565b61081767ef12509652f7f3a960c01b61175d565b61082a66e2479d186948b860c01b61175d565b61083c610835611287565b3083610620565b50610851675c571b7dcab4e7e760c01b61175d565b610865677f5560c4df39bb4260c01b61175d565b61086d610616565b4710156108b757610888673eeb2f5e72f1a46960c01b61175d565b61089c67528c7727564ab4ad60c01b61175d565b670de0b6b3a7640000816108b091906128ab565b90506108cc565b6108cb674c33e4844b40ec1d60c01b61175d565b5b6108e06783d75778b22dd59860c01b61175d565b6108f467bbed833745b2299c60c01b61175d565b6000816109016000610f12565b61090b91906128dc565b9050610921673c77eadc0151470b60c01b61175d565b610935675d4d28da4c0f53e960c01b61175d565b8047101561096d576109516792c0be6199ddd77160c01b61175d565b61096567e92c7ab18ba129d660c01b61175d565b479050610982565b61098167a85c5bb17d8bbd7360c01b61175d565b5b61099667a8de51a081cec07160c01b61175d565b6109aa67bba4d1c9f776518d60c01b61175d565b60006109b4611287565b73ffffffffffffffffffffffffffffffffffffffff16826040516109d79061294f565b60006040518083038185875af1925050503d8060008114610a14576040519150601f19603f3d011682016040523d82523d6000602084013e610a19565b606091505b50509050610a316774d6aec01a1ea41660c01b61175d565b610a45670dc4e63bfcae7f8560c01b61175d565b610a5967d1f5472c949d0c5260c01b61175d565b80610a99576040517f08c379a0000000000000000000000000000000000000000000000000000000008152600401610a90906129b0565b60405180910390fd5b610aad6728be8af9fab6a96860c01b61175d565b610ac167dcf2756bc266f9bc60c01b61175d565b610ad567bb327495ab13070c60c01b61175d565b7fe8bb4edfb49cb224db3d7d51f707c053865322c038a54cfcfd81969d0eb1f013610afe611287565b84604051610b0d9291906129d0565b60405180910390a15050610b1f6117af565b50565b60095481565b6000600260008373ffffffffffffffffffffffffffffffffffffffff1673ffffffffffffffffffffffffffffffffffffffff168152602001908152602001600020549050919050565b610b796117b8565b610b836000611836565b565b60008060009054906101000a900473ffffffffffffffffffffffffffffffffffffffff16905090565b606060068054610bbd90612710565b80601f0160208091040260200160405190810160405280929190818152602001828054610be990612710565b8015610c365780601f10610c0b57610100808354040283529160200191610c36565b820191906000526020600020905b815481529060010190602001808311610c1957829003601f168201915b5050505050905090565b600a5481565b600080610c5d67b32001c2f4feeadb60c01b61175d565b610c7167299519891cde23e660c01b61175d565b610c8567238172cb93166f8360c01b61175d565b6000610c9030610b28565b9050610ca667c0ea11aa7681df9f60c01b61175d565b610cba671c55572f3b8b19c660c01b61175d565b6000610cc4610616565b600854610cd191906129f9565b82610cdc9190612770565b9050610cf267a09bcc952333a91560c01b61175d565b610d06676a00b962365e82ee60c01b61175d565b81819350935050509091565b600080610d1d611287565b90506000610d2b8286611177565b905083811015610d70576040517f08c379a0000000000000000000000000000000000000000000000000000000008152600401610d6790612a9f565b60405180910390fd5b610d7d828686840361128f565b60019250505092915050565b600080610d94611287565b9050610da18185856114e4565b600191505092915050565b600760009054906101000a900473ffffffffffffffffffffffffffffffffffffffff1681565b610de6675827f929ec936c0860c01b61175d565b610dfa6758718af39d3fefa660c01b61175d565b610e0e67496cc97e67c9625860c01b61175d565b600a544310610e6157610e2b6767ac0d6a8f18ae6460c01b61175d565b610e3f6744e3ea462ccb0a2660c01b61175d565b610e5367151bcdd8fbef697560c01b61175d565b610e5c816118fa565b610ea7565b610e7567f22ff349aeb4cd6960c01b61175d565b610e89671000132e6def72be60c01b61175d565b610e9d677c628ab10a065cc560c01b61175d565b610ea681611df8565b5b610ebb67212c9b20f287d06f60c01b61175d565b610ecf6798bcbddf3b01a10f60c01b61175d565b7f9e3aff002c0bfdb18b77adb1051b53eda74f919ee90e162c2626995e4db8f055610ef8611287565b82604051610f079291906129d0565b60405180910390a150565b6000610f28672a2e03f3872b911260c01b61175d565b610f3c670fb5622567e66dc560c01b61175d565b610f50675e38604e3581330a60c01b61175d565b6000610f5a610616565b9050610f706768c22f3a082bb0ee60c01b61175d565b610f8467b92c68d5d6fd2f6960c01b61175d565b60008347610f9291906129f9565b9050610fa867ba74d0c0ed953dd360c01b61175d565b610fbc67b8ed62db0a8fdcf360c01b61175d565b600082148015610fdc5750610fdb67ab7796e12ba36b6f60c01b6120e8565b5b806110035750600081148015611002575061100167e65eb23ac1ff0c5360c01b6120e8565b5b5b1561104f5761101c6727f0c926cf482f6a60c01b61175d565b61103067b0fa2dc9662b4b1860c01b61175d565b611044676bc94b4dca9b475460c01b61175d565b600092505050611172565b6110636739fdf7a74eda647d60c01b61175d565b6110776767db2aa4eda8f74060c01b61175d565b61108b6794fce0147ed0a7c660c01b61175d565b81811015611125576110a767fe2055f61204feae60c01b61175d565b6110bb672f80d264d5566f0d60c01b61175d565b6110cf676d50f93635eeb30860c01b61175d565b6000670de0b6b3a7640000826110e591906128dc565b90506110fb67f2b7f4ec58ccc0ab60c01b61175d565b61110f67b55aa28ad4977d7e60c01b61175d565b828161111b91906128ab565b9350505050611172565b61113967816bc44ae019aff960c01b61175d565b61114d676533c43a5681a39760c01b61175d565b611161677cb03c727201159b60c01b61175d565b818161116d91906128ab565b925050505b919050565b6000600360008473ffffffffffffffffffffffffffffffffffffffff1673ffffffffffffffffffffffffffffffffffffffff16815260200190815260200160002060008373ffffffffffffffffffffffffffffffffffffffff1673ffffffffffffffffffffffffffffffffffffffff16815260200190815260200160002054905092915050565b60085481565b61120c6117b8565b600073ffffffffffffffffffffffffffffffffffffffff168173ffffffffffffffffffffffffffffffffffffffff160361127b576040517f08c379a000000000000000000000000000000000000000000000000000000000815260040161127290612b31565b60405180910390fd5b61128481611836565b50565b600033905090565b600073ffffffffffffffffffffffffffffffffffffffff168373ffffffffffffffffffffffffffffffffffffffff16036112fe576040517f08c379a00000000000000000000000000000000000000000000000000000000081526004016112f590612bc3565b60405180910390fd5b600073ffffffffffffffffffffffffffffffffffffffff168273ffffffffffffffffffffffffffffffffffffffff160361136d576040517f08c379a000000000000000000000000000000000000000000000000000000000815260040161136490612c55565b60405180910390fd5b80600360008573ffffffffffffffffffffffffffffffffffffffff1673ffffffffffffffffffffffffffffffffffffffff16815260200190815260200160002060008473ffffffffffffffffffffffffffffffffffffffff1673ffffffffffffffffffffffffffffffffffffffff168152602001908152602001600020819055508173ffffffffffffffffffffffffffffffffffffffff168373ffffffffffffffffffffffffffffffffffffffff167f8c5be1e5ebec7d5bd14f71427d1e84f3dd0314c0f7b2291e5b200ac8c7c3b9258360405161144b9190612513565b60405180910390a3505050565b60006114648484611177565b90507fffffffffffffffffffffffffffffffffffffffffffffffffffffffffffffffff81146114de57818110156114d0576040517f08c379a00000000000000000000000000000000000000000000000000000000081526004016114c790612cc1565b60405180910390fd5b6114dd848484840361128f565b5b50505050565b600073ffffffffffffffffffffffffffffffffffffffff168373ffffffffffffffffffffffffffffffffffffffff1603611553576040517f08c379a000000000000000000000000000000000000000000000000000000000815260040161154a90612d53565b60405180910390fd5b600073ffffffffffffffffffffffffffffffffffffffff168273ffffffffffffffffffffffffffffffffffffffff16036115c2576040517f08c379a00000000000000000000000000000000000000000000000000000000081526004016115b990612de5565b60405180910390fd5b6115cd8383836120f3565b6000600260008573ffffffffffffffffffffffffffffffffffffffff1673ffffffffffffffffffffffffffffffffffffffff16815260200190815260200160002054905081811015611654576040517f08c379a000000000000000000000000000000000000000000000000000000000815260040161164b90612e77565b60405180910390fd5b818103600260008673ffffffffffffffffffffffffffffffffffffffff1673ffffffffffffffffffffffffffffffffffffffff1681526020019081526020016000208190555081600260008573ffffffffffffffffffffffffffffffffffffffff1673ffffffffffffffffffffffffffffffffffffffff168152602001908152602001600020600082825401925050819055508273ffffffffffffffffffffffffffffffffffffffff168473ffffffffffffffffffffffffffffffffffffffff167fddf252ad1be2c89b69c2b068fc378daa952ba7f163c4a11628f55a4df523b3ef846040516117449190612513565b60405180910390a36117578484846120f8565b50505050565b50565b6002600154036117a5576040517f08c379a000000000000000000000000000000000000000000000000000000000815260040161179c90612ee3565b60405180910390fd5b6002600181905550565b60018081905550565b6117c0611287565b73ffffffffffffffffffffffffffffffffffffffff166117de610b85565b73ffffffffffffffffffffffffffffffffffffffff1614611834576040517f08c379a000000000000000000000000000000000000000000000000000000000815260040161182b90612f4f565b60405180910390fd5b565b60008060009054906101000a900473ffffffffffffffffffffffffffffffffffffffff169050816000806101000a81548173ffffffffffffffffffffffffffffffffffffffff021916908373ffffffffffffffffffffffffffffffffffffffff1602179055508173ffffffffffffffffffffffffffffffffffffffff168173ffffffffffffffffffffffffffffffffffffffff167f8be0079c531659141344cd1fd0a4f28419497f9722a3daafe3b4186f6b6457e060405160405180910390a35050565b61190e67c6b4bfb2ba80e53260c01b61175d565b6119226780874b8ec05bcfa060c01b61175d565b611936679006095667a27f3e60c01b61175d565b600080611941610c46565b91509150611959673179eb87f05b4d7f60c01b61175d565b61196d67d6dcc0d6d63f72c760c01b61175d565b611975610616565b4710156119bf576119906789c38a5b4560bfa060c01b61175d565b6119a467f14b5631c6c39ddd60c01b61175d565b670de0b6b3a7640000836119b891906128ab565b92506119d4565b6119d367cca1b99000d8b15260c01b61175d565b5b6119e8673375e57089a54d1c60c01b61175d565b6119fc67baf62f32acdb530f60c01b61175d565b611a4f346040518060400160405280600281526020017f7673000000000000000000000000000000000000000000000000000000000000815250611a3f34610f12565b86611a4a91906128dc565b6120fd565b611a6367dfb137de06264add60c01b61175d565b611a7767c58498a6be813fa160c01b61175d565b611a8b67bc1a128d4e4006e560c01b61175d565b611a9434610f12565b83611a9f91906128dc565b3414611ae0576040517f08c379a0000000000000000000000000000000000000000000000000000000008152600401611ad790612fbb565b60405180910390fd5b611af467b84f097f01eee54a60c01b61175d565b611b08670bc5cb0a59f947d860c01b61175d565b611b1c673e64119099c4287f60c01b61175d565b611b3067c52a9c0c14a7b27f60c01b61175d565b80831115611b73576040517f08c379a0000000000000000000000000000000000000000000000000000000008152600401611b6a9061304d565b60405180910390fd5b611b876713240460d64263fb60c01b61175d565b611b9b673d45e25c76e3bbb460c01b61175d565b611baf6701adfbfe7ad622c560c01b61175d565b611bc367d5a59ec5ef598e8060c01b61175d565b82611bcd34610f12565b611bd791906128dc565b3414611c18576040517f08c379a0000000000000000000000000000000000000000000000000000000008152600401611c0f90612fbb565b60405180910390fd5b611c2c673ad5e7e9c1efc71f60c01b61175d565b611c4067ffc5b77766a3076060c01b61175d565b611c546713eff80d52d5f5e660c01b61175d565b818311611cae57611c6f677ea7e83ec04b259d60c01b61175d565b611c8367b50cd882e83452f760c01b61175d565b611c97670a69209894108d5960c01b61175d565b611ca8611ca2611287565b84610d89565b50611df3565b611cc2678db482855aab96d860c01b61175d565b611cd667c50862bf1477d9b160c01b61175d565b6000821115611da457611cf367a016246c14a47b1460c01b61175d565b611d0767e64a3465f86dce1460c01b61175d565b611d1b6767ab71b14238597660c01b61175d565b60008284611d2991906129f9565b9050611d3f67621c0fc93300a42a60c01b61175d565b611d5367461458e1f1fc101060c01b61175d565b611d64611d5e611287565b84610d89565b50611d7967385b300314bf247660c01b61175d565b611d8d67769b4df5a89c9e4760c01b61175d565b611d9e611d98611287565b8261219c565b50611df2565b611db86710b9e63079629c8060c01b61175d565b611dcc679ff9b7d2939de6d760c01b61175d565b611de06705929440d9527eb060c01b61175d565b611df1611deb611287565b8461219c565b5b5b505050565b611e0c670305007e6817bcb960c01b61175d565b611e206729faa371c5fd067c60c01b61175d565b611e3467059b17298e8c008060c01b61175d565b611e486710d8c5023f9e22c060c01b61175d565b670de0b6b3a764000060095482611e5f91906128dc565b611e6991906128ab565b3414611eaa576040517f08c379a0000000000000000000000000000000000000000000000000000000008152600401611ea190612fbb565b60405180910390fd5b611ebe67490ed1bce22a087960c01b61175d565b611ed2672e61e39d64c922c060c01b61175d565b611ee667d5588e96a2e9f1d960c01b61175d565b611efa679943fdfe633fb70a60c01b61175d565b600854611f05610616565b82611f109190612770565b1115611f51576040517f08c379a0000000000000000000000000000000000000000000000000000000008152600401611f489061304d565b60405180910390fd5b611f6567770114521bd772cb60c01b61175d565b611f7967ae1e21ffbe35006660c01b61175d565b611f8d676c369c20d65560c060c01b61175d565b611f9e611f98611287565b8261219c565b611fb267469054858bef16d260c01b61175d565b611fc667eb69a4a60ee3fdc360c01b61175d565b6000600760009054906101000a900473ffffffffffffffffffffffffffffffffffffffff1673ffffffffffffffffffffffffffffffffffffffff163460405161200e9061294f565b60006040518083038185875af1925050503d806000811461204b576040519150601f19603f3d011682016040523d82523d6000602084013e612050565b606091505b50509050612068676e9ecb9466f19e4e60c01b61175d565b61207c677f47689d10738c3060c01b61175d565b61209067e8cc9fef2cb814a460c01b61175d565b806120d0576040517f08c379a00000000000000000000000000000000000000000000000000000000081526004016120c7906129b0565b60405180910390fd5b6120e4671e4ae562f503eecd60c01b61175d565b5050565b600060019050919050565b505050565b505050565b6121978383836040516024016121159392919061306d565b6040516020818303038152906040527f37aa7d4c000000000000000000000000000000000000000000000000000000007bffffffffffffffffffffffffffffffffffffffffffffffffffffffff19166020820180517bffffffffffffffffffffffffffffffffffffffffffffffffffffffff83818316178352505050506122f3565b505050565b600073ffffffffffffffffffffffffffffffffffffffff168273ffffffffffffffffffffffffffffffffffffffff160361220b576040517f08c379a0000000000000000000000000000000000000000000000000000000008152600401612202906130f7565b60405180910390fd5b612217600083836120f3565b80600460008282546122299190612770565b9250508190555080600260008473ffffffffffffffffffffffffffffffffffffffff1673ffffffffffffffffffffffffffffffffffffffff168152602001908152602001600020600082825401925050819055508173ffffffffffffffffffffffffffffffffffffffff16600073ffffffffffffffffffffffffffffffffffffffff167fddf252ad1be2c89b69c2b068fc378daa952ba7f163c4a11628f55a4df523b3ef836040516122db9190612513565b60405180910390a36122ef600083836120f8565b5050565b61230a8161230261230d61232e565b63ffffffff16565b50565b60006a636f6e736f6c652e6c6f679050600080835160208501845afa505050565b612339819050919050565b612341613117565b565b600081519050919050565b600082825260208201905092915050565b60005b8381101561237d578082015181840152602081019050612362565b60008484015250505050565b6000601f19601f8301169050919050565b60006123a582612343565b6123af818561234e565b93506123bf81856020860161235f565b6123c881612389565b840191505092915050565b600060208201905081810360008301526123ed818461239a565b905092915050565b600080fd5b600073ffffffffffffffffffffffffffffffffffffffff82169050919050565b6000612425826123fa565b9050919050565b6124358161241a565b811461244057600080fd5b50565b6000813590506124528161242c565b92915050565b6000819050919050565b61246b81612458565b811461247657600080fd5b50565b60008135905061248881612462565b92915050565b600080604083850312156124a5576124a46123f5565b5b60006124b385828601612443565b92505060206124c485828601612479565b9150509250929050565b60008115159050919050565b6124e3816124ce565b82525050565b60006020820190506124fe60008301846124da565b92915050565b61250d81612458565b82525050565b60006020820190506125286000830184612504565b92915050565b600080600060608486031215612547576125466123f5565b5b600061255586828701612443565b935050602061256686828701612443565b925050604061257786828701612479565b9150509250925092565b600060ff82169050919050565b61259781612581565b82525050565b60006020820190506125b2600083018461258e565b92915050565b6000602082840312156125ce576125cd6123f5565b5b60006125dc84828501612479565b91505092915050565b6000602082840312156125fb576125fa6123f5565b5b600061260984828501612443565b91505092915050565b61261b8161241a565b82525050565b60006020820190506126366000830184612612565b92915050565b60006040820190506126516000830185612504565b61265e6020830184612504565b9392505050565b6000612670826123fa565b9050919050565b61268081612665565b82525050565b600060208201905061269b6000830184612677565b92915050565b600080604083850312156126b8576126b76123f5565b5b60006126c685828601612443565b92505060206126d785828601612443565b9150509250929050565b7f4e487b7100000000000000000000000000000000000000000000000000000000600052602260045260246000fd5b6000600282049050600182168061272857607f821691505b60208210810361273b5761273a6126e1565b5b50919050565b7f4e487b7100000000000000000000000000000000000000000000000000000000600052601160045260246000fd5b600061277b82612458565b915061278683612458565b925082820190508082111561279e5761279d612741565b5b92915050565b7f56657374696e6720706572696f64206973206e6f74206f766572000000000000600082015250565b60006127da601a8361234e565b91506127e5826127a4565b602082019050919050565b60006020820190508181036000830152612809816127cd565b9050919050565b7f416d6f756e74206d757374206265206174206c65617374203120736861726500600082015250565b6000612846601f8361234e565b915061285182612810565b602082019050919050565b6000602082019050818103600083015261287581612839565b9050919050565b7f4e487b7100000000000000000000000000000000000000000000000000000000600052601260045260246000fd5b60006128b682612458565b91506128c183612458565b9250826128d1576128d061287c565b5b828204905092915050565b60006128e782612458565b91506128f283612458565b925082820261290081612458565b9150828204841483151761291757612916612741565b5b5092915050565b600081905092915050565b50565b600061293960008361291e565b915061294482612929565b600082019050919050565b600061295a8261292c565b9150819050919050565b7f4661696c656420746f2073656e64204574686572000000000000000000000000600082015250565b600061299a60148361234e565b91506129a582612964565b602082019050919050565b600060208201905081810360008301526129c98161298d565b9050919050565b60006040820190506129e56000830185612612565b6129f26020830184612504565b9392505050565b6000612a0482612458565b9150612a0f83612458565b9250828203905081811115612a2757612a26612741565b5b92915050565b7f45524332303a2064656372656173656420616c6c6f77616e63652062656c6f7760008201527f207a65726f000000000000000000000000000000000000000000000000000000602082015250565b6000612a8960258361234e565b9150612a9482612a2d565b604082019050919050565b60006020820190508181036000830152612ab881612a7c565b9050919050565b7f4f776e61626c653a206e6577206f776e657220697320746865207a65726f206160008201527f6464726573730000000000000000000000000000000000000000000000000000602082015250565b6000612b1b60268361234e565b9150612b2682612abf565b604082019050919050565b60006020820190508181036000830152612b4a81612b0e565b9050919050565b7f45524332303a20617070726f76652066726f6d20746865207a65726f2061646460008201527f7265737300000000000000000000000000000000000000000000000000000000602082015250565b6000612bad60248361234e565b9150612bb882612b51565b604082019050919050565b60006020820190508181036000830152612bdc81612ba0565b9050919050565b7f45524332303a20617070726f766520746f20746865207a65726f20616464726560008201527f7373000000000000000000000000000000000000000000000000000000000000602082015250565b6000612c3f60228361234e565b9150612c4a82612be3565b604082019050919050565b60006020820190508181036000830152612c6e81612c32565b9050919050565b7f45524332303a20696e73756666696369656e7420616c6c6f77616e6365000000600082015250565b6000612cab601d8361234e565b9150612cb682612c75565b602082019050919050565b60006020820190508181036000830152612cda81612c9e565b9050919050565b7f45524332303a207472616e736665722066726f6d20746865207a65726f20616460008201527f6472657373000000000000000000000000000000000000000000000000000000602082015250565b6000612d3d60258361234e565b9150612d4882612ce1565b604082019050919050565b60006020820190508181036000830152612d6c81612d30565b9050919050565b7f45524332303a207472616e7366657220746f20746865207a65726f206164647260008201527f6573730000000000000000000000000000000000000000000000000000000000602082015250565b6000612dcf60238361234e565b9150612dda82612d73565b604082019050919050565b60006020820190508181036000830152612dfe81612dc2565b9050919050565b7f45524332303a207472616e7366657220616d6f756e742065786365656473206260008201527f616c616e63650000000000000000000000000000000000000000000000000000602082015250565b6000612e6160268361234e565b9150612e6c82612e05565b604082019050919050565b60006020820190508181036000830152612e9081612e54565b9050919050565b7f5265656e7472616e637947756172643a207265656e7472616e742063616c6c00600082015250565b6000612ecd601f8361234e565b9150612ed882612e97565b602082019050919050565b60006020820190508181036000830152612efc81612ec0565b9050919050565b7f4f776e61626c653a2063616c6c6572206973206e6f7420746865206f776e6572600082015250565b6000612f3960208361234e565b9150612f4482612f03565b602082019050919050565b60006020820190508181036000830152612f6881612f2c565b9050919050565b7f496e76616c696420616d6f756e74206f66206574686572000000000000000000600082015250565b6000612fa560178361234e565b9150612fb082612f6f565b602082019050919050565b60006020820190508181036000830152612fd481612f98565b9050919050565b7f416d6f756e7420657863656564696e6720617661696c61626c6520737570706c60008201527f7900000000000000000000000000000000000000000000000000000000000000602082015250565b600061303760218361234e565b915061304282612fdb565b604082019050919050565b600060208201905081810360008301526130668161302a565b9050919050565b60006060820190506130826000830186612504565b8181036020830152613094818561239a565b90506130a36040830184612504565b949350505050565b7f45524332303a206d696e7420746f20746865207a65726f206164647265737300600082015250565b60006130e1601f8361234e565b91506130ec826130ab565b602082019050919050565b60006020820190508181036000830152613110816130d4565b9050919050565b7f4e487b7100000000000000000000000000000000000000000000000000000000600052605160045260246000fdfea2646970667358221220a5222967226daba7e36435446718e81ce633d8511c53979dad309a2978e5b9d564736f6c63430008150033",
  "linkReferences": {},
  "deployedLinkReferences": {}
}