{
  "_format": "hh-sol-artifact-1",
  "contractName": "EIP712Message",
  "sourceName": "contracts/EIP712Message.sol",
  "abi": [
    {
      "inputs": [
        {
          "internalType": "string",
          "name": "name",
          "type": "string"
        },
        {
          "internalType": "string",
          "name": "version",
          "type": "string"
        }
      ],
      "stateMutability": "nonpayable",
      "type": "constructor"
    },
    {
      "inputs": [],
      "name": "InvalidShortString",
      "type": "error"
    },
    {
      "inputs": [
        {
          "internalType": "string",
          "name": "str",
          "type": "string"
        }
      ],
      "name": "StringTooLong",
      "type": "error"
    },
    {
      "anonymous": false,
      "inputs": [],
      "name": "EIP712DomainChanged",
      "type": "event"
    },
    {
      "inputs": [],
      "name": "_getChainId",
      "outputs": [
        {
          "internalType": "uint256",
          "name": "chainId",
          "type": "uint256"
        }
      ],
      "stateMutability": "view",
      "type": "function"
    },
    {
      "inputs": [],
      "name": "eip712Domain",
      "outputs": [
        {
          "internalType": "bytes1",
          "name": "fields",
          "type": "bytes1"
        },
        {
          "internalType": "string",
          "name": "name",
          "type": "string"
        },
        {
          "internalType": "string",
          "name": "version",
          "type": "string"
        },
        {
          "internalType": "uint256",
          "name": "chainId",
          "type": "uint256"
        },
        {
          "internalType": "address",
          "name": "verifyingContract",
          "type": "address"
        },
        {
          "internalType": "bytes32",
          "name": "salt",
          "type": "bytes32"
        },
        {
          "internalType": "uint256[]",
          "name": "extensions",
          "type": "uint256[]"
        }
      ],
      "stateMutability": "view",
      "type": "function"
    },
    {
      "inputs": [
        {
          "internalType": "string",
          "name": "message",
          "type": "string"
        },
        {
          "internalType": "string",
          "name": "latitude",
          "type": "string"
        },
        {
          "internalType": "string",
          "name": "longitude",
          "type": "string"
        },
        {
          "internalType": "uint256",
          "name": "time",
          "type": "uint256"
        },
        {
          "internalType": "uint256",
          "name": "tier",
          "type": "uint256"
        },
        {
          "internalType": "bytes",
          "name": "_signature",
          "type": "bytes"
        }
      ],
      "name": "validateMessage",
      "outputs": [
        {
          "internalType": "address",
          "name": "",
          "type": "address"
        }
      ],
      "stateMutability": "view",
      "type": "function"
    }
  ],
  "bytecode": "0x6101606040523480156200001257600080fd5b5060405162001b5238038062001b5283398181016040528101906200003891906200058c565b8181620000506000836200018660201b90919060201c565b61012081815250506200006e6001826200018660201b90919060201c565b6101408181525050818051906020012060e08181525050808051906020012061010081815250504660a08181525050620000ad620001de60201b60201c565b608081815250503073ffffffffffffffffffffffffffffffffffffffff1660c08173ffffffffffffffffffffffffffffffffffffffff1681525050505062000106677605795e6bf8f49b60c01b6200023b60201b60201c565b62000122673b718fecd7659de060c01b6200023b60201b60201c565b6200017860405180608001604052808481526020018381526020016200014d6200023e60201b60201c565b81526020013073ffffffffffffffffffffffffffffffffffffffff16815250620002b660201b60201c565b600281905550505062000b29565b6000602083511015620001ac57620001a4836200038260201b60201c565b9050620001d8565b82620001be83620003ef60201b60201c565b6000019081620001cf91906200085c565b5060ff60001b90505b92915050565b60007f8b73c3c69bb8fe3d512ecc4cf759cc79239f7b179b0ffacaa9a75d522b39400f60e05161010051463060405160200162000220959493929190620009b4565b60405160208183030381529060405280519060200120905090565b50565b60006200025c674d8781a188f4e9de60c01b6200023b60201b60201c565b62000278671954c3e5c09214e260c01b6200023b60201b60201c565b4690506200029767c4148d33c013634960c01b6200023b60201b60201c565b620002b367dc9d80ffb8b9038260c01b6200023b60201b60201c565b90565b6000620002d4670c6233df7b258fb160c01b6200023b60201b60201c565b620002f06798298bb581e2185e60c01b6200023b60201b60201c565b6200030c670b1e7f8dd82adaa160c01b6200023b60201b60201c565b7f8b73c3c69bb8fe3d512ecc4cf759cc79239f7b179b0ffacaa9a75d522b39400f8260000151805190602001208360200151805190602001208460400151856060015160405160200162000365959493929190620009b4565b604051602081830303815290604052805190602001209050919050565b600080829050601f81511115620003d257826040517f305a27a9000000000000000000000000000000000000000000000000000000008152600401620003c9919062000a63565b60405180910390fd5b805181620003e09062000ab9565b60001c1760001b915050919050565b6000819050919050565b6000604051905090565b600080fd5b600080fd5b600080fd5b600080fd5b6000601f19601f8301169050919050565b7f4e487b7100000000000000000000000000000000000000000000000000000000600052604160045260246000fd5b620004628262000417565b810181811067ffffffffffffffff8211171562000484576200048362000428565b5b80604052505050565b600062000499620003f9565b9050620004a7828262000457565b919050565b600067ffffffffffffffff821115620004ca57620004c962000428565b5b620004d58262000417565b9050602081019050919050565b60005b8381101562000502578082015181840152602081019050620004e5565b60008484015250505050565b6000620005256200051f84620004ac565b6200048d565b90508281526020810184848401111562000544576200054362000412565b5b62000551848285620004e2565b509392505050565b600082601f8301126200057157620005706200040d565b5b8151620005838482602086016200050e565b91505092915050565b60008060408385031215620005a657620005a562000403565b5b600083015167ffffffffffffffff811115620005c757620005c662000408565b5b620005d58582860162000559565b925050602083015167ffffffffffffffff811115620005f957620005f862000408565b5b620006078582860162000559565b9150509250929050565b600081519050919050565b7f4e487b7100000000000000000000000000000000000000000000000000000000600052602260045260246000fd5b600060028204905060018216806200066457607f821691505b6020821081036200067a57620006796200061c565b5b50919050565b60008190508160005260206000209050919050565b60006020601f8301049050919050565b600082821b905092915050565b600060088302620006e47fffffffffffffffffffffffffffffffffffffffffffffffffffffffffffffffff82620006a5565b620006f08683620006a5565b95508019841693508086168417925050509392505050565b6000819050919050565b6000819050919050565b60006200073d62000737620007318462000708565b62000712565b62000708565b9050919050565b6000819050919050565b62000759836200071c565b62000771620007688262000744565b848454620006b2565b825550505050565b600090565b6200078862000779565b620007958184846200074e565b505050565b5b81811015620007bd57620007b16000826200077e565b6001810190506200079b565b5050565b601f8211156200080c57620007d68162000680565b620007e18462000695565b81016020851015620007f1578190505b62000809620008008562000695565b8301826200079a565b50505b505050565b600082821c905092915050565b6000620008316000198460080262000811565b1980831691505092915050565b60006200084c83836200081e565b9150826002028217905092915050565b620008678262000611565b67ffffffffffffffff81111562000883576200088262000428565b5b6200088f82546200064b565b6200089c828285620007c1565b600060209050601f831160018114620008d45760008415620008bf578287015190505b620008cb85826200083e565b8655506200093b565b601f198416620008e48662000680565b60005b828110156200090e57848901518255600182019150602085019450602081019050620008e7565b868310156200092e57848901516200092a601f8916826200081e565b8355505b6001600288020188555050505b505050505050565b6000819050919050565b620009588162000943565b82525050565b620009698162000708565b82525050565b600073ffffffffffffffffffffffffffffffffffffffff82169050919050565b60006200099c826200096f565b9050919050565b620009ae816200098f565b82525050565b600060a082019050620009cb60008301886200094d565b620009da60208301876200094d565b620009e960408301866200094d565b620009f860608301856200095e565b62000a076080830184620009a3565b9695505050505050565b600082825260208201905092915050565b600062000a2f8262000611565b62000a3b818562000a11565b935062000a4d818560208601620004e2565b62000a588162000417565b840191505092915050565b6000602082019050818103600083015262000a7f818462000a22565b905092915050565b600081519050919050565b6000819050602082019050919050565b600062000ab0825162000943565b80915050919050565b600062000ac68262000a87565b8262000ad28462000a92565b905062000adf8162000aa2565b9250602082101562000b225762000b1d7fffffffffffffffffffffffffffffffffffffffffffffffffffffffffffffffff83602003600802620006a5565b831692505b5050919050565b60805160a05160c05160e051610100516101205161014051610fdd62000b7560003960006103550152600061031a01526000505060005050600050506000505060005050610fdd6000f3fe608060405234801561001057600080fd5b50600436106100415760003560e01c806302346b051461004657806384b0196e14610064578063fa09da0714610088575b600080fd5b61004e6100b8565b60405161005b9190610826565b60405180910390f35b61006c610110565b60405161007f9796959493929190610a24565b60405180910390f35b6100a2600480360381019061009d9190610cbe565b6101ba565b6040516100af9190610dbb565b60405180910390f35b60006100ce674d8781a188f4e9de60c01b61030e565b6100e2671954c3e5c09214e260c01b61030e565b4690506100f967c4148d33c013634960c01b61030e565b61010d67dc9d80ffb8b9038260c01b61030e565b90565b600060608060008060006060610124610311565b61012c61034c565b46306000801b600067ffffffffffffffff81111561014d5761014c610ac6565b5b60405190808252806020026020018201604052801561017b5781602001602082028036833780820191505090505b507f0f00000000000000000000000000000000000000000000000000000000000000959493929190965096509650965096509650965090919293949596565b60006101d067a7926f8e9bd5502360c01b61030e565b6101e4671edb4b31eb5d04e060c01b61030e565b6101f86784d080070ab8090960c01b61030e565b60006040518060a00160405280898152602001888152602001878152602001858152602001868152509050610237670367124be565452860c01b61030e565b61024b67d761153cdecd1e7160c01b61030e565b6000610261675bcb680d8cf04c0860c01b61030e565b6102756715f421b8612b91ff60c01b61030e565b600061028b67b14a1065514eac9960c01b61030e565b61029f67e7af03bd9cc3bae460c01b61030e565b60006102b5673ca94e4d7ddcbb3e60c01b61030e565b6102be86610387565b8093508194508295505050506102de6768a932163e49740b60c01b61030e565b6102f267c26b9664f17a361b60c01b61030e565b6102fe848484846104e3565b9450505050509695505050505050565b50565b606061034760007f00000000000000000000000000000000000000000000000000000000000000006105da90919063ffffffff16565b905090565b606061038260017f00000000000000000000000000000000000000000000000000000000000000006105da90919063ffffffff16565b905090565b60008060006103a067a8f6a6a38c4ed47460c01b61030e565b6103b4677ca8545e4de7f19560c01b61030e565b6103c867b8468564871bc76360c01b61030e565b6103dc67d67e65e6dd17112d60c01b61030e565b60418451146103ea57600080fd5b6103fe67b8638811709e768260c01b61030e565b6104126763f72b6e369b09b160c01b61030e565b61042667aea246f0c453720e60c01b61030e565b600061043c67577de50a1f00668c60c01b61030e565b6104506794cedb1e469a174960c01b61030e565b6000610466672250c72ac0ec5aff60c01b61030e565b61047a67e25d539f73c762f260c01b61030e565b600061049067ede93601db22bc4560c01b61030e565b6020870151925060408701519150606087015160001a90506104bc678ec95b7f9784365760c01b61030e565b6104d067e8528638f24d8e1060c01b61030e565b8083839550955095505050509193909250565b60006104f967105ff00a3b12b33060c01b61030e565b61050d67460ca9e94873f19a60c01b61030e565b61052167e69930983dd51ae760c01b61030e565b600060025461052f8761068a565b604051602001610540929190610e4e565b60405160208183030381529060405280519060200120905061056c67ff456692e8d9f0f060c01b61030e565b61058067d432072f6940485760c01b61030e565b600181868686604051600081526020016040526040516105a39493929190610ea1565b6020604051602081039080840390855afa1580156105c5573d6000803e3d6000fd5b50505060206040510351915050949350505050565b606060ff60001b83146105f7576105f083610749565b9050610684565b81805461060390610f15565b80601f016020809104026020016040519081016040528092919081815260200182805461062f90610f15565b801561067c5780601f106106515761010080835404028352916020019161067c565b820191906000526020600020905b81548152906001019060200180831161065f57829003601f168201915b505050505090505b92915050565b60006106a0679fda9599c026502c60c01b61030e565b6106b46764f606e26383e90e60c01b61030e565b6106c867bdb43e4fa61d522160c01b61030e565b7facf5fe31302e000a021505d68f64f59a958ed052954af199025629c07a5c09128260000151805190602001208360200151805190602001208460400151805190602001208560600151866080015160405160200161072c96959493929190610f46565b604051602081830303815290604052805190602001209050919050565b60606000610756836107bd565b90506000602067ffffffffffffffff81111561077557610774610ac6565b5b6040519080825280601f01601f1916602001820160405280156107a75781602001600182028036833780820191505090505b5090508181528360208201528092505050919050565b60008060ff8360001c169050601f811115610804576040517fb3512b0c00000000000000000000000000000000000000000000000000000000815260040160405180910390fd5b80915050919050565b6000819050919050565b6108208161080d565b82525050565b600060208201905061083b6000830184610817565b92915050565b60007fff0000000000000000000000000000000000000000000000000000000000000082169050919050565b61087681610841565b82525050565b600081519050919050565b600082825260208201905092915050565b60005b838110156108b657808201518184015260208101905061089b565b60008484015250505050565b6000601f19601f8301169050919050565b60006108de8261087c565b6108e88185610887565b93506108f8818560208601610898565b610901816108c2565b840191505092915050565b600073ffffffffffffffffffffffffffffffffffffffff82169050919050565b60006109378261090c565b9050919050565b6109478161092c565b82525050565b6000819050919050565b6109608161094d565b82525050565b600081519050919050565b600082825260208201905092915050565b6000819050602082019050919050565b61099b8161080d565b82525050565b60006109ad8383610992565b60208301905092915050565b6000602082019050919050565b60006109d182610966565b6109db8185610971565b93506109e683610982565b8060005b83811015610a175781516109fe88826109a1565b9750610a09836109b9565b9250506001810190506109ea565b5085935050505092915050565b600060e082019050610a39600083018a61086d565b8181036020830152610a4b81896108d3565b90508181036040830152610a5f81886108d3565b9050610a6e6060830187610817565b610a7b608083018661093e565b610a8860a0830185610957565b81810360c0830152610a9a81846109c6565b905098975050505050505050565b6000604051905090565b600080fd5b600080fd5b600080fd5b600080fd5b7f4e487b7100000000000000000000000000000000000000000000000000000000600052604160045260246000fd5b610afe826108c2565b810181811067ffffffffffffffff82111715610b1d57610b1c610ac6565b5b80604052505050565b6000610b30610aa8565b9050610b3c8282610af5565b919050565b600067ffffffffffffffff821115610b5c57610b5b610ac6565b5b610b65826108c2565b9050602081019050919050565b82818337600083830152505050565b6000610b94610b8f84610b41565b610b26565b905082815260208101848484011115610bb057610baf610ac1565b5b610bbb848285610b72565b509392505050565b600082601f830112610bd857610bd7610abc565b5b8135610be8848260208601610b81565b91505092915050565b610bfa8161080d565b8114610c0557600080fd5b50565b600081359050610c1781610bf1565b92915050565b600067ffffffffffffffff821115610c3857610c37610ac6565b5b610c41826108c2565b9050602081019050919050565b6000610c61610c5c84610c1d565b610b26565b905082815260208101848484011115610c7d57610c7c610ac1565b5b610c88848285610b72565b509392505050565b600082601f830112610ca557610ca4610abc565b5b8135610cb5848260208601610c4e565b91505092915050565b60008060008060008060c08789031215610cdb57610cda610ab2565b5b600087013567ffffffffffffffff811115610cf957610cf8610ab7565b5b610d0589828a01610bc3565b965050602087013567ffffffffffffffff811115610d2657610d25610ab7565b5b610d3289828a01610bc3565b955050604087013567ffffffffffffffff811115610d5357610d52610ab7565b5b610d5f89828a01610bc3565b9450506060610d7089828a01610c08565b9350506080610d8189828a01610c08565b92505060a087013567ffffffffffffffff811115610da257610da1610ab7565b5b610dae89828a01610c90565b9150509295509295509295565b6000602082019050610dd0600083018461093e565b92915050565b600081905092915050565b7f1901000000000000000000000000000000000000000000000000000000000000600082015250565b6000610e17600283610dd6565b9150610e2282610de1565b600282019050919050565b6000819050919050565b610e48610e438261094d565b610e2d565b82525050565b6000610e5982610e0a565b9150610e658285610e37565b602082019150610e758284610e37565b6020820191508190509392505050565b600060ff82169050919050565b610e9b81610e85565b82525050565b6000608082019050610eb66000830187610957565b610ec36020830186610e92565b610ed06040830185610957565b610edd6060830184610957565b95945050505050565b7f4e487b7100000000000000000000000000000000000000000000000000000000600052602260045260246000fd5b60006002820490506001821680610f2d57607f821691505b602082108103610f4057610f3f610ee6565b5b50919050565b600060c082019050610f5b6000830189610957565b610f686020830188610957565b610f756040830187610957565b610f826060830186610957565b610f8f6080830185610817565b610f9c60a0830184610817565b97965050505050505056fea26469706673582212204207320ba25bd2938ce0eeca6a6fc285ad5ea75aef18fc59ef85df8c51f7c41664736f6c63430008150033",
  "linkReferences": {},
  "deployedLinkReferences": {}
}