{
  "_format": "hh-sol-artifact-1",
  "contractName": "Reentrant",
  "sourceName": "contracts/test/Reentrant.sol",
  "abi": [
    {
      "inputs": [
        {
          "internalType": "contract IWWW3Shares",
          "name": "_victim",
          "type": "address"
        }
      ],
      "stateMutability": "nonpayable",
      "type": "constructor"
    },
    {
      "inputs": [
        {
          "internalType": "address",
          "name": "owner",
          "type": "address"
        }
      ],
      "name": "OwnableInvalidOwner",
      "type": "error"
    },
    {
      "inputs": [
        {
          "internalType": "address",
          "name": "account",
          "type": "address"
        }
      ],
      "name": "OwnableUnauthorizedAccount",
      "type": "error"
    },
    {
      "anonymous": false,
      "inputs": [
        {
          "indexed": true,
          "internalType": "address",
          "name": "previousOwner",
          "type": "address"
        },
        {
          "indexed": true,
          "internalType": "address",
          "name": "newOwner",
          "type": "address"
        }
      ],
      "name": "OwnershipTransferred",
      "type": "event"
    },
    {
      "stateMutability": "payable",
      "type": "fallback"
    },
    {
      "inputs": [],
      "name": "buyShares",
      "outputs": [],
      "stateMutability": "payable",
      "type": "function"
    },
    {
      "inputs": [],
      "name": "owner",
      "outputs": [
        {
          "internalType": "address",
          "name": "",
          "type": "address"
        }
      ],
      "stateMutability": "view",
      "type": "function"
    },
    {
      "inputs": [],
      "name": "renounceOwnership",
      "outputs": [],
      "stateMutability": "nonpayable",
      "type": "function"
    },
    {
      "inputs": [],
      "name": "sellShares",
      "outputs": [],
      "stateMutability": "payable",
      "type": "function"
    },
    {
      "inputs": [
        {
          "internalType": "address",
          "name": "newOwner",
          "type": "address"
        }
      ],
      "name": "transferOwnership",
      "outputs": [],
      "stateMutability": "nonpayable",
      "type": "function"
    },
    {
      "stateMutability": "payable",
      "type": "receive"
    }
  ],
  "bytecode": "0x608060405234801561001057600080fd5b50604051610a91380380610a918339818101604052810190610032919061026c565b33600073ffffffffffffffffffffffffffffffffffffffff168173ffffffffffffffffffffffffffffffffffffffff16036100a55760006040517f1e4fbdf700000000000000000000000000000000000000000000000000000000815260040161009c91906102a8565b60405180910390fd5b6100b48161013060201b60201c565b506100cf67df602c2e442eec9760c01b6101f460201b60201c565b6100e9672caef8e2bb6d456a60c01b6101f460201b60201c565b80600160006101000a81548173ffffffffffffffffffffffffffffffffffffffff021916908373ffffffffffffffffffffffffffffffffffffffff160217905550506102c3565b60008060009054906101000a900473ffffffffffffffffffffffffffffffffffffffff169050816000806101000a81548173ffffffffffffffffffffffffffffffffffffffff021916908373ffffffffffffffffffffffffffffffffffffffff1602179055508173ffffffffffffffffffffffffffffffffffffffff168173ffffffffffffffffffffffffffffffffffffffff167f8be0079c531659141344cd1fd0a4f28419497f9722a3daafe3b4186f6b6457e060405160405180910390a35050565b50565b600080fd5b600073ffffffffffffffffffffffffffffffffffffffff82169050919050565b6000610227826101fc565b9050919050565b60006102398261021c565b9050919050565b6102498161022e565b811461025457600080fd5b50565b60008151905061026681610240565b92915050565b600060208284031215610282576102816101f7565b5b600061029084828501610257565b91505092915050565b6102a28161021c565b82525050565b60006020820190506102bd6000830184610299565b92915050565b6107bf806102d26000396000f3fe60806040526004361061004e5760003560e01c8063715018a6146101c95780638da5cb5b146101e0578063d9527fa71461020b578063ec7cf77c14610215578063f2fde38b1461021f576100fa565b366100fa57610067670cc2b6fd57e6ef5960c01b610248565b600160009054906101000a900473ffffffffffffffffffffffffffffffffffffffff1673ffffffffffffffffffffffffffffffffffffffff16634ba8ae81670de0b6b3a76400006040518263ffffffff1660e01b81526004016100ca919061065e565b600060405180830381600087803b1580156100e457600080fd5b505af11580156100f8573d6000803e3d6000fd5b005b61010e679ef461c4fc693f5660c01b610248565b61012267d74bb0ef7860984e60c01b610248565b61013667ec744e96410460cf60c01b610248565b600160009054906101000a900473ffffffffffffffffffffffffffffffffffffffff1673ffffffffffffffffffffffffffffffffffffffff16634ba8ae81670de0b6b3a76400006040518263ffffffff1660e01b8152600401610199919061065e565b600060405180830381600087803b1580156101b357600080fd5b505af11580156101c7573d6000803e3d6000fd5b005b3480156101d557600080fd5b506101de61024b565b005b3480156101ec57600080fd5b506101f561025f565b60405161020291906106ba565b60405180910390f35b610213610288565b005b61021d610363565b005b34801561022b57600080fd5b5061024660048036038101906102419190610706565b610436565b005b50565b6102536104bc565b61025d6000610543565b565b60008060009054906101000a900473ffffffffffffffffffffffffffffffffffffffff16905090565b61029c67d36bac6d35a86bb460c01b610248565b6102b067736ad98abfa4a99160c01b610248565b6102c46736dc5d927ad83ff260c01b610248565b600160009054906101000a900473ffffffffffffffffffffffffffffffffffffffff1673ffffffffffffffffffffffffffffffffffffffff1663d1a93d1866044364c5bb0000671bc16d674ec800006040518363ffffffff1660e01b815260040161032f919061076e565b6000604051808303818588803b15801561034857600080fd5b505af115801561035c573d6000803e3d6000fd5b5050505050565b610377673f6495d969bdd1d160c01b610248565b61038b677d807fb52c3cf86b60c01b610248565b61039f678f7b12d7b8e2949660c01b610248565b600160009054906101000a900473ffffffffffffffffffffffffffffffffffffffff1673ffffffffffffffffffffffffffffffffffffffff16634ba8ae81670de0b6b3a76400006040518263ffffffff1660e01b8152600401610402919061065e565b600060405180830381600087803b15801561041c57600080fd5b505af1158015610430573d6000803e3d6000fd5b50505050565b61043e6104bc565b600073ffffffffffffffffffffffffffffffffffffffff168173ffffffffffffffffffffffffffffffffffffffff16036104b05760006040517f1e4fbdf70000000000000000000000000000000000000000000000000000000081526004016104a791906106ba565b60405180910390fd5b6104b981610543565b50565b6104c4610607565b73ffffffffffffffffffffffffffffffffffffffff166104e261025f565b73ffffffffffffffffffffffffffffffffffffffff161461054157610505610607565b6040517f118cdaa700000000000000000000000000000000000000000000000000000000815260040161053891906106ba565b60405180910390fd5b565b60008060009054906101000a900473ffffffffffffffffffffffffffffffffffffffff169050816000806101000a81548173ffffffffffffffffffffffffffffffffffffffff021916908373ffffffffffffffffffffffffffffffffffffffff1602179055508173ffffffffffffffffffffffffffffffffffffffff168173ffffffffffffffffffffffffffffffffffffffff167f8be0079c531659141344cd1fd0a4f28419497f9722a3daafe3b4186f6b6457e060405160405180910390a35050565b600033905090565b6000819050919050565b6000819050919050565b6000819050919050565b600061064861064361063e8461060f565b610623565b610619565b9050919050565b6106588161062d565b82525050565b6000602082019050610673600083018461064f565b92915050565b600073ffffffffffffffffffffffffffffffffffffffff82169050919050565b60006106a482610679565b9050919050565b6106b481610699565b82525050565b60006020820190506106cf60008301846106ab565b92915050565b600080fd5b6106e381610699565b81146106ee57600080fd5b50565b600081359050610700816106da565b92915050565b60006020828403121561071c5761071b6106d5565b5b600061072a848285016106f1565b91505092915050565b6000819050919050565b600061075861075361074e84610733565b610623565b610619565b9050919050565b6107688161073d565b82525050565b6000602082019050610783600083018461075f565b9291505056fea26469706673582212202695b45e3400aa5e0427b2cf673a4c4e4b053aaad77692fc035501a0896b34e364736f6c63430008150033",
  "linkReferences": {},
  "deployedLinkReferences": {}
}