{
  "_format": "hh-sol-artifact-1",
  "contractName": "Reentrant",
  "sourceName": "contracts/test/Reentrant.sol",
  "abi": [
    {
      "inputs": [
        {
          "internalType": "contract IWWW3Shares",
          "name": "_victim",
          "type": "address"
        }
      ],
      "stateMutability": "nonpayable",
      "type": "constructor"
    },
    {
      "anonymous": false,
      "inputs": [
        {
          "indexed": true,
          "internalType": "address",
          "name": "previousOwner",
          "type": "address"
        },
        {
          "indexed": true,
          "internalType": "address",
          "name": "newOwner",
          "type": "address"
        }
      ],
      "name": "OwnershipTransferred",
      "type": "event"
    },
    {
      "inputs": [],
      "name": "approveVictim",
      "outputs": [],
      "stateMutability": "nonpayable",
      "type": "function"
    },
    {
      "inputs": [],
      "name": "buyShares",
      "outputs": [],
      "stateMutability": "payable",
      "type": "function"
    },
    {
      "inputs": [],
      "name": "owner",
      "outputs": [
        {
          "internalType": "address",
          "name": "",
          "type": "address"
        }
      ],
      "stateMutability": "view",
      "type": "function"
    },
    {
      "inputs": [],
      "name": "renounceOwnership",
      "outputs": [],
      "stateMutability": "nonpayable",
      "type": "function"
    },
    {
      "inputs": [],
      "name": "sellShares",
      "outputs": [],
      "stateMutability": "payable",
      "type": "function"
    },
    {
      "inputs": [
        {
          "internalType": "address",
          "name": "newOwner",
          "type": "address"
        }
      ],
      "name": "transferOwnership",
      "outputs": [],
      "stateMutability": "nonpayable",
      "type": "function"
    },
    {
      "stateMutability": "payable",
      "type": "receive"
    }
  ],
  "bytecode": "0x60806040523480156200001157600080fd5b5060405162000ff338038062000ff3833981810160405281019062000037919062000224565b620000576200004b620000d760201b60201c565b620000df60201b60201c565b6200007367a5d87c8276795e0c60c01b620001a360201b60201c565b6200008f67c6edf7f1276a44ec60c01b620001a360201b60201c565b80600160006101000a81548173ffffffffffffffffffffffffffffffffffffffff021916908373ffffffffffffffffffffffffffffffffffffffff1602179055505062000256565b600033905090565b60008060009054906101000a900473ffffffffffffffffffffffffffffffffffffffff169050816000806101000a81548173ffffffffffffffffffffffffffffffffffffffff021916908373ffffffffffffffffffffffffffffffffffffffff1602179055508173ffffffffffffffffffffffffffffffffffffffff168173ffffffffffffffffffffffffffffffffffffffff167f8be0079c531659141344cd1fd0a4f28419497f9722a3daafe3b4186f6b6457e060405160405180910390a35050565b50565b600080fd5b600073ffffffffffffffffffffffffffffffffffffffff82169050919050565b6000620001d882620001ab565b9050919050565b6000620001ec82620001cb565b9050919050565b620001fe81620001df565b81146200020a57600080fd5b50565b6000815190506200021e81620001f3565b92915050565b6000602082840312156200023d576200023c620001a6565b5b60006200024d848285016200020d565b91505092915050565b610d8d80620002666000396000f3fe6080604052600436106100595760003560e01c8063715018a61461010a5780638762d356146101215780638da5cb5b14610138578063d9527fa714610163578063ec7cf77c1461016d578063f2fde38b1461017757610105565b366101055761007267ec744e96410460cf60c01b6101a0565b600160009054906101000a900473ffffffffffffffffffffffffffffffffffffffff1673ffffffffffffffffffffffffffffffffffffffff16634ba8ae81670de0b6b3a76400006040518263ffffffff1660e01b81526004016100d591906109b4565b600060405180830381600087803b1580156100ef57600080fd5b505af1158015610103573d6000803e3d6000fd5b005b600080fd5b34801561011657600080fd5b5061011f6101a3565b005b34801561012d57600080fd5b506101366101b7565b005b34801561014457600080fd5b5061014d6102c0565b60405161015a9190610a10565b60405180910390f35b61016b6102e9565b005b6101756103c4565b005b34801561018357600080fd5b5061019e60048036038101906101999190610a5c565b610616565b005b50565b6101ab610699565b6101b56000610717565b565b6101cb670cc2b6fd57e6ef5960c01b6101a0565b6101df679ef461c4fc693f5660c01b6101a0565b6101f367d74bb0ef7860984e60c01b6101a0565b600160009054906101000a900473ffffffffffffffffffffffffffffffffffffffff1673ffffffffffffffffffffffffffffffffffffffff1663095ea7b3600160009054906101000a900473ffffffffffffffffffffffffffffffffffffffff16671bc16d674ec800006040518363ffffffff1660e01b815260040161027a929190610ac4565b6020604051808303816000875af1158015610299573d6000803e3d6000fd5b505050506040513d601f19601f820116820180604052508101906102bd9190610b25565b50565b60008060009054906101000a900473ffffffffffffffffffffffffffffffffffffffff16905090565b6102fd67538959877dac367b60c01b6101a0565b6103116744f54659affe6c8960c01b6101a0565b6103256715a48fbcf54785b660c01b6101a0565b600160009054906101000a900473ffffffffffffffffffffffffffffffffffffffff1673ffffffffffffffffffffffffffffffffffffffff1663d1a93d1866044364c5bb0000671bc16d674ec800006040518363ffffffff1660e01b81526004016103909190610b52565b6000604051808303818588803b1580156103a957600080fd5b505af11580156103bd573d6000803e3d6000fd5b5050505050565b6103d867fd6adc853a65eddb60c01b6101a0565b6103ec67c625bae51d369d6560c01b6101a0565b6104006752edba5b8885fcc560c01b6101a0565b6104086101b7565b61041c67df602c2e442eec9760c01b6101a0565b610430672caef8e2bb6d456a60c01b6101a0565b6000600160009054906101000a900473ffffffffffffffffffffffffffffffffffffffff1673ffffffffffffffffffffffffffffffffffffffff1663dd62ed3e30600160009054906101000a900473ffffffffffffffffffffffffffffffffffffffff166040518363ffffffff1660e01b81526004016104b1929190610b6d565b602060405180830381865afa1580156104ce573d6000803e3d6000fd5b505050506040513d601f19601f820116820180604052508101906104f29190610bc2565b905061050867d36bac6d35a86bb460c01b6101a0565b61051c67736ad98abfa4a99160c01b6101a0565b610525816107db565b6105396736dc5d927ad83ff260c01b6101a0565b61054d673f6495d969bdd1d160c01b6101a0565b61055630610874565b61056a677d807fb52c3cf86b60c01b6101a0565b61057e678f7b12d7b8e2949660c01b6101a0565b600160009054906101000a900473ffffffffffffffffffffffffffffffffffffffff1673ffffffffffffffffffffffffffffffffffffffff16634ba8ae81670de0b6b3a76400006040518263ffffffff1660e01b81526004016105e191906109b4565b600060405180830381600087803b1580156105fb57600080fd5b505af115801561060f573d6000803e3d6000fd5b5050505050565b61061e610699565b600073ffffffffffffffffffffffffffffffffffffffff168173ffffffffffffffffffffffffffffffffffffffff160361068d576040517f08c379a000000000000000000000000000000000000000000000000000000000815260040161068490610c72565b60405180910390fd5b61069681610717565b50565b6106a161090d565b73ffffffffffffffffffffffffffffffffffffffff166106bf6102c0565b73ffffffffffffffffffffffffffffffffffffffff1614610715576040517f08c379a000000000000000000000000000000000000000000000000000000000815260040161070c90610cde565b60405180910390fd5b565b60008060009054906101000a900473ffffffffffffffffffffffffffffffffffffffff169050816000806101000a81548173ffffffffffffffffffffffffffffffffffffffff021916908373ffffffffffffffffffffffffffffffffffffffff1602179055508173ffffffffffffffffffffffffffffffffffffffff168173ffffffffffffffffffffffffffffffffffffffff167f8be0079c531659141344cd1fd0a4f28419497f9722a3daafe3b4186f6b6457e060405160405180910390a35050565b610871816040516024016107ef9190610d0d565b6040516020818303038152906040527ff82c50f1000000000000000000000000000000000000000000000000000000007bffffffffffffffffffffffffffffffffffffffffffffffffffffffff19166020820180517bffffffffffffffffffffffffffffffffffffffffffffffffffffffff8381831617835250505050610915565b50565b61090a816040516024016108889190610a10565b6040516020818303038152906040527f2c2ecbc2000000000000000000000000000000000000000000000000000000007bffffffffffffffffffffffffffffffffffffffffffffffffffffffff19166020820180517bffffffffffffffffffffffffffffffffffffffffffffffffffffffff8381831617835250505050610915565b50565b600033905090565b61092c8161092461092f610950565b63ffffffff16565b50565b60006a636f6e736f6c652e6c6f679050600080835160208501845afa505050565b61095b819050919050565b610963610d28565b565b6000819050919050565b6000819050919050565b6000819050919050565b600061099e61099961099484610965565b610979565b61096f565b9050919050565b6109ae81610983565b82525050565b60006020820190506109c960008301846109a5565b92915050565b600073ffffffffffffffffffffffffffffffffffffffff82169050919050565b60006109fa826109cf565b9050919050565b610a0a816109ef565b82525050565b6000602082019050610a256000830184610a01565b92915050565b600080fd5b610a39816109ef565b8114610a4457600080fd5b50565b600081359050610a5681610a30565b92915050565b600060208284031215610a7257610a71610a2b565b5b6000610a8084828501610a47565b91505092915050565b6000819050919050565b6000610aae610aa9610aa484610a89565b610979565b61096f565b9050919050565b610abe81610a93565b82525050565b6000604082019050610ad96000830185610a01565b610ae66020830184610ab5565b9392505050565b60008115159050919050565b610b0281610aed565b8114610b0d57600080fd5b50565b600081519050610b1f81610af9565b92915050565b600060208284031215610b3b57610b3a610a2b565b5b6000610b4984828501610b10565b91505092915050565b6000602082019050610b676000830184610ab5565b92915050565b6000604082019050610b826000830185610a01565b610b8f6020830184610a01565b9392505050565b610b9f8161096f565b8114610baa57600080fd5b50565b600081519050610bbc81610b96565b92915050565b600060208284031215610bd857610bd7610a2b565b5b6000610be684828501610bad565b91505092915050565b600082825260208201905092915050565b7f4f776e61626c653a206e6577206f776e657220697320746865207a65726f206160008201527f6464726573730000000000000000000000000000000000000000000000000000602082015250565b6000610c5c602683610bef565b9150610c6782610c00565b604082019050919050565b60006020820190508181036000830152610c8b81610c4f565b9050919050565b7f4f776e61626c653a2063616c6c6572206973206e6f7420746865206f776e6572600082015250565b6000610cc8602083610bef565b9150610cd382610c92565b602082019050919050565b60006020820190508181036000830152610cf781610cbb565b9050919050565b610d078161096f565b82525050565b6000602082019050610d226000830184610cfe565b92915050565b7f4e487b7100000000000000000000000000000000000000000000000000000000600052605160045260246000fdfea2646970667358221220bed20468c0cbb29e74e4ce214de69fc5b4226e2374cca3b1befc4a92fbccb91864736f6c63430008150033",
  "linkReferences": {},
  "deployedLinkReferences": {}
}