{
  "contractName": "WorldWideWeb3",
  "abi": [
    {
      "inputs": [
        {
          "internalType": "string",
          "name": "name",
          "type": "string"
        },
        {
          "internalType": "string",
          "name": "version",
          "type": "string"
        }
      ],
      "stateMutability": "nonpayable",
      "type": "constructor"
    },
    {
      "anonymous": false,
      "inputs": [
        {
          "indexed": true,
          "internalType": "address",
          "name": "previousOwner",
          "type": "address"
        },
        {
          "indexed": true,
          "internalType": "address",
          "name": "newOwner",
          "type": "address"
        }
      ],
      "name": "OwnershipTransferred",
      "type": "event"
    },
    {
      "inputs": [],
      "name": "_getChainId",
      "outputs": [
        {
          "internalType": "uint256",
          "name": "chainId",
          "type": "uint256"
        }
      ],
      "stateMutability": "view",
      "type": "function"
    },
    {
      "inputs": [
        {
          "internalType": "address",
          "name": "",
          "type": "address"
        }
      ],
      "name": "frensTrust",
      "outputs": [
        {
          "internalType": "uint256",
          "name": "",
          "type": "uint256"
        }
      ],
      "stateMutability": "view",
      "type": "function"
    },
    {
      "inputs": [
        {
          "internalType": "uint256",
          "name": "",
          "type": "uint256"
        }
      ],
      "name": "messages",
      "outputs": [
        {
          "internalType": "string",
          "name": "message",
          "type": "string"
        },
        {
          "internalType": "string",
          "name": "latitude",
          "type": "string"
        },
        {
          "internalType": "string",
          "name": "longitude",
          "type": "string"
        },
        {
          "internalType": "uint256",
          "name": "tier",
          "type": "uint256"
        },
        {
          "internalType": "uint256",
          "name": "time",
          "type": "uint256"
        }
      ],
      "stateMutability": "view",
      "type": "function"
    },
    {
      "inputs": [],
      "name": "owner",
      "outputs": [
        {
          "internalType": "address",
          "name": "",
          "type": "address"
        }
      ],
      "stateMutability": "view",
      "type": "function"
    },
    {
      "inputs": [],
      "name": "renounceOwnership",
      "outputs": [],
      "stateMutability": "nonpayable",
      "type": "function"
    },
    {
      "inputs": [
        {
          "internalType": "uint256",
          "name": "",
          "type": "uint256"
        }
      ],
      "name": "tierPrice",
      "outputs": [
        {
          "internalType": "uint256",
          "name": "",
          "type": "uint256"
        }
      ],
      "stateMutability": "view",
      "type": "function"
    },
    {
      "inputs": [
        {
          "internalType": "address",
          "name": "newOwner",
          "type": "address"
        }
      ],
      "name": "transferOwnership",
      "outputs": [],
      "stateMutability": "nonpayable",
      "type": "function"
    },
    {
      "inputs": [
        {
          "internalType": "string",
          "name": "message",
          "type": "string"
        },
        {
          "internalType": "string",
          "name": "latitude",
          "type": "string"
        },
        {
          "internalType": "string",
          "name": "longitude",
          "type": "string"
        },
        {
          "internalType": "uint256",
          "name": "deadline",
          "type": "uint256"
        },
        {
          "internalType": "uint256",
          "name": "tier",
          "type": "uint256"
        },
        {
          "internalType": "bytes",
          "name": "_signature",
          "type": "bytes"
        }
      ],
      "name": "validateMessage",
      "outputs": [
        {
          "internalType": "address",
          "name": "",
          "type": "address"
        }
      ],
      "stateMutability": "view",
      "type": "function"
    },
    {
      "inputs": [
        {
          "internalType": "string",
          "name": "message",
          "type": "string"
        },
        {
          "internalType": "string",
          "name": "latitude",
          "type": "string"
        },
        {
          "internalType": "string",
          "name": "longitude",
          "type": "string"
        },
        {
          "internalType": "uint256",
          "name": "deadline",
          "type": "uint256"
        },
        {
          "internalType": "uint256",
          "name": "tier",
          "type": "uint256"
        },
        {
          "internalType": "bytes",
          "name": "signature",
          "type": "bytes"
        }
      ],
      "name": "submitMessage",
      "outputs": [],
      "stateMutability": "payable",
      "type": "function"
    }
  ],
  "bytecode": "0x6101406040523480156200001257600080fd5b506040516200108738038062001087833981016040819052620000359162000324565b815160208084019190912082518383012060e08281526101008281524660a08181526040805160008051602062001067833981519152818a018190528183019890985260608101969096526080808701849052308784018190528251808903909401845260c0808901808552855195909b019490942090915291829052610120968752610140860190528887529284018790529083015291015282908290620000de9062000180565b60005550620000ef9050336200020d565b50506004602052660aa87bee5380007fabd6e7cb50984ff9c2f3e18a2660c3353dadf4e3291deeb275dae2cd1e44fe0555666a94d74f4300007f91da3fd0782e51c6b3986e9e672fd566868e71f3dbc2d6c2cd6fbb3e361af2a7556003600052670429d069189e00007f2e174c10e159ea99b867ce3205125c24a42d128804e4070ed6fcc8cc98166aa0556200038e565b60006000805160206200106783398151915282600001518051906020012083602001518051906020012084604001518560600151604051602001620001f09594939291909485526020850193909352604084019190915260608301526001600160a01b0316608082015260a00190565b604051602081830303815290604052805190602001209050919050565b600180546001600160a01b038381166001600160a01b0319831681179093556040519116919082907f8be0079c531659141344cd1fd0a4f28419497f9722a3daafe3b4186f6b6457e090600090a35050565b634e487b7160e01b600052604160045260246000fd5b600082601f8301126200028757600080fd5b81516001600160401b0380821115620002a457620002a46200025f565b604051601f8301601f19908116603f01168101908282118183101715620002cf57620002cf6200025f565b81604052838152602092508683858801011115620002ec57600080fd5b600091505b83821015620003105785820183015181830184015290820190620002f1565b600093810190920192909252949350505050565b600080604083850312156200033857600080fd5b82516001600160401b03808211156200035057600080fd5b6200035e8683870162000275565b935060208501519150808211156200037557600080fd5b50620003848582860162000275565b9150509250929050565b60805160a05160c05160e0516101005161012051610c9b620003cc600039600050506000505060005050600050506000505060005050610c9b6000f3fe6080604052600436106100865760003560e01c8063826d337911610059578063826d3379146101225780638da5cb5b1461014f578063baed55e814610181578063f2fde38b14610194578063fa09da07146101b457600080fd5b806302346b051461008b5780630d80fefd146100ad578063715018a6146100de57806372e09af2146100f5575b600080fd5b34801561009757600080fd5b50465b6040519081526020015b60405180910390f35b3480156100b957600080fd5b506100cd6100c8366004610895565b6101d4565b6040516100a49594939291906108f4565b3480156100ea57600080fd5b506100f36103b2565b005b34801561010157600080fd5b5061009a610110366004610942565b60036020526000908152604090205481565b34801561012e57600080fd5b5061009a61013d366004610895565b60046020526000908152604090205481565b34801561015b57600080fd5b506001546001600160a01b03165b6040516001600160a01b0390911681526020016100a4565b6100f361018f366004610a15565b6103c6565b3480156101a057600080fd5b506100f36101af366004610942565b6105e7565b3480156101c057600080fd5b506101696101cf366004610a15565b610660565b600281815481106101e457600080fd5b906000526020600020906005020160009150905080600001805461020790610ad4565b80601f016020809104026020016040519081016040528092919081815260200182805461023390610ad4565b80156102805780601f1061025557610100808354040283529160200191610280565b820191906000526020600020905b81548152906001019060200180831161026357829003601f168201915b50505050509080600101805461029590610ad4565b80601f01602080910402602001604051908101604052809291908181526020018280546102c190610ad4565b801561030e5780601f106102e35761010080835404028352916020019161030e565b820191906000526020600020905b8154815290600101906020018083116102f157829003601f168201915b50505050509080600201805461032390610ad4565b80601f016020809104026020016040519081016040528092919081815260200182805461034f90610ad4565b801561039c5780601f106103715761010080835404028352916020019161039c565b820191906000526020600020905b81548152906001019060200180831161037f57829003601f168201915b5050505050908060030154908060040154905085565b6103ba6106bc565b6103c46000610716565b565b336103d5878787878787610660565b6001600160a01b0316146104245760405162461bcd60e51b8152602060048201526011602482015270496e76616c6964207369676e617475726560781b60448201526064015b60405180910390fd5b6000821180156104345750600482105b61046f5760405162461bcd60e51b815260206004820152600c60248201526b34b73b30b634b2103a34b2b960a11b604482015260640161041b565b60008281526004602052604090205434146104cc5760405162461bcd60e51b815260206004820152601760248201527f696e636f7265637420707269636520666f722074696572000000000000000000604482015260640161041b565b82421061050d5760405162461bcd60e51b815260206004820152600f60248201526e70617373656420646561646c696e6560881b604482015260640161041b565b336000908152600360205260408120805434929061052c908490610b0e565b90915550506040805160a081018252878152602081018790529081018590526060810183905242608082015260028054600181018255600091909152815160059091027f405787fa12a823e0f2b7631cc41b3ba8828b3321ca811111fa75cd3aa3bb5ace0190819061059e9082610b84565b50602082015160018201906105b39082610b84565b50604082015160028201906105c89082610b84565b5060608201518160030155608082015181600401555050505050505050565b6105ef6106bc565b6001600160a01b0381166106545760405162461bcd60e51b815260206004820152602660248201527f4f776e61626c653a206e6577206f776e657220697320746865207a65726f206160448201526564647265737360d01b606482015260840161041b565b61065d81610716565b50565b6000806040518060a00160405280898152602001888152602001878152602001858152602001868152509050600080600061069a86610768565b919450925090506106ad84848484610797565b9b9a5050505050505050505050565b6001546001600160a01b031633146103c45760405162461bcd60e51b815260206004820181905260248201527f4f776e61626c653a2063616c6c6572206973206e6f7420746865206f776e6572604482015260640161041b565b600180546001600160a01b038381166001600160a01b0319831681179093556040519116919082907f8be0079c531659141344cd1fd0a4f28419497f9722a3daafe3b4186f6b6457e090600090a35050565b6000806000835160411461077b57600080fd5b5050506020810151604082015160609092015160001a92909190565b6000806000546107a687610841565b60405161190160f01b60208201526022810192909252604282015260620160408051601f1981840301815282825280516020918201206000845290830180835281905260ff8816918301919091526060820186905260808201859052915060019060a0016020604051602081039080840390855afa15801561082c573d6000803e3d6000fd5b5050604051601f190151979650505050505050565b8051604051600091610878917f37ac7ffc3bb3032638f4076b219959dbf31b78ca5540aa71a3483c77a77bbc3b9190602001610c44565b604051602081830303815290604052805190602001209050919050565b6000602082840312156108a757600080fd5b5035919050565b6000815180845260005b818110156108d4576020818501810151868301820152016108b8565b506000602082860101526020601f19601f83011685010191505092915050565b60a08152600061090760a08301886108ae565b828103602084015261091981886108ae565b9050828103604084015261092d81876108ae565b60608401959095525050608001529392505050565b60006020828403121561095457600080fd5b81356001600160a01b038116811461096b57600080fd5b9392505050565b634e487b7160e01b600052604160045260246000fd5b600082601f83011261099957600080fd5b813567ffffffffffffffff808211156109b4576109b4610972565b604051601f8301601f19908116603f011681019082821181831017156109dc576109dc610972565b816040528381528660208588010111156109f557600080fd5b836020870160208301376000602085830101528094505050505092915050565b60008060008060008060c08789031215610a2e57600080fd5b863567ffffffffffffffff80821115610a4657600080fd5b610a528a838b01610988565b97506020890135915080821115610a6857600080fd5b610a748a838b01610988565b96506040890135915080821115610a8a57600080fd5b610a968a838b01610988565b9550606089013594506080890135935060a0890135915080821115610aba57600080fd5b50610ac789828a01610988565b9150509295509295509295565b600181811c90821680610ae857607f821691505b602082108103610b0857634e487b7160e01b600052602260045260246000fd5b50919050565b80820180821115610b2f57634e487b7160e01b600052601160045260246000fd5b92915050565b601f821115610b7f57600081815260208120601f850160051c81016020861015610b5c5750805b601f850160051c820191505b81811015610b7b57828155600101610b68565b5050505b505050565b815167ffffffffffffffff811115610b9e57610b9e610972565b610bb281610bac8454610ad4565b84610b35565b602080601f831160018114610be75760008415610bcf5750858301515b600019600386901b1c1916600185901b178555610b7b565b600085815260208120601f198616915b82811015610c1657888601518255948401946001909101908401610bf7565b5085821015610c345787850151600019600388901b60f8161c191681555b5050505050600190811b01905550565b828152604060208201526000610c5d60408301846108ae565b94935050505056fea2646970667358221220385ca43d2def879e94bffd47799a141e6e6f12557fa53bf72802126eebffe78a64736f6c634300081400338b73c3c69bb8fe3d512ecc4cf759cc79239f7b179b0ffacaa9a75d522b39400f",
  "immutableReferences": {},
  "source": "// SPDX-License-Identifier: UNLICENSED\npragma solidity 0.8.20;\n\nimport \"../node_modules/@openzeppelin/contracts/utils/cryptography/draft-EIP712.sol\";\nimport \"../node_modules/@openzeppelin/contracts/utils/cryptography/ECDSA.sol\";\nimport \"../node_modules/@openzeppelin/contracts/access/Ownable.sol\";\nimport \"./EIP712Message.sol\";\n// Uncomment this line to use console.log\n// import \"hardhat/console.sol\";\n\ncontract WorldWideWeb3 is EIP712Message, Ownable{\n\n\n    Message[] public messages;\n   \n    mapping(address => uint256) public frensTrust;\n    mapping(uint256 => uint256) public tierPrice;\n\n    constructor(string memory name, string memory version) \n        EIP712Message(name, version){\n            tierPrice[1] = 3000000000000000;\n            tierPrice[2] = 30000000000000000;\n            tierPrice[3] = 300000000000000000;\n    }\n\n    function submitMessage(\n        string memory message,\n        string memory latitude,\n        string memory longitude,\n        uint256 deadline,\n        uint256 tier,\n        bytes memory signature \n    ) public payable {\n        require(validateMessage(message, latitude, longitude, deadline, tier, signature) == msg.sender,\"Invalid signature\");\n        require(tier > 0 && tier < 4, \"invalid tier\");\n        require(msg.value == tierPrice[tier],\"incorect price for tier\");\n        require(block.timestamp < deadline, \"passed deadline\");\n\n        frensTrust[msg.sender] += msg.value;\n    \n        messages.push( \n            Message({\n                message: message,\n                latitude: latitude,\n                longitude: longitude,\n                tier: tier,\n                time: block.timestamp\n            })\n        );\n\n\n\n    }\n\n}\n",
  "sourcePath": "/home/ian/Documents/GitHub/www3-contract/contracts/WorldWideWeb3.sol",
  "compiler": {
    "name": "solc",
    "version": "0.8.20+commit.a1b79de6.Emscripten.clang"
  },
  "schemaVersion": "3.4.10",
  "updatedAt": "2023-05-22T17:16:42.984Z",
  "devdoc": {
    "kind": "dev",
    "methods": {
      "owner()": {
        "details": "Returns the address of the current owner."
      },
      "renounceOwnership()": {
        "details": "Leaves the contract without owner. It will not be possible to call `onlyOwner` functions anymore. Can only be called by the current owner. NOTE: Renouncing ownership will leave the contract without an owner, thereby removing any functionality that is only available to the owner."
      },
      "transferOwnership(address)": {
        "details": "Transfers ownership of the contract to a new account (`newOwner`). Can only be called by the current owner."
      }
    },
    "version": 1
  },
  "userdoc": {
    "kind": "user",
    "methods": {
      "_getChainId()": {
        "notice": "get the chain id from the evm"
      }
    },
    "version": 1
  }
}